:040000006F10701FEE
:1000040000000000000000007008000072080000FA
:1000140000000000F41900000000000000000000CF
:10002400F4190000F41900000000000000000000B2
:100034001237000000000000000200000000000071
:10004400F4190000F4190000F4190000F419000078
:10005400F4190000F4190000F4190000F419000068
:10006400F4190000F4190000F4190000F419000058
:10007400F4190000F4190000F4190000F419000048
:10008400F4190000F4190000F4190000DE2E000039
:100094003E2F00009C2F0000FA2F0000F4190000EE
:1000A400F419000054320000F4190000F41900009F
:1000B400F4190000F4190000F4190000F419000008
:1000C400F4190000F4190000F4190000F4190000F8
:1000D400F4190000F4190000F419000008350000B8
:1000E400F4190000F4190000F4190000F4190000D8
:1000F400F4190000F4190000F4190000F4190000C8
:1001040000000000F4190000F4190000F4190000C4
:10011400F4190000F4190000F4190000F4190000A7
:10012400F4190000F4190000F4190000F419000097
:10013400F4190000F4190000F4190000F419000087
:10014400F4190000F4190000F4190000960C0000E2
:10015400F4190000F4190000F4190000F419000067
:10016400F4190000F4190000F4190000F419000057
:10017400F4190000F4190000F4190000F419000047
:10018400F4190000F4190000F4190000F419000037
:10019400F4190000F4190000F4190000F419000027
:1001A400000000000000000000000000000000004B
:0C01B4000000000000000000000000003F
:10020000130181F806C216C41AC61EC822CA26CC1B
:100210002ACE2ED032D236D43AD63ED842DA46DC76
:100220004ADECEC0D2C2D6C4DAC6DEC8E2CAE6CC46
:10023000EACEEED0F2D2F6D4FAD6FED8F3220030CF
:1002400096DA9702002083A262EF23A02200F32512
:1002500010342EC09305000273A0458003A1C18213
:10026000EF40101417030020032343ED0321030084
:10027000824273901234D652739002309240A2425E
:100280003243C2435244E244724582551256A2564A
:100290003257C2575258E25872598649164AA64AEE
:1002A000364BC64B564CE64C764D865D165EA65ECA
:1002B000365FC65F13018107730020301300000012
:1002C00013000000130000001300000013000000E2
:1002D00013000000130000001300000013000000D2
:1002E00013000000130000001300000013000000C2
:1002F00013000000130000001300000013000000B2
:1003000083A2C182938202E073900234170100201D
:100310000321C1E2024182403243C2435244E244DB
:10032000724582551256A2563257C2575258E25859
:1003300072598649164AA64A364BC64B564CE64C6D
:10034000764D865D165EA65E365FC65FD652A1020A
:1003500073900230A24213018107828013000000D3
:100360001300000013000000130000001300000041
:100370001300000013000000130000001300000031
:100380001300000013000000130000001300000021
:100390001300000013000000130000001300000011
:1003A0001300000013000000130000001300000001
:1003B00013000000130000001300000013000000F1
:1003C00013000000130000001300000013000000E1
:1003D00013000000130000001300000013000000D1
:1003E00013000000130000001300000013000000C1
:1003F00013000000130000001300000013000000B1
:10040000F322003093F272FF130380781203B3E2F9
:100410006200711523205500130585FA10C12115BE
:10042000232005009302000063870200711523203A
:100430000500FD12D5BF71150CC1828000000000BF
:1004400000000000000000000000000000000000AC
:10045000000000000000000000000000000000009C
:10046000000000000000000000000000000000008C
:10047000000000000000000000000000000000007C
:10048000000000000000000000000000000000006C
:10049000000000000000000000000000000000005C
:1004A000000000000000000000000000000000004C
:1004B000000000000000000000000000000000003C
:1004C000000000000000000000000000000000002C
:1004D000000000000000000000000000000000001C
:1004E000000000000000397101436EC619A0397187
:1004F00041536AC866CA62CC5ECE19A039710153F5
:100500005AD056D252D44ED64AD826DA22DC06DE4B
:1005100033016140828241114AC026C222C406C60C
:100520008282B24D4101024D924C224CB24B4101AC
:10053000024B924A224AB249410102499244224462
:10054000B240410182803D432A876373C30293779F
:10055000F700BDEFADE5937606FF3D8ABA960CC372
:100560004CC30CC74CC74107E36BD7FE11E2828036
:10057000B306C3408A069702000096966780A600DD
:100580002307B700A306B7002306B700A305B700EB
:100590002305B700A304B7002304B700A303B700E3
:1005A0002303B700A302B7002302B700A301B700DB
:1005B0002301B700A300B7002300B700828093F5A2
:1005C000F50F93968500D58D93960501D58D61B76E
:1005D000939627009702000096968682E78086FA17
:1005E0009680C1171D8F3E96E374C3F8A5B782802D
:1005F000EFF27FF2B707002003A5870D41117400C9
:1006000005469305B10002C6EF30F04F09C58C8551
:100610000945EF20D062B24791C7B7E700E0116704
:1006200023A0E720410111BFEFF2FFEEB705002044
:1006300041111384E50C09459385E50C02C6EF20B2
:10064000B0611C2074000546DC85B707002003A5B7
:10065000470D9305B100EF30702FB24791C7B7E750
:1006600000E0116723A0E7204101C1BD370500204C
:100670001305850C8280EFF21FEA1387C1AF9386C2
:10068000819C0546814513054006EF307001370413
:1006900000202328A40C1387C1B3938641A90146E7
:1006A000854513054006EF30A07FB707002013876C
:1006B000C1B19386C1A20146854523ACA70C1305A1
:1006C0004006EF30E07DB707002023AAA70C1305F2
:1006D000040DEF10503FEF20205837350000130570
:1006E000A58BEF20E042370400001305E45EEF2005
:1006F000C0421305E45EEF200041F16501478146E9
:100700000146938505200945EF2030483706000053
:10071000B7050000054785461306065F9385856289
:100720000945EF20D04E0945EF20F04CB7050020D9
:100730009385E50C0945EF203052B7360000E1659E
:10074000814705479386A689130630069385056A77
:100750000145EF20703C0145EF20302EF9BBEFF250
:100760009FDB370400201304840DAA840840411144
:100770002EC6EF30D043854732466311F50208405C
:100780007D169385140081461376F60FEF30B00581
:100790008C200945EF20B04A410145B3084081460D
:1007A000A685EF305004CDBFEFF2FFD35971B70AE1
:1007B000002037090020138B0190B7040020138418
:1007C0004A0D0840EF30B03E0DC937040020130435
:1007D000040D0840EF30B03D7DF10840938541960F
:1007E000814613064006EF30F0219375F50F13850F
:1007F0004196A386B40CA537D9B7084081461306A5
:1008000040066C00EF301020937BF50F0144130C71
:100810004006B54C9377F40FE3F977FB78008347F4
:10082000C90C22971823B306FB00130DC90C98A21C
:100830006365FC0085072300FD006319970383456A
:100840000D009386D40C13864196FD1593F5F50F94
:1008500013850190938DD40CEF10902783C50D0064
:1008600081C513854196E53D23000D0005045DB764
:1008700001A001A0EFF23FCAEF20900D3714014014
:10088000130504C0E14637461D0093050020EF2004
:100890001009130504C09306800437461D00930514
:1008A0000010EF20D007E1460146130504C0930570
:1008B0000040EF20D006856593850580130504C0B0
:1008C000EF2010054D3B0545EF00D0716D24054527
:1008D000952EA5B1EFF23FC40945EF10E05E192255
:1008E000513F8524EF30306F01A0B7170240984385
:1008F000B706FFF041111367170098C3D8433706B6
:100900000200758FD8C39843B706F7FEFD16758FA2
:1009100098C39843B706FCFFFD16758F98C3D8435C
:10092000B70601FFFD16758FD8C39843B70600ECD4
:10093000FD16758F98C33707FF0098C723A60702D7
:1009400002C402C69843C166558F98C3B7160240C9
:1009500005679C42F18F3EC6A24785073EC4B24759
:1009600081E7A247E397E7FEB71702409C4313973E
:10097000E7006357070685473EC632478547631F32
:10098000F704B7170240D843B706C1FFFD16D8C316
:10099000D843D8C3D84313670740D8C3D843758F0B
:1009A000D8C3D843B7061D00558FD8C39843B706A0
:1009B0000001558F98C3984393166700E3DD06FE48
:1009C000D843B7160240719BD8C3D843136727009A
:1009D000D8C32147DC42B18BE39EE7FE4101828010
:1009E00002C661BFB7160240D842B70700201146C1
:1009F000318B938707096305C70021466308C70247
:100A000037177A001307072098C337170240584357
:100A100011839376F70037070020130707003697F6
:100A2000142398433357D70098C38280D842D442C6
:100A3000416649833D8BF18E1306270015CF3D4754
:100A4000630FE6024147630FE602454781456313A2
:100A5000E6004146A1E23747024003270780418B69
:100A60000DC737177A00130707203306C70290C354
:100A7000C9DD9843058349BF81454946E1BF8545A6
:100A80003546C9BF81453D46F1B737173D001307CD
:100A90000790E1BF3715024058559316F700585597
:100AA00063DF060411833D8B9306170037177A0026
:100AB000130707203357D70298C35455A182BD8A24
:100AC0008DE295463307D702058398C33717024056
:100AD000585794433D8B050733D7E60298C3984394
:100AE00069B705456394A600E546E9BF3D456396B1
:100AF000A600D1463387E602C9BF8906E5BF3D8B14
:100B00009306170037177A00130707203357D702C9
:100B1000F1B7B7170020938707041CC19387C1F56D
:100B20009CC1930700101CC28280B71700209387D6
:100B300047091CC19387C1359CC1930700101CC293
:100B40008280EFF25F9D1D362A8437180020B7752A
:100B50000000370500001308C8FE9387C1B5194788
:100B60008546130600109385859C1305857AEF3022
:100B7000303C08C0D9B2EFF21F9A0545EF10C055BE
:100B80000145EF10E04F0545EF10E04D0545EF1032
:100B9000C0500545EF1000520565854513050580D9
:100BA000EF10804A85450565EF10004A79B2B70716
:100BB00000501307C004D8A713078004D8B737170D
:100BC00000201307871298CB3717002013078716CA
:100BD000D8CB37270020130787A698CF37170020D8
:100BE0001307871AD8CF371700201307871E98D30B
:100BF000A3890702A38D0702A3810704239A070292
:100C0000239E07022390070409472389E702238BC9
:100C1000E702238FE7022381E704B70700209387C9
:100C2000470E23800700A380070023810700A381CC
:100C3000070023820700A382070023830700A38302
:100C400007008280EFF23F8D3704005099471CA0C7
:100C50001DC52945EF40B02C9D47230004003CA052
:100C6000930790021CA0A137930710F81CB0370718
:100C70000800B7E700E023A4E7106FF01F8C2945B8
:100C8000EF40F029B7E700E0230004003707080031
:100C900023A4E718DDB7011122CE26CC4ACA4EC8DC
:100CA00052C656C45AC23704005078207C3013779D
:100CB000F70F93762700E385061A93F7F70F13F7DC
:100CC000070393060002630DD70A130600036301AE
:100CD000C73A69E313F7F70309466306C7261146C7
:100CE000630DC73245EB022493F7070442044180A9
:100CF000D5C3B707002083C7470FB70400209384EC
:100D0000240F93F70706BDC3B70700201387E70E2C
:100D10002390040018239387E70E6396E61C371789
:100D20000020130787121423B7270020938787E634
:100D3000238DD7021433A38DD7023423238ED702F9
:100D40003433A38ED7025423238FD702543378230E
:100D5000A38FD7022380E7047947A380E704F83301
:100D60001377F70FA380E704EF00F0429E20C2073D
:100D7000C1838DE3B7070050239807021147EDA008
:100D800093F7F70393061002638FD70E63EAF6001A
:100D90006385E704B70700500947F8A36F00B00F59
:100DA000130730026386E71013074002E394E7FE5F
:100DB0008347240493C747002301F4048347240492
:100DC00093F7C70F93E727002301F404B707002028
:100DD0009387470E2382070075BFB70400209387CF
:100DE000240F9E239384240FC207C18381E7914778
:100DF000A309F402B707002083C7470F93F707063C
:100E0000D1FBB707002083C7E70E154793F7F70F0D
:100E1000638FE7041947E39FE7F69E201307F0036B
:100E2000130400046365F7008220420441803709FF
:100E300000201309890F8329090037150020228615
:100E4000CE8513058512EF40B0179E20A29923206E
:100E50003901818FC207C1839EA0B707005082BBB2
:100E600003C72703134747002389E70225B737073E
:100E700000503C33B706002083C6E60D93F7070801
:100E8000D58F3CB301BF8347640393C74700230B4F
:100E9000F4028347640393F7C70F93E72700230BFC
:100EA000F402B70700209387470EA3800700DDB543
:100EB0008347E40393C74700230FF4028347E40307
:100EC00093F7C70F93E72700230FF402B70700201B
:100ED0009387470EA3810700B7270020938787E6F3
:100EE000238A070245BD9C232547E311F7E837090C
:100EF00000201309C90D03550900B7170020938777
:100F0000870EB715002022863E9593858512EF4007
:100F1000300B9E20818FC207C1839EA0835709009A
:100F20003E944204418023108900B707005003C754
:100F3000370313474700A389E70203C737030D8B25
:100F4000A389E70225B58347B40393C74700A30DE0
:100F5000F402B7270020138787E6102714379387FA
:100F600087E6A206D18E12248606BA9642064182F0
:100F70009375F60FE8262182ECA6EC36F0B6102722
:100F800014370C27A206D18E8506C206C18213F63D
:100F9000F60F10A7A182103714B710271437A20636
:100FA000D18E372600209A06130686A6B29614CC58
:100FB000142718372207558FBD4663F9E600982796
:100FC000238407009837A384070010CCD427D83790
:100FD000D0272207558F0507420741839376F70FE5
:100FE000D4A72183D437D8B7D427D8372207558F31
:100FF000B546E3F1E6DA370700508346B70393F6C8
:10100000C60FA30DD7028346B70393E62600A30DB0
:10101000D7020547A38CE702B5BB834734043717D3
:1010200000201307871E93C74700A301F40416246A
:101030008147C206C1826393D7023707005023104D
:10104000F7048347270493F7C70F2301F704834767
:10105000270493F7F70F2301F7042DBB102385070F
:10106000C2071346F6FF2300C704C1830507E1B793
:1010700099472309F402371A0020A309F4029305C3
:101080008A129C21B70900201386490F98311CA2AF
:10109000F621B7070020370900209387E70E98A3B1
:1010A0001307290F16A3B621370700209308670FEF
:1010B00003D845002390D800B70600201385060FFB
:1010C00023100501034806001309290F9389490FCE
:1010D0001378080613068A121307670F9386060F04
:1010E000630E081803C80900B70A0020938A8A0F04
:1010F00013780802630908169C23294893F7F70F11
:10110000638E070F6368F80209476385E712636817
:10111000F70005476389E7081304F00F15A80D478A
:101120006386E7122547E399E7FEB7070020239E71
:10113000070C8DA0130610026380C7066366F604D1
:101140002D46638BC70C130700020144E396E7FCAE
:10115000835709001307F003930400046366F70044
:1011600083540900C204C18003AB0A00268613051C
:101170008A12DA85DA94EF40A06423A09A009307DC
:10118000F00F6317F422C5AC130730021304F00FFD
:10119000E360F7FC01446DBFB7270020938727EA7F
:1011A00023A0FA00C5BF9E221304F00FC207C1831B
:1011B000C5F3B70400209387C40D2390070083571D
:1011C00009001307F0039384C40D1304000463663D
:1011D000F70003540900420441808E20B717002015
:1011E0009387870E2286BE9513058A12EF40405DD5
:1011F0009E203E944204418082A069BF1E211304B8
:10120000F00FC207C183A9F783D708003707002072
:10121000A1832306F70EBDBF9E221304F00FC20761
:10122000C1839DF71E233707002093F7F70FA3060E
:10123000F70E8DB71E211304F00FC207C18389FB7F
:10124000B707002083C7C70E9CA1A9B79E2213042D
:10125000F00FC207C183E39D07EEB707002083C7E5
:10126000D70E1CA205BF03C4090019801344140043
:101270000588330480401374F40FD9BD9C23AD4519
:1012800093F7F70F63E9F51E9D658A079385059D22
:10129000AE979C4382871E23B70400200D46A1838E
:1012A0009384840F6388C70A636CF60005476388DC
:1012B000E7020947638BE70681471304F00F3DA05F
:1012C00013071002638EE70613072002E396E7FE7A
:1012D0009D67938707A89CC09307200239A09D674C
:1012E0001387C7A683C7C7A698C001440357090040
:1012F00063F4E7002310F900835709001307F00394
:10130000930A00046367F700835A0900C20A93DA5C
:101310000A0103AB0400568613058A12DA85DA9AAD
:10132000EF40004A23A0540199BD1D67130707A091
:101330003C3398C03823A207BA97C207C18375B758
:101340009E220947E31AF7F69D67938747A59CC03D
:10135000A54761BF1A2385461377F70F6305D702A8
:1013600009CF89466308D702E318F7F49D6713870E
:1013700087AC98C083C787AC8DBF1387018298C0A4
:1013800083C701829DB79D67138747AA98C083C70B
:1013900047AAA1BF9D67138747AB98C083C747ABD8
:1013A000A9B71E233707002093F7F70F230FF70C79
:1013B00083C70900E207E18763DA072803570900BA
:1013C0009307000463E6E70083570900C207C1835F
:1013D000035709001D8F420741832310E900370797
:1013E00000501EBB91472309F7026DB2B7070020DA
:1013F00083C7F70D1CA2035709008547E3FAE7FAF4
:101400002310F90075B71E233707002093F7F70F55
:10141000A30FF70CB707002005472380E70E49BF4D
:1014200083C70900FD8B85E31E23054793F7F70F5C
:10143000E390E7F8B70700209387170E98231377F8
:10144000E70F98A3B5B703C6090089477D8A6314DF
:10145000F6021E2393F7F70F99EF9E221307100849
:1014600093F7F70F638EE702636FF700638FC7028E
:1014700011476386E704B70700501D472389E70239
:10148000A389E70201BA130730086385E70213074F
:101490004008E392E7FEB70700502381C70409BF65
:1014A000B7070050238BC70221B7B7070050A38DA1
:1014B0000702FDBDB7070050238FC702D5BDB70790
:1014C0000050A3810704EDB583C70900FD8B8DE7AC
:1014D0001E23054793F7F70FE39FE7F89D6783C740
:1014E00077A093F70702C1DBB70700209387170E99
:1014F000982313671700B1B703C6090089477D8A8F
:10150000E31BF6F61E2393F7F70FB5F79E2213079A
:10151000100893F7F70F6383E7046360F7026388AB
:10152000C7041147E399E7F43707005083473704AE
:1015300093E73700A301F704A5BD130730086381C3
:10154000E70413074008E398E7F2370700508347A2
:10155000270493E737002301F70499BD37070050AC
:101560008347670393E73700230BF70291B53707EB
:1015700000508347B70393E73700A30DF7020DBD73
:10158000370700508347E70393E73700230FF7023D
:1015900005B52300060085B583C7090023100600A2
:1015A000FD8B95E3B707002083C7170E0144858B99
:1015B00099C389471CA2035709008947E3F1E7BC97
:1015C0002310F9006DBE03C7090089471304F00F0B
:1015D0007D8BE312F7FE9E229306100893F7F70F18
:1015E000638BD70263ECF6006384E7041147E3944E
:1015F000E7FCB707005083C737043DA8130730083E
:101600006381E70413074008E397E7FAB707005040
:1016100083C7270415A0B707005083C767030D478A
:1016200001448D8BE399E7F885471CA2014461B71B
:10163000B707005083C7B7038D8B0D47E398E7FECC
:10164000E5B7B707005083C7E703FDB78357090025
:10165000C207C183638007F2B707005011470DB579
:1016600093771700B9C3B7070020A38F070CB707FC
:101670000020238F070CB7070020A380070EB707B1
:1016800000202380070EA3010400EFF04FD2054590
:10169000912A85477CA07244E2445249C249324AA9
:1016A000A24A124B056173002030937747009DC713
:1016B0005830B70700209387170E118B19CB98234A
:1016C0001367270098A39C23B707005011476FF0BA
:1016D000CFEC98231377D70F98A3FDB778A065BFF9
:1016E000EFE2DFE1371401407971AA8A2E891305F0
:1016F0000480914532C602D002D202D402D602CA78
:1017000002CC02CEED258D44114AC1494C08130587
:101710000480231A410126CC4ECE112D37470040BC
:101720008357C7404C0813050480C207C183CD9B73
:10173000C207C1832316F740A147FC8293078004A8
:101740003ECEF523E1474C08130504803ECE231A14
:10175000410126CCE92BE1774C0813050480FC827B
:1017600026CC4ECEE923854756D0231201023246BD
:101770006319F9048D672313F1028547631BF6048F
:10178000930700602314F10285672312F1023744A6
:101790000040B1470C10130504402315F102231635
:1017A0000102EF0050161305044093050004EF00FA
:1017B0001022854513050440EF00D01D45616FE000
:1017C0003FD789476314F900896775B7231301026E
:1017D0006DB789476315F6009307004065B723147A
:1017E000010275B7B7270020138787E6231007008B
:1017F000231107002312070023030700F94674B3DF
:10180000231407002315070023160700938787E694
:101810000147414693161700BE9623970600050719
:10182000E31AC7FE238707022398070223990702BA
:10183000238A0702239B0702238C0702A38C07023B
:1018400037070020232E070E37070020232007101C
:1018500015C5238D0702130720FCA38DE70205475A
:10186000238EE702A38E0702238F0702A38F0702AE
:1018700021472380E7047947A380E7048280EFE2D1
:101880009FC979712A842E89B28481451306C002CA
:101890004800EFE05FCB21E4370402401305040861
:1018A000D92CB7470040938747403EC2C1473EC648
:1018B000930700083ECC4C008567130504084AC412
:1018C00026C802CA02CE02D002D23ED402D61129C4
:1018D000854513050408912145616FE01FC6370453
:1018E00002401305C406412CB74700409387474088
:1018F0003EC2930700083ECC930700023ED24C0044
:1019000085671305C4064AC402C626C802CA02CEA9
:1019100002D03ED402D6F12685451305C40665BF24
:10192000EFE2DFBD3744004041112A89AE89328A97
:101930001305044001469305000436C6B70402406F
:10194000EF00B0061385C4068145C12E1385040837
:101950008145E126B246D2854E8536865133B7257C
:1019600000200146938585A60145113F0566B71500
:101970000020130606809385852605450937054610
:101980009305000413050440EF0030024A85993D99
:1019900041016FE0FFB9EFE21FB8B727002093873E
:1019A00087E603C7D70383C6C70383C5B70303C648
:1019B000A703C20662073697329703C6E70383C6BA
:1019C000F703A205BA950145A13F37270020B707C5
:1019D0000050130787A698CF03C7B7031377C70F25
:1019E000A38DE70203C7B7031377F70FA38DE702B1
:1019F0006FE0BFB401A097F1FF1F9381A1E91761C8
:101A0000002013012160175500001305653F97E57D
:101A1000FF1F9385255F1386818363FAC5008322A8
:101A2000050023A0550011059105E3EAC5FE17E561
:101A3000FF1F1305A569971500209385A58063777F
:101A4000B500232005001105E36DB5FEFD4273903E
:101A500002BCFD4273904280B782000093820280F4
:101A60007390023097E2FFFF9382025A93E23200B2
:101A700073905230EFE07FE797F2FFFF9382C2E569
:101A8000739012347300203037670040130707400B
:101A9000832607203C25054893E616002320D720FF
:101AA0008325C7213316F8009346F6FFF58D232EC4
:101AB000B7204C25BDED8325C720035825008E0790
:101AC000F58D2326B7206E21BA975A21C205B3E5BA
:101AD000050123A0B7240E2142074D8F23A2E7243E
:101AE0003835B7670040938707402DEB03A74720A1
:101AF000758F23A2E7201A25B76700409387074018
:101B000035E303A74721F98E23AAD7201849854733
:101B10006319F700B767004003A7C761598E23AE6A
:101B2000C760B767004003A70760799B23A0E76001
:101B30008280E39705FB8325C720035825008E0785
:101B4000D18D2326B7200E21BA975A21C205B3E5BD
:101B5000050123A0B72442076E2141B703A7472000
:101B6000518F41BF8546E313D7FA03A74721518F11
:101B700023AAE72061BF1C4141677917F98F1CC177
:101B8000232005002322050023240500B707024077
:101B900023260500138787006317E500D8431367E2
:101BA000F700D8C382801387C7016316E500D843C6
:101BB0001367070FFDB7138707036318E500D843C2
:101BC0008566938606F0558FE9BF13874704631532
:101BD000E500D843BD66C5BF138787056316E500DA
:101BE000D843B7060F00C5B71387C7066316E500CD
:101BF000D843B706F000C1BF138707086316E50096
:101C0000D843B706000FC1B7138787406319E500B3
:101C100003A747401367F70023A2E740828013879A
:101C2000C7416317E50003A747401367070FEDB7E8
:101C300093870743631BF500B707024003A747409C
:101C40008566938606F0558FC1BFB707024013879C
:101C500047446316E50003A74740BD66EDB7138709
:101C600087456317E50003A74740B7060F00E1BFAC
:101C70001387C7466317E50003A74740B706F00080
:101C8000D9B7138707486317E50003A74740B7068E
:101C9000000F55BF138707496319E50003A7474D98
:101CA0001367F70023AAE74C82801387074A63175C
:101CB000E50003A7474D1367070FEDB71387074BE1
:101CC0006319E50003A7474D8566938606F0558F97
:101CD000D1BF1387074CE319E5FC03A7474DBD6649
:101CE000FDB71C4161773D0794517D8F9C45D58F91
:101CF0009449D58FD449D58F944DD58FD44DD58F58
:101D0000D451D58F9455D58FD98F1CC1DC455CC17A
:101D10009C411CC5DC415CC582801C4189C593E7A0
:101D200017001CC1828041677917F98FDDBF9C4580
:101D300013F7070113F8F70001C7D8413368E8002B
:101D40008E2113F7F50F39C318418146854E3D4F5B
:101D5000930F800293028004214E3396DE00B3F885
:101D6000C500631116039398260033131F01134314
:101D7000F3FF3377E300B318180133E7E800639FFC
:101D8000F70550C98506E39AC6FD18C11307F00F81
:101D90006375B70454412146854E3D4F930F800231
:101DA00093028004414EB398CE0033F7150163923D
:101DB000E8021317260001173313EF001343F3FF54
:101DC000B376D3003317E800D98E639DF701232A39
:101DD00015010506E319C6FD54C18280E39457FA44
:101DE00010C94DB7E39757FE23281501DDB70CC97D
:101DF0008280B7070140635A0504DC4F9356050102
:101E0000131805013707300013F6F60013580801C0
:101E1000B376E50063500506639BE6029306060170
:101E20000D46B316D60093C6F6FFF58F99C9135722
:101E300055011377F73F12073317E800D98F63571F
:101E40000504370701405CCF8280DC4345BF131790
:101E5000B500635607008D46B396C600E9B7135721
:101E600055011377F73F12073317E8001347F7FFC1
:101E7000F98F6DBF6390E602370601405442370781
:101E800000F17D17F98F758F58C2D5F137070140E2
:101E90005CC382801317B500635C07008D46B39660
:101EA000C60093C6F6FFFD8EB707000FD58FF1BFB2
:101EB0001357550112073317E8001347F7FF7D8FBB
:101EC000B707000FD98FD1B7B707002023A2A710FB
:101ED0008280371702405C439146B18B6385D700FF
:101EE000A1466382D706B7177A00938707201CC1E3
:101EF000371602405C423707002013070701918321
:101F0000BD8BBA9794231C41B3D7D7005CC1544210
:101F1000A1829D8ABA969422B3D6D70014C55442A2
:101F2000AD829D8A36971823B3D7E7005CC5584227
:101F30003983937637001387418036971823B3D7B8
:101F4000E7021CC982805C435843C166C983758F10
:101F5000B7F6FF1F83A6C670BD8B890713961601BF
:101F600063480600C54601466392D702C94739A8AF
:101F70008946638FD702BD46638ED702C146638E02
:101F8000D702C54601466393D700C1471DEF3747C7
:101F9000024003270780418B05C737177A001307D4
:101FA0000720B307F7021CC121D61C41858381B7E6
:101FB00001466DBF0546B547D1BF0146BD47F9B7DC
:101FC00037173D0013070790E9BFB7150240D855F2
:101FD0009316F700D85563DF060411833D8B9306F3
:101FE000170037177A00130707203357D70218C195
:101FF000D455A182BD8A8DE295463307D702058369
:1020000018C137170240585714413D8B050733D785
:10201000E60218C1184171B785456394B600E546DC
:10202000E9BFBD456396B600D1463387E602C9BF16
:102030008906E5BF3D8B9306170037177A00130713
:1020400007203357D702F1B799C5371702405C4BC9
:102050005D8D48CB8280B7170240D84B1345F5FF02
:10206000798DC8CB8280B7170240D857B70600F9E0
:10207000FD16758FD8D7D8576205598DC8D782807D
:10208000B7170240D857B70600F8FD16758FD8D796
:10209000D8576E05598DC8D78280B7170240D857D8
:1020A000B70600D0FD16758FD8D7D8577205598D51
:1020B000C8D7828009C9371702405C57B70600406D
:1020C000D58F5CD78280B7160240DC56370700C038
:1020D0007D17F98FDCD68280371702405C577E056A
:1020E000860785835CD75C575D8D48D782801E2923
:1020F0004A25ED8F4205418189C76D8D3335A0009A
:10210000828001458280EFE20FC11629F577FD1725
:10211000F58FF621DA257971D58F1EA95625FD7721
:102120009387379FF58FD6212A842EC6D58F962583
:10213000D58FB625D58F5EA55E29C207C18393F7DB
:10214000F7CFD98F5EA968086933B74701409387F5
:102150000780B245631EF402A2576547B387E702C2
:102160009841930640060A07B3D7E70233D7D70250
:10217000B3F7D7021207920793872703B3D7D70283
:10218000BD8BD98FC207C1831EA445616FE0EFBA32
:102190009257E1B791C55E250967D98F5EA5828008
:1021A0005A25F977FD17F98FD5BF5E2901C6DD8D58
:1021B0004EA9828093C5F5FFFD8DDDBF93F5F51F18
:1021C0004EA182800A216D8D3335A000828093C597
:1021D000F5FFC205C1810EA1828013F7F50F854678
:1021E0001583B397B6006311D7025A25F98F1A21C8
:1021F00001454207418381CB0545A181B315B50057
:102200006D8F3335E000828089466314D7001A2928
:10221000F1BF5A29E1BF3D89A54763F5A700130522
:1022200075038280130505038280238005009307D0
:1022300060051CA19C2113070003850793F7F70F86
:102240009CA1AA9798A39C21850793F7F70F9CA1BF
:10225000AA9798A39C21850793F7F70F9CA1AA97AB
:1022600098A39C2113071003850793F7F70F9CA1F0
:10227000AA9798A39C21850793F7F70F9CA13E95F9
:10228000B5471CA19C2185079CA182809307F5FB83
:1022900093F7F70F65476366F700130595FC3D89D3
:1022A00082809307F5F993F7F70F6365F70013053D
:1022B00095FAF5B7930705FD93F7F70F2547E36008
:1022C000F7FE3E85E9BFB707002023A4A710828050
:1022D000EFE2EFA11C211307500301119387F7FBD5
:1022E00093F7F70FB2893684636FF7061D678A0785
:1022F000130707AEBA979C43AA842E898287894721
:10230000639DF54408315937A14763E8A744B707EF
:10231000002083C7071163920744931725001D65AA
:10232000130505BC3E950A2101468545EF00807FD7
:10233000854702CC854402CA230CF100680085471A
:102340003ECE02C602C8E482EFF00FF4B7070020C9
:10235000A388971004A003C709002386E18021A069
:102360009547639CF53E9387C18094431D476397CF
:10237000E600054718A003C7090098A305616FE0B0
:102380008F9A8547639BF53CB70700209387071119
:1023900098236314073C3707002003471711631E77
:1023A000B73A23802701B707002023A6271123006F
:1023B000240155B785476392F53AB7070020938704
:1023C00007119823631B07383707002003471711AD
:1023D0006315B7382384B180E9B78547639FF53625
:1023E000B70700209387071198236318073637072C
:1023F0000020034717116312B7368CA30947B707AC
:10240000002023A6E71065B785476398F534EF00F1
:10241000B007B707002023880710B707002023A6BE
:10242000071071B748219D359317150095072A8A23
:102430006315F932B707002083C707110547639E6C
:10244000E730370700200327C7106318F73021460D
:10245000814513051101EFE00F8F8830137AFA00E0
:1024600095042D352A8903C5D4FF2209130BC10019
:10247000313D8567938707F012053379F9001375AD
:10248000F50F3369A90003C5E4FF09353D893369B8
:1024900025014AC6230841010149050B63142A039B
:1024A0006800EF00B00E03C7818023000400854759
:1024B000631DF7289307A0052380F9001C208507DA
:1024C0001CA061A4882005091379F90FC133AA8AD9
:1024D0008830920A89045D3B3D89B3EAAA00230251
:1024E0005B0165BF08355D339307550086072A8A6F
:1024F0006315F926B707002083C707110547639EB8
:10250000E72437070020832BC7106398FB2421465C
:10251000814513051101EFE00F838830137AFA002B
:10252000A904AD332A8403C584FF72048533AA8CC1
:1025300003C594FFA13B2A8C03C5A4FF520CB933F9
:102540002A8B03C5B4FF420B9133AA8A03C5C4FF8B
:10255000B20A2D3BAA8903C5D4FFA209053B2A89EB
:1025600003C5E4FF12091379F90F0D333D89498C36
:1025700013958C01B70C000F33759501418DB7078A
:102580000F003704F000337C8C00337BFB00BD6709
:10259000B3FAFA0033658501856733656501938772
:1025A00007F0B3F9F900336555013365350133653B
:1025B00025012AC65ECE230841019309C1000144CA
:1025C000850963188A006800EF00606E8347000089
:1025D0000290882005041374F40F4D392A8988303D
:1025E0001209890465313D893369A90023822901D3
:1025F000C1BF95476393F516B707002083C707113E
:102600000547639CE71437070020032AC7106316A9
:10261000FA142146814513051101EFD0DFF288300D
:10262000B5312A89A820220995318567938707F05B
:1026300012053379F9001375F50F3369A900A83035
:10264000B1313D893369250121653369A900C8206D
:102650004AC602CE25393D892308A1006800EF0053
:10266000006583C78180230004006390470F9307B0
:10267000A00799B5A9476392F50EB707002083C755
:1026800007110547639BE70C37070020832BC71012
:102690006395FB0C2146814513051101EFD0BFEA7C
:1026A0008830ED362A8DA820D536AA8CA830E20CC9
:1026B000F13E2A8CC820520CD13E2A8BC830420BE6
:1026C000F136AA8AE820B20AD1362A8AE830220AEC
:1026D000753E2A89882412091379F90F453E3D89F0
:1026E0003369A9009317CD01B367F9003707F000EC
:1026F0003709000F337CEC00B3FC2C0137070F00C7
:10270000337BEB00B3E797013D67B3FAEA00B3E729
:1027100087010567130707F0B3E76701337AEA001B
:102720008834B3E757012167B3E74701D98F3EC625
:102730005ECEA93E3D892308A10068008D2B83C78A
:10274000818023000400E38477F31C20CE97354773
:1027500098A31C2085071CA039B11D4723A6E18042
:1027600019B18547E39BF5FEB707002083C7071122
:10277000238006006390B706B707002093874711B0
:10278000982323800700930760041CA21C20B7062F
:10279000002093863611850793F7F70F1CA0882237
:1027A000B297238006009306000394A31C20058B98
:1027B0000607850793F7F70F05891CA0598DB30409
:1027C000F600EFF05FA588A01C20850793F7F70FB0
:1027D0001CA0ADBF9D472380F900A5BF8947E39E9C
:1027E000F5F6083165348547E3E9A7F6B707002019
:1027F00003C707119D470DEB2384A180B5472DA08A
:102800008947E31CF9F485471CA0B1B68947E396D4
:10281000F5F40831A53C8547E3E1A7F4B7070020AC
:1028200003C707119D4779DB230004006DB7A54757
:10283000C9BF8547E393F5F2B6853285EFF0FF9E79
:102840001DB68547E39BF5F0238006009307E0045F
:102850001CA28822B7750000114605051375F50FF7
:1028600088A2938585BB4E95EF2090751C2091071B
:10287000B1BF8947E393F5EE0831EFF03FA18547FB
:10288000E3EDA7ECB707002003C707119D4749FFF9
:10289000B70700202389A71095B7B70700209387B3
:1028A00087119843BD66938606A6050763E4E60094
:1028B00098C3828023A007008280EFD25FC303C742
:1028C0008180011102C285476315F710B707002008
:1028D00083A78711B70A00202C00239BFA10B12B85
:1028E000E247B7290020938A6A11724B138409EBDF
:1028F0002249034AC100639307109307200763141A
:102900000B0093074007135589001D891CA0EFF0A9
:102910009F9008B0135549003D89EFF0DF8F28A044
:102920001375F900EFF03F8F28B05285EFF0BF8E9E
:1029300048A09544631F0B00130B8100228981443A
:10294000050B0909631A9A0893141A00950493F465
:10295000F40FB707002003C7271185476313F70457
:1029600003DA0A003309940091041355CA00EFF00A
:102970009F8A2300A90013558A403D89EFF0BF8943
:10298000A300A90013554A403D89EFF0DF882301D9
:10299000A9001375FA00EFF01F88A301A90093F4B2
:1029A000F40F2694B5471CA013861400B707002027
:1029B00083A7871054001376F60F8843938509EB9D
:1029C000EF10C078924791C7B7E700E0116723A0E6
:1029D000E72005616FD03FB5834B4B00850493F42E
:1029E000F40F13D54B00EFF01F83A301A90013F5DB
:1029F000FB00EFF05F822302A90099B7930720053F
:102A000063140B00930740051355C90105891CA0E9
:102A1000EFF07F8008B0135589013D89EFF0AFFFDB
:102A200028A0135549013D89EFF0EFFE28B013555A
:102A300009013D89EFF02FFE48A01355C9003D89DB
:102A4000EFF06FFD48B0135589003D89EFF0AFFC02
:102A500068A0135549003D89EFF0EFFB68B013758E
:102A6000F900EFF04FFB08A45285EFF0CFFA08B45D
:102A70002949631E0B002400228B01498504090BA0
:102A800063112A0713095A0006091379F90FB707CA
:102A9000002003C727118547631FF70203DA0A00E6
:102AA000B304240111091355CA00EFF0CFF688A032
:102AB00013558A403D89EFF00FF688B013554A4010
:102AC0003D89EFF04FF5A8A01375FA00EFF0AFF4D1
:102AD000A8B01379F90F4A94B5471CA01306190042
:102AE000F1B583CB440005091379F90F13D54B00D9
:102AF000EFF06FF22304AB0013F5FB00EFF0AFF142
:102B0000A304AB00A5BFB727002023A8A7EE8280AF
:102B1000B727002023A6A7EE8280B727002023AA8C
:102B2000A7EE8280B7170240944BB708000237081F
:102B300000FEB3E6160194CB944B7D18B3F6060164
:102B400094CBD84F33671701D8CF9307400651472E
:102B50006305F50263E3A70ED1471307C012630EA6
:102B6000F50093072003130780076308F500A947C2
:102B7000130780256303F5004147B767004083A62C
:102B800007404165F59A23A0D74083A6074093E606
:102B9000160023A0D74093860740DC42858B99E33B
:102BA0007D1565FDC842B767004005894DC503A581
:102BB00007407D17938707401375F5F788C388434F
:102BC0001365050488C388431375F5FD88C38843DE
:102BD0001365050188C388435D9988C388436D994F
:102BE00088C337054B03498FD8CE9843799B98C348
:102BF0004167D443858A99C27D1765FFD843058B09
:102C000039EBEFD25F91D84B130540022E84136746
:102C10003741D8CBB284492B2686A28513055002B2
:102C200061232686A28513053002BD2B2686A28548
:102C300013056002952B6FD05F909307401F1147DB
:102C4000E30DF5F29307803E0947E308F5F2930799
:102C5000A00F214705B78280B767004003A7074050
:102C6000054693870740719B1367170098C3416718
:102C7000D4438D8A6384C6007D177DFBC8430D89CC
:102C80007D15133515008280B767004003A7074004
:102C900093870740719B98C34167D4438D8A99C23B
:102CA0007D1765FFC8430D89133515008280EFD26B
:102CB000FF8444214111004193055500AA892686CD
:102CC0002800EF20F02FB767004003A78740135973
:102CD000E40013792900931657001374F47F63C836
:102CE00006089387074098479316470063C3060872
:102CF0009C47114513973700635807060945376706
:102D000000401307074093174500BA9703A7071819
:102D100083A60901058B23A0E718858A13175401A0
:102D200033672701A9EA83A60718D98E23A0D718ED
:102D300083A60718BD88558F23A0E71803A7471857
:102D4000419B23A2E71803A74718D98C224723A247
:102D5000971823A4E718324723A6E71803A70718F4
:102D60001367170023A0E71841016FD06FFC0145DE
:102D700079B7054569B783A607180E04558C3364E7
:102D800024011364440023A087185DB7EFD2AFF885
:102D90004421411100419305550026862800EF206B
:102DA0003022B767004003A787401359E400137926
:102DB00029009316570063CE06069387074098476D
:102DC0009316470063C906069C47114513973700C1
:102DD000635E0704094537670040130707409317F0
:102DE0004500BA9703A70718560433642401058BDE
:102DF00023A0E71803A70718BD88598C23A08718BC
:102E000003A74718419B23A2E71803A74718D98CAB
:102E1000224723A2971823A4E718324723A6E718CE
:102E200003A707181367170023A0E71841016FD005
:102E3000CFF001454DB7054579BF3767004013070F
:102E4000074093174500BA9703A7071B118B25CF9F
:102E500003A7071B0D8398C1054798C903A7071B44
:102E600083A6471B098BBD8AD4A183A6871BD4B137
:102E700083A6871BA182F4A183A6871BC182F4B11C
:102E800083A6871BE18294A583A6C71B94B583A65E
:102E9000C71BA182B4A583A6C71BC182B4B583A7F3
:102EA000C71BE183DCA5B7670040938707401DE19E
:102EB000D44793E60602D4C73337E000D8C9239736
:102EC00005000145828003A7071B23A80500558341
:102ED00098C169B7944B93E6060294CBF1BF397160
:102EE0003ACE41673ECC06DE16DC1ADA1ED82AD668
:102EF0002ED432D236D042CA46C872C676C47AC2FE
:102F00007EC013071710B767004023A4E740B72718
:102F1000002083A707EF8297F250E2525253C25328
:102F20003255A255125682567247E2475248C2485D
:102F3000324EA24E124F824F216173002030397100
:102F40003ECCB727002083A7C7EE2AD63ACE06DEAE
:102F500016DC1ADA1ED82ED432D236D042CA46C86F
:102F600072C676C47AC27EC001458297B7670040B8
:102F7000214723A6E740F250E2525253C253325542
:102F8000A255125682567247E2475248C248324E04
:102F9000A24E124F824F21617300203039713ECC16
:102FA000B727002083A7C7EE2AD63ACE06DE16DC66
:102FB0001ADA1ED82ED432D236D042CA46C872C6C9
:102FC00076C47AC27EC005458297B7670040214724
:102FD00023A8E740F250E2525253C2533255A25551
:102FE000125682567247E2475248C248324EA24EAB
:102FF000124F824F21617300203039713ACE3ECC9E
:1030000006DE16DC1ADA1ED82AD62ED432D236D0F4
:1030100042CA46C872C676C47AC27EC01147B76734
:10302000004023A2E740B727002083A747EF8297FD
:10303000F250E2525253C2533255A25512568256A2
:103040007247E2475248C248324EA24E124F824F58
:1030500021617300203093F7060113F8F60099C33D
:103060003368C80093F7F50FB9C31C410147854E7B
:103070003D4F930F800293028004214E3396EE0061
:10308000B3F8C500631116039318270033131F010B
:103090001343F3FFB377F300B3181801B3E7F80055
:1030A000639FF60550C90507E31AC7FD1CC19307C6
:1030B000F00F63F5B70458412146854E3D4F930FFD
:1030C000800293028004414EB398CE00B3F71501FD
:1030D0006392F8029317260081173313FF001343FE
:1030E000F3FF3377E300B317F8005D8F639DF601BC
:1030F000232A15010506E319C6FD58C18280E39411
:1031000056FA10C94DB7E39756FE23281501DDB7CF
:10311000EFD26FC091460D463D3F6FD00FC2EFD248
:103120008FBF41112A84AE8409CE371702401C4F4D
:1031300036C6854593E717001CCF3285EFE07FCB7D
:10314000B2460D46A6852285393741016FD0EFBEC4
:10315000EFD26FBC11451D2821450D2841453D206A
:10316000130500022520130500040D206FD0EFBCCD
:10317000B7170240D84F498FD8CF984B498F98CB7B
:10318000984B1345F5FF798D88CB8280B7170240A5
:10319000984F498F98CFD847498FD8C7D8471345FC
:1031A000F5FF798DC8C7828037E700E09605B30741
:1031B000A70093F5F50F2380B740935755009387E9
:1031C000070485468A07B396A600BA9794C38280FF
:1031D0009306F5FF954763FCD702A1473707100018
:1031E00063E9A700931725001D65130545BE3E95AD
:1031F0001841B7170240D447D98ED4C7D047934659
:10320000F7FFF18ED4C7944F558F98CF8280130764
:1032100000026386F60093874182B6979823B7171A
:103220000240944BD98E94CB904B9346F7FFF18E8E
:1032300094CBD44F558FD8CF82809D670A05938752
:1032400087C0AA979C43239207029A23136717000B
:103250009AA382805D7122DE373401402ADC2EDAA7
:10326000130504C085453ED286C696C49AC29EC048
:1032700032D836D63AD442D046CE72CC76CA7AC844
:103280007EC6EFE0DFE68547631AF500B72700202A
:1032900083A747F08297F9572318F4C07254B640B9
:1032A000A642164386436255D2554256B25622571D
:1032B00092570258F248624ED24E424FB24F61616D
:1032C000730020309D6713172500938787C0BA9736
:1032D0009C439A2742074183619B420741839AA7F7
:1032E00051473306E502962337270020130787EF5F
:1032F000C206C18293F6F6C832975223D18E96A3A6
:1033000016233A23D6B79AB709E537370140231871
:1033100007C20547DAAB8280EFD2EF9F01112A8402
:103320003AC83EC62ECE32CC36CA5D355145B308BA
:10333000A402624637250020130585EFF245D246E8
:10334000469512A1370600200328060954C523120A
:1033500005003358B802231105012285A5371D65E4
:103360000A04130585C0229514417956B24792AAE2
:10337000CA2642473E8613651500CAA6BA851305BC
:1033800090021D3505616FD04F9BEFD22F97854777
:1033900041112A842E8A3289B684BA896303F504DE
:1033A00015CD89476303F5048D476303F504B147E1
:1033B0007C85B7070020938707020A043E940840E3
:1033C0008A8552C0231231012313210164842316FC
:1033D0000100EFE05FD341016FD08F9511657D3320
:1033E000F9B7370502006933D9B737050400E5BFDF
:1033F00037050800CDBFB70700200A0593870702ED
:10340000AA97984389665E27D58F5EA78280EFD200
:103410008F9089472A842E89B2846317F5003A86F3
:10342000B685130570034933372500200E041305B4
:10343000C5FA22952320250144C16FD00F90B7070C
:1034400000200A0593870702AA979C43CEA3DA2798
:1034500013670704DAA78280B707002023AEB710EE
:10346000B70700200A0593870702AA9798435E27AB
:1034700093E707025EA78280EFD24F8837040020CF
:1034800013090402931925004E99AA840325090003
:103490009305606213040402EFE03FD48547631B89
:1034A000F5020325090093056062EFE01FD30327AF
:1034B00009005E27C207C18393F7F7FBC207C183E8
:1034C0005EA737270020939734001307C7FABA97EF
:1034D000DC4382974E94084093055052EFE0FFCFB3
:1034E00085476311F5021C40372500208E04DA233E
:1034F000B707002083A7C7111305C5FA269598A31F
:103500001C4182976FD0CF8239712AD6094506DED9
:1035100016DC1ADA1ED82ED432D236D03ACE3ECCB1
:1035200042CA46C872C676C47AC27EC0B137F2506B
:10353000E2525253C2533255A25512568256724726
:10354000E2475248C248324EA24E124F824F21618A
:1035500073002030B7070020938707139843636FE9
:10356000A702D043B386C7006316D50054413E85F9
:10357000B296D4C35041B306C500631CD700B7064A
:10358000002083A606126306D70054431843B29660
:1035900054C118C16303F50088C38280BA877DBF18
:1035A00055C1EFC25FF7B7070020032745FF83A788
:1035B00047122A84B376F7009DE2A16793870780BC
:1035C0007390073037760000377500001306C6C2C7
:1035D00093054012130545C5EF20A02901A08326BD
:1035E00005FF9DC2A16793870780739007303776E8
:1035F0000000377500001306C6C29305501213056C
:1036000045C5EF20002701A093C7F7FFF98F232AB4
:10361000F5FEEF100026B70700209387871294432A
:10362000032744FF130504FF369798C32537B707D0
:1036300000209387C7129843050798C3EF10C03F37
:103640006FC0BFEF8280B7E700E041572387E740B4
:103650002386E740B7F700E023A0070023A2070076
:10366000814694C70147D8C737070020832507093B
:103670001307803E814633D6E5023D4790CBD4CB3D
:1036800098C38280EFC23FE9411102C6F327503050
:103690003EC6B2470D478D8B6384E702A1679387CF
:1036A00007807390073037760000377500001306E7
:1036B00086C79305600B130545C5EF20801B01A04D
:1036C000B787002093870700BD8B9DC3A1679387B1
:1036D00007807390073037760000377500001306B7
:1036E00086C79305B00B130545C5EF20801801A0D0
:1036F000993FB7E700E0056723A0E710116723A013
:10370000E71023A80180EFC0BFBF014541016FC092
:10371000DFE273110134A16793870780739007304C
:10372000B7F700E023A20700EF10401611C5B7E776
:1037300000E0116723A0E720A16793878788739033
:1037400007307311013473002030A167938707801D
:1037500073900730938701819843050798C382804F
:10376000138701811C438DE7EFC2FFDAA1679387BE
:103770000780739007303776000037750000130616
:1037800086C793052010130545C5EF20800E01A0C4
:10379000FD171CC391E7A167938787887390073053
:1037A00082802165130505807315053082807310B2
:1037B00005308280930785007D575CC118C55CC5C4
:1037C0001CC923200500828023280500828098419F
:1037D000FD5693078500631ED7001C49D843D8C106
:1037E0000CC79CC5CCC31C4188C985071CC18280FD
:1037F000B687D4439042E37DC7FECDB75441184508
:103800001C4998C654C3D4436393A600D8C39843B5
:10381000232805007D1798C388438280EFC2BFCF5D
:1038200041112AC61D373245005D1D3F1335140076
:1038300041016FC09FD0304115C2EFC2DFCD584566
:103840001445AA87329758C56364D700184158C5F4
:103850002E85CC47EF10D0766FC03FCE8280EFC26E
:103860009FCB2A84DD358344540413094402E204C7
:10387000E18463459002FD57A302F404D535F13588
:103880008344440413090401E204E1846344900284
:10389000FD572302F404E9356FC03FCA5C50E1DFF5
:1038A0004A85EF10604519C1EF100067FD14E2046E
:1038B000E184C1B71C48E9DF4A85EF10E04319C134
:1038C000EF108065FD14E204E184C9B7EFC2BFC404
:1038D00041111DE1A1679387078073900730377608
:1038E000000037750000130606CA93050011130582
:1038F00045C5EF10107801A05C5D2EC62A84BDC3BB
:103900003841B3B7E702B9EF89353040585C14400D
:10391000232C0402B307E602B24554C03387F600F5
:10392000918FB6975CC4FD572302F40418C4A30218
:10393000F40495E11C4899CB13050401EF10C03B3A
:1039400011C5B7E700E0116723A0E720113D054549
:1039500041016FC09FBE13050401A93D1305440238
:10396000913DEDB7A1679387078073900730377655
:10397000000037750000130606CA9305501413059E
:1039800045C5EF10106F01A0EFC2FFB801119DE215
:10399000A1679387078073900730377600003775EB
:1039A0000000130606CA93059015130545C5EF10D0
:1039B000506C01A019C105C685E5A16793870780F2
:1039C000739007303776000037750000130606CA7B
:1039D00093052018130545C5EF10B06901A0F1FD4E
:1039E000930780043ECE72476304F702A167938772
:1039F0000780739007303776000037750000130694
:103A000006CA9305B016130545C5EF10906601A0D0
:103A1000F24785472383F60491E1368690C2C8DEDB
:103A2000ACC23685854536C65535B2460561368504
:103A30006FC0BFB0EFC2BFAB011132C61DE1A167BD
:103A40009387078073900730377600003775000042
:103A5000130606CA93051055130545C5EF1070618E
:103A600001A02A84AE898DE53C419DC3A16793875F
:103A70000780739007303776000037750000130613
:103A800006CA93055055130545C5EF10905E01A079
:103A9000EF10E04915E5B247014985C7A167938753
:103AA00007807390073037760000377500001306E3
:103AB00006CA9305A055130545C5EF10905B01A0FC
:103AC00001497D5A930A440237EB00E0916B95A8B7
:103AD000B24789E7EFF0DFC8014569A8631509001F
:103AE0002808EF106035EFF0BFC7EF009058EFF0F7
:103AF000DFC583474404E207E1876394470123025B
:103B0000040483475404E207E18763944701A30256
:103B10000404EFF0FFC46C002808EF10403325E5E3
:103B20002285EFF0BFCF31C9B2455685EF10E010C6
:103B30002285EFF0DFD2EF00307019E123207B21E6
:103B40000549EFF09FC0045CC1D4CE852285FD14E9
:103B5000EFF07FCE04DC1C4899CB13050401EF1075
:103B6000A01911C5B7E700E0116723A0E720EFF027
:103B70003FBF054505616FC01F9B2285EFF03FCE1B
:103B8000EF00906B75BF2285EFF07FCDEF00D06A1C
:103B90002285EFF0BFC84DD581B715E5EFC2BF97BD
:103BA000A16793870780739007303776000085659B
:103BB00037750000130606CA938585AC130545C505
:103BC000EF10304B01A09DCD372600209306C6FB99
:103BD000814701471306C6FB214883A84600639826
:103BE000A80093173700B2978CC3C8C321A891E7E8
:103BF00083A8060063930800B6870507A106E31EA5
:103C000007FDFDF38280EFC21F9141112A842EC669
:103C100032C4EFF09FB3834744047D572246E20746
:103C2000E187B2456394E700230204048347540408
:103C30007D57E207E1876394E700A302040432C6DC
:103C40002EC4EFF0FFB11C5CA245324689E7130594
:103C50004402EF1000032285EFF07FC041016FC0E6
:103C6000DF8D18455C410841BA973385A7406363EF
:103C7000E500198D8280EFC27F88AE872A84930584
:103C800050053E85328AB6893A89EFC0DF8B6304DE
:103C9000A502A167938707807390073037760000ED
:103CA00037750000130646CB9305304F130545C505
:103CB000EF10303C01A0AA84130600028145228542
:103CC000EFC07F8804CC2324440123263401230E33
:103CD00024016FC0FF85EFC27F821C452A892E8A8E
:103CE000B384D740B289368463739600B2843307B5
:103CF000940063F4E702A16793870780739007300D
:103D00003776000037750000130646CB9305404810
:103D1000130545C5EF10F03501A00325890126865E
:103D2000D2852295EF10D02963F0340583278900CE
:103D30003386994063F4C702A16793870780739025
:103D400007303776000037750000130646CB930521
:103D5000C048130545C5EF10D03101A003258901E6
:103D6000B3059A00EF10D02583278900330534016D
:103D70006363F5001D8D6FC0AFFBEFC2CFF9AE845A
:103D80004C2D4111B687544132C685892A849DC184
:103D900063E0E70211466C003D3FAA86324609C641
:103DA000A68522850D3F48C0324541016FC0EFF81E
:103DB00002C6EDB763F3C7003E8632C6C5B7EFC291
:103DC000EFF31845AA89AE87B304D7403289368409
:103DD00063739600B28463749902A1679387078026
:103DE000739007303776000037750000130646CB16
:103DF0009305304B130545C5EF10B02701A0B3065E
:103E000094006374D702A16793870780739007308B
:103E10003776000037750000130646CB9305404BFC
:103E2000130545C5EF10F02401A083A5890126865E
:103E30003E85A295EF10D01863F9240183A589016E
:103E4000330699402695EF10B01783A789003305F4
:103E500024016363F5001D8D6FC08FEDEFC20FEA83
:103E6000582D36841441058B4111AA84AE89B2873E
:103E700019CB32896C0011469937B247AA86711462
:103E80006373F900814763F387003E8411C422867F
:103E9000CE8526852D3788C0228541016FC04FE928
:103EA000EFC26FE741119DE2A1679387078073908E
:103EB00007303776000037750000130646CB9305B0
:103EC000F013130545C5EF10D01A01A03A841DE385
:103ED000A1679387078073900730377600003775A6
:103EE0000000130646CB93050014130545C5EF10DB
:103EF000501801A0AE876374B502A167938707804D
:103F0000739007303776000037750000130646CBF4
:103F100093051014130545C5EF10B01501A0B68523
:103F200091E385473337C0009146090763E4A60251
:103F3000A167938707807390073037760000377545
:103F40000000130646CB93059015130545C5EF10E9
:103F5000501201A09306000236C632466304D60210
:103F6000A167938707807390073037760000377515
:103F70000000130646CB93051016130545C5EF1038
:103F8000500F01A0BE862A862285EFF0DFCE5C2C82
:103F9000228593E727005CAC41016FC00FDA0DE585
:103FA000EFC26FD7A167938707807390073037768A
:103FB000000037750000130646CB9305701F1305EC
:103FC00045C5EF10100B01A01C451041144158418C
:103FD0000C41E39CC5FE1385F7FF3695198D63638D
:103FE000F5001D8D8280EFC26FD1011136C69DE1B3
:103FF000A167938707807390073037760000377585
:104000000000130646CB93059022130545C5EF101B
:10401000500601A02A841DE1A16793870780739051
:1040200007303776000037750000130646CB93053E
:10403000A022130545C5EF10D00301A0582D1C4543
:104040002E8A058B3289FD1749C3930446006364A9
:104050009602A16793870780739007303776000038
:1040600037750000130646CB93059023130545C50D
:10407000EF10300001A063F3970002C6B247B9EB1E
:104080002285313FAA892687CE864A86D285228517
:10409000EFF0BFCEAA8415C52285EFF09FBC5C442B
:1040A0006361F502EF00E07C1C4891CB08480147B2
:1040B000814601468145EF00707523280400EF001A
:1040C000B017268505616FC0AFC6B284E3F8C7FAA2
:1040D000BE846DB72808EF00F050EFF00FE722859F
:1040E000EFF0FFEBAA896370950681450145EF105B
:1040F000E0265C489DC3A1679387078073900730D3
:104100003776000037750000130646CB93059026DE
:10411000130545C5EF10E07501A0EF00B06048C879
:10412000EFF00FE432478145814601460145EF003B
:10413000D0616C00232A04002808EF00505151DDA3
:10414000E38009F489B7EFF0AFE1DDBFEFC20FBB49
:1041500041119DE1A16793870780739007303776FF
:10416000000037750000130646CB9305A02A1305FF
:1041700045C5EF10007001A02A841DE1A167938757
:1041800007807390073037760000377500001306FC
:1041900046CB9305B02A130545C5EF10806D01A0ED
:1041A0005C2DB6893287858B99C31307460022851B
:1041B00032C62EC43AC2EFF09FDE12473246A24505
:1041C000AA862285EFF07FBBAA840DC92285EFF075
:1041D0005FA95C446364F502EFF0AFDC1C482A89F8
:1041E00099CB0848CE870147814601468145EF00BB
:1041F000D07A232804004A85EFF06FDB2685410141
:104200006FC00FB3EFC28FAF9DE1A16793870780A7
:10421000739007303776000037750000130646CBE1
:1042200093057030130545C5EF10A06401A02A84E2
:104230001DE1A167938707807390073037760000F0
:1042400037750000130646CB93058030130545C52E
:10425000EF10206201A0442DAE89B28A8588368A8B
:104260008A04B5C2EFF06FCE2285EFF09F9F2A89B6
:1042700063EDA40281450145EF10400E1C489DC32B
:10428000A1679387078073900730377600003775F2
:104290000000130646CB9305B032130545C5EF1059
:1042A000405D01A0EF00104808C8EFF06FCB63E558
:1042B000240352878146014681450145EF00F048BD
:1042C000228523280400EFF0DF992A8963E6A40001
:1042D000814426856FC0CFA5CA865686CE852285A5
:1042E000EFF0DFB7AA846DD569235C4891CB4848CD
:1042F0000147814601468145EF005051232A0400C1
:10430000EF008073F9B7EFC26F9F41119DE1A16784
:104310009387078073900730377600003775000069
:10432000130646CB93057039130545C5EF1060544D
:1043300001A02A841DE1A16793870780739007304D
:104340003776000037750000130646CB9305803999
:10435000130545C5EF10E05101A0442DB68932C6C2
:1043600085882EC48A04EFF0DF8FAA86A2453246E4
:1043700063E7A4008144268541016FC06F9B2285BD
:10438000EFF0DFADAA847DD5EFF0AFC15C482A899C
:1043900099CB4848CE870147814601468145EF00C9
:1043A000D05F232A04004A85EFF06FC0E9B70DE51E
:1043B000EFC26F96A16793870780739007303776B7
:1043C000000037750000130646CB93052040130507
:1043D00045C5EF10004A01A01C4148411D8D133511
:1043E00015008280EFC28F912A84EFF00FB6B707D5
:1043F0000020938747149843B7040020B729002072
:10440000050798C31387841318439384841313896F
:10441000C9FF71EF80C0984385476316F7069389FB
:10442000C9FF130AC9124E85D109EFF0AFB8E31CDA
:104430003AFF37250020130A851213058512EFF085
:104440006FB7372500209309C5131305C513EFF087
:104450006FB63725002013050515EFF0AFB53725EA
:10446000002013058517EFF0EFB437250020130562
:104470004516EFF02FB4B707002023AE4713B70758
:10448000002023A03715B70700209387071598430E
:10449000050798C337070020130747155C541443DA
:1044A00063F3F6001CC35147B387E702CA97D843AA
:1044B000144718C454C410479306440054C214C788
:1044C00098435CC8050798C3EFF08FA9B707002091
:1044D00083A7471699CB9C40D8575C546377F70065
:1044E000B7E700E0116723A0E7206FC06F84B7072C
:1044F000002083A74716C1FB9C40D8575C54E3E4D7
:10450000E7F880C049B7370700201307C7131C43DB
:104510009443B70700209387871581E67D5798C39A
:104520008280184358471843DDBFEFB23FFD411169
:10453000AA89B284428403290803B1C501484146CF
:104540003385050103050500B3080401238AA80289
:1045500001C50508E316C8FEA301040439466377C4
:10456000E602A167938707807390073037760000D3
:1045700037750000130686CF93057039130545C5BE
:10458000EF10202F01A0230A0802C9BF58D478C019
:1045900013054400232404043EC636C43AC2EFF097
:1045A000AFA213058401EFF02FA21247A246139584
:1045B0002400BD4571153387E5404A9500C818CCE5
:1045C00040D023060404A306040423070404A3071D
:1045D000040423080404230904043686CE85419983
:1045E000EFB01FE2B24708C091C380C341016FB072
:1045F0003FF4EFB25FF28347150591EB2A84085927
:10460000EFE01FFA2285EFE0BFF96FB01FF3054717
:10461000E38BE7FE0947E38AE7FEA16793870780FC
:1046200073900730377600008565377500001306F4
:1046300086CF9385C5F9130545C5EF10802301A0EA
:10464000EFB2DFEB37240020B709002013048417F2
:10465000370A0020938489149C40EDDFEFF0EF8E41
:104660005C4403A9C70013054900EFF02F99130715
:104670004A141C43FD171CC39C40FD179CC0EFF05F
:104680002F8E4A85EFF0FFF6F1B7EFB23FE737091B
:104690000020B70700209304891383A987162A8472
:1046A0009C40884041112389070411052EC6EFF074
:1046B000EF947D5793078913B245631CE40295C9B3
:1046C000B7270020938747169440D84398C61047D1
:1046D0009440D0C694401047910654C2944091062D
:1046E00014C798405CCB9843050798C341016FB04D
:1046F0003FE498434E9440C3637B34013707002066
:10470000032507148C439105EFF06F8CC5B737076D
:1047100000200325C7138C439105EFF04F8BB7079B
:104720000020938787159843E372E4FC80C37DBF24
:10473000EFB27FDE41119DE3A167938707807390FD
:1047400007303776000037750000130686CF9305D3
:10475000A024130545C5EF10C01101A042846314C5
:104760000802A167938707807390073037760000AF
:1047700037750000130686CF9305B024130545C591
:10478000EF10200F01A09308400546C63243630492
:104790001303A16793870780739007303776000073
:1047A00037750000130686CF93053025130545C5E0
:1047B000EF10200C01A0B2482328F8028947A30873
:1047C000F8043C00EFF07FD62285EFF0BFC1224510
:1047D00041016FB09FD6EFB21FD4411170002C0081
:1047E000480002C202C4EFC0CFB21248A24732460C
:1047F000B775000037450000014781469385C5D055
:1048000013050564EFF0DFF215C9EF00106A854764
:10481000631BF502A1679387078073900730B70782
:1048200000207D5723ACE714B707002023A2A7166A
:10483000B707002023A40716EFE0DFE483A7418138
:1048400041016FB09FCFFD57E31AF5FEA167938733
:104850000780739007303776000085653775000054
:10486000130686CF93850584130545C5EF106000B8
:1048700001A0B70700209387C7149843050798C382
:104880008280B707002003A587168280B707002023
:1048900083A7C71463990718EFB2FFC7B7070020B3
:1048A000938787168043050480C321ECB707002057
:1048B0009387C7139843184305C7A1679387078059
:1048C0007390073037760000856537750000130652
:1048D00086CF938575AC130545C5EF00907901A08F
:1048E00037070020130707149443104390C3B707FA
:1048F000002014C39387C7159843050798C3EFF0AA
:104900009FC037060020930786159C433727002059
:10491000B7050020130686151307C7FF9385851377
:1049200001456375F4029C41D146DC57B387D70239
:104930003E971843854763F3E7000545B707002016
:1049400083A7C71691C305456FB03FBF370E002040
:10495000B70E0020514F9307CE139443944281E643
:10496000FD571CC2C9B79C43DC47DC47D443637482
:10497000D40014C24DBF83A8870003A8C700D44B3E
:104980001383470023A408012322180183A84600AB
:104990006394680023A2060103A8060023AA070067
:1049A0007D1823A00601945795CA03A8C70183A8C0
:1049B000070283AF46002324180183A8070223A21D
:1049C00008011388870163940F0123A2160103A82D
:1049D000060023A407027D1823A0060193864E1526
:1049E00003A8C70283A8060063F4080123A00601F8
:1049F000B306E803BA9683A8460083AF880023A4D1
:104A0000170123A6F70183AF880023A26F0023A418
:104A10006800D4CB9C4285079CC29C41DC57E36C68
:104A2000F8F205450DBFB707002093870716984396
:104A30000145050798C38280EFB25FAC37040020C0
:104A40001304C4141C40411185E7A16793870780B4
:104A500073900730377600008565377500001306C0
:104A600086CF9385358B130545C5EF00906001A077
:104A7000EFE0BFCD1C40FD171CC01C4089CB014599
:104A80002AC6EFE0FFCD324541016FB07FAAB707DC
:104A9000002083A74714E5D7B7260020372500203C
:104AA000814793860615370F00201305C5FFD148AF
:104AB00037030020370E0020854E59A8DC46DC471E
:104AC000CC4F9053985790C503A807022322B800F3
:104AD00003284700938587016313B80050C3104330
:104AE00023A407027D1610C38C47D047D84B1388E8
:104AF000470090C54CC24C436393050150C310431B
:104B000023AA07007D1610C313074F15D0570C4377
:104B100063F3C50010C3330716032A974C4383AFD2
:104B200085008CC723A6F70183AF850023A20F0160
:104B300023A405010C43D8CB85050CC313078313AD
:104B4000184358576366E6001307CE162320D70193
:104B500098422DF799C3EFF01F9BB70700201387EA
:104B6000071604431384071699CC3709002085499A
:104B7000EFF0DFD109C59307C91623A03701FD1453
:104B8000E5F823200400B707002083A7C716E388B1
:104B900007EEB7E700E0116723A0E7200545CDB594
:104BA000B707002003A7C714B70700209387C716CD
:104BB00001C7054798C3828023A00700B7070020DC
:104BC00013874715184313864715B7270020938787
:104BD000C7FF5148B3060703B385D700884115C501
:104BE000C841A106BE964841C8C16314D5005441CE
:104BF000D4C1D146B306D702B697DC43D447B70732
:104C0000002023ACD71218C2828015E7EFB2BF9004
:104C1000A16793870780739007303776000085651A
:104C200037750000130686CF938525C0130545C54B
:104C3000EF00304401A07D1771BFEFB2DF8D05E5B5
:104C4000A1679387078073900730377600008565EA
:104C500037750000130686CF9385C5C1130545C57A
:104C6000EF00304101A0B70700202E8483A58713F1
:104C7000E105EFE0DFB585452285EFF01FA16FB0BC
:104C8000DF8BEFB25F892A8705E5A16793870780ED
:104C9000739007303776000085653775000013067E
:104CA00086CF938525C5130545C5EF00903C01A02F
:104CB000B70700209387871354432E858C4303A89E
:104CC0008600D4CD8C4323A0050303A807008C469F
:104CD000610823A2050103A807009C43610823A4DF
:104CE000060198D71C4385071CC311C27D55B285A8
:104CF000EFF0BF996FB07F845C45DC4795E7EFB27A
:104D00009F81A167938707807390073037760000F3
:104D1000856537750000130686CF938525C8130572
:104D200045C5EF00103501A0D04F94539857938597
:104D3000870114C6D0C250436313B60054C3144352
:104D400023A40702FD1614C3370700200327C71446
:104D5000D45725EF8C47D047D84B90C5D047484310
:104D60004CC2938547006313B50050C3104323AA78
:104D700007007D1610C3370700201307471510439F
:104D80006373D60014C351473386E60237270020E9
:104D90001307C7FF32975043084690C7C8C7084655
:104DA0004CC10CC6D8CB1C43014585071CC3B707B3
:104DB000002083A78713DC5763F8D700B7070020CC
:104DC000054723A6E71605458280372700201307ED
:104DD000071550430846D0CF88D308464CC10CC6AF
:104DE00098D7D1B7EFB22FF3411105E5A1679387AB
:104DF00007807390073037760000856537750000AF
:104E0000130686CF938565CE130545C5EF00702642
:104E100001A02AC6EFE07F93B7070020324583A7A1
:104E2000C7151CC1B707002083A787165CC1EFE038
:104E30003F9341016FB06FF0B707002083A7C715FC
:104E40001CC1B707002083A787165CC18280EFB220
:104E50008FEC411105E5A1679387078073900730B8
:104E600037760000856537750000130686CF938579
:104E7000D5CF130545C5EF00D01F01A085E5A1677B
:104E80009387078073900730377600008565377504
:104E90000000130686CF9385E5CF130545C5EF00C7
:104EA000501D01A02EC62AC4EFE03F8A370700201C
:104EB000B70700201307871383A687161C432245D4
:104EC000B24583C7270599CB1C43238907040544B2
:104ED000EFE01F89228541016FB02FE69C417D578D
:104EE0000144E387E7FE370600200326C6150328A2
:104EF000050058416307C80063E5E60023A00500EC
:104F0000F9B73386E640E37BF6FE958FBA979CC1EE
:104F1000EFF09FF201446DBFB7070020054723A6BD
:104F2000E7168280B707002003A587138280B707A2
:104F3000002083A74716054581CBB707002003A5AE
:104F4000C7141335150006058280EFB2CFDC41117E
:104F500005C5A167938707807390073037760000F7
:104F6000856537750000130686CF9385052B1305DD
:104F700045C5EF00101001A0368937040020B28427
:104F80003AC62EC4EFE06FFC930784139C43894616
:104F90001304841383C707056388F6021C40A245E7
:104FA0003247F44793C5F5FFF58DECC71C408546A5
:104FB0002388D70411CB3A858545EFF00FEDB7E78D
:104FC00000E0116723A0E720EFE08FF9EFE0EFF7B3
:104FD000630609001C40FC472320F9001C400947D8
:104FE000014583C707056319F7001C4093C4F4FF0C
:104FF0000545F847F98CE4C71C402AC423880704F8
:10500000EFE00FF6224541016FB02FD3EFB2AFD0E2
:10501000411185C5A1679387078073900730377664
:105020000000856537750000130686CF93858530AF
:10503000130545C5EF00F00301A005E5A1679387BF
:10504000078073900730377600008565377500005C
:10505000130686CF93859530130545C5EF00700183
:1050600001A03AC636C432C22AC0EFE00FEE324782
:1050700002451246A24619C37C451CC38347050559
:1050800009472308E504114793F7F70F6360D70436
:105090001D67130707CD8A06BA969842028778459E
:1050A000598E70C521A07845050778C505476387E7
:1050B000E70405452AC0EFE0AFEA024541016FB0C1
:1050C000CFC70947E39FE7FC0145EDB7370700204D
:1050D0000327871661DFA1679387078073900730E6
:1050E00037760000856537750000130686CF9385F7
:1050F000E533130545C5EF00C07701A014455845B9
:105100005C491306450098C6584554C3D44363937D
:10511000C600D8C39843232A05007D1798C3B70754
:105120000020938747155855944363F3E60098C3CE
:10513000D147B306F702B72700209387C7FFB6977A
:10514000D4438C4614C54CC58C46D0C190C69443FC
:105150005CC9850694C31C5585C7A16793870780E2
:1051600073900730377600008565377500001306A9
:1051700086CF9385D534130545C5EF00806F01A018
:10518000B707002083A78713DC57E3F4E7F2B7E7FC
:1051900000E0116723A0E72029BFEFB2CFB741118C
:1051A0001DE1A16793870780739007303776000071
:1051B000856537750000130686CF9385553813052E
:1051C00045C5452D01A09DC1A167938707807390B8
:1051D000073037760000856537750000130686CFE7
:1051E00093856538130545C5692501A03EC63AC4B7
:1051F00036C232C02A84EFE0CFDA22470246924616
:10520000B24719C36C440CC30347040589452308FE
:10521000B40491451377F70F63EFD5029D658A06B5
:10522000938545CEAE96944282867444558E70C462
:1052300021A07444850674C485466305D7040544DB
:10524000EFE0EFD6228541016FB02FAF8946E31022
:10525000D7FE0144F5B7B706002083A68616E9DE1F
:10526000A1679387078073900730377600008565C4
:1052700037750000130686CF9385D53C130545C5C9
:10528000CD2B01A018541DC3A1679387078073908D
:10529000073037760000856537750000130686CF26
:1052A0009385853D130545C5E92301A037070020F7
:1052B0000327C714545451E30C445044584890C534
:1052C0005044032847004CC2930544006313B800C0
:1052D00050C31043232A04007D1610C33707002053
:1052E0001307471510436373D60014C35147338621
:1052F000E602372700201307C7FF329750430328E1
:10530000860010C423260401032886002322B80047
:105310000CC658C81043050610C3370700200327E2
:1053200087135857E37DD7F099C3054798C3B7074C
:105330000020054723A6E71619B7372700201307D3
:10534000071550430C4650CC0CD00328860093051B
:1053500084012322B8000CC618D46DBFEFB2AF9BF6
:1053600041119DC1A16793870780739007303776FD
:105370000000856537750000130686CF9385354696
:10538000130545C5FD2101A02A8409E5B7070020C2
:1053900003A48713EFE06FBB83470405094701456A
:1053A0006315F7002308040405452AC6EFE04FBB48
:1053B000324541016FB06F98EFB2EF95370400208E
:1053C000EFE0AFB81304C4171C40B1EF372500203D
:1053D0001309C51C1305C51CEFE0CFBD3725002000
:1053E0009304051E1305051EEFE0CFBCB707002090
:1053F000B72600203726002023A827170147B70724
:1054000000209386461F1306C618C145114523AADE
:105410009716EFE06FD708C019C5B77500009385E0
:1054200085D3EFE08FF7EFE0AFB36FB00F91EFB23E
:105430008F8E4CC108C9AA876362B602184D158EBB
:105440000545637BE60093854700B707002003A569
:105450004717EFE0CFB701456FB02F8E6375D600C9
:105460000545E3FBD5FE93854700B707002003A55C
:105470000717C5B7EFB22F8A2A84AE8432890C4C45
:10548000A6864A86A6952285EFF07FFA19E16FB0CD
:10549000CF8A1C4C2285BE941C508297CDB7EFB2A8
:1054A0008F87B707002083A707174111AA84DC471D
:1054B0002EC6C04713054400EFE04FB483474402B3
:1054C000324613F7470019CBA6852285EFF09FFAE5
:1054D0001C502285829741016FB02F86F99B2302D1
:1054E000F402FDB7EFB22F833704002093060417B0
:1054F00098421C4391EBB7070020938747179043CE
:1055000098C390C26FB06F835C47FD558843EFF03E
:105510001FF9E9BFEFA2BFFD1D694111B70A0020C5
:10552000B7090020370B0020B70B0020130949D121
:1055300083A70A17984329CBDC47814C03AC0700AB
:10554000EFF02FB3EFF0EFB383A789172A8493848A
:105550008917130ACB17636CF50288C063800C04AB
:1055600083A74B1790431336160003250A00B30593
:105570008C40EFE04FE9EFF02FCC19EDB7E700E0FA
:10558000116723A0E72009A8854C014C55BFEFF017
:105590007FF580C0EFF04FCA214C0DA00146E366B5
:1055A00085FDEFF06FC9A2856285EFF05FEFEDB783
:1055B0009247B2458297824763DD070003250A00C0
:1055C00001468A85EFE00FC725D582472245E3C112
:1055D00007FE22445C489DE3EFF0AFAA9C40AA8CF2
:1055E0006374F500EFF01FF0824723A09401FD17CC
:1055F000E366FCFC8A07CA979C4382871305440034
:10560000EFE0CF9FD1BF834744020C4C924693E713
:1056100017002302F4026686B6952285EFF03FE17B
:1056200051DD8347440213F7470001CF1C4C9245DC
:1056300066862285BE95EFF0FFE31C502285829797
:10564000B5BFF99B2302F402CDBF83474402F99B07
:105650002302F402A5B783474402924593E717005B
:105660002302F4020CCC95E1A16793870780739025
:1056700007303776000037750000130606D493050F
:105680009035130545C5F52201A0E6866686E695A8
:105690002285EFF0DFD91DB78347440213F72700B7
:1056A0005DF72285EFD0DFEF11BFEFA2DFE64111FA
:1056B000EFF09FD0B707002083A7C71785CF7000F2
:1056C0002C00480002C202C4EFB02FC6A247124805
:1056D0003246B7750000375500003947814693853B
:1056E00085D513054551EFF0AF84B707002023A0FF
:1056F000A71815E1A1679387078073900730377665
:10570000000037750000130606D4930590111305A9
:1057100045C5852201A0054541016FA01FE2B7F7ED
:1057200000E0D8438146799BD8C337070020034760
:1057300047183306A70290CBD4CB984313670701D1
:1057400098C398431367170298C3D843058B75DF36
:105750009843799B98C38280EFA25FDAB7540040E8
:10576000AE893289014493840480634524014A85CB
:105770006FA01FDC930500042685EFC0BFA47DD970
:10578000B38789008385070026850504C205C1818A
:10579000EFC0DFA2D9BF138781811C43B726002049
:1057A000938606243E95636BD500B78600209386CA
:1057B000068063E5A60008C33E858280FD57EDBFE5
:1057C000B3C7A5008D8B3307C50081E78D4763ED17
:1057D000C700AA87637EE508942185078505A38F06
:1057E000D7FEE3EBE7FE828093763500AA8789CA6D
:1057F000942185078505A38FD7FE93F63700C5BF93
:105800009376C7FF138606FE63F0C70683A30500E1
:1058100083A2450083AF850003AFC50083AE0501B9
:1058200003AE450103A3850183A8C5019385450205
:1058300023A0770003A8C5FF23A2570023A4F701E4
:1058400023A6E70123A8D70123AAC70123AC670039
:1058500023AE17019387470223AE07FF75B7904128
:105860009107910523AEC7FEE3EBD7FEE3E6E7F62B
:10587000828039713EDA2ED232D436D63AD842DC22
:1058800046DE9387C18122CC804326CA06CEAA84F5
:1058900009C41C4C99E32285F9200C445410268637
:1058A000228536C65126F2406244D244216182806C
:1058B000411122C406C62A844EA572A523200500E4
:1058C00023220500232405002322050623280500A2
:1058D000232A0500232C0500214681451305C50513
:1058E000EFA07FC6971700009387079B5CD09717A0
:1058F00000009387279D1CD497170000938707A16A
:105900005CD497170000938767A300D01CD8B240DF
:10591000224441018280971500009385A5D791AA62
:10592000411126C2130680069384F5FFB384C40296
:105930004AC02E8922C406C69385440745222A847C
:1059400001CD2320050023222501310508C413863B
:1059500084068145EFA03FBF2285B2402244924495
:105960000249410182801C4DA5E7411106C622C4AF
:1059700097070000938767FA1CD5938701839C43A0
:105980002324050423260504232805046314F500B5
:1059900085471CCD2A84352848C022851D2808C487
:1059A0002285052848C4484001469145EFF05FF044
:1059B00008440546A545EFF0BFEF48440946C945F0
:1059C000EFF01FEF85471CCCB2402244410182809A
:1059D000828041119387018326C284434AC006C650
:1059E0009C4C22C42A8981E72685EFF0DFF7938457
:1059F00084048044DC40FD1763D607009C40B9CF87
:105A00008440C5BF0317C40039E7C1778507232247
:105A100004062320040023220400232404005CC481
:105A200023280400232A0400232C04002146814556
:105A30001305C405EFA03FB1232A0402232C04025E
:105A400023240404232604042285B24022449244E1
:105A50000249410182801304840671BF91454A8541
:105A6000EFF01FEC88C049FDB1472320F900014445
:105A7000E1BF797122D44AD052CC56CA5AC85EC608
:105A800006D626D24ECE2A8AAE8A13048504014950
:105A9000054BFD5B09ECB25022544A8592540259E1
:105AA000F249624AD24A424BB24B45618280044479
:105AB00083294400FD1963D409000040E1BFDE24BE
:105AC000637BFB008397E40063877701A68552859B
:105AD000829A3369A90093848406E9BF011126CA1A
:105AE00093843500F19806CE22CC4AC84EC6A10454
:105AF000B14763F9F404B14463E8B4042A89EF00C0
:105B0000F05297A7FF1F9387676898433A8439E458
:105B100097A7FF1F9387C7679C4381EB81454A8501
