:041000006F10A03B92
:101004000010000000000000B8230000D417000006
:1010140000000000B82300000000000000000000F1
:10102400B8230000B8230000000000000000000006
:101034000AED0000000000000012000000000000A3
:10104400B8230000B8230000B8230000B823000030
:10105400B8230000B8230000B8230000B823000020
:10106400B8230000B8230000B8230000B823000010
:10107400B8230000B8230000B82300008A0401004C
:10108400B8230000B8230000B82300009E0101002B
:101094004E020100FC020100AA030100B823000073
:1010A400B8230000B8230000B8230000B8230000D0
:1010B400B8230000EA060100B8230000B8230000AA
:1010C400B8230000B8230000B8230000B8230000B0
:1010D400B8230000B8230000B8230000B8230000A0
:1010E400B8230000B8230000B8230000B823000090
:1010F400B8230000B8230000B8230000B823000080
:1011040000000000B8230000B8230000B82300004A
:10111400B8230000B8230000B8230000B82300005F
:10112400B8230000B8230000B8230000B82300004F
:10113400B8230000B8230000B8230000B82300003F
:10114400B8230000B8230000B8230000B82300002F
:10115400B8230000B8230000B8230000B82300001F
:10116400B8230000B8230000B8230000B82300000F
:10117400B8230000B8230000B8230000B8230000FF
:10118400B8230000B8230000B8230000B8230000EF
:10119400B8230000B8230000B8230000B8230000DF
:1011A400000000000000000000000000000000003B
:0C11B4000000000000000000000000002F
:10120000130181F806C216C41AC61EC822CA26CC0B
:101210002ACE2ED032D236D43AD63ED842DA46DC66
:101220004ADECEC0D2C2D6C4DAC6DEC8E2CAE6CC36
:10123000EACEEED0F2D2F6D4FAD6FED8F3220030BF
:1012400096DA97F2FF1F83A2E20B23A02200F32578
:1012500010342EC09305000273A0458003A1C18203
:10126000EFE0A07617F3FF1F0323C3090321030058
:10127000824273901234D652739002309240A2424E
:101280003243C2435244E244724582551256A2563A
:101290003257C2575258E25872598649164AA64ADE
:1012A000364BC64B564CE64C764D865D165EA65EBA
:1012B000365FC65F13018107730020301300000002
:1012C00013000000130000001300000013000000D2
:1012D00013000000130000001300000013000000C2
:1012E00013000000130000001300000013000000B2
:1012F00013000000130000001300000013000000A2
:1013000083A2C182938202E07390023417F1FF1F1F
:10131000032141FF024182403243C2435244E2442E
:10132000724582551256A2563257C2575258E25849
:1013300072598649164AA64A364BC64B564CE64C5D
:10134000764D865D165EA65E365FC65FD652A102FA
:1013500073900230A24213018107828013000000C3
:101360001300000013000000130000001300000031
:101370001300000013000000130000001300000021
:101380001300000013000000130000001300000011
:101390001300000013000000130000001300000001
:1013A00013000000130000001300000013000000F1
:1013B00013000000130000001300000013000000E1
:1013C00013000000130000001300000013000000D1
:1013D00013000000130000001300000013000000C1
:1013E00013000000130000001300000013000000B1
:1013F00013000000130000001300000013000000A1
:10140000F322003093F272FF130380781203B3E2E9
:101410006200711523205500130585FA10C12115AE
:10142000232005009302000063870200711523202A
:101430000500FD12D5BF71150CC1828000000000AF
:10144000000000000000000000000000000000009C
:10145000000000000000000000000000000000008C
:10146000000000000000000000000000000000007C
:10147000000000000000000000000000000000006C
:10148000000000000000000000000000000000005C
:10149000000000000000000000000000000000004C
:1014A000000000000000000000000000000000003C
:1014B000000000000000000000000000000000002C
:1014C000000000000000000000000000000000001C
:1014D000000000000000000000000000000000000C
:1014E000000000000000397101436EC619A0397177
:1014F00041536AC866CA62CC5ECE19A039710153E5
:101500005AD056D252D44ED64AD826DA22DC06DE3B
:1015100033016140828241114AC026C222C406C6FC
:101520008282B24D4101024D924C224CB24B41019C
:10153000024B924A224AB249410102499244224452
:10154000B240410182803D432A876373C30293778F
:10155000F700BDEFADE5937606FF3D8ABA960CC362
:101560004CC30CC74CC74107E36BD7FE11E2828026
:10157000B306C3408A069702000096966780A600CD
:101580002307B700A306B7002306B700A305B700DB
:101590002305B700A304B7002304B700A303B700D3
:1015A0002303B700A302B7002302B700A301B700CB
:1015B0002301B700A300B7002300B700828093F592
:1015C000F50F93968500D58D93960501D58D61B75E
:1015D000939627009702000096968682E78086FA07
:1015E0009680C1171D8F3E96E374C3F8A5B72320DC
:1015F000150040C104C52326250123283501232ACF
:101600004501232C5501232E650123207503232238
:101610008503232495032326A5032328B503232A22
:10162000250200FD24E12724250527283505272C40
:101630004505272055072724650727287507272CE8
:101640008507272095092724A5092728B5090145DD
:10165000828083200500404104450329C500832979
:101660000501032A4501832A8501032BC501832B2C
:101670000502032C4502832C8502032DC502832D10
:10168000050303214503007D24610729850487297B
:101690000505072A8505872A0506072B8506872B5A
:1016A0000507072C8507872C0508072D8508872D3A
:1016B000050913B515002E9582803367B500FD53DB
:1016C0000D8B79E7B7877F7F9387F7F710419441B8
:1016D000B372F6003363F600BE92B3E26200639524
:1016E000720C6318D6065041D441B372F6003363CE
:1016F000F600BE92B3E262006396720A631BD604E0
:1017000010459445B372F6003363F600BE92B3E21F
:101710006200639F7208631ED6025045D445B372BF
:10172000F6003363F600BE92B3E26200639872087B
:101730006311D60210499449B372F6003363F60080
:10174000BE92B3E26200639172085105D105E30FC6
:10175000D6F61317060193970601631CF70013577B
:10176000060193D706013305F7409375F50F91E90C
:1017700082804183C1833305F7409375F50F91E172
:1017800082801377F70F93F7F70F3305F7408280C6
:1017900010219421050585056313D60075FA3305DC
:1017A000D640828011059105E314D6FE0145828062
:1017B0002105A105E31ED6FC014582803105B10556
:1017C000E318D6FC014582804105C105E312D6FC31
:1017D00001458280EFF23FD437A50100130505EEE5
:1017E000EF50416601A09D4763E9A704EFF2BFD225
:1017F000E967938707EF0A053E951C4182873715F5
:1018000001409305000213050580EFE0706535B3D4
:10181000894537150140130505C0C5BF9145D5BFA2
:10182000A145C5BFC145F5B793050002DDB79305D6
:101830000004C5B793050008E9BF0145828037055C
:101840000020130545288280EFF2FFCC0111A1474B
:101850005C84B70700209387C7273EC8B7070020DE
:10186000938787283EC6B7070304D1073ECA894736
:10187000230CF100B71700009387677E28003ECE47
:10188000EFD0C027056155B9B707002003C5272948
:101890008280EFF2DFC54D3FEFD0A0251C41370419
:1018A0000020E964232AF428B70B002013044429FC
:1018B0009D49370A0020938404F1930A00F8130B22
:1018C0000004370900200545EFE0A00CEFD02028E8
:1018D0000840EFD0302165D908407D5693850B290B
:1018E000EFD0300B138C0B2903470C0093860B2988
:1018F00093073A2963E6E9040A0726971843028703
:10190000054798A38C3213060008982393062929CB
:10191000834729296399C502D98F9CA26DB70947CE
:10192000CDB71147F9BF2147E9BF4147D9BF1307D9
:101930000002C1BF23806701F1B723805701D9B7E7
:1019400023800700C1B71347F7FFF98FF9B7EFF20C
:101950009FBC1145EFE0D0310545EFE0105405453F
:10196000EFE0D0558547E30CF5FE3715014085655E
:10197000130505C0EFE0704FC9B6EFF2DFB93707C6
:1019800000208357472A9306F0031307472A850749
:10199000C207C18363E1F60A1EA3B707002083587C
:1019A0000700370700209386072A03570723239051
:1019B000060023810600B706002093868629882228
:1019C0008C32B0229387072A63FCE802B706002016
:1019D0009386C6293367B50003C80600518F1347A5
:1019E000F7FF1377F70F337807012381070103C847
:1019F0001600B42233780701758FA380070198A3DE
:101A0000370700200357272363FBE800B823598DCD
:101A10009833A8A3D98D98238CB3598E90A33715EA
:101A200001408565130505C0EFE070448D45114503
:101A3000EFE0702219B62310070085B7EFF2BFADB3
:101A4000EF30B106B7A7010003A687F583A6C7F557
:101A500037A40100EF20E158032604F6832644F65C
:101A6000EF10B144EFE07057032604F6832644F6E6
:101A7000EF202157EF308172420541817DBCB707CD
:101A80000020938787293E95A30FB5FE8280130718
:101A9000F003636AA700EFF21FA84D373707002055
:101AA0002319A72259BC9307F003370700202319F5
:101AB000F7228280B70700201387C729FD567D15BE
:101AC00016A334A31375F50F21479387C729636EB7
:101AD000A7026967130707F30A053A9518410287B9
:101AE000A3800700238107008280238007002381D1
:101AF0000700828023900700828023810700828074
:101B0000A380070082802380070082801307F003F0
:101B1000636AA700EFF23FA01537370700202318AC
:101B2000A72221BC9307F003370700202318F722D0
:101B30008280EFF25F9E2A84EF10602601CD8547F8
:101B4000630DF5000145537505D02285EF10405A0D
:101B50000545E5B2EFC0F02DFDB70146854522856C
:101B6000EF100041EFC0102FF9BFEFF23F990111C4
:101B7000AA89EF10C02205C9854701446312F50206
:101B80000D4685454E85EFE07145014685454E85FC
:101B9000EF10003E2AC42800EFC0702E2A8409E905
:101BA0002285056171B22800EFC0B05C0144CDBF51
:101BB0000087240001498504E35489FEFC204E85FA
:101BC000050953F517D0EF10A052F5B7EFF2BF9407
:101BD0002A84EF10C01C85476318F5020146FD55A5
:101BE000AA842285EF10C0388145EFC01046530506
:101BF00000F063169500B7A7010007A587F62285B8
:101C0000EF10004F054515BA0145F5BFEFF2BF9043
:101C10001C4163DA0700860785831CC185471CC900
:101C2000EFC0105019BA23280500DDBFEFF21F8D59
:101C30000111AA890949EF1080166351A9042A8A63
:101C4000014689454E85EF10A0328545EFC0F03F33
:101C50009307EAFF64002308F1000144A68A3309D0
:101C600049418347010185040146634DF4008545E0
:101C70004E85EF10E02F2AC65685493F0145056184
:101C80006FF01F8BB30589004E85EF10602EC8A042
:101C90000504C1BFEFF29F8601112A89EF102010C1
:101CA0007D151375F50F2308A1000DC164000144D3
:101CB000A6898345010185040146634DB40085452D
:101CC0004A85EF10E02A2AC64E858937014505610D
:101CD0006FF01F86B305B4404A85EF106029C8A095
:101CE0000504C1BFEFF23F832A84EF10400B894700
:101CF0006314F502014685452285EF1060274205F1
:101D00004181EFC0D04B014689452285EF10402626
:101D10001375F50FEFC0701F01456FF01F82EFF2D2
:101D2000EFFD01112A84EF10800789476315F50440
:101D30001546FD552285EFE0712A0146F9552285A9
:101D4000EF1000232AC42800EFC0701385476315E5
:101D5000F504FD552285EFF0E11024000549937943
:101D6000F50F850463DD2901B7A7010007A587F6F4
:101D70002285EF10E037054505616FF06FFBFC2011
:101D8000228553F517D0EF10A0364A86F9552285E3
:101D9000EF10806B0509F1B7530500F02285EF10B5
:101DA0002035D1BFEFF22FF72A84EF00507F85470F
:101DB0006319F500014685452285EF10601BEFC0D1
:101DC000504A01456FF06FF7EFF2EFF40111AA846A
:101DD000EF00F07C8947631AF502FD552685EF1068
:101DE000000A95476313F502014685452685EF10E5
:101DF00020182AC6FD552685EFF0C1061375F50F8C
:101E00002308A100A14763F3A704014505616FF012
:101E1000CFF2130914004A86FD552685EF1040497C
:101E20000146FD552685EF10A0141C103E94A30812
:101E3000A4FEF9552685EF0070771374F90F8347D8
:101E40000101E368F4FC6800D133C1B70144C5BFA8
:101E5000370500201305C52A8280375702001C333E
:101E600028231423A2074205C98F2833D58F620582
:101E70005D8D8280EFF22FE7011102CC231E01005D
:101E8000014B8144370C0020B7090020B7AC01009A
:101E900037AD010009440545EFD0B02FEFE0101336
:101EA00083270C2B0547930B0C2B6388E72281C7F4
:101EB000E38287FECDB789471384892A23A0FB00DC
:101EC000EFE0D17708C0EFF0911A0840B727000083
:101ED0000146938547C9EF1040310840B7A701007C
:101EE0009385C7F6EF1020520840B727000093856E
:101EF00087DC0146EF10602F0840B7A501009385ED
:101F000045F7EF1040500840B72500000146938583
:101F100025B3EF10802D0840B7A50100938505F883
:101F2000EF10604E08403729000001469305A9B61E
:101F3000EF10A02B0840B7A501009385C5F8EF105E
:101F4000804C0840B725000001469385C5C2EF10BC
:101F5000C0290840B7A50100938585F9EF10A04A74
:101F6000084001469305A9B6EF1020280840B7A500
:101F70000100938585FAEF1000490840B72500005D
:101F800001469385C5BCEF1040260840B7A5010067
:101F9000938585FBEF1020470840B72500000146D8
:101FA000938545DAEF1060240840B7A501009385BA
:101FB00085FCEF1040450840B72500000146938599
:101FC000E5D1EF1080220840B7A50100938585FD7B
:101FD000EF1060430840B72500000146938545CEC9
:101FE000EF10A0200840B7A50100938585FEEF10F3
:101FF0008041A5359567130915009387F7E163E9DB
:10200000270B375702005423930747006D470146BB
:102010006397E60A94331307C0046392E60AB42375
:1020200013075007639DE608B8339307100663183B
:10203000F70837A50100130545FFEF40B1604A8658
:10204000B7560200084091060147B685EFE0515AA5
:1020500035E908408147014781467D568145EF10AB
:10206000C05DE31905E2084037A901009305490066
:10207000EF10E01F084001468D45EF10A06D93154D
:10208000A5001305CD00EF40F1490145EFE04064A4
:10209000084093054900EF10801D854723A0FB00F1
:1020A000D5BB3387C700582341DF0506E36B26FF06
:1020B00037A5010013058502EF40D158E1BBB757A2
:1020C0000200EDB708400146FD55EF00B06FAA854C
:1020D00013858C01EF40114575BB0145EFE0006EA3
:1020E0001384892AAA852A8A0840930A8101EF105D
:1020F000000103290400EFF02FF9AA854A85EF10AB
:102100000000084009468145EF40E071AA8D014476
:102110001389892A032509009377F40F9345F4FF67
:1021200001463EC6EF00D06483C60A00050413755D
:10213000F50F1377F40F6382A602B2472380AA003B
:102140009146638CD7089546638CD7088D46638388
:10215000D708AA853A85EFF09F929947850AE31B35
:10216000F4FA8504C204C1809307803E639AF402A6
:1021700063734B01528BB7A70100138547035A863F
:10218000D285EF40313A0325090001468D45EF1015
:10219000605C9315A5001305CD00EF40B138814474
:1021A0000145EFE08060854763F0B7030325090030
:1021B0000146FD55EF001061AA8513858C01EF40A3
:1021C0007136894723A0FB0003250900F955EF006C
:1021D000F03DC9B1EFF0BF8B49B7EFF03F93B5BF0A
:1021E000EFF05F8D9DBFEFF20FB32122EFD0516171
:1021F000716513050520EFD07055EFD0D17BEFD07E
:10220000D171EFD0804501A0B71702409843B706BF
:10221000FFF041111367170098C3D8433706020037
:10222000758FD8C39843B706F7FEFD16758F98C310
:102230009843B706FCFFFD16758F98C3D843B706C1
:1022400001FFFD16758FD8C337079F0098C702C4DA
:1022500002C69843C166558F98C3B71602400567FA
:102260009C42F18F3EC6A24785073EC4B24781E734
:10227000A247E397E7FEB71702409C431397E70096
:102280006357070685473EC632478547631FF704F5
:10229000B7170240D843B706C1FFFD16D8C3D843CD
:1022A000D8C3D84313670740D8C3D843758FD8C362
:1022B000D843B7063D00558FD8C39843B7060001F1
:1022C000558F98C3984393166700E3DD06FED84305
:1022D000B7160240719BD8C3D84313672700D8C3F1
:1022E0002147DC42B18BE39EE7FE4101828002C6BA
:1022F00061BFB7160240DC421146B18B13874180A3
:102300006385C70021466388C702B7177A009387A1
:1023100007201CC3B7170240DC43918393F6F700F4
:10232000B707002093870700B69794231C43B3D7C1
:10233000D7001CC38280DC42D4424166C983BD8B76
:10234000F18E890745466393C700C94781EEB746BA
:10235000024083A60680C18A89CEB7167A0093868A
:10236000062021A8B7160240D4421396E600E35691
:1023700006FEB7163D0093860690B387D70251BF7D
:10238000B7270020938707A11CC1B71700209387A8
:1023900007559CC1930700081CC28280B727002004
:1023A000938787B11CC1B7170020938707759CC11D
:1023B000930700081CC2828001A097E1FF1F938150
:1023C0006167176100201301E1C317B50100130510
:1023D000259097E5FF1F9385E5C21386C18463FAB4
:1023E000C5008322050023A0550011059105E3EAED
:1023F000C5FE17E5FF1F1305A5E897550020938537
:10240000E5216377B500232005001105E36DB5FED6
:10241000FD42739002BCFD4273904280B78200007F
:10242000938202807390023097F2FFFF9382C2BDC5
:1024300093E2320073905230EFF01FDD97020000FC
:102440009382A2DA73901234730020309317350010
:1024500063DA0700B707024083A707407D8D333555
:10246000A00082809317250063D70700B7070240BA
:1024700083A7074DE5B7B70702409C43C5B793173D
:10248000350063D70700B707024023A2A740828028
:102490009317250063D70700B707024023AAA74C6C
:1024A0008280B7070240C8C38280EFF2CF86793FAF
:1024B0006FF0AF88EFF22F86D9376FF00F8837278C
:1024C00002405C470545858B91E7484741891335B4
:1024D00015000D058280EFF20F842A848544C537EC
:1024E0006318950019E0154529A0D13F7D14CDBF93
:1024F0007DD86FF08F849C4513F7070113F8F70020
:1025000001C7D8413368E8008E2113F7F50F39C3AE
:1025100018418146854E3D4F930F800293028004FF
:10252000214E3396DE00B3F8C5006311160393986D
:10253000260033131F011343F3FF3377E300B3186F
:10254000180133E7E800639FF70550C98506E39A51
:10255000C6FD18C11307F00F6375B7045441214637
:10256000854E3D4F930F800293028004414EB398F5
:10257000CE0033F715016392E80213172600011706
:102580003313EF001343F3FFB376D3003317E800A0
:10259000D98E639DF701232A15010506E319C6FDAF
:1025A00054C18280E39457FA10C94DB7E39757FEA0
:1025B00023281501DDB7B7070140635A0504DC4F36
:1025C00093560501131805013707300013F6F6007E
:1025D00013580801B376E50063500506639BE602D5
:1025E000930606010D46B316D60093C6F6FFF58F87
:1025F00099C9135755011377F73F12073317E800AE
:10260000D98F63570504370701405CCF8280DC43D4
:1026100045BF1317B500635607008D46B396C60035
:10262000E9B7135755011377F73F12073317E8003F
:102630001347F7FFF98F6DBF6390E602370601403D
:102640005442370700F17D17F98F758F58C2D5F1C5
:10265000370701405CC382801317B500635C070035
:102660008D46B396C60093C6F6FFFD8EB707000FE2
:10267000D58FF1BF1357550112073317E8001347E1
:10268000F7FF7D8FB707000FD98FD1B737170240FB
:102690005C439146B18B6385D700A1466382D70620
:1026A000B7177A00938707201CC1371602405C4297
:1026B00037070020130707019183BD8BBA97942336
:1026C0001C41B3D7D7005CC15442A1829D8ABA96FF
:1026D0009422B3D6D70014C55442AD829D8A369752
:1026E0001823B3D7E7005CC5584239839376370087
:1026F0001387818036971823B3D7E7021CC98280DD
:102700005C4354434167C983F98E37F7FF1F0327A2
:10271000C770BD8B8907131617016348060045462D
:1027200001476392C702C94739A809476389E7028D
:102730003D476388E70241476388E7024546014712
:102740006393C700C14785E6B746024083A606806B
:10275000C18A8DC6B7167A009386062025A0014748
:10276000D9B70547B547C5B70147BD47E9BFB71654
:102770000240D4421396E600E35E06FCB7163D0025
:1027800093860690B387D7021CC105D31C4185836D
:1027900021BF99C5371702405C4B5D8D48CB8280C5
:1027A000B7170240D84B1345F5FF798DC8CB82800F
:1027B00099C5371702401C4F5D8D08CF8280B7172F
:1027C0000240984F1345F5FF798D88CF828099C5D7
:1027D000371702405C4F5D8D48CF8280B7170240AB
:1027E000D84F1345F5FF798DC8CF82801E319221D5
:1027F00003D82500C207C183F99BC207C1831EB15C
:102800001E3156211A2DC207C18342074183137717
:10281000C7F8518F9225F59BC20633660601D18F0A
:1028200037360140130806C0C182630E0501130646
:102830000640630AC50037560140130806C063040A
:1028400005016310C502B225DD9B03D8E500D18FD9
:10285000D221ED9B93F6F6CFD18FD22533660601B8
:10286000D18E56A11AADFA215AB91EB182801E31FD
:1028700065771307F7CFC207C183BD9BC207C1832A
:102880001EB11E31562103D88500C20713960601DA
:10289000162DC18393F7F7FD758F96214182A2060D
:1028A000558FB62142074183B3E606019206D58FC4
:1028B000B7360140C207138806C0C183630E050105
:1028C00093860640630AD500B7560140138806C0B8
:1028D00063040501631ED502B62593F7F7F703D805
:1028E000C5009206D58FD621C207C183920693F701
:1028F000F7FBD58FFD769386F63FF18EF225C20762
:10290000C183336606010A06D18E13960601418201
:1029100052A11AADFA211ABD1EB182801E3103D810
:102920008500C207C18393F7F7EFC207C1831EB1C9
:102930001E3156215A2DC2071396060142079621D1
:1029400041831377C7F8558FB621C18393F7F7DF1B
:10295000B3E60601A206D58FB7360140C207138839
:1029600006C04182C183630E050193860640630A57
:10297000D500B7560140138806C063040501631FE4
:10298000D502FD769386F67FF58FB62503D8C50070
:10299000A206D58FD621C207C183A20693F7F7BF3F
:1029A000D58FF576FD16F18EF225C207C183336609
:1029B00006011206D18E13960601418252A15AAD2C
:1029C000FA215ABD1EB182801A31FD77FD17F98FA9
:1029D0001EB10358050256215E2D65771396060138
:1029E00096211307F7CF7D8FF977A206FD17558F34
:1029F000B3F70701B62103D8850042074182B3E649
:102A00000601B206D58FB7360140C207138806C04B
:102A10004183C183630E050193860640630AD50096
:102A2000B7560140138806C063040501631BD50037
:102A3000F176FD16F18ED2251A06D18E1396060177
:102A4000418252A15AADFA212310E5041EB18280C1
:102A50001E2DC207C183DD9BDD8D0EAD82801A2D38
:102A6000FD779387F77FF98FA205CD8FC207C183CA
:102A70001EAD82805E2DC207C183DD9BDD8D4EAD14
:102A800082805A2DFD779387F77FF98FA205CD8F2E
:102A9000C207C1835EAD82801E294A25ED8F4205A3
:102AA000418189C76D8D3335A000828001458280C8
:102AB000EFE27FA61629F577FD17F58FF621DA25C7
:102AC0007971D58F1EA95625FD779387379FF58F8E
:102AD000D6212A842EC6D58F9625D58FB625D58F9B
:102AE0005EA55E29C207C18393F7F7CFD98F5EA990
:102AF0006808693EB747014093870780B245631E67
:102B0000F402A2576547B387E7029841930640064F
:102B10000A07B3D7E70233D7D702B3F7D7021207B2
:102B2000920793872703B3D7D702BD8BD98FC207EC
:102B3000C1831EA445616FE05FA09257E1B791C5C4
:102B40005E250967D98F5EA582805A25F977FD1722
:102B5000F98FD5BF93F5F51F4EA182800A216D8DA7
:102B60003335A00082805449635CB00093973500F0
:102B70008C42BE955C4563EFF5009385418219A8B0
:102B8000B7C7F0FF1387979D63C8E500939735009B
:102B90004C45BE952E8582801387879D6396E50000
:102BA0000C4993854502FDB794425946C842E30655
:102BB000C5FC88420D8F7421E3C1E6FCB385B740A4
:102BC0009385959D8E05AA95F1B7EFE2DF948C4130
:102BD000EF3000646FE07F96EFE2FF93AE84B28542
:102BE0002A84EF80D010D440930750042A890147EB
:102BF0006398F602AA858840EF8010575C412A87C7
:102C000085C35C441441A10723ACD7FE584123AED1
:102C1000E7FE5CC45C4403A5C7FF3D896FE0FF91FC
:102C20005444A685228523A0260183474900368681
:102C300093E70704DCC2938786005CC4EF90F05AE8
:102C4000D1BFEFE25F8DAE844111B2852A84EF805F
:102C5000100AD440930750042A8901476398F60468
:102C6000AA858840EF8050505C412A87A1C3544414
:102C700083A7C6FF93F7070499CF8C40DC31918B73
:102C800099CB83A786FFDC338D8B91C72AC622851B
:102C9000EF40900A32475C4483A687FFE11714C3D4
:102CA000D44354C35CC441016FE03F895044A685BE
:102CB00022852320260183474900930686FF93E758
:102CC00007045CC2930786005CC4EF90105D5C440F
:102CD000C117C9BFEFE23F84D0418C41EF30903241
:102CE0006FE0BF8541116364B5004101828094416A
:102CF00018415C4114C1D4412105E115232ED5FEB4
:102D000098C5DCC5CDB7EFE21F815C45544D41113C
:102D10002EC69D8E8D862A840329450163C6D50261
:102D2000145137470F0013070724958F8D870D8F98
:102D3000950781446346F702B7350000700093851C
:102D4000A5BCEF30603F09EDB247854413973700CB
:102D50005C44BA97032749006374F7002322F90003
:102D6000268541016FE06FFD1C49E857ECD7828052
:102D700001C51C49E85B8280138501828280B747C8
:102D80000F00938777623387F50063E8E7005849BF
:102D90005C451843998F8D87BE952E8582805C494E
:102DA00048459C43A1071D8D0D85828093871500A2
:102DB0008E0763C0050258491843BA9758456364A3
:102DC000F7005CC582809306870054C52322070064
:102DD000F5B75845BA97F5B7EFE2EFF344453284BB
:102DE0005933E1142A89634104020E043384844078
:102DF000A2854A85C53DA68513058400E535A685CF
:102E00004A85CD356FE06FF3050461563304C40283
:102E10002A94F9BFEFE22FF03289AA84A9332A84D9
:102E2000CA85268589331C401CC15C405CC1B7C77C
:102E3000F0FF9387879D6353F9025C4093F7070483
:102E400091CFDC489C438C43DC31918B81CB10408B
:102E50005C328D8B81C72685EF40606B6FE0EFEDB4
:102E6000EFE26FEB4045AA84FD391C412104232C7D
:102E7000F4FE5C41232EF4FEC0C46FE00FECEFE2E1
:102E80008FE9D531938741826306F50048413D893A
:102E90006FE0AFEA7D55EDBF8505ED679387C764A9
:102EA0008A05BE9588418280EFE2EFE66D394841A0
:102EB0003515133515006FE04FE8EFE2CFE541110E
:102EC0005D3158418D476308F7006C00EF90D021C9
:102ED00041016FE08FE60545E5BFEFE2CFE36131E9
:102EE00048413D897515133525006FE00FE5EFE288
:102EF0008FE241112A8932C613844182AD316301C8
:102F000085023246AA844A85B285B1392A860145AE
:102F100063058600A685EF90D06D41016FE0EFE17B
:102F20000145E5BFEFE22FDF2A842E854C44EF50A8
:102F3000B05801C55C44A1075CC46FE00FE0EFE24C
:102F40008FDD41113284EFF01FC254410D47639B66
:102F5000E6001C6105453EE611C008C0326541012E
:102F60006FE0AFDD6C00EF9030187DF502C6EDB775
:102F7000EFE26FDA41113284EFF0FFBE54414D476A
:102F8000639BE6001C4105453EC611C008C03245A2
:102F900041016FE08FDA01466C00EF90301B75F550
:102FA00002C6E5B7EFE22FD7EFF0FFBB58418147EC
:102FB00019C785476315F7001C41B337F0003E85FC
:102FC0006FE0AFD7EFE22FD5AA842E893284EFF0DD
:102FD0009FB95C411147BD8B638AE7020D47638847
:102FE000E700014519C0232004006FE00FD5AA8532
:102FF0002685EF5050699C48DC476355F0002685D4
:10300000EF403028CA852685EFF0FFB501C81C4186
:103010001147D4236397E600FC331CC008414105E7
:10302000E9B7DC47DDBFEFE20FCFEFF0DFB35C4184
:10303000154793F7F7036386E7026348F7001147E4
:10304000638EE70001456FE04FCF1D476385E700C2
:103050005147E399E7FE1C41C847F5B71C41E833E7
:10306000DDB70841EF80F051F9BFEFE2CFCAEFF0D2
:103070009FAF584189473D8B630BF7009D468147C1
:103080006314D7001C41E1073E856FE00FCB1C4164
:10309000E5BFEFE24FC8EFF01FAD5C411D4793F76E
:1030A000F703638CE702634EF7008946638AD70211
:1030B000014763C5D700954663D4D7023A856FE0D0
:1030C000CFC75947638EE70013076002638AE700A2
:1030D00021476387E7000147D5B718416107F9BF6A
:1030E0001841E9BF5C4523A20700A1075CC58280A7
:1030F0005C450D4788E3D8C3A1075CC582805C4569
:103100004D478CC3D8C3A1075CC58280EFE2AFC036
:10311000AA8405EEB7A5010093854502EF80203D06
:10312000DC442A8488C35821A1071367070423AE0F
:10313000E7FEDCC49C48DC476355F0002685EF4081
:103140005014130504016FE04FBFEF804036C9BF34
:10315000EFE26FBCAA8495E15C452E8423A20700B0
:10316000DC44A107DCC49C48DC476355F00026859D
:10317000EF40301122856FE04FBCEF804037D844DC
:103180001304050108C35C2193E707045CC3C9BFAE
:10319000EFE26FB82A84EF50D05A1C48AA84DC476B
:1031A0006355F0002285EF40D00D26856FE0EFB823
:1031B000397132D4301022CC26CA2A843EDA06CEA7
:1031C00036D63AD842DC46DE32C6EF5090571C481D
:1031D000AA84DC476355F0002285EF40900AF24054
:1031E00062442685D24421618280EFE2CFB2411150
:1031F0002A84AE8411EA5C4559478CC3D8C3A10721
:103200005CC541016FE06FB3B28532C6EF30300765
:103210003246584444C593173600B307F7405CC4A0
:10322000FD557D166310B6021307600688C3D8C328
:10323000A1075CC41C48DC47E355F0FC2285EF4045
:103240005004C1B713173600B306E5003E970328B4
:10325000070023A806015843D8CAE1B75C45B33537
:10326000B00005478CC3D8C3A1075CC58280EFE2DC
:103270008FAA1C492A844111C8532EC68945EF8064
:1032800060663246AA852285EFF01F9541016FE006
:10329000CFAAEFE24FA841112A8432C6EFF0BF8CCB
:1032A0003246AA852285EFF03F9341016FE0EFA8F7
:1032B000EFE26FA62A843289EFF0FF8A5441930728
:1032C0005004AA8401476398F6020841CA85EF803A
:1032D00060615C412A8785C35C441441A10723AC2B
:1032E000D7FE584123AEE7FE5CC45C4403A5C7FF8C
:1032F0003D896FE08FA45444CD47A685DCC223A04E
:103300002601938786005CC436862285EF90E06DA7
:10331000E9BFEFE24FA0AA84EFF0FF84C044084168
:10332000930584FFEF80C0661C41232CF4FE5C41B2
:10333000232EF4FEDC4403A5C7FF3D896FE0EF9F19
:10334000EFE26F9D41112A8432C6EFF0DF813246F1
:1033500008414444B285EF80E0581C419CC05C4168
:10336000DCC05C44C8431387870058C43D894101D1
:103370006FE0AF9CEFE22F9A41112A842EC632C42F
:10338000EF80804F5C4413075004B24588C3D8C314
:10339000A1075CC4A2466344B0006357D0002E86E8
:1033A000AA852285EF8060681C48DC476355F000E1
:1033B0002285EF40006D41016FE02F98EFE2AF955D
:1033C0002A84EFF04FFA5C411547BD8B638CE70010
:1033D0001D476387E7021848938747038A07BA9710
:1033E000D84719A01C41984F014509CB5C440545BD
:1033F00098C313075004D8C3A1075CC46FE0EF93D0
:103400001C419847D5B7EFE20F911C492A8441111E
:10341000C8532EC68945EF80E04C3246AA852285E6
:10342000EFF03F8241016FE04F91EFE2CF8E41110B
:103430002A8432C6EFF02FF33246AA852285EFF0B8
:103440005F8041016FE06F8FEFE2EF8C41112A84C2
:103450003289EFF04FF1544193075004AA84014799
:103460006398F6040841CA85EF80C0475C412A870B
:10347000A1C3544483A7C6FF93F7070499CF8C4098
:10348000DC31918B99CB83A786FFDC338D8B91C781
:103490002AC62285EF40400A32475C4483A687FF54
:1034A000E11714C3D44354C35CC441016FE0EF88F7
:1034B0005044CD46A68554C223202601930686009B
:1034C00054C42285930686FFEF90205D5C44C117AB
:1034D000E1BFEFE24F842A84EFF0EFE850440C4163
:1034E000AA8441162285EF8010075C4403A787FF5A
:1034F00018C183A7C7FF5CC19C40238307005844C1
:103500008327C7FF93F7070489CF8C40DC31918B69
:1035100089CB832787FFDC338D8B81C72285EF40E2
:10352000A0015C44C1175CC46FE02F81EFD2BFFEE5
:1035300041112A8432C6EFF00FE354440C41324665
:10354000AA84E1162285EF80804A58448327C7FF6A
:1035500093F7070489CF8C40DC31918B89CB83278B
:1035600087FFDC338D8B81C72285EF30F07C5C4494
:10357000E1175CC441016FD05FFCEFD2DFF9AA8490
:10358000EFF06FDEDC442A89014403A7C7FF19C3AB
:1035900003A487FF832749001547BD8B638CE70091
:1035A0001D476385E7049848938747038A07BA97BE
:1035B000C0C73DA08327090080CF1DC08325090017
:1035C000DC31918B81CB5C308D8B89C7228626853F
:1035D000EF30F0738325090022862685EF40003AFC
:1035E000DC440545E117DCC46FD03FF583270900B3
:1035F00080C7E1B7EFD23FF28505E157B387F50207
:103600004C452A84B284BE9505C78357C5068DE311
:103610005C4998CB94CFEF304019FD576398F40084
:103620005C485844D44363F3E600D8C36FD0FFF03E
:1036300026862285EF30001DCDB7EFD23FEC011179
:103640002A84AE84B2890329050291CAB6853EC692
:103650003AC4EFF04FD1B2472247B30625419385D4
:103660001400E154B38595025044B2952ECC81C725
:103670000356C4060DCA3687B3862541B735000008
:103680003008938545CD22854ECEEF30E030FD5792
:103690006398F9005C485844D44363F3E600D8C308
:1036A00005616FD0FFE844483389254122859CC8D5
:1036B0007C4C98CC23AE2401DCC8BE3003474407C1
:1036C00074CCF99BD98F93E70701BEB04E86EF30DB
:1036D000C00DBE300145BD9BBEB0DC487CCC45BFB3
:1036E000EFD27FE379712A84B68489E6B7A401001A
:1036F0009384040AB28622852E866C083AC6EFA00F
:103700007063324726866C08BA862285EF30602EB9
:10371000AA840DED5C4403A987FF834769009DC718
:103720001C488945C853EF80E01B832509011C41D3
:1037300098411CC35C415CC393F7070481CB93871A
:1037400085006315F7002285EF30106026854561FE
:103750006FD0BFDEEFD29FDAA547004963E2B70C16
:103760006967939725001307C706BA979C432A8970
:103770008287A30904022E856FD09FDB81452285B5
:10378000EF70F0008547A309F4028145EDB781454C
:10379000EF40C037DDBF0C444844AA95A981E1BF82
:1037A0000C444844AA9593F5F53FF1B78547834902
:1037B0003403A309F4020DE29305009C2285EF7007
:1037C000007D4A85EF40E02BA309340383451403B1
:1037D000E51593B5150045B744442A062285B294F1
:1037E000A685EF70C07A83270901DC476355F00096
:1037F0004A85EF400029A30934038145E34890FC42
:103800009DBF6C5070D085BF930780022C546354C9
:10381000F6001306800230D4B9BF83453403A1BF3C
:10382000FD5591BFEFD23FCFEF20E052EFD2BFCE98
:103830002A84EFF04FB350440C4122856116EF709B
:10384000107558449307870019E1930787FF5CC4FC
:103850006FD0BFCEEFD23FCC05472A84635DB7005F
:10386000EF90606D1C48DC476355F0002285EF4007
:1038700040216FD09FCCFDF54445B7A5010001461E
:1038800093854502EF70B04288C05C2193E707043E
:10389000DCC05C44A1075CC4F1B7EFD2DFC72A8467
:1038A000EFF06FAC4C442A862285EF9030005C44E8
:1038B000A1075CC46FD07FC881C51C49DC439CC193
:1038C0001C4988438280EFD21FC52A84EF70B0471D
:1038D0005C4413077004AA8488C3D8C3A1075CC4DE
:1038E0001C48DC476355F0002285EF4080191385A2
:1038F00084016FD09FC4EFD21FC2411132C6AA8487
:10390000EFF06FA65C411947324693F7F7036382E5
:10391000E7061307600201446394E7080C41635112
:10392000C008FC2163CEC70605060E0637A40100B9
:10393000B386C500814713044402D844130687FFA9
:10394000D0C4032687FF90C20326C7FFD0C2BDC1E3
:103950008327C7FF93F70704A1C7DC31918BA9C365
:10396000032687FF5C328D8B85CF2685EF30303A7A
:1039700005A81C410144CC476354C002D8456341AB
:10398000C702130736000A07BA97B8410E069C43D0
:103990003A96032486FF944301C84104814551FCB3
:1039A000228541016FD07FB937A4010081451304FE
:1039B000440961B7F5D79443D842137707046DD310
:1039C00013878700E39EE6FCBE852685EF30D0375F
:1039D000C1BFDC41014589C788411CC223A2050043
:1039E000828019E201458280EFD25FB12E89FD55B8
:1039F0002A84B284EFF0AFC89547631CF500228596
:103A0000EFF04FEE9149FD14F9552285EFF01FE2DA
:103A100001E501456FD0DFB1F9552285EFF02FC6E2
:103A2000631E35057D56CA852285EFF04FCC19C53A
:103A30002285F955EFF08FB70545E9BF2686CA857F
:103A40002285453705CD7D56F9552285EFF0CFB853
:103A5000F9552285EFF08FB5B7A50100938545365E
:103A60002285EFF0EFEE0546F9552285EFF0CFB64F
:103A700022858D45EFF01FDE054569BFF95522858A
:103A8000EFF0CFB251B7EFD27FA741112A842EC6F3
:103A9000EFF0EFB03246B7A501002A899385851A69
:103AA0002285EF10707737A60100B7C5F0FF130627
:103AB000860D9385859D2285EFF0AFFD9309190052
:103AC0000946CE852285313F39C90146FD552285FB
:103AD000EFF04FCFB7A501000D469385050EAA84E0
:103AE000EF30B12D19ED938534002285EFF04FE6CC
:103AF000F95522857D56EFF02FAEF9552285EFF06E
:103B0000EFAA4E86FD552285EFF0CFB0F555228500
:103B1000EFF0CFA98544268541016FD07FA1AA840B
:103B2000CA852285EFF08FA8FDB7EFD2DF9E9C41BA
:103B30002E84B2846359F0001CC223A00500130533
:103B400084006FD09F9FD4410145DE2693F7070282
:103B5000EDFB13060040854513058400EF2001228C
:103B600088C0F1BFEFD23F9B83A7C1810146FD55BD
:103B7000C447EFF02FC5B7A501002A869385450AF3
:103B80002685EF20C10F83A7C181C847EF1071665A
:103B900001456FD09F9AEFD21F984111AE8489EAF8
:103BA0002E85EF8000670144228541016FD0FF9888
:103BB000368532C636C4EF8000552A8475D5EDD4DB
:103BC000A24632466373D600B2863686A685228523
:103BD000EF2031042685EF80C063F9B7EFD21F9242
:103BE000B7A401002A842E89232005009384C410E1
:103BF000FD594840EF20216163053503850483C7E3
:103C0000F4FF6310F5021C401387170018C0A29739
:103C100088A783870400F1FF484023200400EF2099
:103C2000815E2320A9001307300281476311E5025A
:103C3000FD59A9444840EF20015D63043501E31BB1
:103C400095FE4840EF20215C2320A90085473E8552
:103C50006FD01F8EEFD23F8C328937A6010013063A
:103C600006112A84AE84EFC0E15B91476317F50229
:103C70000146FD552285EFF0EFB4B7A50100AA86F5
:103C80004A86938585402285EFF08FD22A86A685C5
:103C90002285EFC011246FD05F8AA6852285EFF0C0
:103CA0000F9E8947630BF500A6852285EFF02F9DB7
:103CB000AA852285EFF04F9EC9B737A501001305ED
:103CC000853F65BFEFD29F8341112E8A6C003289F8
:103CD000AA89EFF07FBEAA84D2854E85EFF0EFB8B7
:103CE00050410C412A843245CA868294AA8411ED3F
:103CF000630D0900D28501464E85E937B7A501005D
:103D00009385450E4E85EFC0617104C023222401C6
:103D1000268541016FD0DF81EFD2EFFF0146854557
:103D2000553701456FD07F81EFD2EFFE85452A845C
:103D3000EFC07142014685452285EFC0E17D054512
:103D40006FD0AFFFEFD22FFDEFF06F857D156FD0F5
:103D5000CFFEEFD24FFC85452A84EFF04F92FD57FE
:103D6000AA84631AF50037A60100130606288545C4
:103D70002285EFC01116A6852285EFF0EF91AA8566
:103D80002285EFF0EFBC05456FD02FFBEFD2AFF8E7
:103D9000AA84EFF0CF802A8485452685EFF02F8E08
:103DA00091476315F502014685452685EFF08FA101
:103DB0000307050093073002631AF7002685930571
:103DC000F4FFEFF0CFB305456FD02FF7854526857B
:103DD000EFC0F1323309A400634605002289635322
:103DE00085002A89634A200137A601001306465B35
:103DF00085452685EFC0F10D33052441F1B7EFD29B
:103E00000FEF41118945AA84EFF06F876347A00443
:103E100085452685EFC0313485452685EFF02F8610
:103E20008D47631AF50085452685EFE03FF8054587
:103E300041016FD04FEF854570002685EFF08F98D8
:103E4000AA8501C92685EFF0EF8DB2478507E3000B
:103E5000F5FE2685EFF00FA9D9BF89452685EFC06D
:103E6000112A2A8C114685452685EFC0311770002E
:103E700085452685EFF00F951307ECFF9307200289
:103E80002A8A63FAE70037A601001306066189450E
:103E90002685EFC01104B7AA010093854A625285B6
:103EA000EF30A1763304AA00830704001307D00281
:103EB0006397E7020504854BEF20213C1C208149D4
:103EC000894C3E951C319D8B95E381450145B24758
:103ED0003E9AE31045F92685EFF06FA289BF1307DC
:103EE000B002814BE39AE7FC0504F9B7EF20E13813
:103EF0008307040013F9F70F130B19005A951821C3
:103F0000938707FD118B09EFEF2021375A95182170
:103F1000CA870D8B63149701930709FE938797FC5B
:103F2000E3D587FBB3053C030504B389B700EF2055
:103F3000C1341C203E951C319D8BCDFB93854A627C
:103F40002285EF30816C2295CE85E3820BF8B30594
:103F50003041B5BFEFD22FDC154685452A84EFC02E
:103F6000F10722858945EFC0111F22858D45EFC0DD
:103F7000911E22858D45EFE07FE322858545EFF098
:103F80004FD505456FD06FDBEFD2EFD8154685458D
:103F90002A84EFC0B10422858945EFC0D11B228558
:103FA0008945EFE0BFE085452285EFF08FB60545F6
:103FB0006FD0AFD8EFD22FD685452A84EFE03FEC03
:103FC0007115854763FAA70037A6010013068659C5
:103FD00085452285EFC0E16F85452285EFF0AF84EE
:103FE000AA852285EFF0AF9105456FD00FD5EFD2AE
:103FF0008FD285452A84EFC0111622858945EFC0EE
:104000009115094685452285EFE07FEEAA85228538
:10401000EFF0CFA405456FD04FD2EFD22FCE411194
:104020002A84EFE0DFD7B7A501002A8A9385C5551A
:104030002285EFF0CFA38544B7AA010063549A020A
:1040400083A7C18137A5010005469447854513051F
:10405000450DEF20211A83A7C1818847EF10711900
:10406000014535A8FD552285EFE09FDFA685228515
:10407000EFE01FDF01478146054685452285EFF0C9
:104080006FD77000FD552285EFE0DFF3AA8919E9AB
:10409000B7A50100938585562285EFC021384101DF
:1040A0006FD00FC9854763DB970083A7C1810546A1
:1040B0008545944713854A59EF20C11383A7C181D1
:1040C0003246854594474E858504EF20A112F95567
:1040D0002285EFE0BFCD9DB7EFD2EFC385452A849F
:1040E000EFC07107B7450000014622859385851B07
:1040F000EFF0AF8F22858545EFE09FD62285814581
:10410000EFE0FFFF0D456FD04FC3EFD2CFC0154694
:1041100085452A84EFC0816C89452285EFE01FC95F
:1041200085452285EFF08FF019E52285EFE09FFBB2
:1041300005456FD08FC00945EDBFEFD2CFBDB2842A
:1041400037A601001306464E89452A84EFC0D108E0
:1041500085452285EFE0DFD08145228501478146F4
:104160000546EFF02FC9FD552285EFE05FD111E93B
:104170002285F955EFE09FC3014523A004006FD0CD
:10418000CFBBFD552285EFE05FD501E9B7A5010062
:10419000938505502285EFC0612815462285FD557F
:1041A000EFE05FC72285F955EFE05FC026869545B1
:1041B0002285EFE03FE1E1B7EFD2EFB5411189454C
:1041C0002A84EFC0C17313061500B285228532C65A
:1041D000EFE0FFF2324685452285EFF06F8D3335F3
:1041E000A000050541016FD04FB5EFD2CFB2054613
:1041F00089452A84EFC0A1788545AA842285EFE00D
:10420000FFBA85452285EFE09FC791476310F5020D
:10421000635E9000A6852285EFC0411B85452285FF
:10422000EFE01FC489452285EFF0CFE22285EFF051
:104230006FDF6FD08FB0EFD20FAEE96637A6010007
:104240009386C6621306065485452A84EFC0417CD6
:10425000E9670A0593870765AA9703A9070001463E
:1042600089452285EFC0A1712A86CA852285EFF093
:104270006FCE9547AA84630DF902A547630AF90238
:104280008D47631CF902014691452285EFF08FCCE2
:10429000B7A70100537505D0D3F704D007A7C753BC
:1042A00022854375E578EFE0BFE405456FD0EFA8C0
:1042B000A6852285EFE09FFACDBFAA852285EFE093
:1042C0001FE4E5B7EFD22FA58547411163FEB70084
:1042D00081452A84EFE09FF82285F955EFE05FB829
:1042E000094541016FD06FA532C6EFE05FAB3246A2
:1042F000118DC5BFEFD22FA22A84EFE05FAA194625
:10430000AA8489452285EFC0614D22858545EFE06D
:10431000FFF422858545EFE0BFB4228509468D452F
:10432000EFE09FABB74700009387472C09478946CA
:104330009385E4FF7D562285EFF02FB0AA850946CC
:104340002285EFF03FF86FD04F9FEFD2CF9C85458D
:104350002A84EFC0416022858545EFE03FF00546A5
:1043600085452285EFE05FA72285EFE05FA3B74791
:1043700000009387472C014781469305E5FF7D5652
:104380002285EFF08FABAA8501462285EFF09FF3DF
:104390006FD0AF9AEFD22F9889452A84EFE03FAED5
:1043A000AA84154685452285EFC0414381CC9547B7
:1043B000638AF40037A601001306865C89452285CE
:1043C000EFC0213137A601001306065E8545228520
:1043D000EFB0516511C9B7A501009385C55E22856F
:1043E000EFC0C1036FD06F9589452285EFE01F9C18
:1043F00085452285EFF06F980545EDB7EFD2AF9177
:104400002A849DE101E605456FD02F93B285EFE048
:104410003FA50546F9552285EFF0EFCD6DF5F9552D
:104420002285EFE0BF98C5B7EFE0DFCB22850546D8
:10443000F955EFE07F9A0945C1BFEFD22F8C0111EA
:10444000700885452A84EFE0FFB737A60100814652
:10445000130686548D45AA842285EFC06145AA893A
:1044600091452285EFE0BFA1FD5701496303F500A7
:10447000114981468DC4268689452285EFC0414376
:104480007246AA864E87A6852285EFC07116AA8538
:104490004A862285EFF09FF605616FD06F8937A6B7
:1044A00001001306C65489452285EFC061402AC623
:1044B000194622858545EFC0613222859545EFE09A
:1044C000FF8EB246B74500004E8701469385A5137F
:1044D0002285EFF0EFA065BFEFD2EF834111814657
:1044E000014685452A84EFC0A13C014681468945A5
:1044F0002A892285EFC0C13B2AC68D452285EFE07F
:104500001F98FD57324681446303F5008D44CA85E8
:104510002285EFC0216FAA8526862285EFF01FEE47
:1045200041016FD08F81EFC21FFF85452A84EFC004
:10453000814285452285EFE07FE819E52285EFE09D
:104540007FBA05456FC07FFF37A601001306065EE0
:1045500085452285EFB0114DEDB7EFC2DFFB014677
:10456000814685452A84EFC0A134AA8485452285E9
:10457000EFE0DF830146A6852285EFC0A16811C563
:104580002285EFF02FAA6FC05FFB374700001307AB
:1045900047D481467D5681452285EFF0AF8522853F
:1045A000EFE0EFFF7D15C5B7EFC2FFF685452A8422
:1045B000EFE05F9F11C52285EFE06FFE6FC0FFF750
:1045C00022858545EFC021397D5622858545EFE05E
:1045D000BF802285F955EFE06FFDB7A501009385F7
:1045E00085522285EFE0DFB622858545EFE00FFC9E
:1045F0002285EFF09FBFD9B7EFC2FFF185452A842E
:10460000EFC0613537A60100130646558545228562
:10461000EFB051411DE1B745000001469385A5105B
:104620002285EFE09FBC22858545EFE07F832285D0
:10463000EFE05FAB0D456FC05FF022858545EFE091
:104640003F82014781460D4685452285EFE09FFA6E
:10465000D5B7EFC2BFEA1C4532892E8683AA07026E
:10466000CC570041AA895685EF70E06E5841CD477E
:104670002A8B6300F70883A4C901032A0401CD47EC
:1046800023209B002322FB0063C444034C54B7B790
:104690000100370700047D1793878787A14613061B
:1046A00004015685EF40802F184848D4634BEA0632
:1046B0005C5413973400BA970327090098C3032763
:1046C0004900D8C383A7C901850723AEF900832712
:1046D000490093F70704B9C35C30918BA1C303264B
:1046E00009005C328D8B9DCBA2855685EF20306210
:1046F00035A0044183A7C901E3DFF4F65C54939528
:10470000340003274900BE95DC41B98F93F7F703C6
:10471000BDF34A860145EF80C06D31DD26856FC04F
:104720003FE1050A93173A00AA9723AE07FEBDBFE3
:1047300018455C456319F70218419547630FF70068
:10474000994681476319D700854791C55C419CC153
:10475000CD47DCC185473E8582808547EDDD5C61C4
:104760008D479CE1FDB78147FDB71C591397250084
:10477000BA9788438177850739813E95FD57630451
:10478000F50085052E9582800859939725003E9562
:10479000635FB0008327C5FF6D671307872293F718
:1047A000F703BA978387070063D3070071158280E8
:1047B000EFC27FD60841411132C6EFF0FFFC18412D
:1047C000930730029376F7036393F6043246930619
:1047D000F00F935777016303D6026381C702916795
:1047E000938707FC1A067D8EF1779387F7037D8FF9
:1047F000598E10C1054541016FC03FD437C67F00B7
:104800009A07718FD98F93E727021CC1E5B701453D
:10481000DDB7EFC25FD0AA842E847D5963142401D2
:104820006FC0BFD1A2851306F00F2685EFF05FF8A9
:104830008840A285EFF07FF32A84CDB7EFC21FCC6A
:10484000AA892E847D59130A30026315240101457B
:104850006FC01FCE83A40900A2852685EFF0DFF28A
:104860001C4193F7F70363984701A2852685EFF073
:10487000DFEF2A84D9BF0545E1BF93F7051091EB1F
:104880008347A50263C7F5008347C502FD172306CA
:10489000F502828098419D476319F700EFC2BFC7B8
:1048A000CC41EFF09FFD6FC05FC98280EFC2BFC6F1
:1048B00098419D472A84FD546313F700C441184270
:1048C0009D477D596314F70003294600635C9900F6
:1048D000A6852285EFF07FFACA852285EFF0FFF9E1
:1048E0006FC0BFC5CA852285EFF03FF9A685F5B731
:1048F000EFC27FC20841EFF03FE91841F17793879B
:10490000F703B376F7009357670093F7F70F93B762
:1049100017009A07D58F1CC16FC03FC218419397EB
:1049200025008505185B0D8E9356F6413E97B3C75B
:10493000C600958FB706020063CBD700EFC2BFBD9C
:104940000845B7B5010093854589EF30A0641C4345
:10495000FD163696CA07C9833A065D8E10C382805B
:10496000EFC2DFB9AA842E84B289368ABA8A7D5909
:10497000631424016FC0DFBB8840A285EFF0FFDE27
:1049800052862A8BA2852685EFF09FE24E8611E1A2
:104990005686A2852685EFF07FF85A84D1BFEFC2F4
:1049A0009FB718492E890C4D04413A869306F00FA3
:1049B0002A84EFF0FFFAFD571CCC1848DC4863430B
:1049C000F70208448C58B7B7010008513707008038
:1049D0009387078E1347F7FF914613864401EF3004
:1049E000F07B88D818489C580A07BA9723A027015B
:1049F00018489C4C6343F70208448C5CB7B701002D
:104A00000851370700809387078E1347F7FF9146B9
:104A100013868401EF30907888DC1C441848944752
:104A20009C5C0A07BA9794C30848930715001CC8F2
:104A30006FC0BFB0EFC23FAE79712A89AE843285B4
:104A40002C0836C63284EFF0BFCEB24609E50145E8
:104A500045616FC09FAE0C103685EFF07FCD65D9F4
:104A60001387D4FFA94763EBE7028547B397E700B5
:104A700013F7D70031EF93F7075F8DC37247CD4728
:104A80006311F704E2473ED41257CD476308F7009D
:104A900001462C100810EF70706B55D98327090060
:104AA0003810141088533008A685EF402010325774
:104AB000CD476313F70499471CC0A2575CC0054556
:104AC00041BF01462C102808EF70506849D16DBFD6
:104AD00092564D478257639CE600D3F707D05307A1
:104AE00000F0D327F7A093B71700B5D345BFD3077E
:104AF00000F0538707F0F5B7A277D3A7F7A0A1DBA3
:104B0000530700F0D3A7E7A0B9F395471CC05CE0BA
:104B10007DB7FD57630FF602EFC25F9E84414111DE
:104B20006396F40090C141016FC09FA083290500E6
:104B30002A847D59A6854E8532C6EFF01FC33246C2
:104B400063172501A6852285EFF05FDDE9BFAA8402
:104B5000D5B78280EFC23F9C104DFD57B785FF7FD0
:104B600001111CCDF9052A8432C6EFF05FE332460D
:104B70002ACE6C082285EFF0DFF9724505616FC01F
:104B8000DF9B1C495CC93E858280EFC2DF981849D3
:104B90002E869305850158C9EFF0BFF76FC0FF99C6
:104BA000EFC27F971C496396C700EFF01FFE6FC0EE
:104BB000DF9832879306F00FEFF09FDACDBFEFC298
:104BC000FF931304160011661A04130606FCF17411
:104BD000AA89718C7D599384F403639425016FC075
:104BE0003F9503A509009397250018593E971C434C
:104BF000E58FC18F1CC3EFF05FB7AA85F9BFEFC285
:104C00009F913A07D98DDE06D58D1A06D18DEFF02A
:104C10001FD96FC09F921C4958496350F70818412B
:104C20008A07F117032E07033E9E83280E00914743
:104C300013F7F8036313F70613D868001378F80F17
:104C400013D378013387C500429363C805019307E6
:104C5000130063D0B70463920505634007059166AE
:104C6000938606FC93976500F58FF1769386F6039D
:104C7000B3F8D800B3E71701A6071306F7FFA5831B
:104C8000635366001A860D8E5E06D18F2320FE00C8
:104C90008280E356B8FCC285D9B7EFC2DF8793069E
:104CA000F6FF01472E869145EFF07FF56FC0FF8834
:104CB000EFC27F869306160001472E869305600299
:104CC000EFF0FFF36FC07F87EFC2FF84BA06D58D88
:104CD0001A06D18DEFF0BFCC6FC03F86EFC2BF8305
:104CE000B70704003284635BF600B2862E868545E2
:104CF000EFF09FFDAA8426856FC03F842E868146F3
:104D000089452A89EFF05FFC93156400AA8493E536
:104D1000E5024A85EFF0BFC8F9BF8347C502BE95DB
:104D20001C4198276350B7021307E00F635BB7007D
:104D3000EFC26FFE0845B7B501009385058BEF30D4
:104D400060258CA78280EFC20FFDAA842E84EFF02D
:104D5000DFFC83C7C4023E94238684026FC0EFFD4C
:104D6000EFC26FFBDC21411130002EC493E7070432
:104D7000B2853EC6EFF0FF8D41016FC00FFCEFC260
:104D80008FF9411189472EC03EC22EC4CD47300055
:104D90008A853EC6EFF0FF8B41016FC00FFA984144
:104DA000B5466315D7021441DC4105063A06139750
:104DB00027009C5AB74680FFFD16BA9737C77F0079
:104DC000798E9843758F598E90C38280B94663114E
:104DD000D704EFC24FF4D841032805000506931706
:104DE0002700032708035E0685453E971C43A60758
:104DF000A5835D8E10C38346C502F1779387F703C1
:104E00009A067D8E558E10C3EFF0FFF36FC0EFF260
:104E100082809C413547639FE7009D479CC11C41B0
:104E2000D8419C5B0A07BA979C43998393F7F70F85
:104E3000DCC1828039476391E7021441D84193175E
:104E40002700985AB70600013E971C43A607A58382
:104E5000D58F1CC3B1479CC182809C411947E11783
:104E60006363F706EFC22FEB69678A0713070779B9
:104E7000BA979C432E84AA8482879D471CC06FC02A
:104E8000CFEBCC41DE0593E55500EFF05FB148C0B4
:104E9000B147EDB783954500EFF03F9E7830A147CD
:104EA00099456317F7006C202685EFF01F9D9D45FF
:104EB00003174400742001462685EFF05FD4C1BF7C
:104EC000EFF03FF56DBF8280EFC2EFE441112E8914
:104ED000AA843284EFF07FF8832609002D47938758
:104EE000F6FF6363F70269678A071307C77ABA9701
:104EF0009C4382870546A2852685EFF0DFD19D473A
:104F0000232289002320F90041016FC00FE3F91625
:104F1000014793B6160022868D452685EFF03FCED9
:104F2000F9BF03264900A2852685EFF03FDBC1BF0C
:104F30008727490030008D47B28526853EE43EC66E
:104F4000EFF02FF12A86C5B7832549002685EFF0BB
:104F50001FE3CDBF9840832649001166130606FC67
:104F600093972600145B71771307F703BE969C4254
:104F70007D8F93176400F18FD98F9CC249B7832628
:104F80004900E38E86F601472286814579B7EFC254
:104F9000EFD6AE842A843289EFF01FF39840AD47F4
:104FA0006318F700D040938584002285EFF07FB628
:104FB0008C4483A9C400638E35072285EFF01F88D7
:104FC00011E5CE852285EFF07F872DCD9840AD4746
:104FD000FD596306F7002285EFF0DFB7AA891C4868
:104FE000054781465CC84A868D452285EFF03FC162
:104FF0001C488D45AA8A5CC8014785464A86228599
:10500000EFF0FFBF2A8ACE852285EFF01FB88329F3
:105010000401CC445687CA864E862285232A340151
:10502000EFF01F948C445287CA864E862285EFF09B
:105030003F93FD579CC4DCC49D4723A224019CC020
:105040006FC00FCF7D5AFD5AD9B7EFC2CFCC9C416C
:1050500031472A84AE843289639DE7021C41D441E2
:105060009C5B8A06B6979043ED471377F60363156A
:10507000F7021C49134719008146FD171CC95D82C0
:1050800093052002EFF0BFB72285EFF0BFAC6FC0F1
:10509000CFCA1D47638DE70085452285EFF0BFCA63
:1050A0000346C402A68522857D16EFF0FFE1A685A2
:1050B0002285EFF02FFE4A87D4401306F00F9305A8
:1050C00030022285C1B7EFC20FC52A84AE84EFF04B
:1050D000DFD8A6852285EFF0EFFB22858545EFF02E
:1050E0009FC60346C402A68522857D16EFF03FEADF
:1050F0006FC0AFC4EFC22FC22E84AA84EFF0FFD5D9
:1051000018409D476313F70218445C445040630BFA
:10511000F70083C7A402634AF600A2852685EFF054
:105120001FE7504032856FC04FC1A2852685EFF042
:105130009FF9C5BF9841A5476316F7009845DC4520
:105140006308F700EFC22FBDEFF0DFFA6FC0EFBECC
:105150008280EFC24FBC9845DC456306F700EFF054
:105160007FF96FC08FBDEFF05FCFE5BFEFC2AFBA81
:1051700041112E84AA84EFF0DFFD1C401547FD1776
:105180006364F70669678A071307C77DBA979C436C
:10519000828785473EC430003EC6B28529A802C436
:1051A0008547D5BF9C4402C63000DC578A853EC087
:1051B000930750043EC22685EFF0AFC929A04C40AA
:1051C0002685EFF0DFBB48C0484091471CC09307DD
:1051D000F00F63CBA7001365051041016FC0EFB559
:1051E0005C608D473EE445BFA2852685EFF09FF0C9
:1051F000EDB7EFC2AFB09C412547AA842E84328917
:105200006382E7022947638EE70221476396E7023C
:10521000B285EFF02FE85040CA852685EFF03FD7E2
:105220006FC00FB1B285EFF0FFEC544001472A8602
:10523000A5452685EFF0BF9CCA852685EFF08FE552
:10524000C5B7F831A147A9496303F700A149CA8549
:105250002685EFF0BFF12A87831644007020CE85A3
:10526000C9BFEFC24FAB41112A84AE843289EFF03F
:105270007FE8D440A685228536C6EFF0AFE18347AC
:10528000C40222858945DCC09D479CC0EFF0BFABBE
:10529000D040CA85228532C4EFF05FEDB246224687
:1052A0002A87B1452285EFF09F95CA852285EFF0C8
:1052B0006FDE41016FC06FA8EFC2EFA52E84AA84F4
:1052C000EFF0BFB91C4019476360F70211477D56E4
:1052D00063F4E70209476381E7020146A285268558
:1052E000EFF0BFD62A8609A82D47E398E7FE4C4089
:1052F0002685EFF0EFDF50409305C4002685EFF0E0
:105300005F810C442685EFF05F88FD571CC46FC099
:10531000CFA2EFC24FA02E84AA84EFF01FB41C408E
:105320000D477D566388E7002D476382E7020547F6
:105330006391E702930584002685EFF08FFD4C44CE
:105340002685EFF09F84FD575CC46FC00F9F5040CF
:10535000D5B70546A2852685EFF03FCF2A86D9BF6F
:10536000EFC26F9BDC412E84FCA1B285EFF01FE001
:1053700014404AA02547A1476393E600A5477CB0A7
:10538000A9471CC06FC06F9BEFC2EF98B147411196
:105390006386F50263E8F502CD476387F500D147E0
:1053A000638AF500B2850DA8B285EFF0FFF04101E8
:1053B0006FC0AF98B285EFF0DFF5D5BFB285EFF0E3
:1053C0009FD0F5B72A848145328532C6EFF04FB6BB
:1053D000324671FDB2852285EFF05FD9C9BF1C4905
:1053E0001441139727009C5EBA9723AEB7FE8280C4
:1053F000EFC2CF9089474111AA843284638DF504AE
:105400002E89B68963E8F5008D47638DF50041016B
:105410006FC00F92ED6693864688B1052105EFF0C7
:105420006FE175F5A2852685EFF0DFCC2AC6A2854F
:105430002685EFF02FC6B246930599010147014634
:105440002685EFF0CFFBB14748C01CC0CE8526852E
:10545000EFF0FFF86DBFB285EFF03FA014402D478D
:105460009387F6FF6362F70269678A071307477F2E
:10547000BA979C43828789471CC039A08D47EDBFEE
:105480004C402685EFF0CFC60C445C4426854CC4C6
:105490001CC4EFF00FB80C442685EFF08FB785BF22
:1054A0009D47638DF60085452685EFF0DF8903C6AD
:1054B000C402A28526857D16EFF01FA1A285268550
:1054C000EFF04FBD4C402685DE0593E5B501EFF0CA
:1054D0000FCD48C0B1474DB7EFC24F824111AE89E1
:1054E000B685B2842A843A8936C6EFF03FC82AC40A
:1054F000A6852285EFF09FC732462AC2A68522855F
:10550000EFF0CFBA224792460146CE852285EFF0D2
:105510000FEFB147C8C09CC0CA852285EFF03FECB1
:1055200041016FC0EF80D14763EFB712EFB21FFDAB
:105530003A8A6D679397250013074782BA979C4371
:1055400041113689B284AE892A848287B685EFF00C
:10555000DF90D0449305C9002285EFF08FDB4146F0
:10556000CA852685EF00F16A41016FB07FFCB685E0
:10557000EFF0BF8E904493058900F9BFB685EFF038
:105580005FBD83290900B1476396F9041C400327D6
:1055900049009C5B0A07BA979C43754793F7F7034A
:1055A000639AE702A6852285EFF0CFAE1440032769
:1055B000490093172700985AD4403E971C43DE06B3
:1055C000A607A583D58F1CC38327490023A03401D8
:1055D000DCC059BFCA852285EFF0FFAE5287CA866C
:1055E0002686F5452285EFF03FEFBDBF2105EFF0A0
:1055F0006FC43DF95287CA8626869385D900DDB7E8
:105600001842914754426314F70093E60610CA8586
:10561000228536C6EFF09FB52A8A4A86A68522855E
:10562000EFF0CFA8C147B246638CF90063E5F900FB
:10563000C94763F43703528705469385290121A0A2
:1056400052870146FD452285EFF06FDB2285EFF0A2
:105650006FD0AD47C8C09CC001BF36870546D28613
:105660009385F900CDB78280EFB2FFEA1304F6FF0D
:10567000130620033344C402FD572A89AE8405046F
:105680006393F60081469307F01F63CE870022875D
:1056900026869305B0024A85EFF06FD6850423066F
:1056A00099026FB09FE9014726869305B0024A85AB
:1056B000EFF0EFD49315640093E5E5024A85EFF02F
:1056C0000FAEE9BFEFB23FE52A84EFD04FEDAA85D8
:1056D000814601462285EF10E0256FB01FE61C4190
:1056E00048499C43DC479C5B1D8D09857D15828064
:1056F000EFB27FE21C419C43DC47805F01C8EFF0C2
:105700001FFE0A052A9408406FB03FE37D55EDBFA8
:1057100018258547631AF7005C4910519843D44F08
:10572000118FB29694C3D8CF8280EFB23FDD6D6AFD
:10573000817A6D6B4111AA84AE893289130A8A225B
:10574000850A130B4BA04E8693051900268536C695
:10575000EF10A051B24688C26310051A0148814873
:105760007D5413035002130E9002930E4002114F0A
:10577000F94F428763443803FD576305F40A9C5888
:105780001317240031463E970C4313F7F503636B60
:10579000E608131627005A96104202869C581316E4
:1057A00028000508B2979C4313D6670093F5F703CA
:1057B0001376F60F6360B30263F0D5056383E503E8
:1057C000638FF503D2959C2193F70704DDD3E31291
:1057D000C9FA31A8E398C5FF93071600E3DB27F960
:1057E00039A0E348C9F8DD83B297E3C427F97D54B3
:1057F000E34117F93A84B5BFE34DC9F6CDBFB9838C
:10580000D697C297E357F7F6E3C5F9F6E3D3F8F670
:10581000BE8885B713D97501998193F5F50FA289D3
:10582000E343B9F241016FB0BFD093D9E5009D4782
:1058300093F9F91FDD81631DF70222868505268510
:1058400036C6EF108042B2462A894E86A28526854A
:1058500075286308090AB7B50100938545AF4A85E5
:10586000EFB0BFE559ED37B501001305C5AE5DBF1B
:10587000BC408E05BE9503A90500630409004109DB
:10588000E9B737A901001309090AC1B7BC40DD8196
:105890008E05BE959C4181CBC10737B501009CC2E6
:1058A000130585AD41B7B7A701009387070AF5B780
:1058B0000546B9816307C70005040A04A2978C4313
:1058C0009981DC548E051147BE95DC41BD8BE39B6D
:1058D000E7F49C4137B50100130505AEC1079CC232
:1058E00091B7B98113F6F51F2685A285052037B536
:1058F0000100130585BA3DB737B50100130585AC26
:1059000015B737B50100130505AD29BFEFB2BFC00C
:105910001378061036846306080258559377F6EF1D
:105920008E07BA97D84391463D8B6309D700B7A736
:1059300001009387070A1CC06FB03FC09C43C1079A
:10594000DDBFEFF09FDE65D5030705009307300646
:10595000E31FF7FCD5B7EFB21FBC5849411102C68F
:105960003E33898B81EB37A50100130545024101C8
:105970006FB0BFBC1C432A8984438147F0209386C3
:10598000040163C7C702004B33848540E34D04FC28
:105990005C43E3FAF5FC3A85EFF07FD4AA85C8446E
:1059A000135634407400EFF05FD82A864DDD15A001
:1059B000884291060841639CA502D8448E0738436B
:1059C000BA979C4385C3C10737B601003EC613068C
:1059D00086ADB246B7B50100938545BD4A85EF3027
:1059E000805471B7B7A701009387070AF1BF8507F5
:1059F00049BF63C805005C491305450381C9639429
:105A0000A700814501A8FD159C47CDBF6384A70071
:105A10003CD285452E858280EFB2FFAC01112E89E4
:105A2000AA843284EFF0DFCE030709009307E00376
:105A30006311F70A83ADC4000509014DE11D23A6DA
:105A4000B40183A74D001947814CFD8B6394E70097
:105A500083AC0D00B7AB01006D6CB7B9010037BA6C
:105A600001004A8B854A938B4B02130C8CA39389BC
:105A700049BA130A8ABB83070B00ADE3930560069E
:105A80004A85EF10A17801CDDC4403A70D00A107E2
:105A900023ACE7FE03A74D0023AEE7FEDCC426855A
:105AA000EFF01FC79305C0044A85EF10217611CD92
:105AB00063880C0003C74C0093076002631AF72049
:105AC000DC4423A20700A107DCC4568505616FB042
:105AD0005FA5032D0406832D0D00A5B71307C0068F
:105AE0006384E70C6341F702130730056387E7041B
:105AF000130760066387E7001307C0046383E700AA
:105B0000814A050B8DBF130740076389E70E130712
:105B100050076387E70A1307E006E393E7FE630293
:105B20000D1283572D0213F707106DC7B7A7010099
:105B30009387073F5CC04E8511A263880C0003C7A2
:105B40004C00930760026317F702B7B70100938711
:105B500087BC1CC8FD571CCC5CCCB7B70100938731
:105B600007BD0C485CC41306C00313054402EF30A4
:105B7000A05841BF03A7CC003C4789CFC1071CC830
:105B80005C5318571CCC58CC99CBB7B701009387FE
:105B900007BAC1BFB7B701009387C7B9CDB7B7A7D9
:105BA00001009387470075BF7D5563090D0083573A
:105BB0002D02898B81C76A85EFF09FB348C891B7E2
:105BC000814763840C0083C76C002300F402638860
:105BD0000C0003C74C00930760026318F700854769
:105BE0002301F402A300040229BF83A7CC00F833E9
:105BF0002301E402FC23A300F40221B781476308D8
:105C00000D0083472D0293F70702E207E187A30106
:105C1000F402C5BD93F707028DE703258D003E31E1
:105C200013F7270019CF918B95C3B7A7010093876E
:105C3000070A37B501005CC0130505BB08C4E312B1
:105C400005EC232474012322040065BD1C419C4300
:105C500003A8C70042C6EFF09FA8324813172500DB
:105C60009306300283270803AA85BA979043937757
:105C7000F6031387A7FFE3E6E6FC0A0762971843DB
:105C8000028785479848F1078A07BA97DC47C1071A
:105C900055B51982930644001376F60F4285EFF04E
:105CA000DFA869BF23224401528549BFE517D9BF48
:105CB000C947C9BFCD47F9B79147E9B7D947D9B760
:105CC0009547C9B7D1477DBFD5476DBF81475DBFF8
:105CD00083A7CC002685014483A98703EF50D039E0
:105CE000DC44130750042A8988C3D8C3A107DCC445
:105CF00085473ECC3ECE83A7CC009C4FE357F4DCD7
:105D000093172400CE9790433408CA852685EF5018
:105D1000104E0504CDB7EFB21F805D712A842E8727
:105D20001DC6B285C1051306C003480836C63AC46D
:105D3000EF30803C2247B246B7B50100500893854A
:105D4000C5AF2285EF30201E61616FB00FFF930752
:105D5000F003FC82D5B7EFB20FFC784D2A841DC743
:105D60004C451C510546BA9703A785FF98C103A768
:105D7000C5FFD8C1984323ACE5FEDC4323AEF5FE56
:105D8000938785005CC5E115EF00D0278945228502
:105D900069245D7132DC36DEBAC0BEC2C2C4C6C67A
:105DA0001C4922D426D2DC4706D62A8444496356AD
:105DB000F0002EC6EF10F04CB2453018228532CEDE
:105DC000EF302018BE30898B91CF2AC62685EFF0A0
:105DD0003F929C40B245AA869C432285DC47B0474F
:105DE000EFF07FF32285EFF01FF7EFB2CFF2411112
:105DF0002A8432C6AE84EF60400E2AC4A68522856E
:105E0000EFF07FB5A2463246B7B501002A879385E9
:105E100005B82285EFF0FFF7EFB2EFEFDC41054761
:105E2000BD8BF5176363F700B28537B60100130623
:105E300086B0EFF09FFBEFB20FEED8418D47011116
:105E40002A892E84B2846319F7009C613EEE36865F
:105E5000A6854A85EFF07FF96C08228536C6EF608B
:105E6000B028B2466DF5A284DDB7EFB2CFEAD841D3
:105E7000CD474111AA842E8432896310F7029C41D8
:105E80003EC6CA852685EFF01FADB7B501002A864C
:105E9000938585B52685EFF0DFEF01466C002285FE
:105EA000EF60D02A79FD2289E9BFEFB2CFE6411138
:105EB0002A8432C6EF6060023246AA842285B28507
:105EC000EF60A001AA852AC62685EFB00FFFB24673
:105ED000268601E9B7B50100938545B12285EFF02B
:105EE0005FEBB7B50100938585B32285EFF07FEABC
:105EF000EFB2CFE03C55444903290507FD173CD5D7
:105F000085E39377890089CF7C5185493CD5BE30A4
:105F100013F7070419CB93F7F7FBBEB06FB04FE14F
:105F200093774900E5DF8149DDB72A84638509005D
:105F30007D568D45F12613794900630109049C4083
:105F4000C8487D569C43DC478C5B9C5F3307B5405B
:105F500009877D1789C793162700BE96904201CF07
:105F6000184C637AA700FD5689C70D8FBA9783A690
:105F7000C7FF6305D600894522855926DC481824C9
:105F800085461CCCE31CD7F86383090038D4F1178D
:105F9000DCC8BE308545228593E70704BEB05C446B
:105FA000E1179CC09D28EFB20FD79147AA84328495
:105FB000638CF50099476384F5025C4503A787FF6E
:105FC00018C283A7C7FF39A01C49BC5F1CC2DC23D1
:105FD00093E707045CC02104C0C46FB00FD6B7B507
:105FE00001005D46938585CDEF50604C08C05C2173
:105FF000C5B7EFB24FD240450E06AA84118C40C5FA
:10600000EF50E04E08C05C21094593E707045CC0EF
:10601000DC44A107DCC46FB04FD2EFB2CFCF1C5924
:1060200081CB23ACB712138587008545EFB06FE2B3
:1060300004492A840CA4BC58985B11CFD847930616
:106040008700D4C754453E8503A686FF10C383A6A8
:10605000C6FF54C3D937FC5489CF5045EFF0BFF485
:106060005C485844D44363F3E600D8C3FC5422850B
:106070008297EFF0207195CDEFB2EFC9AE86830520
:10608000060041112A84368532C636C4EF10011845
:10609000A246324601EDB7B50100938505BE2285C3
:1060A000EF2070688D452285EFF03FF741016FB01A
:1060B000CFC88280EFB28FC4AA84884141112E8458
:1060C0001C411387F7FF18C1A9C35C411387170050
:1060D00058C19C236D474C5803290400832984032D
:1060E0006399E70237B601001306C6C02685EFF0B4
:1060F0009FF84E86CA852685EF60405FAA85268573
:10610000EF00901C41016FB0AFC2EF80A03FAA87A3
:10611000D1B737B601002685130646C13EC6EFF05B
:106120009FF5B2474E879306040113064400CA85C3
:106130002685EF405048D9B7EFB2EFBD8357E5064B
:106140004D7118083EC21C592AC018D928082EC4FF
:1061500032C6232401143EC8EFB06FC909E5B24529
:106160000245A24782970247C247032581141CDBE0
:10617000BA8712472397E70671616FB00FBCEFB281
:10618000EFB713871500B7070020045183290506D0
:106190006364F700EF20407A139935002E8ACA868F
:1061A00013963900A6852A84EF20007A08D063C3AD
:1061B00049035C44130989FD2A99858FAA975CC419
:1061C0005C5023204407232E240181EF5C4885E3A3
:1061D0006FB00FB693973900AA9723A207008509DD
:1061E000F9B79843058F2A9798C39C47F9BFD843BE
:1061F000058F2A97D8C39843058F2A9798C3BA3337
:10620000098B09C7984B058F2A9798CB9C47C1B734
:10621000EFB26FB03851B7460F009386062463D5AE
:10622000E6009945EFF07FDF5C4510512A84918F9D
:106230008D87AE9793151700950763D3B600B68583
:1062400063D5F50237470F0093060724BE8563DE4A
:10625000F600930587302285EFF07FF2B7A50100A5
:106260009385452A2285EFF0DFB22285EFF03FF1DA
:106270006FB0AFACEFB22FAA40455C49AA84B9E732
:106280009C50B85026851D8CB7470F000D8493870E
:106290000724050463D2E704EF409053B7470F008B
:1062A0001387B72363428702A145B345B40293879E
:1062B0000724A295A90563D3B700BE85BC5063D55A
:1062C000F5002685EFF0BFEB6FB02FA7D8436373BF
:1062D000E4003A849C4765B7EF40306DC1B7EFB238
:1062E0008FA358455C4D2A84998F21476345F70059
:1062F0008545EFF0FFF15C44A1075CC46FB0EFA3EC
:10630000EFB2CF9F032A8505597163040A068347BC
:1063100045072A84B9CF444958451C5103A9440074
:106320002EC6B309F7403309F9405C4D32D0A6D6EA
:10633000998F1307000A6345F700D145EFF05FED31
:106340005C446C0022859387070ADCC0230A04069C
:10635000BE3093E74700BEB0029A8547230AF40691
:106360001C503E9923A22401CE975CC4BE30ED9B05
:10637000BEB065616FB0CF9BEFB24F9838594111F5
:10638000AA84937767002E840399050295C3098B2D
:1063900009CF83290502854536C6B30936417D56A6
:1063A000EFF01FF69050B2464E961C44DC4B9CCC4E
:1063B0001C440840DCC86301090285476307F900F3
:1063C000FD576317F90401471DA899E2138641821E
:1063D0001C421CC15C425CC193173900B306F50036
:1063E000D4C405451DA093173700B305F500B29737
:1063F00003A80700050723A00501DC43DCC1E34433
:10640000D7FE8E06AA96D4C4014541016FB04F92C3
:10641000814563DA260363CBD50263D30600814648
:10642000E3DC26FB139736002A9723220700850614
:10643000C5BF13973500B307E500329714438505B0
:1064400094C35843D8C3E3C625FF79B713973500E3
:10645000B307E500329703280700850523A007014D
:106460005843D8C34DBFEFB20F8B4049AA843E308A
:1064700013F7070109C7BD9B3EB05C487CCD0317ED
:106480000402FD576317F700DC4458406373F700BC
:106490005CC01C48104C26858297D0449317350069
:1064A000AA861D8EA2852685EFF01FED6FB0EF88BE
:1064B000EFB26F862A8481C58C41EFF0DFFA930436
:1064C00044035C48639497006FB02F87BE33898B79
:1064D00091E785452285EFF01FF9E5B72285EF604A
:1064E000B04E2285EF60D060E9BFEFB24F802A84C2
:1064F000AE84B289D94A130B6002194AA14BD44029
:106500000329C400584C93F6F603330727416387E9
:10651000561963836611639B461B9C40330999405F
:106520001359394083AAC7000D87930BF9FF03CB9A
:106530008A006341EB021C509D8C1C48DC4763556C
:10654000F0002285EF10E053DA852285EFF05FCC72
:106550001C50BE9483C77A0003C66A006383071683
:10656000E157B307F902032AC4000145D297AA866E
:106570006351C5024C44A10713878500634375131B
:10658000BA8723AE07FE85063E87A107E3CBC6FE8A
:1065900058C45C4803A9C700631609002285EF4070
:1065A000D0202A89232A24010E0B2328490183A7FE
:1065B0000A035A9A285823103903232099002322CA
:1065C0004901232644010947232AF9002311E9023E
:1065D000058979C1032789009107232AF9003E33F1
:1065E0008145898B99CF5C4B1307500283A7C7FF66
:1065F00093F7F7036397E700930720022311F9024B
:10660000914522857D56EFF0BFCF83274901014593
:10661000F117232AF90049A09C4003AAC700930759
:10662000000A63C1E7021C509D8C1C48DC4763557F
:10663000F0002285EF10E044D1452285EFF05FBDE8
:106640001C50BE945C4803A9C7006316090022854C
:10665000EF40B0152A895C44232A24012310390312
:106660009387070A2322F9003C582320990023111D
:106670000902858B91C77D5681452285EFF05FC861
:106680002285029A504493173500AA861D8ECA852A
:106690002285EFF07FCE05456FA0FFE803AA040036
:1066A000BDBF58C49843050598C1D843D8C123A29B
:1066B000070075BD5C44850B1387870058C423A26F
:1066C0000700E3C9CBFE138A8400E1B563C1EB0286
:1066D0001C509D8C1C48DC476355F0002285EF1050
:1066E000403A85452285EFF0BFB21C50BE945D460E
:1066F000A6852285EF50E0795C41BD8B638A470116
:1067000037B60100130606C3A6852285EFF0EFED2C
:106710005844BA8763E9F4001C41210758C49CC05F
:106720005C41DCC0E9BB83A687FFE11794C7D44373
:10673000D4C7CDB7EFA23FDE94414C452A8493974E
:1067400036009D8D1C2599EB7D56E115EFF0FFD9A4
:1067500001E52285EF60D0396FA03FDE4449230474
:1067600005001C51D84CBA979CC0BE30898B81CB98
:10677000EF60103881452285EFF09FD3F1BF9C4830
:1067800089CB904C854582974C4493173500AA8657
:106790009D8D2E862285A685EFF01FBEE1BFEFA25C
:1067A0009FD7EFF09FD46FA05FD9EFA2DFD68357BA
:1067B000E5061307700C2A848507C207C1832317D7
:1067C000F5066373F7021307800C6398E700B7B50B
:1067D00001009385C5C1EFF0CFDB1307000E637591
:1067E000F7009945EFF07F832285EFF01FD001E598
:1067F0002285EF60F02F8357E406FD172317F40678
:106800006FA0BFD3EFA23FD18357C5062A84850767
:106810002316F506EFF07FF98357C406FD172316FC
:10682000F4066FA09FD1EFA27FCD1C25011132C6C7
:106830002A8499EF5849930745036303F702B7B5D4
:106840000100938585C3EFF0CFFA05616FA05FCE9D
:1068500005476387E700B7B50100938505C6E5B72F
:106860008359C406A9E585472317F406B7650000D8
:10687000231604067000938545732285EFF0DF8BA5
:10688000FD576308F5042ACE854A376A000072492D
:1068900063D32A054448A9E8504423042401CA8547
:1068A0002285EFF04FF05C485844D8C32DA083D721
:1068B000E5061307700C8507C207C1832317F4068A
:1068C000E376F7FAB7B5010032469385C5C1228554
:1068D0009DBF89473ECE8357E40623163407724591
:1068E000FD172317F40695B7BE30C18B99E3844496
:1068F0005DB7DC4C105022853E96B28532C4B12C77
:106900002246CA852285EFF00FEA83C7240222853A
:1069100044C8858B230AF40623160406EFF09F95DE
:10692000DC48700893050A4B7CCC2285EFF0DF80B1
:106930002ACEB1BFEFA23FBE0357C506AA8705C343
:106940001849385B6308A700B7B50100938505C8EF
:10695000EFF02FC4B7B501009385C5CAD5BF58491C
:10696000054588A703A8070208433305054148CF1A
:106970002A33098919ED14CB91C210CFE156850550
:10698000B385D502D4473E85B6950CC38545EFF057
:10699000CFE801456FA07FBAEFA25FB6411103298E
:1069A000C50578CD36C62A84832A4501034A4507A2
:1069B0008359C506EFF04FF8AA84B2460DC51050B2
:1069C00022853696B28532C6492A32462285A68568
:1069D000EFF06FDD2285232A5401230A4407231692
:1069E0003407EFF03F89232E2405268541016FA04F
:1069F0003FB4EFA25FB28357C506397136DC850715
:106A00002316F50654451C51784D2EC2B76500007B
:106A10009D8E32DE9385450B50002A8402CA02CE39
:106A200002D002D402D602DA02C402C8EFF0DFF6C6
:106A30004246A245AA8481462285EF10F070724634
:106A4000D2452AC481460606228502C8EF10D06FBF
:106A500022568255814612062285EF10F06E52565C
:106A6000B255814612062285EF10106E8357C40678
:106A70002685FD172316F40621616FA01FACEFA237
:106A80009FA9139635002E84410693056002EF00FE
:106A9000302F60A16FA07FAAEFA2FFA71396250059
:106AA0002E8441069945EF00B02D2326050060A1F4
:106AB0007D577D146314E4006FA03FA89317240052
:106AC000AA9723A80700F5B7EFA25FA3AA892E898A
:106AD000938405010144054A834769006344F40037
:106AE0006FA01FA5C146014681454E85EF10D065B8
:106AF00093078500232245011CC12326050088C079
:106B000005049104D1BFEFA21FA12A8413094502F5
:106B100048511DE9AE84C146014681452285EF10EA
