:040000006F10C03786
:100004000000000000000000D4070000D607000034
:10001400000000007A13000000000000000000004F
:100024007A1300007A1300000000000000000000B2
:10003400EAE70000000000000002000000000000E9
:100044007A1300007A1300007A1300007A13000078
:100054007A1300007A1300007A1300007A13000068
:100064007A1300007A1300007A130000A8DE00005F
:1000740046DF0000E4DF000082E0000020E1000031
:10008400BEE100005CE200007A13000082DB0000A5
:1000940032DC0000E0DC00008EDD00007A1300009A
:1000A4007A1300007A1300007A1300007A13000018
:1000B4007A130000A4E400007A1300007A1300000D
:1000C4007A1300007A1300007A1300007A130000F8
:1000D4007A1300007A1300007A1300007A130000E8
:1000E4007A1300007A1300007A1300007A130000D8
:1000F4007A1300007A1300007A1300007A130000C8
:10010400000000007A1300007A1300007A13000044
:100114007A1300007A1300007A1300007A130000A7
:100124007A1300007A1300007A1300007A13000097
:100134007A1300007A1300007A1300007A13000087
:100144007A1300007A1300007A1300007A13000077
:100154007A1300007A1300007A1300007A13000067
:100164007A1300007A1300007A1300007A13000057
:100174007A1300007A1300007A1300007A13000047
:100184007A1300007A1300007A1300007A13000037
:100194007A1300007A1300007A1300007A13000027
:1001A400000000000000000000000000000000004B
:0C01B4000000000000000000000000003F
:10020000130181F806C216C41AC61EC822CA26CC1B
:100210002ACE2ED032D236D43AD63ED842DA46DC76
:100220004ADECEC0D2C2D6C4DAC6DEC8E2CAE6CC46
:10023000EACEEED0F2D2F6D4FAD6FED8F3220030CF
:1002400096DA9702002083A2A20A23A02200F325B7
:1002500010342EC09305000273A0458003A1C18213
:10026000EFF0007E1703002003238308032103001F
:10027000824273901234D652739002309240A2425E
:100280003243C2435244E244724582551256A2564A
:100290003257C2575258E25872598649164AA64AEE
:1002A000364BC64B564CE64C764D865D165EA65ECA
:1002B000365FC65F13018107730020301300000012
:1002C00013000000130000001300000013000000E2
:1002D00013000000130000001300000013000000D2
:1002E00013000000130000001300000013000000C2
:1002F00013000000130000001300000013000000B2
:1003000083A2C182938202E073900234170100201D
:10031000032101FE024182403243C2435244E2447F
:10032000724582551256A2563257C2575258E25859
:1003300072598649164AA64A364BC64B564CE64C6D
:10034000764D865D165EA65E365FC65FD652A1020A
:1003500073900230A24213018107828013000000D3
:100360001300000013000000130000001300000041
:100370001300000013000000130000001300000031
:100380001300000013000000130000001300000021
:100390001300000013000000130000001300000011
:1003A0001300000013000000130000001300000001
:1003B00013000000130000001300000013000000F1
:1003C00013000000130000001300000013000000E1
:1003D00013000000130000001300000013000000D1
:1003E00013000000130000001300000013000000C1
:1003F00013000000130000001300000013000000B1
:10040000F322003093F272FF130380781203B3E2F9
:100410006200711523205500130585FA10C12115BE
:10042000232005009302000063870200711523203A
:100430000500FD12D5BF71150CC1828000000000BF
:1004400000000000000000000000000000000000AC
:10045000000000000000000000000000000000009C
:10046000000000000000000000000000000000008C
:10047000000000000000000000000000000000007C
:10048000000000000000000000000000000000006C
:10049000000000000000000000000000000000005C
:1004A000000000000000000000000000000000004C
:1004B000000000000000000000000000000000003C
:1004C000000000000000000000000000000000002C
:1004D000000000000000000000000000000000001C
:1004E000000000000000397101436EC619A0397187
:1004F00041536AC866CA62CC5ECE19A039710153F5
:100500005AD056D252D44ED64AD826DA22DC06DE4B
:1005100033016140828241114AC026C222C406C60C
:100520008282B24D4101024D924C224CB24B4101AC
:10053000024B924A224AB249410102499244224462
:10054000B240410182803D432A876373C30293779F
:10055000F700BDEFADE5937606FF3D8ABA960CC372
:100560004CC30CC74CC74107E36BD7FE11E2828036
:10057000B306C3408A069702000096966780A600DD
:100580002307B700A306B7002306B700A305B700EB
:100590002305B700A304B7002304B700A303B700E3
:1005A0002303B700A302B7002302B700A301B700DB
:1005B0002301B700A300B7002300B700828093F5A2
:1005C000F50F93968500D58D93960501D58D61B76E
:1005D000939627009702000096968682E78086FA17
:1005E0009680C1171D8F3E96E374C3F8A5B72320EC
:1005F000150040C104C52326250123283501232ADF
:100600004501232C5501232E650123207503232248
:100610008503232495032326A5032328B503232A32
:10062000250200FD24E12724250527283505272C50
:100630004505272055072724650727287507272CF8
:100640008507272095092724A5092728B5090145ED
:10065000828083200500404104450329C500832989
:100660000501032A4501832A8501032BC501832B3C
:100670000502032C4502832C8502032DC502832D20
:10068000050303214503007D24610729850487298B
:100690000505072A8505872A0506072B8506872B6A
:1006A0000507072C8507872C0508072D8508872D4A
:1006B000050913B515002E9582803367B500FD53EB
:1006C0000D8B79E7B7877F7F9387F7F710419441C8
:1006D000B372F6003363F600BE92B3E26200639534
:1006E000720C6318D6065041D441B372F6003363DE
:1006F000F600BE92B3E262006396720A631BD604F0
:1007000010459445B372F6003363F600BE92B3E22F
:100710006200639F7208631ED6025045D445B372CF
:10072000F6003363F600BE92B3E26200639872088B
:100730006311D60210499449B372F6003363F60090
:10074000BE92B3E26200639172085105D105E30FD6
:10075000D6F61317060193970601631CF70013578B
:10076000060193D706013305F7409375F50F91E91C
:1007700082804183C1833305F7409375F50F91E182
:1007800082801377F70F93F7F70F3305F7408280D6
:1007900010219421050585056313D60075FA3305EC
:1007A000D640828011059105E314D6FE0145828072
:1007B0002105A105E31ED6FC014582803105B10566
:1007C000E318D6FC014582804105C105E312D6FC41
:1007D0000145828001A037A501005D71130545998F
:1007E00082E686E48AE28EE012FE16FC1AFA1EF811
:1007F0002AF62EF432F236F03AEE3EEC42EA46E8C1
:1008000072E676E47AE27EE0EF60410E01A09D4759
:1008100063E9A704EFF23FD0E9679387479A0A0597
:100820003E951C4182873715014093050002130550
:100830000580EFD0903E11B389453715014013056F
:1008400005C0C5BF9145D5BFA145C5BFC145F5B7D9
:1008500093050002DDB793050004C5B793050008B2
:10086000E9BF0145828037050020130545288280B5
:10087000EFF27FCA0111A1475C84B707002093877C
:10088000C7273EC8B7070020938787283EC6B7070B
:100890000304D1073ECA8947230CF100B7170000B3
:1008A0009387E78028003ECEEFD00005056171B147
:1008B000B707002003C527298280EFF25FC34D3FB1
:1008C000EFD0E0021C4137040020E964232AF42819
:1008D000B70B0020130444299D49370A0020938454
:1008E000449C930A00F8130B0004370900200545C7
:1008F000EFF0A00EEFD080050840EFE0500165D981
:1009000008407D5693850B29EFE0005B138C0B2983
:1009100003470C0093860B2993073A2963E6E90401
:100920000A07269718430287054798A38C321306B7
:100930000008982393062929834729296399C5022A
:10094000D98F9CA26DB70947CDB71147F9BF214791
:10095000E9BF4147D9BF13070002C1BF2380670128
:10096000F1B723805701D9B723800700C1B71347D8
:10097000F7FFF98FF9B7EFF21FBA1145EFD0205109
:100980000545EFD0302D0545EFD0F02E8547E30C1F
:10099000F5FE371501408565130505C0EFD0902899
:1009A00069BEEFF25FB7EF40213AB7A7010003A697
:1009B000879E83A6C79E37A40100EF30610C0326F3
:1009C000049F8326449FEF202178EFF0F00A03264E
:1009D000049F8326449FEF30A10AEF400126420581
:1009E0004181A1BEB7070020938787293E95A30FB9
:1009F000B5FE82801307F003636AA700EFF2BFB170
:100A00004D37370700202318A72205BE9307F003B0
:100A1000370700202318F72282809307F00363EF43
:100A2000A702EFF25FAFB7A7010007A7879FD377B1
:100A300015D0B7A701009D45D3F7E71807A7C79FB3
:100A40000545D3F7E710539617C0050642064182C5
:100A5000EFD070330545EFD0903BC5B48280EFF204
:100A60009FAB370700208357472A9306F0031307ED
:100A7000472A8507C207C18363E1F60A1EA3B707A9
:100A8000002083580700370700209386072A035762
:100A900007232390060023810600B70600209386D3
:100AA000862988228C32B0229387072A63FCE802C9
:100AB000B70600209386C6293367B50003C8060031
:100AC000518F1347F7FF1377F70F3378070123810F
:100AD000070103C81600B42233780701758FA3807D
:100AE000070198A3370700200357272363FBE8007B
:100AF000B823598D9833A8A3D98D98238CB3598ED8
:100B000090A3371501408565130505C0EFD0D011BE
:100B10008D451145EFD000360DB42310070085B781
:100B2000EFF27F9F2D3F11BCEFF2FF9E2A84EF1062
:100B3000202385476318F5020146FD55AA842285C6
:100B4000EF10203F8145EFC07030530500F0631671
:100B50009500B7A7010007A507A02285EF106055F3
:100B60000545E1BA0145F5BFEFF2FF9A2A84EF107F
:100B7000201F01CD8547630DF5000145537505D054
:100B80002285EF10005305454DBAEFC0B00AFDB7FE
:100B9000014685452285EF10C039EFC0D00BF9BF63
:100BA000EFF2DF950111AA89EF10801B05C9854777
:100BB00001446312F5020D4685454E85EFF0917EA6
:100BC000014685454E85EF10C0362AC42800EFC087
:100BD000300B2A8409E92285056199BA2800EFC003
:100BE00050390144CDBF0087240001498504E354F6
:100BF00089FEFC204E85050953F517D0EF10604B98
:100C0000F5B7EFF2BF8F01112A84EF106015894705
:100C10006315F5041546FD552285EFF0B1780146C0
:100C2000F9552285EF10E0302AC42800EFC05005A6
:100C300085476315F504FD552285EF00225F2400EA
:100C400005499379F50F850463DD2901B7A70100F4
:100C500007A507A02285EF10C045054505616FF087
:100C60003F8DFC20228553F517D0EF1080444A8633
:100C7000F9552285EF1060790509F1B7530500F0A9
:100C80002285EF100043D1BFEFF2FF882A84EF10D6
:100C9000200D8947631BF500014685452285EF102D
:100CA00040291375F50FEFC0700601456FF0FF88FE
:100CB000EFF27F862A84EF10A00A89476310F502BD
:100CC000014685452285EF10C026014689452285CB
:100CD000EF10202642054181EFC0702E01456FF0D4
:100CE000DF85EFF25F832A84EF1080078547631961
:100CF000F5000146FD552285EF10A023EFC0103608
:100D000001456FF09F83370500201305C52A8280B7
:100D1000EFF27F801C4163DB0700860785831CC1DF
:100D200085471CC9EFC0F01F6FF03F8123280500E5
:100D3000D5BFEFF2AFFC0111AA890949EF104002BB
:100D40006351A9042A8A014689454E85EF10601E29
:100D50008545EFC0B00F9307EAFF64002308F10058
:100D60000144A68A330949418347010185040146AC
:100D7000634DF40085454E85EF10A01B2AC65685AD
:100D8000413F014505616FF0AFFAB30589004E851B
:100D9000EF10201AC8A00504C1BFEFF22FF6011111
:100DA0002A89EF00F07B7D151375F50F2308A1004C
:100DB000854763F2A70264000144A68983450101C7
:100DC00085040146634DB40085454A85EF106016E1
:100DD0002AC64E85353F014505616FF06FF5B305B5
:100DE000B4404A85EF10E014C8A00504C1BFEFF27B
:100DF0008FF201112A84EF00B0768D476315F5025A
:100E00008D452285EF10C0039547631EF50001460E
:100E100089452285EF10E0111375F50F2308A10015
:100E2000A14763F9A704014505616FF00FF113892C
:100E300014004A868D452285EF10A0430146FD55DA
:100E40002285EF10000F1C10BE94A388A4FEF95554
:100E50002285EF00D0719374F90F83470101E3E815
:100E6000F4FC014685452285EF10A00C2AC66800D7
:100E7000453555BF8144D5B7EFF2EFE6011137098B
:100E800000202328092A02CC230E010081441309E3
:100E9000092BB7090020B7AB01000545EFE0F0339F
:100EA000832709006386070E0547E398E7FE01459F
:100EB000EFD0606C1384892AAA852A8C0840930A93
:100EC0008101138B892AEF10A01F032A0400EFF081
:100ED0003F9EAA855285EF10A01E08400946814515
:100EE000370A0020EF40300F232AAA2A0144130AB0
:100EF0004A2B0D4D914D954C03250B009377F40F24
:100F00009345F4FF01463EC6EF10A00283C60A00D7
:100F100005041375F50F1377F40F638CA600B24721
:100F20002380AA006381A7256382B725AA853A8515
:100F3000553C850AE31294FD8504C204C1809307E1
:100F4000803E6396F4028346A101034691018345E6
:100F5000810137A501001305C5ABEF50310737A557
:100F60000100E2851305C5ACEF50510681440145EF
:100F7000EFD0405F03270A00854763ECE71E054575
:100F8000EFE0B02503250B00F955EF00505E31B7B7
:100F90001384892AEF00022708C0EF00D2490840D5
:100FA000B717000001469385A7D9EF10202008400D
:100FB000B7A70100938547A0EF1000410840B7177D
:100FC000000001469385E7DEEF10401E0840B7A7FA
:100FD00001009385C7A0EF10203F0840B71700001D
:100FE000938587B60146EF10601C0840B7A5010045
:100FF000938585A1EF10403D0840371A0000014657
:1010000093050ABAEF10801A0840B7A5010093852E
:1010100045A2EF10603B0840B715000001469385DC
:1010200025D3EF10A0180840B7A50100938505A3AC
:10103000EF1080390840014693050ABAEF100017F7
:101040000840B7A50100938505A4EF10E0370840DC
:10105000B71500000146938585B2EF1020150840B2
:10106000B7A50100938505A5EF1000360840B71518
:1010700000000146938525CEEF1040130840B7A528
:101080000100938505A6EF1020340840B715000035
:101090000146938525C0EF1060110840B7A50100F7
:1010A000938505A7EF1040320840B71500000146B0
:1010B000938505CBEF10800F0840B7A501009385FD
:1010C00005A8EF1060300840B71500000146938571
:1010D00085C8EF10A00D0840B7A501009385C5A8ED
:1010E000EF10802E084001468D45EF10C062931529
:1010F000A5001385CBA9EF50616D0840B70502002C
:1011000093850513EF00220D854519E908408145B7
:101110008147014781467D56EF10404EB335A00010
:1011200037A50100B7070020130585AA23AAB72A0F
:10113000EF50C169084001468D45EF10C05D931521
:10114000A5001385CBA9EF5061680145EFD0E033CE
:101150000840B7A50100938545ABEF10600D8547AA
:101160002320F9001DBBEFF05F8BE1B3EFF09F8808
:10117000C9B303250B000146FD55EF00D060AA85D9
:1011800037A501001305C5ADEF5041648947232001
:10119000F900CDBBEFF22FB8312AEFE0716671652F
:1011A00013050520EFF0C000B707002083A54723F3
:1011B00037A501001305C5AEEF504161EFF0213CAA
:1011C000EFF02132EFE0C04401A0B717024098438E
:1011D000B706FFF041111367170098C3D8433706CD
:1011E0000200758FD8C39843B706F7FEFD16758FBA
:1011F00098C39843B706FCFFFD16758F98C3D84374
:10120000B70601FFFD16758FD8C337079F0098C733
:1012100002C402C69843C166558F98C3B7160240F0
:1012200005679C42F18F3EC6A24785073EC4B24780
:1012300081E7A247E397E7FEB71702409C43139765
:10124000E7006357070685473EC632478547631F59
:10125000F704B7170240D843B706C1FFFD16D8C33D
:10126000D843D8C3D84313670740D8C3D843758F32
:10127000D8C3D843B7063D00558FD8C39843B706A7
:101280000001558F98C3984393166700E3DD06FE6F
:10129000D843B7160240719BD8C3D84313672700C1
:1012A000D8C32147DC42B18BE39EE7FE4101828037
:1012B00002C661BFB7160240DC421146B18B1387EC
:1012C00041806385C70021466388C702B7177A004B
:1012D000938707201CC3B7170240DC43918393F622
:1012E000F700B707002093870700B69794231C43A5
:1012F000B3D7D7001CC38280DC42D4424166C98385
:10130000BD8BF18E890745466393C700C94781EEBF
:10131000B746024083A60680C18A89CEB7167A00F6
:101320009386062021A8B7160240D4421396E60001
:10133000E35606FEB7163D0093860690B387D702A4
:1013400051BFB7270020938707A01CC1B717002003
:10135000938707549CC1930700081CC28280B7275B
:101360000020938787B01CC1B717002093870774AC
:101370009CC1930700081CC2828001A097F1FF1F47
:101380009381416B177100201301C1C717B501008C
:101390001305054A97F5FF1F9385C5C61386C184BB
:1013A00063FAC5008322050023A0550011059105AD
:1013B000E3EAC5FE17F5FF1F130585EC971500201E
:1013C000938505F96377B500232005001105E36DCA
:1013D000B5FEFD42739002BCFD4273904280B7821D
:1013E0000000938202807390023097F2FFFF938295
:1013F000A2C193E2320073905230EFF01FDD9702EA
:101400000000938262D973901234730020309317D6
:10141000350063DA0700B707024083A707407D8DD8
:101420003335A00082809317250063D70700B707E4
:10143000024083A7074DE5B7B70702409C43C5B7F5
:101440009317350063D70700B707024023A2A740D0
:1014500082809317250063D70700B707024023AAAD
:10146000A74C8280B7070240C8C38280EFF2AF8AE0
:10147000793F6FF08F8CEFF20F8AD9376FF0EF8BD7
:10148000372702405C470545858B91E748474189EE
:10149000133515000D058280EFF2EF872A8485440D
:1014A000C5376318950019E0154529A0D13F7D1473
:1014B000CDBF7DD86FF06F889C4513F7070113F8F7
:1014C000F70001C7D8413368E8008E2113F7F50F04
:1014D00039C318418146854E3D4F930F80029302D8
:1014E0008004214E3396DE00B3F8C5006311160365
:1014F0009398260033131F011343F3FF3377E30060
:10150000B318180133E7E800639FF70550C9850653
:10151000E39AC6FD18C11307F00F6375B704544171
:101520002146854E3D4F930F800293028004414E29
:10153000B398CE0033F715016392E8021317260023
:1015400001173313EF001343F3FFB376D3003317C0
:10155000E800D98E639DF701232A15010506E319DA
:10156000C6FD54C18280E39457FA10C94DB7E39782
:1015700057FE23281501DDB7B7070140635A05045C
:10158000DC4F93560501131805013707300013F699
:10159000F60013580801B376E50063500506639B17
:1015A000E602930606010D46B316D60093C6F6FF73
:1015B000F58F99C9135755011377F73F1207331762
:1015C000E800D98F63570504370701405CCF82805C
:1015D000DC4345BF1317B500635607008D46B3962D
:1015E000C600E9B7135755011377F73F12073317B2
:1015F000E8001347F7FFF98F6DBF6390E6023706E7
:1016000001405442370700F17D17F98F758F58C29A
:10161000D5F1370701405CC382801317B500635CC6
:1016200007008D46B396C60093C6F6FFFD8EB7073A
:10163000000FD58FF1BF1357550112073317E8007C
:101640001347F7FF7D8FB707000FD98FD1B7371733
:1016500002405C439146B18B6385D700A14663820B
:10166000D706B7177A00938707201CC137160240A8
:101670005C4237070020130707019183BD8BBA979F
:1016800094231C41B3D7D7005CC15442A1829D8AE8
:10169000BA969422B3D6D70014C55442AD829D8A1F
:1016A00036971823B3D7E7005CC558423983937641
:1016B00037001387818036971823B3D7E7021CC9F8
:1016C00082805C4354434167C983F98E37F7FF1F1B
:1016D0000327C770BD8B89071316170163480600DF
:1016E000454601476392C702C94739A8094763893C
:1016F000E7023D476388E70241476388E7024546C2
:1017000001476393C700C14785E6B746024083A6F9
:101710000680C18A8DC6B7167A009386062025A05A
:101720000147D9B70547B547C5B70147BD47E9BF29
:10173000B7160240D4421396E600E35E06FCB716E5
:101740003D0093860690B387D7021CC105D31C4188
:10175000858321BF99C5371702405C4B5D8D48CB0F
:101760008280B7170240D84B1345F5FF798DC8CB5F
:10177000828099C5371702401C4F5D8D08CF82804B
:10178000B7170240984F1345F5FF798D88CF8280B7
:1017900099C5371702405C4F5D8D48CF8280B717DF
:1017A0000240D84F1345F5FF798DC8CF82801E3196
:1017B000922103D82500C207C183F99BC207C183C8
:1017C0001EB11E3156211A2DC207C1834207418323
:1017D0001377C7F8518F9225F59BC2063366060131
:1017E000D18F37360140130806C0C182630E050150
:1017F00013060640630AC50037560140130806C0A9
:10180000630405016310C502B225DD9B03D8E50022
:10181000D18FD221ED9B93F6F6CFD18FD2253366AF
:101820000601D18E56A11AADFA215AB91EB1828095
:101830001E3165771307F7CFC207C183BD9BC2076F
:10184000C1831EB11E31562103D88500C2071396ED
:101850000601162DC18393F7F7FD758F96214182FE
:10186000A206558FB62142074183B3E606019206D0
:10187000D58FB7360140C207138806C0C183630EF7
:10188000050193860640630AD500B75601401388C8
:1018900006C063040501631ED502B62593F7F7F76A
:1018A00003D8C5009206D58FD621C207C183920600
:1018B00093F7F7FBD58FFD769386F63FF18EF225F1
:1018C000C207C183336606010A06D18E139606014C
:1018D000418252A11AADFA211ABD1EB182801E3179
:1018E00003D88500C207C18393F7F7EFC207C1830E
:1018F0001EB11E3156215A2DC2071396060142070A
:10190000962141831377C7F8558FB621C18393F78A
:10191000F7DFB3E60601A206D58FB7360140C2074E
:10192000138806C04182C183630E05019386064079
:10193000630AD500B7560140138806C06304050149
:10194000631FD502FD769386F67FF58FB62503D803
:10195000C500A206D58FD621C207C183A20693F780
:10196000F7BFD58FF576FD16F18EF225C207C1833C
:10197000336606011206D18E13960601418252A1EA
:101980005AADFA215ABD1EB182801A31FD77FD177A
:10199000F98F1EB10358050256215E2D6577139607
:1019A000060196211307F7CF7D8FF977A206FD1761
:1019B000558FB3F70701B62103D88500420741824E
:1019C000B3E60601B206D58FB7360140C2071388C9
:1019D00006C04183C183630E050193860640630AF6
:1019E000D500B7560140138806C063040501631B88
:1019F000D500F176FD16F18ED2251A06D18E1396FA
:101A00000601418252A15AADFA212310E5041EB10C
:101A100082801E2DC207C183DD9BDD8D0EAD8280CD
:101A20001A2DFD779387F77FF98FA205CD8FC20717
:101A3000C1831EAD82805E2DC207C183DD9BDD8D1B
:101A40004EAD82805A2DFD779387F77FF98FA205DF
:101A5000CD8FC207C1835EAD82801E294A25ED8FDE
:101A60004205418189C76D8D3335A00082800145D3
:101A70008280EFE25FAA1629F577FD17F58FF62130
:101A8000DA257971D58F1EA95625FD779387379F63
:101A9000F58FD6212A842EC6D58F9625D58FB625CB
:101AA000D58F5EA55E29C207C18393F7F7CFD98F83
:101AB0005EA96808693EB747014093870780B24531
:101AC000631EF402A2576547B387E7029841930665
:101AD00040060A07B3D7E70233D7D702B3F7D702D6
:101AE0001207920793872703B3D7D702BD8BD98FED
:101AF000C207C1831EA445616FE03FA49257E1B7BE
:101B000091C55E250967D98F5EA582805A25F97730
:101B1000FD17F98FD5BF93F5F51F4EA182800A21DD
:101B20006D8D3335A00082805449635CB00093977B
:101B300035008C42BE955C4563EFF500938541828C
:101B400019A8B7C7F0FF1387979D63C8E50093975F
:101B500035004C45BE952E8582801387879D639600
:101B6000E5000C4993854502FDB794425946C842A9
:101B7000E306C5FC88420D8F7421E3C1E6FCB38502
:101B8000B7409385959D8E05AA95F1B7EFE2BF9872
:101B90008C41EF30E0626FE05F9AEFE2DF97AE8456
:101BA000B2852A84EF80B00FD440930750042A896D
:101BB00001476398F602AA858840EF80F0555C41A2
:101BC0002A8785C35C441441A10723ACD7FE584142
:101BD00023AEE7FE5CC45C4403A5C7FF3D896FE00C
:101BE000DF955444A685228523A02601834749001A
:101BF000368693E70704DCC2938786005CC4EF90C7
:101C0000303FD1BFEFE23F91AE844111B2852A84CB
:101C1000EF80F008D440930750042A890147639865
:101C2000F604AA858840EF80304F5C412A87A1C323
:101C3000544483A7C6FF93F7070499CF8C40DC3147
:101C4000918B99CB83A786FFDC338D8B91C72AC6F6
:101C50002285EF40700932475C4483A687FFE11775
:101C600014C3D44354C35CC441016FE01F8D50447E
:101C7000A68522852320260183474900930686FFF7
:101C800093E707045CC2930786005CC4EF90504161
:101C90005C44C117C9BFEFE21F88D0418C41EF30CF
:101CA00070316FE09F8941116364B500410182800A
:101CB000944118415C4114C1D4412105E115232E02
:101CC000D5FE98C5DCC5CDB7EFE2FF845C45544D29
:101CD00041112EC69D8E8D862A840329450163C637
:101CE000D502145137470F0013070724958F8D87AE
:101CF0000D8F950781446346F702B72500007000F9
:101D00009385C5B8EF30403E09EDB247854413973F
:101D100037005C44BA97032749006374F700232215
:101D2000F900268541016FE05F811C49E857ECD737
:101D3000828001C51C49E85B828013850182828014
:101D4000B7470F00938777623387F50063E8E700B2
:101D500058495C451843998F8D87BE952E858280A2
:101D60005C4948459C43A1071D8D0D858280938762
:101D700015008E0763C0050258491843BA975845A5
:101D80006364F7005CC582809306870054C52322F4
:101D90000700F5B75845BA97F5B7EFE2CFF74445D6
:101DA00032845933E1142A89634104020E043384D6
:101DB0008440A2854A85C53DA68513058400E53586
:101DC000A6854A85CD356FE04FF70504615633048B
:101DD000C4022A94F9BFEFE20FF43289AA84A9332E
:101DE0002A84CA85268589331C401CC15C405CC19D
:101DF000B7C7F0FF9387879D6353F9025C4093F761
:101E0000070491CFDC489C438C43DC31918B81CB20
:101E100010405C328D8B81C72685EF40406A6FE0B1
:101E2000CFF1EFE24FEF4045AA84FD391C41210478
:101E3000232CF4FE5C41232EF4FEC0C46FE0EFEFD0
:101E4000EFE26FEDD531938741826306F50048419B
:101E50003D896FE08FEE7D55EDBF8505ED6793877A
:101E6000870F8A05BE9588418280EFE2CFEA6D39FF
:101E700048413515133515006FE02FECEFE2AFE95F
:101E800041115D3158418D476308F7006C00EF90B8
:101E9000100641016FE06FEA0545E5BFEFE2AFE7ED
:101EA000613148413D897515133525006FE0EFE834
:101EB000EFE26FE641112A8932C613844182AD31C7
:101EC000630185023246AA844A85B285B1392A86E1
:101ED000014563058600A685EF90105241016FE031
:101EE000CFE50145E5BFEFE20FE32A842E854C44A0
:101EF000EF50905701C55C44A1075CC46FE0EFE36D
:101F0000EFE26FE141113284EFF01FC254410D47FF
:101F1000639BE6001C6105453EE611C008C03265C2
:101F200041016FE08FE16C00EF90607C7DF502C6AF
:101F3000EDB7EFE24FDE41113284EFF0FFBE5441C6
:101F40004D47639BE6001C4105453EC611C008C0D5
:101F5000324541016FE06FDE01466C00EF90607F1B
:101F600075F502C6E5B7EFE20FDBEFF0FFBB5841B6
:101F7000814719C785476315F7001C41B337F00047
:101F80003E856FE08FDBEFE20FD9AA842E89328481
:101F9000EFF09FB95C411147BD8B638AE7020D47A3
:101FA0006388E700014519C0232004006FE0EFD8E3
:101FB000AA852685EF5030689C48DC476355F000C1
:101FC0002685EF401027CA852685EFF0FFB501C8AA
:101FD0001C411147D4236397E600FC331CC0084121
:101FE0004105E9B7DC47DDBFEFE2EFD2EFF0DFB349
:101FF0005C41154793F7F7036386E7026348F700F0
:102000001147638EE70001456FE02FD31D476385BD
:10201000E7005147E399E7FE1C41C847F5B71C416B
:10202000E833DDB70841EF80D050F9BFEFE2AFCE23
:10203000EFF09FAF584189473D8B630BF7009D46FA
:1020400081476314D7001C41E1073E856FE0EFCE66
:102050001C41E5BFEFE22FCCEFF01FAD5C411D4707
:1020600093F7F703638CE702634EF7008946638AB0
:10207000D702014763C5D700954663D4D7023A8596
:102080006FE0AFCB5947638EE70013076002638AA6
:10209000E70021476387E7000147D5B7184161078B
:1020A000F9BF1841E9BF5C4523A20700A1075CC541
:1020B00082805C450D4788E3D8C3A1075CC5828058
:1020C0005C454D478CC3D8C3A1075CC58280EFE255
:1020D0008FC4AA8405EEB7A50100938505ABEF80F8
:1020E000003CDC442A8488C35821A10713670704F5
:1020F00023AEE7FEDCC49C48DC476355F000268530
:10210000EF403013130504016FE02FC3EF8020353B
:10211000C9BFEFE24FC0AA8495E15C452E8423A29B
:102120000700DC44A107DCC49C48DC476355F00091
:102130002685EF40101022856FE02FC0EF802036FB
:10214000D8441304050108C35C2193E707045CC36A
:10215000C9BFEFE24FBC2A84EF50B0591C48AA8493
:10216000DC476355F0002285EF40B00C26856FE018
:10217000CFBC397132D4301022CC26CA2A843EDA40
:1021800006CE36D63AD842DC46DE32C6EF5070561E
:102190001C48AA84DC476355F0002285EF40700993
:1021A000F24062442685D24421618280EFE2AFB6DC
:1021B00041112A84AE8411EA5C4559478CC3D8C3C7
:1021C000A1075CC541016FE04FB7B28532C6EF3061
:1021D00010063246584444C593173600B307F740FB
:1021E0005CC4FD557D166310B6021307600688C3F4
:1021F000D8C3A1075CC41C48DC47E355F0FC22852A
:10220000EF403003C1B713173600B306E5003E9721
:102210000328070023A806015843D8CAE1B75C4544
:10222000B335B00005478CC3D8C3A1075CC5828015
:10223000EFE26FAE1C492A844111C8532EC689456E
:10224000EF8040653246AA852285EFF01F95410157
:102250006FE0AFAEEFE22FAC41112A8432C6EFF04F
:10226000BF8C3246AA852285EFF03F9341016FE093
:10227000CFACEFE24FAA2A843289EFF0FF8A5441B3
:1022800093075004AA8401476398F6020841CA855F
:10229000EF8040605C412A8785C35C441441A107FC
:1022A00023ACD7FE584123AEE7FE5CC45C4403A5D3
:1022B000C7FF3D896FE06FA85444CD47A685DCC2B7
:1022C00023A02601938786005CC436862285EF9082
:1022D0002052E9BFEFE22FA4AA84EFF0FF84C044AC
:1022E0000841930584FFEF80A0651C41232CF4FE78
:1022F0005C41232EF4FEDC4403A5C7FF3D896FE05B
:10230000CFA3EFE24FA141112A8432C6EFF0DF8163
:10231000324608414444B285EF80C0571C419CC0FE
:102320005C41DCC05C44C8431387870058C43D89C6
:1023300041016FE08FA0EFE20F9E41112A842EC66B
:1023400032C4EF80604E5C4413075004B24588C32A
:10235000D8C3A1075CC4A2466344B0006357D00051
:102360002E86AA852285EF8040671C48DC4763558E
:10237000F0002285EF40E06B41016FE00F9CEFE23F
:102380008F992A84EFF04FFA5C411547BD8B638C1F
:10239000E7001D476387E7021848938747038A07CA
:1023A000BA97D84719A01C41984F014509CB5C4406
:1023B000054598C313075004D8C3A1075CC46FE058
:1023C000CF971C419847D5B7EFE2EF941C492A8478
:1023D0004111C8532EC68945EF80C04B3246AA85AD
:1023E0002285EFF03F8241016FE02F95EFE2AF923F
:1023F00041112A8432C6EFF02FF33246AA85228596
:10240000EFF05F8041016FE04F93EFE2CF90411119
:102410002A843289EFF04FF1544193075004AA8483
:1024200001476398F6040841CA85EF80A0465C41E5
:102430002A87A1C3544483A7C6FF93F7070499CF03
:102440008C40DC31918B99CB83A786FFDC338D8B5D
:1024500091C72AC62285EF40200932475C4483A6F3
:1024600087FFE11714C3D44354C35CC441016FE038
:10247000CF8C5044CD46A68554C223202601930616
:10248000860054C42285930686FFEF9060415C4429
:10249000C117E1BFEFE22F882A84EFF0EFE8504444
:1024A0000C41AA8441162285EF80F0055C4403A705
:1024B00087FF18C183A7C7FF5CC19C402383070027
:1024C00058448327C7FF93F7070489CF8C40DC313A
:1024D000918B89CB832787FFDC338D8B81C7228546
:1024E000EF4080005C44C1175CC46FE00F85EFE2F1
:1024F0008F8241112A8432C6EFF00FE354440C411D
:102500003246AA84E1162285EF8060495844832729
:10251000C7FF93F7070489CF8C40DC31918B89CBBF
:10252000832787FFDC338D8B81C72285EF30D07BFB
:102530005C44E1175CC441016FE02F80EFD2BFFD26
:10254000AA84EFF06FDEDC442A89014403A7C7FFA9
:1025500019C303A487FF832749001547BD8B638CEC
:10256000E7001D476385E7049848938747038A0778
:10257000BA97C0C73DA08327090080CF1DC083251F
:102580000900DC31918B81CB5C308D8B89C7228631
:102590002685EF30D0728325090022862685EF40FC
:1025A000E038DC440545E117DCC46FD01FF9832710
:1025B000090080C7E1B7EFD21FF68505E157B38761
:1025C000F5024C452A84B284BE9505C78357C506DB
:1025D0008DE35C4998CB94CFEF302018FD5763987A
:1025E000F4005C485844D44363F3E600D8C36FD08A
:1025F000DFF426862285EF30E01BCDB7EFD21FF047
:1026000001112A84AE84B2890329050291CAB685D4
:102610003EC63AC4EFF04FD1B2472247B306254138
:1026200093851400E154B38595025044B2952ECCA5
:1026300081C70356C4060DCA3687B3862541B72520
:1026400000003008938565C922854ECEEF30C02F3B
:10265000FD576398F9005C485844D44363F3E6009F
:10266000D8C305616FD0DFEC44483389254122850A
:102670009CC87C4C98CC23AE2401DCC8BE300347F8
:10268000440774CCF99BD98F93E70701BEB04E86FF
:10269000EF30A00CBE300145BD9BBEB0DC487CCC09
:1026A00045BFEFD25FE779712A84B68489E6B7A483
:1026B00001009384C4B4B28622852E866C083AC683
:1026C000EFA0B047324726866C08BA862285EF30E5
:1026D000402DAA840DED5C4403A987FF8347690060
:1026E0009DC71C488945C853EF80C01A832509013E
:1026F0001C4198411CC35C415CC393F7070481CB28
:10270000938785006315F7002285EF30F05E2685FC
:1027100045616FD09FE2EFD27FDEA547004963E2BB
:10272000B70C696793972500130787B1BA979C4345
:102730002A898287A30904022E856FD07FDF814515
:102740002285EF70C07F8547A309F4028145EDB76C
:102750008145EF40A036DDBF0C444844AA95A981CD
:10276000E1BF0C444844AA9593F5F53FF1B785477E
:1027700083493403A309F4020DE29305009C2285EA
:10278000EF70E07B4A85EF40C02AA30934038345FC
:102790001403E51593B5150045B744442A06228570
:1027A000B294A685EF70A07983270901DC476355B1
:1027B000F0004A85EF40E027A30934038145E34850
:1027C00090FC9DBF6C5070D085BF930780022C5445
:1027D0006354F6001306800230D4B9BF8345340336
:1027E000A1BFFD5591BFEFD21FD3EF20C051EFD253
:1027F0009FD22A84EFF04FB350440C4122856116DA
:10280000EF70F07358449307870019E1930787FF2F
:102810005CC46FD09FD2EFD21FD005472A84635D7E
:10282000B700EF90A0511C48DC476355F0002285AB
:10283000EF4020206FD07FD0FDF54445B7A50100C3
:102840000146938505ABEF70904188C05C2193E70A
:102850000704DCC05C44A1075CC4F1B7EFD2BFCB76
:102860002A84EFF06FAC4C442A862285EF90606496
:102870005C44A1075CC46FD05FCC81C51C49DC43BC
:102880009CC11C4988438280EFD2FFC82A84EF7024
:1028900090465C4413077004AA8488C3D8C3A10778
:1028A0005CC41C48DC476355F0002285EF4060188B
:1028B000138584016FD07FC8EFD2FFC5411132C6A6
:1028C000AA84EFF06FA65C411947324693F7F703ED
:1028D0006382E7061307600201446394E7080C4132
:1028E0006351C008FC2163CEC70605060E0637A457
:1028F0000100B386C5008147130404ABD844130616
:1029000087FFD0C4032687FF90C20326C7FFD0C22B
:10291000BDC18327C7FF93F70704A1C7DC31918BA3
:10292000A9C3032687FF5C328D8B85CF2685EF30C8
:10293000103905A81C410144CC476354C002D84556
:102940006341C702130736000A07BA97B8410E065B
:102950009C433A96032486FF944301C84104814571
:1029600051FC228541016FD05FBD37A40100814534
:10297000130404B461B7F5D79443D842137707041E
:102980006DD313878700E39EE6FCBE852685EF3076
:10299000B036C1BFDC41014589C788411CC223A2B2
:1029A0000500828019E201458280EFD23FB52E8971
:1029B000FD552A84B284EFF0AFC89547631CF5003B
:1029C0002285EFF04FEE9149FD14F9552285EFF085
:1029D0001FE201E501456FD0BFB5F9552285EFF043
:1029E0002FC6631E35057D56CA852285EFF04FCC74
:1029F00019C52285F955EFF08FB70545E9BF268641
:102A0000CA852285453705CD7D56F9552285EFF0DB
:102A1000CFB8F9552285EFF08FB5B7A501009385A2
:102A200005E12285EFF0EFEE0546F9552285EFF03E
:102A3000CFB622858D45EFF01FDE054569BFF955FC
:102A40002285EFF0CFB251B7EFD25FAB41112A84AC
:102A50002EC6EFF0EFB03246B7A501002A89938564
:102A600045C52285EF10507637A60100B7C5F0FFA7
:102A7000130646B89385859D2285EFF0AFFD930937
:102A800019000946CE852285313F39C90146FD55D9
:102A90002285EFF04FCFB7A501000D469385C5B84D
:102AA000AA84EF40E15C19ED938534002285EFF0B4
:102AB0004FE6F95522857D56EFF02FAEF955228568
:102AC000EFF0EFAA4E86FD552285EFF0CFB0F55519
:102AD0002285EFF0CFA98544268541016FD05FA5FF
:102AE000AA84CA852285EFF08FA8FDB7EFD2BFA2D6
:102AF0009C412E84B2846359F0001CC223A00500BF
:102B0000130584006FD07FA3D4410145DE2693F7DF
:102B10000702EDFB13060040854513058400EF20F6
:102B2000D14F88C0F1BFEFD21F9F83A7C18101465B
:102B3000FD55C447EFF02FC5B7A501002A86938540
:102B400005B52685EF20913D83A7C181C847EF20B9
:102B5000311401456FD07F9EEFD2FF9B41112E842F
:102B600081EA2E85EF30E12D014541016FD0FF9CB8
:102B7000B685228532C636C4EF3011587DF575D43E
:102B8000A2463246E363D6FE2285C5B7EFD21F9731
:102B9000B7A401002A842E8923200500938484BBD6
:102BA000FD594840EF30011063053503850483C7A4
:102BB000F4FF6310F5021C401387170018C0A2979A
:102BC00088A783870400F1FF484023200400EF30EA
:102BD000610D2320A9001307300281476311E5022C
:102BE000FD59A9444840EF30E10B63043501E31B74
:102BF00095FE4840EF30010B2320A90085473E8514
:102C00006FD01F93EFD23F91328937A60100130690
:102C1000C6BB2A84AE84EFD0711D91476317F502BD
:102C20000146FD552285EFF00FB6B7A50100AA8633
:102C30004A86938545EB2285EFF0AFD32A86A68599
:102C40002285EFD091656FD05F8FA6852285EFF04A
:102C50002F9F8947630BF500A6852285EFF04F9ED5
:102C6000AA852285EFF06F9FC9B737A5010013052C
:102C700045EA65BFEFD29F8841112E8A6C003289E8
:102C8000AA89EFF09FBFAA84D2854E85EFF00FBAD4
:102C900050410C412A843245CA868294AA8411ED9F
:102CA000630D0900D28501464E85E937B7A50100BD
:102CB000938505B94E85EFD0F13204C0232224015B
:102CC000268541016FD0DF86EFD2FF84014685451E
:102CD000553701456FD07F86EFD2FF8385452A8423
:102CE000EFE0E103014685452285EFD0713F0545C0
:102CF0006FD0BF84EFD23F82EFF08F867D156FD00B
:102D0000DF83EFD25F8185452A84EFF06F93FD5713
:102D1000AA84631AF50037A601001306C6D28545BA
:102D20002285EFD09157A6852285EFF00F93AA85D3
:102D30002285EFF00FBE05456FD03F80EFD2AFFD8B
:102D4000AA84EFF0EF812A8485452685EFF04F8F26
:102D500091476315F502014685452685EFF0AFA240
:102D60000307050093073002631AF70026859305D1
:102D7000F4FFEFF0EFB405456FD02FFC85452685B5
:102D8000EFD071743309A4006346050022896353B0
:102D900085002A89634A200137A60100130606062A
:102DA00085452685EFD0714F33052441F1B7EFD229
:102DB0000FF441118945AA84EFF08F886347A0047E
:102DC00085452685EFD0B17585452685EFF04F877F
:102DD0008D47631AF50085452685EFE05FF90545C7
:102DE00041016FD04FF4854570002685EFF0AF9913
:102DF000AA8501C92685EFF00F8FB2478507E3004A
:102E0000F5FE2685EFF02FAAD9BF89452685EFD09C
:102E1000916B2A8C114685452685EFD0B1587000FC
:102E200085452685EFF02F961307ECFF93072002C8
:102E30002A8A63FAE70037A601001306C60B894504
:102E40002685EFD09145B7AA010093850A0D5285DA
:102E5000EF4001273304AA00830704001307D002C0
:102E60006397E7020504854BEF20116B1C20814915
:102E7000894C3E951C319D8B95E381450145B247B8
:102E80003E9AE31045F92685EFF08FA389BF13071B
:102E9000B002814BE39AE7FC0504F9B7EF20D16754
:102EA0008307040013F9F70F130B19005A95182123
:102EB000938707FD118B09EFEF2011665A951821B2
:102EC000CA870D8B63149701930709FE938797FCBC
:102ED000E3D587FBB3053C030504B389B700EF20B6
:102EE000B1631C203E951C319D8BCDFB93850A0D53
:102EF0002285EF40E11C2295CE85E3820BF8B305D5
:102F00003041B5BFEFD22FE1154685452A84EFD079
:102F1000714922858945EFD0916022858D45EFD09A
:102F2000116022858D45EFE09FE422858545EFF015
:102F30006FD605456FD06FE0EFD2EFDD15468545C2
:102F40002A84EFD0314622858945EFD0515D228514
:102F50008945EFE0DFE185452285EFF0AFB7054514
:102F60006FD0AFDDEFD22FDB85452A84EFE05FED38
:102F70007115854763FAA70037A6010013064604BA
:102F800085452285EFD0713185452285EFF0CF85CB
:102F9000AA852285EFF0CF9205456FD00FDAEFD2E8
:102FA0008FD785452A84EFD0915722858945EFD068
:102FB0001157094685452285EFE09FEFAA852285B6
:102FC000EFF0EFA505456FD04FD7EFD22FD34111CA
:102FD0002A84EFE0FFD8B7A501002A8A93858500EF
:102FE0002285EFF0EFA48544B7AA010063549A024A
:102FF00083A7C18137A50100054694478545130580
:1030000005B8EF20114983A7C1818847EF204148C7
:10301000014535A8FD552285EFE0BFE0A685228554
:10302000EFE03FE001478146054685452285EFF008
:103030008FD87000FD552285EFE0FFF4AA8919E9C9
:10304000B7A50100938545012285EFD0A179410103
:103050006FD00FCE854763DB970083A7C1810546FC
:103060008545944713850A04EF20B14283A7C181A7
:103070003246854594474E858504EF209141F955A8
:103080002285EFE0DFCE9DB7EFD2EFC885452A84D9
:10309000EFD0F148B73500000146228593858516AB
:1030A000EFF0CF9022858545EFE0BFD7228581459F
:1030B000EFF00F810D456FD04FC8EFD2CFC5154649
:1030C00085452A84EFD0112E89452285EFE03FCA3D
:1030D00085452285EFF0AFF119E52285EFE0BFFCD1
:1030E00005456FD08FC50945EDBFEFD2CFC2B28481
:1030F00037A60100130606F989452A84EFD0514A04
:1031000085452285EFE0FFD1814522850147814633
:103110000546EFF04FCAFD552285EFE07FD211E959
:103120002285F955EFE0BFC4014523A004006FD00C
:10313000CFC0FD552285EFE07FD601E9B7A501009C
:103140009385C5FA2285EFD0E16915462285FD55A4
:10315000EFE07FC82285F955EFE07FC126869545CF
:103160002285EFE05FE2E1B7EFD2EFBA4111894586
:103170002A84EFD0513513061500B285228532C658
:10318000EFE01FF4324685452285EFF08F8E333510
:10319000A000050541016FD04FBAEFD2CFB7054669
:1031A00089452A84EFD0313A8545AA842285EFE00B
:1031B0001FBC85452285EFE0BFC891476310F5022B
:1031C000635E9000A6852285EFD0C15C854522858F
:1031D000EFE03FC589452285EFF0EFE32285EFF070
:1031E0008FE06FD08FB5EFD20FB3E96637A601003D
:1031F0009386860D1306C6FE85452A84EFD0D13D01
:10320000E9670A059387C70FAA9703A90700014634
:1032100089452285EFD031332A86CA852285EFF091
:103220008FCF9547AA84630DF902A547630AF90277
:103230008D47631CF902014691452285EFF0AFCD21
:10324000B7A70100537505D0D3F704D007A787FEB1
:1032500022854375E578EFE0DFE505456FD0EFADFA
:10326000A6852285EFE0BFFBCDBFAA852285EFE0D2
:103270003FE5E5B7EFD22FAA8547411163FEB700BE
:1032800081452A84EFE0BFF92285F955EFE07FB947
:10329000094541016FD06FAA32C6EFE07FAC3246DC
:1032A000118DC5BFEFD22FA72A84EFE07FAB19465F
:1032B000AA8489452285EFD0F10E22858545EFE06D
:1032C0001FF622858545EFE0DFB5228509468D454D
:1032D000EFE0BFACB737000093874727094789461F
:1032E0009385E4FF7D562285EFF04FB1AA8509460C
:1032F0002285EFF03FF86FD04FA4EFD2CFA18545E4
:103300002A84EFD0D12122858545EFE05FF1054683
:1033100085452285EFE07FA82285EFE07FA4B737BF
:10332000000093874727014781469305E5FF7D56B7
:103330002285EFF0AFACAA8501462285EFF09FF31E
:103340006FD0AF9FEFD22F9D89452A84EFE05FAF0A
:10335000AA84154685452285EFD0D10481CC9547B6
:10336000638AF40037A601001306460789452285C3
:10337000EFD0A17237A601001306C6088545228545
:10338000EFD0C12611C9B7A5010093858509228513
:10339000EFD041456FD06F9A89452285EFE03F9D80
:1033A00085452285EFF08F990545EDB7EFD2AF96B1
:1033B0002A849DE101E605456FD02F98B285EFE0A4
:1033C0005FA60546F9552285EFF00FCF6DF5F9554B
:1033D0002285EFE0DF99C5B7EFE0FFCC22850546F7
:1033E000F955EFE09F9B0945C1BFEFD22F91011125
:1033F000700885452A84EFE01FB937A60100814691
:10340000130646FF8D45AA842285EFD0F106AA89CE
:1034100091452285EFE0DFA2FD5701496303F500E6
:10342000114981468DC4268689452285EFD0D10475
:103430007246AA864E87A6852285EFD0F157AA85C7
:103440004A862285EFF09FF605616FD06F8E37A612
:103450000100130686FF89452285EFD0F1012AC6B7
:10346000194622858545EFD0E17322859545EFE029
:103470001F90B246B73500004E8701469385A50ED2
:103480002285EFF00FA265BFEFD2EF884111814690
:10349000014685452A84EFD0217E01468146894533
:1034A0002A892285EFD0417D2AC68D452285EFE00D
:1034B0003F99FD57324681446303F5008D44CA8528
:1034C0002285EFD0B130AA8526862285EFF01FEE47
:1034D00041016FD08F86EFD20F8485452A84EFD0CB
:1034E000110485452285EFE09FE919E52285EFE08B
:1034F0009FBB05456FD06F8437A601001306C60831
:1035000085452285EFD0810EEDB7EFD2CF80014601
:10351000814685452A84EFD02176AA848545228577
:10352000EFE0FF840146A6852285EFD0312A11C540
:103530002285EFF04FAB6FD04F8037370000130775
:1035400047CF81467D5681452285EFF0CF86228583
:10355000EFE01F817D15C5B7EFC2FFFB85452A84CB
:10356000EFE07FA011C52285EFE08FFF6FC0FFFC69
:1035700022858545EFD0A17A7D5622858545EFE0ED
:10358000DF812285F955EFE08FFEB7A50100938515
:1035900045FD2285EFE0FFB722858545EFE02FFD51
:1035A0002285EFF09FBFD9B7EFC2FFF685452A8489
:1035B000EFD0E17637A60100130606008545228587
:1035C000EFD0C1021DE1B735000001469385A50B80
:1035D0002285EFE0BFBD22858545EFE09F842285EF
:1035E000EFE07FAC0D456FC05FF522858545EFE0CC
:1035F0005F83014781460D4685452285EFE0BFFB8D
:10360000D5B7EFC2BFEF1C4532892E8683AA0702C9
:10361000CC570041AA895685EF70E06E5841CD47DE
:103620002A8B6300F70883A4C901032A0401CD474C
:1036300023209B002322FB0063C444034C54B7A700
:103640000100370700047D1793874732A146130610
:1036500004015685EF40802F184848D4634BEA0692
:103660005C5413973400BA970327090098C30327C3
:103670004900D8C383A7C901850723AEF900832772
:10368000490093F70704B9C35C30918BA1C30326AB
:1036900009005C328D8B9DCBA2855685EF20306270
:1036A00035A0044183A7C901E3DFF4F65C54939588
:1036B000340003274900BE95DC41B98F93F7F70327
:1036C000BDF34A860145EF80205331DD26856FC06A
:1036D0003FE6050A93173A00AA9723AE07FEBDBF3F
:1036E00018455C456319F70218419547630FF700C9
:1036F000994681476319D700854791C55C419CC1B4
:10370000CD47DCC185473E8582808547EDDD5C6124
:103710008D479CE1FDB78147FDB71C5913972500E4
:10372000BA9788438177850739813E95FD576304B1
:10373000F50085052E9582800859939725003E95C2
:10374000635FB0008327C5FF6D67130747CD93F70D
:10375000F703BA978387070063D307007115828048
:10376000EFC27FDB0841411132C6EFF0FFFC184188
:10377000930730029376F7036393F6043246930679
:10378000F00F935777016303D6026381C7029167F5
:10379000938707FC1A067D8EF1779387F7037D8F59
:1037A000598E10C1054541016FC03FD937C67F0012
:1037B0009A07718FD98F93E727021CC1E5B701459E
:1037C000DDB7EFC25FD5AA842E847D59631424012E
:1037D0006FC0BFD6A2851306F00F2685EFF05FF805
:1037E0008840A285EFF07FF32A84CDB7EFC21FD1C6
:1037F000AA892E847D59130A3002631524010145DC
:103800006FC01FD383A40900A2852685EFF0DFF2E5
:103810001C4193F7F70363984701A2852685EFF0D3
:10382000DFEF2A84D9BF0545E1BF93F7051091EB7F
:103830008347A50263C7F5008347C502FD1723062A
:10384000F502828098419D476319F700EFC2BFCC13
:10385000CC41EFF09FFD6FC05FCE8280EFC2BFCB47
:1038600098419D472A84FD546313F700C4411842D0
:103870009D477D596314F70003294600635C990056
:10388000A6852285EFF07FFACA852285EFF0FFF941
:103890006FC0BFCACA852285EFF03FF9A685F5B78C
:1038A000EFC27FC70841EFF03FE91841F1779387F6
:1038B000F703B376F7009357670093F7F70F93B7C3
:1038C00017009A07D58F1CC16FC03FC71841939747
:1038D00025008505185B0D8E9356F6413E97B3C7BC
:1038E000C600958FB706020063CBD700EFC2BFC2F8
:1038F0000845B7A5010093850534EF30A0641C434B
:10390000FD163696CA07C9833A065D8E10C38280BB
:10391000EFC2DFBEAA842E84B289368ABA8A7D5964
:10392000631424016FC0DFC08840A285EFF0FFDE82
:1039300052862A8BA2852685EFF09FE24E8611E102
:103940005686A2852685EFF07FF85A84D1BFEFC254
:103950009FBC18492E890C4D04413A869306F00FFE
:103960002A84EFF0FFFAFD571CCC1848DC4863436B
:10397000F70208448C58B7A70100085137070080A8
:103980009387C7381347F7FF914613864401EF30FA
:10399000F07B88D818489C580A07BA9723A02701BB
:1039A00018489C4C6343F70208448C5CB7A701009D
:1039B0000851370700809387C7381347F7FF9146B0
:1039C00013868401EF30907888DC1C4418489447B3
:1039D0009C5C0A07BA9794C30848930715001CC853
:1039E0006FC0BFB5EFC23FB379712A89AE8432850B
:1039F0002C0836C63284EFF0BFCEB24609E5014549
:103A000045616FC09FB30C103685EFF07FCD65D94F
:103A10001387D4FFA94763EBE7028547B397E70015
:103A200013F7D70031EF93F7075F8DC37247CD4788
:103A30006311F704E2473ED41257CD476308F700FD
:103A400001462C100810EF70D05055D9832709007B
:103A50003810141088533008A685EF4020103257D4
:103A6000CD476313F70499471CC0A2575CC00545B6
:103A700041BF01462C102808EF70B04D49D16DBFF1
:103A800092564D478257639CE600D3F707D0530701
:103A900000F0D327F7A093B71700B5D345BFD307DE
:103AA00000F0538707F0F5B7A277D3A7F7A0A1DB03
:103AB000530700F0D3A7E7A0B9F395471CC05CE01B
:103AC0007DB7FD57630FF602EFC25FA3844141113A
:103AD0006396F40090C141016FC09FA58329050042
:103AE0002A847D59A6854E8532C6EFF01FC3324623
:103AF00063172501A6852285EFF05FDDE9BFAA8463
:103B0000D5B78280EFC23FA1104DFD57B785FF7F2B
:103B100001111CCDF9052A8432C6EFF05FE332466D
:103B20002ACE6C082285EFF0DFF9724505616FC07F
:103B3000DFA01C495CC93E858280EFC2DF9D184929
:103B40002E869305850158C9EFF0BFF76FC0FF9E21
:103B5000EFC27F9C1C496396C700EFF01FFE6FC049
:103B6000DF9D32879306F00FEFF09FDACDBFEFC2F3
:103B7000FF981304160011661A04130606FCF1746C
:103B8000AA89718C7D599384F403639425016FC0D5
:103B90003F9A03A509009397250018593E971C43A7
:103BA000E58FC18F1CC3EFF05FB7AA85F9BFEFC2E5
:103BB0009F963A07D98DDE06D58D1A06D18DEFF086
:103BC0001FD96FC09F971C4958496350F708184187
:103BD0008A07F117032E07033E9E83280E009147A4
:103BE00013F7F8036313F70613D868001378F80F78
:103BF00013D378013387C500429363C80501930747
:103C0000130063D0B704639205056340070591660E
:103C1000938606FC93976500F58FF1769386F603FD
:103C2000B3F8D800B3E71701A6071306F7FFA5837B
:103C3000635366001A860D8E5E06D18F2320FE0028
:103C40008280E356B8FCC285D9B7EFC2DF8C9306F9
:103C5000F6FF01472E869145EFF07FF56FC0FF8D8F
:103C6000EFC27F8B9306160001472E8693056002F4
:103C7000EFF0FFF36FC07F8CEFC2FF89BA06D58DDE
:103C80001A06D18DEFF0BFCC6FC03F8BEFC2BF885B
:103C9000B70704003284635BF600B2862E86854542
:103CA000EFF09FFDAA8426856FC03F892E8681464E
:103CB00089452A89EFF05FFC93156400AA8493E597
:103CC000E5024A85EFF0BFC8F9BF8347C502BE953C
:103CD0001C4198276350B7021307E00F635BB700DE
:103CE000EFC27F830845B7A501009385C535EF3046
:103CF00060258CA78280EFC21F82AA842E84EFF0F9
:103D0000DFFC83C7C4023E94238684026FC0FF8217
:103D1000EFC27F80DC21411130002EC493E70704FD
:103D2000B2853EC6EFF0FF8D41016FC01F81EFC22B
:103D30008FFE411189472EC03EC22EC4CD473000B0
:103D40008A853EC6EFF0FF8B41016FC00FFF98419F
:103D5000B5466315D7021441DC4105063A061397B0
:103D600027009C5AB74680FFFD16BA9737C77F00D9
:103D7000798E9843758F598E90C38280B9466311AE
:103D8000D704EFC24FF9D841032805000506931761
:103D90002700032708035E0685453E971C43A607B8
:103DA000A5835D8E10C38346C502F1779387F70321
:103DB0009A067D8E558E10C3EFF0FFF36FC0EFF7BC
:103DC00082809C413547639FE7009D479CC11C4111
:103DD000D8419C5B0A07BA979C43998393F7F70FE6
:103DE000DCC1828039476391E7021441D8419317BF
:103DF0002700985AB70600013E971C43A607A583E3
:103E0000D58F1CC3B1479CC182809C411947E117E3
:103E10006363F706EFC22FF069678A071307C723AA
:103E2000BA979C432E84AA8482879D471CC06FC08A
:103E3000CFF0CC41DE0593E55500EFF05FB148C00F
:103E4000B147EDB783954500EFF03F9E7830A1472D
:103E500099456317F7006C202685EFF01F9D9D455F
:103E600003174400742001462685EFF05FD4C1BFDC
:103E7000EFF03FF56DBF8280EFC2EFE941112E896F
:103E8000AA843284EFF07FF8832609002D479387B8
:103E9000F6FF6363F70269678A0713078725BA97F6
:103EA0009C4382870546A2852685EFF0DFD19D479A
:103EB000232289002320F90041016FC00FE8F91681
:103EC000014793B6160022868D452685EFF03FCE3A
:103ED000F9BF03264900A2852685EFF03FDBC1BF6D
:103EE0008727490030008D47B28526853EE43EC6CF
:103EF000EFF02FF12A86C5B7832549002685EFF01C
:103F00001FE3CDBF9840832649001166130606FCC7
:103F100093972600145B71771307F703BE969C42B4
:103F20007D8F93176400F18FD98F9CC249B7832688
:103F30004900E38E86F601472286814579B7EFC2B4
:103F4000EFDBAE842A843289EFF01FF39840AD474F
:103F50006318F700D040938584002285EFF07FB688
:103F60008C4483A9C400638E35072285EFF01F8837
:103F700011E5CE852285EFF07F872DCD9840AD47A6
:103F8000FD596306F7002285EFF0DFB7AA891C48C8
:103F9000054781465CC84A868D452285EFF03FC1C2
:103FA0001C488D45AA8A5CC8014785464A862285F9
:103FB000EFF0FFBF2A8ACE852285EFF01FB8832954
:103FC0000401CC445687CA864E862285232A3401B2
:103FD000EFF01F948C445287CA864E862285EFF0FC
:103FE0003F93FD579CC4DCC49D4723A224019CC081
:103FF0006FC00FD47D5AFD5AD9B7EFC2CFD19C41C3
:1040000031472A84AE843289639DE7021C41D44142
:104010009C5B8A06B6979043ED471377F6036315CA
:10402000F7021C49134719008146FD171CC95D8220
:1040300093052002EFF0BFB72285EFF0BFAC6FC051
:10404000CFCF1D47638DE70085452285EFF0BFCABE
:104050000346C402A68522857D16EFF0FFE1A68502
:104060002285EFF02FFE4A87D4401306F00F930508
:1040700030022285C1B7EFC20FCA2A84AE84EFF0A6
:10408000DFD8A6852285EFF0EFFB22858545EFF08E
:104090009FC60346C402A68522857D16EFF03FEA3F
:1040A0006FC0AFC9EFC22FC72E84AA84EFF0FFD52F
:1040B00018409D476313F70218445C445040630B5B
:1040C000F70083C7A402634AF600A2852685EFF0B5
:1040D0001FE7504032856FC04FC6A2852685EFF09E
:1040E0009FF9C5BF9841A5476316F7009845DC4581
:1040F0006308F700EFC22FC2EFF0DFFA6FC0EFC323
:104100008280EFC24FC19845DC456306F700EFF0AF
:104110007FF96FC08FC2EFF05FCFE5BFEFC2AFBFD7
:1041200041112E84AA84EFF0DFFD1C401547FD17D6
:104130006364F70669678A0713078728BA979C4361
:10414000828785473EC430003EC6B28529A802C496
:104150008547D5BF9C4402C63000DC578A853EC0E7
:10416000930750043EC22685EFF0AFC929A04C400A
:104170002685EFF0DFBB48C0484091471CC093073D
:10418000F00F63CBA7001365051041016FC0EFBAB4
:104190005C608D473EE445BFA2852685EFF09FF029
:1041A000EDB7EFC2AFB59C412547AA842E84328972
:1041B0006382E7022947638EE70221476396E7029D
:1041C000B285EFF02FE85040CA852685EFF03FD743
:1041D0006FC00FB6B285EFF0FFEC544001472A865E
:1041E000A5452685EFF0BF9CCA852685EFF08FE5B3
:1041F000C5B7F831A147A9496303F700A149CA85AA
:104200002685EFF0BFF12A87831644007020CE8503
:10421000C9BFEFC24FB041112A84AE843289EFF09A
:104220007FE8D440A685228536C6EFF0AFE183470C
:10423000C40222858945DCC09D479CC0EFF0BFAB1E
:10424000D040CA85228532C4EFF05FEDB2462246E7
:104250002A87B1452285EFF09F95CA852285EFF028
:104260006FDE41016FC06FADEFC2EFAA2E84AA844A
:10427000EFF0BFB91C4019476360F70211477D5644
:1042800063F4E70209476381E7020146A2852685B8
:10429000EFF0BFD62A8609A82D47E398E7FE4C40E9
:1042A0002685EFF0EFDF50409305C4002685EFF040
:1042B0005F810C442685EFF05F88FD571CC46FC0FA
:1042C000CFA7EFC24FA52E84AA84EFF01FB41C40E5
:1042D0000D477D566388E7002D476382E702054757
:1042E0006391E702930584002685EFF08FFD4C442F
:1042F0002685EFF09F84FD575CC46FC00FA450402B
:10430000D5B70546A2852685EFF03FCF2A86D9BFCF
:10431000EFC26FA0DC412E84FCA1B285EFF01FE05C
:1043200014404AA02547A1476393E600A5477CB007
:10433000A9471CC06FC06FA0EFC2EF9DB1474111EC
:104340006386F50263E8F502CD476387F500D14740
:10435000638AF500B2850DA8B285EFF0FFF0410148
:104360006FC0AF9DB285EFF0DFF5D5BFB285EFF03E
:104370009FD0F5B72A848145328532C6EFF04FB61B
:10438000324671FDB2852285EFF05FD9C9BF1C4965
:104390001441139727009C5EBA9723AEB7FE828024
:1043A000EFC2CF9589474111AA843284638DF50409
:1043B0002E89B68963E8F5008D47638DF5004101CC
:1043C0006FC00F97E96693860633B1052105EFF0BC
:1043D0006FE175F5A2852685EFF0DFCC2AC6A285B0
:1043E0002685EFF02FC6B246930599010147014695
:1043F0002685EFF0CFFBB14748C01CC0CE8526858F
:10440000EFF0FFF86DBFB285EFF03FA014402D47ED
:104410009387F6FF6362F70269678A071307072A23
:10442000BA979C43828789471CC039A08D47EDBF4E
:104430004C402685EFF0CFC60C445C4426854CC426
:104440001CC4EFF00FB80C442685EFF08FB785BF82
:104450009D47638DF60085452685EFF0DF8903C60D
:10446000C402A28526857D16EFF01FA1A2852685B0
:10447000EFF04FBD4C402685DE0593E5B501EFF02A
:104480000FCD48C0B1474DB7EFC24F874111AE893C
:10449000B685B2842A843A8936C6EFF03FC82AC46A
:1044A000A6852285EFF09FC732462AC2A6852285BF
:1044B000EFF0CFBA224792460146CE852285EFF033
:1044C0000FEFB147C8C09CC0CA852285EFF03FEC12
:1044D00041016FC0EF85D14763EFB712EFC20F8282
:1044E0003A8A6967939725001307072DBA979C436B
:1044F00041113689B284AE892A848287B685EFF06D
:10450000DF90D0449305C9002285EFF08FDB414650
:10451000CA852685EF10711A41016FC06F81B6857B
:10452000EFF0BF8E904493058900F9BFB685EFF098
:104530005FBD83290900B1476396F9041C40032736
:1045400049009C5B0A07BA979C43754793F7F703AA
:10455000639AE702A6852285EFF0CFAE14400327C9
:10456000490093172700985AD4403E971C43DE0613
:10457000A607A583D58F1CC38327490023A0340138
:10458000DCC059BFCA852285EFF0FFAE5287CA86CC
:104590002686F5452285EFF03FEFBDBF2105EFF000
:1045A0006FC43DF95287CA8626869385D900DDB748
:1045B0001842914754426314F70093E60610CA85E7
:1045C000228536C6EFF09FB52A8A4A86A6852285BF
:1045D000EFF0CFA8C147B246638CF90063E5F9005C
:1045E000C94763F43703528705469385290121A003
:1045F00052870146FD452285EFF06FDB2285EFF003
:104600006FD0AD47C8C09CC001BF36870546D28673
:104610009385F900CDB78280EFB2FFEF1304F6FF68
:10462000130620033344C402FD572A89AE840504CF
:104630006393F60081469307F01F63CE87002287BD
:1046400026869305B0024A85EFF06FD685042306CF
:1046500099026FB09FEE014726869305B0024A8506
:10466000EFF0EFD49315640093E5E5024A85EFF08F
:104670000FAEE9BFEFB23FEA2A84EFD06FEEAA8512
:10468000814601462285EF10E0256FB01FEB1C41EB
:1046900048499C43DC479C5B1D8D09857D158280C4
:1046A000EFB27FE71C419C43DC47805F01C8EFF01D
:1046B0001FFE0A052A9408406FB03FE87D55EDBF04
:1046C00018258547631AF7005C4910519843D44F69
:1046D000118FB29694C3D8CF8280EFB23FE26D6A59
:1046E000817A696B4111AA84AE893289130A4ACD55
:1046F000850A130B0B4B4E8693051900268536C68B
:10470000EF10A051B24688C26310051A01488148D3
:104710007D5413035002130E9002930E4002114F6A
:10472000F94F428763443803FD576305F40A9C58E8
:104730001317240031463E970C4313F7F503636BC0
:10474000E608131627005A96104202869C58131644
:1047500028000508B2979C4313D6670093F5F7032A
:104760001376F60F6360B30263F0D5056383E50348
:10477000638FF503D2959C2193F70704DDD3E312F1
:10478000C9FA31A8E398C5FF93071600E3DB27F9C0
:1047900039A0E348C9F8DD83B297E3C427F97D5413
:1047A000E34117F93A84B5BFE34DC9F6CDBFB983EC
:1047B000D697C297E357F7F6E3C5F9F6E3D3F8F6D1
:1047C000BE8885B713D97501998193F5F50FA28934
:1047D000E343B9F241016FB0BFD593D9E5009D47DE
:1047E00093F9F91FDD81631DF70222868505268571
:1047F00036C6EF108042B2462A894E86A2852685AB
:1048000075286308090AB7A501009385055A4A85EA
:10481000EFB0BFEA59ED37A50100130585595DBF1B
:10482000BC408E05BE9503A905006304090041093B
:10483000E9B737A901001309C9B4C1B7BC40DD818C
:104840008E05BE959C4181CBC10737A501009CC256
:104850001305455841B7B7A701009387C7B4F5B70B
:104860000546B9816307C70005040A04A2978C4373
:104870009981DC548E051147BE95DC41BD8BE39BCD
:10488000E7F49C4137A501001305C558C1079CC238
:1048900091B7B98113F6F51F2685A285052037A5A6
:1048A0000100130545653DB737A5010013054557C0
:1048B00015B737A501001305C55729BFEFB2BFC50E
:1048C0001378061036846306080258559377F6EF7E
:1048D0008E07BA97D84391463D8B6309D700B7A797
:1048E00001009387C7B41CC06FB03FC59C43C1078C
:1048F000DDBFEFF09FDE65D50307050093073006A7
:10490000E31FF7FCD5B7EFB21FC15849411102C6EA
:104910003E33898B81EB37A50100130505AB4101BF
:104920006FB0BFC11C432A8984438147F02093861E
:10493000040163C7C702004B33848540E34D04FC88
:104940005C43E3FAF5FC3A85EFF07FD4AA85C844CE
:10495000135634407400EFF05FD82A864DDD15A061
:10496000884291060841639CA502D8448E073843CB
:10497000BA979C4385C3C10737A601003EC61306FC
:104980004658B246B7A50100938505684A85EF30C1
:10499000805471B7B7A701009387C7B4F1BF8507EB
:1049A00049BF63C805005C491305450381C9639489
:1049B000A700814501A8FD159C47CDBF6384A700D2
:1049C0003CD285452E858280EFB2FFB101112E8940
:1049D000AA843284EFF0DFCE030709009307E003D7
:1049E0006311F70A83ADC4000509014DE11D23A63B
:1049F000B40183A74D001947814CFD8B6394E700F8
:104A000083AC0D00B7AB0100696CB7A9010037AAF0
:104A100001004A8B854A938B0BAB130C4C4E938948
:104A20000965130A4A6683070B00ADE39305600628
:104A30004A85EF20012901CDDC4403A70D00A10721
:104A400023ACE7FE03A74D0023AEE7FEDCC42685BA
:104A5000EFF01FC79305C0044A85EF20812611CDD2
:104A600063880C0003C74C0093076002631AF720A9
:104A7000DC4423A20700A107DCC4568505616FB0A2
:104A80005FAA032D0406832D0D00A5B71307C006EA
:104A90006384E70C6341F702130730056387E7047B
:104AA000130760066387E7001307C0046383E7000A
:104AB000814A050B8DBF130740076389E70E130773
:104AC00050076387E70A1307E006E393E7FE6302F4
:104AD0000D1283572D0213F707106DC7B7A70100FA
:104AE0009387C7E95CC04E8511A263880C0003C799
:104AF0004C00930760026317F702B7A70100938782
:104B000047671CC8FD571CCC5CCCB7A70100938736
:104B1000C7670C485CC41306C00313054402EF309A
:104B2000A05841BF03A7CC003C4789CFC1071CC890
:104B30005C5318571CCC58CC99CBB7A7010093876E
:104B4000C764C1BFB7A7010093878764CDB7B7A774
:104B50000100938747AB75BF7D5563090D008357EF
:104B60002D02898B81C76A85EFF09FB348C891B742
:104B7000814763840C0083C76C002300F4026388C0
:104B80000C0003C74C00930760026318F7008547C9
:104B90002301F402A300040229BF83A7CC00F83349
:104BA0002301E402FC23A300F40221B78147630838
:104BB0000D0083472D0293F70702E207E187A30167
:104BC000F402C5BD93F707028DE703258D003E3142
:104BD00013F7270019CF918B95C3B7A701009387CF
:104BE000C7B437A501005CC01305C56508C4E3124E
:104BF00005EC232474012322040065BD1C419C4361
:104C000003A8C70042C6EFF09FA83248131725003B
:104C10009306300283270803AA85BA9790439377B7
:104C2000F6031387A7FFE3E6E6FC0A07629718433B
:104C3000028785479848F1078A07BA97DC47C1077A
:104C400055B51982930644001376F60F4285EFF0AE
:104C5000DFA869BF23224401528549BFE517D9BFA8
:104C6000C947C9BFCD47F9B79147E9B7D947D9B7C0
:104C70009547C9B7D1477DBFD5476DBF81475DBF58
:104C800083A7CC002685014483A98703EF50D03940
:104C9000DC44130750042A8988C3D8C3A107DCC4A5
:104CA00085473ECC3ECE83A7CC009C4FE357F4DC37
:104CB00093172400CE9790433408CA852685EF5079
:104CC000104E0504CDB7EFB21F855D712A842E8783
:104CD0001DC6B285C1051306C003480836C63AC4CE
:104CE000EF30803C2247B246B7A5010050089385BB
:104CF000855A2285EF30201E61616FB01F849307B3
:104D0000F003FC82D5B7EFB21F81784D2A841DC70E
:104D10004C451C510546BA9703A785FF98C103A7C8
:104D2000C5FFD8C1984323ACE5FEDC4323AEF5FEB6
:104D3000938785005CC5E115EF00D0278945228562
:104D400069245D7132DC36DEBAC0BEC2C2C4C6C6DA
:104D50001C4922D426D2DC4706D62A84444963560D
:104D6000F0002EC6EF10F04CB2453018228532CE3E
:104D7000EF302018BE30898B91CF2AC62685EFF000
:104D80003F929C40B245AA869C432285DC47B047AF
:104D9000EFF07FF32285EFF01FF7EFB2CFF741116D
:104DA0002A8432C6AE84EF60400E2AC4A6852285CE
:104DB000EFF07FB5A2463246B7A501002A8793855A
:104DC000C5622285EFF0FFF7EFB2EFF4DC41054753
:104DD000BD8BF5176363F700B28537A60100130694
:104DE000465BEFF09FFBEFB20FF3D8418D47011107
:104DF0002A892E84B2846319F7009C613EEE3686C0
:104E0000A6854A85EFF07FF96C08228536C6EF60EB
:104E1000100EB2466DF5A284DDB7EFB2CFEFD841E8
:104E2000CD474111AA842E8432896310F7029C4138
:104E30003EC6CA852685EFF01FADB7A501002A86BC
:104E4000938545602685EFF0DFEF01466C002285F3
:104E5000EF60301079FD2289E9BFEFB2CFEB41114D
:104E60002A8432C6EF6060023246AA842285B28567
:104E7000EF60A001AA852AC62685EFB01F84B2463E
:104E8000268601E9B7A501009385055C2285EFF030
:104E90005FEBB7A501009385455E2285EFF07FEAC1
:104EA000EFB2CFE53C55444903290507FD173CD532
:104EB00085E39377890089CF7C5185493CD5BE3005
:104EC00013F7070419CB93F7F7FBBEB06FB04FE6AB
:104ED00093774900E5DF8149DDB72A8463850900BE
:104EE0007D568D45F12613794900630109049C40E4
:104EF000C8487D569C43DC478C5B9C5F3307B540BC
:104F000009877D1789C793162700BE96904201CF67
:104F1000184C637AA700FD5689C70D8FBA9783A6F0
:104F2000C7FF6305D600894522855926DC48182429
:104F300085461CCCE31CD7F86383090038D4F117ED
:104F4000DCC8BE308545228593E70704BEB05C44CB
:104F5000E1179CC09D28EFB20FDC9147AA843284F0
:104F6000638CF50099476384F5025C4503A787FFCE
:104F700018C283A7C7FF39A01C49BC5F1CC2DC2331
:104F800093E707045CC02104C0C46FB00FDBB7A572
:104F900001005D4693854578EF50604C08C05C2168
:104FA000C5B7EFB24FD740450E06AA84118C40C555
:104FB000EF50E04E08C05C21094593E707045CC050
:104FC000DC44A107DCC46FB04FD7EFB2CFD41C597B
:104FD00081CB23ACB712138587008545EFB06FE70F
:104FE00004492A840CA4BC58985B11CFD847930677
:104FF0008700D4C754453E8503A686FF10C383A609
:10500000C6FF54C3D937FC5489CF5045EFF0BFF4E5
:105010005C485844D44363F3E600D8C3FC5422856B
:105020008297EF00012095CDEFB2EFCEAE868305DB
:10503000060041112A84368532C636C4EF10714805
:10504000A246324601EDB7A501009385C5682285C9
:10505000EF2070688D452285EFF03FF741016FB07A
:10506000CFCD8280EFB28FC9AA84884141112E84AE
:105070001C411387F7FF18C1A9C35C4113871700B0
:1050800058C19C236D474C5803290400832984038D
:105090006399E70237A601001306866B2685EFF0B9
:1050A0009FF84E86CA852685EF60A044AA8526858E
:1050B000EF00901C41016FB0AFC7EF800025AA87B9
:1050C000D1B737A6010026851306066C3EC6EFF061
:1050D0009FF5B2474E879306040113064400CA8524
:1050E0002685EF405048D9B7EFB2EFC28357E506A7
:1050F0004D7118083EC21C592AC018D928082EC460
:1051000032C6232401143EC8EFB06FCE09E5B24584
:105110000245A24782970247C247032581141CDB40
:10512000BA8712472397E70671616FB00FC1EFB2DC
:10513000EFBC13871500B70700200451832905062B
:105140006364F700EF20407A139935002E8ACA86EF
:1051500013963900A6852A84EF20007A08D063C30D
:1051600049035C44130989FD2A99858FAA975CC479
:105170005C5023204407232E240181EF5C4885E303
:105180006FB00FBB93973900AA9723A20700850938
:10519000F9B79843058F2A9798C39C47F9BFD8431E
:1051A000058F2A97D8C39843058F2A9798C3BA3397
:1051B000098B09C7984B058F2A9798CB9C47C1B795
:1051C000EFB26FB53851B7460F009386062463D50A
:1051D000E6009945EFF07FDF5C4510512A84918FFE
:1051E0008D87AE9793151700950763D3B600B685E4
:1051F00063D5F50237470F0093060724BE8563DEAB
:10520000F600930587302285EFF07FF2B7A5010005
:10521000938505D52285EFF0DFB22285EFF03FF1CF
:105220006FB0AFB1EFB22FAF40455C49AA84B9E788
:105230009C50B85026851D8CB7470F000D8493876E
:105240000724050463D2E704EF409053B7470F00EB
:105250001387B72363428702A145B345B4029387FE
:105260000724A295A90563D3B700BE85BC5063D5BA
:10527000F5002685EFF0BFEB6FB02FACD84363731A
:10528000E4003A849C4765B7EF40306DC1B7EFB298
:105290008FA858455C4D2A84998F21476345F700B4
:1052A0008545EFF0FFF15C44A1075CC46FB0EFA847
:1052B000EFB2CFA4032A8505597163040A06834718
:1052C00045072A84B9CF444958451C5103A94400D5
:1052D0002EC6B309F7403309F9405C4D32D0A6D64B
:1052E000998F1307000A6345F700D145EFF05FED92
:1052F0005C446C0022859387070ADCC0230A0406FD
:10530000BE3093E74700BEB0029A8547230AF406F1
:105310001C503E9923A22401CE975CC4BE30ED9B65
:10532000BEB065616FB0CFA0EFB24F9D385941114B
:10533000AA84937767002E840399050295C3098B8D
:1053400009CF83290502854536C6B30936417D5606
:10535000EFF01FF69050B2464E961C44DC4B9CCCAE
:105360001C440840DCC86301090285476307F90053
:10537000FD576317F90401471DA899E2138641827E
:105380001C421CC15C425CC193173900B306F50096
:10539000D4C405451DA093173700B305F500B29797
:1053A00003A80700050723A00501DC43DCC1E34493
:1053B000D7FE8E06AA96D4C4014541016FB04F971F
:1053C000814563DA260363CBD50263D306008146A9
:1053D000E3DC26FB139736002A9723220700850675
:1053E000C5BF13973500B307E50032971443850511
:1053F00094C35843D8C3E3C625FF79B71397350044
:10540000B307E500329703280700850523A00701AD
:105410005843D8C34DBFEFB20F904049AA843E30E5
:1054200013F7070109C7BD9B3EB05C487CCD03174D
:105430000402FD576317F700DC4458406373F7001C
:105440005CC01C48104C26858297D04493173500C9
:10545000AA861D8EA2852685EFF01FED6FB0EF8D19
:10546000EFB26F8B2A8481C58C41EFF0DFFA930491
:1054700044035C48639497006FB02F8CBE33898BD4
:1054800091E785452285EFF01FF9E5B72285EF60AA
:1054900010342285EF603046E9BFEFB24F852A8491
:1054A000AE84B289D94A130B6002194AA14BD44089
:1054B0000329C400584C93F6F6033307274163874A
:1054C000561963836611639B461B9C4033099940C0
:1054D0001359394083AAC7000D87930BF9FF03CBFB
:1054E0008A006341EB021C509D8C1C48DC476355CD
:1054F000F0002285EF10E053DA852285EFF05FCCD3
:105500001C50BE9483C77A0003C66A0063830716E3
:10551000E157B307F902032AC4000145D297AA86CE
:105520006351C5024C44A10713878500634375137B
:10553000BA8723AE07FE85063E87A107E3CBC6FEEA
:1055400058C45C4803A9C700631609002285EF40D0
:10555000D0202A89232A24010E0B2328490183A75E
:105560000A035A9A2858231039032320990023222A
:105570004901232644010947232AF9002311E9029E
:10558000058979C1032789009107232AF9003E3351
:105590008145898B99CF5C4B1307500283A7C7FFC6
:1055A00093F7F7036397E700930720022311F902AB
:1055B000914522857D56EFF0BFCF832749010145F4
:1055C000F117232AF90049A09C4003AAC7009307BA
:1055D000000A63C1E7021C509D8C1C48DC476355E0
:1055E000F0002285EF10E044D1452285EFF05FBD49
:1055F0001C50BE945C4803A9C700631609002285AD
:10560000EF40B0152A895C44232A24012310390372
:105610009387070A2322F9003C582320990023117D
:105620000902858B91C77D5681452285EFF05FC8C1
:105630002285029A504493173500AA861D8ECA858A
:105640002285EFF07FCE05456FA0FFED03AA040091
:10565000BDBF58C49843050598C1D843D8C123A2FB
:10566000070075BD5C44850B1387870058C423A2CF
:105670000700E3C9CBFE138A8400E1B563C1EB02E6
:105680001C509D8C1C48DC476355F0002285EF10B0
:10569000403A85452285EFF0BFB21C50BE945D466E
:1056A000A6852285EF50E0795C41BD8B638A470176
:1056B00037A601001306C66DA6852285EFF0EFED33
:1056C0005844BA8763E9F4001C41210758C49CC0C0
:1056D0005C41DCC0E9BB83A687FFE11794C7D443D4
:1056E000D4C7CDB7EFA23FE394414C452A849397AA
:1056F00036009D8D1C2599EB7D56E115EFF0FFD905
:1057000001E52285EF60301F6FA03FE34449230489
:1057100005001C51D84CBA979CC0BE30898B81CBF8
:10572000EF60701D81452285EFF09FD3F1BF9C484B
:1057300089CB904C854582974C4493173500AA86B7
:105740009D8D2E862285A685EFF01FBEE1BFEFA2BC
:105750009FDCEFF09FD46FA05FDEEFA2DFDB83570B
:10576000E5061307700C2A848507C207C183231737
:10577000F5066373F7021307800C6398E700B7A57B
:1057800001009385856CEFF0CFDB1307000E637586
:10579000F7009945EFF07F832285EFF01FD001E5F8
:1057A0002285EF6050158357E406FD172317F40692
:1057B0006FA0BFD8EFA23FD68357C5062A848507BE
:1057C0002316F506EFF07FF98357C406FD1723165D
:1057D000F4066FA09FD6EFA27FD21C25011132C61E
:1057E0002A8499EF5849930745036303F702B7A545
:1057F00001009385456EEFF0CFFA05616FA05FD38E
:1058000005476387E700B7A501009385C570E5B735
:105810008359C406A9E585472317F406B755000048
:105820002316040670009385456E2285EFF0DF8B0A
:10583000FD576308F5042ACE854A375A000072499D
:1058400063D32A054448A9E8504423042401CA85A7
:105850002285EFF04FF05C485844D8C32DA083D781
:10586000E5061307700C8507C207C1832317F406EA
:10587000E376F7FAB7A5010032469385856C228559
:105880009DBF89473ECE8357E406231634077245F1
:10589000FD172317F40695B7BE30C18B99E38444F6
:1058A0005DB7DC4C105022853E96B28532C4B12CD7
:1058B0002246CA852285EFF00FEA83C7240222859B
:1058C00044C8858B230AF40623160406EFF09F953F
:1058D000DC48700893050A467CCC2285EFF0DF8017
:1058E0002ACEB1BFEFA23FC30357C506AA8705C39F
:1058F0001849385B6308A700B7A501009385C572F6
:10590000EFF02FC4B7A5010093858575D5BF584921
:10591000054588A703A8070208433305054148CF7A
:105920002A33098919ED14CB91C210CFE1568505B0
:10593000B385D502D4473E85B6950CC38545EFF0B7
:10594000CFE801456FA07FBFEFA25FBB41110329E4
:10595000C50578CD36C62A84832A4501034A450702
:105960008359C506EFF04FF8AA84B2460DC5105012
:1059700022853696B28532C6492A32462285A685C8
:10598000EFF06FDD2285232A5401230A44072316F2
:105990003407EFF03F89232E2405268541016FA0AF
:1059A0003FB9EFA25FB78357C506397136DC85076B
:1059B0002316F50654451C51784D2EC2B7550000EC
:1059C0009D8E32DE9385450650002A8402CA02CE9F
:1059D00002D002D402D602DA02C402C8EFF0DFF627
:1059E0004246A245AA8481462285EF10F070724695
:1059F000D2452AC481460606228502C8EF10D06F20
:105A000022568255814612062285EF10F06E5256BC
:105A1000B255814612062285EF10106E8357C406D8
:105A20002685FD172316F40621616FA01FB1EFA292
:105A30009FAE139635002E84410693056002EF0059
:105A4000302F60A16FA07FAFEFA2FFAC13962500AF
:105A50002E8441069945EF00B02D2326050060A154
:105A60007D577D146314E4006FA03FAD93172400AD
:105A7000AA9723A80700F5B7EFA25FA8AA892E89E5
:105A8000938405010144054A834769006344F40097
:105A90006FA01FAAC146014681454E85EF10D06513
:105AA00093078500232245011CC12326050088C0D9
:105AB00005049104D1BFEFA21FA62A841309450251
:105AC00048511DE9AE84C146014681452285EF104B
:105AD000B06283270900232205001CC585475CC5E9
:105AE0005C542320A90004C1639687001C48F84F2A
:105AF00058D4E0CF6FA07FA41C41E3E5B7FCE38B53
:105B0000B7FE1309850008456DBFEFA2DFA02A8408
:105B1000AE844C5081C59C4163F497006FA0FFA1F7
