:040000006F10C0338A
:100004000000000000000000D4070000D607000034
:10001400000000003A13000000000000000000008F
:100024003A1300003A130000000000000000000032
:1000340084E6000000000000000200000000000050
:100044003A1300003A1300003A1300003A13000078
:100054003A1300003A1300003A1300003A13000068
:100064003A1300003A1300003A13000082DD000046
:1000740020DE0000BEDE00005CDF0000FADF0000CE
:1000840098E0000036E100003A1300005CDA00005A
:100094000CDB0000BADB000068DC00003A1300004F
:1000A4003A1300003A1300003A1300003A13000018
:1000B4003A1300005EE200003A1300003A13000015
:1000C4003A1300003A1300003A1300003A130000F8
:1000D4003A1300003A1300003A1300003A130000E8
:1000E4003A1300003A1300003A1300003A130000D8
:1000F4003A1300003A1300003A1300003A130000C8
:10010400000000003A1300003A1300003A13000004
:100114003A1300003A1300003A1300003A130000A7
:100124003A1300003A1300003A1300003A13000097
:100134003A1300003A1300003A1300003A13000087
:100144003A1300003A1300003A1300003A13000077
:100154003A1300003A1300003A1300003A13000067
:100164003A1300003A1300003A1300003A13000057
:100174003A1300003A1300003A1300003A13000047
:100184003A1300003A1300003A1300003A13000037
:100194003A1300003A1300003A1300003A13000027
:1001A400000000000000000000000000000000004B
:0C01B4000000000000000000000000003F
:10020000130181F806C216C41AC61EC822CA26CC1B
:100210002ACE2ED032D236D43AD63ED842DA46DC76
:100220004ADECEC0D2C2D6C4DAC6DEC8E2CAE6CC46
:10023000EACEEED0F2D2F6D4FAD6FED8F3220030CF
:1002400096DA9702002083A2E20A23A02200F32577
:1002500010342EC09305000273A0458003A1C18213
:10026000EFF0A067170300200323C3080321030056
:10027000824273901234D652739002309240A2425E
:100280003243C2435244E244724582551256A2564A
:100290003257C2575258E25872598649164AA64AEE
:1002A000364BC64B564CE64C764D865D165EA65ECA
:1002B000365FC65F13018107730020301300000012
:1002C00013000000130000001300000013000000E2
:1002D00013000000130000001300000013000000D2
:1002E00013000000130000001300000013000000C2
:1002F00013000000130000001300000013000000B2
:1003000083A2C182938202E073900234170100201D
:10031000032141FE024182403243C2435244E2443F
:10032000724582551256A2563257C2575258E25859
:1003300072598649164AA64A364BC64B564CE64C6D
:10034000764D865D165EA65E365FC65FD652A1020A
:1003500073900230A24213018107828013000000D3
:100360001300000013000000130000001300000041
:100370001300000013000000130000001300000031
:100380001300000013000000130000001300000021
:100390001300000013000000130000001300000011
:1003A0001300000013000000130000001300000001
:1003B00013000000130000001300000013000000F1
:1003C00013000000130000001300000013000000E1
:1003D00013000000130000001300000013000000D1
:1003E00013000000130000001300000013000000C1
:1003F00013000000130000001300000013000000B1
:10040000F322003093F272FF130380781203B3E2F9
:100410006200711523205500130585FA10C12115BE
:10042000232005009302000063870200711523203A
:100430000500FD12D5BF71150CC1828000000000BF
:1004400000000000000000000000000000000000AC
:10045000000000000000000000000000000000009C
:10046000000000000000000000000000000000008C
:10047000000000000000000000000000000000007C
:10048000000000000000000000000000000000006C
:10049000000000000000000000000000000000005C
:1004A000000000000000000000000000000000004C
:1004B000000000000000000000000000000000003C
:1004C000000000000000000000000000000000002C
:1004D000000000000000000000000000000000001C
:1004E000000000000000397101436EC619A0397187
:1004F00041536AC866CA62CC5ECE19A039710153F5
:100500005AD056D252D44ED64AD826DA22DC06DE4B
:1005100033016140828241114AC026C222C406C60C
:100520008282B24D4101024D924C224CB24B4101AC
:10053000024B924A224AB249410102499244224462
:10054000B240410182803D432A876373C30293779F
:10055000F700BDEFADE5937606FF3D8ABA960CC372
:100560004CC30CC74CC74107E36BD7FE11E2828036
:10057000B306C3408A069702000096966780A600DD
:100580002307B700A306B7002306B700A305B700EB
:100590002305B700A304B7002304B700A303B700E3
:1005A0002303B700A302B7002302B700A301B700DB
:1005B0002301B700A300B7002300B700828093F5A2
:1005C000F50F93968500D58D93960501D58D61B76E
:1005D000939627009702000096968682E78086FA17
:1005E0009680C1171D8F3E96E374C3F8A5B72320EC
:1005F000150040C104C52326250123283501232ADF
:100600004501232C5501232E650123207503232248
:100610008503232495032326A5032328B503232A32
:10062000250200FD24E12724250527283505272C50
:100630004505272055072724650727287507272CF8
:100640008507272095092724A5092728B5090145ED
:10065000828083200500404104450329C500832989
:100660000501032A4501832A8501032BC501832B3C
:100670000502032C4502832C8502032DC502832D20
:10068000050303214503007D24610729850487298B
:100690000505072A8505872A0506072B8506872B6A
:1006A0000507072C8507872C0508072D8508872D4A
:1006B000050913B515002E9582803367B500FD53EB
:1006C0000D8B79E7B7877F7F9387F7F710419441C8
:1006D000B372F6003363F600BE92B3E26200639534
:1006E000720C6318D6065041D441B372F6003363DE
:1006F000F600BE92B3E262006396720A631BD604F0
:1007000010459445B372F6003363F600BE92B3E22F
:100710006200639F7208631ED6025045D445B372CF
:10072000F6003363F600BE92B3E26200639872088B
:100730006311D60210499449B372F6003363F60090
:10074000BE92B3E26200639172085105D105E30FD6
:10075000D6F61317060193970601631CF70013578B
:10076000060193D706013305F7409375F50F91E91C
:1007700082804183C1833305F7409375F50F91E182
:1007800082801377F70F93F7F70F3305F7408280D6
:1007900010219421050585056313D60075FA3305EC
:1007A000D640828011059105E314D6FE0145828072
:1007B0002105A105E31ED6FC014582803105B10566
:1007C000E318D6FC014582804105C105E312D6FC41
:1007D0000145828001A037A501005D7113050584E4
:1007E00082E686E48AE28EE012FE16FC1AFA1EF811
:1007F0002AF62EF432F236F03AEE3EEC42EA46E8C1
:1008000072E676E47AE27EE0EF50717A01A09D47CD
:1008100063E9A704EFF23FD0E967938707850A05EC
:100820003E951C4182873715014093050002130550
:100830000580EFD0301A11B38945371501401305F3
:1008400005C0C5BF9145D5BFA145C5BFC145F5B7D9
:1008500093050002DDB793050004C5B793050008B2
:10086000E9BF0145828037050020130545288280B5
:10087000EFF27FCA0111A1475C84B707002093877C
:10088000C7273EC8B7070020938787283EC6B7070B
:100890000304D1073ECA8947230CF100B7170000B3
:1008A0009387E78028003ECEEFC0B072056171B13A
:1008B000B707002003C527298280EFF25FC34D3FB1
:1008C000EFC090701C4137040020E964232AF4280B
:1008D000B70B0020130444299D49370A0020938454
:1008E0000487930A00F8130B00043709002005451C
:1008F000EFE05078EFC030730840EFE0E06A65D970
:1009000008407D5693850B29EFE0A044138C0B29FA
:1009100003470C0093860B2993073A2963E6E90401
:100920000A07269718430287054798A38C321306B7
:100930000008982393062929834729296399C5022A
:10094000D98F9CA26DB70947CDB71147F9BF214791
:10095000E9BF4147D9BF13070002C1BF2380670128
:10096000F1B723805701D9B723800700C1B71347D8
:10097000F7FFF98FF9B7EFF21FBA1145EFD0C03E7C
:100980000545EFD0D0080545EFD0900A8547E30C28
:10099000F5FE371501408565130505C0EFD030041D
:1009A00069BEEFF25FB7EF404126B7A7010003A68B
:1009B000078983A6478937A40100EF209178032691
:1009C00084898326C489EF204164EFF000770326F1
:1009D00084898326C489EF20D176EF402112420515
:1009E0004181A1BEB7070020938787293E95A30FB9
:1009F000B5FE82801307F003636AA700EFF2BFB170
:100A00004D37370700202318A72205BE9307F003B0
:100A1000370700202318F72282809307F00363EF43
:100A2000A702EFF25FAFB7A7010007A7078AD37746
:100A300015D0B7A701009D45D3F7E71807A7478A48
:100A40000545D3F7E710539617C0050642064182C5
:100A5000EFD0101D0545EFD03025C5B48280EFF2F0
:100A60009FAB370700208357472A9306F0031307ED
:100A7000472A8507C207C18363E1F60A1EA3B707A9
:100A8000002083580700370700209386072A035762
:100A900007232390060023810600B70600209386D3
:100AA000862988228C32B0229387072A63FCE802C9
:100AB000B70600209386C6293367B50003C8060031
:100AC000518F1347F7FF1377F70F3378070123810F
:100AD000070103C81600B42233780701758FA3807D
:100AE000070198A3370700200357272363FBE8007B
:100AF000B823598D9833A8A3D98D98238CB3598ED8
:100B000090A3371501408565130505C0EFD0606DD2
:100B10008D451145EFD0A0230DB42310070085B7F4
:100B2000EFF27F9F2D3F11BCEFF2FF9E2A84EF1062
:100B3000C01785476318F5020146FD55AA84228532
:100B4000EF10A0338145EFC0D01F530500F06316AE
:100B50009500B7A7010007A5878A2285EF10E04915
:100B60000545E1BA0145F5BFEFF2FF9A2A84EF107F
:100B7000C01301CD8547630DF5000145537505D0C0
:100B80002285EF10804705454DBAEFC0207FFDB7A5
:100B9000014685452285EF10402EEFC05000F9BF79
:100BA000EFF2DF950111AA89EF10201005C98547E2
:100BB00001446312F5020D4685454E85EFF0D17A6A
:100BC000014685454E85EF10402B2AC42800EFC012
:100BD000A07F2A8409E92285056199BA2800EFC01F
:100BE000B0280144CDBF0086240001498504E354A8
:100BF00089FEDC204E85050953F517D0EF10E03F44
:100C0000F5B7EFF2BF8F01112A84EF10000A894770
:100C10006315F5041546FD552285EFF0F174014684
:100C2000F9552285EF1060252AC42800EFC0C0794D
:100C300085476315F504FD552285EF00625B2400AE
:100C400005499379F50F850463DD2901B7A70100F4
:100C500007A5878A2285EF10403A054505616FF0A8
:100C60003F8DDC20228553F517D0EF1000394A86DE
:100C7000F9552285EF10E06D0509F1B7530500F035
:100C80002285EF108037D1BFEFF2FF882A84EF1062
:100C9000C00189476310F502014685452285EF10A2
:100CA000C01D014689452285EF10201D4205418166
:100CB000EFC0502001456FF05F88EFF2DF852A8496
:100CC000EF00B07E85476319F5000146FD5522858A
:100CD000EF10A01AEFC0302601456FF01F863705D0
:100CE00000201305C52A8280EFF2FF821C4163DBDE
:100CF0000700860785831CC185471CC9EFC0D0113A
:100D00006FF0BF8323280500D5BFEFF22FFF01113D
:100D1000AA890949EF0070796351A9042A8A01461A
:100D200089454E85EF1060158545EFC0900193070A
:100D3000EAFF64002308F1000144A68A330949410F
:100D40008347010185040146634DF40085454E85C6
:100D5000EF10A0122AC65685413F014505616FF08C
:100D60002FFDB30589004E85EF102011C8A00504A2
:100D7000C1BFEFF2AFF801112A89EF0010731375AC
:100D8000F50F2308A100854763F3A702640001441F
:100D9000A6898345010185040146FD15634DB40014
:100DA00085454A85EF10600D2AC64E85353F0145C1
:100DB00005616FF0EFF7B305B4404A85EF10E00B23
:100DC000C8A00504F9B7EFF20FF501112A84EF006E
:100DD000D06D8D476315F5028D452285EF00F07AC1
:100DE0009547631EF500014689452285EF10E0080E
:100DF0001375F50F2308A100A14763F9A704014566
:100E000005616FF08FF3138914004A868D452285A2
:100E1000EF10A03A0146FD552285EF1000061C1088
:100E2000BE94A388A4FEF9552285EF00F068937460
:100E3000F90F83470101E3E8F4FC0146854522856B
:100E4000EF10A0032AC66800453555BF8144D5B7C9
:100E5000EFF26FE90111370900202328092A02CC9B
:100E6000230E010081441309092BB7090020B7ABF9
:100E700001000545EFE01020832709006385070E78
:100E80000547E398E7FE0145EFD0804A1384892A9D
:100E9000AA852A8C0840930A8101138B892AEF10B6
:100EA000A016032A04002934AA855285EF10C01524
:100EB000084009468145370A0020EF405006232AA2
:100EC000AA2A0144130A4A2B0D4D914D954C032536
:100ED0000B009377F40F9345F4FF01463EC6EF00F5
:100EE000D07983C60A0005041375F50F1377F40F44
:100EF000638CA600B2472380AA006382A723638382
:100F0000B723AA853A85F93C850AE31294FD850446
:100F1000C204C1809307803E6396F4028346A10118
:100F2000034691018345810137A5010013054595CD
:100F3000EF50E17537A50100E28513054596EF50A6
:100F4000017581440145EFD0803D03270A008547A4
:100F500063EDE71C0545EFE0F01103250B00F955A3
:100F6000EF00905539B71384892AEF00E22508C0B5
:100F7000EF00B2480840B71700000146938527D715
:100F8000EF1040170840B7A701009385C78AEF10FC
:100F900020380840B71700000146938567DCEF1042
:100FA00060150840B7A701009385478BEF104036C6
:100FB0000840B7170000938587B60146EF108013ED
:100FC0000840B7A501009385058CEF1060340840F8
:100FD000371A0000014693050ABAEF10A011084025
:100FE000B7A501009385C58CEF1080320840B71576
:100FF000000001469385A5D0EF10C00F0840B7A5AB
:1010000001009385858DEF10A030084001469305BF
:101010000ABAEF10200E0840B7A501009385858E0F
:10102000EF10002F0840B71500000146938585B2E8
:10103000EF10400C0840B7A501009385858FEF1095
:10104000202D0840B715000001469385A5CBEF1071
:10105000600A0840B7A5010093858590EF10402BEA
:101060000840B71500000146938525C0EF108008A1
:101070000840B7A5010093858591EF1060290840CD
:10108000B71500000146938585C8EF10A0060840FB
:10109000B7A5010093858592EF108027084001468F
:1010A0008D45EF10C05B9315A50013854B93EF5052
:1010B000015E0840B705020093858510EF00E20D40
:1010C000854519E9084081458147014781467D569C
:1010D000EF104047B335A00037A50100B707002047
:1010E0001305059423AAB72AEF50615A0840014618
:1010F0008D45EF10C0569315A50013854B93EF5007
:1011000001590145EFD000140840B7A501009385AF
:10111000C594EF10600685472320F90099BBEFF0D6
:10112000DF8FDDB3EFF01F8DC5B303250B00014644
:10113000FD55EF00D059AA8537A501001305459745
:10114000EF50E15489472320F90001BDEFF2AFBC15
:10115000094551210522EFE0106FEFE0716A7165DA
:1011600013050520EFE0D070B707002083A54723C3
:1011700037A5010013054598EF506151EFF0613C30
:10118000EFF06132EFE0603201A0B7170240984300
:10119000B706FFF041111367170098C3D84337060D
:1011A0000200758FD8C39843B706F7FEFD16758FFA
:1011B00098C39843B706FCFFFD16758F98C3D843B4
:1011C000B70601FFFD16758FD8C337079F0098C774
:1011D00002C402C69843C166558F98C3B716024031
:1011E00005679C42F18F3EC6A24785073EC4B247C1
:1011F00081E7A247E397E7FEB71702409C431397A6
:10120000E7006357070685473EC632478547631F99
:10121000F704B7170240D843B706C1FFFD16D8C37D
:10122000D843D8C3D84313670740D8C3D843758F72
:10123000D8C3D843B7063D00558FD8C39843B706E7
:101240000001558F98C3984393166700E3DD06FEAF
:10125000D843B7160240719BD8C3D8431367270001
:10126000D8C32147DC42B18BE39EE7FE4101828077
:1012700002C661BFB7160240DC421146B18B13872C
:1012800041806385C70021466388C702B7177A008B
:10129000938707201CC3B7170240DC43918393F662
:1012A000F700B707002093870700B69794231C43E5
:1012B000B3D7D7001CC38280DC42D4424166C983C5
:1012C000BD8BF18E890745466393C700C94781EE00
:1012D000B746024083A60680C18A89CEB7167A0037
:1012E0009386062021A8B7160240D4421396E60042
:1012F000E35606FEB7163D0093860690B387D702E5
:1013000051BFB7270020938787EB1CC1B727002068
:101310009387879F9CC1930700081CC28280B727D0
:101320000020938707FC1CC1B7270020938787BF45
:101330009CC1930700081CC2828001A097F1FF1F87
:101340009381416F177100201301C1CB17B50100C4
:101350001305853897F5FF1F9385C5CA1386C18489
:1013600063FAC5008322050023A0550011059105ED
:10137000E3EAC5FE17F5FF1F130585F0971500205A
:10138000938585486377B500232005001105E36D3B
:10139000B5FEFD42739002BCFD4273904280B7825D
:1013A0000000938202807390023097F2FFFF9382D5
:1013B000A2C593E2320073905230EFF01FDD970226
:1013C00000009382E2D87390123473002030931798
:1013D000350063DA0700B707024083A707407D8D19
:1013E0003335A00082809317250063D70700B70725
:1013F000024083A7074DE5B7B70702409C43C5B736
:101400009317350063D70700B707024023A2A74010
:1014100082809317250063D70700B707024023AAED
:10142000A74C8280B7070240C8C38280EFF2AF8E1C
:10143000793F6FF08F90EFF20F8ED9376FF0EF8F0B
:101440009C4513F7070113F8F70001C7D84133682B
:10145000E8008E2113F7F50F39C318418146854EF8
:101460003D4F930F800293028004214E3396DE009D
:10147000B3F8C500631116039398260033131F01B8
:101480001343F3FF3377E300B318180133E7E800A1
:10149000639FF70550C98506E39AC6FD18C1130777
:1014A000F00F6375B70454412146854E3D4F930FAD
:1014B000800293028004414EB398CE0033F71501A9
:1014C0006392E8021317260001173313EF0013434A
:1014D000F3FFB376D3003317E800D98E639DF7018D
:1014E000232A15010506E319C6FD54C18280E39441
:1014F00057FA10C94DB7E39757FE23281501DDB7FA
:10150000B7070140635A0504DC4F935605011318D1
:1015100005013707300013F6F60013580801B376BB
:10152000E50063500506639BE602930606010D463F
:10153000B316D60093C6F6FFF58F99C91357550118
:101540001377F73F12073317E800D98F6357050465
:10155000370701405CCF8280DC4345BF1317B500DD
:10156000635607008D46B396C600E9B71357550179
:101570001377F73F12073317E8001347F7FFF98F88
:101580006DBF6390E602370601405442370700F111
:101590007D17F98F758F58C2D5F1370701405CC3AD
:1015A00082801317B500635C07008D46B396C600B2
:1015B00093C6F6FFFD8EB707000FD58FF1BF135707
:1015C000550112073317E8001347F7FF7D8FB70760
:1015D000000FD98FD1B7B707002023ACA72A82808C
:1015E000371702405C439146B18B6385D700A14613
:1015F0006382D706B7177A00938707201CC1371676
:1016000002405C4237070020130707019183BD8B1E
:10161000BA9794231C41B3D7D7005CC15442A1822E
:101620009D8ABA969422B3D6D70014C55442AD828F
:101630009D8A36971823B3D7E7005CC55842398393
:10164000937637001387818036971823B3D7E70244
:101650001CC982805C4354434167C983F98E37F7C4
:10166000FF1F0327C770BD8B890713161701634837
:101670000600454601476392C702C94739A8094792
:101680006389E7023D476388E70241476388E702D1
:10169000454601476393C700C14785E6B746024008
:1016A00083A60680C18A8DC6B7167A009386062067
:1016B00025A00147D9B70547B547C5B70147BD477D
:1016C000E9BFB7160240D4421396E600E35E06FC7B
:1016D000B7163D0093860690B387D7021CC105D389
:1016E0001C41858321BF99C5371702405C4B5D8D36
:1016F00048CB8280B7170240D84B1345F5FF798D50
:10170000C8CB828099C5371702401C4F5D8D08CF2A
:101710008280B7170240984F1345F5FF798D88CF27
:10172000828099C5371702405C4F5D8D48CF82801B
:10173000B7170240D84F1345F5FF798DC8CF828087
:101740001E31922103D82500C207C183F99BC2072D
:10175000C1831EB11E3156211A2DC207C183420713
:1017600041831377C7F8518F9225F59BC2063366E4
:101770000601D18F37360140130806C0C182630EBF
:10178000050113060640630AC500375601401308D9
:1017900006C0630405016310C502B225DD9B03D8B2
:1017A000E500D18FD221ED9B93F6F6CFD18FD225D4
:1017B00033660601D18E56A11AADFA215AB91EB16F
:1017C00082801E3165771307F7CFC207C183BD9BA7
:1017D000C207C1831EB11E31562103D88500C2073E
:1017E00013960601162DC18393F7F7FD758F962189
:1017F0004182A206558FB62142074183B3E6060116
:101800009206D58FB7360140C207138806C0C18340
:10181000630E050193860640630AD500B756014062
:10182000138806C063040501631ED502B62593F72D
:10183000F7F703D8C5009206D58FD621C207C1831A
:10184000920693F7F7FBD58FFD769386F63FF18EE0
:10185000F225C207C183336606010A06D18E1396AC
:101860000601418252A11AADFA211ABD1EB1828031
:101870001E3103D88500C207C18393F7F7EFC20773
:10188000C1831EB11E3156215A2DC207139606017F
:101890004207962141831377C7F8558FB621C1833C
:1018A00093F7F7DFB3E60601A206D58FB7360140FE
:1018B000C207138806C04182C183630E0501938667
:1018C0000640630AD500B7560140138806C063047A
:1018D0000501631FD502FD769386F67FF58FB62549
:1018E00003D8C500A206D58FD621C207C183A206A0
:1018F00093F7F7BFD58FF576FD16F18EF225C20767
:10190000C183336606011206D18E13960601418209
:1019100052A15AADFA215ABD1EB182801A31FD770B
:10192000FD17F98F1EB10358050256215E2D65770C
:101930001396060196211307F7CF7D8FF977A2063C
:10194000FD17558FB3F70701B62103D8850042076D
:101950004182B3E60601B206D58FB7360140C20711
:10196000138806C04183C183630E05019386064038
:10197000630AD500B7560140138806C06304050109
:10198000631BD500F176FD16F18ED2251A06D18E95
:1019900013960601418252A15AADFA212310E504A3
:1019A0001EB182801E294A25ED8F4205418189C7DB
:1019B0006D8D3335A000828001458280EFE2BFB596
:1019C0001629F577FD17F58FF621DA257971D58F70
:1019D0001EA95625FD779387379FF58FD6212A8438
:1019E0002EC6D58F9625D58FB625D58F5EA55E29B7
:1019F000C207C18393F7F7CFD98F5EA96808CD36A8
:101A0000B747014093870780B245631EF402A2578F
:101A10006547B387E7029841930640060A07B3D7A4
:101A2000E70233D7D702B3F7D7021207920793879B
:101A30002703B3D7D702BD8BD98FC207C1831EA49A
:101A400045616FE09FAF9257E1B791C55E25096789
:101A5000D98F5EA582805A25F977FD17F98FD5BFFA
:101A600093F5F51F4EA182800A216D8D3335A000BC
:101A700082805449635CB000939735008C42BE95D8
:101A80005C4563EFF5009385418219A8B7C7F0FF65
:101A90001387979D63C8E500939735004C45BE9525
:101AA0002E8582801387879D6396E5000C49938578
:101AB0004502FDB794425946C842E306C5FC884238
:101AC0000D8F7421E3C1E6FCB385B7409385959DE6
:101AD0008E05AA95F1B7EFE21FA48C41EF30C062EA
:101AE0006FE0BFA5EFE23FA3AE84B2852A84EF800A
:101AF000900FD440930750042A8901476398F60257
:101B0000AA858840EF80D0555C412A8785C35C4414
:101B10001441A10723ACD7FE584123AEE7FE5CC4B5
:101B20005C4403A5C7FF3D896FE03FA15444A685EF
:101B3000228523A0260183474900368693E70704C0
:101B4000DCC2938786005CC4EF90103FD1BFEFE208
:101B50009F9CAE844111B2852A84EF80D008D44086
:101B6000930750042A8901476398F604AA858840A0
:101B7000EF80104F5C412A87A1C3544483A7C6FF5E
:101B800093F7070499CF8C40DC31918B99CB83A7D5
:101B900086FFDC338D8B91C72AC62285EF40500922
:101BA00032475C4483A687FFE11714C3D44354C370
:101BB0005CC441016FE07F985044A68522852320B4
:101BC000260183474900930686FF93E707045CC21A
:101BD000930786005CC4EF9030415C44C117C9BFD5
:101BE000EFE27F93D0418C41EF3050316FE0FF94B2
:101BF00041116364B50041018280944118415C4108
:101C000014C1D4412105E115232ED5FE98C5DCC5AC
:101C1000CDB7EFE25F905C45544D41112EC69D8ECD
:101C20008D862A840329450163C6D502145137479E
:101C30000F0013070724958F8D870D8F950781441B
:101C40006346F702B72500007000938565ADEF305D
:101C5000203E09EDB2478544139737005C44BA979C
:101C6000032749006374F7002322F9002685410108
:101C70006FE0BF8C1C49E857ECD7828001C51C4936
:101C8000E85B8280138501828280B7470F009387CB
:101C900077623387F50063E8E70058495C451843ED
:101CA000998F8D87BE952E8582805C4948459C43DF
:101CB000A1071D8D0D858280938715008E0763C057
:101CC000050258491843BA9758456364F7005CC544
:101CD00082809306870054C523220700F5B7584534
:101CE000BA97F5B7EFE23F83444532845933E114A4
:101CF0002A89634104020E0433848440A2854A8504
:101D0000C53DA68513058400E535A6854A85CD35F4
:101D10006FE0BF82050461563304C4022A94F9BF00
:101D2000EFE26FFF3289AA84A9332A84CA85268507
:101D300089331C401CC15C405CC1B7C7F0FF93876E
:101D4000879D6353F9025C4093F7070491CFDC4809
:101D50009C438C43DC31918B81CB10405C328D8B6A
:101D600081C72685EF40206A6FE02FFDEFE2AFFAD2
:101D70004045AA84FD391C412104232CF4FE5C411A
:101D8000232EF4FEC0C46FE04FFBEFE2CFF8D53155
:101D9000938741826306F50048413D896FE0EFF982
:101DA0007D55EDBF8505ED67938707F98A05BE95DB
:101DB00088418280EFE22FF66D39484135151335A1
:101DC00015006FE08FF7EFE20FF541115D315841DB
:101DD0008D476308F7006C00EF90F00541016FE05C
:101DE000CFF50545E5BFEFE20FF3613148413D898D
:101DF0007515133525006FE04FF4EFE2CFF1411177
:101E00002A8932C613844182AD316301850232468C
:101E1000AA844A85B285B1392A86014563058600C0
:101E2000A685EF90F05141016FE02FF10145E5BF2C
:101E3000EFE26FEE2A842E854C44EF50705701C5B7
:101E40005C44A1075CC46FE04FEFEFE2CFEC4111BF
:101E50003284053154410D47639BE6001C61054502
:101E60003EE611C008C0326541016FE00FED6C0025
:101E7000EF90607C7DF502C6EDB7EFE2CFE941114E
:101E80003284EFF01FBF54414D47639BE6001C4175
:101E900005453EC611C008C0324541016FE0EFE97B
:101EA00001466C00EF90607F75F502C6E5B7EFE282
:101EB0008FE6EFF01FBC5841814719C7854763156E
:101EC000F7001C41B337F0003E856FE00FE7EFE20B
:101ED0008FE4AA842E893284EFF0BFB95C411147A8
:101EE000BD8B638AE7020D476388E700014519C08F
:101EF000232004006FE06FE4AA852685EF50306848
:101F00009C48DC476355F0002685EF401027CA85C2
:101F10002685EFF01FB601C81C411147D4236397F3
:101F2000E600FC331CC008414105E9B7DC47DDBFD2
:101F3000EFE26FDEEFF0FFB35C41154793F7F70375
:101F40006386E7026348F7001147638EE7000145A7
:101F50006FE0AFDE1D476385E7005147E399E7FE79
:101F60001C41C847F5B71C41E833DDB70841EF8095
:101F7000D050F9BFEFE22FDAEFF0BFAF58418947F9
:101F80003D8B630BF7009D4681476314D7001C41CE
:101F9000E1073E856FE06FDA1C41E5BFEFE2AFD7A6
:101FA000EFF03FAD5C411D4793F7F703638CE70209
:101FB000634EF7008946638AD702014763C5D7009D
:101FC000954663D4D7023A856FE02FD75947638E81
:101FD000E70013076002638AE70021476387E70091
:101FE0000147D5B718416107F9BF1841E9BF5C4502
:101FF00023A20700A1075CC582805C450D4788E3EA
:10200000D8C3A1075CC582805C454D478CC3D8C34B
:10201000A1075CC58280EFE20FD0AA8405EEB7A5C8
:10202000010093858594EF80003CDC442A8488C3BA
:102030005821A1071367070423AEE7FEDCC49C48C0
:10204000DC476355F0002685EF403013130504018B
:102050006FE0AFCEEF802035C9BFEFE2CFCBAA84CF
:1020600095E15C452E8423A20700DC44A107DCC473
:102070009C48DC476355F0002685EF401010228510
:102080006FE0AFCBEF802036D8441304050108C3BE
:102090005C2193E707045CC3C9BFEFE2CFC72A8482
:1020A000EF50B0591C48AA84DC476355F0002285E4
:1020B000EF40B00C26856FE04FC8397132D4301034
:1020C00022CC26CA2A843EDA06CE36D63AD842DC5C
:1020D00046DE32C6EF5070561C48AA84DC47635572
:1020E000F0002285EF407009F24062442685D24418
:1020F00021618280EFE22FC241112A84AE8411EA6D
:102100005C4559478CC3D8C3A1075CC541016FE04A
:10211000CFC2B28532C6EF3010063246584444C5AD
:1021200093173600B307F7405CC4FD557D16631066
:10213000B6021307600688C3D8C3A1075CC41C4855
:10214000DC47E355F0FC2285EF403003C1B713179D
:102150003600B306E5003E970328070023A80601D2
:102160005843D8CAE1B75C45B335B00005478CC3C6
:10217000D8C3A1075CC58280EFE2EFB91C492A846D
:102180004111C8532EC68945EF8040653246AA8565
:102190002285EFF03F9541016FE02FBAEFE2AFB734
:1021A00041112A8432C6EFF0DF8C3246AA8522859F
:1021B000EFF05F9341016FE04FB8EFE2CFB52A84B3
:1021C0003289EFF01F8B544193075004AA840147D2
:1021D0006398F6020841CA85EF8040605C412A8717
:1021E00085C35C441441A10723ACD7FE584123AEFC
:1021F000E7FE5CC45C4403A5C7FF3D896FE0EFB315
:102200005444CD47A685DCC223A0260193878600CF
:102210005CC436862285EF902052E9BFEFE2AFAF73
:10222000AA84EFF01F85C0440841930584FFEF8026
:10223000A0651C41232CF4FE5C41232EF4FEDC44FB
:1022400003A5C7FF3D896FE04FAFEFE2CFAC41116F
:102250002A8432C6EFF0FF81324608414444B285F9
:10226000EF80C0571C419CC05C41DCC05C44C8434B
:102270001387870058C43D8941016FE00FACEFE23E
:102280008FA941112A842EC632C4EF80604E5C446F
:1022900013075004B24588C3D8C3A1075CC4A24643
:1022A0006344B0006357D0002E86AA852285EF8054
:1022B00040671C48DC476355F0002285EF40E06B27
:1022C00041016FE08FA7EFE20FA52A84EFF06FFACC
:1022D0005C411547BD8B638CE7001D476387E702B0
:1022E0001848938747038A07BA97D84719A01C4113
:1022F000984F014509CB5C44054598C3130750042A
:10230000D8C3A1075CC46FE04FA31C419847D5B761
:10231000EFE26FA01C492A844111C8532EC689459B
:10232000EF80C04B3246AA852285EFF05F824101E3
:102330006FE0AFA0EFE22F9E41112A8432C6EFF08A
:102340004FF33246AA852285EFF07F8041016FE08E
:10235000CF9EEFE24F9C41112A843289EFF06FF15A
:10236000544193075004AA8401476398F604084136
:10237000CA85EF80A0465C412A87A1C3544483A745
:10238000C6FF93F7070499CF8C40DC31918B99CB32
:1023900083A786FFDC338D8B91C72AC62285EF4049
:1023A000200932475C4483A687FFE11714C3D44356
:1023B00054C35CC441016FE04F985044CD46A6859C
:1023C00054C2232026019306860054C42285930616
:1023D00086FFEF9060415C44C117E1BFEFE2AF932D
:1023E0002A84EFF00FE950440C41AA84411622855B
:1023F000EF80F0055C4403A787FF18C183A7C7FFE0
:102400005CC19C402383070058448327C7FF93F790
:10241000070489CF8C40DC31918B89CB832787FFE0
:10242000DC338D8B81C72285EF4080005C44C1176F
:102430005CC46FE08F90EFE20F8E41112A8432C6A8
:10244000EFF02FE354440C413246AA84E116228572
:10245000EF80604958448327C7FF93F7070489CF6B
:102460008C40DC31918B89CB832787FFDC338D8BCC
:1024700081C72285EF30D07B5C44E1175CC4410109
:102480006FE0AF8BEFE22F89AA84EFF08FDEDC44A0
:102490002A89014403A7C7FF19C303A487FF832721
:1024A00049001547BD8B638CE7001D476385E70432
:1024B0009848938747038A07BA97C0C73DA08327E8
:1024C000090080CF1DC083250900DC31918B81CBB1
:1024D0005C308D8B89C722862685EF30D0728325AC
:1024E000090022862685EF40E038DC440545E117E7
:1024F000DCC46FE08F848327090080C7E1B7EFE277
:102500008F818505E157B387F5024C452A84B28453
:10251000BE9505C78357C5068DE35C4998CB94CF1C
:10252000EF302018FD576398F4005C485844D443BA
:1025300063F3E600D8C36FE04F8026862285EF3034
:10254000E01BCDB7EFD29FFB01112A84AE84B28984
:102550000329050291CAB6853EC63AC4EFF06FD191
:10256000B2472247B306254193851400E154B38551
:1025700095025044B2952ECC81C70356C4060DCAAD
:102580003687B3862541B72500003008938505BE00
:1025900022854ECEEF30C02FFD576398F9005C487E
:1025A0005844D44363F3E600D8C305616FD05FF8A5
:1025B00044483389254122859CC87C4C98CC23AE65
:1025C0002401DCC8BE300347440774CCF99BD98F83
:1025D00093E70701BEB04E86EF30A00CBE30014538
:1025E000BD9BBEB0DC487CCC45BFEFD2DFF2797139
:1025F0002A84B68489E6B7A401009384449EB286F7
:1026000022852E866C083AC6EFA0B0473247268650
:102610006C08BA862285EF30402DAA840DED5C440B
:1026200003A987FF834769009DC71C488945C85394
:10263000EF80C01A832509011C4198411CC35C41ED
:102640005CC393F7070481CB938785006315F7007C
:102650002285EF30F05E268545616FD01FEEEFD208
:10266000FFE9A547004963E2B70C69679397250026
:102670001307079BBA979C432A898287A309040200
:102680002E856FD0FFEA81452285EF70C07F854798
:10269000A309F4028145EDB78145EF40A036DDBFC7
:1026A0000C444844AA95A981E1BF0C444844AA952A
:1026B00093F5F53FF1B7854783493403A309F40245
:1026C0000DE29305009C2285EF70E07B4A85EF4088
:1026D000C02AA309340383451403E51593B51500F7
:1026E00045B744442A062285B294A685EF70A079A6
:1026F00083270901DC476355F0004A85EF40E02756
:10270000A30934038145E34890FC9DBF6C5070D011
:1027100085BF930780022C546354F6001306800291
:1027200030D4B9BF83453403A1BFFD5591BFEFD26B
:102730009FDEEF20C051EFD21FDE2A84EFF06FB38F
:1027400050440C4122856116EF70F0735844930792
:10275000870019E1930787FF5CC46FD01FDEEFD2BB
:102760009FDB05472A84635DB700EF90A0511C48AA
:10277000DC476355F0002285EF4020206FD0FFDB5F
:10278000FDF54445B7A50100014693858594EF709A
:10279000904188C05C2193E70704DCC05C44A1073A
:1027A0005CC4F1B7EFD23FD72A84EFF08FAC4C4432
:1027B0002A862285EF9060645C44A1075CC46FD0D8
:1027C000DFD781C51C49DC439CC11C4988438280FA
:1027D000EFD27FD42A84EF7090465C4413077004D4
:1027E000AA8488C3D8C3A1075CC41C48DC476355CE
:1027F000F0002285EF406018138584016FD0FFD36D
:10280000EFD27FD1411132C6AA84EFF08FA65C418E
:102810001947324693F7F7036382E706130760020E
:1028200001446394E7080C416351C008FC2163CE66
:10283000C70605060E0637A40100B386C50081470A
:1028400013048494D844130687FFD0C4032687FF5B
:1028500090C20326C7FFD0C2BDC18327C7FF93F72D
:102860000704A1C7DC31918BA9C3032687FF5C3223
:102870008D8B85CF2685EF30103905A81C4101448A
:10288000CC476354C002D8456341C70213073600E2
:102890000A07BA97B8410E069C433A96032486FF6E
:1028A000944301C84104814551FC228541016FD008
:1028B000DFC837A4010081451304849D61B7F5D7B3
:1028C0009443D842137707046DD313878700E39EA0
:1028D000E6FCBE852685EF30B036C1BFDC41014540
:1028E00089C788411CC223A20500828019E20145E4
:1028F0008280EFD2BFC02E89FD552A84B284EFF0CA
:10290000CFC89547631CF5002285EFF04FEE914943
:10291000FD14F9552285EFF01FE201E501456FD066
:102920003FC1F9552285EFF04FC6631E35057D5630
:10293000CA852285EFF06FCC19C52285F955EFF0D5
:10294000AFB70545E9BF2686CA852285453705CD3F
:102950007D56F9552285EFF0EFB8F9552285EFF055
:10296000AFB5B7A50100938585CA2285EFF0EFEEDC
:102970000546F9552285EFF0EFB622858D45EFF03B
:102980001FDE054569BFF9552285EFF0EFB251B75B
:10299000EFD2DFB641112A842EC6EFF00FB13246D6
:1029A000B7A501002A899385C5AE2285EF10507620
:1029B00037A60100B7C5F0FF1306C6A19385859D14
:1029C0002285EFF0AFFD930919000946CE852285D7
:1029D000313F39C90146FD552285EFF04FCFB7A5EC
:1029E00001000D46938545A2AA84EF40815419ED5C
:1029F000938534002285EFF04FE6F95522857D5608
:102A0000EFF04FAEF9552285EFF00FAB4E86FD5536
:102A10002285EFF0EFB0F5552285EFF0EFA9854460
:102A2000268541016FD0DFB0AA84CA852285EFF0E8
:102A3000AFA8FDB7EFD23FAE9C412E84B28463595C
:102A4000F0001CC223A00500130584006FD0FFAE68
:102A5000D4410145DE2693F70702EDFB1306004043
:102A6000854513058400EF20714788C0F1BFEFD280
:102A70009FAA83A7C1810146FD55C447EFF02FC52A
:102A8000B7A501002A869385859E2685EF203135DE
:102A900083A7C181C847EF20D10B01456FD0FFA9A3
:102AA000EFD27FA741112E8481EA2E85EF30812558
:102AB000014541016FD07FA8B685228532C636C454
:102AC000EF30B14F7DF575D4A2463246E363D6FEB2
:102AD0002285C5B7EFD29FA2B7A401002A842E8910
:102AE00023200500938404A5FD594840EF30A10739
:102AF00063053503850483C7F4FF6310F5021C40AA
:102B00001387170018C0A29788A783870400F1FFD6
:102B1000484023200400EF3001052320A9001307BB
:102B2000300281476311E502FD59A9444840EF3066
:102B3000810363043501E31B95FE4840EF30A10299
:102B40002320A90085473E856FD09F9EEFD2BF9C72
:102B5000328937A60100130646A52A84AE84EFD039
:102B6000312591476317F5020146FD552285EFF0A7
:102B70000FB6B7A50100AA864A869385C5D42285DB
:102B8000EFF0AFD32A86A6852285EFD0516D6FD0A6
:102B9000DF9AA6852285EFF04F9F8947630BF500EA
:102BA000A6852285EFF06F9EAA852285EFF08F9F84
:102BB000C9B737A501001305C5D365BFEFD21F9470
:102BC00041112E8A6C003289AA89EFF09FBFAA8436
:102BD000D2854E85EFF00FBA50410C412A84324520
:102BE000CA868294AA8411ED630D0900D28501463C
:102BF0004E85E937B7A50100938585A24E85EFD0B4
:102C0000B13A04C023222401268541016FD05F928E
:102C1000EFD27F9001468545553701456FD0FF9132
:102C2000EFD27F8F85452A84EFE0A10B01468545D1
:102C30002285EFD0314705456FD03F90EFD2BF8D51
:102C4000EFF0AF867D156FD05F8FEFD2DF8C8545BB
:102C50002A84EFF08F93FD57AA84631AF50037A6F4
:102C60000100130646BC85452285EFD0515FA6853D
:102C70002285EFF02F93AA852285EFF00FBE054540
:102C80006FD0BF8BEFD23F89AA84EFF00F822A84E6
:102C900085452685EFF06F8F91476315F502014654
:102CA00085452685EFF0AFA20307050093073002A4
:102CB000631AF70026859305F4FFEFF0EFB405459E
:102CC0006FD0BF8785452685EFD0317C3309A400BE
:102CD000634605002289635385002A89634A2001DF
:102CE00037A60100130686EF85452685EFD03157BC
:102CF00033052441F1B7EFD28FFF41118945AA84F2
:102D0000EFF0AF886347A00485452685EFD0717D3D
:102D100085452685EFF06F878D47631AF500854559
:102D20002685EFE07FF9054541016FD0CFFF85454E
:102D300070002685EFF0AF99AA8501C92685EFF0CE
:102D40002F8FB2478507E300F5FE2685EFF02FAA07
:102D5000D9BF89452685EFD051732A8C1146854508
:102D60002685EFD07160700085452685EFF02F969F
:102D70001307ECFF930720022A8A63FAE70037A6BD
:102D80000100130646F589452685EFD0514DB7AAB7
:102D9000010093858AF65285EF40A11E3304AA00F4
:102DA000830704001307D0026397E7020504854BED
:102DB000EF20B1621C208149894C3E951C319D8BCE
:102DC00095E381450145B2473E9AE31045F92685D2
:102DD000EFF08FA389BF1307B002814BE39AE7FCA2
:102DE0000504F9B7EF20715F8307040013F9F70FAB
:102DF000130B19005A951821938707FD118B09EFC2
:102E0000EF20B15D5A951821CA870D8B6314970185
:102E1000930709FE938797FCE3D587FBB3053C0333
:102E20000504B389B700EF20515B1C203E951C318F
:102E30009D8BCDFB93858AF62285EF4081142295E8
:102E4000CE85E3820BF8B3053041B5BFEFD2AFECCE
:102E5000154685452A84EFD0315122858945EFD02A
:102E6000516822858D45EFD0D16722858D45EFE0F1
:102E7000BFE422858545EFF06FD605456FD0EFEBB7
:102E8000EFD26FE9154685452A84EFD0F14D2285B2
:102E90008945EFD0116522858945EFE0FFE1854541
:102EA0002285EFF0AFB705456FD02FE9EFD2AFE63F
:102EB00085452A84EFE07FED7115854763FAA70009
:102EC00037A601001306C6ED85452285EFD03139BE
:102ED00085452285EFF0CF85AA852285EFF0CF9238
:102EE00005456FD08FE5EFD20FE385452A84EFD0FB
:102EF000515F22858945EFD0D15E094685452285FF
:102F0000EFE0BFEFAA852285EFF0EFA505456FD072
:102F1000CFE2EFD2AFDE41112A84EFE01FD9B7A58F
:102F200001002A8A938505EA2285EFF0EFA4854403
:102F3000B7AA010063549A0283A7C18137A5010093
:102F4000054694478545130585A1EF20B14083A729
:102F5000C1818847EF20E13F014535A8FD55228515
:102F6000EFE0DFE0A6852285EFE05FE001478146E4
:102F7000054685452285EFF08FD87000FD552285E6
:102F8000EFE0FFF4AA8919E9B7A501009385C5EA26
:102F90002285EFD0710141016FD08FD9854763DB66
:102FA000970083A7C18105468545944713858AED1F
:102FB000EF20513A83A7C1813246854594474E851B
:102FC0008504EF203139F9552285EFE0FFCE9DB71A
:102FD000EFD26FD485452A84EFD0B150B7350000C9
:102FE000014622859385050BEFF0CF90228585451C
:102FF000EFE0DFD722858145EFF00F810D456FD0DF
:10300000CFD3EFD24FD1154685452A84EFD0D135A5
:1030100089452285EFE05FCA85452285EFF0AFF153
:1030200019E52285EFE0BFFC05456FD00FD10945BA
:10303000EDBFEFD24FCEB28437A60100130686E271
:1030400089452A84EFD0115285452285EFE01FD2B1
:1030500081452285014781460546EFF04FCAFD555F
:103060002285EFE09FD211E92285F955EFE0DFC418
:10307000014523A004006FD04FCCFD552285EFE021
:103080009FD601E9B7A50100938545E42285EFD0DD
:10309000A17115462285FD55EFE09FC82285F9559F
:1030A000EFE09FC1268695452285EFE05FE2E1B71C
:1030B000EFD26FC6411189452A84EFD0113D130626
:1030C0001500B285228532C6EFE01FF432468545F1
:1030D0002285EFF08F8E3335A000050541016FD0BA
:1030E000CFC5EFD24FC3054689452A84EFD0F141C1
:1030F0008545AA842285EFE03FBC85452285EFE027
:10310000DFC891476310F502635E9000A6852285B3
:10311000EFD0816485452285EFE05FC58945228532
:10312000EFF0EFE32285EFF08FE06FD00FC1EFD229
:103130008FBEE96637A60100938606F7130646E8B8
:1031400085452A84EFD09145E9670A05938747F9B9
:10315000AA9703A90700014689452285EFD0F13AD5
:103160002A86CA852285EFF08FCF9547AA84630D02
:10317000F902A547630AF9028D47631CF90201466B
:1031800091452285EFF0AFCDB7A70100537505D06B
:10319000D3F704D007A707E822854375E578EFE069
:1031A000DFE505456FD06FB9A6852285EFE0BFFB4F
:1031B000CDBFAA852285EFE03FE5E5B7EFD2AFB5F9
:1031C0008547411163FEB70081452A84EFE0BFF9CE
:1031D0002285F955EFE09FB9094541016FD0EFB560
:1031E00032C6EFE09FAC3246118DC5BFEFD2AFB211
:1031F0002A84EFE09FAB1946AA8489452285EFD047
:10320000B11622858545EFE01FF622858545EFE062
:10321000FFB5228509468D45EFE0DFACB7370000EA
:103220009387C71B094789469385E4FF7D5622850E
:10323000EFF04FB1AA8509462285EFF03FF86FD035
:10324000CFAFEFD24FAD85452A84EFD091292285AB
:103250008545EFE05FF1054685452285EFE09FA8B3
:103260002285EFE09FA4B73700009387C71B014773
:1032700081469305E5FF7D562285EFF0AFACAA8528
:1032800001462285EFF09FF36FD02FABEFD2AFA8AE
:1032900089452A84EFE07FAFAA84154685452285BB
:1032A000EFD0910C81CC9547638AF40037A60100DA
:1032B0001306C6F089452285EFD0617A37A6010052
:1032C000130646F285452285EFD0812E11C9B7A598
:1032D0000100938505F32285EFD0014D6FD0EFA556
:1032E00089452285EFE05F9D85452285EFF08F9926
:1032F0000545EDB7EFD22FA22A849DE101E60545F1
:103300006FD0AFA3B285EFE07FA60546F9552285C1
:10331000EFF00FCF6DF5F9552285EFE0FF99C5B7B6
:10332000EFE0FFCC22850546F955EFE0BF9B09454C
:10333000C1BFEFD2AF9C0111700885452A84EFE030
:103340001FB937A6010081461306C6E88D45AA8439
:103350002285EFD0B10EAA8991452285EFE0FFA228
:10336000FD5701496303F500114981468DC4268646
:1033700089452285EFD0910C7246AA864E87A68594
:103380002285EFD0B15FAA854A862285EFF09FF6AD
:1033900005616FD0EF9937A60100130606E989454C
:1033A0002285EFD0B1092AC6194622858545EFD07E
:1033B000A17B22859545EFE03F90B246B7350000EE
:1033C0004E870146938525032285EFF00FA265BF46
:1033D000EFD26F9441118146014685452A84EFD092
:1033E000F1050146814689452A892285EFD01105DC
:1033F0002AC68D452285EFE05F99FD57324681440C
:103400006303F5008D44CA852285EFD07138AA8503
:1034100026862285EFF01FEE41016FD00F92EFD28A
:103420008F8F85452A84EFD0D10B85452285EFE02B
:103430009FE919E52285EFE09FBB05456FD0EF8F2F
:1034400037A60100130646F285452285EFD04116C6
:10345000EDB7EFD24F8C0146814685452A84EFD0E7
:10346000E17DAA8485452285EFE01F850146A6857A
:103470002285EFD0F13111C52285EFF04FAB6FD02F
:10348000CF8B373700001307C7C381467D56814570
:103490002285EFF0CF862285EFE03F817D15C5B70D
:1034A000EFD26F8785452A84EFE07FA011C5228582
:1034B000EFE0AFFF6FD06F8822858545EFD07102B6
:1034C0007D5622858545EFE0FF812285F955EFE0A5
:1034D000AFFEB7A501009385C5E62285EFE0FFB7F3
:1034E00022858545EFE04FFD2285EFF09FBFD9B7DC
:1034F000EFD26F8285452A84EFD0A17E37A60100E6
:10350000130686E985452285EFD0810A1DE1B7358E
:1035100000000146938525002285EFE0BFBD22858E
:103520008545EFE0BF842285EFE07FAC0D456FD08D
:10353000CF8022858545EFE07F83014781460D4698
:1035400085452285EFE0BFFBD5B7EFC23FFB1C45A9
:1035500032892E8683AA0702CC570041AA89568554
:10356000EF70E06E5841CD472A8B6300F70883A4C3
:10357000C901032A0401CD4723209B002322FB001D
:1035800063C444034C54B7A70100370700047D17F8
:103590009387C71BA146130604015685EF40802F71
:1035A000184848D4634BEA065C5413973400BA9722
:1035B0000327090098C303274900D8C383A7C9017B
:1035C000850723AEF9008327490093F70704B9C3A1
:1035D0005C30918BA1C3032609005C328D8B9DCB9F
:1035E000A2855685EF20306235A0044183A7C9012A
:1035F000E3DFF4F65C549395340003274900BE954D
:10360000DC41B98F93F7F703BDF34A860145EF809C
:10361000205331DD26856FC0BFF1050A93173A00AC
:10362000AA9723AE07FEBDBF18455C456319F70294
:1036300018419547630FF700994681476319D700F2
:10364000854791C55C419CC1CD47DCC185473E851E
:1036500082808547EDDD5C618D479CE1FDB7814748
:10366000FDB71C5913972500BA97884381778507C2
:1036700039813E95FD576304F50085052E958280BE
:103680000859939725003E95635FB0008327C5FFD7
:103690006D671307C7B693F7F703BA9783870700D9
:1036A00063D3070071158280EFC2FFE60841411124
:1036B00032C6EFF0FFFC1841930730029376F70310
:1036C0006393F60432469306F00F93577701630332
:1036D000D6026381C7029167938707FC1A067D8E25
:1036E000F1779387F7037D8F598E10C1054541010E
:1036F0006FC0BFE437C67F009A07718FD98F93E7F9
:1037000027021CC1E5B70145DDB7EFC2DFE0AA849F
:103710002E847D59631424016FC03FE2A2851306F5
:10372000F00F2685EFF05FF88840A285EFF07FF379
:103730002A84CDB7EFC29FDCAA892E847D59130A53
:1037400030026315240101456FC09FDE83A4090088
:10375000A2852685EFF0DFF21C4193F7F70363980B
:103760004701A2852685EFF0DFEF2A84D9BF054502
:10377000E1BF93F7051091EB8347A50263C7F500FE
:103780008347C502FD172306F502828098419D47B5
:103790006319F700EFC23FD8CC41EFF09FFD6FC037
:1037A000DFD98280EFC23FD798419D472A84FD54DC
:1037B0006313F700C44118429D477D596314F70015
:1037C00003294600635C9900A6852285EFF07FFA05
:1037D000CA852285EFF0FFF96FC03FD6CA852285E2
:1037E000EFF03FF9A685F5B7EFC2FFD20841EFF041
:1037F0003FE91841F1779387F703B376F7009357C2
:10380000670093F7F70F93B717009A07D58F1CC17E
:103810006FC0BFD21841939725008505185B0D8EA8
:103820009356F6413E97B3C7C600958FB706020080
:1038300063CBD700EFC23FCE0845B7A50100938503
:10384000851DEF30A0641C43FD163696CA07C98358
:103850003A065D8E10C38280EFC25FCAAA842E84AE
:10386000B289368ABA8A7D59631424016FC05FCC4D
:103870008840A285EFF0FFDE52862A8BA28526853E
:10388000EFF09FE24E8611E15686A2852685EFF085
:103890007FF85A84D1BFEFC21FC818492E890C4D3A
:1038A00004413A869306F00F2A84EFF0FFFAFD57A1
:1038B0001CCC1848DC486343F70208448C58B7A76F
:1038C0000100085137070080938747221347F7FF0D
:1038D000914613864401EF30F07B88D818489C58F5
:1038E0000A07BA9723A0270118489C4C6343F702A4
:1038F00008448C5CB7A70100085137070080938704
:1039000047221347F7FF914613868401EF309078E2
:1039100088DC1C44184894479C5C0A07BA9794C3F7
:103920000848930715001CC86FC03FC1EFC2BFBE57
:1039300079712A89AE8432852C0836C63284EFF03C
:10394000BFCEB24609E5014545616FC01FBF0C10EF
:103950003685EFF07FCD65D91387D4FFA94763EB98
:10396000E7028547B397E70013F7D70031EF93F7E6
:10397000075F8DC37247CD476311F704E2473ED41A
:103980001257CD476308F70001462C100810EF705E
:10399000D05055D9832709003810141088533008A7
:1039A000A685EF4020103257CD476313F70499479F
:1039B0001CC0A2575CC0054541BF01462C10280819
:1039C000EF70B04D49D16DBF92564D478257639C01
:1039D000E600D3F707D0530700F0D327F7A093B73B
:1039E0001700B5D345BFD30700F0538707F0F5B7ED
:1039F000A277D3A7F7A0A1DB530700F0D3A7E7A0D6
:103A0000B9F395471CC05CE07DB7FD57630FF60224
:103A1000EFC2DFAE844141116396F40090C14101D1
:103A20006FC01FB1832905002A847D59A6854E8564
:103A300032C6EFF01FC3324663172501A6852285E3
:103A4000EFF05FDDE9BFAA84D5B78280EFC2BFACDB
:103A5000104DFD57B785FF7F01111CCDF9052A8454
:103A600032C6EFF05FE332462ACE6C082285EFF0D3
:103A7000DFF9724505616FC05FAC1C495CC93E85CA
:103A80008280EFC25FA918492E869305850158C927
:103A9000EFF0BFF76FC07FAAEFC2FFA71C49639684
:103AA000C700EFF01FFE6FC05FA932879306F00FCB
:103AB000EFF09FDACDBFEFC27FA4130416001166AA
:103AC0001A04130606FCF174AA89718C7D5993843B
:103AD000F403639425016FC0BFA503A50900939764
:103AE000250018593E971C43E58FC18F1CC3EFF08A
:103AF0005FB7AA85F9BFEFC21FA23A07D98DDE06CC
:103B0000D58D1A06D18DEFF01FD96FC01FA31C49A8
:103B100058496350F70818418A07F117032E070325
:103B20003E9E83280E00914713F7F8036313F706B0
:103B300013D868001378F80F13D378013387C500C2
:103B4000429363C805019307130063D0B7046392DF
:103B50000505634007059166938606FC939765000B
:103B6000F58FF1769386F603B3F8D800B3E7170123
:103B7000A6071306F7FFA583635366001A860D8E0A
:103B80005E06D18F2320FE008280E356B8FCC285FA
:103B9000D9B7EFC25F989306F6FF01472E8691458D
:103BA000EFF07FF56FC07F99EFC2FF969306160086
:103BB00001472E8693056002EFF0FFF36FC0FF9779
:103BC000EFC27F95BA06D58D1A06D18DEFF0BFCC26
:103BD0006FC0BF96EFC23F94B70704003284635BA7
:103BE000F600B2862E868545EFF09FFDAA842685D5
:103BF0006FC0BF942E86814689452A89EFF05FFC0D
:103C000093156400AA8493E5E5024A85EFF0BFC8E6
:103C1000F9BF8347C502BE951C4198276350B70280
:103C20001307E00F635BB700EFC2FF8E0845B7A52F
:103C300001009385451FEF3060258CA78280EFC27D
:103C40009F8DAA842E84EFF0DFFC83C7C4023E94CC
:103C5000238684026FC07F8EEFC2FF8BDC2141116F
:103C600030002EC493E70704B2853EC6EFF0FF8D07
:103C700041016FC09F8CEFC21F8A411189472EC03E
:103C80003EC22EC4CD4730008A853EC6EFF0FF8B82
:103C900041016FC09F8A9841B5466315D702144110
:103CA000DC4105063A06139727009C5AB74680FF69
:103CB000FD16BA9737C77F00798E9843758F598E56
:103CC00090C38280B9466311D704EFC2DF84D84124
:103CD00003280500050693172700032708035E063F
:103CE00085453E971C43A607A5835D8E10C383467A
:103CF000C502F1779387F7039A067D8E558E10C320
:103D0000EFF0FFF36FC07F8382809C413547639F54
:103D1000E7009D479CC11C41D8419C5B0A07BA97AC
:103D20009C43998393F7F70FDCC1828039476391F5
:103D3000E7021441D84193172700985AB7060001AB
:103D40003E971C43A607A583D58F1CC3B1479CC1D2
:103D500082809C411947E1176363F706EFC2AFFB0E
:103D600069678A071307470DBA979C432E84AA8474
:103D700082879D471CC06FC04FFCCC41DE0593E598
:103D80005500EFF05FB148C0B147EDB783954500EE
:103D9000EFF03F9E7830A14799456317F7006C20FC
:103DA0002685EFF01F9D9D450317440074200146B2
:103DB0002685EFF05FD4C1BFEFF03FF56DBF828085
:103DC000EFC26FF541112E89AA843284EFF07FF89B
:103DD000832609002D479387F6FF6363F70269671F
:103DE0008A071307070FBA979C4382870546A28567
:103DF0002685EFF0DFD19D47232289002320F9009B
:103E000041016FC08FF3F916014793B61600228661
:103E10008D452685EFF03FCEF9BF03264900A285E8
:103E20002685EFF03FDBC1BF8727490030008D4773
:103E3000B28526853EE43EC6EFF02FF12A86C5B74F
:103E4000832549002685EFF01FE3CDBF98408326E8
:103E500049001166130606FC93972600145B7177E0
:103E60001307F703BE969C427D8F93176400F18F72
:103E7000D98F9CC249B783264900E38E86F6014755
:103E80002286814579B7EFC26FE7AE842A843289F2
:103E9000EFF01FF39840AD476318F700D0409385CB
:103EA00084002285EFF07FB68C4483A9C400638E22
:103EB00035072285EFF01F8811E5CE852285EFF0CA
:103EC0007F872DCD9840AD47FD596306F7002285C9
:103ED000EFF0DFB7AA891C48054781465CC84A86CF
:103EE0008D452285EFF03FC11C488D45AA8A5CC8EC
:103EF000014785464A862285EFF0FFBF2A8ACE8594
:103F00002285EFF01FB883290401CC445687CA8666
:103F10004E862285232A3401EFF01F948C44528769
:103F2000CA864E862285EFF03F93FD579CC4DCC4C1
:103F30009D4723A224019CC06FC08FDF7D5AFD5A8C
:103F4000D9B7EFC24FDD9C4131472A84AE84328914
:103F5000639DE7021C41D4419C5B8A06B69790435F
:103F6000ED471377F6036315F7021C491347190051
:103F70008146FD171CC95D8293052002EFF0BFB793
:103F80002285EFF0BFAC6FC04FDB1D47638DE700AC
:103F900085452285EFF0BFCA0346C402A685228567
:103FA0007D16EFF0FFE1A6852285EFF02FFE4A8710
:103FB000D4401306F00F930530022285C1B7EFC23B
:103FC0008FD52A84AE84EFF0DFD8A6852285EFF066
:103FD000EFFB22858545EFF09FC60346C402A68508
:103FE00022857D16EFF03FEA6FC02FD5EFC2AFD22A
:103FF0002E84AA84EFF0FFD518409D476313F70283
:1040000018445C445040630BF70083C7A402634A22
:10401000F600A2852685EFF01FE7504032856FC07D
:10402000CFD1A2852685EFF09FF9C5BF9841A5475E
:104030006316F7009845DC456308F700EFC2AFCD83
:10404000EFF0DFFA6FC06FCF8280EFC2CFCC984520
:10405000DC456306F700EFF07FF96FC00FCEEFF09D
:104060005FCFE5BFEFC22FCB41112E84AA84EFF0C2
:10407000DFFD1C401547FD176364F70669678A0773
:1040800013070712BA979C43828785473EC43000C6
:104090003EC6B28529A802C48547D5BF9C4402C646
:1040A0003000DC578A853EC0930750043EC2268507
:1040B000EFF0AFC929A04C402685EFF0DFBB48C028
:1040C000484091471CC09307F00F63CBA7001365CE
:1040D000051041016FC06FC65C608D473EE445BF6F
:1040E000A2852685EFF09FF0EDB7EFC22FC19C416E
:1040F0002547AA842E8432896382E7022947638E8A
:10410000E70221476396E702B285EFF02FE85040BF
:10411000CA852685EFF03FD76FC08FC1B285EFF01B
:10412000FFEC544001472A86A5452685EFF0BF9C49
:10413000CA852685EFF08FE5C5B7F831A147A949B3
:104140006303F700A149CA852685EFF0BFF12A87EE
:10415000831644007020CE85C9BFEFC2CFBB41118A
:104160002A84AE843289EFF07FE8D440A685228588
:1041700036C6EFF0AFE18347C40222858945DCC033
:104180009D479CC0EFF0BFABD040CA85228532C4AA
:10419000EFF05FEDB24622462A87B1452285EFF067
:1041A0009F95CA852285EFF06FDE41016FC0EFB8A1
:1041B000EFC26FB62E84AA84EFF0BFB91C40194736
:1041C0006360F70211477D5663F4E7020947638194
:1041D000E7020146A2852685EFF0BFD62A8609A808
:1041E0002D47E398E7FE4C402685EFF0EFDF504087
:1041F0009305C4002685EFF05F810C442685EFF01F
:104200005F88FD571CC46FC04FB3EFC2CFB02E8480
:10421000AA84EFF01FB41C400D477D566388E70069
:104220002D476382E70205476391E7029305840007
:104230002685EFF08FFD4C442685EFF09F84FD57D7
:104240005CC46FC08FAF5040D5B70546A2852685A8
:10425000EFF03FCF2A86D9BFEFC2EFABDC412E840F
:10426000FCA1B285EFF01FE014404AA02547A1470A
:104270006393E600A5477CB0A9471CC06FC0EFABB5
:10428000EFC26FA9B14741116386F50263E8F502F9
:10429000CD476387F500D147638AF500B2850DA845
:1042A000B285EFF0FFF041016FC02FA9B285EFF0AA
:1042B000DFF5D5BFB285EFF09FD0F5B72A848145F1
:1042C000328532C6EFF04FB6324671FDB285228597
:1042D000EFF05FD9C9BF1C491441139727009C5EBA
:1042E000BA9723AEB7FE8280EFC24FA18947411132
:1042F000AA843284638DF5042E89B68963E8F500BB
:104300008D47638DF50041016FC08FA2E9669386EA
:10431000861CB1052105EFF06FE175F5A2852685B4
:10432000EFF0DFCC2AC6A2852685EFF02FC6B24675
:1043300093059901014701462685EFF0CFFBB14770
:1043400048C01CC0CE852685EFF0FFF86DBFB28552
:10435000EFF03FA014402D479387F6FF6362F7020A
:1043600069678A0713078713BA979C43828789472F
:104370001CC039A08D47EDBF4C402685EFF0CFC65D
:104380000C445C4426854CC41CC4EFF00FB80C44AC
:104390002685EFF08FB785BF9D47638DF600854575
:1043A0002685EFF0DF8903C6C402A28526857D1627
:1043B000EFF01FA1A2852685EFF04FBD4C4026856A
:1043C000DE0593E5B501EFF00FCD48C0B1474DB71D
:1043D000EFC2CF924111AE89B685B2842A843A8960
:1043E00036C6EFF03FC82AC4A6852285EFF09FC7E6
:1043F00032462AC2A6852285EFF0CFBA22479246DE
:104400000146CE852285EFF00FEFB147C8C09CC0B2
:10441000CA852285EFF03FEC41016FC06F91D14713
:1044200063EFB712EFC28F8D3A8A696793972500C1
:1044300013078716BA979C4341113689B284AE8917
:104440002A848287B685EFF0DF90D0449305C900B7
:104450002285EFF08FDB4146CA852685EF101112C9
:1044600041016FC0EF8CB685EFF0BF8E904493058D
:104470008900F9BFB685EFF05FBD83290900B14718
:104480006396F9041C40032749009C5B0A07BA970E
:104490009C43754793F7F703639AE702A685228545
:1044A000EFF0CFAE14400327490093172700985A26
:1044B000D4403E971C43DE06A607A583D58F1CC3B8
:1044C0008327490023A03401DCC059BFCA85228557
:1044D000EFF0FFAE5287CA862686F5452285EFF0BB
:1044E0003FEFBDBF2105EFF06FC43DF95287CA868B
:1044F00026869385D900DDB718429147544263144C
:10450000F70093E60610CA85228536C6EFF09FB500
:104510002A8A4A86A6852285EFF0CFA8C147B246EF
:10452000638CF90063E5F900C94763F437035287E8
:1045300005469385290121A052870146FD45228524
:10454000EFF06FDB2285EFF06FD0AD47C8C09CC0A5
:1045500001BF36870546D2869385F900CDB78280A4
:10456000EFB27FFB1304F6FF130620033344C402AB
:10457000FD572A89AE8405046393F60081469307AC
:10458000F01F63CE8700228726869305B0024A85F6
:10459000EFF06FD68504230699026FB01FFA01472A
:1045A00026869305B0024A85EFF0EFD49315640098
:1045B00093E5E5024A85EFF00FAEE9BFEFB2BFF534
:1045C0002A84EFD08FEEAA85814601462285EF101E
:1045D000E0256FB09FF61C4148499C43DC479C5B3B
:1045E0001D8D09857D158280EFB2FFF21C419C4331
:1045F000DC47805F01C8EFF01FFE0A052A940840DF
:104600006FB0BFF37D55EDBF18258547631AF700DE
:104610005C4910519843D44F118FB29694C3D8CFB0
:104620008280EFB2BFED6D6A817A696B4111AA8415
:10463000AE893289130ACAB6850A130B8B344E86AB
:1046400093051900268536C6EF10A051B24688C2E0
:104650006310051A014881487D5413035002130E5C
:104660009002930E4002114FF94F42876344380382
:10467000FD576305F40A9C581317240031463E97F2
:104680000C4313F7F503636BE608131627005A96DD
:10469000104202869C58131628000508B2979C43C6
:1046A00013D6670093F5F7031376F60F6360B30232
:1046B00063F0D5056383E503638FF503D2959C21F1
:1046C00093F70704DDD3E312C9FA31A8E398C5FFD5
:1046D00093071600E3DB27F939A0E348C9F8DD8327
:1046E000B297E3C427F97D54E34117F93A84B5BF83
:1046F000E34DC9F6CDBFB983D697C297E357F7F616
:10470000E3C5F9F6E3D3F8F6BE8885B713D975018A
:10471000998193F5F50FA289E343B9F241016FB096
:104720003FE193D9E5009D4793F9F91FDD81631DB2
:10473000F70222868505268536C6EF108042B246EE
:104740002A894E86A285268575286308090AB7A599
:104750000100938585434A85EFB03FF659ED37A5B3
:104760000100130505435DBFBC408E05BE9503A93E
:104770000500630409004109E9B737A901001309DD
:10478000499EC1B7BC40DD818E05BE959C4181CB61
:10479000C10737A501009CC21305C54141B7B7A7A2
:1047A00001009387479EF5B70546B9816307C700A7
:1047B00005040A04A2978C439981DC548E051147A5
:1047C000BE95DC41BD8BE39BE7F49C4137A501001E
:1047D00013054542C1079CC291B7B98113F6F51F75
:1047E0002685A285052037A501001305C54E3DB7D6
:1047F00037A501001305C54015B737A501001305FE
:10480000454129BFEFB23FD11378061036846306C5
:10481000080258559377F6EF8E07BA97D84391461A
:104820003D8B6309D700B7A701009387479E1CC043
:104830006FB0BFD09C43C107DDBFEFF09FDE65D5F1
:104840000307050093073006E31FF7FCD5B7EFB267
:104850009FCC5849411102C63E33898B81EB37A565
:1048600001001305859441016FB03FCD1C432A8997
:1048700084438147F0209386040163C7C702004B3D
:1048800033848540E34D04FC5C43E3FAF5FC3A8550
:10489000EFF07FD4AA85C844135634407400EFF07B
:1048A0005FD82A864DDD15A0884291060841639C99
:1048B000A502D8448E073843BA979C4385C3C107E5
:1048C00037A601003EC61306C641B246B7A5010091
:1048D000938585514A85EF30805471B7B7A70100A1
:1048E0009387479EF1BF850749BF63C805005C49B0
:1048F0001305450381C96394A700814501A8FD15EF
:104900009C47CDBF6384A7003CD285452E8582801D
:10491000EFB27FBD01112E89AA843284EFF0DFCE81
:10492000030709009307E0036311F70A83ADC4008E
:104930000509014DE11D23A6B40183A74D001947C8
:10494000814CFD8B6394E70083AC0D00B7AB010095
:10495000696CB7A9010037AA01004A8B854A938B7D
:104960008B94130CCC379389894E130ACA4F830753
:104970000B00ADE3930560064A85EF20A12001CD31
:10498000DC4403A70D00A10723ACE7FE03A74D00FD
:1049900023AEE7FEDCC42685EFF01FC79305C004F5
:1049A0004A85EF20211E11CD63880C0003C74C00FF
:1049B00093076002631AF720DC4423A20700A107D3
:1049C000DCC4568505616FB0DFB5032D0406832D69
:1049D0000D00A5B71307C0066384E70C6341F70217
:1049E000130730056387E704130760066387E70052
:1049F0001307C0046383E700814A050B8DBF1307CB
:104A000040076389E70E130750076387E70A130718
:104A1000E006E393E7FE63020D1283572D0213F7BE
:104A200007106DC7B7A70100938747D35CC04E85B9
:104A300011A263880C0003C74C0093076002631740
:104A4000F702B7A701009387C7501CC8FD571CCCBD
:104A50005CCCB7A70100938747510C485CC4130690
:104A6000C00313054402EF30A05841BF03A7CC0098
:104A70003C4789CFC1071CC85C5318571CCC58CC85
:104A800099CBB7A701009387474EC1BFB7A70100D5
:104A90009387074ECDB7B7A701009387C79475BF1B
:104AA0007D5563090D0083572D02898B81C76A8567
:104AB000EFF09FB348C891B7814763840C0083C768
:104AC0006C002300F40263880C0003C74C009307BA
:104AD00060026318F70085472301F402A300040273
:104AE00029BF83A7CC00F8332301E402FC23A300F1
:104AF000F40221B7814763080D0083472D0293F725
:104B00000702E207E187A301F402C5BD93F707029C
:104B10008DE703258D003E3113F7270019CF918BC8
:104B200095C3B7A701009387479E37A501005CC0D6
:104B30001305454F08C4E31205EC23247401232216
:104B4000040065BD1C419C4303A8C70042C6EFF0AA
:104B50009FA83248131725009306300283270803C5
:104B6000AA85BA9790439377F6031387A7FFE3E6E6
:104B7000E6FC0A0762971843028785479848F107C1
:104B80008A07BA97DC47C10755B5198293064400D6
:104B90001376F60F4285EFF0DFA869BF23224401A8
:104BA000528549BFE517D9BFC947C9BFCD47F9B736
:104BB0009147E9B7D947D9B79547C9B7D1477DBF1D
:104BC000D5476DBF81475DBF83A7CC0026850144D3
:104BD00083A98703EF50D039DC44130750042A8996
:104BE00088C3D8C3A107DCC485473ECC3ECE83A78B
:104BF000CC009C4FE357F4DC93172400CE979043EE
:104C00003408CA852685EF50104E0504CDB7EFB2A3
:104C10009F905D712A842E871DC6B285C10513063B
:104C2000C003480836C63AC4EF30803C2247B2463B
:104C3000B7A501005008938505442285EF30201E5A
:104C400061616FB09F8F9307F003FC82D5B7EFB21D
:104C50009F8C784D2A841DC74C451C510546BA9738
:104C600003A785FF98C103A7C5FFD8C1984323AC0C
:104C7000E5FEDC4323AEF5FE938785005CC5E115B8
:104C8000EF00D0278945228569245D7132DC36DE4C
:104C9000BAC0BEC2C2C4C6C61C4922D426D2DC4792
:104CA00006D62A8444496356F0002EC6EF10F04C15
:104CB000B2453018228532CEEF302018BE30898BB5
:104CC00091CF2AC62685EFF03F929C40B245AA8636
:104CD0009C432285DC47B047EFF07FF32285EFF05D
:104CE0001FF7EFB25F8341112A8432C6AE84EF60B2
:104CF000400E2AC4A6852285EFF07FB5A246324633
:104D0000B7A501002A879385454C2285EFF0FFF770
:104D1000EFB27F80DC410547BD8BF5176363F70079
:104D2000B28537A601001306C644EFF09FFBEFB231
:104D30008FFED8418D4701112A892E84B2846319D0
:104D4000F7009C613EEE3686A6854A85EFF07FF936
:104D50006C08228536C6EF60100EB2466DF5A2844F
:104D6000DDB7EFB24FFBD841CD474111AA842E8465
:104D700032896310F7029C413EC6CA852685EFF052
:104D80001FADB7A501002A869385C5492685EFF09A
:104D9000DFEF01466C002285EF60301079FD22893B
:104DA000E9BFEFB24FF741112A8432C6EF606002CB
:104DB0003246AA842285B285EF60A001AA852AC660
:104DC0002685EFB09F8FB246268601E9B7A5010080
:104DD000938585452285EFF05FEBB7A501009385AC
:104DE000C5472285EFF07FEAEFB24FF13C554449C9
:104DF00003290507FD173CD585E39377890089CF03
:104E00007C5185493CD5BE3013F7070419CB93F785
:104E1000F7FBBEB06FB0CFF193774900E5DF814972
:104E2000DDB72A84638509007D568D45F126137907
:104E30004900630109049C40C8487D569C43DC47F7
:104E40008C5B9C5F3307B54009877D1789C7931634
:104E50002700BE96904201CF184C637AA700FD56FA
:104E600089C70D8FBA9783A6C7FF6305D60089450A
:104E700022855926DC48182485461CCCE31CD7F82B
:104E80006383090038D4F117DCC8BE30854522851C
:104E900093E70704BEB05C44E1179CC09D28EFB2C5
:104EA0008FE79147AA843284638CF5009947638425
:104EB000F5025C4503A787FF18C283A7C7FF39A087
:104EC0001C49BC5F1CC2DC2393E707045CC02104BF
:104ED000C0C46FB08FE6B7A501005D469385C5617C
:104EE000EF50604C08C05C21C5B7EFB2CFE240453F
:104EF0000E06AA84118C40C5EF50E04E08C05C211C
:104F0000094593E707045CC0DC44A107DCC46FB02B
:104F1000CFE2EFB24FE01C5981CB23ACB71213851F
:104F200087008545EFB0EFF204492A840CA4BC58F1
:104F3000985B11CFD84793068700D4C754453E8568
:104F400003A686FF10C383A6C6FF54C3D937FC54FB
:104F500089CF5045EFF0BFF45C485844D44363F325
:104F6000E600D8C3FC5422858297EF00A11795CDA7
:104F7000EFB26FDAAE868305060041112A843685CA
:104F800032C636C4EF101140A246324601EDB7A535
:104F90000100938545522285EF2070688D4522855A
:104FA000EFF03FF741016FB04FD98280EFB20FD5DC
:104FB000AA84884141112E841C411387F7FF18C130
:104FC000A9C35C411387170058C19C236D474C58F7
:104FD00003290400832984036399E70237A60100AB
:104FE000130606552685EFF09FF84E86CA8526855E
:104FF000EF60A044AA852685EF00901C41016FB0A8
:105000002FD3EF800025AA87D1B737A601002685C8
:10501000130686553EC6EFF09FF5B2474E879306BE
:10502000040113064400CA852685EF405048D9B7CD
:10503000EFB26FCE8357E5064D7118083EC21C597A
:105040002AC018D928082EC432C6232401143EC809
:10505000EFB0EFD909E5B2450245A2478297024772
:10506000C247032581141CDBBA8712472397E70642
:1050700071616FB08FCCEFB26FC813871500B7079F
:1050800000200451832905066364F700EF20407A6D
:10509000139935002E8ACA8613963900A6852A846C
:1050A000EF20007A08D063C349035C44130989FDEB
:1050B0002A99858FAA975CC45C5023204407232E2D
:1050C000240181EF5C4885E36FB08FC69397390068
:1050D000AA9723A207008509F9B79843058F2A9755
:1050E00098C39C47F9BFD843058F2A97D8C39843E4
:1050F000058F2A9798C3BA33098B09C7984B058F38
:105100002A9798CB9C47C1B7EFB2EFC03851B7464A
:105110000F009386062463D5E6009945EFF07FDF04
:105120005C4510512A84918F8D87AE979315170097
:10513000950763D3B600B68563D5F50237470F00F0
:1051400093060724BE8563DEF6009305873022852B
:10515000EFF07FF2B7A50100938585BE2285EFF0C1
:10516000DFB22285EFF03FF16FB02FBDEFB2AFBAE3
:1051700040455C49AA84B9E79C50B85026851D8CEF
:10518000B7470F000D8493870724050463D2E70413
:10519000EF409053B7470F001387B723634287024E
:1051A000A145B345B40293870724A295A90563D30B
:1051B000B700BE85BC5063D5F5002685EFF0BFEB88
:1051C0006FB0AFB7D8436373E4003A849C4765B7C8
:1051D000EF40306DC1B7EFB20FB458455C4D2A8433
:1051E000998F21476345F7008545EFF0FFF15C4457
:1051F000A1075CC46FB06FB4EFB24FB0032A85054E
:10520000597163040A06834745072A84B9CF444984
:1052100058451C5103A944002EC6B309F740330971
:10522000F9405C4D32D0A6D6998F1307000A63452A
:10523000F700D145EFF05FED5C446C002285938769
:10524000070ADCC0230A0406BE3093E74700BEB05D
:10525000029A8547230AF4061C503E9923A2240192
:10526000CE975CC4BE30ED9BBEB065616FB04FACF5
:10527000EFB2CFA838594111AA84937767002E84E2
:105280000399050295C3098B09CF8329050285453A
:1052900036C6B30936417D56EFF01FF69050B24640
:1052A0004E961C44DC4B9CCC1C440840DCC863017B
:1052B000090285476307F900FD576317F9040147A1
:1052C0001DA899E2138641821C421CC15C425CC14C
:1052D00093173900B306F500D4C405451DA09317F4
:1052E0003700B305F500B29703A80700050723A010
:1052F0000501DC43DCC1E344D7FE8E06AA96D4C484
:10530000014541016FB0CFA2814563DA260363CB2B
:10531000D50263D306008146E3DC26FB13973600F3
:105320002A97232207008506C5BF13973500B307C8
:10533000E50032971443850594C35843D8C3E3C6A8
:1053400025FF79B713973500B307E5003297032897
:105350000700850523A007015843D8C34DBFEFB20E
:105360008F9B4049AA843E3013F7070109C7BD9BB4
:105370003EB05C487CCD03170402FD576317F7006D
:10538000DC4458406373F7005CC01C48104C268511
:105390008297D04493173500AA861D8EA285268554
:1053A000EFF01FED6FB06F99EFB2EF962A8481C5D1
:1053B0008C41EFF0DFFA930444035C486394970058
:1053C0006FB0AF97BE33898B91E785452285EFF0AB
:1053D0001FF9E5B72285EF6010342285EF60304673
:1053E000E9BFEFB2CF902A84AE84B289D94A130BB9
:1053F0006002194AA14BD4400329C400584C93F6CB
:10540000F603330727416387561963836611639B4D
:10541000461B9C40330999401359394083AAC70061
:105420000D87930BF9FF03CB8A006341EB021C50FD
:105430009D8C1C48DC476355F0002285EF10E0533B
:10544000DA852285EFF05FCC1C50BE9483C77A00CA
:1054500003C66A0063830716E157B307F902032AFC
:10546000C4000145D297AA866351C5024C44A107E6
:105470001387850063437513BA8723AE07FE85063D
:105480003E87A107E3CBC6FE58C45C4803A9C7000A
:10549000631609002285EF40D0202A89232A24019F
:1054A0000E0B2328490183A70A035A9A2858231070
:1054B0003903232099002322490123264401094767
:1054C000232AF9002311E902058979C103278900FC
:1054D0009107232AF9003E338145898B99CF5C4B94
:1054E0001307500283A7C7FF93F7F7036397E700FB
:1054F000930720022311F902914522857D56EFF092
:10550000BFCF832749010145F117232AF90049A09C
:105510009C4003AAC7009307000A63C1E7021C501E
:105520009D8C1C48DC476355F0002285EF10E04459
:10553000D1452285EFF05FBD1C50BE945C4803A9A5
:10554000C700631609002285EF40B0152A895C4424
:10555000232A2401231039039387070A2322F90001
:105560003C582320990023110902858B91C77D5651
:1055700081452285EFF05FC82285029A5044931737
:105580003500AA861D8ECA852285EFF07FCE05459F
:105590006FA07FF903AA0400BDBF58C49843050556
:1055A00098C1D843D8C123A2070075BD5C44850BC0
:1055B0001387870058C423A20700E3C9CBFE138AD0
:1055C0008400E1B563C1EB021C509D8C1C48DC4794
:1055D0006355F0002285EF10403A85452285EFF0B3
:1055E000BFB21C50BE945D46A6852285EF50E0797F
:1055F0005C41BD8B638A470137A6010013064657FD
:10560000A6852285EFF0EFED5844BA8763E9F400F0
:105610001C41210758C49CC05C41DCC0E9BB83A687
:1056200087FFE11794C7D443D4C7CDB7EFA2BFEE2D
:1056300094414C452A84939736009D8D1C2599EB07
:105640007D56E115EFF0FFD901E52285EF60301FAF
:105650006FA0BFEE4449230405001C51D84CBA97F3
:105660009CC0BE30898B81CBEF60701D8145228547
:10567000EFF09FD3F1BF9C4889CB904C8545829732
:105680004C4493173500AA869D8D2E862285A685CB
:10569000EFF01FBEE1BFEFA21FE8EFF09FD46FA0B5
:1056A000DFE9EFA25FE78357E5061307700C2A8452
:1056B0008507C207C1832317F5066373F702130733
:1056C000800C6398E700B7A5010093850556EFF0BD
:1056D000CFDB1307000E6375F7009945EFF07F836A
:1056E0002285EFF01FD001E52285EF60501583572A
:1056F000E406FD172317F4066FA03FE4EFA2BFE115
:105700008357C5062A8485072316F506EFF07FF92F
:105710008357C406FD172316F4066FA01FE2EFA2FD
:10572000FFDD1C25011132C62A8499EF58499307E1
:1057300045036303F702B7A501009385C557EFF052
:10574000CFFA05616FA0DFDE05476387E700B7A5E5
:1057500001009385455AE5B78359C406A9E58547F5
:105760002317F406B755000023160406700093852E
:10577000C5622285EFF0DF8BFD576308F5042ACE62
:10578000854A375A0000724963D32A054448A9E87C
:10579000504423042401CA852285EFF04FF05C4871
:1057A0005844D8C32DA083D7E5061307700C85078E
:1057B000C207C1832317F406E376F7FAB7A5010001
:1057C00032469385055622859DBF89473ECE835735
:1057D000E406231634077245FD172317F40695B720
:1057E000BE30C18B99E384445DB7DC4C10502285F8
:1057F0003E96B28532C4B12C2246CA852285EFF08E
:105800000FEA83C72402228544C8858B230AF40645
:1058100023160406EFF09F95DC48700893058A3A3A
:105820007CCC2285EFF0DF802ACEB1BFEFA2BFCEC5
:105830000357C506AA8705C31849385B6308A70044
:10584000B7A501009385455CEFF02FC4B7A5010013
:105850009385055FD5BF5849054588A703A807026A
:1058600008433305054148CF2A33098919ED14CB84
:1058700091C210CFE1568505B385D502D4473E8548
:10588000B6950CC38545EFF0CFE801456FA0FFCA80
:10589000EFA2DFC641110329C50578CD36C62A849B
:1058A000832A4501034A45078359C506EFF04FF89F
:1058B000AA84B2460DC5105022853696B28532C6EE
:1058C000492A32462285A685EFF06FDD2285232AFC
:1058D0005401230A440723163407EFF03F89232E8F
:1058E0002405268541016FA0BFC4EFA2DFC2835704
:1058F000C506397136DC85072316F50654451C515B
:10590000784D2EC2B75500009D8E32DE9385C5FAC4
:1059100050002A8402CA02CE02D002D402D602DA91
:1059200002C402C8EFF0DFF64246A245AA848146CF
:105930002285EF10F0707246D2452AC481460606D1
:10594000228502C8EF10D06F22568255814612067A
:105950002285EF10F06E5256B2558146120622850E
:10596000EF10106E8357C4062685FD172316F40624
:1059700021616FA09FBCEFA21FBA139635002E8441
:10598000410693056002EF00302F60A16FA0FFBABF
:10599000EFA27FB8139625002E8441069945EF00AB
:1059A000B02D2326050060A17D577D146314E4000B
:1059B0006FA0BFB893172400AA9723A80700F5B7D4
:1059C000EFA2DFB3AA892E89938405010144054A19
:1059D000834769006344F4006FA09FB5C146014648
:1059E00081454E85EF10D065930785002322450140
:1059F0001CC12326050088C005049104D1BFEFA275
:105A00009FB12A841309450248511DE9AE84C1465D
:105A1000014681452285EF10B062832709002322C9
:105A200005001CC585475CC55C542320A90004C142
:105A3000639687001C48F84F58D4E0CF6FA0FFAFA3
:105A40001C41E3E5B7FCE38BB7FE1309850008456D
:105A50006DBFEFA25FAC2A84AE844C5081C59C41DF
:105A600063F497006FA07FAD984558D0D84119E7EF
:105A7000814641462285EF10B05CC5B7984398C572
:105A8000DC431387850098C1DCC593F70704F1D781
:105A90002285EF00F01AD1B7EFA2FFA71306000589
:105AA000A545EF00701D2326050223280500232AA3
:105AB0000502232E05002328050223220504232A9C
:105AC0000500232C0502232C050023200504232692
:105AD00005002313050023040500232E05022320BF
:105AE00005022322050223240502232405046FA0B6
:105AF000DFA4EFA25FA2D0492E848C5981460A060A
:105B0000AA84EF10F053504C4C5881460A06268563
:105B1000EF10105310484C5481460E062685EF10A6
