:041000006F10204D00
:101004000010000000000000D4170000D6170000F4
:1010140000000000D02400000000000000000000D8
:10102400D0240000D02400000000000000000000D4
:101034001AED000000000000001200000000000093
:10104400D0240000D0240000D0240000D0240000CC
:10105400D0240000D0240000D0240000D0240000BC
:10106400D0240000D0240000D0240000D0240000AC
:10107400D0240000D0240000D02400001A0C010069
:10108400D0240000D0240000D02400002E09010048
:10109400DE0901008C0A01003A0B0100D024000093
:1010A400D0240000D0240000D0240000D02400006C
:1010B400D02400007A0E0100D0240000D0240000C7
:1010C400D0240000D0240000D0240000D02400004C
:1010D400D0240000D0240000D0240000D02400003C
:1010E400D0240000D0240000D0240000D02400002C
:1010F400D0240000D0240000D0240000D02400001C
:1011040000000000D0240000D0240000D0240000FF
:10111400D0240000D0240000D0240000D0240000FB
:10112400D0240000D0240000D0240000D0240000EB
:10113400D0240000D0240000D0240000D0240000DB
:10114400D0240000D0240000D0240000D0240000CB
:10115400D0240000D0240000D0240000D0240000BB
:10116400D0240000D0240000D0240000D0240000AB
:10117400D0240000D0240000D0240000D02400009B
:10118400D0240000D0240000D0240000D02400008B
:10119400D0240000D0240000D0240000D02400007B
:1011A400000000000000000000000000000000003B
:0C11B4000000000000000000000000002F
:10120000130181F806C216C41AC61EC822CA26CC0B
:101210002ACE2ED032D236D43AD63ED842DA46DC66
:101220004ADECEC0D2C2D6C4DAC6DEC8E2CAE6CC36
:10123000EACEEED0F2D2F6D4FAD6FED8F3220030BF
:1012400096DA97F2FF1F83A2E20A23A02200F32579
:1012500010342EC09305000273A0458003A1C18203
:10126000EFE0105117F3FF1F0323C308032103000E
:10127000824273901234D652739002309240A2424E
:101280003243C2435244E244724582551256A2563A
:101290003257C2575258E25872598649164AA64ADE
:1012A000364BC64B564CE64C764D865D165EA65EBA
:1012B000365FC65F13018107730020301300000002
:1012C00013000000130000001300000013000000D2
:1012D00013000000130000001300000013000000C2
:1012E00013000000130000001300000013000000B2
:1012F00013000000130000001300000013000000A2
:1013000083A2C182938202E07390023417F1FF1F1F
:10131000032141FE024182403243C2435244E2442F
:10132000724582551256A2563257C2575258E25849
:1013300072598649164AA64A364BC64B564CE64C5D
:10134000764D865D165EA65E365FC65FD652A102FA
:1013500073900230A24213018107828013000000C3
:101360001300000013000000130000001300000031
:101370001300000013000000130000001300000021
:101380001300000013000000130000001300000011
:101390001300000013000000130000001300000001
:1013A00013000000130000001300000013000000F1
:1013B00013000000130000001300000013000000E1
:1013C00013000000130000001300000013000000D1
:1013D00013000000130000001300000013000000C1
:1013E00013000000130000001300000013000000B1
:1013F00013000000130000001300000013000000A1
:10140000F322003093F272FF130380781203B3E2E9
:101410006200711523205500130585FA10C12115AE
:10142000232005009302000063870200711523202A
:101430000500FD12D5BF71150CC1828000000000AF
:10144000000000000000000000000000000000009C
:10145000000000000000000000000000000000008C
:10146000000000000000000000000000000000007C
:10147000000000000000000000000000000000006C
:10148000000000000000000000000000000000005C
:10149000000000000000000000000000000000004C
:1014A000000000000000000000000000000000003C
:1014B000000000000000000000000000000000002C
:1014C000000000000000000000000000000000001C
:1014D000000000000000000000000000000000000C
:1014E000000000000000397101436EC619A0397177
:1014F00041536AC866CA62CC5ECE19A039710153E5
:101500005AD056D252D44ED64AD826DA22DC06DE3B
:1015100033016140828241114AC026C222C406C6FC
:101520008282B24D4101024D924C224CB24B41019C
:10153000024B924A224AB249410102499244224452
:10154000B240410182803D432A876373C30293778F
:10155000F700BDEFADE5937606FF3D8ABA960CC362
:101560004CC30CC74CC74107E36BD7FE11E2828026
:10157000B306C3408A069702000096966780A600CD
:101580002307B700A306B7002306B700A305B700DB
:101590002305B700A304B7002304B700A303B700D3
:1015A0002303B700A302B7002302B700A301B700CB
:1015B0002301B700A300B7002300B700828093F592
:1015C000F50F93968500D58D93960501D58D61B75E
:1015D000939627009702000096968682E78086FA07
:1015E0009680C1171D8F3E96E374C3F8A5B72320DC
:1015F000150040C104C52326250123283501232ACF
:101600004501232C5501232E650123207503232238
:101610008503232495032326A5032328B503232A22
:10162000250200FD24E12724250527283505272C40
:101630004505272055072724650727287507272CE8
:101640008507272095092724A5092728B5090145DD
:10165000828083200500404104450329C500832979
:101660000501032A4501832A8501032BC501832B2C
:101670000502032C4502832C8502032DC502832D10
:10168000050303214503007D24610729850487297B
:101690000505072A8505872A0506072B8506872B5A
:1016A0000507072C8507872C0508072D8508872D3A
:1016B000050913B515002E9582803367B500FD53DB
:1016C0000D8B79E7B7877F7F9387F7F710419441B8
:1016D000B372F6003363F600BE92B3E26200639524
:1016E000720C6318D6065041D441B372F6003363CE
:1016F000F600BE92B3E262006396720A631BD604E0
:1017000010459445B372F6003363F600BE92B3E21F
:101710006200639F7208631ED6025045D445B372BF
:10172000F6003363F600BE92B3E26200639872087B
:101730006311D60210499449B372F6003363F60080
:10174000BE92B3E26200639172085105D105E30FC6
:10175000D6F61317060193970601631CF70013577B
:10176000060193D706013305F7409375F50F91E90C
:1017700082804183C1833305F7409375F50F91E172
:1017800082801377F70F93F7F70F3305F7408280C6
:1017900010219421050585056313D60075FA3305DC
:1017A000D640828011059105E314D6FE0145828062
:1017B0002105A105E31ED6FC014582803105B10556
:1017C000E318D6FC014582804105C105E312D6FC31
:1017D0000145828001A037A501005D711305856771
:1017E00082E686E48AE28EE012FE16FC1AFA1EF801
:1017F0002AF62EF432F236F03AEE3EEC42EA46E8B1
:1018000072E676E47AE27EE0EF50915C01A09D47BB
:1018100063E9A704EFF23FD0E967938787680A0579
:101820003E951C4182873715014093050002130540
:101830000580EFF0E05B11B38945371501401305D2
:1018400005C0C5BF9145D5BFA145C5BFC145F5B7C9
:1018500093050002DDB793050004C5B793050008A2
:10186000E9BF0145828037050020130545288280A5
:10187000EFF27FCA0111A1475C84B707002093876C
:10188000C7273EC8B7070020938787283EC6B707FB
:101890000304D1073ECA8947230CF100B727000093
:1018A0009387E78028003ECEEFD0201B056171B101
:1018B000B707002003C527298280EFF25FC34D3FA1
:1018C000EFD000191C4137040020E964232AF428D2
:1018D000B70B0020130444299D49370A0020938444
:1018E000846A930A00F8130B0004370900200545A9
:1018F000EFE0A061EFD0801B0840EFD0505465D9D5
:1019000008407D5693850B29EFD0102E138C0B29A0
:1019100003470C0093860B2993073A2963E6E904F1
:101920000A07269718430287054798A38C321306A7
:101930000008982393062929834729296399C5021A
:10194000D98F9CA26DB70947CDB71147F9BF214781
:10195000E9BF4147D9BF13070002C1BF2380670118
:10196000F1B723805701D9B723800700C1B71347C8
:10197000F7FFF98FF9B7EFF21FBA1145EFF04028E2
:101980000545EFF0804A0545EFF0404C8547E30CF4
:10199000F5FE371501408565130505C0EFF0E045FC
:1019A00069BEEFF25FB7370700208357472A9306D7
:1019B000F0031307472A8507C207C18363E1F60ACC
:1019C0001EA3B7070020835807003707002093861F
:1019D000072A035707232390060023810600B70632
:1019E00000209386862988228C32B0229387072A8A
:1019F00063FCE802B70600209386C6293367B5006A
:101A000003C80600518F1347F7FF1377F70F33789A
:101A100007012381070103C81600B42233780701A8
:101A2000758FA380070198A337070020035727234A
:101A300063FBE800B823598D9833A8A3D98D982368
:101A40008CB3598E90A3371501408565130505C0E9
:101A5000EFF0E03A8D451145EFF0E018F9BC2310A6
:101A6000070085B7EFF23FABEF30517CB7A701001D
:101A700003A6076F83A6476F37A40100EF20914E9E
:101A80000326846F8326C46FEF20413AEFF0004DA8
:101A90000326846F8326C46FEF20D14CEF3031686A
:101AA0004205418159BCB7070020938787293E959D
:101AB000A30FB5FE82801307F003636AA700EFF25D
:101AC0009FA54D37370700202319A722BDB49307E0
:101AD000F003370700202319F7228280B707002080
:101AE0001387C729FD567D1516A334A31375F50F6B
:101AF00021479387C729636EA70269671307876C1D
:101B00000A053A9518410287A38007002381070040
:101B100082802380070023810700828023900700B2
:101B20008280238107008280A38007008280238037
:101B3000070082801307F003636AA700EFF2BF9DDE
:101B40001537370700202318A722C5BA9307F003DB
:101B5000370700202318F7228280EFF2DF9B2A84C8
:101B6000EF10603585476318F5020146FD55AA84DC
:101B70002285EF1060518145EFC01043530500F0FE
:101B800063169500B7A7010007A507702285EF101F
:101B9000A06705455DB20145F5BFEFF2DF972A84E6
:101BA000EF10603101CD8547630DF5000145537598
:101BB00005D02285EF104065054541B2EFC0501DAC
:101BC000FDB7014685452285EF10004CEFC0701E21
:101BD000F9BFEFF2BF920111AA89EF10C02D05C91C
:101BE000854701446312F5020D4685454E85EFE0B9
:101BF000B13E014685454E85EF1000492AC42800B4
:101C0000EFC0D01D2A8409E92285056115B228009C
:101C1000EFC0104C0144CDBF00872400014985046A
:101C2000E35489FEFC204E85050953F517D0EF10CB
:101C3000A05DF5B7EFF29F8C01112A84EF10A02769
:101C400089476315F5041546FD552285EFE0D13827
:101C50000146F9552285EF1020432AC42800EFC021
:101C6000F01785476315F504FD552285EFF0411FF8
:101C7000240005499379F50F850463DD2901B7A791
:101C8000010007A507702285EF1000580545056182
:101C90006FF01F8AFC20228553F517D0EF10C05635
:101CA0004A86F9552285EF10B00B0509F1B75305A7
:101CB00000F02285EF104055D1BFEFF2DF852A8476
:101CC000EF10601F8947631BF5000146854522859B
:101CD000EF10803B1375F50FEFC0101901456FF041
:101CE000DF85EFF25F832A84EF10E01C89476310E1
:101CF000F502014685452285EF10003901468945E8
:101D00002285EF10603842054181EFC03041014526
:101D10006FF0BF82EFF23F802A84EF10C019854731
:101D20006319F5000146FD552285EF10E035EFC03F
:101D3000304901456FF07F80370500201305C52A23
:101D40008280EFF24FFD1C4163DB0700860785832D
:101D50001CC185471CC9EFC090326FF00FFE2328CD
:101D60000500D5BFEFF28FF90111AA890949EF10DB
:101D700080146351A9042A8A014689454E85EF10D3
:101D8000A0308545EFC050229307EAFF6400230886
:101D9000F1000144A68A33094941834701018504C2
:101DA0000146634DF40085454E85EF10E02D2AC6AF
:101DB0005685413F014505616FF08FF7B3058900F6
:101DC0004E85EF10602CC8A00504C1BFEFF20FF3E1
:101DD00001112A89EF10200E7D151375F50F2308C8
:101DE000A100854763F2A70264000144A6898345E8
:101DF000010185040146634DB40085454A85EF1015
:101E0000A0282AC64E85353F014505616FF04FF287
:101E1000B305B4404A85EF102027C8A00504C1BF10
:101E2000EFF26FEF01112A84EF10E0088D47631580
:101E3000F5028D452285EF1000169547631EF500CB
:101E4000014689452285EF1020241375F50F2308DC
:101E5000A100A14763F9A704014505616FF0EFED0B
:101E6000138914004A868D452285EF10E0550146FE
:101E7000FD552285EF1040211C10BE94A388A4FEBE
:101E8000F9552285EF1000049374F90F834701017F
:101E9000E3E8F4FC014685452285EF10E01E2AC6E2
:101EA0006800453555BF8144D5B7375702001C330C
:101EB00028231423A2074205C98F2833D58F620532
:101EC0005D8D8280EFF22FE20111B70400201D45E5
:101ED000375C020002CC230E010001490131370AB0
:101EE000002023A8042AB7AB01009384042B930994
:101EF0004C0009440545EFE040019C400547638DD7
:101F0000E71E81C7E38787FEF5B713048A2AEFE04F
:101F1000B17208C0EFF071150840B7250000014606
:101F20009385C5DCEF10E03D0840B7A5010093851F
:101F30004570EF10C05E0840B7250000014693854C
:101F400005E2EF10003C0840B7A501009385C5707D
:101F5000EF10E05C0840B725000001469385A5B965
:101F6000EF10203A0840B7A5010093858571EF1066
:101F7000005B0840B72A0000014693852ABDEF1098
:101F800040380840B7A5010093854572EF102059ED
:101F90000840B72500000146938545D6EF1060360E
:101FA0000840B7A5010093850573EF10405708401E
:101FB000014693852ABDEF10C0340840B7A5010043
:101FC00093850574EF10A0550840B7250000014621
:101FD0009385A5B5EF10E0320840B7A501009385C1
:101FE0000575EF10C0530840B725000001469385E2
:101FF00045D1EF1000310840B7A501009385057663
:10200000EF10E0510840B72500000146938545C315
:10201000EF10202F0840B7A5010093850577EF103A
:1020200000500840B72500000146938525CEEF10EB
:10203000402D0840B7A5010093850578EF10204E8C
:102040000840B725000001469385A5CBEF10602B13
:102050000840B7A501009385C578EF10404C0840B3
:1020600001468D45EF1090009315A5001385CB799F
:10207000EF5001441D3DAA8537A501001305857A5F
:10208000EF5001431D35930A1500814581476D4B83
:10209000930CC004130D5007930D100663EB55010C
:1020A00037B5010013058582EF50815289479CC0E6
:1020B00089B53307BC005823631EF702639C0714DD
:1020C00083C709006398671583C719006394971540
:1020D00083C729006390A71583C73900639CB71392
:1020E000B7A701001385C77B2EC4EF50614EA245F0
:1020F0009307F00F85055DB70145EFE030651304E8
:102100008A2AAA85AA8C0840130B8A2A0D4DEF1043
:102110008010832A0400EFF0AFF9AA855685EF10EE
:10212000800F084009468145EF407000B707002046
:1021300023AAA72A9387472B930A810101443EC40F
:10214000914D03250B009377F40F9345F4FF01465F
:102150003EC6EF00707383C60A0005041375F50FC1
:102160001377F40F638DA600B2472380AA00638D16
:10217000A707638EB707AA853A85EFF0DF929547E8
:10218000850AE310F4FC0509420913590901930774
:10219000803E631AF9028347C1010347B1018346B8
:1021A000A101034691018345810137B50100130563
:1021B0004580EF50E12F37B50100E6851305858195
:1021C000EF50012F01490145EFE03057A2479843F6
:1021D000854763E1E7020545EFD0305303250B0047
:1021E000F955EF00304E31B3EFF0FF8C49BFEFF0FF
:1021F0007F9471B703250B000146FD55EF00106E6B
:10220000AA8537A501001305C57CEF50612A8947CF
:102210009CC0E9B737B5010013054583EF5041294C
:10222000832A040059312A860147CE86CE855685F9
:10223000EFE0D13BB707002023AAA72A09CD084029
:10224000FD550146EF009069AA8537A501001305E9
:10225000C57CEF50E12508408147014781467D5606
:102260008145EF10004FB707002023ACA72A138B3E
:10227000872B09CD0840FD550146EF003066AA8541
:1022800037A501001305C57CEF5081220840B7AA8D
:1022900001009385CA7DEF10000FB707002083A5CA
:1022A000472B37A501001305457EEF50612083259C
:1022B0000B0037A501001305457FEF50611F084053
:1022C00001468D45EF10805A9315A5001385CB79F3
:1022D000EF50011E0145EFE0B03808409385CA7DFC
:1022E000EF10600A85479CC029B1EFF2CFA2312AD6
:1022F000EFD01151716513050520EFE0203EB707BF
:10230000002083A5472337B5010013050584EF504E
:10231000211AEFD0116AEFD01160EFD0700201A046
:10232000B71702409843B706FFF041111367170033
:1023300098C3D84337060200758FD8C39843B706B1
:10234000F7FEFD16758F98C39843B706FCFFFD1680
:10235000758F98C3D843B70601FFFD16758FD8C394
:1023600037079F0098C702C402C69843C166558FBD
:1023700098C3B716024005679C42F18F3EC6A2473C
:1023800085073EC4B24781E7A247E397E7FEB71748
:1023900002409C431397E7006357070685473EC6F4
:1023A00032478547631FF704B7170240D843B70683
:1023B000C1FFFD16D8C3D843D8C3D843136707401D
:1023C000D8C3D843758FD8C3D843B7063D00558FBF
:1023D000D8C39843B7060001558F98C39843931606
:1023E0006700E3DD06FED843B7160240719BD8C3F1
:1023F000D84313672700D8C32147DC42B18BE39E43
:10240000E7FE4101828002C661BFB7160240DC428E
:102410001146B18B138741806385C70021466388CD
:10242000C702B7177A00938707201CC3B71702406B
:10243000DC43918393F6F700B707002093870700EA
:10244000B69794231C43B3D7D7001CC38280DC42C9
:10245000D4424166C983BD8BF18E8907454663939B
:10246000C700C94781EEB746024083A60680C18AED
:1024700089CEB7167A009386062021A8B7160240A7
:10248000D4421396E600E35606FEB7163D00938647
:102490000690B387D70251BFB7270020938747A084
:1024A0001CC1B7170020938747549CC193070008AD
:1024B0001CC28280B72700209387C7B01CC1B71702
:1024C0000020938747749CC1930700081CC2828038
:1024D00001A097E1FF1F9381E155176100201301CF
:1024E00061B217B501001305A50997E5FF1F938594
:1024F00065B11386C18463FAC5008322050023A059
:10250000550011059105E3EAC5FE17E5FF1F130508
:1025100025D7970500209385E5E36377B500232051
:1025200005001105E36DB5FEFD42739002BCFD424E
:1025300073904280B78200009382028073900230D1
:1025400097F2FFFF938242AC93E2320073905230D5
:10255000EFF01FDD97020000938262D9739012346E
:10256000730020309317350063DA0700B707024085
:1025700083A707407D8D3335A00082809317250007
:1025800063D70700B707024083A7074DE5B7B70732
:1025900002409C43C5B79317350063D70700B707C0
:1025A000024023A2A74082809317250063D707002B
:1025B000B707024023AAA74C8280B7070240C8C3CE
:1025C0008280EFE25FF5793F6FE03FF7EFE2BFF423
:1025D000D9376FE09FF6372702405C470545858B6A
:1025E00091E748474189133515000D058280EFE2D8
:1025F0009FF22A848544C5376318950019E0154574
:1026000029A0D13F7D14CDBF7DD86FE01FF39C453D
:1026100013F7070113F8F70001C7D8413368E80042
:102620008E2113F7F50F39C318418146854E3D4F72
:10263000930F800293028004214E3396DE00B3F89C
:10264000C500631116039398260033131F0113432B
:10265000F3FF3377E300B318180133E7E800639F13
:10266000F70550C98506E39AC6FD18C11307F00F98
:102670006375B70454412146854E3D4F930F800248
:1026800093028004414EB398CE0033F71501639254
:10269000E8021317260001173313EF001343F3FF6B
:1026A000B376D3003317E800D98E639DF701232A50
:1026B00015010506E319C6FD54C18280E39457FA5B
:1026C00010C94DB7E39757FE23281501DDB7B707AB
:1026D0000140635A0504DC4F9356050113180501A8
:1026E0003707300013F6F60013580801B376E500FB
:1026F00063500506639BE602930606010D46B3167A
:10270000D60093C6F6FFF58F99C913575501137775
:10271000F73F12073317E800D98F635705043707CF
:1027200001405CCF8280DC4345BF1317B500635680
:1027300007008D46B396C600E9B7135755011377C6
:10274000F73F12073317E8001347F7FFF98F6DBF04
:102750006390E602370601405442370700F17D17C7
:10276000F98F758F58C2D5F1370701405CC382805D
:102770001317B500635C07008D46B396C60093C679
:10278000F6FFFD8EB707000FD58FF1BF1357550128
:1027900012073317E8001347F7FF7D8FB707000FC5
:1027A000D98FD1B7371702405C439146B18B63850F
:1027B000D700A1466382D706B7177A009387072010
:1027C0001CC1371602405C4237070020130707017F
:1027D0009183BD8BBA9794231C41B3D7D7005CC1BA
:1027E0005442A1829D8ABA969422B3D6D70014C5CA
:1027F0005442AD829D8A36971823B3D7E7005CC553
:10280000584239839376370013878180369718238F
:10281000B3D7E7021CC982805C4354434167C98334
:10282000F98E37F7FF1F0327C770BD8B8907131673
:10283000170163480600454601476392C702C9472E
:1028400039A809476389E7023D476388E7024147A2
:102850006388E702454601476393C700C14785E6A1
:10286000B746024083A60680C18A8DC6B7167A0095
:102870009386062025A00147D9B70547B547C5B7B8
:102880000147BD47E9BFB7160240D4421396E600A0
:10289000E35E06FCB7163D0093860690B387D70229
:1028A0001CC105D31C41858321BF99C53717024040
:1028B0005C4B5D8D48CB8280B7170240D84B1345E7
:1028C000F5FF798DC8CB828099C5371702401C4F20
:1028D0005D8D08CF8280B7170240984F1345F5FFF2
:1028E000798D88CF828099C5371702405C4F5D8D06
:1028F00048CF8280B7170240D84F1345F5FF798D36
:10290000C8CF82801E31922103D82500C207C1831F
:10291000F99BC207C1831EB11E3156211A2DC20771
:10292000C183420741831377C7F8518F9225F59BE6
:10293000C20633660601D18F37360140130806C040
:10294000C182630E050113060640630AC5003756AF
:102950000140130806C0630405016310C502B225D7
:10296000DD9B03D8E500D18FD221ED9B93F6F6CF06
:10297000D18FD22533660601D18E56A11AADFA2128
:102980005AB91EB182801E3165771307F7CFC2078F
:10299000C183BD9BC207C1831EB11E31562103D81E
:1029A0008500C20713960601162DC18393F7F7FD24
:1029B000758F96214182A206558FB6214207418329
:1029C000B3E606019206D58FB7360140C2071388D9
:1029D00006C0C183630E050193860640630AD500D5
:1029E000B7560140138806C063040501631ED50273
:1029F000B62593F7F7F703D8C5009206D58FD621F1
:102A0000C207C183920693F7F7FBD58FFD769386B5
:102A1000F63FF18EF225C207C183336606010A062E
:102A2000D18E13960601418252A11AADFA211ABD28
:102A30001EB182801E3103D88500C207C18393F77F
:102A4000F7EFC207C1831EB11E3156215A2DC207AE
:102A5000139606014207962141831377C7F8558FD5
:102A6000B621C18393F7F7DFB3E60601A206D58F3F
:102A7000B7360140C207138806C04182C183630E86
:102A8000050193860640630AD500B75601401388B6
:102A900006C063040501631FD502FD769386F67FA9
:102AA000F58FB62503D8C500A206D58FD621C2075B
:102AB000C183A20693F7F7BFD58FF576FD16F18E89
:102AC000F225C207C183336606011206D18E139622
:102AD0000601418252A15AADFA215ABD1EB182802F
:102AE0001A31FD77FD17F98F1EB1035805025621E3
:102AF0005E2D65771396060196211307F7CF7D8F1C
:102B0000F977A206FD17558FB3F70701B62103D851
:102B1000850042074182B3E60601B206D58FB7367B
:102B20000140C207138806C04183C183630E0501BB
:102B300093860640630AD500B7560140138806C045
:102B400063040501631BD500F176FD16F18ED225D5
:102B50001A06D18E13960601418252A15AADFA216E
:102B60002310E5041EB182801E2DC207C183DD9BA8
:102B7000DD8D0EAD82801A2DFD779387F77FF98F5B
:102B8000A205CD8FC207C1831EAD82805E2DC20714
:102B9000C183DD9BDD8D4EAD82805A2DFD779387FD
:102BA000F77FF98FA205CD8FC207C1835EAD82800A
:102BB0001E294A25ED8F4205418189C76D8D333528
:102BC000A000828001458280EFE2FF941629F5770C
:102BD000FD17F58FF621DA257971D58F1EA95625B7
:102BE000FD779387379FF58FD6212A842EC6D58F00
:102BF0009625D58FB625D58F5EA55E29C207C183E0
:102C000093F7F7CFD98F5EA96808693EB7470140AF
:102C100093870780B245631EF402A2576547B387C6
:102C2000E7029841930640060A07B3D7E70233D775
:102C3000D702B3F7D7021207920793872703B3D7B8
:102C4000D702BD8BD98FC207C1831EA445616FE037
:102C5000DF8E9257E1B791C55E250967D98F5EA5D2
:102C600082805A25F977FD17F98FD5BF93F5F51FA7
:102C70004EA182800A216D8D3335A0008280544997
:102C8000635CB000939735008C42BE955C4563EF62
:102C9000F5009385418219A8B7C7F0FF1387979D68
:102CA00063C8E500939735004C45BE952E8582801C
:102CB0001387879D6396E5000C4993854502FDB710
:102CC00094425946C842E306C5FC88420D8F7421E0
:102CD000E3C1E6FCB385B7409385959D8E05AA9523
:102CE000F1B7EFE25F838C41EF3000636FE0FF8468
:102CF000EFE27F82AE84B2852A84EF80D00FD44089
:102D0000930750042A8901476398F602AA858840F0
:102D1000EF8010565C412A8785C35C441441A107AB
:102D200023ACD7FE584123AEE7FE5CC45C4403A548
:102D3000C7FF3D896FE07F805444A685228523A08C
:102D4000260183474900368693E70704DCC2938750
:102D500086005CC4EF90503FD1BFEFE2CFFBAE8462
:102D60004111B2852A84EF801009D44093075004A2
:102D70002A8901476398F604AA858840EF80504F5E
:102D80005C412A87A1C3544483A7C6FF93F7070475
:102D900099CF8C40DC31918B99CB83A786FFDC33B4
:102DA0008D8B91C72AC62285EF40900932475C443B
:102DB00083A687FFE11714C3D44354C35CC4410105
:102DC0006FE0AFF75044A685228523202601834774
:102DD0004900930686FF93E707045CC293078600C9
:102DE0005CC4EF9070415C44C117C9BFEFE2AFF221
:102DF000D0418C41EF3090316FE02FF4411163648A
:102E0000B50041018280944118415C4114C1D44114
:102E10002105E115232ED5FE98C5DCC5CDB7EFE21F
:102E20008FEF5C45544D41112EC69D8E8D862A84B0
:102E30000329450163C6D502145137470F00130714
:102E40000724958F8D870D8F950781446346F70280
:102E5000B73500007000938525CEEF30603E09ED58
:102E6000B2478544139737005C44BA97032749005B
:102E70006374F7002322F900268541016FE0EFEB30
:102E80001C49E857ECD7828001C51C49E85B828069
:102E9000138501828280B7470F009387776233875B
:102EA000F50063E8E70058495C451843998F8D8722
:102EB000BE952E8582805C4948459C43A1071D8DA7
:102EC0000D858280938715008E0763C005025849DF
:102ED0001843BA9758456364F7005CC5828093062F
:102EE000870054C523220700F5B75845BA97F5B7B0
:102EF000EFE26FE2444532845933E1142A89634199
:102F000004020E0433848440A2854A85C53DA6850B
:102F100013058400E535A6854A85CD356FE0EFE1E0
:102F2000050461563304C4022A94F9BFEFE2AFDE10
:102F30003289AA84A9332A84CA85268589331C400C
:102F40001CC15C405CC1B7C7F0FF9387879D63538A
:102F5000F9025C4093F7070491CFDC489C438C4313
:102F6000DC31918B81CB10405C328D8B81C7268503
:102F7000EF40606A6FE06FDCEFE2EFD94045AA8472
:102F8000FD391C412104232CF4FE5C41232EF4FE68
:102F9000C0C46FE08FDAEFE20FD8D531938741825A
:102FA0006306F50048413D896FE02FD97D55EDBF9F
:102FB0008505F1679387C7E48A05BE9588418280BD
:102FC000EFE26FD56D3948413515133515006FE0C7
:102FD000CFD6EFE24FD441115D3158418D476308A0
:102FE000F7006C00EF90300641016FE00FD505450A
:102FF000E5BFEFE24FD2613148413D897515133588
:1030000025006FE08FD3EFE20FD141112A8932C63C
:1030100013844182AD31630185023246AA844A8518
:10302000B285B1392A86014563058600A685EF90F1
:10303000305241016FE06FD00145E5BFEFE2AFCD07
:103040002A842E854C44EF50B05701C55C44A1073B
:103050005CC46FE08FCEEFE20FCC41113284EFF011
:103060001FC254410D47639BE6001C6105453EE6C7
:1030700011C008C0326541016FE02FCC6C00EF90A9
:10308000807C7DF502C6EDB7EFE2EFC841113284D6
:10309000EFF0FFBE54414D47639BE6001C410545E0
:1030A0003EC611C008C0324541016FE00FC901465C
:1030B0006C00EF90807F75F502C6E5B7EFE2AFC513
:1030C000EFF0FFBB5841814719C785476315F700EB
:1030D0001C41B337F0003E856FE02FC6EFE2AFC36F
:1030E000AA842E893284EFF09FB95C411147BD8BD1
:1030F000638AE7020D476388E700014519C0232072
:1031000004006FE08FC3AA852685EF5050689C4865
:10311000DC476355F0002685EF403027CA852685B9
:10312000EFF0FFB501C81C411147D4236397E600B7
:10313000FC331CC008414105E9B7DC47DDBFEFE2C5
:103140008FBDEFF0DFB35C41154793F7F70363865C
:10315000E7026348F7001147638EE70001456FE01F
:10316000CFBD1D476385E7005147E399E7FE1C414A
:10317000C847F5B71C41E833DDB70841EF80F05090
:10318000F9BFEFE24FB9EFF09FAF584189473D8B50
:10319000630BF7009D4681476314D7001C41E1078C
:1031A0003E856FE08FB91C41E5BFEFE2CFB6EFF08F
:1031B0001FAD5C411D4793F7F703638CE702634E35
:1031C000F7008946638AD702014763C5D700954651
:1031D00063D4D7023A856FE04FB65947638EE70054
:1031E00013076002638AE70021476387E70001470E
:1031F000D5B718416107F9BF1841E9BF5C4523A263
:103200000700A1075CC582805C450D4788E3D8C3F1
:10321000A1075CC582805C454D478CC3D8C3A1071C
:103220005CC58280EFE22FAFAA8405EEB7B501003E
:1032300093854582EF80203CDC442A8488C3582152
:10324000A1071367070423AEE7FEDCC49C48DC47F4
:103250006355F0002685EF405013130504016FE01D
:10326000CFADEF804035C9BFEFE2EFAAAA8495E168
:103270005C452E8423A20700DC44A107DCC49C48E3
:10328000DC476355F0002685EF40301022856FE063
:10329000CFAAEF804036D8441304050108C35C214F
:1032A00093E707045CC3C9BFEFE2EFA62A84EF509F
:1032B000D0591C48AA84DC476355F0002285EF40B2
:1032C000D00C26856FE06FA7397132D4301022CC34
:1032D00026CA2A843EDA06CE36D63AD842DC46DE04
:1032E00032C6EF5090561C48AA84DC476355F00064
:1032F0002285EF409009F24062442685D244216144
:103300008280EFE24FA141112A84AE8411EA5C452C
:1033100059478CC3D8C3A1075CC541016FE0EFA139
:10332000B28532C6EF3030063246584444C5931752
:103330003600B307F7405CC4FD557D166310B60236
:103340001307600688C3D8C3A1075CC41C48DC47C8
:10335000E355F0FC2285EF405003C1B71317360048
:10336000B306E5003E970328070023A8060158434B
:10337000D8CAE1B75C45B335B00005478CC3D8C3A4
:10338000A1075CC58280EFE20F991C492A84411194
:10339000C8532EC68945EF8060653246AA852285CE
:1033A000EFF01F9541016FE04F99EFE2CF96411189
:1033B0002A8432C6EFF0BF8C3246AA852285EFF010
:1033C0003F9341016FE06F97EFE2EF942A843289D7
:1033D000EFF0FF8A544193075004AA840147639891
:1033E000F6020841CA85EF8060605C412A8785C388
:1033F0005C441441A10723ACD7FE584123AEE7FE3D
:103400005CC45C4403A5C7FF3D896FE00F9354443F
:10341000CD47A685DCC223A02601938786005CC425
:1034200036862285EF904052E9BFEFE2CF8EAA8424
:10343000EFF0FF84C0440841930584FFEF80C0652E
:103440001C41232CF4FE5C41232EF4FEDC4403A536
:10345000C7FF3D896FE06F8EEFE2EF8B41112A8449
:1034600032C6EFF0DF81324608414444B285EF8036
:10347000E0571C419CC05C41DCC05C44C8431387DE
:10348000870058C43D8941016FE02F8BEFE2AF8880
:1034900041112A842EC632C4EF80804E5C4413074B
:1034A0005004B24588C3D8C3A1075CC4A246634494
:1034B000B0006357D0002E86AA852285EF80606712
:1034C0001C48DC476355F0002285EF40006C410149
:1034D0006FE0AF86EFE22F842A84EFF04FFA5C4171
:1034E0001547BD8B638CE7001D476387E7021848CB
:1034F000938747038A07BA97D84719A01C41984F6A
:10350000014509CB5C44054598C313075004D8C353
:10351000A1075CC46FE06F821C419847D5B7EFD21A
:103520009FFF1C492A844111C8532EC68945EF804C
:10353000E04B3246AA852285EFF03F8241016FD0F1
:10354000DFFFEFD25FFD41112A8432C6EFF02FF387
:103550003246AA852285EFF05F8041016FD0FFFDE2
:10356000EFD27FFB41112A843289EFF04FF15441B1
:1035700093075004AA8401476398F6040841CA855A
:10358000EF80C0465C412A87A1C3544483A7C6FF8D
:1035900093F7070499CF8C40DC31918B99CB83A7AB
:1035A00086FFDC338D8B91C72AC62285EF40400908
:1035B00032475C4483A687FFE11714C3D44354C346
:1035C0005CC441016FD07FF75044CD46A68554C2FC
:1035D000232026019306860054C42285930686FF85
:1035E000EF9080415C44C117E1BFEFD2DFF22A8443
:1035F000EFF0EFE850440C41AA8441162285EF8099
:1036000010065C4403A787FF18C183A7C7FF5CC1EE
:103610009C402383070058448327C7FF93F7070480
:1036200089CF8C40DC31918B89CB832787FFDC33BA
:103630008D8B81C72285EF40A0005C44C1175CC41C
:103640006FD0BFEFEFD23FED41112A8432C6EFF0C9
:103650000FE354440C413246AA84E1162285EF80E0
:10366000804958448327C7FF93F7070489CF8C40CC
:10367000DC31918B89CB832787FFDC338D8B81C72E
:103680002285EF30F07B5C44E1175CC441016FD0D0
:10369000DFEAEFD25FE8AA84EFF06FDEDC442A892C
:1036A000014403A7C7FF19C303A487FF8327490069
:1036B0001547BD8B638CE7001D476385E704984879
:1036C000938747038A07BA97C0C73DA0832709009D
:1036D00080CF1DC083250900DC31918B81CB5C300C
:1036E0008D8B89C722862685EF30F07283250900ED
:1036F00022862685EF400039DC440545E117DCC40D
:103700006FD0BFE38327090080C7E1B7EFD2BFE0E6
:103710008505E157B387F5024C452A84B284BE95EE
:1037200005C78357C5068DE35C4998CB94CFEF302E
:103730004018FD576398F4005C485844D44363F341
:10374000E600D8C36FD07FDF26862285EF30001CCD
:10375000CDB7EFD2BFDA01112A84AE84B289032932
:10376000050291CAB6853EC63AC4EFF04FD1B247C2
:103770002247B306254193851400E154B385950291
:103780005044B2952ECC81C70356C4060DCA368765
:10379000B3862541B735000030089385C5DE228504
:1037A0004ECEEF30E02FFD576398F9005C48584447
:1037B000D44363F3E600D8C305616FD07FD7444894
:1037C0003389254122859CC87C4C98CC23AE2401AA
:1037D000DCC8BE300347440774CCF99BD98F93E70C
:1037E0000701BEB04E86EF30C00CBE300145BD9B18
:1037F000BEB0DC487CCC45BFEFD2FFD179712A84C2
:10380000B68489E6B7B401009384048AB28622851F
:103810002E866C083AC6EFA0D047324726866C0841
:10382000BA862285EF30602DAA840DED5C4403A991
:1038300087FF834769009DC71C488945C853EF80AF
:10384000E01A832509011C4198411CC35C415CC3FB
:1038500093F7070481CB938785006315F7002285D2
:10386000EF30105F268545616FD03FCDEFD21FC985
:10387000A547004963E2B70C6D67939725001307CE
:10388000C786BA979C432A898287A30904022E859A
:103890006FD01FCA81452285EF70E07F8547A3095D
:1038A000F4028145EDB78145EF40C036DDBF0C44E1
:1038B0004844AA95A981E1BF0C444844AA9593F5D0
:1038C000F53FF1B7854783493403A309F4020DE2BC
:1038D0009305009C2285EF70007C4A85EF40E02A2A
:1038E000A309340383451403E51593B5150045B7C3
:1038F00044442A062285B294A685EF70C0798327B6
:103900000901DC476355F0004A85EF400028A30910
:1039100034038145E34890FC9DBF6C5070D085BF57
:10392000930780022C546354F6001306800230D4AF
:10393000B9BF83453403A1BFFD5591BFEFD2BFBDD1
:10394000EF20E051EFD23FBD2A84EFF04FB3504457
:103950000C4122856116EF7010745844930787005C
:1039600019E1930787FF5CC46FD03FBDEFD2BFBAA8
:1039700005472A84635DB700EF90C0511C48DC47BF
:103980006355F0002285EF4040206FD01FBBFDF54E
:103990004445B7B50100014693854582EF70B041BB
:1039A00088C05C2193E70704DCC05C44A1075CC4C9
:1039B000F1B7EFD25FB62A84EFF06FAC4C442A86A1
:1039C0002285EF9080645C44A1075CC46FD0FFB691
:1039D00081C51C49DC439CC11C4988438280EFD2CD
:1039E0009FB32A84EF70B0465C4413077004AA8426
:1039F00088C3D8C3A1075CC41C48DC476355F000EA
:103A00002285EF408018138584016FD01FB3EFD259
:103A10009FB0411132C6AA84EFF06FA65C411947EE
:103A2000324693F7F7036382E70613076002014407
:103A30006394E7080C416351C008FC2163CEC706BC
:103A400005060E0637B40100B386C500814713048E
:103A50004482D844130687FFD0C4032687FF90C250
:103A60000326C7FFD0C2BDC18327C7FF93F7070452
:103A7000A1C7DC31918BA9C3032687FF5C328D8BF4
:103A800085CF2685EF30303905A81C410144CC474D
:103A90006354C002D8456341C702130736000A07C2
:103AA000BA97B8410E069C433A96032486FF944386
:103AB00001C84104814551FC228541016FD0FFA717
:103AC00037B4010081451304448961B7F5D79443A5
:103AD000D842137707046DD313878700E39EE6FC73
:103AE000BE852685EF30D036C1BFDC41014589C790
:103AF00088411CC223A20500828019E20145828010
:103B0000EFD2DF9F2E89FD552A84B284EFF0AFC833
:103B10009547631CF5002285EFF04FEE9149FD14A7
:103B2000F9552285EFF01FE201E501456FD05FA056
:103B3000F9552285EFF02FC6631E35057D56CA85DF
:103B40002285EFF04FCC19C52285F955EFF08FB7DC
:103B50000545E9BF2686CA852285453705CD7D56B0
:103B6000F9552285EFF0CFB8F9552285EFF08FB5E2
:103B7000B7B50100938545B62285EFF0EFEE054617
:103B8000F9552285EFF0CFB622858D45EFF01FDE87
:103B9000054569BFF9552285EFF0CFB251B7EFD295
:103BA000FF9541112A842EC6EFF0EFB03246B7B52B
:103BB00001002A899385859A2285EF10707637B6A1
:103BC0000100B7C5F0FF1306868D9385859D22857C
:103BD000EFF0AFFD930919000946CE852285313FEC
:103BE00039C90146FD552285EFF04FCFB7B5010029
:103BF0000D469385058EAA84EF40C11519ED938576
:103C000034002285EFF04FE6F95522857D56EFF01E
:103C10002FAEF9552285EFF0EFAA4E86FD5522858D
:103C2000EFF0CFB0F5552285EFF0CFA9854426857A
:103C300041016FD0FF8FAA84CA852285EFF08FA83B
:103C4000FDB7EFD25F8D9C412E84B2846359F000A2
:103C50001CC223A00500130584006FD01F8ED44121
:103C60000145DE2693F70702EDFB1306004085456C
:103C700013058400EF20B10888C0F1BFEFD2BF89DF
:103C800083A7C1810146FD55C447EFF02FC5B7B5E5
:103C900001002A869385458A2685EF20617683A7D1
:103CA000C181C847EF20014D01456FD01F89EFD278
:103CB0009F8641112E8481EA2E85EF20D166014531
:103CC00041016FD09F87B685228532C636C4EF305A
:103CD000F1107DF575D4A2463246E363D6FE228507
:103CE000C5B7EFD2BF81B7B401002A842E89232043
:103CF00005009384C490FD594840EF20F1486305C6
:103D00003503850483C7F4FF6310F5021C40138755
:103D1000170018C0A29788A783870400F1FF4840C6
:103D200023200400EF2051462320A900130730026E
:103D300081476311E502FD59A9444840EF20D14471
:103D400063043501E31B95FE4840EF20F143232037
:103D5000A90085473E856FD0AFFDEFD2CFFB3289FA
:103D600037B60100130606912A84AE84EFC0414B9A
:103D700091476317F5020146FD552285EFF00FB616
:103D8000B7B50100AA864A86938585C02285EFF0E3
:103D9000AFD32A86A6852285EFC071136FD0EFF9C5
:103DA000A6852285EFF02F9F8947630BF500A68536
:103DB0002285EFF04F9EAA852285EFF06F9FC9B74D
:103DC00037B50100130585BF65BFEFD22FF3411151
:103DD0002E8A6C003289AA89EFF09FBFAA84D2850F
:103DE0004E85EFF00FBA50410C412A843245CA8605
:103DF0008294AA8411ED630D0900D28501464E8597
:103E0000E937B7B501009385458E4E85EFC0C16097
:103E100004C023222401268541016FD06FF1EFD227
:103E20008FEF01468545EFF05FFA01456FD0EFF067
:103E3000EFD26FEE85452A84EFC0B131014685454A
:103E40002285EFC0216D05456FD02FEFEFD2AFEC8B
:103E5000EFF06F867D156FD04FEEEFD2CFEB85453B
:103E60002A84EFF04F93FD57AA84631AF50037B602
:103E70000100130606A885452285EFC05105A685D9
:103E80002285EFF0EF92AA852285EFF0EFBD054580
:103E90006FD0AFEAEFD22FE8AA84EFF0CF812A8467
:103EA00085452685EFF02F8F91476315F502014672
:103EB00085452685EFF08FA20307050093073002A2
:103EC000631AF70026859305F4FFEFF0CFB405459C
:103ED0006FD0AFE685452685EFC031223309A400B7
:103EE000634605002289635385002A89634A2001BD
:103EF00037B60100130646DB85452685EFC0217DD8
:103F000033052441F1B7EFD28FDE41118945AA84F0
:103F1000EFF06F886347A00485452685EFC07123C5
:103F200085452685EFF02F878D47631AF500854577
:103F30002685EFE03FF9054541016FD0CFDE85458D
:103F400070002685EFF08F99AA8501C92685EFF0CC
:103F5000EF8EB2478507E300F5FE2685EFF00FAA46
:103F6000D9BF89452685EFC051192A8C1146854550
:103F70002685EFC07106700085452685EFF00F9607
:103F80001307ECFF930720022A8A63FAE70037B68B
:103F90000100130606E189452685EFC04173B7BAD3
:103FA000010093854AE25285EF30D15F3304AA00C5
:103FB000830704001307D0026397E7020504854BCB
:103FC000EF20D1231C208149894C3E951C319D8BCB
:103FD00095E381450145B2473E9AE31045F92685B0
:103FE000EFF06FA389BF1307B002814BE39AE7FCA0
:103FF0000504F9B7EF2091208307040013F9F70FA8
:10400000130B19005A951821938707FD118B09EF9F
:10401000EF20D11E5A951821CA870D8B6314970182
:10402000930709FE938797FCE3D587FBB3053C0311
:104030000504B389B700EF20711C1C203E951C318C
:104040009D8BCDFB93854AE22285EF30B1552295B9
:10405000CE85E3820BF8B3053041B5BFEFD2AFCBCD
:10406000154685452A84EFC0217722858945EFC012
:10407000510E22858D45EFC0D10D22858D45EFE093
:104080007FE422858545EFF04FD605456FD0EFCA16
:10409000EFD26FC8154685452A84EFC0E1732285AB
:1040A0008945EFC0110B22858945EFE0BFE18545C9
:1040B0002285EFF08FB705456FD02FC8EFD2AFC57F
:1040C00085452A84EFE03FED7115854763FAA70027
:1040D00037B60100130686D985452285EFC0215FDA
:1040E00085452285EFF0AF85AA852285EFF0AF9256
:1040F00005456FD08FC4EFD20FC285452A84EFC02B
:10410000510522858945EFC0D104094685452285A0
:10411000EFE07FEFAA852285EFF0CFA505456FD0B0
:10412000CFC1EFD2AFBD41112A84EFE0DFD8B7B5E0
:1041300001002A8A9385C5D52285EFF0CFA4854456
:10414000B7BA010063549A0283A7C18137A5010061
:104150000546944785451305057FEF20D10183A7C8
:10416000C1818847EF200101014535A8FD55228511
:10417000EFE09FE0A6852285EFE01FE00147814642
:10418000054685452285EFF06FD87000FD552285E4
:10419000EFE0DFF4AA8919E9B7B50100938585D668
:1041A0002285EFC0612741016FD08FB8854763DB5F
:1041B000970083A7C18105468545944713854AD951
:1041C000EF20617B83A7C1813246854594474E85A8
:1041D0008504EF20417AF9552285EFE0BFCE9DB7E7
:1041E000EFD26FB385452A84EFC0A176B7450000B2
:1041F000014622859385052CEFF0AF9022858545F9
:10420000EFE09FD722858145EFF0EF800D456FD01D
:10421000CFB2EFD24FB0154685452A84EFC0C15BBF
:1042200089452285EFE01FCA85452285EFF08FF191
:1042300019E52285EFE09FFC05456FD00FB00945D9
:10424000EDBFEFD24FADB28437B60100130646CEB4
:1042500089452A84EFC0017885452285EFE0DFD1CA
:1042600081452285014781460546EFF02FCAFD555D
:104270002285EFE05FD211E92285F955EFE09FC476
:10428000014523A004006FD04FABFD552285EFE020
:104290005FD601E9B7B50100938505D02285EFC04F
:1042A000A11715462285FD55EFE05FC82285F95517
:1042B000EFE05FC1268695452285EFE03FE2E1B75A
:1042C000EFD26FA5411189452A84EFC0016313061F
:1042D0001500B285228532C6EFE0FFF332468545F0
:1042E0002285EFF06F8E3335A000050541016FD0B8
:1042F000CFA4EFD24FA2054689452A84EFC0E167DB
:104300008545AA842285EFE0FFBB85452285EFE045
:104310009FC891476310F502635E9000A6852285D1
:10432000EFC0810A85452285EFE01FC589452285BA
:10433000EFF0CFE32285EFF06FE06FD00FA0EFD268
:104340008F9DED6637B601009386C6E2130606D44C
:1043500085452A84EFC0816BED670A05938707E5E1
:10436000AA9703A90700014689452285EFC0E160AD
:104370002A86CA852285EFF06FCF9547AA84630D00
:10438000F902A547630AF9028D47631CF902014649
:1043900091452285EFF08FCDB7B70100537505D059
:1043A000D3F704D007A7C7D322854375E578EFE09C
:1043B000BFE505456FD06F98A6852285EFE09FFB8E
:1043C000CDBFAA852285EFE01FE5E5B7EFD2AF9418
:1043D0008547411163FEB70081452A84EFE09FF9CC
:1043E0002285F955EFE05FB9094541016FD0EF949F
:1043F00032C6EFE05FAC3246118DC5BFEFD2AF9150
:104400002A84EFE05FAB1946AA8489452285EFC074
:10441000A13C22858545EFE0FFF522858545EFE04B
:10442000BFB5228509468D45EFE09FACB747000038
:104430009387C73C094789469385E4FF7D562285CB
:10444000EFF02FB1AA8509462285EFF03FF86FD033
:10445000CF8EEFD24F8C85452A84EFC0814F2285C5
:104460008545EFE03FF1054685452285EFE05FA8F1
:104470002285EFE05FA4B74700009387C73C014760
:1044800081469305E5FF7D562285EFF08FACAA8526
:1044900001462285EFF09FF36FD02F8AEFD2AF87CE
:1044A00089452A84EFE03FAFAA84154685452285D9
:1044B000EFC0813281CC9547638AF40037B60100A2
:1044C000130686DC89452285EFC0612037B60100DE
:1044D000130606DE85452285EFB0915411C9B7B5A4
:1044E00001009385C5DE2285EFB011736FD0EF8494
:1044F00089452285EFE01F9D85452285EFF06F9964
:104500000545EDB7EFD22F812A849DE101E60545EF
:104510006FD0AF82B285EFE03FA60546F955228500
:10452000EFF0EFCE6DF5F9552285EFE0BF99C5B7F5
:10453000EFE0DFCC22850546F955EFE07F9B09458A
:10454000C1BFEFC2BFFB0111700885452A84EFE0AF
:10455000FFB837B601008146130686D48D45AA847C
:104560002285EFC0A134AA8991452285EFE0BFA240
:10457000FD5701496303F500114981468DC4268624
:1045800089452285EFC081327246AA864E87A6856C
:104590002285EFC0B105AA854A862285EFF09FF6F5
:1045A00005616FC0FFF837B601001306C6D4894510
:1045B0002285EFC0A12F2AC6194622858545EFC066
:1045C000A12122859545EFE0FF8FB246B745000057
:1045D0004E870146938525242285EFF0EFA165BF24
:1045E000EFC27FF341118146014685452A84EFC021
:1045F000E12B0146814689452A892285EFC0012B9E
:104600002AC68D452285EFE01F99FD573246814429
:104610006303F5008D44CA852285EFC0615EAA85DB
:1046200026862285EFF01FEE41016FC01FF1EFC219
:104630009FEE85452A84EFC0C13185452285EFE094
:104640007FE919E52285EFE07FBB05456FC0FFEEEE
:1046500037B60100130606DE85452285EFB0513CD2
:10466000EDB7EFC25FEB0146814685452A84EFC076
:10467000E123AA8485452285EFE0DF840146A685F3
:104680002285EFC0E15711C52285EFF02FAB6FC037
:10469000DFEA374700001307C7E481467D568145AE
:1046A0002285EFF0AF862285EFE0FF807D15C5B74C
:1046B000EFC27FE685452A84EFE05FA011C5228521
:1046C000EFE06FFF6FC07FE722858545EFC061286F
:1046D0007D5622858545EFE0BF812285F955EFE0C3
:1046E0006FFEB7B50100938585D22285EFE0DFB775
:1046F00022858545EFE00FFD2285EFF09FBFD9B7FA
:10470000EFC27FE185452A84EFC0A12437B60100BE
:10471000130646D585452285EFB091301DE1B7459A
:1047200000000146938525212285EFE09FBD22856B
:104730008545EFE07F842285EFE05FAC0D456FC0DB
:10474000DFDF22858545EFE03F83014781460D4647
:1047500085452285EFE09FFBD5B7EFC23FDA1C45C8
:1047600032892E8683AA0702CC570041AA89568532
:10477000EF70E06E5841CD472A8B6300F70883A4A1
:10478000C901032A0401CD4723209B002322FB00FB
:1047900063C444034C54B7B70100370700047D17C6
:1047A00093878707A146130604015685EF40802FA3
:1047B000184848D4634BEA065C5413973400BA9700
:1047C0000327090098C303274900D8C383A7C90159
:1047D000850723AEF9008327490093F70704B9C37F
:1047E0005C30918BA1C3032609005C328D8B9DCB7D
:1047F000A2855685EF20306235A0044183A7C90108
:10480000E3DFF4F65C549395340003274900BE952A
:10481000DC41B98F93F7F703BDF34A860145EF807A
:10482000205331DD26856FC0BFD0050A93173A00AB
:10483000AA9723AE07FEBDBF18455C456319F70272
:1048400018419547630FF700994681476319D700D0
:10485000854791C55C419CC1CD47DCC185473E85FC
:1048600082808547EDDD5C618D479CE1FDB7814726
:10487000FDB71C5913972500BA97884381778507A0
:1048800039813E95FD576304F50085052E9582809C
:104890000859939725003E95635FB0008327C5FFB5
:1048A0007167130787A293F7F703BA978387070007
:1048B00063D3070071158280EFC2FFC50841411123
:1048C00032C6EFF0FFFC1841930730029376F703EE
:1048D0006393F60432469306F00F93577701630310
:1048E000D6026381C7029167938707FC1A067D8E03
:1048F000F1779387F7037D8F598E10C105454101EC
:104900006FC0BFC337C67F009A07718FD98F93E7F7
:1049100027021CC1E5B70145DDB7EFC2DFBFAA849E
:104920002E847D59631424016FC03FC1A2851306F4
:10493000F00F2685EFF05FF88840A285EFF07FF357
:104940002A84CDB7EFC29FBBAA892E847D59130A52
:1049500030026315240101456FC09FBD83A4090087
:10496000A2852685EFF0DFF21C4193F7F7036398E9
:104970004701A2852685EFF0DFEF2A84D9BF0545E0
:10498000E1BF93F7051091EB8347A50263C7F500DC
:104990008347C502FD172306F502828098419D4793
:1049A0006319F700EFC23FB7CC41EFF09FFD6FC036
:1049B000DFB88280EFC23FB698419D472A84FD54FC
:1049C0006313F700C44118429D477D596314F700F3
:1049D00003294600635C9900A6852285EFF07FFAE3
:1049E000CA852285EFF0FFF96FC03FB5CA852285E1
:1049F000EFF03FF9A685F5B7EFC2FFB10841EFF040
:104A00003FE91841F1779387F703B376F70093579F
:104A1000670093F7F70F93B717009A07D58F1CC15C
:104A20006FC0BFB11841939725008505185B0D8EA7
:104A30009356F6413E97B3C7C600958FB70602005E
:104A400063CBD700EFC23FAD0845B7B501009385F2
:104A50004509EF30A0641C43FD163696CA07C9838A
:104A60003A065D8E10C38280EFC25FA9AA842E84AD
:104A7000B289368ABA8A7D59631424016FC05FAB4C
:104A80008840A285EFF0FFDE52862A8BA28526851C
:104A9000EFF09FE24E8611E15686A2852685EFF063
:104AA0007FF85A84D1BFEFC21FA718492E890C4D39
:104AB00004413A869306F00F2A84EFF0FFFAFD577F
:104AC0001CCC1848DC486343F70208448C58B7B73D
:104AD00001000851370700809387070E1347F7FF3F
:104AE000914613864401EF30F07B88D818489C58D3
:104AF0000A07BA9723A0270118489C4C6343F70282
:104B000008448C5CB7B701000851370700809387D1
:104B1000070E1347F7FF914613868401EF30907814
:104B200088DC1C44184894479C5C0A07BA9794C3D5
:104B30000848930715001CC86FC03FA0EFC2BF9D77
:104B400079712A89AE8432852C0836C63284EFF01A
:104B5000BFCEB24609E5014545616FC01F9E0C10EE
:104B60003685EFF07FCD65D91387D4FFA94763EB76
:104B7000E7028547B397E70013F7D70031EF93F7C4
:104B8000075F8DC37247CD476311F704E2473ED4F8
:104B90001257CD476308F70001462C100810EF703C
:104BA000D05055D983270900381014108853300885
:104BB000A685EF4020103257CD476313F70499477D
:104BC0001CC0A2575CC0054541BF01462C102808F7
:104BD000EF70B04D49D16DBF92564D478257639CDF
:104BE000E600D3F707D0530700F0D327F7A093B719
:104BF0001700B5D345BFD30700F0538707F0F5B7CB
:104C0000A277D3A7F7A0A1DB530700F0D3A7E7A0B3
:104C1000B9F395471CC05CE07DB7FD57630FF60202
:104C2000EFC2DF8D844141116396F40090C14101D0
:104C30006FC01F90832905002A847D59A6854E8563
:104C400032C6EFF01FC3324663172501A6852285C1
:104C5000EFF05FDDE9BFAA84D5B78280EFC2BF8BDA
:104C6000104DFD57B785FF7F01111CCDF9052A8432
:104C700032C6EFF05FE332462ACE6C082285EFF0B1
:104C8000DFF9724505616FC05F8B1C495CC93E85C9
:104C90008280EFC25F8818492E869305850158C926
:104CA000EFF0BFF76FC07F89EFC2FF861C496396A4
:104CB000C700EFF01FFE6FC05F8832879306F00FCA
:104CC000EFF09FDACDBFEFC27F83130416001166A9
:104CD0001A04130606FCF174AA89718C7D59938419
:104CE000F403639425016FC0BF8403A50900939763
:104CF000250018593E971C43E58FC18F1CC3EFF068
:104D00005FB7AA85F9BFEFC21F813A07D98DDE06CA
:104D1000D58D1A06D18DEFF01FD96FC01F821C49A7
:104D200058496350F70818418A07F117032E070303
:104D30003E9E83280E00914713F7F8036313F7068E
:104D400013D868001378F80F13D378013387C500A0
:104D5000429363C805019307130063D0B7046392BD
:104D60000505634007059166938606FC93976500E9
:104D7000F58FF1769386F603B3F8D800B3E7170101
:104D8000A6071306F7FFA583635366001A860D8EE8
:104D90005E06D18F2320FE008280E356B8FCC285D8
:104DA000D9B7EFC24FF79306F6FF01472E8691451C
:104DB000EFF07FF56FC06FF8EFC2EFF593061600C6
:104DC00001472E8693056002EFF0FFF36FC0EFF608
:104DD000EFC26FF4BA06D58D1A06D18DEFF0BFCCB5
:104DE0006FC0AFF5EFC22FF3B70704003284635BE7
:104DF000F600B2862E868545EFF09FFDAA842685B3
:104E00006FC0AFF32E86814689452A89EFF05FFC9B
:104E100093156400AA8493E5E5024A85EFF0BFC8C4
:104E2000F9BF8347C502BE951C4198276350B7025E
:104E30001307E00F635BB700EFC2EFED0845B7B5AE
:104E400001009385050BEF3060258CA78280EFC2AF
:104E50008FECAA842E84EFF0DFFC83C7C4023E945B
:104E6000238684026FC06FEDEFC2EFEADC214111AF
:104E700030002EC493E70704B2853EC6EFF0FF8DE5
:104E800041016FC08FEBEFC20FE9411189472EC07E
:104E90003EC22EC4CD4730008A853EC6EFF0FF8B60
:104EA00041016FC08FE99841B5466315D70214419F
:104EB000DC4105063A06139727009C5AB74680FF47
:104EC000FD16BA9737C77F00798E9843758F598E34
:104ED00090C38280B9466311D704EFC2CFE3D841B3
:104EE00003280500050693172700032708035E061D
:104EF00085453E971C43A607A5835D8E10C3834658
:104F0000C502F1779387F7039A067D8E558E10C3FD
:104F1000EFF0FFF36FC06FE282809C413547639FE3
:104F2000E7009D479CC11C41D8419C5B0A07BA978A
:104F30009C43998393F7F70FDCC1828039476391D3
:104F4000E7021441D84193172700985AB706000189
:104F50003E971C43A607A583D58F1CC3B1479CC1B0
:104F600082809C411947E1176363F706EFC2AFDA0D
:104F70006D678A07130707F9BA979C432E84AA84A2
:104F800082879D471CC06FC04FDBCC41DE0593E597
:104F90005500EFF05FB148C0B147EDB783954500CC
:104FA000EFF03F9E7830A14799456317F7006C20DA
:104FB0002685EFF01F9D9D45031744007420014690
:104FC0002685EFF05FD4C1BFEFF03FF56DBF828063
:104FD000EFC26FD441112E89AA843284EFF07FF89A
:104FE000832609002D479387F6FF6363F7026D67F9
:104FF0008A071307C7FABA979C4382870546A2859A
:105000002685EFF0DFD19D47232289002320F90078
:1050100041016FC08FD2F916014793B61600228660
:105020008D452685EFF03FCEF9BF03264900A285C6
:105030002685EFF03FDBC1BF8727490030008D4751
:10504000B28526853EE43EC6EFF02FF12A86C5B72D
:10505000832549002685EFF01FE3CDBF98408326C6
:1050600049001166130606FC93972600145B7177BE
:105070001307F703BE969C427D8F93176400F18F50
:10508000D98F9CC249B783264900E38E86F6014733
:105090002286814579B7EFC26FC6AE842A843289F1
:1050A000EFF01FF39840AD476318F700D0409385A9
:1050B00084002285EFF07FB68C4483A9C400638E00
:1050C00035072285EFF01F8811E5CE852285EFF0A8
:1050D0007F872DCD9840AD47FD596306F7002285A7
:1050E000EFF0DFB7AA891C48054781465CC84A86AD
:1050F0008D452285EFF03FC11C488D45AA8A5CC8CA
:10510000014785464A862285EFF0FFBF2A8ACE8571
:105110002285EFF01FB883290401CC445687CA8644
:105120004E862285232A3401EFF01F948C44528747
:10513000CA864E862285EFF03F93FD579CC4DCC49F
:105140009D4723A224019CC06FC08FBE7D5AFD5A8B
:10515000D9B7EFC24FBC9C4131472A84AE84328913
:10516000639DE7021C41D4419C5B8A06B69790433D
:10517000ED471377F6036315F7021C49134719002F
:105180008146FD171CC95D8293052002EFF0BFB771
:105190002285EFF0BFAC6FC04FBA1D47638DE700AB
:1051A00085452285EFF0BFCA0346C402A685228545
:1051B0007D16EFF0FFE1A6852285EFF02FFE4A87EE
:1051C000D4401306F00F930530022285C1B7EFC219
:1051D0008FB42A84AE84EFF0DFD8A6852285EFF065
:1051E000EFFB22858545EFF09FC60346C402A685E6
:1051F00022857D16EFF03FEA6FC02FB4EFC2AFB14A
:105200002E84AA84EFF0FFD518409D476313F70260
:1052100018445C445040630BF70083C7A402634A00
:10522000F600A2852685EFF01FE7504032856FC05B
:10523000CFB0A2852685EFF09FF9C5BF9841A5475D
:105240006316F7009845DC456308F700EFC2AFAC82
:10525000EFF0DFFA6FC06FAE8280EFC2CFAB984540
:10526000DC456306F700EFF07FF96FC00FADEFF09C
:105270005FCFE5BFEFC22FAA41112E84AA84EFF0C1
:10528000DFFD1C401547FD176364F7066D678A074D
:105290001307C7FDBA979C43828785473EC43000F9
:1052A0003EC6B28529A802C48547D5BF9C4402C624
:1052B0003000DC578A853EC0930750043EC22685E5
:1052C000EFF0AFC929A04C402685EFF0DFBB48C006
:1052D000484091471CC09307F00F63CBA7001365AC
:1052E000051041016FC06FA55C608D473EE445BF6E
:1052F000A2852685EFF09FF0EDB7EFC22FA09C416D
:105300002547AA842E8432896382E7022947638E67
:10531000E70221476396E702B285EFF02FE850409D
:10532000CA852685EFF03FD76FC08FA0B285EFF01A
:10533000FFEC544001472A86A5452685EFF0BF9C27
:10534000CA852685EFF08FE5C5B7F831A147A94991
:105350006303F700A149CA852685EFF0BFF12A87CC
:10536000831644007020CE85C9BFEFC2CF9A411189
:105370002A84AE843289EFF07FE8D440A685228566
:1053800036C6EFF0AFE18347C40222858945DCC011
:105390009D479CC0EFF0BFABD040CA85228532C488
:1053A000EFF05FEDB24622462A87B1452285EFF045
:1053B0009F95CA852285EFF06FDE41016FC0EF97A0
:1053C000EFC26F952E84AA84EFF0BFB91C40194735
:1053D0006360F70211477D5663F4E7020947638172
:1053E000E7020146A2852685EFF0BFD62A8609A8E6
:1053F0002D47E398E7FE4C402685EFF0EFDF504065
:105400009305C4002685EFF05F810C442685EFF0FC
:105410005F88FD571CC46FC04F92EFC2CF8F2E84A0
:10542000AA84EFF01FB41C400D477D566388E70047
:105430002D476382E70205476391E70293058400E5
:105440002685EFF08FFD4C442685EFF09F84FD57B5
:105450005CC46FC08F8E5040D5B70546A2852685A7
:10546000EFF03FCF2A86D9BFEFC2EF8ADC412E840E
:10547000FCA1B285EFF01FE014404AA02547A147E8
:105480006393E600A5477CB0A9471CC06FC0EF8AB4
:10549000EFC26F88B14741116386F50263E8F502F8
:1054A000CD476387F500D147638AF500B2850DA823
:1054B000B285EFF0FFF041016FC02F88B285EFF0A9
:1054C000DFF5D5BFB285EFF09FD0F5B72A848145CF
:1054D000328532C6EFF04FB6324671FDB285228575
:1054E000EFF05FD9C9BF1C491441139727009C5E98
:1054F000BA9723AEB7FE8280EFC24F808947411131
:10550000AA843284638DF5042E89B68963E8F50098
:105510008D47638DF50041016FC08F81ED669386E5
:105520004608B1052105EFF06FE175F5A2852685E6
:10553000EFF0DFCC2AC6A2852685EFF02FC6B24653
:1055400093059901014701462685EFF0CFFBB1474E
:1055500048C01CC0CE852685EFF0FFF86DBFB28530
:10556000EFF03FA014402D479387F6FF6362F702E8
:105570006D678A07130747FFBA979C43828789475D
:105580001CC039A08D47EDBF4C402685EFF0CFC63B
:105590000C445C4426854CC41CC4EFF00FB80C448A
:1055A0002685EFF08FB785BF9D47638DF600854553
:1055B0002685EFF0DF8903C6C402A28526857D1605
:1055C000EFF01FA1A2852685EFF04FBD4C40268548
:1055D000DE0593E5B501EFF00FCD48C0B1474DB7FB
:1055E000EFB2DFF14111AE89B685B2842A843A89DF
:1055F00036C6EFF03FC82AC4A6852285EFF09FC7C4
:1056000032462AC2A6852285EFF0CFBA22479246BB
:105610000146CE852285EFF00FEFB147C8C09CC090
:10562000CA852285EFF03FEC41016FB07FF0D14792
:1056300063EFB712EFB29FEC3A8A6D67939725003C
:1056400013074702BA979C4341113689B284AE8949
:105650002A848287B685EFF0DF90D0449305C90095
:105660002285EFF08FDB4146CA852685EF10215356
:1056700041016FB0FFEBB685EFF0BF8E904493050C
:105680008900F9BFB685EFF05FBD83290900B147F6
:105690006396F9041C40032749009C5B0A07BA97EC
:1056A0009C43754793F7F703639AE702A685228523
:1056B000EFF0CFAE14400327490093172700985A04
:1056C000D4403E971C43DE06A607A583D58F1CC396
:1056D0008327490023A03401DCC059BFCA85228535
:1056E000EFF0FFAE5287CA862686F5452285EFF099
:1056F0003FEFBDBF2105EFF06FC43DF95287CA8669
:1057000026869385D900DDB7184291475442631429
:10571000F70093E60610CA85228536C6EFF09FB5DE
:105720002A8A4A86A6852285EFF0CFA8C147B246CD
:10573000638CF90063E5F900C94763F437035287C6
:1057400005469385290121A052870146FD45228502
:10575000EFF06FDB2285EFF06FD0AD47C8C09CC083
:1057600001BF36870546D2869385F900CDB7828082
:10577000EFB27FDA1304F6FF130620033344C402AA
:10578000FD572A89AE8405046393F600814693078A
:10579000F01F63CE8700228726869305B0024A85D4
:1057A000EFF06FD68504230699026FB01FD9014729
:1057B00026869305B0024A85EFF0EFD49315640076
:1057C00093E5E5024A85EFF00FAEE9BFEFB2BFD433
:1057D0002A84EFD04FEEAA85814601462285EF103C
:1057E000E0256FB09FD51C4148499C43DC479C5B3A
:1057F0001D8D09857D158280EFB2FFD11C419C4330
:10580000DC47805F01C8EFF01FFE0A052A940840BC
:105810006FB0BFD27D55EDBF18258547631AF700DD
:105820005C4910519843D44F118FB29694C3D8CF8E
:105830008280EFB2BFCC716A817A6D6B4111AA840C
:10584000AE893289130A8AA2850A130B4B204E8631
:1058500093051900268536C6EF10A051B24688C2BE
:105860006310051A014881487D5413035002130E3A
:105870009002930E4002114FF94F42876344380360
:10588000FD576305F40A9C581317240031463E97D0
:105890000C4313F7F503636BE608131627005A96BB
:1058A000104202869C58131628000508B2979C43A4
:1058B00013D6670093F5F7031376F60F6360B30210
:1058C00063F0D5056383E503638FF503D2959C21CF
:1058D00093F70704DDD3E312C9FA31A8E398C5FFB3
:1058E00093071600E3DB27F939A0E348C9F8DD8305
:1058F000B297E3C427F97D54E34117F93A84B5BF61
:10590000E34DC9F6CDBFB983D697C297E357F7F6F3
:10591000E3C5F9F6E3D3F8F6BE8885B713D9750168
:10592000998193F5F50FA289E343B9F241016FB074
:105930003FC093D9E5009D4793F9F91FDD81631DB1
:10594000F70222868505268536C6EF108042B246CC
:105950002A894E86A285268575286308090AB7B567
:1059600001009385452F4A85EFB03FD559ED37B5F6
:1059700001001305C52E5DBFBC408E05BE9503A971
:105980000500630409004109E9B737B901001309AB
:10599000098AC1B7BC40DD818E05BE959C4181CB93
:1059A000C10737B501009CC21305852D41B7B7B7B4
:1059B00001009387078AF5B70546B9816307C700D9
:1059C00005040A04A2978C439981DC548E05114783
:1059D000BE95DC41BD8BE39BE7F49C4137B50100EC
:1059E0001305052EC1079CC291B7B98113F6F51FA7
:1059F0002685A285052037B501001305853A3DB7F8
:105A000037B501001305852C15B737B5010013050F
:105A1000052D29BFEFB23FB0137806103684630618
:105A2000080258559377F6EF8E07BA97D8439146F8
:105A30003D8B6309D700B7B701009387078A1CC065
:105A40006FB0BFAF9C43C107DDBFEFF09FDE65D5F0
:105A50000307050093073006E31FF7FCD5B7EFB245
:105A60009FAB5849411102C63E33898B81EB37B554
:105A700001001305458241016FB03FAC1C432A89E8
:105A800084438147F0209386040163C7C702004B1B
:105A900033848540E34D04FC5C43E3FAF5FC3A852E
:105AA000EFF07FD4AA85C844135634407400EFF059
:105AB0005FD82A864DDD15A0884291060841639C77
:105AC000A502D8448E073843BA979C4385C3C107C3
:105AD00037B601003EC61306862DB246B7B50100A3
:105AE0009385453D4A85EF30805471B7B7B70100C3
:105AF0009387078AF1BF850749BF63C805005C49E2
:105B00001305450381C96394A700814501A8FD15CC
:105B10009C47CDBF6384A7003CD285452E858280FB
:105B2000EFB27F9C01112E89AA843284EFF0DFCE80
:105B3000030709009307E0036311F70A83ADC4006C
:105B40000509014DE11D23A6B40183A74D001947A6
:105B5000814CFD8B6394E70083AC0D00B7BB010063
:105B60006D6CB7B9010037BA01004A8B854A938B37
:105B70004B82130C8C239389493A130A8A3B83077F
:105B80000B00ADE3930560064A85EF10D16101CDAE
:105B9000DC4403A70D00A10723ACE7FE03A74D00DB
:105BA00023AEE7FEDCC42685EFF01FC79305C004D3
:105BB0004A85EF10515F11CD63880C0003C74C007C
:105BC00093076002631AF720DC4423A20700A107B1
:105BD000DCC4568505616FB0DF94032D0406832D68
:105BE0000D00A5B71307C0066384E70C6341F702F5
:105BF000130730056387E704130760066387E70030
:105C00001307C0046383E700814A050B8DBF1307A8
:105C100040076389E70E130750076387E70A1307F6
:105C2000E006E393E7FE63020D1283572D0213F79C
:105C300007106DC7B7B70100938707BF5CC04E85DB
:105C400011A263880C0003C74C009307600263171E
:105C5000F702B7B701009387873C1CC8FD571CCCDF
:105C60005CCCB7B701009387073D0C485CC41306B2
:105C7000C00313054402EF30A05841BF03A7CC0076
:105C80003C4789CFC1071CC85C5318571CCC58CC63
:105C900099CBB7B701009387073AC1BFB7B70100E7
:105CA0009387C739CDB7B7A701009387C77D75BF65
:105CB0007D5563090D0083572D02898B81C76A8545
:105CC000EFF09FB348C891B7814763840C0083C746
:105CD0006C002300F40263880C0003C74C00930798
:105CE00060026318F70085472301F402A300040251
:105CF00029BF83A7CC00F8332301E402FC23A300CF
:105D0000F40221B7814763080D0083472D0293F702
:105D10000702E207E187A301F402C5BD93F707027A
:105D20008DE703258D003E3113F7270019CF918BA6
:105D300095C3B7B701009387078A37B501005CC0E8
:105D40001305053B08C4E31205EC23247401232248
:105D5000040065BD1C419C4303A8C70042C6EFF088
:105D60009FA83248131725009306300283270803A3
:105D7000AA85BA9790439377F6031387A7FFE3E6C4
:105D8000E6FC0A0762971843028785479848F1079F
:105D90008A07BA97DC47C10755B5198293064400B4
:105DA0001376F60F4285EFF0DFA869BF2322440186
:105DB000528549BFE517D9BFC947C9BFCD47F9B714
:105DC0009147E9B7D947D9B79547C9B7D1477DBFFB
:105DD000D5476DBF81475DBF83A7CC0026850144B1
:105DE00083A98703EF50D039DC44130750042A8974
:105DF00088C3D8C3A107DCC485473ECC3ECE83A769
:105E0000CC009C4FE357F4DC93172400CE979043CB
:105E10003408CA852685EF50104E0504CDB7EFB281
:105E20008FEF5D712A842E871DC6B285C1051306CA
:105E3000C003480836C63AC4EF30803C2247B24619
:105E4000B7B5010050089385C52F2285EF30201E7D
:105E500061616FB08FEE9307F003FC82D5B7EFB2AC
:105E60008FEB784D2A841DC74C451C510546BA97C7
:105E700003A785FF98C103A7C5FFD8C1984323ACEA
:105E8000E5FEDC4323AEF5FE938785005CC5E11596
:105E9000EF00D0278945228569245D7132DC36DE2A
:105EA000BAC0BEC2C2C4C6C61C4922D426D2DC4770
:105EB00006D62A8444496356F0002EC6EF10F04CF3
:105EC000B2453018228532CEEF302018BE30898B93
:105ED00091CF2AC62685EFF03F929C40B245AA8614
:105EE0009C432285DC47B047EFF07FF32285EFF03B
:105EF0001FF7EFB24FE241112A8432C6AE84EF6041
:105F0000400E2AC4A6852285EFF07FB5A246324610
:105F1000B7B501002A87938505382285EFF0FFF792
:105F2000EFB26FDFDC410547BD8BF5176363F70008
:105F3000B28537B6010013068630EFF09FFBEFB253
:105F40008FDDD8418D4701112A892E84B2846319CF
:105F5000F7009C613EEE3686A6854A85EFF07FF914
:105F60006C08228536C6EF60100EB2466DF5A2842D
:105F7000DDB7EFB24FDAD841CD474111AA842E8464
:105F800032896310F7029C413EC6CA852685EFF030
:105F90001FADB7B501002A86938585352685EFF0BC
:105FA000DFEF01466C002285EF60301079FD228919
:105FB000E9BFEFB24FD641112A8432C6EF606002CA
:105FC0003246AA842285B285EF60A001AA852AC63E
:105FD0002685EFB08FEEB246268601E9B7B50100FF
:105FE000938545312285EFF05FEBB7B501009385CE
:105FF00085332285EFF07FEAEFB24FD03C5544491C
:1060000003290507FD173CD585E39377890089CFE0
:106010007C5185493CD5BE3013F7070419CB93F763
:10602000F7FBBEB06FB0CFD093774900E5DF814971
:10603000DDB72A84638509007D568D45F1261379E5
:106040004900630109049C40C8487D569C43DC47D5
:106050008C5B9C5F3307B54009877D1789C7931612
:106060002700BE96904201CF184C637AA700FD56D8
:1060700089C70D8FBA9783A6C7FF6305D6008945E8
:1060800022855926DC48182485461CCCE31CD7F809
:106090006383090038D4F117DCC8BE3085452285FA
:1060A00093E70704BEB05C44E1179CC09D28EFB2A3
:1060B0008FC69147AA843284638CF5009947638424
:1060C000F5025C4503A787FF18C283A7C7FF39A065
:1060D0001C49BC5F1CC2DC2393E707045CC021049D
:1060E000C0C46FB08FC5B7B501005D469385854DBF
:1060F000EF50604C08C05C21C5B7EFB2CFC140453E
:106100000E06AA84118C40C5EF50E04E08C05C21F9
:10611000094593E707045CC0DC44A107DCC46FB009
:10612000CFC1EFB24FBF1C5981CB23ACB71213853F
:1061300087008545EFB0EFD104492A840CA4BC58F0
:10614000985B11CFD84793068700D4C754453E8546
:1061500003A686FF10C383A6C6FF54C3D937FC54D9
:1061600089CF5045EFF0BFF45C485844D44363F303
:10617000E600D8C3FC5422858297EFF0D05895CD25
:10618000EFB26FB9AE868305060041112A843685C9
:1061900032C636C4EF103101A246324601EDB7B522
:1061A00001009385053E2285EF2070688D4522858C
:1061B000EFF03FF741016FB04FB88280EFB20FB4FC
:1061C000AA84884141112E841C411387F7FF18C10E
:1061D000A9C35C411387170058C19C236D474C58D5
:1061E00003290400832984036399E70237B6010079
:1061F0001306C6402685EFF09FF84E86CA85268591
:10620000EF60A044AA852685EF00901C41016FB085
:106210002FB2EF800025AA87D1B737B601002685B7
:10622000130646413EC6EFF09FF5B2474E879306F0
:10623000040113064400CA852685EF405048D9B7AB
:10624000EFB26FAD8357E5064D7118083EC21C5979
:106250002AC018D928082EC432C6232401143EC8E7
:10626000EFB0EFB809E5B2450245A2478297024771
:10627000C247032581141CDBBA8712472397E70620
:1062800071616FB08FABEFB26FA713871500B707BF
:1062900000200451832905066364F700EF20407A4B
:1062A000139935002E8ACA8613963900A6852A844A
:1062B000EF20007A08D063C349035C44130989FDC9
:1062C0002A99858FAA975CC45C5023204407232E0B
:1062D000240181EF5C4885E36FB08FA59397390067
:1062E000AA9723A207008509F9B79843058F2A9733
:1062F00098C39C47F9BFD843058F2A97D8C39843C2
:10630000058F2A9798C3BA33098B09C7984B058F15
:106310002A9798CB9C47C1B7EFB2EF9F3851B74649
:106320000F009386062463D5E6009945EFF07FDFE2
:106330005C4510512A84918F8D87AE979315170075
:10634000950763D3B600B68563D5F50237470F00CE
:1063500093060724BE8563DEF60093058730228509
:10636000EFF07FF2B7B50100938545AA2285EFF0E3
:10637000DFB22285EFF03FF16FB02F9CEFB2AF9903
:1063800040455C49AA84B9E79C50B85026851D8CCD
:10639000B7470F000D8493870724050463D2E704F1
:1063A000EF409053B7470F001387B723634287022C
:1063B000A145B345B40293870724A295A90563D3E9
:1063C000B700BE85BC5063D5F5002685EFF0BFEB66
:1063D0006FB0AF96D8436373E4003A849C4765B7C7
:1063E000EF40306DC1B7EFB20F9358455C4D2A8432
:1063F000998F21476345F7008545EFF0FFF15C4435
:10640000A1075CC46FB06F93EFB24F8F032A85056D
:10641000597163040A06834745072A84B9CF444962
:1064200058451C5103A944002EC6B309F74033094F
:10643000F9405C4D32D0A6D6998F1307000A634508
:10644000F700D145EFF05FED5C446C002285938747
:10645000070ADCC0230A0406BE3093E74700BEB03B
:10646000029A8547230AF4061C503E9923A2240170
:10647000CE975CC4BE30ED9BBEB065616FB04F8BF4
:10648000EFB2CF8738594111AA84937767002E84E1
:106490000399050295C3098B09CF83290502854518
:1064A00036C6B30936417D56EFF01FF69050B2461E
:1064B0004E961C44DC4B9CCC1C440840DCC8630159
:1064C000090285476307F900FD576317F90401477F
:1064D0001DA899E2138641821C421CC15C425CC12A
:1064E00093173900B306F500D4C405451DA09317D2
:1064F0003700B305F500B29703A80700050723A0EE
:106500000501DC43DCC1E344D7FE8E06AA96D4C461
:10651000014541016FB0CF81814563DA260363CB2A
:10652000D50263D306008146E3DC26FB13973600D1
:106530002A97232207008506C5BF13973500B307A6
:10654000E50032971443850594C35843D8C3E3C686
:1065500025FF79B713973500B307E5003297032875
:106560000700850523A007015843D8C34DBFEFA2FC
:106570009FFA4049AA843E3013F7070109C7BD9B23
:106580003EB05C487CCD03170402FD576317F7004B
:10659000DC4458406373F7005CC01C48104C2685EF
:1065A0008297D04493173500AA861D8EA285268532
:1065B000EFF01FED6FA07FF8EFA2FFF52A8481C5F1
:1065C0008C41EFF0DFFA930444035C486394970036
:1065D0006FA0BFF6BE33898B91E785452285EFF02A
:1065E0001FF9E5B72285EF6010342285EF60304651
:1065F000E9BFEFA2DFEF2A84AE84B289D94A130B38
:106600006002194AA14BD4400329C400584C93F6A8
:10661000F603330727416387561963836611639B2B
:10662000461B9C40330999401359394083AAC7003F
:106630000D87930BF9FF03CB8A006341EB021C50DB
:106640009D8C1C48DC476355F0002285EF10E05319
:10665000DA852285EFF05FCC1C50BE9483C77A00A8
:1066600003C66A0063830716E157B307F902032ADA
:10667000C4000145D297AA866351C5024C44A107C4
:106680001387850063437513BA8723AE07FE85061B
:106690003E87A107E3CBC6FE58C45C4803A9C700E8
:1066A000631609002285EF40D0202A89232A24017D
:1066B0000E0B2328490183A70A035A9A285823104E
:1066C0003903232099002322490123264401094745
:1066D000232AF9002311E902058979C103278900DA
:1066E0009107232AF9003E338145898B99CF5C4B72
:1066F0001307500283A7C7FF93F7F7036397E700D9
:10670000930720022311F902914522857D56EFF06F
:10671000BFCF832749010145F117232AF90049A07A
:106720009C4003AAC7009307000A63C1E7021C50FC
:106730009D8C1C48DC476355F0002285EF10E04437
:10674000D1452285EFF05FBD1C50BE945C4803A983
:10675000C700631609002285EF40B0152A895C4402
:10676000232A2401231039039387070A2322F900DF
:106770003C582320990023110902858B91C77D562F
:1067800081452285EFF05FC82285029A5044931715
:106790003500AA861D8ECA852285EFF07FCE05457D
:1067A0006FA07FD803AA0400BDBF58C49843050555
:1067B00098C1D843D8C123A2070075BD5C44850B9E
:1067C0001387870058C423A20700E3C9CBFE138AAE
:1067D0008400E1B563C1EB021C509D8C1C48DC4772
:1067E0006355F0002285EF10403A85452285EFF091
:1067F000BFB21C50BE945D46A6852285EF50E0795D
:106800005C41BD8B638A470137B60100130606431E
:10681000A6852285EFF0EFED5844BA8763E9F400CE
:106820001C41210758C49CC05C41DCC0E9BB83A665
:1068300087FFE11794C7D443D4C7CDB7EFA2BFCD2C
:1068400094414C452A84939736009D8D1C2599EBE5
:106850007D56E115EFF0FFD901E52285EF60301F8D
:106860006FA0BFCD4449230405001C51D84CBA97F2
:106870009CC0BE30898B81CBEF60701D8145228525
:10688000EFF09FD3F1BF9C4889CB904C8545829710
:106890004C4493173500AA869D8D2E862285A685A9
:1068A000EFF01FBEE1BFEFA21FC7EFF09FD46FA0B4
:1068B000DFC8EFA25FC68357E5061307700C2A8472
:1068C0008507C207C1832317F5066373F702130711
:1068D000800C6398E700B7B501009385C541EFF0E0
:1068E000CFDB1307000E6375F7009945EFF07F8348
:1068F0002285EFF01FD001E52285EF605015835708
:10690000E406FD172317F4066FA03FC3EFA2BFC034
:106910008357C5062A8485072316F506EFF07FF90D
:106920008357C406FD172316F4066FA01FC1EFA2FC
:10693000FFBC1C25011132C62A8499EF58499307E0
:1069400045036303F702B7B5010093858543EFF074
:10695000CFFA05616FA0DFBD05476387E700B7B5D4
:10696000010093850546E5B78359C406A9E5854727
:106970002317F406B77500002316040670009385EC
:10698000C5832285EFF0DF8BFD576308F5042ACE1F
:10699000854A376A0000724963D32A054448A9E84A
:1069A000504423042401CA852285EFF04FF05C484F
:1069B0005844D8C32DA083D7E5061307700C85076C
:1069C000C207C1832317F406E376F7FAB7B50100CF
:1069D00032469385C54122859DBF89473ECE835768
:1069E000E406231634077245FD172317F40695B7FE
:1069F000BE30C18B99E384445DB7DC4C10502285D6
:106A00003E96B28532C4B12C2246CA852285EFF06B
:106A10000FEA83C72402228544C8858B230AF40623
:106A200023160406EFF09F95DC48700893058A5BF7
:106A30007CCC2285EFF0DF802ACEB1BFEFA2BFADC4
:106A40000357C506AA8705C31849385B6308A70022
:106A5000B7B5010093850548EFF02FC4B7B5010025
:106A60009385C54AD5BF5849054588A703A807029D
:106A700008433305054148CF2A33098919ED14CB62
:106A800091C210CFE1568505B385D502D4473E8526
:106A9000B6950CC38545EFF0CFE801456FA0FFA97F
:106AA000EFA2DFA541110329C50578CD36C62A849A
:106AB000832A4501034A45078359C506EFF04FF87D
:106AC000AA84B2460DC5105022853696B28532C6CC
:106AD000492A32462285A685EFF06FDD2285232ADA
:106AE0005401230A440723163407EFF03F89232E6D
:106AF0002405268541016FA0BFA3EFA2DFA1835724
:106B0000C506397136DC85072316F50654451C5138
:106B1000784D2EC2B76500009D8E32DE9385C51B71
