:040000006F10D0406D
:100004000000000000000000FE090000000A0000DB
:10001400000000000A1C00000000000000000000B6
:100024000A1C00000A1C0000000000000000000080
:10003400AA9401000000000000020000000000007B
:100044000A1C00000A1C00000A1C00000A1C000014
:100054000A1C00000A1C00000A1C00000A1C000004
:100064000A1C00000A1C00000A1C00000A1C0000F4
:100074000A1C00000A1C00000A1C00000A1C0000E4
:100084000A1C00000A1C00000A1C0000748C0100F9
:10009400D48C0100328D0100908D01000A1C0000F7
:1000A4000A1C0000F28F01000A1C00000A1C000058
:1000B4000A1C00000A1C00000A1C00000A1C0000A4
:1000C4000A1C00000A1C00000A1C00000A1C000094
:1000D4000A1C00000A1C00000A1C0000AE92010069
:1000E4000A1C00000A1C00000A1C00000A1C000074
:1000F4000A1C00000A1C00000A1C00000A1C000064
:10010400000000000A1C00000A1C00000A1C000079
:100114000A1C00000A1C00000A1C00000A1C000043
:100124000A1C00000A1C00000A1C00000A1C000033
:100134000A1C00000A1C00000A1C00000A1C000023
:100144000A1C00000A1C00000A1C00009A0E000091
:100154000A1C00000A1C00000A1C00000A1C000003
:100164000A1C00000A1C00000A1C00000A1C0000F3
:100174000A1C00000A1C00000A1C00000A1C0000E3
:100184000A1C00000A1C00000A1C00000A1C0000D3
:100194000A1C00000A1C00000A1C00000A1C0000C3
:1001A400000000000000000000000000000000004B
:0C01B4000000000000000000000000003F
:10020000130181F806C216C41AC61EC822CA26CC1B
:100210002ACE2ED032D236D43AD63ED842DA46DC76
:100220004ADECEC0D2C2D6C4DAC6DEC8E2CAE6CC46
:10023000EACEEED0F2D2F6D4FAD6FED8F3220030CF
:1002400096DA83A2019223A02200F32510342EC057
:100250009305000273A0458003A1C185EFA0A16BA7
:1002600003A3019203210300824273901234D652F9
:10027000739002309240A2423243C2435244E2445D
:10028000724582551256A2563257C2575258E258FA
:1002900072598649164AA64A364BC64B564CE64C0E
:1002A000764D865D165EA65E365FC65F13018107DA
:1002B0007300203013000000130000001300000042
:1002C00013000000130000001300000013000000E2
:1002D00013000000130000001300000013000000D2
:1002E00013000000130000001300000013000000C2
:1002F00013000000130000001300000013000000B2
:1003000083A2C185938202E07390023403A101921B
:10031000024182403243C2435244E2447245825514
:100320001256A2563257C2575258E258725986494D
:10033000164AA64A364BC64B564CE64C764D865D61
:10034000165EA65E365FC65FD652A102739002307B
:10035000A2421301810782801300000013000000F5
:100360001300000013000000130000001300000041
:100370001300000013000000130000001300000031
:100380001300000013000000130000001300000021
:100390001300000013000000130000001300000011
:1003A0001300000013000000130000001300000001
:1003B00013000000130000001300000013000000F1
:1003C00013000000130000001300000013000000E1
:1003D00013000000130000001300000013000000D1
:1003E00013000000130000001300000013000000C1
:1003F00013000000130000001300000013000000B1
:10040000F322003093F272FF130380781203B3E2F9
:100410006200711523205500130585FA10C12115BE
:10042000232005009302000063870200711523203A
:100430000500FD12D5BF71150CC1828000000000BF
:1004400000000000000000000000000000000000AC
:10045000000000000000000000000000000000009C
:10046000000000000000000000000000000000008C
:10047000000000000000000000000000000000007C
:10048000000000000000000000000000000000006C
:10049000000000000000000000000000000000005C
:1004A000000000000000000000000000000000004C
:1004B000000000000000000000000000000000003C
:1004C000000000000000000000000000000000002C
:1004D000000000000000000000000000000000001C
:1004E000000000000000397101436EC619A0397187
:1004F00041536AC866CA62CC5ECE19A039710153F5
:100500005AD056D252D44ED64AD826DA22DC06DE4B
:1005100033016140828241114AC026C222C406C60C
:100520008282B24D4101024D924C224CB24B4101AC
:10053000024B924A224AB249410102499244224462
:10054000B240410182803D432A876373C30293779F
:10055000F700BDEFADE5937606FF3D8ABA960CC372
:100560004CC30CC74CC74107E36BD7FE11E2828036
:10057000B306C3408A069702000096966780A600DD
:100580002307B700A306B7002306B700A305B700EB
:100590002305B700A304B7002304B700A303B700E3
:1005A0002303B700A302B7002302B700A301B700DB
:1005B0002301B700A300B7002300B700828093F5A2
:1005C000F50F93968500D58D93960501D58D61B76E
:1005D000939627009702000096968682E78086FA17
:1005E0009680C1171D8F3E96E374C3F8A5B72320EC
:1005F000150040C104C52326250123283501232ADF
:100600004501232C5501232E650123207503232248
:100610008503232495032326A5032328B503232A32
:1006200025020145828083200500404104450329BD
:10063000C50083290501032A4501832A8501032B6F
:10064000C501832B0502032C4502832C8502032D53
:10065000C502832D05030321450313B515002E950F
:1006600082803367B500FD530D8B79E7B7877F7FB5
:100670009387F7F710419441B372F6003363F600A5
:10068000BE92B3E262006395720C6318D6065041C5
:10069000D441B372F6003363F600BE92B3E2620057
:1006A0006396720A631BD60410459445B372F60034
:1006B0003363F600BE92B3E26200639F7208631E6A
:1006C000D6025045D445B372F6003363F600BE92AD
:1006D000B3E26200639872086311D602104994492C
:1006E000B372F6003363F600BE92B3E26200639128
:1006F00072085105D105E30FD6F61317060193973B
:100700000601631CF7001357060193D70601330552
:10071000F7409375F50F91E982804183C1833305DA
:10072000F7409375F50F91E182801377F70F93F7F8
:10073000F70F3305F74082801021942105058505C8
:100740006313D60075FA3305D640828011059105F2
:10075000E314D6FE014582802105A105E31ED6FCE7
:10076000014582803105B105E318D6FC0145828040
:100770004105C105E312D6FC014582808280EFF27B
:100780009FD9B707002003A5072A41117400054629
:100790009305B10002C6EF90911209C58C850945F9
:1007A000EF80D124B24791C7B7E700E0116723A0DB
:1007B000E720410159B3EFF21FD6B70500204111E0
:1007C0001384652909459385652902C6EF80B12305
:1007D0001C2074000546DC85B707002003A5C72947
:1007E0009305B100EF900172B24791C7B7E700E0FF
:1007F000116723A0E720410189B3370500201305C5
:1008000005298280EFF23FD1138781B7938641A4F7
:100810000546814513054006EF90E143370400206B
:10082000232CA428138781BB938601B101468545FB
:1008300013054006EF902142B7070020138781B9C6
:10084000938681AA0146854523A0A72A1305400661
:10085000EF906140B707002023AEA7281305842935
:10086000EF10D047EF80A11837350000130565ADB4
:10087000EF806103370400001305C477EF80410364
:100880001305C477EF808101F16501478146014678
:10089000938505200945EF80D10937060000B7058B
:1008A0000000054785461306E6779385657B094575
:1008B000EF80B1100945EF80D10EB7050020938578
:1008C00065290945EF803114B7360000E16581479D
:1008D0000547938666AB130630069385056A014586
:1008E000EF80817D0145EF80016F81B9EFF2BFC2DA
:1008F000370400201304042AAA84084041112EC69C
:10090000EF907106854732466311F50208407D1667
:100910009385140081461376F60FEF9021488C20C2
:100920000945EF80B10C410109B908408146A6850F
:10093000EF90C146CDBFEFF21FBB5971B70A00203F
:1009400037090020138BC197B70400201384CA29EC
:100950000840EF9051010DC9370400201304842989
:100960000840EF9051007DF108409385019E81463B
:1009700013064006EF9081649375F50F1385019E71
:10098000A38AB428A537D9B7084081461306400684
:100990006C00EF90A162937BF50F0144130C4006AD
:1009A000B54C9377F40FE3F977FB78008347492937
:1009B00022971823B306FB00130D492998A26365FB
:1009C000FC0085072300FD006319970383450D0094
:1009D000938654291386019EFD1593F5F50F138513
:1009E000C197938D5429EF10103083C50D0081C538
:1009F0001385019EE53D23000D0005045DB701A0B0
:100A000001A0EFF25FB1EF80414E371401401305B2
:100A100004C0E14637461D0093050020EF80A14940
:100A2000130504C09306800437461D00930500108B
:100A3000EF806148E1460146130504C0930500407C
:100A4000EF806147856593850580130504C0EF80BD
:100A500081454D3B0545EF00507A392E0545ED2681
:100A6000E9BC370500201305452A8280EFF2BFAAB2
:100A7000370400202324042A1304842A0545EF9018
:100A800071631C40E5FFEF404076EFF0B035EFA01A
:100A9000B06485471CC0DDB7EFF2FFA70945EF1032
:100AA00000641922B93FA524EF90312A01A0B7179D
:100AB00002409843B706FFF041111367170098C32F
:100AC000D84337060200758FD8C39843B706F7FEA0
:100AD000FD16758F98C39843B706FCFFFD16758FFA
:100AE00098C3D843B70601FFFD16758FD8C3984346
:100AF000B70600ECFD16758F98C33707FF0098C73F
:100B000023A6070202C402C69843C166558F98C344
:100B1000B716024005679C42F18F3EC6A247850783
:100B20003EC4B24781E7A247E397E7FEB71702400A
:100B30009C431397E7006357070685473EC6324735
:100B40008547631FF704B7170240D843B706C1FFB4
:100B5000FD16D8C3D843D8C3D84313670740D8C3BA
:100B6000D843758FD8C3D843B7061D00558FD8C357
:100B70009843B7060001558F98C3984393166700B2
:100B8000E3DD06FED843B7160240719BD8C3D843B5
:100B900013672700D8C32147DC42B18BE39EE7FEF1
:100BA0004101828002C661BFB7160240D842B70732
:100BB00000201146318B938707206305C70021462B
:100BC0006308C70237177A001307072098C337173F
:100BD0000240584311839376F7003707002013072C
:100BE00007003697142398433357D70098C3828061
:100BF000D842D442416649833D8BF18E13062700CB
:100C000015CF3D47630FE6024147630FE6024547B4
:100C100081456313E6004146A1E2374702400327BE
:100C20000780418B0DC737177A001307072033065B
:100C3000C70290C3C9DD9843058349BF8145494632
:100C4000E1BF85453546C9BF81453D46F1B73717F8
:100C50003D0013070790E1BF371502405855931622
:100C6000F700585563DF060411833D8B9306170088
:100C700037177A00130707203357D70298C3545504
:100C8000A182BD8A8DE295463307D702058398C3BA
:100C900037170240585794433D8B050733D7E60278
:100CA00098C3984369B705456394A600E546E9BF34
:100CB0003D456396A600D1463387E602C9BF890643
:100CC000E5BF3D8B9306170037177A0013070720FF
:100CD0003357D702F1B7B74700209387C7101CC11D
:100CE000B74700209387878B9CC1930700101CC2D5
:100CF0008280B74700209387471B1CC1B74700205D
:100D0000938787CB9CC1930700101CC28280EFF2AF
:100D10009F80E5342A8437480020B77502003715D4
:100D200000001308880B938781BD19478546130679
:100D300000109385059B13056593EF90A17608C07D
:100D40000D332A8437480020B71700200566B77591
:100D5000020037150000130808169387879D19476E
:100D60008546130686BB9385859B1305C5A6EF9024
:100D7000617308C06FF06FFCEFF2EFF90545EF10FB
:100D800000570145EF1020510545EF10204F054554
:100D9000EF1000520545EF104053056585451305DA
:100DA0000580EF10C04B85450565EF10404B6FF097
:100DB000CFF8B70700501307C004D8A71307800463
:100DC000D8B7374700201307872498CB3747002030
:100DD00013078728D8CB37570020130787B898CF39
:100DE000374700201307872CD8CF37470020130739
:100DF000873098D3A3890702A38D0702A381070434
:100E0000239A0702239E0702239007040947238998
:100E1000E702238BE702238FE7022381E704B7076A
:100E200000209387472B23800700A380070023819E
:100E30000700A381070023820700A3820700238302
:100E40000700A38307008280EFF2EFEC3704005025
:100E500099471CA01DC52945EFA0C1599D472300F6
:100E600004003CA0930790021CA0A137930710F840
:100E70001CB037070800B7E700E023A4E7106FF0C5
:100E8000CFEB2945EFA00157B7E700E023000400AE
:100E90003707080023A4E718DDB7011122CE26CCBE
:100EA0004ACA4EC852C656C45AC2370400507820A7
:100EB0007C301377F70F93762700E38E061A93F7AB
:100EC000F70F13F7070393060002630DD70A130603
:100ED00000036301C73A69E313F7F70309466306A2
:100EE000C7261146630DC73245EB022493F707046A
:100EF00042044180D5C3B707002083C7472CB704FD
:100F000000209384242C93F70706BDC3B707002065
:100F10001387E72B2390040018239387E72B63960E
:100F2000E61C37470020130787241423B7570020F7
:100F3000938787F8238DD7021433A38DD7023423E8
:100F4000238ED7023433A38ED7025423238FD702A4
:100F500054337823A38FD7022380E7047947A380F3
:100F6000E704F8331377F70FA380E704EF0010448A
:100F70009E20C207C1838DE3B70700502398070264
:100F80001147EDA093F7F70393061002638FD70E76
:100F900063EAF6006385E704B70700500947F8A342
:100FA0006F00D010130730026386E710130740026A
:100FB000E394E7FE8347240493C747002301F40426
:100FC0008347240493F7C70F93E727002301F40412
:100FD000B70700209387472B2382070075BFB7040C
:100FE00000209387242C9E239384242CC207C18342
:100FF00081E79147A309F402B707002083C7472C74
:1010000093F70706D1FBB707002083C7E72B1547E7
:1010100093F7F70F638FE7041947E39FE7F69E20E6
:101020001307F003130400046365F70082204204F1
:101030004180370900201309892C8329090037458D
:1010400000202286CE8513058524EF0092169E206F
:10105000A29923203901818FC207C1839EA0B707BF
:10106000005082BB03C72703134747002389E702C9
:1010700025B7370700503C33B706002083C6E62A61
:1010800093F70708D58F3CB301BF8347640393C729
:101090004700230BF4028347640393F7C70F93E7DA
:1010A0002700230BF402B70700209387472BA38068
:1010B0000700DDB58347E40393C74700230FF4021D
:1010C0008347E40393F7C70F93E72700230FF40246
:1010D000B70700209387472BA3810700B75700204D
:1010E000938787F8238A070245BD9C232547E31190
:1010F000F7E8370900201309C92A03550900B74743
:10110000002093878720B745002022863E9593854F
:101110008524EF00120A9E20818FC207C1839EA002
:10112000835709003E944204418023108900B70789
:10113000005003C7370313474700A389E70203C7DB
:1011400037030D8BA389E70225B58347B40393C703
:101150004700A30DF402B7570020138787F8102724
:101160001437938787F8A206D18E12248606BA9682
:10117000420641829375F60FE8262182ECA6EC36F2
:10118000F0B6102714370C27A206D18E8506C206AA
:10119000C18213F6F60F10A7A182103714B71027DB
:1011A0001437A206D18E375600209A06130686B849
:1011B000B29614CC142718372207558FBD4663F911
:1011C000E6009827238407009837A384070010CCF3
:1011D000D427D837D0272207558F050742074183E8
:1011E0009376F70FD4A72183D437D8B7D427D8372D
:1011F0002207558FB546E3F1E6DA370700508346FC
:10120000B70393F6C60FA30DD7028346B70393E641
:101210002600A30DD7020547A38CE702B5BB834781
:101220003404374700201307873093C74700A301D2
:10123000F40416248147C206C1826393D70237079C
:1012400000502310F7048347270493F7C70F2301A7
:10125000F7048347270493F7F70F2301F7042DBB07
:1012600010238507C2071346F6FF2300C704C18376
:101270000507E1B799472309F402374A0020A3097B
:10128000F40293058A249C21B70900201386492C77
:1012900098311CA2F621B707002037090020938758
:1012A000E72B98A31307292C16A3B6213707002094
:1012B0009308672C03D845002390D800B706002078
:1012C0001385062C23100501034806001309292C59
:1012D0009389492C1378080613068A241307672C70
:1012E0009386062C630E081803C80900B70A00206D
:1012F000938A8A2C13780802630908169C232948CC
:1013000093F7F70F638E070F6368F8020947638549
:10131000E7126368F70005476389E7081304F00FD5
:1013200015A80D476386E7122547E399E7FEB7073F
:1013300000202396072A8DA0130610026380C7069B
:101340006366F6042D46638BC70C13070002014445
:10135000E396E7FC835709001307F00393040004A6
:101360006366F70083540900C204C18003AB0A001E
:10137000268613058A24DA85DA94EF00826323A097
:101380009A009307F00F631FF42201A6130730029F
:101390001304F00FE360F7FC01446DBFB757002062
:1013A000938727FC23A0FA00C5BF9E221304F00FE9
:1013B000C207C183C5F3B70400209387C42A2390D2
:1013C0000700835709001307F0039384C42A13040A
:1013D00000046366F70003540900420441808E2034
:1013E000B7470020938787202286BE9513058A245D
:1013F000EF00225C9E203E944204418082A069BF9F
:101400001E211304F00FC207C183A9F783D7080078
:1014100037070020A183230EF72ABDBF9E221304A5
:10142000F00FC207C1839DF71E233707002093F7F3
:10143000F70FA30EF72A8DB71E211304F00FC20772
:10144000C18389FBB707002083C7C72B9CA1A9B71D
:101450009E221304F00FC207C183E39D07EEB70776
:10146000002083C7D72B1CA205BF03C40900198025
:10147000134414000588330480401374F40FD9BD5D
:101480009C23AD4593F7F70F63E1F520B775020094
:101490008A079385059CAE979C4382871E23B704D9
:1014A00000200D46A1839384842C638CC70A636C4F
:1014B000F60005476389E7020947638DE706814720
:1014C0001304F00F0DA8130710026381E708130738
:1014D0002002E396E7FEB7770200938707A79CC038
:1014E0009307200201A8B77702001387C7A583C717
:1014F000C7A598C001440357090063F4E70023100F
:10150000F900835709001307F003930A0004636787
:10151000F700835A0900C20A93DA0A0103AB0400F8
:10152000568613058A24DA85DA9AEF00824823A0CA
:10153000540181BD377702001307079F3C3398C0E1
:101540003823A207BA97C207C1836DB79E22094705
:10155000E317F7F6B7770200938747A49CC0A54727
:1015600051BF1A2385461377F70F6306D70211CFB1
:101570008946630AD702E314F7F4B77702001387AA
:1015800087AB98C083C787ABB5B71387818298C0F4
:1015900083C7818285B7B7770200138747A998C0B0
:1015A00083C747A981BFB7770200138747AA98C0AE
:1015B00083C747AA81B71E233707002093F7F70F89
:1015C0002307F72A83C70900E207E18763DB0728BF
:1015D000035709009307000463E6E70083570900F7
:1015E000C207C183035709001D8F4207418323109F
:1015F000E900370700501EBB91472309F70269BA7B
:10160000B707002083C7F72A1CA2035709008547A4
:10161000E3FAE7FA2310F90075B71E233707002015
:1016200093F7F70FA307F72AB7070020054723888A
:10163000E72A49BF83C70900FD8B85E31E230547C1
:1016400093F7F70FE390E7F8B70700209387172B7E
:1016500098231377E70F98A3B5B703C60900894706
:101660007D8A6314F6021E2393F7F70F99EF9E22EB
:101670001307100893F7F70F638EE702636FF70005
:10168000638FC70211476386E704B70700501D4701
:101690002389E702A389E70201B2130730086385B3
:1016A000E70213074008E392E7FEB70700502381E3
:1016B000C70409BFB7070050238BC70221B7B7077C
:1016C0000050A38D0702FDBDB7070050238FC7024E
:1016D000D5BDB7070050A3810704EDB583C7090046
:1016E000FD8B95E71E23054793F7F70FE39FE7F878
:1016F000B777020083C7779F93F70702D9D7B70759
:1017000000209387172B982313671700A9B703C6E8
:10171000090089477D8AE31AF6F61E2393F7F70F2F
:10172000ADF79E221307100893F7F70F6383E704C2
:101730006360F7026388C7041147E398E7F437074B
:1017400000508347370493E73700A301F7049DBD9A
:10175000130730086381E70413074008E397E7F2B3
:10176000370700508347270493E737002301F70426
:1017700091BD370700508347670393E73700230B7A
:10178000F70289B5370700508347B70393E737005F
:10179000A30DF70205BD370700508347E70393E722
:1017A0003700230FF70239BD23000600B9BD83C7F8
:1017B000090023100600FD8B95E3B707002083C7BF
:1017C000172B0144858B99C389471CA20357090035
:1017D0008947E3F8E7BA2310F90065B603C70900A3
:1017E00089471304F00F7D8BE312F7FE9E229306C8
:1017F000100893F7F70F638BD70263ECF60063844E
:10180000E7041147E394E7FCB707005083C73704A8
:101810003DA8130730086381E70413074008E397E6
:10182000E7FAB707005083C7270415A0B707005091
:1018300083C767030D4701448D8BE399E7F885471C
:101840001CA2014461B7B707005083C7B7038D8B53
:101850000D47E398E7FEE5B7B707005083C7E703F6
:10186000FDB783570900C207C183638707F0B70735
:101870000050114705B593771700B9C3B70700208B
:10188000A387072AB70700202387072AB707002066
:10189000A388072AB70700202388072AA30104008A
:1018A000EFF02FD10545912A85477CA07244E24490
:1018B0005249C249324AA24A124B05617300203094
:1018C000937747009DC75830B70700209387172BA1
:1018D000118B19CB98231367270098A39C23B70774
:1018E000005011476FF0AFEB98231377D70F98A3F1
:1018F000FDB778A065BFEFE27FC037140140797172
:10190000AA8A2E8913050480914532C602D002D2DC
:1019100002D402D602CA02CC02CEED258D44114A71
:10192000C1494C0813050480231A410126CC4ECE30
:10193000112D374700408357C7404C0813050480DA
:10194000C207C183CD9BC207C1832316F740A147BD
:10195000FC82930780043ECEF523E1474C08130533
:1019600004803ECE231A410126CCE92BE1774C08B6
:1019700013050480FC8226CC4ECEE923854756D041
:101980002312010232466319F9048D672313F10211
:101990008547631BF604930700602314F1028567F3
:1019A0002312F10237440040B1470C1013050440E4
:1019B0002315F10223160102EF005016130504400F
:1019C00093050004EF001022854513050440EF0045
:1019D000D01D45616FE0DFB589476314F900896761
:1019E00075B7231301026DB789476315F600930796
:1019F000004065B72314010275B7B757002013875D
:101A000087F8231007002311070023120700230380
:101A10000700F94674B323140700231507002316A3
:101A20000700938787F80147414693161700BE9633
:101A3000239706000507E31AC7FE238707022398AA
:101A4000070223990702238A0702239B0702238C9C
:101A50000702A38C0702370700202326072C37072D
:101A600000202328072C15C5238D0702130720FC0F
:101A7000A38DE7020547238EE702A38E0702238F7B
:101A80000702A38F070221472380E7047947A38039
:101A9000E7048280EFE23FA879712A842E89B2841C
:101AA00081451306C0024800EFE0FFA921E4370496
:101AB000024013050408D92CB747004093874740DC
:101AC0003EC2C1473EC6930700083ECC4C00856726
:101AD000130504084AC426C802CA02CE02D002D2A4
:101AE0003ED402D61129854513050408912145618C
:101AF0006FE0BFA4370402401305C406412CB7476A
:101B00000040938747403EC2930700083ECC9307AE
:101B100000023ED24C0085671305C4064AC402C6C3
:101B200026C802CA02CE02D03ED402D6F12685458E
:101B30001305C40665BFEFE27F9C374400404111A6
:101B40002A89AE89328A13050440014693050004B0
:101B500036C6B7040240EF00B0061385C4068145BF
:101B6000C12E138504088145E126B246D2854E85F3
:101B700036865133B75500200146938585B8014517
:101B8000113F0566B745002013060680938585380A
:101B90000545093705469305000413050440EF0089
:101BA00030024A85993D41016FE09F98EFE2BF9670
:101BB000B7570020938787F803C7D70383C6C703A7
:101BC00083C5B70303C6A703C206620736973297D9
:101BD00003C6E70383C6F703A205BA950145A13FF3
:101BE00037570020B7070050130787B898CF03C7AF
:101BF000B7031377C70FA38DE70203C7B7031377A4
:101C0000F70FA38DE7026FE05F9301A097F1FF1F2D
:101C1000938141DF17E101201301C13E17950200B6
:101C20001305856E97E5FF1F9385C53D13860189D2
:101C300063FAC5008322050023A055001105910514
:101C4000E3EAC5FE17E5FF1F1305C56497C501202C
:101C5000938545DB6377B500232005001105E36D0F
:101C6000B5FEFD42739002BCFD4273904280B78284
:101C70000000938202807390023097E2FFFF93820C
:101C8000A23893E2320073905230EFE05FE297F2B5
:101C9000FFFF9382A2E07390123473002030376705
:101CA000004013070740832607203C25054893E69C
:101CB00016002320D7208325C7213316F80093462A
:101CC000F6FFF58D232EB7204C25BDED8325C720CB
:101CD000035825008E07F58D2326B7206E21BA976D
:101CE0005A21C205B3E5050123A0B7240E214207FE
:101CF0004D8F23A2E7243835B7670040938707400C
:101D00002DEB03A74720758F23A2E7201A25B7677D
:101D100000409387074035E303A74721F98E23AAA4
:101D2000D720184985476319F700B767004003A714
:101D3000C761598E23AEC760B767004003A707602D
:101D4000799B23A0E7608280E39705FB8325C7206A
:101D5000035825008E07D18D2326B7200E21BA9770
:101D60005A21C205B3E5050123A0B72442076E211D
:101D700041B703A74720518F41BF8546E313D7FAE8
:101D800003A74721518F23AAE72061BF1C41416768
:101D90007917F98F1CC12320050023220500232475
:101DA0000500B70702402326050013878700631745
:101DB000E500D8431367F700D8C382801387C701B3
:101DC0006316E500D8431367070FFDB713870703B2
:101DD0006318E500D8438566938606F0558FE9BF02
:101DE000138747046315E500D843BD66C5BF138755
:101DF00087056316E500D843B7060F00C5B71387FC
:101E0000C7066316E500D843B706F000C1BF1387C5
:101E100007086316E500D843B706000FC1B713875C
:101E200087406319E50003A747401367F70023A223
:101E3000E74082801387C7416317E50003A7474047
:101E40001367070FEDB793870743631BF500B707C9
:101E5000024003A747408566938606F0558FC1BFB1
:101E6000B7070240138747446316E50003A74740BE
:101E7000BD66EDB7138787456317E50003A74740A5
:101E8000B7060F00E1BF1387C7466317E50003A736
:101E90004740B706F000D9B7138707486317E50036
:101EA00003A74740B706000F55BF138707496319BB
:101EB000E50003A7474D1367F70023AAE74C82808C
:101EC0001387074A6317E50003A7474D1367070FFA
:101ED000EDB71387074B6319E50003A7474D8566E8
:101EE000938606F0558FD1BF1387074CE319E5FCA5
:101EF00003A7474DBD66FDB71C4161773D0794516F
:101F00007D8F9C45D58F9449D58FD449D58F944DDD
:101F1000D58FD44DD58FD451D58F9455D58FD98F9A
:101F20001CC1DC455CC19C411CC5DC415CC5828098
:101F30001C4189C593E717001CC18280416779174E
:101F4000F98FDDBF9C4513F7070113F8F70001C7B0
:101F5000D8413368E8008E2113F7F50F39C31841D3
:101F60008146854E3D4F930F800293028004214E9F
:101F70003396DE00B3F8C50063111603939826006C
:101F800033131F011343F3FF3377E300B318180132
:101F900033E7E800639FF70550C98506E39AC6FD5D
:101FA00018C11307F00F6375B70454412146854EDD
:101FB0003D4F930F800293028004414EB398CE00B0
:101FC00033F715016392E802131726000117331344
:101FD000EF001343F3FFB376D3003317E800D98E35
:101FE000639DF701232A15010506E319C6FD54C1B7
:101FF0008280E39457FA10C94DB7E39757FE232820
:102000001501DDB70CC98280B7070140635A05048A
:10201000DC4F93560501131805013707300013F6FE
:10202000F60013580801B376E50063500506639B7C
:10203000E602930606010D46B316D60093C6F6FFD8
:10204000F58F99C9135755011377F73F12073317C7
:10205000E800D98F63570504370701405CCF8280C1
:10206000DC4345BF1317B500635607008D46B39692
:10207000C600E9B7135755011377F73F1207331717
:10208000E8001347F7FFF98F6DBF6390E60237064C
:1020900001405442370700F17D17F98F758F58C200
:1020A000D5F1370701405CC382801317B500635C2C
:1020B00007008D46B396C60093C6F6FFFD8EB707A0
:1020C000000FD58FF1BF1357550112073317E800E2
:1020D0001347F7FF7D8FB707000FD98FD1B7B70729
:1020E000002023AAA72C8280371702405C43914628
:1020F000B18B6385D700A1466382D706B7177A00F4
:10210000938707201CC1371602405C423707002026
:10211000130707019183BD8BBA9794231C41B3D752
:10212000D7005CC15442A1829D8ABA969422B3D64C
:10213000D70014C55442AD829D8A36971823B3D771
:10214000E7005CC558423983937637001387418096
:1021500036971823B3D7E7021CC982805C435843E3
:10216000C166C983758FB7F6FF1F83A6C670BD8B86
:1021700089071396160163480600C5460146639217
:10218000D702C94739A88946638FD702BD46638EF7
:10219000D702C146638ED702C54601466393D70076
:1021A000C1471DEF3747024003270780418B05C712
:1021B00037177A0013070720B307F7021CC121D68F
:1021C0001C41858381B701466DBF0546B547D1BF28
:1021D0000146BD47F9B737173D0013070790E9BF20
:1021E000B7150240D8559316F700D85563DF06049B
:1021F00011833D8B9306170037177A0013070720CA
:102200003357D70218C1D455A182BD8A8DE29546B5
:102210003307D702058318C13717024058571441B6
:102220003D8B050733D7E60218C1184171B78545C4
:102230006394B600E546E9BFBD456396B600D14656
:102240003387E602C9BF8906E5BF3D8B93061700B9
:1022500037177A00130707203357D702F1B799C50C
:10226000371702405C4B5D8D48CB8280B717024028
:10227000D84B1345F5FF798DC8CB8280B717024044
:10228000D857B70600F9FD16758FD8D7D85762050D
:10229000598DC8D78280B7170240D857B70600F8C3
:1022A000FD16758FD8D7D8576E05598DC8D782803F
:1022B000B7170240D857B70600D0FD16758FD8D78C
:1022C000D8577205598DC8D7828009C9371702407F
:1022D0005C57B7060040D58F5CD78280B7160240A6
:1022E000DC56370700C07D17F98FDCD682803717A0
:1022F00002405C577E05860785835CD75C575D8D01
:1023000048D782801E294A25ED8F4205418189C721
:102310006D8D3335A000828001458280EFE2AF9F52
:102320001629F577FD17F58FF621DA257971D58F06
:102330001EA95625FD779387379FF58FD6212A84CE
:102340002EC6D58F9625D58FB625D58F5EA55E294D
:10235000C207C18393F7F7CFD98F5EA968086933A5
:10236000B747014093870780B245631EF402A25726
:102370006547B387E7029841930640060A07B3D73B
:10238000E70233D7D702B3F7D70212079207938732
:102390002703B3D7D702BD8BD98FC207C1831EA431
:1023A00045616FE08F999257E1B791C55E25096746
:1023B000D98F5EA582805A25F977FD17F98FD5BF91
:1023C0005E2901C6DD8D4EA9828093C5F5FFFD8D86
:1023D000DDBF93F5F51F4EA182800A216D8D333547
:1023E000A000828093C5F5FFC205C1810EA1828045
:1023F00013F7F50F85461583B397B6006311D7021F
:102400005A25F98F1A2101454207418381CB0545A1
:10241000A181B315B5006D8F3335E0008280894608
:102420006314D7001A29F1BF5A29E1BF3D89A54796
:1024300063F5A700130575038280130505038280E9
:1024400023800500930760051CA19C21130700034E
:10245000850793F7F70F9CA1AA9798A39C2185075E
:1024600093F7F70F9CA1AA9798A39C21850793F750
:10247000F70F9CA1AA9798A39C2113071003850727
:1024800093F7F70F9CA1AA9798A39C21850793F730
:10249000F70F9CA13E95B5471CA19C2185079CA1E7
:1024A00082809307F5FB93F7F70F65476366F700A4
:1024B000130595FC3D8982809307F5F993F7F70F93
:1024C0006365F700130595FAF5B7930705FD93F7D4
:1024D000F70F2547E360F7FE3E85E9BFB707002009
:1024E00023ACA72C8280EFE28F801C2113075003BE
:1024F00001119387F7FB93F7F70FB2893684636175
:10250000F708377702008A07130707ADBA979C438D
:10251000AA842E8982878947639FF5440831513701
:10252000A14763EAA744B707002083C7072E639437
:1025300007449317250037750200130505BB3E9528
:102540000A2101468545EF604137854702CC854425
:1025500002CA230CF100680085473ECE02C602C8BD
:10256000E482EFF0CFF3B7070020A380972E04A0FA
:1025700003C709002386E18021A09547639DF53EAE
:102580009387C18094431D476397E600054718A0D1
:1025900003C7090098A305616FD0FFF88547639CC6
:1025A000F53CB70700209387072E98236315073C57
:1025B000370700200347172E631FB73A23802701F0
:1025C000B707002023AE272D2300240155B78547E8
:1025D0006393F53AB70700209387072E9823631C6F
:1025E0000738370700200347172E6316B7382384B0
:1025F000B180E9B785476390F538B7070020938726
:10260000072E982363190736370700200347172E34
:102610006313B7368CA30947B707002023AEE72C16
:1026200065B785476399F534EF60613FB7070020D0
:102630002380072EB707002023AE072C71B748214F
:102640008D359317150095072A8A6316F932B70757
:10265000002083C7072E0547639FE7303707002018
:102660000327C72D6319F730214681451305110152
:10267000EFD07FED8830137AFA0095041D352A8952
:1026800003C5D4FF2209130BC100213D8567938741
:1026900007F012053379F9001375F50F3369A900B6
:1026A00003C5E4FFFD3B3D89336925014AC6230884
:1026B00041010149050B63142A036800EF6061467C
:1026C00003C78180230004008547631EF728930712
:1026D000A0052380F9001C2085071CA069A4882080
:1026E00005091379F90F753BAA8A8830920A890483
:1026F0004D3B3D89B3EAAA0023025B0165BF083563
:102700004D339307550086072A8A6316F926B707C3
:10271000002083C7072E0547639FE7243707002063
:10272000832BC72D6399FB24214681451305110195
:10273000EFD07FE18830137AFA00A9049D332A8410
:1027400003C584FF7204B13BAA8C03C594FF913B7F
:102750002A8C03C5A4FF520CA9332A8B03C5B4FFEE
:10276000420B8133AA8A03C5C4FFB20A1D3BAA8962
:1027700003C5D4FFA20935332A8903C5E4FF120932
:102780001379F90F393B3D89498C13958C01B70CAE
:10279000000F33759501418DB7070F003704F00026
:1027A000337C8C00337BFB00BD67B3FAFA003365E2
:1027B0008501856733656501938707F0B3F9F900F3
:1027C0003365550133653501336525012AC65ECE73
:1027D000230841019309C1000144850963188A0057
:1027E0006800EF60212683470000029088200504DE
:1027F0001374F40F7D312A89883012098904553108
:102800003D893369A90023822901C1BF954763949B
:10281000F516B707002083C7072E0547639DE71409
:1028200037070020032AC72D6317FA142146814574
:1028300013051101EFD03FD18830A5312A89A82096
:10284000220985318567938707F012053379F900EE
:102850001375F50F3369A900A830A1313D8933699B
:10286000250121653369A900C8204AC602CE153961
:102870003D892308A1006800EF60C11C83C78180E7
:10288000230004006391470F9307A00799B5A94758
:102890006393F50EB707002083C7072E0547639C97
:1028A000E70C37070020832BC72D6396FB0C2146CE
:1028B000814513051101EFD01FC98830DD362A8DFF
:1028C000A820C536AA8CA830E20CE13E2A8CC8208C
:1028D000520CC13E2A8BC830420BE136AA8AE8204E
:1028E000B20AC1362A8AE830220A653E2A8988243B
:1028F00012091379F90F75363D893369A9009317C9
:10290000CD01B367F9003707F0003709000F337CBA
:10291000EC00B3FC2C0137070F00337BEB00B3E76F
:1029200097013D67B3FAEA00B3E78701056713072C
:1029300007F0B3E76701337AEA008834B3E7570159
:102940002167B3E74701D98F3EC65ECE993E3D89E8
:102950002308A1006800EF60E10E83C78180230097
:102960000400E38377F31C20CE97354798A31C20FF
:1029700085071CA031B11D4723A6E18011B1854711
:10298000E39BF5FEB707002083C7072E23800600D0
:102990006390B706B70700209387472E98232380BC
:1029A0000700930760041CA21C20B7060020938632
:1029B000362E850793F7F70F1CA08822B297238045
:1029C00006009306000394A31C20058B06078507C9
:1029D00093F7F70F05891CA0598DB304F600EFF0AB
:1029E000FFA488A01C20850793F7F70F1CA0ADBF9C
:1029F0009D472380F900A5BF8947E39EF5F608317E
:102A00004D348547E3E9A7F6B707002003C7072E33
:102A10009D470DEB2384A180B5472DA08947E31C7A
:102A2000F9F485471CA0A9B68947E396F5F4083167
:102A30008D3C8547E3E1A7F4B707002003C7072EC5
:102A40009D4779DB230004006DB7A547C9BF8547C3
:102A5000E393F5F2B6853285EFF09F9E15B6854774
:102A6000E39BF5F0238006009307E0041CA2882274
:102A7000B7750200114605051375F50F88A29385F9
:102A800085BA4E95EFE0F1721C209107B1BF8947DE
:102A9000E393F5EE0831EFF0DFA08547E3EDA7EC17
:102AA000B707002003C7072E9D4749FFB70700203F
:102AB0002381A72E95B7B70700209387872E9843C9
:102AC000BD66938606A6050763E4E60098C3828088
:102AD00023A007008280EFD29FA103C7818001114C
:102AE00002C285476316F710B707002083A7872E19
:102AF000B70A00202C002393FA2EEF60610DE24705
:102B0000B7590020938A6A2E724B138409FD22491B
:102B1000034AC100639307109307200763140B0057
:102B200093074007135589001D891CA0EFF01F90E3
:102B300008B0135549003D89EFF05F8F28A0137549
:102B4000F900EFF0BF8E28B05285EFF03F8E48A01D
:102B50009544631F0B00130B810022898144050BF0
:102B60000909631A9A0893141A00950493F4F40F50
:102B7000B707002003C7272E85476313F70403DA3E
:102B80000A003309940091041355CA00EFF01F8A1C
:102B90002300A90013558A403D89EFF03F89A30027
:102BA000A90013554A403D89EFF05F882301A90031
:102BB0001375FA00EFF09F87A301A90093F4F40FB7
:102BC0002694B5471CA013861400B707002083A7DE
:102BD000872D54001376F60F8843938509FDEF7017
:102BE0006132924791C7B7E700E0116723A0E72061
:102BF00005616FD05F93834B4B00850493F4F40F12
:102C000013D54B00EFF09F82A301A90013F5FB0041
:102C1000EFF0DF812302A90099B793072005631421
:102C20000B00930740051355C90105891CA0EFF05F
:102C3000EFFF08B0135589013D89EFF02FFF28A061
:102C4000135549013D89EFF06FFE28B01355090176
:102C50003D89EFF0AFFD48A01355C9003D89EFF065
:102C6000EFFC48B0135589003D89EFF02FFC68A0B8
:102C7000135549003D89EFF06FFB68B01375F900FB
:102C8000EFF0CFFA08A45285EFF04FFA08B42949C3
:102C9000631E0B002400228B01498504090B63117C
:102CA0002A0713095A0006091379F90FB7070020FC
:102CB00003C7272E8547631FF70203DA0A00B30410
:102CC000240111091355CA00EFF04FF688A01355DF
:102CD0008A403D89EFF08FF588B013554A403D8911
:102CE000EFF0CFF4A8A01375FA00EFF02FF4A8B01E
:102CF0001379F90F4A94B5471CA013061900F1B5D2
:102D000083CB440005091379F90F13D54B00EFF07D
:102D1000EFF12304AB0013F5FB00EFF02FF1A30458
:102D2000AB00A5BF5049635EB000939735000C42DD
:102D30005845BE9563E5E5000C499385C5022E858F
:102D4000828071779307171863C7F5009397350052
:102D50004C45BE95EDB7930607186396D5000C4910
:102D600093854502E9BF1C421306600603C847006D
:102D7000E314C8FC9C438D8EF023E34FD6FAB305D1
:102D8000B740938515188E05E9B7939735006356BC
:102D9000B000584908433E9582804845EDBFD82190
:102DA0005C459376F70089EA238207001387870042
:102DB00058C5C8233D8982809441D8A394C3FDB7E8
:102DC000EFD26FF5411132C636C4A93FA246084181
:102DD000324691C288C2635CC0005C45DC4763C870
:102DE000C7000D060A06329541016FD00FF5138515
:102DF000C182DDBFEFD22FF2AE84B2852A84EFD03C
:102E0000504CD420930750042A8901476399F60255
:102E1000AA858840EF00E12354212A8793F7F60022
:102E200099CF5C441841A10723ACE7FE238ED7FE5F
:102E30005CC45C4403C5C7FF3D896FD00FF05444A8
:102E4000A685228523A0260183474900368693E77D
:102E50000704DCA2938786005CC4EF202150D1BF19
:102E6000EFD26FEBAE84B2852A84EFD09045D420A8
:102E7000930750042A8901476398F604AA8588407D
:102E8000EF00211D5C212A87BD8B9DCF5C4483A66A
:102E900087FF14C183C6C7FF54A103C7C7FF1377B9
:102EA000070411CF8C40D8311377070209CB83A7D1
:102EB00087FFDC33E18B81C72285EF80E0585C44DB
:102EC000E1175CC46FD06FE75044A68522852320AC
:102ED000260183474900930686FF93E707045CA217
:102EE000930786005CC4EF20A1525C44C117D1BF98
:102EF000EFD26FE241112A8432C63689253504416A
:102F000054443246A685E1162285EF008165FC20F7
:102F100093F707FCFCA058448347C7FF93F70704C7
:102F200091CFDC3093F7070291CB832787FFDC3307
:102F3000E18B89C7A6852285EF80005154440E0994
:102F4000B386264154C441016FD02FDFEFD2AFDCEE
:102F5000D0418C41EF60F0356FD02FDE41116364BA
:102F6000B50041018280944118415C2114C1D421F3
:102F70002105E115230ED5FE98C5DCA5CDB7582156
:102F800089473D8B6300F7029D468147631AD7004E
:102F90001C414145FA2301C70D0713153700AA97B5
:102FA0003E8582801C41EDBF582199471377F70376
:102FB000630AF7021308600281476313070318418D
:102FC0001385F5FF03486700637C050185058E05C1
:102FD000BA950CC237A60200930746CF91C298C299
:102FE0003E85828018411385F5FF81470328C7007D
:102FF0008328C800E37615FF938735008A073E973C
:103000001C43984718C291C29CC28327C8038E05EF
:10301000BE9583A785FF99C3C107D9B7B7770200CB
:10302000938747C075BFEFD20FCF5C45184DAA8478
:103030002E841D8F0D870329450163CDE502544D74
:103040001167130787A9958F8D870D8F9507635596
:10305000F70001456FD06FCE0146EF60402F75D964
:10306000DC440E043E9483274900E3F587FE2322C7
:103070008900CDB70545EDB7630BB50058459317EB
:103080003600B307F7405CC501476343C700828041
:10309000544513183700DC45C29603A80600A10763
:1030A000050723AC07FFD422238ED7FEDCC5F1BF72
:1030B0001C4903A5C70823A6B7088280B77702007A
:1030C00003A547C1828091679387F7E73387F500AF
:1030D00063E8E70058495C451843998F8D87BE9592
:1030E0002E8582805C4948459C43A1071D8D0D8536
:1030F0008280EFD24FC2138715002A84BA8763C239
:1031000005025C490E079C43BA975845998F8D87F5
:103110003E8754446348E0023E8763D3070001477B
:10312000998F444413973700BA9491CB5C5063E86D
:10313000970081467D56A6852285EF70800F44C496
:103140006FD0AFBF1386860050C4238206007D1760
:10315000C9B7EFD24FBC2A84AE84EFF01FC38146BB
:103160007D56AA852285EF70C00CA6852285EFF0DA
:10317000DFC1230205006FD04FBCEFD2CFB9444569
:103180003284EFF09FC0E1142A89634104020E04E7
:1031900033848440A2854A85D133A68513058400F3
:1031A000753BA6854A855D3B6FD02FB905046156F6
:1031B0003304C4022A94F9BFEFD2EFB53289AA844E
:1031C000EFF05FB62A84CA852685EFF0BFB51C40B4
:1031D0001CC15C205CA1F177938707186354F90246
:1031E0005C2093F7070499CFDC489C438C43DC3187
:1031F00093F7070281CB10405C32E18B81C72685B3
:10320000EF8000206FD06FB3EFD2EFB04045AA84BB
:10321000EFF05FB11C412104232CF4FE5C21230E4E
:10322000F4FEC0C46FD06FB1EFD2EFAE2A84EFF0DE
:103230007FAFAA8748213D8911E908481305C502D7
:103240003385A740133515003305A0406FD0EFAE8E
:103250008505B79702009387476D8A05BE9588411B
:103260008280EFD24FABEFF0FFAB4821D947630824
:10327000F5001305A5F9133515006FD00FAC054502
:10328000EDBFEFD24FA9EFF0FFA948217515133517
:1032900015006FD08FAAEFD20FA84111EFF09FA8B1
:1032A0005821CD476308F7006C00EF10116541010C
:1032B0006FD0AFA80545E5BFEFD2EFA5EFF09FA611
:1032C00048213D897515133525006FD00FA7EFD222
:1032D0008FA44111AA8432C6EFF0DFA432462A84BB
:1032E0002685B285EFF01FA45C202A86BD8B99E766
:1032F0009C4801459387C702630FF4005C22BD8B95
:1033000099E79C4801459387C7026306F600A285AA
:103310000145EF20012741016FD02FA2EFD2AF9FCF
:10332000138745FF85472A8463EDE7005C4503A7C3
:1033300087FFA10723ACE7FE03C747FF238EE7FE05
:103340005CC554442285138706FF3A86E116EFA038
:10335000102A5C44E1175CC46FD02F9EEFD2AF9B64
:10336000411136C42A8432C6EFF0DF9B3246AA846C
:103370002285B285EFF01F9BDC202A86A246BD8BFA
:1033800099E71C4801459387C7026387F4025C22D2
:10339000BD8B99E71C4801459387C702630EF60071
:1033A0008547638EF60089476380F602014589E60A
:1033B000A6852285EF20E11C41016FD00F98A685DC
:1033C0002285EF208116CDBFA6852285EF20A1188A
:1033D000E5B7EFD24F942A842E854C44EFA0B02558
:1033E00001C55C44A1075CC46FD02F95EFD2AF92AA
:1033F00041119307000032843EC6EFF0BF92542182
:103400004D47639BE6001C4105453EC611C008C000
:10341000324541016FD06F926C00EF10114EFDB735
:10342000EFD26F8F4111328402C6EFF0BF8F54216B
:103430000D47639BE6001C4105453EC611C008C010
:10344000324541016FD06F8F01466C00EF10116E55
:10345000F5B7EFD24F8CEFF0FF8C4821854763071B
:10346000F5003D893335A0006FD02F8D0145EDBFAC
:10347000EFD26F8AAA842E893284EFF0BF8A5C2152
:103480001147BD8B638AE7020D476388E70001455A
:1034900019C0232004006FD04F8AAA852685EFA08B
:1034A00070369C48DC476355F0002685EF80201D70
:1034B000CA852685EFF01F8701C81C411147D42318
:1034C0006397E600FC331CC008414105E9B7DC47BF
:1034D000DDBFEFD24F84EFF0FF845C21154793F7F7
:1034E000F7036389E7026368F7001147638EE7001B
:1034F00001456FD08F841D47638BE7005147E399E7
:10350000E7FE1C41C847F5B71C41E833DDB71C4155
:103510008847C5B70841EF006107E1BFEFC2BFFFB1
:10352000EFF05F80EFF0BFA56FD02F81EFC2BFFE3D
:10353000EFF04FFF5821930780046315F70008410F
:103540006FC0BFFF0145EDBFEFC2FFFCEFF08FFD85
:103550005C219D4613F7F7036308D700D946630F34
:10356000D70089466318D700EFF07FA1AA873E8570
:103570006FC0BFFC13F70704814775DB1C41C5BF53
:103580005C4523820700A1075CC582805C454D47EE
:103590008CC3D8A3A1075CC582805C450D478CC352
:1035A000D8A3A1075CC58280EFC2FFF6AA8405EE0E
:1035B000B7A50200938545CFEFD0A050DC442A8404
:1035C00088C35821A10713670704238EE7FEDCC4D4
:1035D0009C48DC476355F0002685EF80400A1305C0
:1035E00004016FC09FF5EFD0C049C9BFEFC2BFF261
:1035F000AA8495E15C452E8423820700DC44A10760
:10360000DCC49C48DC476355F0002685EF8020072A
:1036100022856FC09FF2EFD0C04AD8441304050141
:1036200008C35C2193E707045CA3C9BFEFC2BFEEE8
:103630002A84EFA0F01F1C48AA84DC476355F000E1
:103640002285EF80C00326856FC03FEF397132D4E9
:10365000301022CC26CA2A843EDA06CE36D63AD894
:1036600042DC46DE32C6EFA0B01C1C48AA84DC4710
:103670006355F0002285EF808000F2406244268589
:10368000D24421618280EFC21FE941112A84AE84B5
:1036900011EA5C4559478CC3D8A3A1075CC5410119
:1036A0006FC0BFE9B28532C6EF60501B3246584446
:1036B00044C593173600B306F74054C4AA97FD5586
:1036C0007D166117E1176310B60293076006DCA24E
:1036D0001C4888C2A106DC4754C4E352F0FC228592
:1036E000EF70F0796DBF0328070023A80701034896
:1036F0004700238A0701E9B75C45454791E1054743
:10370000D8A3A1075CC582805C4509478CC3D8A3B8
:10371000A1075CC582805C451307800488C3D8A3D9
:10372000A1075CC51C4983A707093385A74013354A
:1037300015008280EFC23FDE2A84EFF0AFDE542115
:1037400093075004AA8401476398F6024C44084149
:10375000E115EFF0B01254212A8793F7F60089CFD4
:103760005C441841238ED7FE23ACE7FE5C4403C5BE
:10377000C7FF3D896FC07FDC5444A6852285E116D2
:103780003686EF10B13DDDB7EFC2FFD841112A8474
:1037900032C6EFF02FD93246AA852285EFF08FE5A9
:1037A00041016FC09FD9EFC21FD741112A84B28453
:1037B000EFF04FD75821930750042A896314F70478
:1037C00008419387F4FF184563F9E7021397340023
:1037D000930787FF58453E97542393F7F60085C714
:1037E0005C441843D4A398C35C44C8231387870060
:1037F00058C43D8941016FC05FD4A685EFF0407B7E
:103800002A87D9BF014754448D473000CA85228595
:1038100026C45C86EF109134C1BFEFC2DFCF2A848B
:10382000EFF04FD04C440841E115EFF030055C4417
:10383000AA852285E1175CC4EFF06FD66FC0FFCF79
:10384000EFC27FCD41112A8432C6EFF0AFCD3246B0
:103850000841B285EFF0C075AA852285EFF02FD41C
:1038600041016FC09FCDEFC21FCB41112A842EC6EC
:1038700032C4EFF0E06D5C4413075004B24588C3D6
:10388000D8A3A1075CC4A2466344B0006357D0002C
:103890002E86AA852285EFF0B0081C48DC476355C8
:1038A000F0002285EF70B05D41016FC01FC9EFC20B
:1038B0009FC62A84EFF00FC75C211547BD8B638B31
:1038C000E7001D476386E70218489387C7038A0706
:1038D000BA9705A01C41984F014509CB5C440545AA
:1038E00098C313075004D8A3A1075CC46FC0FFC4DA
:1038F0001C41D847D5B7EFC21FC241112A8432C636
:10390000EFF04FC232465C446356C0001841762344
:1039100063DAC600238207007D55A1075CC441011C
:103920006FC0BFC105060E063A96184698C34826D2
:10393000C8A33D89DDB7EFC21FBE1C492E86DC53EC
:10394000DC4793858700EFF0AFD16FC01FBFEFC298
:103950009FBC41112A8432C6EFF0CFBC3246AA8503
:103960002285EFF0EFCF41016FC03FBDEFC2BFBA7C
:1039700041112A843289EFF0EFBA5821930750049D
:10398000AA846315F70608419307F9FF184563FAFF
:10399000E70413173900930787FF58453E975C23C8
:1039A000BD8BB1C75C4483A687FF14C383C6C7FF22
:1039B00054A303C7C7FF1377070411CF8C40D83136
:1039C0001377070209CB83A787FFDC33E18B81C71D
:1039D0002285EF7070275C44E1175CC441016FC021
:1039E000DFB5CA85EFF0C05C2A8755BF0147544454
:1039F0008D473000E116A68522854AC45C86EF100B
:103A00003121D1BFEFC23FB1504589464116EFF099
:103A10002FCE6FC09FB2EFC21FB041112A8432C6B1
:103A2000EFF04FB0044154443246A685E11622859A
:103A3000EFF0C06A58448347C7FF93F7070491CF5C
:103A4000DC3093F7070291CB832787FFDC33E18BD0
:103A500089C7A6852285EF70301F5C44E1175CC4DE
:103A600041016FC09FADEFC21FABAA84EFF08FABD7
:103A7000D8442A8901448347C7FFBD8B99C30324D7
:103A800087FF834749001547BD8B638CE7001D47BF
:103A90006386E70498489387C7038A07BA97C0C725
:103AA00005A88327090080CF05C483250900DC31E0
:103AB00093F7070281CB5C30E18B89C7228626858C
:103AC000EF7010148325090022862685EF7090215F
:103AD000DC440545E117DCC46FC03FA6832709001D
:103AE000C0C7D9B7EFC23FA3411132C62A84EFF055
:103AF0006FA31C4132468144FA239306F6FF63FC10
:103B0000E60254440E06B29703A786FF854498CB7D
:103B100003C7C6FFD8AB1377070411CF0C41DC31C4
:103B200093F7070289CB83A786FFDC33E18B81C73C
:103B30002285EF7070115C442685E1175CC4410159
:103B40006FC0BF9FEFC23F9D8505E157B387F50268
:103B50004C452A84B284BE9515C703280506C17753
:103B6000B3F7070185E35C4998CB94CFEF5090738E
:103B700063D804005C485844D44363F3E600D8C3D8
:103B80006FC0BF9B26862285EF50B072D5B7EFC2BB
:103B9000FF9601112A84AE8932893688444D91CA34
:103BA000B6853EC63AC4EFF04F9EB247224733086F
:103BB000954093851900E159B38535035044B2957A
:103BC0002ECCB386954089C728504176698E15C69C
:103BD000B7350000428730089385C5F422854ACE68
:103BE000EF60E006635809005C485844D44363F32F
:103BF000E600D8C305616FC0BF93444822854A865A
:103C00009CC87C4C98CCD4CCDCC8BE307830232EF9
:103C10000405F99BD98F93E70701BEB0EF50906878
:103C2000BE300145BD9BBEB0DC487CCC65BFEFC259
:103C30009F8E79712A84B68489E6B77402009384D2
:103C400004C1B28622852E866C083AC6EF40B13E8A
:103C5000324726866C08BA862285EF602004AA8443
:103C600015ED5C4403A787FF7C238DCB1C480C4BD0
:103C7000DC539845DC47944714C3D42754A3D82772
:103C80001377070401CFD8311377070201CB904790
:103C90005C32E18B81C72285EF7080762685456195
:103CA0006FC0BF895C451307600403C8C7FF631E6C
:103CB000E800EFC25F8683A787FF3687B2862E862D
:103CC000CC47EF60E02F6FC05F8705458280682199
:103CD00082805D7132DC36DEBAC0BEC2C2C4C6C6E6
:103CE00026D2044906D622D44AD04ECE83C7E40356
:103CF000898B639C07163C183EC6AD472E8463E44F
:103D0000B7163777020093972500130747BDBA9778
:103D10009C432A8982878547238FF4022285B250EB
:103D2000225492540259F24961618280814526856C
:103D3000EFC0C05C238F04020144CDB78145EF7012
:103D4000F033DDBF8044C8442A942980C1BF804439
:103D5000C8442A941374F43FD1B7B24703C4E403B0
:103D600083A90700138747003AC6238F0402639193
:103D7000090281452685EFC060584A85EF703010F2
:103D8000238F840203C4940361141334140079B79D
:103D9000DC44AA092685BE99CE85EFC0205683272C
:103DA0000901DC476355F0004A85EF70500D238F01
:103DB00084020144E34830FD95B7B247114703C47C
:103DC00004049C430A04B3C7E7022380F404B9B790
:103DD000B247114703C414049C430A04B3C7E70263
:103DE000A380F40425BF03C4E40345B7B24703C668
:103DF000A4039386870036C685469843DC43630553
:103E0000D600D44891E22D4419C3238EE40291C711
:103E10001147B3C7E702A38EF40285454A85EF70C8
:103E2000C07DEDBDB24683C5A4031386C60032C66D
:103E300005469842DC4294466385C502D04815E2A7
:103E400011C711463347C7022380E40491C71147C5
:103E5000B3C7E702A380F40499C22381D404814547
:103E600075BF2944F1BF7D5455BD7D554DBDEFC291
:103E70008FEA584593064004AA870346C7FF631C90
:103E8000D6001049832687FF032746096395E6007D
:103E90009145EF50202A3E85EF40F06DEFC2AFE72D
:103EA0002A84EFE03FE850440C4122856116EFE0A0
:103EB000707E58449307870019E1930787FF5CC41D
:103EC0006FC0AFE7EFC22FE52A84EFE01FEC5C483C
:103ED000AA85228583940702EF60C027FD5763C639
:103EE000F4005848F557858F1EB36FC00FE5EFC239
:103EF0008FE22A84635DB000EF10817A1C48DC47B2
:103F00006355F0002285EF7080776FC00FE3444562
:103F1000B7A502000146938545CFEFC0903688C013
:103F20005C2193E70704DCA05C44A1075CC4F9B7FB
:103F3000EFC26FDE2A84EFE0FFDE4C442A86228542
:103F4000EF10B10C5C44A1075CC46FC00FDF81C5EA
:103F50001C49DC439CC11C49884382801C4923A620
:103F6000C72C23A4B72C8280EFC2EFDAEFC0A07B6E
:103F70006FC0AFDCEFC22FDA2A84EFC0103A5C4486
:103F800013077004AA8488C3D8A3A1075CC41C4883
:103F9000DC476355F0002285EF70606EFE204145DE
:103FA00081C78D071395370026956FC00FD9EFC2D3
:103FB0008FD64111B2842A8402C6EFE0BFD6814673
:103FC0007000A685EFE05FFE19C932475C441443D8
:103FD000A10723ACD7FE5823238EE7FE5CC4410122
:103FE0006FC0AFD5EFC22FD34111B2842A8402C46F
:103FF00002C6EFE03FD3A68574003000EFE0DFFAA1
:10400000AA8415C95C44138787FF58C403A687FF99
:10401000224710C383C7C7FF5CA393F7070481CF70
:10402000B245DC3193F7070299C75C32E18B81C757
:104030002285EF70E03C268541016FC00FD0EFC2B2
:104040008FCD411132C62A84AE84EFE0BFCD5C2112
:104050009946324693F7F703638AD70093066002C6
:10406000638DD700014541016FC02FCD8146A685E4
:104070002285EFE0FFD40841FDB72A870145E354CC
:10408000C0FE1C43F823E340C7FE050613153600A7
:104090003E95D1BFEFC22FC80111368974082A841A
:1040A0003AC6EFE0FFD13247AA84CA853A868146F4
:1040B0002285EFE0FFD01041F24590C0DC3193F74C
:1040C000070299C75C32E18B81C72285EF704033CC
:1040D00005616FC08FC6DC41014589C788411CC29C
:1040E00023A20500828019E201458280EFC20FC140
:1040F0002E89FD552A84B284EFF00F939547631CF7
:10410000F5002285EFF0CFC79149FD14F9552285BE
:10411000EFF0DFD801E501456FC08FC1F955228569
:10412000EFF08F90631835057D56CA852285EFF034
:104130000F9A19C5F9552285EFE0BFFB0545E9BF88
:104140002686CA852285453715C5B7750200938531
:1041500085C42285EFF08FC975562285FD55EFF095
:10416000AF852285F955EFE0DFF88D452285EFF028
:104170001FD8E9B7F9552285EFE0BFF741BFEFC27D
:10418000EFB741112A842EC6EFE0DFF53246B7754E
:104190000200AA899385C5D72285EF40300E377675
:1041A0000200F1751306C6F7938505182285EFF016
:1041B000AFDD138919000946CA852285EFF0BFF2E9
:1041C00039C90146FD552285EFF08FAAB775020067
:1041D0000D46938545F8AA84EFE0D11119ED93853A
:1041E00034002285EFF08FC0F95522857D56EFE02F
:1041F000DFF8F9552285EFE0DFEF4A86FD5522858D
:10420000EFE09FFBCA852285EFE0BFEE854426855F
:1042100041016FC0EFB1AA84CE852285EFE07FED2A
:10422000FDB7EFC24FAF41112A84B2842E89EFC08F
:1042300091030841EFE0F1092AC6A68501462285CF
:10424000EFF00FA33247B7750200930615004A86B8
:10425000938545C32285EFF06FBF7D56A6852285E5
:10426000EFE0BFF12285F955EFE0BFE819454101C4
:104270006FC0AFACEFC28FA841112E846C003289A1
:10428000AA89EFF0DFCCAA84A2854E85EFF00FA9B2
:1042900050410C412A843245CA868294AA8409ED91
:1042A000630C0900B7750200938585F84E85EFF021
:1042B000EFB34E85EFF0BFBB04C023222401268557
:1042C00041016FC0EFA6EFC20FA501468545EFF093
:1042D0007FFA01456FC06FA6EFC2EFA39C412E8409
:1042E000B2846359F0001CC223A0050013058400AA
:1042F0006FC0AFA4D4410145DE2693F70702EDFB62
:1043000013060040854513058400EFC0717688C010
:10431000F1BFEFC24FA0014405EE038705009307EC
:10432000000432846316F70213841500B775020087
:10433000AA84938505C32285EFC0AFB209EDB745C6
:10434000000026869385A5372685EFF03FC10544FA
:1043500022856FC08F9EB785020022859385855880
:10436000EFC02FB005446DF5B74500002686938554
:10437000A54D2685EFF09FBEE1BFEFC2CF99EFF0CC
:104380005FF96FC08F9BEFC20F990146FD55EFF0AB
:104390002F8E2A8609E5377602001306C6F083A71A
:1043A0000182B77502009385C5F2C847EFC0314A54
:1043B00083A70182C847EFC0F11001456FC0EF9796
:1043C000EFC26F954111AE8489EA2E85EF00C103DB
:1043D0000144228541016FC04F96368532C636C4EE
:1043E000EFF0D0712A8475D5EDD4A24632466373BE
:1043F000D600B2863686A6852285EFD0815B2685DB
:10440000EF008100F9B7EFC26F8FB77402002A8402
:104410002E89232005009384C4F9FD594840EFD02C
:10442000C12D63053503850483C7F4FF6310F502CE
:104430001C401387170018C0A29788A78387040021
:10444000F1FF484023200400EFD0212B2320A900B6
:104450001307300281476311E502FD59A944484022
:10446000EFD0A12963043501E31B95FE4840EFD04E
:10447000C1282320A90085473E856FC06F8BEFC2FE
:104480008F8983A70182AA842E85CC47411132C629
:10449000EFC0914F83A70182C847EFC0B1023246F7
:1044A00001CEB745000026869385E5473285EFF0BB
:1044B000FFAA41016FC06F8883A701822945CC47BD
:1044C000EFC0B14083A70182C847EFC0A17FB745C5
:1044D000000026869385A54DD1BFEFC22F82AA8406
:1044E0002E89B289EFF0FFE205E583A701823775D7
:1044F0000200130505FBCC47EFC0114983A70182D9
:10450000C847EFC0217C4E86CA852685EFF03FF76D
:104510006FC00F82EFC22F80597150002A84EF4084
:1045200060401DC5B77502005000938505F02285D7
:10453000EF40C054F246635DD000B775020010181A
:10454000938545F02285EFF06F9065616FB0FFFEB7
:10455000B7A50200938545CF2285EFF02F8FF5B7E1
:10456000397126CA3EDAAE843C10854506CE22CC8F
:1045700036D62A843AD842DC46DE3EC632D4EFF044
:104580007FF93246A6852285EFF04F8A228589453C
:10459000EFF0FF952285EFF09F8DF2406244D24408
:1045A00021618280EFB23FF75971AE843289814533
:1045B00050002A84EF40003709EDB7750200CA8623
:1045C00026869385C5C42285EFF09FF965616FB09B
:1045D000DFF6B79502005000938545542285EF40E1
:1045E000E0493245B7850200938545C3EFC06F8728
:1045F000224609E9FD1499E4B7750200CA8693853D
:1046000045C6D1B701EE4C002285EFF05FB715C16A
:104610000146FD552285EFE0BFE52AC4A246B775E5
:1046200002004A872686938545C82285EFF05FF30E
:1046300071BF37750200130505C1C5B7EFB2BFEDF5
:104640007179AE842E86930509182A84EFF0CF93F2
:1046500039E1F9552285EFE0DFA909468145228538
:10466000EFF06FA0A6852285EFE05FF837760200B5
:10467000130686DCF9552285EFF06FADFD552285D6
:10468000EFE09FB82285268693050918EFF02FAC3E
:1046900005456FB09FEA0145EDBFEFB2DFE741117D
:1046A00032C62A84EFE03F98324609E919CAB77545
:1046B0000200938505CF2285EFF09FEA41016FB09C
:1046C000DFE7B7750200938545D02285EFF05FE9FB
:1046D000F5B7EFB25FE42A84AE84EFE0FFB4FD5794
:1046E000631AF50037760200130646CAA6852285AE
:1046F000EFF05FEB6FB07FE4EFB2FFE144451045B0
:104700000C412A842685EFE03FEA18409307040114
:104710006306F700F9552685EFE0BFA37D56268591
:10472000F955EFE09FA5F9552685EFE09F9C6FB006
:10473000DFE0EFB25FDE1C45BE950CC5EFF0DFFB9E
:104740006FB0BFDFEFB23FDD1387050198C11307DC
:104750000010C8C523A40500D8C1EFE0FFFA6FB070
:10476000DFDDEFB2BFD9130101BF2A84AE84B28965
:10477000EFE05F9713091500A5E0B7750200938578
:1047800005DA2285EFE09FE683A70182DC433EC67F
:104790004C002800EFF03FC719C9A2471387170044
:1047A0003AC413070141BA9729472380E7C012474B
:1047B000ED476316F706A5C43246B7750200938528
:1047C00045DB2685EFC0B1432AC631E5B775020047
:1047D0004A86938585DB3DA0B775020026869385C2
:1047E00085DA2285EFE09FE6B78502009385458E46
:1047F0002685EFC0F1042AC641FDB77502004A863E
:104800009385C5DA2285EFF0DFA1AA894E851301D1
:1048100001416FB0FFD14C002800EFF0DFBE12471E
:10482000FD57630BF700A2479386170036C4930623
:104830000141B6972380E7C00146FD552285EFE090
:104840003FC3B74500004E87AA8630009385852D6B
:104850002285EFF0CFBDAA893245035AC500137AED
:104860000A0499C0EFC0C12B630C0A00CA852285D7
:10487000EFE03F88B77502004A86938505DC59B79B
:10488000CA8522857D56EFE05F8FF9552285EFE0DE
:104890005F86ADBFEFB23FC841112EC4B7450000DF
:1048A00032C69385650D3000EFF06FB841016FB0EF
:1048B000DFC8EFB25FC6411132C62A84EFE03FFF86
:1048C000AA8432460DC5B2852285EFE03FD2F95564
:1048D0002285EFE09FF4AA84F55519C5F9557D5658
:1048E0002285EFE09F89F9552285EFE09F8026859C
:1048F00041016FB09FC4EFB21FC232893776020008
:10490000130686DC2A84AE84EFF0BFFA9147631762
:10491000F5020146FD552285EFE09FB5B77502000F
:10492000AA864A869385C5EE2285EFE03FD22A8685
:10493000A6852285EFF01FC76FB03FC0A6852285F0
:10494000EFE09F8E8947630BF500A6852285EFE097
:10495000BF8DAA852285EFE0BF8FC9B737750200EA
:104960001305C5ED65BFEFB21FBBAE84B2852A84C7
:10497000EFE01F8E2A86A6852285EFF0DFF76FB065
:10498000DFBBEFB25FB9411132C62A84AE84EFE0DB
:10499000BF8932466306C500A6852285EFF0BFFCBD
:1049A00041016FB09FB9EFB21FB7AA842E89EFE023
:1049B0003FAC2A8411E51146CA852685EFF0BFFA7F
:1049C00022856FB09FB7EFB27FB32A89AE89328458
:1049D000B684EFE07F85634CA00099C4014501C413
:1049E0002285EFE0011088C022856FB07FB4268653
:1049F000CE854A85EFF03FFB2A84FDB7EFB21FB0AA
:104A00004111AA842E89B68905CE8146EFF0BFFBFD
:104A10002A86014493172400CE9788430DE5B77585
:104A200002009385C5CD2685EFE05FC22A86CA8540
:104A30002685EFF03FB72A84228541016FB05FAF32
:104A4000EFF07FF6F1B7B28532C6EFB09FC16DD5FA
:104A500005043246C1B7EFB21FAC41117000AA8401
:104A60002E89EFE0BF98B2472A8491E70D46CA85A8
:104A70002685EFF05FEF228541016FB01FACEFB2EA
:104A80009FA9411132C62A84AE84EFE0EFF9324685
:104A90006357A000A6852285EFF0FFFB2A863285AA
:104AA00041016FB09FA9EFB21FA7411170002A8486
:104AB000AE84EFE0FF96B2472A8991EFA685228562
:104AC000EFE06FFD09CD37760200130646CBA685D1
:104AD0002285EFF03FAD4A8541016FB01FA60D461C
:104AE000A6852285EFF03FE8FDB7EFB2DFA24111C6
:104AF00032C62A84AE84EFE02FF332466357A0001B
:104B0000A6852285EFF03FFA2A86328541016FB0F3
:104B1000DFA2EFB25FA041112A8432C6EFE0AFDA24
:104B20003246AA84AA852285EFF0BFD809CDA68592
:104B30002285EFE06FED22850147814605468545D8
:104B4000EFF04F80054541016FB03F9FEFB2BF9C32
:104B500041112A84EFF0CFBD7000FD552285EFE0B2
:104B60003F8CB247AA8481EBB7750200938505D8C4
:104B70002285EFF0FF9E2285F955EFE08FD726853D
:104B800041016FB09F9BEFB27F9741112A84B28998
:104B9000EFE06FD337760200AA84AA85130646DFBA
:104BA0002285EFF01FF70DC5FD552285EFE0CFF010
:104BB00001E9B7750200938505E02285EFF05F9A61
:104BC0004E86FD552285EFE0BF8A41016FB05F96AA
:104BD000A6852285EFE04FE58547630EF50A63CF92
:104BE000A704630C050C37760200130686DCA68545
:104BF0002285EFF01FCC91472A896315F50C0146F9
:104C0000FD552285EFE0DF862AC6A6852285EFE0E6
:104C1000BF933246B7750200AA86938505E32285C5
:104C2000EFE0DFA2E30E09F822857D56F955EFE0AB
:104C3000CFD4F9552285EFE0CFCB59B78D47630A22
:104C4000F5009147E311F5FAA6852285EFE0CFDB69
:104C500085BFA6852285EFE0CFE20146A68509CD76
:104C60002285EFE0EFFBB77502002A86938545E2C7
:104C70002285EFE0BF9DA9B72285EFE02FF7EFB0C7
:104C8000B132AE86B77502002A86938585E2228509
:104C9000EFE0DF9B35B7A6852285EFE08FFB09E9C2
:104CA000B77502009385C5DE2285EFE03F9409BF0A
:104CB000B7750200938545DEC5BFB77502009385C1
:104CC000C5E2DDB7A6852285EFE00FD6AA8522854D
:104CD000EFE00FD815BFEFB27F8232843776020043
:104CE000AE84130606DDA285F9592A89B30A8040ED
:104CF000EFF0BF9AB38989409C4081EB9345F4FF64
:104D00004A85EFE00FBF6FB0BF82DC40014A8DE300
:104D100081454A85EFE05F9E9040CE854A85EFE071
:104D20001FC3A104D1BFD6854A85EFE0EFCD050AA8
:104D3000E34B8AFECC4022864A85EFE0DF94E9BF50
:104D400058411C45B306F74063E5B60008413E955F
:104D50008280EFB2AFFA93C6F5FFB2892A840329A5
:104D6000C500060763FBF602B7750200938505F6DA
:104D70004A85EFF0EFFEAA8418409307040163040C
:104D8000F7022686CE854A85EFF0CFCEAA8708C0E7
:104D9000084444C03E956FB0AFF9B384B700E3FD5B
:104DA000E4FCBA84D1BF7D56CE854A85EFE0EFBCE6
:104DB000F9554A85EFE0EFB3A14501464A85EFF08A
:104DC0006F9BB77502002320050023220500938501
:104DD00045F74A85EFF09F8609C9B775020001467D
:104DE000938585C14A85EFF01FEFF9554A85EFE0BD
:104DF0009FC70546CE854A85EFE02FB8CE854A8508
:104E0000EFF04F8C2686CE854A85EFF0AFC6104472
:104E10000C40EFC0113A9DBFEFB2EFEF7D56EFF0BF
:104E20003FF26FB08FF11DC2EFB2EFEE32842E89E8
:104E30007D56A285AA84EFF0BFF02286CA85EFC016
:104E400051379044329480C46FB02FEF8280EFB21C
:104E50008FEC41112A842E852EC6EFD09148B245A1
:104E60002A862285EFF03FFC41016FB00FEDEFB2D3
:104E70008FEA444541112A847000FD552685EFE0F4
:104E80002FDFB2452A8979562285EFF07FEB324633
:104E9000CA85EFC011321C443247F9552685BA97AE
:104EA0001CC4EFE00FA541016FB02FE9EFB2AFE3F3
:104EB00009712A842E89328BB6898544854A9018D7
:104EC000A6854A85EF30102651E563C89A08FD147F
:104ED00033873441D547A94A63C3E700FD5A8C188C
:104EE0002285EFF03F8663060B02DA858818EFF023
:104EF0001FF66657D6576366F70085458818EFF0AA
:104F0000BFF1665793071700BEDCC657BA9729470B
:104F100098A3B7750200938585E38818EFF03FF3F7
:104F2000377B0200B77B0200377C0200B77C0200AF
:104F3000377D0200B77D02005000CE854A85138A76
:104F40001900EF30301E0DE98818EFF0EFFA196103
:104F50006FB02FDDA68A86049DB7338A9A00135A54
:104F60001A409018D2854A85EF30D01B01C5930AAC
:104F70001A00268AD28491BF9389FAFF63950A02A8
:104F8000B3894441D919B77502004E869385C5E4AB
:104F90002285EFE0AFEB88184E9AEFF05FEDFD59F8
:104FA000CE8AD28951BFB77702005000938587E639
:104FB0004A85EF30B02CF24610186343D006B7751F
:104FC0000200938505E72285EFE04FE88818EFF0AF
:104FD0001FEA4C002285EFF08F9A29C90146FD5542
:104FE0002285EFE0EFC82A869305CDE82285EFE021
:104FF000EFE5F95522857D56EFE02F98F95522858A
:10500000EFE02F8F8818EFF09FE68307B102C9DB2E
:10501000B7770200938547EC8818EFF05FE349B754
:105020009385CDE72285EFE06FE24DB732468307E7
:10503000060081CBA2469385CCE92285EFE00FE103
:10504000D1B7C2471307D00693054CEA8387070000
:10505000638DE700130730046387E700825610185A
:1050600093850BEBD9BF93050BC12285EFE00FD8D9
:1050700051BFEFB24FCA2E84B284EFF0AFEC7D5631
:10508000A6852285EFF0DFCB6FB02FCBEFB2AFC894
:105090002A84AE843289EFE02FEF9547630CF50246
:1050A000F9552285EFE0EF84A6852285EFE0AF81F8
:1050B0000146AA8481452285EFE0EFFAFD5522855D
:1050C000EFE08F9422854A86A685EFE05F88014550
:1050D0006FB0AFC60545EDBFEFB24FC2AE84B28927
:1050E000F175377602001306C6F7938505182A84F2
:1050F0003689EFF0BFF9FD5526862285EFE0CFE82F
:10510000FD552285EFE0EFB415EDF9552285EFD07E
:105110005FFE0146CE852285EFE0EFD6A68522858B
:10512000EFE0CFCC05460147814685452285EFE07B
:105130007FA1FD552285EFE02F8D2686F55522852E
:10514000EFE0FF80F95522857D56EFE00F83F9559A
:105150002285EFD01FFA630A0900FD552285EFE092
:10516000AF8AA6852285EFE00FFD6FB06FBCEFB26E
:10517000EFB8AA8432852E84B289B68AEFD0711630
:105180002A8ACE852285EFD0D11D2A8919E5A285EC
:105190002685EFF0DFCB6FB0AFB933068940A2852B
:1051A0002685EFF05FC8D6852685EFF05FCA330409
:1051B0004901C1BFEFB22FB62D71AE840C082A840D
:1051C00032C636C4EFF00FD8A2463246A68508088C
:1051D000EFF0FFF90808EFF02FD20146FD552285C8
:1051E000EFE00FA915616FB04FB5EFB2CFB2374501
:1051F000000081451305053CEFB0001F2A8419CD3E
:10520000B745000093856538EFD09FEAB7450000A9
:1052100022869385A5372285EFE05FD422856FB083
:10522000CFB1EFB24FAF411132C42A84AE84EFD078
:10523000FFE8224693074004630CF600B7750200AE
:10524000938545D12285EFF0AFB141016FB0EFAE4C
:10525000A6852A89EFA091346DD94A85EFB0C15453
:105260002AC426852EC6EFB021542247B247AE8607
:10527000B77502002A86938585D42285EFF04FAE5C
:10528000E9B70D458280EFB20FA9EFD0BFE57D15DC
:105290006FB0AFAAEFB22FA885452A84EFD0DFF810
:1052A000FD57AA84631AF50037760200130646CA32
:1052B00085452285EFF00FAFA6852285EFD05FF9F7
:1052C000AA852285EFE08FB205456FB00FA7EFB238
:1052D0008FA485452A84EFF0CFBF014685452285FE
:1052E000EFF07F8A05456FB04FA5EFB2CFA2AA8439
:1052F000EFD05FDF2A8485452685EFD0FFF2914706
:105300006315F502014685452685EFE06F96030794
:10531000050093073002631AF70026859305F4FF12
:10532000EFE0AFA705456FB04FA185452685EFF0AB
:105330008FF73309A4006346050022896353850073
:105340002A89634A2001377602001306C61585456F
:105350002685EFF02FA533052441F1B7EFB22F9941
:1053600041118945AA84EFD03FEC6347A0048545ED
:105370002685EFD07FEB8D47631AF500854526859E
:10538000EFD03FD7054541016FB0EF9985457000DB
:105390002685EFE0EF8DAA8501C92685EFE06F83B2
:1053A000B2478507E300F5FE85452685EFF06FB22D
:1053B0002685EFE0EF9CF9B789452685EFF0AFEE43
:1053C0002A8C114685452685EFF0AFDB70008545B8
:1053D0002685EFE0EF891307ECFF930720022A8A66
:1053E00063FAE700377602001306061B8945268517
:1053F000EFF04F9BB77A020093854A1C5285EFD09D
:1054000061743304AA00830704001307D002639772
:10541000E7020504854BEFC041401C208149894CBF
:105420003E951C319D8B95E381450145B2473E9ADF
:10543000E31045F92685EFE04F96A9B71307B002B0
:10544000814BE39AE7FC0504F9B7EFC0013D830700
:10545000040013F9F70F130B19005A9518219387BD
:1054600007FD118B09EFEFC0413B5A951821CA8700
:105470000D8B63149701930709FE938797FCE3D57F
:1054800087FBB3053C030504B389B700EFC0E138DF
:105490001C203E951C319D8BCDFB93854A1C22859B
:1054A000EFD0416A2295CE85E3820BF8B3053041F7
:1054B000B5BFEFB24F86154685452A84EFF06FCC15
:1054C00022858945EFF0EFA022858D45EFF06FA092
:1054D00022858D45EFD0FFC122858545EFE08FD233
:1054E00005456FB08F85EFB20F83154685452A8439
:1054F000EFF02FC922858945EFF0AF9D22858945C0
:10550000EFD03FBF85452285EFE02FB105456FB055
:10551000CF82EFB24F8085452A84EFD0FFD071153E
:10552000854763FAA700377602001306C61485453F
:105530002285EFF04FBC85452285EFD09FF9AA85E3
:105540002285EFE08F8505456FA03FFFEFA2BFFCEE
:1055500085452A84EFF0EF9722858945EFF06F9714
:10556000094685452285EFD09FD6AA852285EFE0A2
:10557000AF9805456FA07FFCEFA2FFF92A84EFD01A
:105580007FB62A89014685452285EFF0CFC189443F
:10559000635299028544014663C52403CA85228566
:1055A000EFD01FEDAA8501462285EFE0FF9B014564
:1055B0006FA0BFF8A68501462285EFF0CFBE850417
:1055C000C1BFA6852285EFD0BFEAAA850546228500
:1055D000EFE09F998504C1B7EFA25FF241112A89DC
:1055E000EFD05FB0AA890544054AB77A020063D6B6
:1055F000890283A7018237750200054694478545D5
:105600001305C5F5EFC0410E83A701828847EFB0AF
:10561000616B014541016FA0BFF17000A2854A8511
:10562000EFF06FD62A8B635B8A0083A70182054661
:105630008545944713858A14EFC0010B83A7018227
:105640003246854594475A850504EFC0E109F9556E
:105650004A85EFD01FAA61BFEFA2FFEB85452A84E0
:10566000EFF02F87B755000001462285938585739B
:10567000EFE06F8122858545EFD01FB922858145F6
:10568000EFD0BFF10D456FA05FEBEFA2DFE815464D
:1056900085452A84EFF0EFAE89452285EFD07FA5BE
:1056A00085452285EFE08FFF19E52285EFD05FED7C
:1056B00005456FA09FE80945EDBFEFA2DFE5B28485
:1056C000377602001306460B89452A84EFE0FFFC7B
:1056D00085452285EFD05FB381452285014781460C
:1056E0000546EFE02FC6FD552285EFD0FFB311E947
:1056F0002285F955EFD0FF9F014523A004006FA03C
:10570000DFE3FD552285EFD03FBB01E9B77502000D
:105710009385050D2285EFE0BFE415462285FD55F2
:10572000EFD09FA92285F955EFD0BF9C26869545DD
:105730002285EFD0FFD3E1B7EFA2FFDD411189450C
:105740002A84EFF04FB613061500B285228532C6C3
:10575000EFD0BFE4324685452285EFE0CF84333574
:10576000A000050541016FA05FDDEFA2DFDA05466D
:1057700089452A84EFF06FB78545AA842285EFD04A
:105780005F9785452285EFD03FAA91476310F502C8
:10579000635E9000A6852285EFE0DFD785452285F0
:1057A000EFD09FA689452285EFE06FF42285EFE0D8
:1057B0000FEC6FA09FD8EFA21FD60146814685450A
:1057C0002A84EFF04FA0AA8485452285EFD07F92EE
:1057D0000146A6852285EFE0DFF811C52285EFE0BE
:1057E0000FE96FA09FD53757000013076728814640
:1057F0007D5681452285EFE0EFB42285EFD09F8E64
:105800007D15C5B7EFA23FD18547411163FEB700B3
:1058100081452A84EFD05FEE2285F955EFD0DF9ED7
:10582000094541016FA07FD132C6EFD0BF8B324610
:10583000118DC5BFEFA23FCE2A84EFD0BF8A194693
:10584000AA8489452285EFF0CF9322858545EFD044
:10585000BFEA22858545EFD03F9B228509468D45CD
:10586000EFD0BF91B767000093874780094789460B
:105870009385E4FF7D562285EFE06FB1AA85094646
:105880002285EFF03FF86FA05FCBEFA2DFC8854520
:105890002A84EFE01FE422858545EFD0FFE5054629
:1058A00085452285EFD07F8D2285EFD0BF83B767F6
:1058B000000093874780014781469305E5FF7D56A9
:1058C0002285EFE0CFACAA8501462285EFF09FF359
:1058D0006FA0BFC6EFA23FC489452A84EFD0DF94F2
:1058E000AA84154685452285EFF0AF8981CC95477E
:1058F000638AF4003776020013060617894522856D
:10590000EFE07FFF377602001306061885452285F3
:10591000EFE03FFA11C9B77502009385C5182285DB
:10592000EFE01FC46FA07FC189452285EFD06FFCD7
:1059300085452285EFE02F930545EDB7EFA2BFBD6A
:1059400085452A84EFE0FFD8377602001306061457
:1059500085452285EFE0FFF51DE1B75500000146C2
:105960009385A5682285EFD01FD222858545EFD08B
:10597000BF892285EFD0DFC00D456FA01FBC2285F7
:105980008545EFD07F8837570000130727288146C9
:105990000D4685452285EFE0EF9AF9BFEFA2BFB72C
:1059A0002A849DE101E605456FA03FB9B285EFD09D
:1059B000BF850546F9552285EFE0CFE26DF5F95533
:1059C0002285EFD00FF3C5B7EFD09FBB22850546E8
:1059D000F955EFD08FFA0945C1BFEFA23FB20111CF
:1059E000700885452A84EFD0BFA83776020081462B
:1059F000130646138D45AA842285EFE0DFFCAA89B1
:105A000091452285EFD05F82FD5701496303F50080
:105A1000114981468DC4268689452285EFE0BFFA6B
:105A20007246AA864E87A6852285EFE0BFE6AA8544
:105A30004A862285EFF09FF605616FA07FAF37762B
:105A400002001306861389452285EFE0DFF72AC698
:105A5000194622858545EFE0DFF222859545EFD096
:105A60004FE9B246B75500004E8701469385A56BB6
:105A70002285EFE0CF9B65BFEFA2FFA941118146D0
:105A8000014685452A84EFE01FF401468146894599
:105A90002A892285EFE03FF32AC68D452285EFD083
:105AA000AFF8FD57324681446303F5008D44CA8543
:105AB0002285EFE01FCBAA8526862285EFF01FEE18
:105AC00041016FA09FA7EFA21FA585452A84EFE0A3
:105AD0005FC085452285EFD09FDD19E52285EFD097
:105AE0003FAA05456FA07FA537760200130606186A
:105AF00085452285EFE0FFDBEDB7EFA2DFA185450D
:105B00002A84EFD01F9511C52285EFD0AFDD6FA09D
:105B1000DFA222858545EFE0DFBB7D5622858545E6
