:040000006F00F0217C
:1000040000000000000000007206000074060000FA
:10001400000000001C0A00000000000000000000B6
:100024001C0A00001C0A0000000000000000000080
:1000340054EA00000000000000020000000000007C
:100044001C0A00001C0A00001C0A00001C0A000014
:100054001C0A00001C0A00001C0A00001C0A000004
:100064001C0A00001C0A00001C0A00001C0A0000F4
:100074001C0A00001C0A00001C0A00001C0A0000E4
:100084001C0A00001C0A00001C0A0000F4E3000023
:10009400A8E4000058E5000008E600001C0A00007F
:1000A4001C0A0000E6E700001C0A00001C0A00000D
:1000B4001C0A00001C0A00001C0A00001C0A0000A4
:1000C4001C0A00001C0A00001C0A00001C0A000094
:1000D4001C0A00001C0A00001C0A00001C0A000084
:1000E4001C0A00001C0A00001C0A00001C0A000074
:1000F4001C0A00001C0A00001C0A00001C0A000064
:10010400000000001C0A00001C0A00001C0A000079
:100114001C0A00001C0A00001C0A00001C0A000043
:100124001C0A00001C0A00001C0A00001C0A000033
:100134001C0A00001C0A00001C0A00001C0A000023
:100144001C0A00001C0A00001C0A00001C0A000013
:100154001C0A00001C0A00001C0A00001C0A000003
:100164001C0A00001C0A00001C0A00001C0A0000F3
:100174001C0A00001C0A00001C0A00001C0A0000E3
:100184001C0A00001C0A00001C0A00001C0A0000D3
:100194001C0A00001C0A00001C0A00001C0A0000C3
:1001A400000000000000000000000000000000004B
:0C01B4000000000000000000000000003F
:10020000130181F806C216C41AC61EC822CA26CC1B
:100210002ACE2ED032D236D43AD63ED842DA46DC76
:100220004ADECEC0D2C2D6C4DAC6DEC8E2CAE6CC46
:10023000EACEEED0F2D2F6D4FAD6FED8F3220030CF
:1002400096DA83A2019B23A02200F32510342EC04E
:100250009305000273A0458003A1C192EFF06049AD
:1002600003A3019B03210300824273901234D652F0
:10027000739002309240A2423243C2435244E2445D
:10028000724582551256A2563257C2575258E258FA
:1002900072598649164AA64A364BC64B564CE64C0E
:1002A000764D865D165EA65E365FC65F13018107DA
:1002B0007300203013000000130000001300000042
:1002C00013000000130000001300000013000000E2
:1002D00013000000130000001300000013000000D2
:1002E00013000000130000001300000013000000C2
:1002F00013000000130000001300000013000000B2
:1003000083A2C192938202E07390023403A1019B05
:10031000024182403243C2435244E2447245825514
:100320001256A2563257C2575258E258725986494D
:10033000164AA64A364BC64B564CE64C764D865D61
:10034000165EA65E365FC65FD652A102739002307B
:10035000A2421301810782801300000013000000F5
:100360001300000013000000130000001300000041
:100370001300000013000000130000001300000031
:100380001300000013000000130000001300000021
:100390001300000013000000130000001300000011
:1003A0001300000013000000130000001300000001
:1003B00013000000130000001300000013000000F1
:1003C00013000000130000001300000013000000E1
:1003D00013000000130000001300000013000000D1
:1003E00013000000130000001300000013000000C1
:1003F00013000000130000001300000013000000B1
:10040000F322003093F272FF130380781203B3E2F9
:100410006200711523205500130585FA10C12115BE
:100420002320050081426387020071152320050007
:10043000FD12D5BF71150CC18280000000000000C4
:1004400000000000000000000000000000000000AC
:10045000000000000000000000000000000000009C
:10046000000000000000000000000000000000008C
:10047000000000000000000000000000000000007C
:10048000000000000000000000000000000000006C
:10049000000000000000000000000000000000005C
:1004A000000000000000000000000000000000004C
:1004B000000000000000000000000000000000003C
:1004C000000000000000000000000000000000002C
:1004D000000000000000000000000000000000001C
:1004E000000000000000397101436EC619A0397187
:1004F00041536AC866CA62CC5ECE19A039710153F5
:100500005AD056D252D44ED64AD826DA22DC06DE4B
:1005100033016140828241114AC026C222C406C60C
:100520008282B24D4101024D924C224CB24B4101AC
:10053000024B924A224AB249410102499244224462
:10054000B240410182802A8309CA838305002300C7
:1005500073007D16050385056DFA828015C22A8316
:1005600085466367B500FD561307F6FF3A93BA95C3
:1005700083830500230073007D163693B6956DFACC
:1005800082802A8311C62300B3007D16050365FE11
:1005900082802320150040C104C52326250123287D
:1005A0003501232A4501232C5501232E65012320E3
:1005B000750323228503232495032326A5032328DB
:1005C000B503232A250200FD24E127242505272839
:1005D0003505272C4505272055072724650727289B
:1005E0007507272C8507272095092724A509272883
:1005F000B509014582808320050040410445032957
:10060000C50083290501032A4501832A8501032B9F
:10061000C501832B0502032C4502832C8502032D83
:10062000C502832D050303214503007D24610729AD
:10063000850487290505072A8505872A0506072BCE
:100640008506872B0507072C8507872C0508072DAE
:100650008508872D050913B515002E958280102178
:100660009421050585056313D60075FA3305D64038
:10067000828001A061655D711305051B82E686E439
:100680008AE28EE012FE16FC1AFA1EF82AF62EF402
:1006900032F236F03AEE3EEC42EA46E872E676E4B2
:1006A0007AE27EE0EF20515801A0EFF2DFE6EFE0C2
:1006B000C00F37140140130504C0E14637461D0042
:1006C00093050020EFE0200B130504C0930680047F
:1006D00037461D0093050010EFE0E009E1460146B2
:1006E0001305048093050020EFE0E0089305004027
:1006F00013050480EFE0A00789B5EFF2DFE12A845B
:10070000EF00B02089476310F50201468545228538
:10071000EF007041014689452285EF00D040420537
:100720004181EFD0704B014509BD1385C195828091
:10073000EFF27FDB23AC019401448144014AE16A7A
:10074000616BE16B616CE16C094D0545EFE0907404
:1007500083AD8195638F0D028547E398FDFE930578
:100760000C292285EF00F06DD1452285EF00F05570
:100770000546A6852285EF50201723AAA19463E899
:10078000AD060545EFE01071F9552285EF00D01850
:100790006DBFEF20403AAA84EFA0A02D2A84EF601D
:1007A000E04401469305A06F2285EF009060938599
:1007B0000A1C2285EF1080059305CB1C2285EF10C3
:1007C000905D854519E981458147014781467D5600
:1007D0002285EF10202EB335A00013854B2823AAC5
:1007E000B194EF20912F854723ACF194B9BF014616
:1007F000FD552285EF009038AA8513858C29EF20BE
:10080000D12D23ACA19549B7EFF2FFD0094599212D
:10081000212AEFF0804C513D716513050520EFF062
:10082000604EB707002083A5071F61651305852A61
:10083000EF20B12ADD227D22EFE0903301A0B7172F
:1008400002409843B706FFF041111367170098C3A1
:10085000D84337060200758FD8C39843B706F7FE12
:10086000FD16758F98C39843B706FCFFFD16758F6C
:1008700098C3D843B70601FFFD16758FD8C3370755
:100880009F0098C702C402C69843C166558F98C39B
:10089000B716024005679C42F18F3EC6A247850706
:1008A0003EC4B24781E7A247E397E7FEB71702408D
:1008B0009C4337070200F98FB5C785473EC63247CC
:1008C0008547631FF704B7170240D843B706C1FF37
:1008D000FD16D8C3D843D8C3D84313670740D8C33D
:1008E000D843758FD8C3D843B7063D00558FD8C3BA
:1008F0009843B7060001558F98C3B7060002984386
:10090000758F75DFD843B7160240719BD8C3D843A3
:1009100013672700D8C32147DC42B18BE39EE7FE73
:100920004101828002C661BF371702405C43A14685
:10093000B18B6398D7065C435843C166C983BD8BAE
:10094000758F8907C5466393D700C94701EF3747BD
:10095000024003270780418B09CF37177A0013071E
:10096000072021A8371702405843B7060200758FA9
:100970006DD737173D0013070790B387E702371786
:100980000240544337070020130707009182BD8AB5
:1009900036971823B3D7E700370700202328F71E20
:1009A0008280B7177A0093870720D1BFB74700200E
:1009B000938747B61CC1B73700209387C76B9CC18C
:1009C000930700101CC28280B7470020938707B1AD
:1009D0001CC1B73700209387C72B9CC19307001019
:1009E0001CC28280EFF23FB389332A84374800204B
:1009F000B70700200566E16501451308C8AB93877A
:100A0000C73D19478546130686BB9385852B13057D
:100A10000073EFE0500C08C00DB6828001A0970172
:100A20000020938121FD177100201301A15D17B5EE
:100A300001001305A59D97F5FF1F9385A55C1386FF
:100A4000419563FAC5008322050023A055001105D6
:100A50009105E3EAC5FE13854195974500209385EE
:100A6000E5856377B500232005001105E36DB5FE2C
:100A7000FD42739002BCFD4273904280A16293825A
:100A800002807390023097F2FFFF9382E25793E265
:100A9000320073905230EFF09FDA97020000938299
:100AA000E2D673901234730020309C4513F707018F
:100AB00013F8F70001C7D8413368E8008E2113F717
:100AC000F50F31C318418146054E930E80023D4F0C
:100AD000930F800421433316DE00B3F8C500631082
:100AE0001603639AD70750C913962600B318CF0090
:100AF00093C8F8FF33F7E8003316C800518F850616
:100B0000E39B66FC18C11307F00F6375B7045441EB
:100B10000146054E930E8002130F800421431307F4
:100B200086003317EE00B3F8E500631117036398EE
:100B3000D70358C9931826003D47331717011347A9
:100B4000F7FFF98EB3181801B3E6D8000506E318CD
:100B500066FC54C18280E399F7F910C971B7E39B31
:100B6000E7FD18C9C1BFB708300093560501131738
:100B7000050133731501BD8A418363530502B7072D
:100B80000140DC4F63151305C1060D46B316D600B0
:100B900093C6F6FFF58FC5E9370701405CCF828029
:100BA000370801400326480063121307B70600F117
:100BB000FD16B377D60003264800F18E2322D80015
:100BC000BDCD558112053315A700C98F8DA83706F5
:100BD0001000698E05C20D46B316D60093C6F6FF07
:100BE000F58FDDD955811375F53F12053315A70033
:100BF000C98F5DB755811375F53F12053317A700EF
:100C00009346F7FFF58FC9D9D98F79B7B707100089
:100C1000E98F99CB8D47B397D70093C7F7FFF18F33
:100C2000B706000FD58F69BF558112053315A70090
:100C30009347F5FFF18F3707000FD98FD9F53707A5
:100C400001405CC3828055811375F53F120533174F
:100C5000A7005DBF23A0A1968280371702405C43A6
:100C6000A146B18B6383D706B7177A009387072015
:100C70001CC1371602405C423707002013070701EA
:100C80009183BD8BBA9794231C41B3D7D7005CC125
:100C90005442A1829D8ABA969422B3D6D70014C535
:100CA0005442AD829D8A36971823B706002093865A
:100CB000461FB3D7E7005CC5584239830D8B369782
:100CC0001823B3D7E7021CC982805C4354434167B1
:100CD000C983F98E37F7FF1F0326C7701167BD8BD5
:100CE000718F89070DE345466393C700C947A9E69D
:100CF000B746024083A60680C18AB1C6B7167A00FD
:100D000093860620A9A00947638DE7003D47638CC1
:100D1000E7004147638CE7004547638CE7000147E4
:100D2000F9B7C947EDBF0547B547D1B70147BD473B
:100D30007DBF0147C14765BFB7160240D4423706A1
:100D40000200F18EC5DEB7163D0093860690B3878C
:100D5000D70219DF858329BF99C5371702401C4F79
:100D6000C98F1CCF8280B7170240984F1345F5FFFB
:100D7000798D88CF82801E294A25ED8F42054181D9
:100D800089C76D8D3335A000828001458280EFF2E6
:100D90008FF81629F577FD17FD8EFE21DA25011152
:100DA000D58F1EA95625FD779387379FFD8EDE21AF
:100DB0002A84AE84D58F9625D58FB625D58F5EA58E
:100DC0005E29C207C18393F7F7CFD98F5EA9680068
:100DD0006935B747014093870780631EF402E247F5
:100DE0006547B387E7029840930640060A07B3D7E2
:100DF000E70233D7D702B3F7D702120792079387D8
:100E00002703B3D7D702BD8BD98FC207C1831EA4D6
:100E100005616FF08FF2D247E1B75E2589C509679A
:100E2000D98F5EA5828079777D17F98FDDBF93F525
:100E3000F51F4EA182800A216D8D3335A00082807E
:100E40005049AA86635CB0001C428E053385B7000A
:100E5000DC466364F500138541928280B7C7F0FFDA
:100E60001387979D63C6E50048458E052E958280C1
:100E70009387879D6396F500084913054502828094
:100E800014425946C842E308C5FC88428D8F74213C
:100E9000E3C3F6FC0D8F0E073A9582808C416F40BC
:100EA000A040EFF24FE7AE84B2852A84EF909078AD
:100EB000D440930750042A8901476396F602AA8515
:100EC0008840EFA0E0405C412A8791CF5C44144108
:100ED00094C35841D8C3A1075CC45C4403A5C7FFB1
:100EE0003D896FF08FE55444A685228523A0260115
:100EF00083474900368693E70704DCC29387860060
:100F00005CC4EFB0D01DD1BFEFF2EFE0AE84411171
:100F1000B2852A84EF901072D440930750042A8936
:100F200001476398F604AA858840EFA0603A5C41C7
:100F30002A87A1C3544483A7C6FF93F7070499CF18
:100F40008C40DC31918B99CB83A786FFDC338D8B72
:100F500091C72AC62285EF50806932475C4483A638
:100F600087FFE11714C3D44354C35CC441016FF03D
:100F7000CFDC5044A68522852320260183474900E3
:100F8000930686FF93E707045CC2930786005CC460
:100F9000EFB0901F5C44C117C9BFD0418C416F4076
:100FA000901203284500AA8719451378F8036308AF
:100FB000A8021307600201456312E8069C43635FC1
:100FC000B004F823634CB70485058E05BE950CC2AA
:100FD00089E661651305C52882809CC2DDBF9C43FC
:100FE000014503A8C700635BB0028326C80063C73E
:100FF000B602938635008A06B6979C43944314C282
:1010000011C31CC3832708048E05AE9703A587FF71
:1010100019C14105828061651305052C828041114B
:101020006364B50041018280944118415C4114C160
:10103000D441E11554C198C5DCC52105D5B7EFF2FF
:101040008FCD5C45584D41112EC61D8F0D874449EB
:101050002A8463DBE50032475C440E07BA97D84028
:10106000636CF702054531A837470F0013070724C3
:10107000B305B7401851998F8D87950763D6F50052
:10108000014541016FF06FCB856570009385C5E91F
:10109000EF40001469D1EDB7DCC0E9B7630AB500D1
:1010A0005C4513173600998F5CC501476343C70041
:1010B0008280544513183700DC45C29603A8060009
:1010C000050723A00701D442D4C3A107DCC5F9BF9B
:1010D0001C49E857ECD7828001C51C49E85B828037
:1010E0001385C191828037470F0013077762B3865B
:1010F000E500AA872E856369D700D84BDC471843E3
:10110000998F8D873385F50082805C4948459C43E3
:10111000A1071D8D0D8582805C45138715000E0784
:10112000BA9763C805005C499C43BA975845636405
:10113000F7005CC582809306870054C52322070010
:10114000F5B7EFF24FBD0329C5003284D5396119D7
:10115000AA84634104020E0433048940A2852685D3
:101160007D3DCA85130584005D3DCA852685453DC4
:101170006FF0AFBC1344F4FF0E042A94C5B7EFF22E
:101180008FB93289AA846D392A84CA8526854D395A
:101190001C401CC15C405CC1B7C7F0FF9387879DB2
:1011A0006353F9025C4093F7070491CFDC489C43FA
:1011B0008C43DC31918B81CB10405C328D8B81C7AD
:1011C0002685EF50A0406FF04FB7EFF2CFB4404507
:1011D000AA84BD311C411CC05C415CC02104C0C458
:1011E0006FF0AFB5EFF22FB3A13993874192630649
:1011F000F50048413D896FF04FB47D55EDBFE9677B
:1012000085058A0593874704AE9788438280EFF26D
:101210008FB03D3148413515133515006FF0EFB1F2
:10122000EFF26FAF4111293958418D476308F7003C
:101230006C00EFB0C05B41016FF02FB00545E5BF1A
:10124000EFF26FADF53E48413D8975151335250028
:101250006FF0AFAEEFF28FAA2A89B28993844192E0
:10126000C536630F95002A84CE854A85D13E2A86ED
:10127000014563059600A285EFB0B0256FF04FAB36
:101280000145EDBFEFF28FA72A84328A3689938910
:1012900041927D3663023505AA84D28522854D367A
:1012A0002A860145630E36018547630DF90089479B
:1012B000630FF90063160900A6852285EFB070213F
:1012C0006FF00FA7A6852285EFB0007ED5BFA6855B
:1012D0002285EFB0500DEDB70145DDB7EFF2AFA3BA
:1012E0002A842E854C44EF70203301C55C44A1074D
:1012F0005CC46FF08FA4EFF20FA2411132848936E3
:1013000054410D47639BE6001C6105453EE611C054
:1013100008C0326541016FF04FA26C00EFB0204D64
:101320007DF502C6EDB7EFF20F9F41113284EFF069
:101330003FB154414D47639BE6001C4105453EC605
:1013400011C008C0324541016FF02F9F01466C006B
:10135000EFB0C04F75F502C6E5B7EFF2CF9BEFF0E7
:101360003FAEAA87484119C505476317E500884382
:101370003335A0006FF06F9C0545EDBFEFF2AF99DC
:101380002E89AA843284EFF0BFAB5C411147AA8555
:10139000BD8B638AE7020D476388E70019C02320ED
:1013A000040001456FF06F992685EF70C0439C489B
:1013B000DC476355F0002685EF506075CA852685A9
:1013C000EFF01FA8AA8501C89C411147D423639759
:1013D000E600FC331CC088414105E9B7DC47DDBFAE
:1013E000EFF26F93EFF0DFA558419D469377F70337
:1013F0006381D7021377870311EB1147638EE700F0
:101400001547638EE70001456FF02F935147E39C2A
:10141000E7FE1C41C847CDBF1C41E833F5B7084182
:10142000EFA0202CD5B7EFF20F8FEFF07FA158413E
:101430008946AA873D8B630AD7009D460145631400
:10144000D700884361056FF04F8F0841EDBFEFF281
:101450008F8CEFF0FF9E5841930780046315F700CF
:1014600008416FF08F8D0145EDBFEFF2CF8AEFF0AD
:101470003F9D5C41214793F7F7036389E702634E81
:10148000F7001D476381E70211476341F7020947EF
:10149000638EE70001456FF04F8A59476388E70084
:1014A00013076002F5B708416105F5B70841E5B7D4
:1014B0005C4523A20700A1075CC582805C450D47FF
:1014C00088E3D8C3A1075CC582805C454D478CC3C7
:1014D000D8C3A1075CC58280EFF2EF83AA8415EA26
:1014E000E1659385C528EF90F014DC442A8488C315
:1014F000582113670704D8C3A107DCC49C48DC4704
:101500006355F0002685EF508060130504016FF0ED
:10151000CF82EF90500ED1BFEFE2FFFFAA8495E19A
:101520005C452E8423A20700DC44A107DCC49C4850
:10153000DC476355F0002685EF50605D22856FE043
:10154000DFFFEF90300FD8441304050108C35C217E
:1015500093E707045CC3C9BFEFE2FFFB2A84EF7087
:1015600000341C48AA84DC476355F0002285EF5004
:10157000005A26856FE07FFC397132D4301022CCBE
:1015800026CA2A843EDA06CE36D63AD842DC46DE71
:1015900032C6EF70C0301C48AA84DC476355F000A7
:1015A0002285EF50C056F24062442685D244216124
:1015B0008280EFE25FF6AA842E8909EA5C455947EA
:1015C0008CC3D8C3A1075CC56FE03FF7B2853284F6
:1015D000EF404057DC441316340023262501918F39
:1015E000B386C70083A586FF3307C50061160CC705
:1015F00083A6C6FF54C76DF61307600688C3D8C319
:10160000A107DCC49C48DC47E350F0FC2685EF5082
:1016100000505DBF5C45B335B00005478CC3D8C3EF
:10162000A1075CC582805C451307800488C3D8C3CA
:10163000A1075CC51C49BC5B3385A7401335150069
:101640008280EFE25FED1C492A844111C8532EC607
:101650008945EF90B03F3246AA852285EFF07F841E
:1016600041016FE09FEDEFE21FEB41112A8432C68A
:10167000EFF00FFD3246AA852285EFF09F824101EF
:101680006FE0BFEBEFE23FE92A843289EFF04FFBD6
:10169000544193075004AA8401476396F602084117
:1016A000CA85EF90B03A5C412A8791CF5C441441DF
:1016B00094C35841D8C3A1075CC45C4403A5C7FFC9
:1016C0003D896FE09FE75444CD47A685DCC223A047
:1016D0002601938786005CC436862285EFB02020E1
:1016E000E9BFEFE25FE32A84EFF08FF5444408415D
:1016F000938584FFEF9050401C4123ACF4FE5C4185
:1017000023AEF4FE5C4403A5C7FF3D896FE0FFE212
:10171000EFE27FE02A84B284EFF08FF20841A685E1
:101720000329C400EF9090321C412320F9005C4152
:101730002322F9005C44C8431387870058C43D89BD
:101740006FE0BFDFEFE23FDD4111B2842A84EFF0AA
:101750002FEF26C4084189472C0044443EC6EF9031
:10176000B0391C419CC05C41DCC05C44C843138759
:10177000870058C43D8941016FE03FDCEFE2BFD9EB
:1017800041112A84AE8432C6EF9090255C44130741
:101790005004B24688C3D8C3A1075CC4AA85634479
:1017A00090006356D00026862285EF90703E1C483C
:1017B000DC476355F0002285EF50603541016FE052
:1017C000DFD7EFE25FD52A84EFF08FE75C41154762
:1017D000BD8B638CE7001D476387E702184893873A
:1017E00047038A07BA97D84719A01C41984F01456B
:1017F00009CB5C44054598C313075004D8C3A1071F
:101800005CC46FE09FD31C419847D5B7EFE2BFD0CF
:101810001C492A844111C8532EC68945EF901023D4
:101820003246AA852285EFF02FEE41016FE0FFD00E
:10183000EFE27FCE41112A8432C6EFF06FE03246EC
:10184000AA852285EFF04FEC41016FE01FCFEFE258
:101850009FCC41112A843289EFF08FDE54419307E7
:101860005004AA8401476398F6040841CA85EF90A2
:10187000F01D5C412A87A1C3544483A7C6FF93F798
:10188000070499CF8C40DC31918B99CB83A786FFDD
:10189000DC338D8B91C72AC62285EF4050553247E5
:1018A0005C4483A687FFE11714C3D44354C35CC4CC
:1018B00041016FE09FC85044CD47A6855CC22320FC
:1018C0002601930786005CC4930686FF2285EFB04D
:1018D000A00B5C44C117E1BFEFE2FFC32A84EFF025
:1018E0002FD650440C41AA8441162285EF90B05C5B
:1018F0005C4403A787FF18C183A7C7FF5CC19C4056
:101900002383070058448327C7FF93F7070489CF31
:101910008C40DC31918B89CB832787FFDC338D8B27
:1019200081C72285EF40B04C5C44C1175CC46FE0B6
:10193000DFC0EFE25FBE41112A8432C6EFF04FD024
:1019400054440C413246AA84E1162285EF90B0201F
:1019500058448327C7FF93F7070489CF8C40DC31B5
:10196000918B89CB832787FFDC338D8B81C72285C1
:10197000EF40F0475C44E1175CC441016FE0FFBBFE
:10198000EFE27FB9411132892A84EFF06FCB4AC46C
:101990000C418947AA84300022853EC6EF90B051A1
:1019A0005C4403A787FF18C103A7C7FF58C103A75B
:1019B000C7FF1377070409CF8C40D831118B09CBAF
:1019C00083A787FFDC338D8B81C72285EF403042B0
:1019D0005C44E1175CC441016FE03FB6EFE2BFB386
:1019E0004111AA84EFF0CFC5D8445C412A848326F4
:1019F000C7FF95E6BD8B1547638FE7001D476397CB
:101A0000E7061C4123A40700DC440545E117DCC4BC
:101A100041016FE09FB21C4123AC0700F5B70326DC
:101A200087FFBD8B1547638CE7001D47638DE70279
:101A30009848938747038A07BA97D0C7F1B71C41E4
:101A400090CF79D20C40DC31918B89CB5C328D8B7D
:101A500091C7268532C6EF40703732460C40268546
:101A6000EF40707B55B71C4190C7E1BF0146C9B735
:101A7000EFE27FAA5C4593C5F5FF8E052A84B28408
:101A8000BE9505C78357C5068DE35C4998CB94CFB7
:101A9000EF30F05DFD576398F4005C485844D44340
:101AA00063F3E600D8C36FE05FA926862285EF3096
:101AB0009061CDB7EFE29FA48329050241112A84EA
:101AC000AE843289BA8A3E8A91C6B685EFF04FB7A6
:101AD000B30635414C4493C4F4FF8E04A6952EC43E
:101AE00063050A008357C40685CB3687B386354124
:101AF000856530009385A5F922854AC6EF3070765A
:101B0000FD576318F9005C485844D44363F3E6007A
:101B1000D8C341016FE0DFA144487C4CB389354113
:101B200023A84401DCC823AC5401BE3023AE3401E9
:101B300003474407F99B74CCD98F93E70701BEB0E4
:101B400022854A86EF30B052BE300145BD9BBEB003
:101B5000DC487CCC75B7EFE21F9C01112A843A89DE
:101B6000B68481E6E1649384C42CB28622852E86F5
:101B70006C00EFC0E07F2686CA866C002285EF30BD
:101B8000D073AA840DED5C4403A987FF83476900E5
:101B90009DC71C488945C853EF90406B83250901B8
:101BA0001C4198411CC35C415CC393F7070481CB83
:101BB000938785006315F7002285EF405024268522
:101BC00005616FE09F9708258280EFE23F93A5476C
:101BD000004963E0B70CE1679387072D8A05BE953E
:101BE0009C412A898287A309040201456FE05F9422
:101BF00081452285EF8030438547A309F402F5B77C
:101C00008145EF405079D5B708445C443E95298121
:101C1000F1BF08445C443E951375F53FC1BF85474D
:101C200083493403A309F4020DE29305009C228545
:101C3000EF80703F4A85EF40906DA3093403034560
:101C4000140365151335150055B75C442A06228523
:101C5000B304F600A685EF80103D83270901DC4719
:101C60006355F0004A85EF40906AA3093403E348C6
:101C700090FCA5BF685070D095BF93078002285490
:101C80006354F6001306800230D48DB70345340345
:101C9000B1BF7D55A1BFEF304015EFE2DF872A8449
:101CA000EFF00F9A50440C4122856116EF90C0442A
:101CB00058449307870019E1930787FF5CC46FE0DE
:101CC000DF87EFE25F8505472A84635DB700EFB0E9
:101CD000E0141C48DC476355F0002285EF40306378
:101CE0006FE0BF85FDF54445E16501469385C52854
:101CF000EF90601088C05C2193E70704DCC05C446F
:101D0000A1075CC4F9B7EFE21F812A84EFF04F937B
:101D10004C442A862285EFB020275C44A1075CC48E
:101D20006FE0BF8181C51C49DC439CC11C498843CD
:101D30008280EFE24FFE2A84EF90A0155C441307E7
:101D40007004AA8488C3D8C3A1075CC41C48DC47BC
:101D50006355F0002285EF40905B138584016FE0AE
:101D6000CFFDEFE24FFB4111B2842A8402C202C4CC
:101D700002C6EFF0EF8CA685780034005000EFF03B
:101D80004FA2AA8415CD5C44A245138787FF83A682
:101D900087FF58C4124714C383A6C7FF54C38DC519
:101DA00003A7C7FF1377070401CFD831118B09CBE5
:101DB00003A687FF5C328D8B81C72285EF4010011F
:101DC000268541016FE06FF7B245FDD998415C432C
:101DD00093F70704F5D793878500E313F7FE228571
:101DE000EF40F001F1BFDC41014589C788411CC2C9
:101DF00023A20500828019E201458280EFE20FF004
:101E00002E89FD552A84B284EFF0CFBD9547631B20
:101E1000F5002285EFF0CFE99149FD14F9552285AF
:101E2000AD3D01E501456FE0AFF0F9552285EFF0DA
:101E30006FBB631B35057D56CA852285EFF08FC1C8
:101E400019C5F9552285EFF02FAD0545E9BF268666
:101E5000CA8522854D370DC97D562285F955EFF08B
:101E60004FAE2285F955EFF02FABE1659385852FB5
:101E70002285EFF06FEA22850546F955EFF06FAC49
:101E80008D4522853D3DD1B7F9552285EFF0CFA88C
:101E900071B7EFE2AFE641112A842EC6EFF0EFA64C
:101EA0003246E1652A899385455D2285EF20904180
:101EB0006166B7C5F0FF1306C62F9385859D228501
:101EC000EFF06FFA930919000946CE852285253770
:101ED00031C90146FD552285EFF04FCAE1650D4637
:101EE00093854530AA84EF10914819ED938534000D
:101EF0002285EFF06FE2F95522857D56EFF06FA451
:101F0000F9552285EFF04FA14E86FD552285EFF061
:101F10000FA7F5552285EFF02FA0854426854101B6
:101F20006FE00FE1AA84CA852285EFF0EF9EFDB72E
:101F3000EFE26FDE41112A84B2842E89EFF09074B3
:101F40000841EF10F1402AC6A68501462285EFF030
:101F5000EFC23247E165930615004A8693858530C6
:101F60002285EFF06FE17D56A6852285EFF06F9D0B
:101F70002285F955EFF04F9A1D4541016FE0EFDBE7
:101F8000EFE26FD99C412E84B2846359F0001CC2E9
:101F900023A00500130584006FE02FDAD44101452A
:101FA000DE2693F70702EDFB130600408545130577
:101FB0008400EF00615B88C0F1BFEFE2CFD583A75B
:101FC00041810146FD55C447EFF04FBBE1652A86CC
:101FD0009385C5312685EF00414583A74181C847D8
:101FE000EF00811501456FE04FD5EFE2CFD22E848F
:101FF00099E62E85EF00315001456FE00FD4B6858C
:1020000022853289B684EF10C14265F975D4E36543
:1020100099FE2285DDB7EFE26FCEE1642A842E8936
:102020002320050093840435FD594840EF00F12733
:10203000AA8763053503982085046311E5021840DB
:10204000838704009306170014C0229708A7F1FFA6
:10205000484023200400EF005125AA872320F900DF
:102060001307300201456391E702FD59A944484036
:10207000EF00B12363043501E31B95FE4840EF00F8
:10208000D1222320A90005456FE08FCAEFE2AFC837
:10209000597170002A84EF2050200DC5E165700051
:1020A000938545352285EF20F0218256635CD00070
:1020B000E1651018938585352285EFF0EFCB6561DA
:1020C0006FE0AFC7E1659385C5282285EFF0CFCAE1
:1020D000FDB7397126CA3EDAAE843C10854506CE7E
:1020E00022CC36D62A843AD842DC46DE3EC632D4EA
:1020F000713F3246A6852285EFF00FC622858945BD
:10210000EFF03FBC2285EFF01FB9F2406244D244A9
:1021100021618280EFE22FC05971AE8432898145FE
:1021200070002A84EF20701719E9E165CA862686B7
:10213000938505362285713F65616FE00FC0E165CB
:1021400070009385851C2285EF20D0175245E565E8
:10215000938505D1EFE0AFD0424601E9FD1491E44B
:10216000E165CA8693858537F1B701EE6C0022855B
:10217000EFF03FD205C10146FD552285EFF00FA0DB
:102180002AC8C246E1654A87268693858539228515
:1021900089375DB761651305C52CDDB7EFE20FB672
:1021A00041112E8A6C003289AA89EFF0BFB7AA8448
:1021B000D2854E85EFF02FA750410C412A8432453D
:1021C000CA868294AA8409ED630C0900D28501466F
:1021D0004E85E937E1659385853B4E85EFF07FEFCE
:1021E00004C023222401268541016FE06FB4EFE291
:1021F0008FB2014685455D3701456FE00FB4EFE2D0
:102200008FB137C9F0FFAE842E869305899D2A844D
:10221000EFF06FC531E1F9552285EFE0FFEF094698
:1022200081452285EFF08FD5A6852285EFF0CFAED0
:1022300061661306063EF9552285EFF06FDFFD5506
:102240002285EFE09FF8228526869305899DEFF091
:102250002FDE05456FE06FAE0145EDBFEFE2AFAB9E
:1022600041112A8432C6EFE09FDD09E9324611CAE6
:10227000E1659385853E2285EFF0BFE541016FE082
:10228000CFABE1659385C53F2285EFF09FE4FDB7B5
:10229000EFE26FA82A84AE84EFE0DFF4FD57631904
:1022A000F50061661306C640A6852285EFF09FE61D
:1022B0006FE0AFA8EFE22FA644411C452A84338784
:1022C000F4406371B70486043387F4400329C500E2
:1022D0006374B700BE95AE8463F8F400E16593853E
:1022E000C5414A85EFF0FFDE184093070401630003
:1022F000F7024A852686FD55EFF05FEA2A892320FA
:10230000240144C008401C443E956FE00FA3A14542
:102310004A85EFF01FA2E165232005002322050076
:10232000938505434A85EFF09FED19CD89650146F8
:102330009385E51E4A85EFF0CFA7616613068643B5
:10234000F9554A85EFF0CFCEF9554A85EFF00FE900
:102350002686FD554A85EFF07FE410440C402A891B
:10236000EFE06F9E69BF15C2EFE2EF9A2E89B2854A
:102370003284AA84EFF01FF42286CA85EFE0AF9C76
:102380009C44A2979CC46FE04F9B8280EFE2AF9881
:1023900041112A842E852EC6EF10617CB2452A8613
:1023A0002285EFF05FFC41016FE02F99EFE2AF96DD
:1023B000444510450C412A842685EFF0EF911840E2
:1023C000930704016300F7020146F9552685EFF0F3
:1023D000FFDCF95526857D56EFE0BFD6F9552685F9
:1023E000EFE09FD36FE06F95EFE24F9144454111CD
:1023F0002A847000FD552685EFE05FF81C409309A4
:1024000004012A89638737010546F9552685EFE0DF
:102410005FD33246CA852285EFF0FFF41C40FD559C
:102420006383F900F9557D562685EFE09FD1F95574
:102430002685EFE07FCE41016FE08F8F9387050106
:102440009CC1856793870780C8C523A40500DCC1AC
:102450008280EFE2AF8A130101BFAA842E89328401
:10246000EFE0BFCA93091500631F0904E165938576
:1024700005442685EFF04F8A83A74181DC433EC6A1
:102480004C002800EFF03FB919C9A2471387170085
:10249000938707413AC48A9729472380E7C01247A8
:1024A000ED476312F706630009063246E16593853E
:1024B00045454A85EF00612A2AC631E1E1654E862D
:1024C0009385854525A0E1654A86938585442685C3
:1024D000EFF08F8AE965938545764A85EFF0307491
:1024E0002AC659FDE1654E869385C5442685EFF0E1
:1024F0003FA42A842285130101416FE06F834C00C1
:102500002800EFF05FB11247FD57630BF700A247B9
:1025100093861700938707418A9736C42380E7C0C4
:102520000146FD552685EFE07FE58965AA8622876D
:102530003000938505F82685EFF0EFE12A843245D7
:10254000035AC500137A0A0463040900EFF030222D
:10255000630B0A00CE852685EFE01FBCE1654E8641
:102560009385054661B7CE8526857D56EFE07FBD14
:10257000F9552685EFE05FBAB5BFEFD2DFF941111B
:102580002EC4896532C6938565DE3000EFF0AFDC7E
:1025900041016FD09FFAEFD21FF841112A842E8596
:1025A0002EC6EF10C15BB2462A860147B68522854A
:1025B000EFF0BFFC41016FD05FF8EFD2DFF52A8466
:1025C000B284EFF00FA009E5814426856FD0FFF6B5
:1025D000A6852285EFE05FF4F9552285EFF06F9034
:1025E000AA8411E5F5552285EFE01FB3F1BF2285DE
:1025F0007D56F955EFE0FFB4F9552285EFE0DFB1E4
:10260000E9B7EFD25FF1328961661306063E2A848C
:10261000AE84EFF09FFA91476316F5020146FD552F
:102620002285EFE0BFD5AA86E1654A869385854776
:102630002285EFE07FF42A86A6852285EFF09FAD04
:102640006FD0BFEFA6852285EFE0DFB98947630B26
:10265000F500A6852285EFE0FFB8AA852285EFE088
:102660001FBAD1B7E166938686467DBFEFD2BFEA37
:10267000AE84B2852A84EFE09FB82A86A68522859B
:10268000EFF03FF86FD07FEBEFD2FFE8411132C699
:102690002A84AE84EFE01FB532466306C500A685E6
:1026A0002285EFF0BFFC41016FD03FE9EFD2BFE6DA
:1026B000AA842E89EFE09FCC2A8411E51146CA85B1
:1026C0002685EFF0BFFA22856FD03FE7EFD21FE3F8
:1026D0002A89AE893284B684EFE0DFB0634CA00073
:1026E00099C4014501C42285EF10614788C0228545
:1026F0006FD01FE42686CE854A85EFF03FFB2A8403
:10270000FDB7EFD2BFDF4111AA842E89B6891DCA59
:102710008146EFF0BFFB2A86014493172400CE9731
:10272000884305E5E1659385C5482685EFE0DFE44C
:102730002A86CA852685EFF0FF9D2A8422854101DD
:102740006FD01FDFEFF09FF6F9B7B28532C6EFD03A
:102750001FF16DD532460504C9B7EFD2DFDB411159
:1027600070002A84AE84EFE01FBCB2472A8989EF4B
:10277000A6852285EFE0DFAA01CD61661306064A31
:10278000A6852285EFF01F994A8541016FD0FFDAB7
:102790000D46A6852285EFF07FEDFDB7EFD2BFD7BE
:1027A000AA842E893284EFE0FFA36357A000CA8574
:1027B0002685EFF09FFA2A8422856FD01FD8EFD2AA
:1027C0009FD541112A8432C6EFE0FF913246AA8597
:1027D0002AC62285EFF07FDE09CDB2452285EFE0E3
:1027E000DF9E22850147814605468545EFF04FA8CB
:1027F000054541016FD07FD4EFD2FFD141112A842A
:10280000EFF06FD07000FD552285EFE0DFB1B247E9
:10281000AA8499E7E1659385854C2285EFF07F8B4B
:102820002285F955EFE05F8F268541016FD0FFD0FB
:10283000EFD2DFCC328A61661306864F2A84AE84DB
:10284000EFF0FFF71DC1FD552285EFE07F9F19E5F1
:10285000E165938545502285EFF0BF875286FD558F
:102860002285EFE0BFB16FD0BFCCA6852285EFE017
:102870007F978D47630AF50663C0A7066306050CBC
:1028800085476303F50A61661306063EA685228521
:10289000EFF0BFD29147AA89631CF50A0146FD55A6
:1028A0002285EFE0BFAD2A89A6852285EFE0FFBB38
:1028B000E165AA864A86938545532285EFE0DFCB02
:1028C000E38E09F822857D56F955EFE09F87F9558B
:1028D0002285EFE07F8459B79147E316F5FAA68584
:1028E0002285EFE09F8E9DBFA6852285EFE03F9277
:1028F0000146A68501CD2285EFE0FFA2E1652A868B
:10290000938585522285EFE03FC789BF2285EFE09E
:102910009F9EEFF0000CAE86E1652A869385C55236
:102920002285EFE07FC51DBFA6852285EFE0FFA2CF
:1029300001C9E1659385854E2285EFE0FFBD39BF72
:10294000E1659385054FCDBFE16593850553EDB7EF
:10295000A6852285EFE01F89AA852285EFE03F8AC0
:1029600099B7EFD2BFB932846166AE841306C653FD
:10297000A285F9592A89B30A8040EFF03F8EB389C6
:1029800089409C409DEB9345F4FF4A85EFE0CFF8EA
:102990006FD01FBAD6854A85EFE03F83050AE34B27
:1029A0008AFECC4022864A85EFE0BFC09040CE85AB
:1029B0004A85EFE0FFE7A104E9B7014ACDB7EFD2BE
:1029C0009FB52A84AE843289EFE0FFC99547630C36
:1029D000F502F9552285EFE02FF4A6852285EFE078
:1029E0008FF00146AA8481452285EFE03FD9FD554D
:1029F0002285EFE08FFD22854A86A685EFE05FE322
:102A000001456FD09FB30545EDBFEFD23FAFAE8418
:102A1000B289B7C5F0FF61661306C62F9385859D01
:102A20002A843689EFF0BFF9FD5526862285EFE02E
:102A30009FC3FD552285EFE05F9215EDF955228584
:102A4000EFE08FED0146CE852285EFE09FB6A685AB
:102A50002285EFE07FAC054601478146854522850A
:102A6000EFF00F81FD552285EFE02FF62686F55514
:102A70002285EFE0FFDBF95522857D56EFE06FEC14
:102A8000F9552285EFE04FE9630A0900FD552285DB
:102A9000EFE0AFF3A6852285EFE05FD76FD05FA9A7
:102AA000EFD2FFA4FD729382027E1691AA8932852D
:102AB000AE84328A368BEF10810A1C103EC88567BF
:102AC000938707807D743ECA85671304047F9387CC
:102AD0000781A2971808AA8A4ECE02CCB38BE700D2
:102AE000D2852685EF10410F2A890DE985679387E6
:102AF00007811808A2973385E700A6852AC6EFF05C
:102B0000FF883245EFF09F8A0146FD554E85EFE084
:102B1000FF861301017F45616FD0FFA03306994006
:102B2000A6855E85EFF03F84DA855E85EFF01F862F
:102B3000B304590175B7EFD21F9E0965814513058E
:102B4000A5FEEF70705B2A8411C589659385A5FB8E
:102B5000EFE00FD822856FD05F9EEFD2DF9B41114F
:102B600022E62A845304A5202E89EFE0EFD69307AE
:102B70004004AA846308F900E16593850555228520
:102B8000EFF02FD50145EFE02FD5638CA400E16570
:102B9000938545582285EFF0CFD3326441016FD041
:102BA000DF998860D32785A0EDFBEFE090625305A5
:102BB00084202A89AE84EFE0D061AE86E1652A8662
:102BC0004A87A6879385055A2285EFF08FD0F1B703
:102BD000EFD27F94EFE06FD37D156FD01F96EFD2C9
:102BE0009F9385452A84EFE0EFDFFD57AA846319A0
:102BF000F50061661306C64085452285EFF08FD14A
:102C0000A6852285EFE0AFDFAA852285EFE0DF9081
:102C100005456FD09F92EFD21F9085452A84EFF033
:102C20002FE7014685452285EFF09FC005456FD00F
:102C3000DF90EFD25F8EAA84EFE02FCD2A84854506
:102C40002685EFE02FDA91476315F50201468545A9
:102C50002685EFE0AFF20307050093073002631A01
:102C6000F70026859305F4FFEFE03F8605456FD01A
:102C7000DF8C85452685EFF05FAE3309A4006346FF
:102C800005002289635385002A8963492001616612
:102C90001306865D85452685EFF0CFC733052441B1
:102CA000F9B7EFD25F8789452A84EFE0AFD3AA84D2
:102CB000154685452285EFF03F9D99C89547638964
:102CC000F40061661306C65E89452285EFF08FC465
:102CD00061661306466085452285EFF01F8E09C99F
:102CE000E165938505612285EFF0AFBE6FD0FF846B
:102CF00089452285EFE04FC285452285EFE01FCE52
:102D00000545EDB7EFD23F81154685452A84EFF0A2
:102D1000BF9722858945EFF0AFD722858D45EFF02B
:102D20002FD722858D45EFE02FBF22858545EFE027
:102D3000BFBA05456FD07F80EFD2EFFD15468545C0
:102D40002A84EFF07F9422858945EFF06FD42285A5
:102D50008945EFE06FBC85452285EFE09F980545EA
:102D60006FD0AFFDEFD22FFB85452A84EFE08FC7F0
:102D70007115854763F9A7006166130646638545AB
:102D80002285EFF02FB985452285EFE06FE5AA8512
:102D90002285EFE08FF305456FD02FFAEFD2AFF722
:102DA00085452A84EFF0CFCE22858945EFF04FCEBE
:102DB000094685452285EFE0EFC9AA852285EFE027
:102DC0007F8505456FD06FF7EFD24FF341112A840D
:102DD000EFE0AFB3E165AA89938505652285EFE051
:102DE0005F868544E16A63D3990283A74181616567
:102DF0000546944785451305C534EFF0104A83A76F
:102E000041818847EFF0403301452DA8FD552285CB
:102E1000EFE0AFBBA6852285EFE02FBB01478146DF
:102E2000054685452285EFE0BFC47000FD5522852B
:102E3000EFE0CFD42A8911E9E1659385C565228544
:102E4000EFF02FA941016FD0AFEE8547638BF400FF
:102E500083A7418105468545944713858A68EFF02D
:102E6000D04383A741813246854594474A858504EE
:102E7000EFF0B042F9552285EFE00FAAADB7EFD2DF
:102E80008FE985452A84EFF0AFC08D650146228524
:102E9000938585F5EFE0EFF122858545EFE0EFB210
:102EA00022858145EFE06FE20D456FD00FE9EFD24B
:102EB0008FE6154685452A84EFF00FFD894522856A
:102EC000EFE08FA585452285EFE03FDD19E52285FE
:102ED000EFE00FDE05456FD04FE60945EDBFEFD2BD
:102EE0008FE3B28461661306C66889452A84EFF0D1
:102EF000EFB685452285EFE04FAD8145228501473C
:102F000081460546EFE0DFB6FD552285EFE08FAD47
:102F100011E92285F955EFE02FA0014523A0040017
:102F20006FD0AFE1FD552285EFE08FB119E5E16586
:102F30009385856A2285EFF0CF9915462285FD5548
:102F4000EFE0EFA32285F955EFE00F9D268695452A
:102F50002285EFE0AFC2E9B7EFD2EFDB411189453F
:102F60002A84EFF08FFF13061500B285228532C642
:102F7000EFE0AFD5324685452285EFE0AFF033353F
:102F8000A000050541016FD04FDBEFD2CFD8054639
:102F900089452A84EFF09F808545AA842285EFE049
:102FA000AF9785452285EFE0EFA391476310F502C7
:102FB000635E9000A6852285EFF04F8D85452285C2
:102FC000EFE0AFA089452285EFE0BFCF2285EFE09B
:102FD0009FCC6FD08FD6EFD20FD4E5666166938613
:102FE000C6851306066D85452A84EFF08FF1E167EB
:102FF0000A0593874773AA9703A9070001468945E5
:103000002285EFF0AFF92A86CA852285EFE0FFBB63
:103010009307B9FFED9BAA849DC78D47631AF902F8
:10302000014691452285EFE05FBA537505D0D3F78D
:1030300004D007A7818722854375E578EFE00FC8A4
:1030400005456FD08FCFAA852285EFE0AFDCCDBFDD
:10305000AA852285EFE06FC7E5B7EFD2CFCB8547D2
:1030600063FDB7008145AA84EFE0CFDA2685F955E4
:10307000EFE0AF9509456FD04FCC3284EFE0EF8899
:10308000018DD5BFEFD22FC92A84EFE00F881946F2
:10309000AA8489452285EFF02FDF22858545EFE060
:1030A0006FD722858545EFE04F92228509468D45F1
:1030B000EFE02F898D679387A70509478946938598
:1030C000E4FF7D562285EFE0FF9EAA850946228512
:1030D000EFF0BFF86FD06FC6EFD2EFC385452A84FB
:1030E000EFF00F9B22858545EFE0CFD20546854561
:1030F0002285EFE00F852285EFE02F818D67938792
:10310000A705014781469305E5FF7D562285EFE03F
:103110007F9AAA8501462285EFF03FF46FD0EFC178
:10312000EFD26FBF2A8495E111CEB285EFE0EF892F
:103130000546F9552285EFE0DFC209E5F9552285FC
:10314000EFD09FFD05456FD04FBFEFE06FB62285F2
:103150000546F955EFD0FFFE0945F5B7EFD20FBA96
:103160000111700885452A84EFE04FA16166814610
:103170001306866D8D452A892285EFF02FD5AA8901
:1031800091452285EFE00F8693041500B33490003B
:103190008A048146630609024A8689452285EFF042
:1031A000EFD27246AA864E87CA852285EFF0EFBC21
:1031B000AA8526862285EFF0BFF605616FD04FB74E
:1031C00061661306C66D89452285EFF02FD02AC6A9
:1031D000194622858545EFF02FCB22859545EFD006
:1031E000BFF3B2468D654E8701469385E5ED228596
:1031F000EFE07F9675BFEFD20FB2411181460146D5
:1032000085452A84EFF08FCC014681468945AA8402
:103210002285EFF0AFCB2AC68D452285EFD09FFCEB
:10322000FD5732460D496313F5000149A6852285F5
:10323000EFF02FA2AA854A862285EFF07FEE4101AA
:103240006FD0AFAFEFD22FAD85452A84EFF04F841A
:1032500085452285EFE0EFD619E52285EFE04FA501
:1032600005456FD08FAD61661306466085452285A2
:10327000EFF0AFB4F5B7EFD20FAA0146814685450E
:103280002A84EFF0AFC4AA8485452285EFD0DFE819
:103290000146A6852285EFF0CF9B11C52285EFE080
:1032A0009F9F6FD08FA90D67130707BD81467D567D
:1032B00081452285EFE0CFFB2285EFD01FE57D150C
:1032C000CDB7EFD24FA585452A84EFE00F8911C510
:1032D0002285EFD09FE36FD04FA622858545EFE092
:1032E0003FFB7D5622858545EFD0BFE52285F95508
:1032F000EFD09FE2E1659385456E2285EFE0CFA197
:1033000022858545EFD05FE12285EFF01FC8E1B748
:10331000EFD26FA085452A84EFE09FF76166130620
:10332000866F85452285EFF04FA915E18D65014631
:103330009385E5EA2285EFE0CFA722858545EFD08A
:10334000DFE82285EFE0CF960D456FD00F9F2285F5
:103350008545EFD09FE7014781460D46854522858B
:10336000EFE00FF1D5B7EFD26F9941118945AA84EB
:10337000EFD05FE76347A00485452685EFE05FF166
:1033800085452685EFD01FE68D47631AF5008545F4
:103390002685EFD07FD8054541016FD06F998545CF
:1033A00070002685EFD09FFDAA8501C92685EFD044
:1033B000FFF2B2478507E300F5FE2685EFE04F8F69
:1033C000D9BF89452685EFF04FB92A8A1146854530
:1033D0002685EFF06FAB700085452685EFD01FFA8C
:1033E0001307EAFF93072002AA8963F9E7006166E1
:1033F0001306067089452685EFE0DFD1616B9305E2
:103400004B714E85EF00617B3384A9008307040074
:103410001307D002639CE7060504854A1C206967F0
:103420009306575DB6979C231307575D9D8BD1D7A5
:1034300001490945030604009377F60FB306F70028
:103440008386060093F54600A9C9930706FD63DD50
:103450004705B3052A0305043389B7001C20BA9732
:103460009C239D8BE1FB93054B712285EF00E1745A
:103470002A94CA8563840A00B3052041B247BE99E5
:10348000E31D34F32685EFE04F8431B71307B00214
:10349000814AE395E7F8050451B78D8A6393A60046
:1034A0008117938797FC65B781450144C1BFEFD26F
:1034B0008F86B7C5F0FF09469385859D2A84EFE086
:1034C0002FA5E5650146228593850588EFF06FC934
:1034D0002285FD55EFD07FCF61661306C671228528
:1034E000F955EFE0EFB4E165938505722285EFE0D1
:1034F000AF826166228513068672F955EFE04FB3FD
:1035000005456FD08F83EFC27FFF1C45B2842E86A6
:1035100003AB0702CC5700412A895A85EF80A019D6
:103520005841CD47AA8A630CF7068329C901032AAB
:103530000401CD4723A03A0123A2FA0063C0490346
:103540004C54E56737070004938787947D17A1469D
:10355000130604015A85EF40A04D48D41048585432
:10356000D28763C6C70693973900BA97984098C325
:10357000D840D8C38327C9018507232EF900DC4032
:1035800093F70704B1C35C30918B9DCF90405C32C0
:103590008D8B9DCBA2855A85EF30400335A08329C2
:1035A00005008327C9014C54E3D1F9F893973900FA
:1035B000BE95DC41D840B98F93F7F703BDF7268657
:1035C0000145EF90007135D14E856FC07FF693961F
:1035D0003700BA9623A20600850761B714455845FF
:1035E000AA876396E60218419546630DD70099466F
:1035F0000145631FD70089C5DC439CC1CD47DCC1B1
:1036000005458280F5DD5C618D479CE1CDBF0145BC
:103610008280EFC2BFEE01112A892E8432852C00F0
:10362000B284B689EFF09FFB09E5014505616FC0E3
:103630003FF00C084E85EFF07FFA65D9AD4763C0C7
:103640008704994763C087048D476305F406930791
:10365000B4FF05476370F70683278900380814080C
:1036600088533000A285EF4050667247CD47631201
:10367000F70699479CC0E247DCC0054545BFB54702
:10368000E31CF4FC3247CD47631FF700A2473ECC52
:103690005247CD47E302F7FC01462C080808EF909B
:1036A000E01A5DF959B701462C082800EF90001A7E
:1036B0002DDDF9BF5247CD47631BF700C24753F7D3
:1036C00007D0D30700F0D327F7A0A5F371B742675F
:1036D000CDBFE267D3A7F7A0A9DB530700F0D3A7BC
:1036E000E7A0A1F795479CC0DCE041BF93F7051028
:1036F00091EB8347A50263C7F5008347C502FD1719
:103700002306F5028280EFC21FE19C419D461842CC
:103710004111638CD700630CD702FD547D54A685FC
:103720002AC6EFF0BFFCA28529A8C041FD5463134F
:10373000F7004442E3D584FEA2852AC6EFF01FFBC2
:10374000A6853245EFF09FFA41016FC01FDF7D541F
:10375000CDB71841939725008505185B0D8E9356BC
:10376000F6413E97B3C7C600958FB706020063CAFD
:10377000D700EFC25FDA0845E56593854595EF30E0
:10378000900B1C43FD163696CA07C9833A06D18FA3
:103790001CC3828098419D476315F700CC416FF0B0
:1037A000FFF482800859939725003E95635FB0002F
:1037B0000327C5FFE967938787921377F703BA97C3
:1037C0008387070063D3070071158280EFC2BFD4DF
:1037D0003284EFF03FFD1841930730029376F703F0
:1037E0006391F6049306F00F935777016303D402B5
:1037F0006301F4029167938707FC1A047D8CF177CB
:103800009387F7037D8FB367E4001CC105456FC044
:10381000DFD2B7C67F009A07758FD98F93E727024B
:10382000EDB70145EDB7EFC21FCFEFF0BFF718417D
:10383000F1769386F6039357670093F7F70F93B7E4
:103840001700758F9A07D98F1CC16FC01FCF1C59E5
:1038500013972500BA9788438177850739813E956C
:10386000FD576304F50085052E958280EFC21FC9C0
:1038700041112A84B2843689BA897D5B63956501DA
:1038800041016FC0FFCA832A04002EC65685EFF09F
:103890001FFCB2454A862A8A5685EFF03FF3B245AF
:1038A000268611E14E862285EFF0BFEAD285F9B770
:1038B000EFC27FC618492E890C4D04413A86930603
:1038C000F00F2A84EFF09FFAFD571CCC1848DC4813
:1038D0006341F70208448C58E567085137070080B8
:1038E000938707977D17914613864401EF40401454
:1038F00088D818489C580A07BA9723A02701184867
:103900009C4C6341F70208448C5CE567085137071B
:103910000080938707977D17914613868401EF40B7
:10392000201188DC1C44184894479C5C0A07BA970D
:1039300094C30848930715001CC86FC01FC0EFC28E
:10394000FFBB41112A847D599309300263962501FA
:10395000014541016FC0DFBD04402EC62685EFF052
:103960007FE41C4193F7F70363983701B24526853E
:10397000EFF0FFEDAA85D9BF0545E1BFEFC2BFB9A2
:1039800041112A847D596395250141016FC0FFBA19
:1039900004401306F00F2EC62685EFF03FE3B24534
:1039A0002685EFF0DFEAAA85F9BFFD57630EF60220
:1039B000EFC27FB62A84884141116316F50090C199
:1039C00041016FC09FB703290400FD54AA852AC492
:1039D0004A8532C6EFF0BFE7A2453246E31895FEAE
:1039E0002285EFF01FD7E9BF8280EFC2DFB2104D12
:1039F000FD57B785FF7F01111CCDF9052A8432C61A
:103A0000EFF01FEB32462ACE6C082285EFF0FFF96B
:103A1000724505616FC07FB2AA870849C8CB828012
:103A200018492E869305850158C96FF01FF8EFC21B
:103A30009FAE1C496396C700EFF09FFE6FC0FFAFBB
:103A400032879306F00FEFF07FE2CDBFEFC21FABDE
:103A50001304160091671A04938707FC7179AA84EE
:103A60007D8CFD591309F903639435016FC05FAC78
:103A700088409397250018593E971C43B3F72701B8
:103A8000C18F1CC3EFF0BFDCAA85F9BF3A07DE0681
:103A90004D8F558F1A06B365C7006FF07FE11C4943
:103AA0005849635AF70618418A07F117145BBE9606
:103AB00003A8060091471377F803631EF704935792
:103AC000680093F7F70F935878013387C500BE98C5
:103AD00063C1F50413831800634FB30263D3B700C7
:103AE000BE851166130606FC93976500F18F71760B
:103AF0001306F6033378C800B3E70701A6077D175E
:103B0000A5836353170146870D8F5E07D98F9CC22B
:103B10008280E355F7FC9306F6FF01472E86914518
:103B20006FF0DFF69306160001472E8693056002BC
:103B30006FF0DFF5BA06D58D1A06D18D6FF05FD71D
:103B4000EFC27F9DB70704003284635BF600B28644
:103B50002E868545EFF01FFEAA8426856FC0FF9D47
:103B60002E86814689452A89EFF0DFFC9315640093
:103B7000AA8493E5E5024A85EFF09FD3F9BF834716
:103B8000C502BE951C419827635FB7001307E00F7D
:103B9000635AB700EFC23F980845E565938585975E
:103BA000EF3060498CA78280EFC2FF962A84AE84F2
:103BB000EFF0FFFC8347C402B38597002306B402ED
:103BC0006FC0BF97EFC23F95DC21411130002EC47A
:103BD00093E70704B2853EC6EFF0FF9241016FC044
:103BE000DF95EFC25F93411189472EC03EC22EC4BC
:103BF000CD4730008A853EC6EFF0FF9041016FC08F
:103C0000DF939C41B5466394D7021C41D841050619
:103C10009C5B0A073A06BA9737C77F00798E9843AC
:103C2000B74680FFFD16758F598E90C38280B946C6
:103C30006399D7021441DC410506945A8A07034769
:103C4000C502BE969C425E061A07A607A583D18FC1
:103C500071761306F603F18FD98F9CC285456FF0FC
:103C6000BFF482809C413547639FE7009D479CC11C
:103C70001C41D8419C5B0A07BA979C43998393F7F0
:103C8000F70FDCC1828039476390E7021841DC41BD
:103C9000B7060001185B8A073E971C43A607A58359
:103CA000D58F1CC3B1479CC18280EFC2DF869C4187
:103CB00029472E84638FE702636AF7002147638EEA
:103CC000E7002547638EE7006FC03F87CD170547A4
:103CD000E36CF7FEEFF01FF9C5BF9D471CC0EDB7C1
:103CE000CC41DE0593E55500EFF09FBC48C0B147DD
:103CF000F5B703994500AA84CA85EFF03F9F783055
:103D0000A14799456317F7006C202685EFF01F9EA9
:103D10009D4574204A8701462685EFF03FD7F9B7C5
:103D2000EFC26FFF41112E89AA843284EFF0FFF7B2
:103D3000832609002D479387F6FF6363F7026567C3
:103D40008A071307879ABA979C4382870546A285FC
:103D50002685EFF0DFD49D47232289002320F90038
:103D600041016FC08FFDF916014793B616002286F8
:103D70008D452685EFF09FD1F9BF03264900A28526
:103D80002685EFF0FFDBC1BF8727490030008D4754
:103D9000B28526853EE43EC6EFF0EFF62A86C5B72B
:103DA000832549002685EFF0DFE3CDBF98408327C8
:103DB00049001166145B8A077177BE969C4213070F
:103DC000F703130606FCF98F13176400718FD98F60
:103DD0009CC251B783264900E38F86F601472286AD
:103DE000814541BFEFC28FF14111AE842A843289EF
:103DF000EFF01FF39840AD476318F700D04093856C
:103E000084002285EFF07FBA8C4483A9C400638CC0
:103E100035072285EFF0BFB211E5CE852285EFF0A0
:103E20001FB225CD9840AD47FD5A6306F7002285A5
:103E3000EFF0BFBBAA8A1C48054781465CC84A868A
:103E40008D452285EFF09FC41C488D452A8A5CC8A9
:103E5000014785464A862285EFF05FC3AA89D68549
:103E60002285EFF0FFBB1048CC44528750C8CA8669
:103E7000228532C6EFF09F9F32468C444E87CA8619
:103E80002285EFF0BF9EFD579CC4DCC49D4723A252
:103E900024019CC041016FC0AFE9FD597D5AE1B7D3
:103EA000EFC26FE79C4131472A84AE843289639D1B
:103EB000E7021C41D8419C5B0A07BA979043ED4743
:103EC0001377F6036315F7021C491347190081465F
:103ED000FD171CC95D8293052002EFF03FBB2285D0
:103EE000EFF0BFB06FC06FE51D47638DE7008545FC
:103EF0002285EFF07FCB0346C402A68522857D167E
:103F0000EFF01FE2A6852285EFF0DF88D4404A87D4
:103F10001306F00F930530022285C1B7EFC2AFDF61
:103F20002A84AE84EFF07FD8A6852285EFF09F86A5
:103F300022858545EFF05FC70346C402A68522852A
:103F40007D16EFF03FEA6FC04FDFEFC2CFDC2E846B
:103F5000AA84EFF09FD518409D476313F7021844D9
:103F60005C445040630BF70083C7A402634AF60029
:103F7000A2852685EFF01FE7504032856FC0EFDB4A
:103F8000A2852685EFF09FF9C5BF9841A547631626
:103F9000F7009845DC456304F7006FF01FFB828053
:103FA000EFC26FD79845DC456306F700EFF0FFF9E5
:103FB0006FC0AFD8EFF07FCFE5BFEFC2CFD54111D3
:103FC0002E84AA84EFF0DFFD1C401547FD176364C3
:103FD000F70665678A071307879DBA979C43828710
:103FE00085473EC430003EC6B28529A802C4854735
:103FF000D5BF9C4402C63000DC578A853EC093077B
:1040000050043EC22685EFF00FD029A04C402685F3
:10401000EFF03FBD48C0484091471CC09307F00FE8
:1040200063CBA7001365051041016FC00FD15C6021
:104030008D473EE445BFA2852685EFF01FF1EDB721
:10404000EFC2CFCB83A90500A547AA842E8432896D
:104050006382F902A947638EF902A1476396F902C8
:10406000B285EFF02FF35040CA852685EFF09FD739
:104070006FC00FCCB285EFF05FED54402A86014748
:10408000A5452685EFF09FA0CA852685EFF08FF025
:10409000C5B7F831A1476303F700A149CA85268552
:1040A000EFF0BFF18316440070202A87CE85D1BF80
:1040B000EFC26FC641112A84AE843289EFF0FFE867
:1040C000D440A685228536C6EFF0CFEC0346C40265
:1040D0009D479CC0D0C02285894532C4EFF0DFAC3B
:1040E000CA852285EFF07FEDB24622462A87B14588
:1040F0002285EFF0BF99CA852285EFF0AFE9410133
:104100006FC0AFC3EFC22FC12E84AA84EFF0FFB9F6
:104110001C4019476360F7020D477D566364F70240
:1041200009476381E7020146A2852685EFF05FD744
:104130002A8609A82D47E398E7FE4C408840EFF017
:104140008FEE50409305C4002685EFF01F860C4487
:104150002685EFF0FF8CFD571CC46FC00FBEEFC269
:104160008FBB2E84AA84EFF05FB41C400D477D56B0
:104170006388E7002D476382E70205476391E70202
:10418000930584002685EFF05F824C442685EFF08E
:104190003F89FD575CC46FC04FBA5040D5B7054644
:1041A000A2852685EFF0DFCF2A86D9BFEFC2AFB652
:1041B000DC412E84FCA1B285EFF03FE014404AA020
:1041C0002547A5476383E600A1477CB0A9471CC0EB
:1041D0006FC0AFB6EFC22FB4CD4732846387F5020C
:1041E000AA8463EDB700AD4763FAB702B1476383B2
:1041F000F502A2852685EFF05FDC19A8D147E39A86
:10420000F5FEB285EFF0BFF521A0B285EFF09FEF8C
:104210006FC0AFB2B285EFF07FD0DDBF8145328590
:10422000EFF0CFBB75F5F1B71C4118499C5F0A0749
:10423000BA9723AEB7FE8280EFC24FAC89474111D7
:10424000AA843284638CF5042E89B68963F8B7009A
:104250008D47638CF50041016FC08FADE566938695
:1042600046A7B105EFF0EFBA7DF5A2852685EFF000
:10427000DFCD2AC6A2852685EFF0CFD1B2469305C1
:104280009901014701462685EFF05F80B14748C09C
:104290001CC0CE852685EFF03FF975BFB285EFF0E3
:1042A000DFA014402D479387F6FF6362F70265672E
:1042B0008A071307079FBA979C43828789471CC0C8
:1042C00039A08D47EDBF4C408840EFF0CFD50C446E
:1042D0005C4426854CC41CC4EFF04FEA0C44268590
:1042E000EFF0CFE98DBF9D47638DF60085452685AC
:1042F000EFF09F8B03C6C402A28526857D16EFF0E2
:104300003FA2A2852685EFF0EFC84C402685DE054A
:1043100093E5B501EFF0CFD948C0B1474DB7EFC233
:10432000EF9D4111AE89B685B2842A843A8936C69A
:10433000EFF0BFC82AC4A6852285EFF01FC8324619
:104340002AC2A6852285EFF00FBC2247924601467D
:10435000CE852285EFF08FF3B147C8C09CC0CA85D7
:104360002285EFF07FEC41016FC08F9CD14763EB5A
:10437000B712EFC2AF983A8A656793972500130783
:1043800007A2BA979C4341112A84AE89B284368928
:104390008287B685EFF07F91D0449305C9002285CE
:1043A000EFF0AFE04146CA852685EFC0CF994101C5
:1043B0006FC00F98B685EFF05F8F9044930589002A
:1043C000F9BFB685EFF0DFBD832A0900B1476393DB
:1043D000FA04184083274900832907038A07754791
:1043E000BE9983A7090093F7F7036395E702A685B3
:1043F0002285EFF02FBA83A70900D840A607A5832E
:104400005E07D98F23A0F9008327490023A0540118
:10441000DCC071BFCA852285EFF05FB05287CA86C3
:104420002686F5452285EFF09FEF51B7EFF06F9E9E
:104430003DFD5287CA8626869385D900E5B7184286
:10444000914754426314F70093E60610CA8522850B
:1044500036C6EFF09FB62A8A4A86A6852285EFF0F7
:104460008FAAC147B2466386F9029387F9FE0547D2
:104470006365F70236870546D2869385F900228563
:10448000EFF0CFE02285EFF04FD6AD47C8C09CC01B
:1044900039BF52870146FD45DDB7528705469385F2
:1044A0002901F1BF8280EFC20F8793072003130415
:1044B000F6FF3344F402FD572A89AE840504639362
:1044C000F60081469307F01F63CE87002287268679
:1044D0009305B0024A85EFF06FDB8504230699024D
:1044E0006FC0AF85014726869305B0024A85EFF07D
:1044F000EFD91A049365E4024A85EFF06FBBF1BF70
:10450000EFC26F812A84EF10204FAA852285EFD059
:104510006F9005456FC06F82EFB2FFFF2A84EFC036
:10452000DFBEAA85814601462285EF10804D6FC00F
:10453000CF80EFB25FFE2E84AA84B28522853289B5
:10454000EFC0FFAF19E9E565938545A82685EFC063
:10455000BFFC7D594A856FB05FFE2285EFD0AFE684
:1045600009E92285EFC07FBA09E5E565938545AA8B
:10457000F1BF4A86A2852685EFC05FB24A86A6852E
:104580002285EF106036854763EBA7022285EFC0D6
:10459000DFB72A89930515002685EFC05FAA11E9C8
:1045A0009345F9FF2285EFC03FB7E565938545AC9C
:1045B00071BF4A86A6852285EFC05FAE61BF054602
:1045C000A6852285EFC09FAD69B7EFB2DFF42A84DC
:1045D000EFD06F85AA852285EFD0CF8309456FB0D4
:1045E000DFF5EFB25FF3194685452A84EFE0CF8906
:1045F0002285EF600048AA8485452285EFC0FFBC74
:1046000022850546A685EFC07FA905456FB0FFF25C
:10461000EFB27FF02A84EFF0DFFC9165228505463A
:104620009385E562EFC0FFF805456FB01FF1EFB26B
:104630009FEEB7C5F0FF41119385759D2A84EFC0A9
:104640001FE12AC62285EFC05FACB2452A862285CB
:10465000EFF03FEE63590502FD552285EFC09FB88C
:104660009147631FF50085452285EFD03FA2F9559C
:1046700022850546EFC0FFAC89452285EFD06FE467
:104680002285EFD04FE141016FB03FEBEFB2BFE8C1
:104690008545AA84EFC0BFDB2A8401E9656613065D
:1046A00006AE85452685EFD0FFA622856FB0FFE8D0
:1046B000EFB27FE659712A84EFF05FFD631BA4001F
:1046C000E565938505AFEFC03FE5054565616FB0D2
:1046D000DFE6AA84EFD02FCF01C985476315F50225
:1046E000E565938585AF11A87000814526857526FF
:1046F0006357A000E565938545B02285E9B7268517
:10470000EFC0BFA071FDE5659385C5B0FDB7EFB201
:104710009FE04111AA84EFF07FF72AC62685EFC0FB
:10472000DF9EB2451306F5FF2685EFF09FE0635F3D
:10473000050081452685EFC0FFED26850546F95524
:10474000EFC03FA0094541016FB03FDF2A84854596
:104750002685EFC03FEC268505469345F4FFEFC064
:104760005F9E13051400C5B7EFB2FFDA07A5C18736
:10477000930540042A84EFE04FBE22851D46814503
:10478000EFC0DFFFE56522850146938505B4EFE0C4
:104790004F9D05456FB07FDA1C4148499C43DC477B
:1047A0009C5B1D8D09857D158280EFB2DFD61C4193
:1047B0009C43DC47805F01C8EFF01FFE0A052A9486
:1047C00008406FB09FD77D55EDBF18258547631A08
:1047D000F7005C4910519843D44F118FB29694C39F
:1047E000D8CF8280EFB29FD1696A817A4111AA84C1
:1047F000AE893289130B5002130A8A92850A4E86BB
:1048000093051900268536C6EF10A052B24688C21D
:104810006310051A814801467D5413039002130E5C
:104820003002914E794FC68563C93803FD5763093D
:10483000F40A9858931724003E970C43B14713F697
:10484000F50363EFC708656893172600130888CB44
:10485000C2979C438287A2895DB79C581397280012
:104860008508BA979C4313D7670013F8F7031377AB
:10487000F70F63610B0363600E056303D803630FD7
:10488000E80352988347080093F70704C9DFE31C45
:10489000E9F829A8E31768FE0507E35627F939A0C8
:1048A000E343E9F8DD83BA97E3CF27F72E84E3DC0F
:1048B000C5F67D548DBFE348E9F6CDBFB983D697E1
:1048C000C697E3D2F5F6E3C0F9F6E35EF6F43E866A
:1048D00099BF13D97501998193F5F50FE34DB9F699
:1048E00041016FB0FFC493D9E5009D4793F9F91FCB
:1048F000DD81631BF60222868505268536C6EF100C
:104900004043B2462A894E86A28526857520630ECD
:104910000902E565938505CB4A85EFB05FD415E5BF
:1049200065651305C5C86DBFBC408E05AE9703A96C
:104930000700630809004E86A28526854109AD2837
:10494000C9BF4E86A285268585286565130585CA5B
:1049500041BFBC40DD818E05AE979C4399C7C1071E
:1049600065659CC2130545C9A5BFE1679387C72C40
:10497000C5BF8547B9816304F6004C439981DC5477
:104980008E051146AE97D8433D8BE31BC7F49C437D
:1049900065651305C5C9C1079CC299B7B98113F6EE
:1049A000F51F2685A28509286565130505D10DBF6C
:1049B0006565130545C82DB7EFB2FFB5137806102E
:1049C00036846305080258559377F6EF8E07BA9739
:1049D000D84391463D8B6308D700E1679387C72C86
:1049E0001CC06FB09FB59C43C107DDBFEFF09FDFD8
:1049F0006DD50307050093073006E310F7FED5B722
:104A0000EFB27FB12A844849411102C63E31898BF9
:104A100099E761651305C52841016FB01FB21C41BC
:104A20009843814770239306070163C8C70204496E
:104A3000B3849540E3CF04FC5C41E3FCF5FC03291F
:104A4000C700EFF07FD5AA8513D6344074004A859D
:104A5000EFF05FD92A8605E56DBF03A80600910631
:104A6000032808006399050358478E073843BA970F
:104A70009C4391CFC10765663EC6130646C9B24640
:104A8000E5659385C5CE2285EF30B05F71B7E167EC
:104A90009387C72CCDB7850749BFAA872E8563C8E2
:104AA0000500D84B9387470319C96314F7000145E4
:104AB000828018477D15CDBF38D205458280E31D21
:104AC000F7FE8280EFB23FA201112E892A84B28BB9
:104AD000EFF0BFCF830609001307E003639AE608EF
:104AE0008328C4000509014B138D88FF2326A401E8
:104AF00003274D00994681447D8B6314D70083249E
:104B00000D0093874B024A8A8549930AC006130C0D
:104B1000E006930C30053EC2930D600603070A00C1
:104B200029EF930560064A85EFE0D04911C95C443E
:104B300003270D0098C303274D00D8C3A1075CC409
:104B40002285EFF09FC89305C0044A85EFE09047A7
:104B500001CD91C4D820930760026318F7205C440C
:104B600023A20700A1075CC44E8505616FB07F9B3F
:104B700003AB0B06032D0B00A5BF630E570B63CDD4
:104B8000EA00630597056307B7019306C004630352
:104B9000D7008149050A59B7930740076303F70E09
:104BA000930750076306F70AE31587FF630F0B1699
:104BB00003572B0293760710F9CE616713078743DB
:104BC00023A2EB0065671307C7D011AA91C4D420B4
:104BD00013076002639AE6026567130747D023A8AC
:104BE000EB007D5723ACEB006567FD56130707D03C
:104BF00083A50B01124523AEDB0023A6EB001306B1
:104C0000C003EF30F06379B7D444B84609CF410709
:104C100023A8EB00D852945623ACEB0009EB616754
:104C200013070729F1B76567130787CFD5B76567FE
:104C30001307C7CF75BF7D5563090B0003572B02C0
:104C4000098B01C75A85EFF05FB623AAAB0099B76D
:104C500089E823800B0205472381EB02A3800B0226
:104C600015BFF8202380EB02D42013076002E384F1
:104C7000E6FED84474332381DB027823A380EB0261
:104C800011BF014763060B0003572B02137707027E
:104C9000A381EB0201B71377070241EB03258B00D9
:104CA0003A31937627003AC6C9C21441944203A30D
:104CB000C6001AC4EFF05FAE224332471316250038
:104CC00083260303118BAA85B296904201CF6167B8
:104CD0001307C72C23A2EB006567130787D123A412
:104CE000EB004DBD1377F6039306A7FF13053002C3
:104CF000636DD50265658A06130505D3AA969442AD
:104D000082860147144871070A07369758474107BA
:104D100045BD198293864B001376F60F1A85EFF086
:104D20007FAC23A4AB00E31705E661671307C72830
:104D300023A4EB0023A20B00B1BD6567130707D2C4
:104D400023A2EB0069BF651775BF494765BF4D4793
:104D500055BF114745BF594775B7154765B7514707
:104D600055B7554745B7054771BFDC442285014912
:104D700083AA8703EF60C0465C44130750042A8A65
:104D800088C3D8C3A1075CC485473ECC3ECEDC4473
:104D90009C4FE35BF9DC93172900D69790433408C6
:104DA000D2852285EF60205B0509D5B7EFB2AFF65B
:104DB0005D712A842E8715C6B285C1051306C0030E
:104DC000480836C63AC4EF30B0472247B246E565D8
:104DD0005008938505DC2285EF30B02A61616FB001
:104DE000CFF59307F003FC82DDB7EFB2CFF27C4D35
:104DF0002A848DC74C45185105463E97938705F880
:104E0000B45F94C1F45FD4C11443B4DF5843F8DFF6
:104E1000938785005CC5E115EF00F02A894522855E
:104E200045245D7132DC36DEBAC0BEC2C2C4C6C61D
:104E30001C4922D426D2DC4706D644492A8463562C
:104E4000F0002EC4EF10B04CA2453018228532CEAF
:104E5000EF30F024BE30898B85C39C402AC626855E
:104E60009C43DC47B04732C4EFF03F942246B24542
:104E7000AA862285EFF09FF32285EFF01FF7EFB2AD
:104E80008FE941112A8432C6AE84EF7060132AC4C0
:104E9000A6852285EFF0DFB6A2463246E5652A8771
:104EA0009385C5DC2285EFF0DFF7EFB2CFE6DC417A
:104EB0008546BD8BF51763E3F600B285656613067C
:104EC00086DEEFF0DFFBEFB26FE3D8418D47411193
:104ED000AA842E84B2893689631AF7009C613EE663
:104EE0004E844A86A2852685EFF07FF96C002285E4
:104EF000EF70F00F75F5F5B7EFB2EFE1D841CD47A0
:104F00004111AA842E8432896310F7029C413EC667
:104F10004A84A2852685EFF0BFAEE5652A86938593
:104F200045DF2685EFF0FFEF01466C002285EF702C
:104F3000F01179FDF9BFEFB20FDE411132892A84F9
:104F4000EF700008AA84CA852285EF706007AA85E1
:104F50002AC62685EFB0AFF0B246268619E5E5658C
:104F60009385C5E12285EFF0DFEBE565938505E4E8
:104F70002285EFF01FEBEFB20FDA3C5544490329CD
:104F80000507FD173CD52A8499EF9377890081CFD7
:104F90007C513CD5BE3013F7070435C393F7F7FBBC
:104FA000BEB06FB08FD913794900E30C09FEBE3053
:104FB000014913F707047DF39C40D4489C43DC4728
:104FC0008C5B9C5F3387B640A9EF9147630FF70670
:104FD0001C4C63FCD706DC48142405471CCCE39228
:104FE000E6FC631B0902F117DCC8BE30854522854B
:104FF00093E70704BEB05C44E1179CC0D1207D5606
:105000008D4513794900492E631B0900DC4814249F
:1050100005471CCCE397E6F8054738D4E9B70549BE
:1050200061BF3386E70011450326C6FF630BA70067
:10503000184C6378D7000D8FBA9783A7C7FFE30C8E
:10504000F6F889452285892E79B77D56DDBFEFB206
:105050008FCC9147AA843284638CF500994763848E
:10506000F5025C4503A787FF18C283A7C7FF39A0D5
:105070001C49BC5F1CC2DC2393E707045CC021040D
:10508000C0C46FB08FCBE5655D46938505E6EF50F4
:10509000905608C05C21CDB7EFB2EFC744450E066D
:1050A0002A84918C44C5EF50F05888C05C21094592
:1050B00093E70704DCC05C44A1075CC46FB0EFC792
:1050C000EFB26FC5185901CB232CB7121305870017
:1050D0008545EFB04FD204490CA52A84BC58985B93
:1050E00011CFD84793068700D4C754453E8503A601
:1050F00086FF10C383A6C6FF54C3D937FC5489CF9B
:105100005045EFF0DFF45C485844D44363F3E600C5
:10511000D8C3FC5422858297EFC050538DCDEFB297
:105120008FBFAE868305060041112A84368532C6BC
:1051300036C4EFE02069A246324619E9E565938559
:1051400085E72285EF30E0738D452285EFF05FF72C
:1051500041016FB08FBE8280EFB2EFBBAA8488415D
:1051600041112E841C411387F7FF18C185CF5C4184
:105170001387170058C19C236D474C586398E7026A
:105180006566130646EA2685EFF05FF9105C0C4071
:105190002685EF700048AA852685EF00701F410123
:1051A0006FB0AFB9EF90A019AA87F9B765662685E9
:1051B0001306C6EA3EC6EFF07FF6B247185C0C4015
:1051C00093060401130644002685EF504048E1B7DA
:1051D000EFB26FB48357E5064D7118083EC21C59F3
:1051E0002AC018D928082EC432C6232401143EC868
:1051F000EFB02FBA09E5B2450245A24782970247B0
:10520000C247032581141CDBBA8712472397E706A0
:1052100071616FB08FB2EFB26FAE13871500B70731
:1052200000200451032A05066364F700EF20207A6A
:1052300013993500AE89CA8613163A00A6852A84CA
:10524000EF20C07908D063433A035C44130989FD19
:105250002A99858FAA975CC45C5023203407232E9B
:10526000240181EF5C4885E36FB08FAC93173A005F
:10527000AA9723A20700050AF9B79843058F2A9732
:1052800098C39C47F9BFD843058F2A97D8C3984342
:10529000058F2A9798C3BA33098B09C7984B058F96
:1052A0002A9798CB9C47C1B7EFB2EFA63851B746C3
:1052B0000F009386062463D5E6009945EFF05FE082
:1052C0005C4510512A84918F8D87BE9593171700E6
:1052D000950563D3F600B68763D3F500BE85B7475F
:1052E0000F0013870724635DB700938587302285FD
:1052F000EFF07FF2E1659385C53F2285EFF07FB245
:105300002285EFF05FF16FB04FA3EFB2CFA0404521
:105310005C494111A1EB1C5138512AC61D8CB7477D
:105320000F000D8493870724050463D3E704EF502F
:10533000A053B7470F001387B72332456341870255
:10534000A145B345B40293870724A295A90563D369
:10535000B700BE853C5163D4F500EFF0DFEB4101AF
:105360006FB0AF9DD8436373E4003A849C475DB748
:10537000EF50C06C7DBFEFB20F9A58455C4D2A8448
:10538000998F21476345F7008545EFF0FFF15C44B5
:10539000A1075CC46FB06F9AEFB24F96032A8505E0
:1053A000597163040A06834745072A84B9CF4449E3
:1053B00058451C5103A944002EC6B309F7403309D0
:1053C000F9405C4D32D0A6D6998F1307000A634589
:1053D000F700D145EFF05FED5C446C0022859387C8
:1053E000070ADCC0230A0406BE3093E74700BEB0BC
:1053F000029A8547230AF4061C503E9923A22401F1
:10540000CE975CC4BE30ED9BBEB065616FB04F926D
:10541000EFB2CF8E3859039A0502AA8493776700BA
:105420002E8936848DC3098B19CB832905028545C6
:10543000B30936417D56EFF03FF690504E968327E4
:105440008900DC4B9CCC8327890003280900DCC839
:1054500063030A0285476307FA00FD576317FA04DE
:10546000014715A819E0138641921C422320F80039
:105470005C422322F80093173A003304F8000545F4
:1054800015A093173700B306F800B2978C430507B1
:105490008CC2DC43DCC2E34687FE9317340033043E
:1054A000F8000145C0C46FB0AF888146635A440319
:1054B00063CB8602635304000144E35E44FB13178D
:1054C00034004297232207000504C5BF1397360016
:1054D000B305E80032970843850688C15843D8C110
:1054E000E3C646FF49BF13973600B305E80032977D
:1054F0000843850688C15843D8C15DBFEFB2AF816C
:105500004049AA843E3013F7070109C7BD9B3EB04E
:105510005C487CCD03170402FD576317F700DC4499
:1055200058406373F7005CC01C48104C2685829776
:10553000D04493173500AA861D8EA2852685EFF0EC
:105540003FED6FA09FFFEFA21FFD2A8481C58C4114
:10555000EFF0DFFA930444035C48639497006FA074
:10556000DFFDBE33898B91E785452285EFF01FF97A
:10557000E5B72285EF70D0322285EF703043E9BF66
:10558000EFA2FFF62A84AE84B289594A930A6002D8
:10559000194BD4400329C400584C93F6F603330743
:1055A000274163804619638A560F639F661B9C40A0
:1055B000330999401359394083AAC7000D87930BCB
:1055C000F9FF03CB8A006343EB021C48032A040261
:1055D000DC47338A44416355F0002285EF102053A5
:1055E000DA852285EFF05FCC0450D29483C77A002D
:1055F00083C66A0063850716E157B307F902032AD9
:10560000C4000147D2976357D700A107634E7711B3
:105610006348D7125C4803A9C700631609002285B6
:10562000EF5020222A89232A24010E0B2328490126
:105630005A9A231039032320990023224901232653
:105640004401094783A70A032311E9023858232A92
:10565000F900058B29C3032789009107232AF90044
:105660003E338145898B99CF5C4B1307500283A74A
:10567000C7FF93F7F7036397E7009307200223110F
:10568000F90291457D562285EFF01FD1832749010C
:10569000F117232AF900014559A09C4003AAC7002D
:1056A0009307000A63C3E7021C4803290402DC478E
:1056B000338924416355F0002285EF104045D145E0
:1056C0002285EFF07FBE0450CA945C4803A9C7004E
:1056D000631609002285EF50C0162A895C44232AEC
:1056E0002401231039039387070A2322F9003C5829
:1056F0002320990023110902858B91C77D5681458E
:105700002285EFF07FC92285029A50449317350015
:10571000AA861D8ECA852285EFF09FCF05456FA012
:105720009FE003AA0400ADBF50440507930586001F
:105730004CC48C430CC2CC434CC223A20700E1B53D
:105740005C4405071386870050C423A20700C9B52F
:105750005C44850B1387870058C423A20700E3C964
:10576000DBFE138A84007DB5A14763C3E7021C48B2
:1057700003290402DC47338924416355F000228564
:10578000EF10E03885452285EFF01FB20450CA942F
:105790005D46A6852285EF60A07E5C411947AA8BF5
:1057A000BD8B6389E7006566130646EBA6852285F7
:1057B000EFF0EFEC0329C40001469306790033872C
:1057C00096400D8363E4960013163700814563E627
:1057D000960093153700B305B040CA95A14763E51D
:1057E00096008547998F8E073305F900EFA01FD7E4
:1057F00083A70B002109232624019CC083A74B000B
:10580000DCC041BBEFA23FD194414C454449939742
:1058100036009D8D1C252A8499EB7D56E115EFF00D
:105820003FD601E52285EF7070186FA01FD12304C9
:1058300005001C51D84CBA979CC0BE30898B81CBD7
:10584000EF70D01681452285EFF0FFCFF9BF9C485D
:1058500089CB904C854582974C4493173500AA8696
:105860009D8D2E862285A685EFF09FBAE1BFEFA21F
:105870009FCA8357E5061307700C2A848507C20761
:10588000C1832317F5066372F7021307800C639731
:10589000E700E5659385C5EBEFF0AFD81307000E81
:1058A0006375F7009945EFF0BF812285EFF05FCD7A
:1058B00001E52285EF70900F8357E406FD1723174B
:1058C000F4066FA09FC7EFA21FC58357C5062A84A1
:1058D00085072316F506EFF09FF98357C406FD17D9
:1058E0002316F4066FA07FC5EFA25FC11C2501112E
:1058F00032C68359C5062A8491EF58499307450358
:105900006301F702E565938505EDEFF0EFF80561BA
:105910006FA01FC205476386E700E565938545AA2A
:10592000EDB7A1E585472317F4069965231604060C
:105930007000938545802285EFF09F89FD57AA84EA
:105940006306F504854A156A26CE63D39A040329B3
:10595000440163180904504404A4A6852285EFF08D
:105960000FEF5C485844D8C325A083D7E50613073A
:10597000700C8507C207C1832317F406E377F7FA93
:10598000E56532469385C5EB228541B789473ECE12
:105990008357E406724523163407FD172317F406D0
:1059A000BDB783572902C18BA9C78327C9011050EE
:1059B00022853E96B28532C4AD242246A685228534
:1059C000EFF0EFE8835729022285232A2401858BF3
:1059D000230AF40623160406EFF03F9383274901B8
:1059E000700893056A547CCC2285EFF06FFEAA8480
:1059F000A1BF03298900B1BF0355C50613351500A2
:105A00008280EFA25FB10358C5065849AA87630F89
:105A100008001849385B6307A700E565938585EFA3
:105A2000EFF02FC0E565938545F2DDBF054588A7FA
:105A300003A8070208433305054148CF2A330989E3
:105A400011ED14CB91C210CFD44793C5F5FF8E054D
:105A5000AE9614C385453E85EFF08FE601456FA0F5
:105A6000DFADEFA2BFA98329C505411178CD032B76
:105A70004501834A4507035AC5062A843689EFF053
:105A80002FF5AA840DC5105022854A96B28532C6DC
:105A9000492A32462285A685EFF06FDB2285232A2C
:105AA0006401230A540723164407EFF01F86232EB0
:105AB0003405268541016FA0BFA7EFA2DFA583575C
:105AC000C506397136DC850754452316F5061C5189
:105AD000784D2EC295659D8E32DE938585155000DA
:105AE0002A8402CA02CE02D002D402D602DA02C44A
:105AF00002C8EFF01FF74246A245AA8481462285DC
:105B0000EF10D06D7246D2452AC481460606228522
:105B100002C8EF10B06C22568255814612062285CB
