:040000006F00D019A4
:1000040000000000000000007206000074060000FA
:10001400000000009A090000000000000000000039
:100024009A0900009A090000000000000000000086
:10003400C0DD00000000000000020000000000001D
:100044009A0900009A0900009A0900009A09000020
:100054009A0900009A0900009A0900009A09000010
:100064009A0900009A0900009A0900009A09000000
:100074009A0900009A0900009A0900009A090000F0
:100084009A0900009A0900009A090000B0D70000FC
:1000940064D8000014D90000C4D900009A090000F3
:1000A4009A09000052DB00009A0900009A09000036
:1000B4009A0900009A0900009A0900009A090000B0
:1000C4009A0900009A0900009A0900009A090000A0
:1000D4009A0900009A0900009A0900009A09000090
:1000E4009A0900009A0900009A0900009A09000080
:1000F4009A0900009A0900009A0900009A09000070
:10010400000000009A0900009A0900009A09000002
:100114009A0900009A0900009A0900009A0900004F
:100124009A0900009A0900009A0900009A0900003F
:100134009A0900009A0900009A0900009A0900002F
:100144009A0900009A0900009A0900009A0900001F
:100154009A0900009A0900009A0900009A0900000F
:100164009A0900009A0900009A0900009A090000FF
:100174009A0900009A0900009A0900009A090000EF
:100184009A0900009A0900009A0900009A090000DF
:100194009A0900009A0900009A0900009A090000CF
:1001A400000000000000000000000000000000004B
:0C01B4000000000000000000000000003F
:10020000130181F806C216C41AC61EC822CA26CC1B
:100210002ACE2ED032D236D43AD63ED842DA46DC76
:100220004ADECEC0D2C2D6C4DAC6DEC8E2CAE6CC46
:10023000EACEEED0F2D2F6D4FAD6FED8F3220030CF
:1002400096DA83A2419C23A02200F32510342EC00D
:100250009305000273A0458003A1C192EFE07019DD
:1002600003A3419C03210300824273901234D652AF
:10027000739002309240A2423243C2435244E2445D
:10028000724582551256A2563257C2575258E258FA
:1002900072598649164AA64A364BC64B564CE64C0E
:1002A000764D865D165EA65E365FC65F13018107DA
:1002B0007300203013000000130000001300000042
:1002C00013000000130000001300000013000000E2
:1002D00013000000130000001300000013000000D2
:1002E00013000000130000001300000013000000C2
:1002F00013000000130000001300000013000000B2
:1003000083A2C192938202E07390023403A1419CC4
:10031000024182403243C2435244E2447245825514
:100320001256A2563257C2575258E258725986494D
:10033000164AA64A364BC64B564CE64C764D865D61
:10034000165EA65E365FC65FD652A102739002307B
:10035000A2421301810782801300000013000000F5
:100360001300000013000000130000001300000041
:100370001300000013000000130000001300000031
:100380001300000013000000130000001300000021
:100390001300000013000000130000001300000011
:1003A0001300000013000000130000001300000001
:1003B00013000000130000001300000013000000F1
:1003C00013000000130000001300000013000000E1
:1003D00013000000130000001300000013000000D1
:1003E00013000000130000001300000013000000C1
:1003F00013000000130000001300000013000000B1
:10040000F322003093F272FF130380781203B3E2F9
:100410006200711523205500130585FA10C12115BE
:100420002320050081426387020071152320050007
:10043000FD12D5BF71150CC18280000000000000C4
:1004400000000000000000000000000000000000AC
:10045000000000000000000000000000000000009C
:10046000000000000000000000000000000000008C
:10047000000000000000000000000000000000007C
:10048000000000000000000000000000000000006C
:10049000000000000000000000000000000000005C
:1004A000000000000000000000000000000000004C
:1004B000000000000000000000000000000000003C
:1004C000000000000000000000000000000000002C
:1004D000000000000000000000000000000000001C
:1004E000000000000000397101436EC619A0397187
:1004F00041536AC866CA62CC5ECE19A039710153F5
:100500005AD056D252D44ED64AD826DA22DC06DE4B
:1005100033016140828241114AC026C222C406C60C
:100520008282B24D4101024D924C224CB24B4101AC
:10053000024B924A224AB249410102499244224462
:10054000B240410182802A8309CA838305002300C7
:1005500073007D16050385056DFA828015C22A8316
:1005600085466367B500FD561307F6FF3A93BA95C3
:1005700083830500230073007D163693B6956DFACC
:1005800082802A8311C62300B3007D16050365FE11
:1005900082802320150040C104C52326250123287D
:1005A0003501232A4501232C5501232E65012320E3
:1005B000750323228503232495032326A5032328DB
:1005C000B503232A250200FD24E127242505272839
:1005D0003505272C4505272055072724650727289B
:1005E0007507272C8507272095092724A509272883
:1005F000B509014582808320050040410445032957
:10060000C50083290501032A4501832A8501032B9F
:10061000C501832B0502032C4502832C8502032D83
:10062000C502832D050303214503007D24610729AD
:10063000850487290505072A8505872A0506072BCE
:100640008506872B0507072C8507872C0508072DAE
:100650008508872D050913B515002E958280102178
:100660009421050585056313D60075FA3305D64038
:10067000828001A05D655D711305857682E686E462
:100680008AE28EE012FE16FC1AFA1EF82AF62EF402
:1006900032F236F03AEE3EEC42EA46E872E676E4B2
:1006A0007AE27EE0EF20C13301A0EFF2DFE62A8498
:1006B000EF00901D89476310F502014685452285AC
:1006C000EF00503E014689452285EF00B03D4205CE
:1006D0004181EFC0B07A01458DB51385C195828007
:1006E000EFF27FE023AC019401448144014ADD6ACA
:1006F0005D6BE16B616CE16C094D0545EFE0804994
:1007000083AD8195638F0D028547E398FDFE9305C8
:100710008C842285EF00B06AD1452285EF00B0526B
:100720000546A6852285EF40E05E23AAA19463E8F2
:10073000AD060545EFE00046F9552285EF00B015FE
:100740006DBFEF000259AA84EF90405B2A84EF103E
:10075000C20301469305A06A2285EF00505D938590
:100760008A772285EF10400293054B782285EF00AF
:100770006253854519E981458147014781467D5688
:100780002285EF10E02AB335A0001385CB8323AA7E
:10079000B194EF200110854723ACF194B9BF014615
:1007A000FD552285EF005035AA8513850C85EF2075
:1007B000410E23ACA19549B7EFF2FFD509451129A8
:1007C000392AEFE0102DEFF0B10371651305052014
:1007D000EFE0D02EB707002083A5071F6165130542
:1007E0000586EF20010BEFF0710DEFF09106EFE0C1
:1007F000200801A0B71702409843B706FFF0411147
:100800001367170098C3D84337060200758FD8C303
:100810009843B706F7FEFD16758F98C39843B70641
:10082000FCFFFD16758F98C3D843B70601FFFD1670
:10083000758FD8C337079F0098C702C402C6984374
:10084000C166558F98C3B716024005679C42F18F69
:100850003EC6A24785073EC4B24781E7A247E39759
:10086000E7FEB71702409C4337070200F98FB5C770
:1008700085473EC632478547631FF704B7170240D6
:10088000D843B706C1FFFD16D8C3D843D8C3D84351
:1008900013670740D8C3D843758FD8C3D843B7066A
:1008A0003D00558FD8C39843B7060001558F98C3B4
:1008B000B70600029843758F75DFD843B71602401C
:1008C000719BD8C3D84313672700D8C32147DC42A4
:1008D000B18BE39EE7FE4101828002C661BF3717FC
:1008E00002405C43A146B18B6398D7065C435843F2
:1008F000C166C983BD8B758F8907C5466393D700D1
:10090000C94701EF3747024003270780418B09CFD2
:1009100037177A001307072021A8371702405843DA
:10092000B7060200758F6DD737173D001307079084
:10093000B387E702371702405443370700201307F5
:1009400007009182BD8A36971823B3D7E70037078F
:1009500000202328F71E8280B7177A00938707208C
:10096000D1BFB74700209387C7151CC1B7470020E8
:10097000938707C69CC1930700101CC28280B747AB
:100980000020938787101CC1B747002093870786F4
:100990009CC1930700101CC2828001A09701002017
:1009A00093814105177100201301C16517A501004E
:1009B0001305450C97F5FF1F9385C5641386419574
:1009C00063FAC5008322050023A055001105910597
:1009D000E3EAC5FE1385419597450020938585ED93
:1009E0006377B500232005001105E36DB5FEFD42D8
:1009F000739002BCFD4273904280A1629382028098
:100A00007390023097F2FFFF9382026093E232000C
:100A100073905230EFF01FDE97020000938202DAEB
:100A200073901234730020309C4513F7070113F8BC
:100A3000F70001C7D8413368E8008E2113F7F50F9E
:100A400031C318418146054E930E80023D4F930FEE
:100A5000800421433316DE00B3F8C500631016038B
:100A6000639AD70750C913962600B318CF0093C8CE
:100A7000F8FF33F7E8003316C800518F8506E39B73
:100A800066FC18C11307F00F6375B70454410146A3
:100A9000054E930E8002130F800421431307860036
:100AA0003317EE00B3F8E500631117036398D7031B
:100AB00058C9931826003D47331717011347F7FF0E
:100AC000F98EB3181801B3E6D8000506E31866FCE2
:100AD00054C18280E399F7F910C971B7E39BE7FD30
:100AE00018C9C1BFB7083000935605011317050197
:100AF00033731501BD8A418363530502B707014073
:100B0000DC4F63151305C1060D46B316D60093C618
:100B1000F6FFF58FC5E9370701405CCF82803708C3
:100B200001400326480063121307B70600F1FD16C3
:100B3000B377D60003264800F18E2322D800BDCD1E
:100B4000558112053315A700C98F8DA837061000EF
:100B5000698E05C20D46B316D60093C6F6FFF58F13
:100B6000DDD955811375F53F12053315A700C98FDF
:100B70005DB755811375F53F12053317A7009346EE
:100B8000F7FFF58FC9D9D98F79B7B7071000E98F6B
:100B900099CB8D47B397D70093C7F7FFF18FB7066F
:100BA000000FD58F69BF558112053315A7009347F4
:100BB000F5FFF18F3707000FD98FD9F537070140BF
:100BC0005CC3828055811375F53F12053317A7006A
:100BD0005DBF23A0A1968280371702405C43A146E7
:100BE000B18B6383D706B7177A00938707201CC1A0
:100BF000371602405C423707002013070701918334
:100C0000BD8BBA9794231C41B3D7D7005CC1544223
:100C1000A1829D8ABA969422B3D6D70014C55442B5
:100C2000AD829D8A36971823B70600209386461F0B
:100C3000B3D7E7005CC5584239830D8B369718232C
:100C4000B3D7E7021CC982805C4354434167C98320
:100C5000F98E37F7FF1F0326C7701167BD8B718FA1
:100C600089070DE345466393C700C947A9E6B74620
:100C7000024083A60680C18AB1C6B7167A00938661
:100C80000620A9A00947638DE7003D47638CE70074
:100C90004147638CE7004547638CE7000147F9B79C
:100CA000C947EDBF0547B547D1B70147BD477DBF30
:100CB0000147C14765BFB7160240D442370602005C
:100CC000F18EC5DEB7163D0093860690B387D70236
:100CD00019DF858329BF99C5371702401C4FC98F7B
:100CE0001CCF8280B7170240984F1345F5FF798DCE
:100CF00088CF82801E294A25ED8F4205418189C710
:100D00006D8D3335A000828001458280EFF2BF8077
:100D10001629F577FD17FD8EFE21DA250111D58FF5
:100D20001EA95625FD779387379FFD8EDE212A84E5
:100D3000AE84D58F9625D58FB625D58F5EA55E2935
:100D4000C207C18393F7F7CFD98F5EA968006935D1
:100D5000B747014093870780631EF402E247654767
:100D6000B387E7029840930640060A07B3D7E70225
:100D700033D7D702B3F7D702120792079387270317
:100D8000B3D7D702BD8BD98FC207C1831EA405611B
:100D90006FF0AFFAD247E1B75E2589C50967D98FF1
:100DA0005EA5828079777D17F98FDDBF93F5F51FFA
:100DB0004EA182800A216D8D3335A000828050497A
:100DC000AA86635CB0001C428E053385B700DC4602
:100DD0006364F500138541928280B7C7F0FF1387E3
:100DE000979D63C6E50048458E052E9582809387C2
:100DF000879D6396F50008491305450282801442D9
:100E00005946C842E308C5FC88428D8F7421E3C36C
:100E1000F6FC0D8F0E073A9582808C416F30900B57
:100E2000EFF26FEFAE84B2852A84EF904029D44070
:100E3000930750042A8901476396F602AA858840E1
:100E4000EF90A0715C412A8791CF5C44144194C318
:100E50005841D8C3A1075CC45C4403A5C7FF3D89C2
:100E60006FF0AFED5444A685228523A02601834769
:100E70004900368693E70704DCC2938786005CC48A
:100E8000EFA0904BD1BFEFF20FE9AE844111B285D4
:100E90002A84EF90C022D440930750042A89014746
:100EA0006398F604AA858840EF90206B5C412A87FE
:100EB000A1C3544483A7C6FF93F7070499CF8C407E
:100EC000DC31918B99CB83A786FFDC338D8B91C767
:100ED0002AC62285EF40703432475C4483A687FFE0
:100EE000E11714C3D44354C35CC441016FF0EFE471
:100EF0005044A68522852320260183474900930676
:100F000086FF93E707045CC2930786005CC4EFA0EA
:100F1000504D5C44C117C9BFD0418C416F30705DEA
:100F200003284500AA8719451378F8036308A80227
:100F30001307600201456312E8069C43635FB00437
:100F4000F823634CB70485058E05BE950CC289E66F
:100F500061651305458482809CC2DDBF9C430145C9
:100F600003A8C700635BB0028326C80063C7B6024C
:100F7000938635008A06B6979C43944314C211C3E6
:100F80001CC3832708048E05AE9703A587FF19C1EC
:100F90004105828061651305458882804111636443
:100FA000B50041018280944118415C4114C1D44193
:100FB000E11554C198C5DCC52105D5B7EFF2AFD511
:100FC0005C45584D41112EC61D8F0D8744492A841A
:100FD00063DBE50032475C440E07BA97D840636C88
:100FE000F702054531A837470F0013070724B3055B
:100FF000B7401851998F8D87950763D6F500014545
:1010000041016FF08FD3856570009385A5E1EF30C6
:10101000E05E69D1EDB7DCC0E9B7630AB5005C45B5
:1010200013173600998F5CC501476343C700828060
:10103000544513183700DC45C29603A8060005077F
:1010400023A00701D442D4C3A107DCC5F9BF1C49C2
:10105000E857ECD7828001C51C49E85B8280138584
:10106000C191828037470F0013077762B386E5008E
:10107000AA872E856369D700D84BDC471843998F20
:101080008D873385F50082805C4948459C43A107E4
:101090001D8D0D8582805C45138715000E07BA975C
:1010A00063C805005C499C43BA9758456364F700E0
:1010B0005CC582809306870054C523220700F5B7DC
:1010C000EFF26FC50329C5003284D5396119AA84AE
:1010D000634104020E0433048940A28526857D3DC8
:1010E000CA85130584005D3DCA852685453D6FF0A0
:1010F000CFC41344F4FF0E042A94C5B7EFF2AFC176
:101100003289AA846D392A84CA8526854D391C40C6
:101110001CC15C405CC1B7C7F0FF9387879D6353D8
:10112000F9025C4093F7070491CFDC489C438C4361
:10113000DC31918B81CB10405C328D8B81C7268551
:10114000EF40900B6FF06FBFEFF2EFBC4045AA8409
:10115000BD311C411CC05C415CC02104C0C46FF0A7
:10116000CFBDEFF24FBBA139938741926306F500E3
:1011700048413D896FF06FBC7D55EDBFE567850542
:101180008A059387076AAE9788438280EFF2AFB8EB
:101190003D3148413515133515006FF00FBAEFF2A8
:1011A0008FB74111293958418D476308F7006C000A
:1011B000EFA0900941016FF04FB80545E5BFEFF290
:1011C0008FB5F53E48413D897515133525006FF003
:1011D000CFB6EFF2AFB22A89B28993844192C53675
:1011E000630F95002A84CE854A85D13E2A86014523
:1011F00063059600A285EFA070536FF06FB30145B1
:10120000EDBFEFF2AFAF2A84328A368993894192DB
:101210007D3663023505AA84D28522854D362A861D
:101220000145630E36018547630DF9008947630F59
:10123000F90063160900A6852285EFA0304F6FF0F4
:101240002FAFA6852285EFA0D02BD5BFA6852285FE
:10125000EFA0103BEDB70145DDB7EFF2CFAB2A842D
:101260002E854C44EF60E06301C55C44A1075CC47B
:101270006FF0AFACEFF22FAA41113284893654419E
:101280000D47639BE6001C6105453EE611C008C0A2
:10129000326541016FF06FAA6C00EFA0E07A7DF536
:1012A00002C6EDB7EFF22FA741113284093E544137
:1012B0004D47639BE6001C4105453EC611C008C072
:1012C000324541016FF06FA701466C00EFA0A07D91
:1012D00075F502C6E5B7EFF20FA4EFF05FAEAA878F
:1012E000484119C505476317E50088433335A00019
:1012F0006FF0AFA40545EDBFEFF2EFA12E89AA84F0
:101300003284EFF0DFAB5C411147AA85BD8B638A65
:10131000E7020D476388E70019C023200400014558
:101320006FF0AFA12685EF60A0749C48DC47635541
:10133000F0002685EF407040CA852685EFF03FA873
:10134000AA8501C89C411147D4236397E600FC336A
:101350001CC088414105E9B7DC47DDBFEFF2AF9B18
:10136000EFF0FFA558419D469377F7036381D702BD
:101370001377870311EB1147638EE7001547638EE0
:10138000E70001456FF06F9B5147E39CE7FE1C416E
:10139000C847CDBF1C41E833F5B70841EF90005D69
:1013A000D5B7EFF24F97EFF09FA158418946AA8732
:1013B0003D8B630AD7009D4601456314D7008843DF
:1013C00061056FF08F970841EDBFEFF2CF94EFF01A
:1013D0001F9F5841930780046315F70008416FF081
:1013E000CF950145EDBFEFF20F93EFF05F9D5C41AC
:1013F000214793F7F7036389E702634EF7001D4720
:101400006381E70211476341F7020947638EE700F2
:1014100001456FF08F9259476388E7001307600218
:10142000F5B708416105F5B70841E5B75C4523A26A
:101430000700A1075CC582805C450D4788E3D8C3DF
:10144000A1075CC582805C454D478CC3D8C3A1070A
:101450005CC58280EFF22F8CAA8415EAE165938542
:101460004584EF80D045DC442A8488C35821136723
:101470000704D8C3A107DCC49C48DC476355F000CF
:101480002685EF40902B130504016FF00F8BEF8042
:10149000303FD1BFEFF22F88AA8495E15C452E84BE
:1014A00023A20700DC44A107DCC49C48DC47635549
:1014B000F0002685EF40702822856FF00F88EF80BE
:1014C0001040D8441304050108C35C2193E70704C6
:1014D0005CC3C9BFEFF22F842A84EF60E0641C482C
:1014E000AA84DC476355F0002285EF40102526854D
:1014F0006FF0AF84397132D4301022CC26CA2A84DE
:101500003EDA06CE36D63AD842DC46DE32C6EF6048
:10151000A0611C48AA84DC476355F0002285EF4097
:10152000D021F24062442685D24421618280EFE2DC
:101530009FFEAA842E8909EA5C4559478CC3D8C30B
:10154000A1075CC56FE07FFFB2853284EF30502287
:10155000DC441316340023262501918FB386C7007F
:1015600083A586FF3307C50061160CC783A6C6FF97
:1015700054C76DF61307600688C3D8C3A107DCC43F
:101580009C48DC47E350F0FC2685EF40101B5DBF14
:101590005C45B335B00005478CC3D8C3A1075CC513
:1015A00082805C451307800488C3D8C3A1075CC54B
:1015B0001C49BC5B3385A740133515008280EFE2E0
:1015C0009FF51C492A844111C8532EC68945EF80D6
:1015D00090703246AA852285EFF09F8441016FE02A
:1015E000DFF5EFE25FF341112A8432C6EFF02FFD01
:1015F0003246AA852285EFF0BF8241016FE0FFF3FA
:10160000EFE27FF12A843289EFF06FFB54419307B8
:101610005004AA8401476396F6020841CA85EF8008
:10162000906B5C412A8791CF5C44144194C358412C
:10163000D8C3A1075CC45C4403A5C7FF3D896FE024
:10164000DFEF5444CD47A685DCC223A02601938753
:1016500086005CC436862285EFA0004EE9BFEFE22B
:101660009FEB2A84EFF0AFF544440841938584FF53
:10167000EF8030711C4123ACF4FE5C4123AEF4FEDC
:101680005C4403A5C7FF3D896FE03FEBEFE2BFE895
:101690002A84B284EFF0AFF20841A6850329C40082
:1016A000EF8070631C412320F9005C412322F90084
:1016B0005C44C8431387870058C43D896FE0FFE747
:1016C000EFE27FE54111B2842A84EFF04FEF26C4A8
:1016D000084189472C0044443EC6EF80906A1C4173
:1016E0009CC05C41DCC05C44C8431387870058C47D
:1016F0003D8941016FE07FE4EFE2FFE141112A847F
:10170000AE8432C6EF8070565C4413075004B24674
:1017100088C3D8C3A1075CC4AA85634490006356FC
:10172000D00026862285EF80506F1C48DC47635529
:10173000F0002285EF40700041016FE01FE0EFE212
:101740009FDD2A84EFF0AFE75C411547BD8B638CCA
:10175000E7001D476387E7021848938747038A0716
:10176000BA97D84719A01C41984F014509CB5C4452
:10177000054598C313075004D8C3A1075CC46FE0A4
:10178000DFDB1C419847D5B7EFE2FFD81C492A841C
:101790004111C8532EC68945EF80F0533246AA85C1
:1017A0002285EFF04FEE41016FE03FD9EFE2BFD667
:1017B00041112A8432C6EFF08FE03246AA85228595
:1017C000EFF06FEC41016FE05FD7EFE2DFD4411142
:1017D0002A843289EFF0AFDE544193075004AA8483
:1017E00001476398F6040841CA85EF80D04E5C41FA
:1017F0002A87A1C3544483A7C6FF93F7070499CF50
:101800008C40DC31918B99CB83A786FFDC338D8BA9
:1018100091C72AC62285EF40402032475C4483A608
:1018200087FFE11714C3D44354C35CC441016FE084
:10183000DFD05044CD47A6855CC223202601930704
:1018400086005CC4930686FF2285EFA080395C4445
:10185000C117E1BFEFE23FCC2A84EFF04FD65044EE
:101860000C41AA8441162285EF90800D5C4403A7A9
:1018700087FF18C183A7C7FF5CC19C402383070073
:1018800058448327C7FF93F7070489CF8C40DC3186
:10189000918B89CB832787FFDC338D8B81C7228592
:1018A000EF40A0175C44C1175CC46FE01FC9EFE2B2
:1018B0009FC641112A8432C6EFF06FD054440C41C8
:1018C0003246AA84E1162285EF809051584483273E
:1018D000C7FF93F7070489CF8C40DC31918B89CB0C
:1018E000832787FFDC338D8B81C72285EF40E01291
:1018F0005C44E1175CC441016FE03FC4EFE2BFC14B
:10190000411132892A84EFF08FCB4AC40C418947B8
:10191000AA84300022853EC6EF9080025C4403A773
:1019200087FF18C103A7C7FF58C103A7C7FF1377D5
:10193000070409CF8C40D831118B09CB83A787FFCF
:10194000DC338D8B81C72285EF40200D5C44E1178D
:101950005CC441016FE07FBEEFE2FFBB4111AA848E
:10196000EFF0EFC5D8445C412A848326C7FF95E693
:10197000BD8B1547638FE7001D476397E7061C4142
:1019800023A40700DC440545E117DCC441016FE0F6
:10199000DFBA1C4123AC0700F5B7032687FFBD8BD8
:1019A0001547638CE7001D47638DE70298489387CE
:1019B00047038A07BA97D0C7F1B71C4190CF79D2B5
:1019C0000C40DC31918B89CB5C328D8B91C72685A5
:1019D00032C6EF40600232460C402685EF4060463A
:1019E00055B71C4190C7E1BF0146C9B7EFE2BFB28E
:1019F0005C4593C5F5FF8E052A84B284BE9505C764
:101A00008357C5068DE35C4998CB94CFEF30E0282F
:101A1000FD576398F4005C485844D44363F3E600F0
:101A2000D8C36FE09FB126862285EF30802CCDB7DA
:101A3000EFE2DFAC8329050241112A84AE843289AA
:101A4000BA8A3E8A91C6B685EFF06FB7B3063541C4
:101A50004C4493C4F4FF8E04A6952EC463050A007B
:101A60008357C40685CB3687B386354185653000FC
:101A7000938585F122854AC6EF306041FD57631892
:101A8000F9005C485844D44363F3E600D8C34101ED
:101A90006FE01FAA44487C4CB389354123A8440118
:101AA000DCC823AC5401BE3023AE340103474407E5
:101AB000F99B74CCD98F93E70701BEB022854A8683
:101AC000EF30A01DBE300145BD9BBEB0DC487CCCD4
:101AD00075B7EFE25FA401112A843A89B68481E6E2
:101AE000E16493840489B28622852E866C00EFB06F
:101AF000D02D2686CA866C002285EF30C03EAA848F
:101B00000DED5C4403A987FF834769009DC71C480E
:101B10008945C853EF80301C832509011C41984139
:101B20001CC35C415CC393F7070481CB938785009A
:101B30006315F7002285EF30506F268505616FE051
:101B4000DF9F08258280EFE27F9BA547004963E085
:101B5000B70CE167938747898A05BE959C412A891E
:101B60008287A309040201456FE09F9C814522857D
:101B7000EF7010748547A309F402F5B78145EF4073
:101B80004044D5B708445C443E952981F1BF0844E0
:101B90005C443E951375F53FC1BF854783493403C7
:101BA000A309F4020DE29305009C2285EF705070AA
:101BB0004A85EF408038A3093403034514036515B3
:101BC0001335150055B75C442A062285B304F60088
:101BD000A685EF70F06D83270901DC476355F0009F
:101BE0004A85EF408035A3093403E34890FCA5BF44
:101BF000685070D095BF9307800228546354F60054
:101C00001306800230D48DB703453403B1BF7D5530
:101C1000A1BFEF204060EFE21F902A84EFF02F9ADF
:101C200050440C4122856116EF80A07558449307FB
:101C3000870019E1930787FF5CC46FE01F90EFE214
:101C40009F8D05472A84635DB700EFA0C0421C4802
:101C5000DC476355F0002285EF40202E6FE0FF8DBA
:101C6000FDF54445E165014693854584EF8040419B
:101C700088C05C2193E70704DCC05C44A1075CC416
:101C8000F9B7EFE25F892A84EFF06F934C442A861C
:101C90002285EFA000555C44A1075CC46FE0FF897A
:101CA00081C51C49DC439CC11C4988438280EFE20A
:101CB0009F862A84EF8080465C4413077004AA84C0
:101CC00088C3D8C3A1075CC41C48DC476355F00037
:101CD0002285EF408026138584016FE01F86EFE2A6
:101CE0009F834111B2842A8402C202C402C6EFF06B
:101CF0000F8DA685780034005000EFF06FA2AA8403
:101D000015CD5C44A245138787FF83A687FF58C47F
:101D1000124714C383A6C7FF54C38DC503A7C7FFCB
:101D20001377070401CFD831118B09CB03A687FFA6
:101D30005C328D8B81C72285EF30104C26854101A6
:101D40006FE0AFFFB245FDD998415C4393F70704BC
:101D5000F5D793878500E313F7FE2285EF30F04C2B
:101D6000F1BFDC41014589C788411CC223A205009F
:101D7000828019E201458280EFE24FF82E89FD55FD
:101D80002A84B284EFF0EFBD9547631BF5002285EE
:101D9000EFF0CFE99149FD14F9552285AD3D01E5FC
:101DA00001456FE0EFF8F9552285EFF08FBB631B1B
:101DB00035057D56CA852285EFF0AFC119C5F955A5
:101DC0002285EFF04FAD0545E9BF2686CA852285FD
:101DD0004D370DC97D562285F955EFF06FAE22853E
:101DE000F955EFF04FABE165938545B52285EFF0EE
:101DF0006FEA22850546F955EFF08FAC8D452285B7
:101E00003D3DD1B7F9552285EFF0EFA871B7EFE26C
:101E1000EFEE41112A842EC6EFF00FA73246E1659E
:101E20002A89938585992285EF20800C6166B7C544
:101E3000F0FF1306C68B9385859D2285EFF06FFA20
:101E4000930919000946CE852285253731C90146F7
:101E5000FD552285EFF04FCAE1650D469385458C0F
:101E6000AA84EF10412C19ED938534002285EFF000
:101E70006FE2F95522857D56EFF08FA4F955228542
:101E8000EFF06FA14E86FD552285EFF02FA7F55597
:101E90002285EFF04FA08544268541016FE04FE990
:101EA000AA84CA852285EFF00F9FFDB7EFE2AFE667
:101EB0009C412E84B2846359F0001CC223A005000B
:101EC000130584006FE06FE7D4410145DE2693F7E8
:101ED0000702EDFB13060040854513058400EFF073
:101EE000304488C0F1BFEFE20FE383A74181014690
:101EF000FD55C447EFF04FC0E1652A869385858C78
:101F00002685EFF0102E83A74181C847EFF0407E71
:101F100001456FE08FE2EFE20FE02E8499E62E8517
:101F2000EF00E13801456FE04FE1B6852285328947
:101F3000B684EF00912B65F975D4E36599FE22858F
:101F4000DDB7EFE2AFDBE1642A842E8923200500B0
:101F50009384C48FFD594840EF00A110AA87630500
:101F60003503982085046311E50218408387040037
:101F70009306170014C0229708A7F1FF48402320BA
:101F80000400EF00010EAA872320F9001307300296
:101F900001456391E702FD59A9444840EF00610CF7
:101FA00063043501E31B95FE4840EF00810B2320BD
:101FB000A90005456FE0CFD7EFE2EFD53289616622
:101FC000130606902A84AE84EFE00113914763164E
:101FD000F5020146FD552285EFF00FB2AA86E165B4
:101FE0004A86938585BF2285EFF0CFD02A86A685C5
:101FF0002285EFE0615C6FE04FD4A6852285EFF08B
:102000004F968947630BF500A6852285EFF06F9503
:10201000AA852285EFF08F96D1B7E166938686BEBA
:102020007DBFEFE2AFCD41112E8A6C003289AA89C3
:10203000EFF01FC7AA84D2854E85EFF08FB65041CE
:102040000C412A843245CA868294AA8409ED630C25
:102050000900D28501464E85E937E1659385C5C003
:102060004E85EFE0612604C023222401268541012C
:102070006FE00FCCEFE22FCA014685455D37014581
:102080006FE0AFCBEFE22FC985452A84EFE0E15B3B
:10209000014685452285EFE0013205456FE0EFC935
:1020A000EFE26FC7EFE05FFE7D156FE00FC9EFE273
:1020B0008FC685452A84EFF0CF8AFD57AA8463191D
:1020C000F5006166130686A485452285EFE0C14EC2
:1020D000A6852285EFF08F8AAA852285EFF08FBB37
:1020E00005456FE08FC5EFE20FC3AA84EFE0DFF98B
:1020F0002A8485452685EFF0CF8691476315F50242
:10210000014685452685EFF02F9F030705009307BD
:102110003002631AF70026859305F4FFEFF0AFB2A3
:1021200005456FE08FC185452685EFE06154330991
:10213000A400634605002289635385002A89634908
:1021400020016166130646C385452685EFE0C1463A
:1021500033052441F9B7EFE20FBC89452A84EFF03B
:102160004F80AA84154685452285EFE0C15B99C85A
:1021700095476389F4006166130686C48945228504
:10218000EFE081436166130606C685452285EFD0E0
:10219000B17609C9E1659385C5C62285EFE0C11214
:1021A0006FE0AFB989452285EFE0FFEE85452285D6
:1021B000EFF08FFA0545EDB7EFE2EFB5154685452F
:1021C0002A84EFE0415622858945EFE001482285C7
:1021D0008D45EFE0814722858D45EFE0DFEB2285DD
:1021E0008545EFF02FE705456FE02FB5EFE2AFB281
:1021F000154685452A84EFE0015322858945EFE0A5
:10220000C14422858945EFE01FE985452285EFF02D
:102210000FC505456FE06FB2EFE2EFAF85452A8449
:10222000EFE03FF47115854763F9A7006166130677
:1022300006C985452285EFE0213885452285EFF0E6
:10224000EF91AA852285EFF00FA005456FE0EFAE74
:10225000EFE26FAC85452A84EFE0213F2285894576
:10226000EFE0A13E094685452285EFE09FF6AA856D
:102270002285EFF0EFB105456FE02FACEFE20FA83C
:1022800041112A84EFE05FE0E165AA899385C5CA20
:102290002285EFF0CFB28544E16A63D3990283A728
:1022A000418161650546944785451305858FEFF0AB
:1022B000505A83A741818847EFF0804301452DA8FC
:1022C000FD552285EFE05FE8A6852285EFE0DFE798
:1022D00001478146054685452285EFF02FF17000C4
:1022E000FD552285EFF04F812A8911E9E16593853B
:1022F00085CB2285EFD0517D41016FE06FA38547EB
:10230000638BF40083A74181054685459447138577
:102310004ACEEFF0105483A7418132468545944759
:102320004A858504EFF0F052F9552285EFE0BFD6DB
:10233000ADB7EFE24F9E85452A84EFE00131896514
:10234000014622859385C540EFF06F9E2285854525
:10235000EFE09FDF22858145EFF0EF8E0D456FE0C6
:10236000CF9DEFE24F9B154685452A84EFE0A13BC8
:1023700089452285EFE03FD285452285EFF0BF8970
:1023800019E52285EFF08F8A05456FE00F9B09451F
:10239000EDBFEFE24F98B2846166130686CE8945A1
:1023A0002A84EFE0C14F85452285EFE0FFD98145C2
:1023B0002285014781460546EFF04FE3FD55228512
:1023C000EFE03FDA11E92285F955EFE0DFCC014576
:1023D00023A004006FE06F96FD552285EFE03FDEFD
:1023E00019E5E165938545D02285EFD0F16D15465D
:1023F0002285FD55EFE09FD02285F955EFE0BFC95A
:10240000268695452285EFE03FEFE9B7EFE2AF90F2
:10241000411189452A84EFE0A12513061500B285F4
:10242000228532C6EFF02F82324685452285EFF0B5
:102430002F9D3335A000050541016FE00F90EFE2BD
:102440008F8D054689452A84EFE0E13F8545AA84C2
:102450002285EFE05FC485452285EFE09FD091475C
:102460006310F502635E9000A6852285EFD031618E
:1024700085452285EFE05FCD89452285EFF02FFC71
:102480002285EFF00FF96FE04F8BEFE2CF88E16626
:102490006166938686EB1306C6D285452A84EFE0F3
:1024A000E142E1670A05938787E9AA9703A9070034
:1024B000014689452285EFE001392A86CA852285B1
:1024C000EFF06FE89307B9FFED9BAA849DC78D4796
:1024D000631AF902014691452285EFF0CFE6537564
:1024E00005D0D3F704D007A7818722854375E57807
:1024F000EFE09FF405456FE04F84AA852285EFF059
:102500002F89CDBFAA852285EFE0FFF3E5B7EFE283
:102510008F80854763FDB7008145AA84EFF04F8720
:102520002685F955EFE05FC209456FE00F813284DF
:10253000EFE09FB5018DD5BFEFD2FFFD2A84EFE01C
:10254000BFB41946AA8489452285EFE0C11D2285C2
:102550008545EFF0EF8322858545EFE0FFBE2285BC
:1025600009468D45EFE0DFB589679387E750094756
:1025700089469385E4FF7D562285EFF06FCBAA85CF
:1025800009462285EFF0BFF86FD03FFBEFD2BFF8CE
:1025900085452A84EFE0610B22858545EFE05FFFEA
:1025A000054685452285EFE0BFB12285EFE0DFAD2E
:1025B00089679387E750014781469305E5FF7D567C
:1025C0002285EFF0EFC6AA8501462285EFF03FF4A1
:1025D0006FD0BFF6EFD23FF42A8495E111CEB285D9
:1025E000EFE09FB60546F9552285EFF04FEF09E57C
:1025F000F9552285EFE03FAA05456FD01FF4EFE0C3
:10260000FFE222850546F955EFE09FAB0945F5B796
:10261000EFD2DFEE0111700885452A84EFE0DFCDAF
:1026200061668146130646D38D452A892285EFE0EF
:10263000A11CAA8991452285EFE0BFB29304150041
:10264000B33490008A048146630609024A868945AC
:102650002285EFE0611A7246AA864E87CA852285D6
:10266000EFE04162AA8526862285EFF0BFF605617C
:102670006FD01FEC6166130686D389452285EFE093
:10268000A1172AC6194622858545EFE0C109228592
:102690009545EFE05FA0B24689654E870146938578
:1026A00025392285EFF0EFC275BFEFD2DFE6411189
:1026B0008146014685452A84EFE0011401468146A2
:1026C0008945AA842285EFE021132AC68D452285FB
:1026D000EFE03FA9FD5732460D496313F50001496C
:1026E000A6852285EFE0E13CAA854A862285EFF0A7
:1026F0007FEE41016FD07FE4EFD2FFE185452A8470
:10270000EFD0B17485452285EFF06F8319E52285FE
:10271000EFE0DFD105456FD05FE26166130606C6C4
:1027200085452285EFD0511DF5B7EFD2DFDE01469A
:10273000814685452A84EFE0210CAA8485452285BF
:10274000EFE07F950146A6852285EFE0813611C531
:102750002285EFF00FCC6FD05FDE09671307070A01
:1027600081467D5681452285EFF04FA82285EFE016
:10277000BF917D15CDB7EFD21FDA85452A84EFE0F2
:102780009FB511C52285EFE03F906FD01FDB2285FA
:102790008545EFD0916B7D5622858545EFE05F92B0
:1027A0002285F955EFE03F8FE165938505D42285B9
:1027B000EFE05FCE22858545EFE0FF8D2285EFF0CB
:1027C0001FC8E1B7EFD23FD585452A84EFD0F16726
:1027D0006166130646D585452285EFD0F11115E1D6
:1027E00089650146938525362285EFE05FD42285F1
:1027F0008545EFE07F952285EFE05FC30D456FD003
:10280000DFD322858545EFE03F94014781460D46A1
:1028100085452285EFF08F9DD5B7EFD23FCE411190
:102820008945AA84EFE0FF936347A0048545268588
:10283000EFD0B16185452685EFE0BF928D47631AE1
:10284000F50085452685EFE01F85054541016FD0E0
:102850003FCE854570002685EFE01FAAAA8501C9F5
:102860002685EFE09F9FB2478507E300F5FE2685AA
:10287000EFE0DFBBD9BF89452685EFD0715F2A8A9B
:10288000114685452685EFD0116A7000854526855D
:10289000EFE09FA61307EAFF93072002AA8963F9D6
:1028A000E70061661306C6D589452685EFD0D1506D
:1028B000616B93050BD74E85EF00B10B3384A900F4
:1028C000830704001307D002639CE7060504854ACA
:1028D0001C206967930617C4B6979C23130717C477
:1028E0009D8BD1D701490945030604009377F60F64
:1028F000B306F7008386060093F54600A9C993073F
:1029000006FD63DD4705B3052A0305043389B700D7
:102910001C20BA979C239D8BE1FB93050BD7228546
:10292000EF0031052A94CA8563840A00B30520416B
:10293000B247BE99E31D34F32685EFE0DFB031B72F
:102940001307B002814AE395E7F8050451B78D8A71
:102950006393A6008117938797FC65B7814501446F
:10296000C1BFEFD2BFB91C45B2842E8603AB0702AC
:10297000CC5700412A895A85EF70907C5841CD4749
:10298000AA8A630CF7068329C901032A0401CD47EB
:1029900023A03A0123A2FA0063C049034C54E16723
:1029A00037070004938747FA7D17A14613060401F1
:1029B0005A85EF40004848D410485854D28763C61F
:1029C000C70693973900BA97984098C3D840D8C3A0
:1029D0008327C9018507232EF900DC4093F70704FC
:1029E000B1C35C30918B9DCF90405C328D8B9DCB81
:1029F000A2855A85EF30400035A083290500832742
:102A0000C9014C54E3D1F9F893973900BE95DC41E4
:102A1000D840B98F93F7F703BDF726860145EF90AD
:102A2000E05035D14E856FD0BFB093963700BA963F
:102A300023A20600850761B714455845AA87639607
:102A4000E60218419546630DD70099460145631F7C
:102A5000D70089C5DC439CC1CD47DCC105458280D8
:102A6000F5DD5C618D479CE1CDBF01458280EFD2F1
:102A7000FFA801112A892E8432852C00B284B689E0
:102A8000EFF09FFB09E5014505616FD07FAA0C08B7
:102A90004E85EFF07FFA65D9AD4763C0870499474B
:102AA00063C087048D476305F4069307B4FF0547A9
:102AB0006370F706832789003808140888533000AC
:102AC000A285EF4030497247CD476312F706994718
:102AD0009CC0E247DCC0054545BFB547E31CF4FC9C
:102AE0003247CD47631FF700A2473ECC5247CD4740
:102AF000E302F7FC01462C080808EF80D07A5DF964
:102B000059B701462C082800EF80F0792DDDF9BF78
:102B10005247CD47631BF700C24753F707D0D3078F
:102B200000F0D327F7A0A5F371B74267CDBFE267E6
:102B3000D3A7F7A0A9DB530700F0D3A7E7A0A1F71D
:102B400095479CC0DCE041BF93F7051091EB8347AC
:102B5000A50263C7F5008347C502FD172306F502EA
:102B60008280EFD25F9B9C419D4618424111638C4D
:102B7000D700630CD702FD547D54A6852AC6EFF01A
:102B8000BFFCA28529A8C041FD546313F70044424D
:102B9000E3D584FEA2852AC6EFF01FFBA685324549
:102BA000EFF09FFA41016FD05F997D54CDB7184186
:102BB000939725008505185B0D8E9356F6413E9739
:102BC000B3C7C600958FB706020063CAD700EFD21D
:102BD0009F940845E165938505FBEF30F0051C43A4
:102BE000FD163696CA07C9833A06D18F1CC3828068
:102BF00098419D476315F700CC416FF0FFF4828048
:102C00000859939725003E95635FB0000327C5FFE1
:102C1000E567938747F81377F703BA978387070029
:102C200063D3070071158280EFD2FF8E3284EFF0FC
:102C30003FFD1841930730029376F7036391F60442
:102C40009306F00F935777016303D4026301F402F4
:102C50009167938707FC1A047D8CF1779387F703BC
:102C60007D8FB367E4001CC105456FD01F8DB7C6CB
:102C70007F009A07758FD98F93E72702EDB701453B
:102C8000EDB7EFD25F89EFF0BFF71841F176938689
:102C9000F6039357670093F7F70F93B71700758FF5
:102CA0009A07D98F1CC16FD05F891C5913972500D3
:102CB000BA9788438177850739813E95FD5763042C
:102CC000F50085052E958280EFD25F8341112A841D
:102CD000B2843689BA897D5B6395650141016FD005
:102CE0003F85832A04002EC65685EFF01FFCB245AF
:102CF0004A862A8A5685EFF03FF3B245268611E1CF
:102D00004E862285EFF0BFEAD285F9B7EFD2BF80B9
:102D100018492E890C4D04413A869306F00F2A84F7
:102D2000EFF09FFAFD571CCC1848DC486341F702CE
:102D300008448C58E1670851370700809387C7FC27
:102D40007D17914613864401EF40A00E88D818489D
:102D50009C580A07BA9723A0270118489C4C634146
:102D6000F70208448C5CE1670851370700809387BD
:102D7000C7FC7D17914613868401EF40800B88DCE9
:102D80001C44184894479C5C0A07BA9794C30848A7
:102D9000930715001CC86FD04FFAEFD22FF64111E0
:102DA0002A847D599309300263962501014541012A
:102DB0006FD00FF804402EC62685EFF07FE41C414B
:102DC00093F7F70363983701B2452685EFF0FFEDDF
:102DD000AA85D9BF0545E1BFEFD2EFF341112A849F
:102DE0007D596395250141016FD02FF504401306ED
:102DF000F00F2EC62685EFF03FE3B2452685EFF0B3
:102E0000DFEAAA85F9BFFD57630EF602EFD2AFF0F5
:102E10002A84884141116316F50090C141016FD0A9
:102E2000CFF103290400FD54AA852AC44A8532C67D
:102E3000EFF0BFE7A2453246E31895FE2285EFF09A
:102E40001FD7E9BF8280EFD20FED104DFD57B78538
:102E5000FF7F01111CCDF9052A8432C6EFF01FEB6C
:102E600032462ACE6C082285EFF0FFF972450561E3
:102E70006FD0AFECAA870849C8CB828018492E864C
:102E80009305850158C96FF01FF8EFD2CFE81C49B0
:102E90006396C700EFF09FFE6FD02FEA328793064C
:102EA000F00FEFF07FE2CDBFEFD24FE51304160035
:102EB00091671A04938707FC7179AA847D8CFD5968
:102EC0001309F903639435016FD08FE68840939717
:102ED000250018593E971C43B3F72701C18F1CC327
:102EE000EFF0BFDCAA85F9BF3A07DE064D8F558F9C
:102EF0001A06B365C7006FF07FE11C495849635A51
:102F0000F70618418A07F117145BBE9603A806005E
:102F100091471377F803631EF7049357680093F7FC
:102F2000F70F935878013387C500BE9863C1F50445
:102F300013831800634FB30263D3B700BE851166D5
:102F4000130606FC93976500F18F71761306F6035E
:102F50003378C800B3E70701A6077D17A58363533D
:102F6000170146870D8F5E07D98F9CC28280E3557B
:102F7000F7FC9306F6FF01472E8691456FF0DFF6CA
:102F80009306160001472E86930560026FF0DFF569
:102F9000BA06D58D1A06D18D6FF05FD7EFD2AFD7B5
:102FA000B70704003284635BF600B2862E8685453F
:102FB000EFF01FFEAA8426856FD02FD82E8681467B
:102FC00089452A89EFF0DFFC93156400AA8493E514
:102FD000E5024A85EFF09FD3F9BF8347C502BE954E
:102FE0001C419827635FB7001307E00F635AB700CF
:102FF000EFD26FD20845E165938545FDEF30C043C0
:103000008CA78280EFD22FD12A84AE84EFF0FFFC10
:103010008347C402B38597002306B4026FD0EFD173
:10302000EFD26FCFDC21411130002EC493E70704AB
:10303000B2853EC6EFF0FF9241016FD00FD0EFD2C4
:103040008FCD411189472EC03EC22EC4CD473000DE
:103050008A853EC6EFF0FF9041016FD00FCE9C41B4
:10306000B5466394D7021C41D84105069C5B0A070C
:103070003A06BA9737C77F00798E9843B74680FFE4
:10308000FD16758F598E90C38280B9466399D70219
:103090001441DC410506945A8A070347C502BE96CF
:1030A0009C425E061A07A607A583D18F7176130688
:1030B000F603F18FD98F9CC285456FF0BFF48280F3
:1030C0009C413547639FE7009D479CC11C41D84107
:1030D0009C5B0A07BA979C43998393F7F70FDCC16F
:1030E000828039476390E7021841DC41B70600014E
:1030F000185B8A073E971C43A607A583D58F1CC380
:10310000B1479CC18280EFD20FC19C4129472E84D8
:10311000638FE702636AF7002147638EE700254764
:10312000638EE7006FD06FC1CD170547E36CF7FEE4
:10313000EFF01FF9C5BF9D471CC0EDB7CC41DE05C0
:1031400093E55500EFF09FBC48C0B147F5B7039930
:103150004500AA84CA85EFF03F9F7830A147994582
:103160006317F7006C202685EFF01F9E9D457420A5
:103170004A8701462685EFF03FD7F9B7EFD2AFB9BE
:1031800041112E89AA843284EFF0FFF783260900CB
:103190002D479387F6FF6363F70261678A0713077A
:1031A0004700BA979C4382870546A2852685EFF0A3
:1031B000DFD49D47232289002320F90041016FD0ED
:1031C000CFB7F916014793B6160022868D4526859E
:1031D000EFF09FD1F9BF03264900A2852685EFF0C5
:1031E000FFDBC1BF8727490030008D47B2852685A8
:1031F0003EE43EC6EFF0EFF62A86C5B783254900C8
:103200002685EFF0DFE3CDBF9840832749001166A4
:10321000145B8A077177BE969C421307F703130667
:1032200006FCF98F13176400718FD98F9CC251B7B8
:1032300083264900E38F86F601472286814541BFF8
:10324000EFD2CFAB4111AE842A843289EFF01FF365
:103250009840AD476318F700D040938584002285DD
:10326000EFF07FBA8C4483A9C400638C35072285B4
:10327000EFF0BFB211E5CE852285EFF01FB225CD6C
:103280009840AD47FD5A6306F7002285EFF0BFBBBB
:10329000AA8A1C48054781465CC84A868D45228516
:1032A000EFF09FC41C488D452A8A5CC801478546BB
:1032B0004A862285EFF05FC3AA89D6852285EFF082
:1032C000FFBB1048CC44528750C8CA86228532C6FC
:1032D000EFF09F9F32468C444E87CA862285EFF0DE
:1032E000BF9EFD579CC4DCC49D4723A224019CC003
:1032F00041016FD0EFA3FD597D5AE1B7EFD2AFA1E5
:103300009C4131472A84AE843289639DE7021C4187
:10331000D8419C5B0A07BA979043ED471377F603B1
:103320006315F7021C49134719008146FD171CC994
:103330005D8293052002EFF03FBB2285EFF0BFB026
:103340006FD0AF9F1D47638DE70085452285EFF065
:103350007FCB0346C402A68522857D16EFF01FE2CF
:10336000A6852285EFF0DF88D4404A871306F00F48
:10337000930530022285C1B7EFD2EF992A84AE843B
:10338000EFF07FD8A6852285EFF09F8622858545C0
:10339000EFF05FC70346C402A68522857D16EFF0D5
:1033A0003FEA6FD08F99EFD20F972E84AA84EFF067
:1033B0009FD518409D476313F70218445C44504062
:1033C000630BF70083C7A402634AF600A285268533
:1033D000EFF01FE7504032856FD02F96A2852685EB
:1033E000EFF09FF9C5BF9841A5476316F7009845D0
:1033F000DC456304F7006FF01FFB8280EFD2AF91D2
:103400009845DC456306F700EFF0FFF96FD0EF92C7
:10341000EFF07FCFE5BFEFD20F9041112E84AA8449
:10342000EFF0DFFD1C401547FD176364F706616789
:103430008A0713074703BA979C43828785473EC490
:1034400030003EC6B28529A802C48547D5BF9C443A
:1034500002C63000DC578A853EC0930750043EC246
:103460002685EFF00FD029A04C402685EFF03FBD18
:1034700048C0484091471CC09307F00F63CBA7009A
:103480001365051041016FD04F8B5C608D473EE4A2
:1034900045BFA2852685EFF01FF1EDB7EFD20F866D
:1034A00083A90500A547AA842E8432896382F90284
:1034B000A947638EF902A1476396F902B285EFF03E
:1034C0002FF35040CA852685EFF09FD76FD04F86E7
:1034D000B285EFF05FED54402A860147A545268569
:1034E000EFF09FA0CA852685EFF08FF0C5B7F831C1
:1034F000A1476303F700A149CA852685EFF0BFF114
:103500008316440070202A87CE85D1BFEFD2AF80CA
:1035100041112A84AE843289EFF0FFE8D440A685B9
:10352000228536C6EFF0CFEC0346C4029D479CC00F
:10353000D0C02285894532C4EFF0DFACCA85228530
:10354000EFF07FEDB24622462A87B1452285EFF0A3
:10355000BF99CA852285EFF0AFE941016FC0FFFD39
:10356000EFC27FFB2E84AA84EFF0FFB91C401947FD
:103570006360F7020D477D566364F7020947638174
:10358000E7020146A2852685EFF05FD72A8609A8C3
:103590002D47E398E7FE4C408840EFF08FEE504017
:1035A0009305C4002685EFF01F860C442685EFF0B6
:1035B000FF8CFD571CC46FC05FF8EFC2DFF52E848F
:1035C000AA84EFF05FB41C400D477D566388E70086
:1035D0002D476382E70205476391E7029305840064
:1035E0002685EFF05F824C442685EFF03F89FD573A
:1035F0005CC46FC09FF45040D5B70546A2852685B0
:10360000EFF0DFCF2A86D9BFEFC2FFF0DC412E8476
:10361000FCA1B285EFF03FE014404AA02547A54742
:103620006383E600A1477CB0A9471CC06FC0FFF0D0
:10363000EFC27FEECD4732846387F502AA8463ED43
:10364000B700AD4763FAB702B1476383F502A285BD
:103650002685EFF05FDC19A8D147E39AF5FEB28525
:10366000EFF0BFF521A0B285EFF09FEF6FC0FFEC48
:10367000B285EFF07FD0DDBF81453285EFF0CFBB63
:1036800075F5F1B71C4118499C5F0A07BA9723AE3C
:10369000B7FE8280EFC29FE689474111AA84328437
:1036A000638CF5042E89B68963F8B7008D47638C67
:1036B000F50041016FC0DFE7E1669386060DB105B5
:1036C000EFF0EFBA7DF5A2852685EFF0DFCD2AC6B3
:1036D000A2852685EFF0CFD1B24693059901014727
:1036E00001462685EFF05F80B14748C01CC0CE85FB
:1036F0002685EFF03FF975BFB285EFF0DFA01440EB
:103700002D479387F6FF6362F70261678A07130705
:10371000C704BA979C43828789471CC039A08D474C
:10372000EDBF4C408840EFF0CFD50C445C4426857B
:103730004CC41CC4EFF04FEA0C442685EFF0CFE9EF
:103740008DBF9D47638DF60085452685EFF09F8BE5
:1037500003C6C402A28526857D16EFF03FA2A2858E
:103760002685EFF0EFC84C402685DE0593E5B501D0
:10377000EFF0CFD948C0B1474DB7EFC23FD84111A4
:10378000AE89B685B2842A843A8936C6EFF0BFC8BE
:103790002AC4A6852285EFF01FC832462AC2A68514
:1037A0002285EFF00FBC224792460146CE85228546
:1037B000EFF08FF3B147C8C09CC0CA852285EFF0F7
:1037C0007FEC41016FC0DFD6D14763EBB712EFC288
:1037D000FFD23A8A6167939725001307C707BA9704
:1037E0009C4341112A84AE89B28436898287B6858A
:1037F000EFF07F91D0449305C9002285EFF0AFE050
:103800004146CA852685EFC01FD441016FC05FD2F3
:10381000B685EFF05F8F904493058900F9BFB685B8
:10382000EFF0DFBD832A0900B1476393FA04184023
:1038300083274900832907038A077547BE9983A711
:10384000090093F7F7036395E702A6852285EFF059
:103850002FBA83A70900D840A607A5835E07D98F92
:1038600023A0F9008327490023A05401DCC071BFC5
:10387000CA852285EFF05FB05287CA862686F54555
:103880002285EFF09FEF51B7EFF06F9E3DFD52871D
:10389000CA8626869385D900E5B7184291475442D7
:1038A0006314F70093E60610CA85228536C6EFF04A
:1038B0009FB62A8A4A86A6852285EFF08FAAC1473D
:1038C000B2466386F9029387F9FE05476365F702FE
:1038D00036870546D2869385F9002285EFF0CFE042
:1038E0002285EFF04FD6AD47C8C09CC039BF528784
:1038F0000146FD45DDB75287054693852901F1BF95
:103900008280EFC25FC1930720031304F6FF3344A4
:10391000F402FD572A89AE8405046393F6008146BC
:103920009307F01F63CE8700228726869305B00297
:103930004A85EFF06FDB8504230699026FC0FFBF55
:10394000014726869305B0024A85EFF0EFD91A04A5
:103950009365E4024A85EFF06FBBF1BFEFC2BFBBD6
:103960002A84EF10204CAA852285EFD07FC205451E
:103970006FC0BFBCEFC23FBA2A84EFD0EFF0AA8578
:10398000814601462285EF10804A6FC01FBBEFC2FF
:103990009FB82E84AA84B28522853289EFD00FE2A7
:1039A00019E9E1659385050E2685EFD0BFAE7D59F7
:1039B0004A856FC09FB82285EFE0AF9809E922855C
:1039C000EFD08FEC09E5E16593850510F1BF4A86DC
:1039D000A2852685EFD06FE44A86A6852285EF1062
:1039E0006033854763EBA7022285EFD0EFE92A8990
:1039F000930515002685EFD06FDC11E99345F9FF9B
:103A00002285EFD04FE9E1659385051271BF4A86A3
:103A1000A6852285EFD06FE061BF0546A685228589
:103A2000EFD0AFDF69B7EFC21FAF2A84EFD07FB707
:103A3000AA852285EFD0DFB509456FC01FB0EFC260
:103A40009FAD194685452A84EFC0F14D2285EF6070
:103A5000E02AAA8485452285EFD00FEF228505460E
:103A6000A685EFD08FDB05456FC03FADEFC2BFAA83
:103A70002A84EFF0DFFC916522850546938565B6C3
:103A8000EFD0FFAA05456FC05FABEFC2DFA8854549
:103A9000AA84EFD09F932A8401E961661306C613B6
:103AA00085452685EFC0513122856FC01FA9EFC221
:103AB0009FA64111AA84EFF05FFD2AC62685EFD0AC
:103AC000AFDCB2451306F5FF2685EFF05FEC635FD0
:103AD000050081452685EFD0BFAB26850546F95503
:103AE000EFD00FDE094541016FC03FA52A8485450F
:103AF0002685EFD0FFA9268505469345F4FFEFD034
:103B00002FDC13051400C5B7EFC2FFA059712A843A
:103B1000EFF0BFF7631BA400E1659385C514EFD0F8
:103B20007F97054565616FC05FA1AA84EFE06F8153
:103B300001C985476315F502E1659385451511A80F
:103B400070008145268541266357A000E165938575
:103B500005162285E9B72685EFD00FD371FDE16503
:103B600093858516FDB7EFC21F9BB7C5F0FF4111C6
:103B70009385759D2A84EFD05F852AC62285EFD074
:103B8000AFD0B2452A862285EFF07FE06359050267
:103B9000FD552285EFD0EFDC9147631FF500854589
:103BA0002285EFC0C16DF95522850546EFD04FD172
:103BB00089452285EFE0AF882285EFE08F854101BE
:103BC0006FC0BF971C4148499C43DC479C5B1D8DDF
:103BD00009857D158280EFC21F941C419C43DC4700
:103BE000805F01C8EFF01FFE0A052A9408406FC0ED
:103BF000DF947D55EDBF18258547631AF7005C49B2
:103C000010519843D44F118FB29694C3D8CF82806D
:103C1000EFC2DF8E656A817A4111AA84AE8932894A
:103C2000130B5002130A4AF8850A4E8693051900B1
:103C3000268536C6EF10A052B24688C26310051A18
:103C4000814801467D5413039002130E3002914EB9
:103C5000794FC68563C93803FD576309F40A98583C
:103C6000931724003E970C43B14713F6F50363EF17
:103C7000C70861689317260013084831C2979C4310
:103C80008287A2895DB79C58139728008508BA9748
:103C90009C4313D7670013F8F7031377F70F63619B
:103CA0000B0363600E056303D803630FE8035298A8
:103CB0008347080093F70704C9DFE31CE9F829A844
:103CC000E31768FE0507E35627F939A0E343E9F84F
:103CD000DD83BA97E3CF27F72E84E3DCC5F67D5466
:103CE0008DBFE348E9F6CDBFB983D697C697E3D237
:103CF000F5F6E3C0F9F6E35EF6F43E8699BF13D914
:103D00007501998193F5F50FE34DB9F641016FC047
:103D10003F8293D9E5009D4793F9F91FDD81631B2D
:103D2000F60222868505268536C6EF104043B24648
:103D30002A894E86A28526857520630E0902E165D3
:103D40009385C5304A85EFC09F9115E561651305E0
:103D5000852E6DBFBC408E05AE9703A90700630892
:103D600009004E86A28526854109AD28C9BF4E8629
:103D7000A2852685852861651305453041BFBC4075
:103D8000DD818E05AE979C4399C7C10761659CC2D2
:103D90001305052FA5BFE16793870789C5BF854731
:103DA000B9816304F6004C439981DC548E051146B9
:103DB000AE97D8433D8BE31BC7F49C436165130565
:103DC000852FC1079CC299B7B98113F6F51F2685C7
:103DD000A285092861651305C5360DBF6165130508
:103DE000052E2DB7EFC22FF3137806103684630526
:103DF000080258559377F6EF8E07BA97D843914645
:103E00003D8B6308D700E167938707891CC06FC0AB
:103E1000CFF29C43C107DDBFEFF09FDF6DD50307F5
:103E2000050093073006E310F7FED5B7EFC2AFEEFB
:103E30002A844849411102C63E31898B99E7616560
:103E40001305458441016FC04FEF1C4198438147E2
:103E500070239306070163C8C7020449B3849540E1
:103E6000E3CF04FC5C41E3FCF5FC0329C700EFF061
:103E70007FD5AA8513D6344074004A85EFF05FD908
:103E80002A8605E56DBF03A80600910603280800F1
:103E90006399050358478E073843BA979C4391CFDF
:103EA000C10761663EC61306062FB246E1659385DB
:103EB00085342285EF30904571B7E1679387078994
:103EC000CDB7850749BFAA872E8563C80500D84BA3
:103ED0009387470319C96314F70001458280184787
:103EE0007D15CDBF38D205458280E31DF7FE828067
:103EF000EFC26FDF01112E892A84B28BEFF0BFCFA2
:103F0000830609001307E003639AE6088328C400C8
:103F10000509014B138D88FF2326A40103274D00BB
:103F2000994681447D8B6314D70083240D009387C9
:103F30004B024A8A8549930AC006130CE006930C8B
:103F400030053EC2930D600603070A0029EF930572
:103F500060064A85EFE0906211C95C4403270D00BA
:103F600098C303274D00D8C3A1075CC42285EFF096
:103F70009FC89305C0044A85EFE0506001CD91C40D
:103F8000D820930760026318F7205C4423A207003F
:103F9000A1075CC44E8505616FC0AFD803AB0B06AB
:103FA000032D0B00A5BF630E570B63CDEA0063051D
:103FB00097056307B7019306C0046303D7008149DF
:103FC000050A59B7930740076303F70E9307500795
:103FD0006306F70AE31587FF630F0B1603572B02DF
:103FE00093760710F9CE6167130707BE23A2EB0093
:103FF00061671307873611AA91C4D42013076002A2
:10400000639AE60261671307073623A8EB007D5722
:1040100023ACEB006167FD561307C73583A50B0181
:10402000124523AEDB0023A6EB001306C003EF30DE
:10403000D04979B7D444B84609CF410723A8EB004B
:10404000D852945623ACEB0009EB616713078784C1
:10405000F1B7616713074735D5B761671307873530
:1040600075BF7D5563090B0003572B02098B01C7F0
:104070005A85EFF05FB623AAAB0099B789E8238091
:104080000B0205472381EB02A3800B0215BFF8202A
:104090002380EB02D42013076002E384E6FED844B9
:1040A00074332381DB027823A380EB0211BF014725
:1040B00063060B0003572B0213770702A381EB0261
:1040C00001B71377070241EB03258B003A31937652
:1040D00027003AC6C9C21441944203A3C6001AC4B9
:1040E000EFF05FAE22433247131625008326030309
:1040F000118BAA85B296904201CF61671307078999
:1041000023A2EB0061671307473723A4EB004DBDE3
:104110001377F6039306A7FF13053002636DD502EC
:1041200061658A061305C538AA96944282860147BE
:10413000144871070A0736975847410745BD198249
:1041400093864B001376F60F1A85EFF07FAC23A40D
:10415000AB00E31705E661671307478423A4EB0070
:1041600023A20B00B1BD61671307C73723A2EB0081
:1041700069BF651775BF494765BF4D4755BF1147B3
:1041800045BF594775B7154765B7514755B75547A7
:1041900045B7054771BFDC442285014983AA8703DF
:1041A000EF60A02C5C44130750042A8A88C3D8C34C
:1041B000A1075CC485473ECC3ECEDC449C4FE35B0C
:1041C000F9DC93172900D69790433408D2852285CD
:1041D000EF6000410509D5B7EFC2EFB35D712A84E6
:1041E0002E8715C6B285C1051306C003480836C61A
:1041F0003AC4EF30902D2247B246E16550089385CE
:10420000C5412285EF30901061616FC00FB39307F5
:10421000F003FC82DDB7EFC20FB07C4D2A848DC75E
:104220004C45185105463E97938705F8B45F94C1F5
:10423000F45FD4C11443B4DF5843F8DF938785009B
:104240005CC5E115EF00F02A8945228545245D71A2
:1042500032DC36DEBAC0BEC2C2C4C6C61C4922D4D5
:1042600026D2DC4706D644492A846356F0002EC481
:10427000EF10B04CA2453018228532CEEF30D00A74
:10428000BE30898B85C39C402AC626859C43DC476B
:10429000B04732C4EFF03F942246B245AA86228549
:1042A000EFF09FF32285EFF01FF7EFC2CFA6411189
:1042B0002A8432C6AE84EF6050762AC4A685228551
:1042C000EFF0DFB6A2463246E1652A879385854244
:1042D0002285EFF0DFF7EFC20FA4DC418546BD8BEE
:1042E000F51763E3F600B285616613064644EFF006
:1042F000DFFBEFC2AFA0D8418D474111AA842E84C5
:10430000B2893689631AF7009C613EE64E844A867C
:10431000A2852685EFF07FF96C002285EF70C072D0
:1043200075F5F5B7EFC22F9FD841CD474111AA844B
:104330002E8432896310F7029C413EC64A84A285CE
:104340002685EFF0BFAEE1652A8693850545268573
:10435000EFF0FFEF01466C002285EF70C07479FD2D
:10436000F9BFEFC24F9B411132892A84EF60F06A96
:10437000AA84CA852285EF60506AAA852AC6268546
:10438000EFC0EFADB246268619E5E1659385854716
:104390002285EFF0DFEBE1659385C5492285EFF0DB
:1043A0001FEBEFC24F973C55444903290507FD1702
:1043B0003CD52A8499EF9377890081CF7C513CD5F5
:1043C000BE3013F7070435C393F7F7FBBEB06FC0D9
:1043D000CF9613794900E30C09FEBE30014913F76B
:1043E00007047DF39C40D4489C43DC478C5B9C5F76
:1043F0003387B640A9EF9147630FF7061C4C63FC67
:10440000D706DC48142405471CCCE392E6FC631B6A
:104410000902F117DCC8BE308545228593E7070401
:10442000BEB05C44E1179CC0D1207D568D45137908
:104430004900492E631B0900DC48142405471CCCA5
:10444000E397E6F8054738D4E9B7054961BF3386F5
:10445000E70011450326C6FF630BA700184C6378DD
:10446000D7000D8FBA9783A7C7FFE30CF6F88945ED
:104470002285892E79B77D56DDBFEFC2CF8991475E
:10448000AA843284638CF50099476384F5025C4505
:1044900003A787FF18C283A7C7FF39A01C49BC5FC9
:1044A0001CC2DC2393E707045CC02104C0C46FC0B6
:1044B000CF88E1655D469385C54BEF50703C08C0E1
:1044C0005C21CDB7EFC22F8544450E062A84918C1E
:1044D00044C5EF50D03E88C05C21094593E70704EE
:1044E000DCC05C44A1075CC46FC02F85EFC2AF8203
:1044F000185901CB232CB712130587008545EFC04F
:104500008F8F04490CA52A84BC58985B11CFD847DB
:1045100093068700D4C754453E8503A686FF10C383
:1045200083A6C6FF54C3D937FC5489CF5045EFF05A
:10453000DFF45C485844D44363F3E600D8C3FC542A
:1045400022858297EFC0106C8DCDEFB2DFFCAE8676
:104550008305060041112A84368532C636C4EFE051
:10456000F001A246324619E9E1659385454D228561
:10457000EF30C0598D452285EFF05FF741016FB0F4
:10458000DFFB8280EFB23FF9AA84884141112E847B
:104590001C411387F7FF18C185CF5C4113871700B3
:1045A00058C19C236D474C586398E7026166130617
:1045B00006502685EFF05FF9105C0C402685EF7001
:1045C000E02AAA852685EF00701F41016FB0FFF633
:1045D000EF80907CAA87F9B761662685130686501E
:1045E0003EC6EFF07FF6B247185C0C40930604011C
:1045F000130644002685EF50202EE1B7EFB2BFF13D
:104600008357E5064D7118083EC21C592AC018D9B7
:1046100028082EC432C6232401143EC8EFB07FF709
:1046200009E5B2450245A24782970247C2470325E2
:1046300081141CDBBA8712472397E70671616FB0BC
:10464000DFEFEFB2BFEB13871500B707002004516F
:10465000032A05066364F700EF208077139935007D
:10466000AE89CA8613163A00A6852A84EF202077E1
:1046700008D063433A035C44130989FD2A99858F66
:10468000AA975CC45C5023203407232E240181EFB9
:104690005C4885E36FB0DFE993173A00AA9723A23D
:1046A0000700050AF9B79843058F2A9798C39C47D6
:1046B000F9BFD843058F2A97D8C39843058F2A9707
:1046C00098C3BA33098B09C7984B058F2A9798CBA3
:1046D0009C47C1B7EFB23FE43851B7460F0093860D
:1046E000062463D5E6009945EFF05FE05C45105184
:1046F0002A84918F8D87BE9593171700950563D3F4
:10470000F600B68763D3F500BE85B7470F00138761
:104710000724635DB700938587302285EFF07FF231
:10472000E165938545A92285EFF07FB22285EFF000
:104730005FF16FB09FE0EFB21FDE40455C49411171
:10474000A1EB1C5138512AC61D8CB7470F000D84B0
:1047500093870724050463D3E704EF508039B747F4
:104760000F001387B723324563418702A145B34544
:10477000B40293870724A295A90563D3B700BE8529
:104780003C5163D4F500EFF0DFEB41016FB0FFDA8D
:10479000D8436373E4003A849C475DB7EF50A0525E
:1047A0007DBFEFB25FD758455C4D2A84998F214772
:1047B0006345F7008545EFF0FFF15C44A1075CC459
:1047C0006FB0BFD7EFB29FD3032A85055971630439
:1047D0000A06834745072A84B9CF444958451C51E6
:1047E00003A944002EC6B309F7403309F9405C4DD4
:1047F00032D0A6D6998F1307000A6345F700D1453A
:10480000EFF05FED5C446C0022859387070ADCC003
:10481000230A0406BE3093E74700BEB0029A8547DC
:10482000230AF4061C503E9923A22401CE975CC4AF
:10483000BE30ED9BBEB065616FB09FCFEFB21FCCB5
:104840003859039A0502AA84937767002E89368423
:104850008DC3098B19CB832905028545B3093641E0
:104860007D56EFF03FF690504E9683278900DC4B43
:104870009CCC8327890003280900DCC863030A0253
:1048800085476307FA00FD576317FA04014715A827
:1048900019E0138641921C422320F8005C42232237
:1048A000F80093173A003304F800054515A0931754
:1048B0003700B306F800B2978C4305078CC2DC437F
:1048C000DCC2E34687FE931734003304F800014549
:1048D000C0C46FB0FFC58146635A440363CB8602F0
:1048E000635304000144E35E44FB13173400429712
:1048F000232207000504C5BF13973600B305E8005F
:1049000032970843850688C15843D8C1E3C646FF9D
:1049100049BF13973600B305E80032970843850670
:1049200088C15843D8C15DBFEFB2FFBE4049AA84D9
:104930003E3013F7070109C7BD9B3EB05C487CCDF4
:1049400003170402FD576317F700DC4458406373F4
:10495000F7005CC01C48104C26858297D044931702
:104960003500AA861D8EA2852685EFF03FED6FB03B
:10497000DFBCEFB25FBA2A8481C58C41EFF0DFFA69
:10498000930444035C48639497006FB01FBBBE332D
:10499000898B91E785452285EFF01FF9E5B72285E0
:1049A000EF70B0152285EF701026E9BFEFB23FB46B
:1049B0002A84AE84B289594A930A6002194BD440C2
:1049C0000329C400584C93F6F6033307274163804C
:1049D0004619638A560F639F661B9C4033099940B2
:1049E0001359394083AAC7000D87930BF9FF03CBF6
:1049F0008A006343EB021C48032A0402DC47338A23
:104A000044416355F0002285EF102053DA8522855A
:104A1000EFF05FCC0450D29483C77A0083C66A005B
:104A200063850716E157B307F902032AC40001475B
:104A3000D2976357D700A107634E77116348D71207
:104A40005C4803A9C700631609002285EF500008DF
:104A50002A89232A24010E0B232849015A9A23105C
:104A600039032320990023224901232644010947C1
:104A700083A70A032311E9023858232AF900058B7A
:104A800029C3032789009107232AF9003E33814572
:104A9000898B99CF5C4B1307500283A7C7FF93F70D
:104AA000F7036397E700930720022311F90291456A
:104AB0007D562285EFF01FD183274901F117232A64
:104AC000F900014559A09C4003AAC7009307000ABA
:104AD00063C3E7021C4803290402DC4733892441ED
:104AE0006355F0002285EF104045D1452285EFF057
:104AF0007FBE0450CA945C4803A9C700631609002E
:104B00002285EF40B07C2A895C44232A24012310AB
:104B100039039387070A2322F9003C582320990080
:104B200023110902858B91C77D5681452285EFF0BF
:104B30007FC92285029A504493173500AA861D8E9C
:104B4000CA852285EFF09FCF05456FB0DF9D03AA90
:104B50000400ADBF50440507930586004CC48C4348
:104B60000CC2CC434CC223A20700E1B55C4405074C
:104B70001386870050C423A20700C9B55C44850B87
:104B80001387870058C423A20700E3C9DBFE138AFA
:104B900084007DB5A14763C3E7021C4803290402D2
:104BA000DC47338924416355F0002285EF10E0385B
:104BB00085452285EFF01FB20450CA945D46A68554
:104BC0002285EF6080615C411947AA8BBD8B6389A8
:104BD000E700616613060651A6852285EFF0EFEC2B
:104BE0000329C400014693067900338796400D835C
:104BF00063E4960013163700814563E6960093152B
:104C00003700B305B040CA95A14763E596008547D4
:104C1000998F8E073305F900EFB05F9483A70B00DF
:104C20002109232624019CC083A74B00DCC041BB83
:104C3000EFB27F8E94414C454449939736009D8D49
:104C40001C252A8499EB7D56E115EFF03FD601E54E
:104C50002285EF70407B6FB05F8E230405001C51EE
:104C6000D84CBA979CC0BE30898B81CBEF70A079AD
:104C700081452285EFF0FFCFF9BF9C4889CB904C4E
:104C8000854582974C4493173500AA869D8D2E86C4
:104C90002285A685EFF09FBAE1BFEFB2DF87835789
:104CA000E5061307700C2A848507C207C183231702
:104CB000F5066372F7021307800C6397E700E1655E
:104CC00093858551EFF0AFD81307000E6375F70099
:104CD0009945EFF0BF812285EFF05FCD01E5228598
:104CE000EF7060728357E406FD172317F4066FB068
:104CF000DF84EFB25F828357C5062A8485072316B7
:104D0000F506EFF09FF98357C406FD172316F40646
:104D10006FB0BF82EFB28FFE1C25011132C68359DE
:104D2000C5062A8491EF5849930745036301F702AA
:104D3000E1659385C552EFF0EFF805616FB04FFF65
:104D400005476386E700E16593850510EDB7A1E5AA
:104D500085472317F406956523160406700093858E
:104D600005C32285EFF09F89FD57AA846306F504E9
:104D7000854A156A26CE63D39A0403294401631831
:104D80000904504404A4A6852285EFF00FEF5C4887
:104D90005844D8C325A083D7E5061307700C8507B0
:104DA000C207C1832317F406E377F7FAE1653246B9
:104DB00093858551228541B789473ECE8357E406C6
:104DC000724523163407FD172317F406BDB7835722
:104DD0002902C18BA9C78327C901105022853E969D
:104DE000B28532C4AD242246A6852285EFF0EFE8D5
:104DF000835729022285232A2401858B230AF4065E
:104E000023160406EFF03F938327490170089305AA
:104E10002A977CCC2285EFF06FFEAA84A1BF0329DC
:104E20008900B1BF0355C506133515008280EFB266
:104E30008FEE0358C5065849AA87630F0800184922
:104E4000385B6307A700E16593854555EFF02FC0F8
:104E5000E16593850558DDBF054588A703A80702CE
:104E600008433305054148CF2A33098911ED14CB96
:104E700091C210CFD44793C5F5FF8E05AE9614C3EB
:104E800085453E85EFF08FE601456FB00FEBEFB241
:104E9000EFE68329C505411178CD032B4501834AEF
:104EA0004507035AC5062A843689EFF02FF5AA84F0
:104EB0000DC5105022854A96B28532C6492A32461F
:104EC0002285A685EFF06FDB2285232A6401230A61
:104ED000540723164407EFF01F86232E340526853A
:104EE00041016FB0EFE4EFB20FE38357C5063971AC
:104EF00036DC850754452316F5061C51784D2EC225
:104F000091659D8E32DE9385455850002A8402CAF1
:104F100002CE02D002D402D602DA02C402C8EFF0F6
:104F20001FF74246A245AA8481462285EF10306BC6
:104F30007246D2452AC481460606228502C8EF1071
:104F4000106A22568255814612062285EF1030697A
:104F50005256B255814612062285EF10506883578B
:104F6000C4062685FD172316F40621616FB0EFDC19
:104F7000EFB26FDA139635002E8441069305600276
:104F8000EF00B02D60A16FB04FDBEFB2CFD89384AC
:104F9000F5FF8A042E89138644019945EF00F02B12
:104FA0002A84230325012326050013864400814516
:104FB0004105EFB00FDD22856FB02FD8EFB20FD4CF
:104FC000AA892E84138905018144054A7C2063C483
:104FD000F4006FB0EFD5C146014681454E85EF1014
:104FE000106093078500232245011CC1232605007C
:104FF0002320A90085041109D1BFEFB2CFD12A84A3
:10500000130945024851AE8415E9C1460146814560
:105010002285EF10D05C83270900232205001CC5E0
:1050200085475CC55C542320A90004C163968700B2
:105030001C48F84F58D4E0CF6FB02FD01C41E3E6A6
:1050400097FCE38B97FE13098500084575BFEFB207
:105050008FCC2A84AE844C5081C59C4163F4970068
:105060006FB0AFCD984558D0D84119E78146414639
:105070002285EF10D056C5B7984398C5DC431387F7
:10508000850098C1DCC593F70704F1D72285EF00AE
:10509000D019D1B7EFB22FC813060005A545EF0010
:1050A000D01B2326050223280500232A0502232ED0
:1050B00005002328050223220504232A0500232CAA
:1050C0000502232C050023200504232605002313B5
:1050D000050023040500232E0502232005022322B8
:1050E000050223240502232405046FB00FC5EFB287
:1050F0008FC2D0492E848C5981460A06AA84EF10AB
:10510000104E504C4C5881460A062685EF10304D03
:1051100010484C5481460E062685EF10504C104C1A
:105120000C5C81460A062685EF10704B1C503146F8
:105130004C5C3306F60281462685EF10504A5044F7
:105140002C4081460E062685EF10704981461306D5
:105150000005A2852685EF1090486FB00FBE83280A
:1051600005020147314863591701B30607035C5D27
:10517000B697D4436354D600014582809447635761
:10518000D600FD1581E58843410582800507E1BF12
:10519000EFB2CFB6AA842E8451498D49414A583086
:1051A0005C201377C70F58B06360F90263F2F9020D
:1051B000F11793F7F70F636DFA00E1668A0793869C
:1051C000C65AB6979C43828713076002638EE70432
:1051D0006FB00FB61367470058B09C487830C507CA
:1051E000BA979CC8F5B71367470058B09C48584415
:1051F000C507FDB70C4491C5DC318D8B99C326855D
:10520000413F5C30584493E747005CB09C48E1075D
:10521000BA979CC87C20184893F70704D5DB5C3309
:105220008D8BDDD73A84A5BFBC401CC4A0C04DB750
:10523000BC405CCCE5BFBC401CD4CDBFBC407CC4F2
:10524000F5B7D8419377070495C38C413D8B114640
:10525000DC318D8BBE86631CC70089CBEFB2AFAB50
:10526000EFF01FF3814636856FB02FAD814636854E
:105270008280EFB24FAA2A849304C50D130905104A
:105280008C4099C5DC318D8B81C72285EFF05FF0B2
:105290009104E39724FF6FB04FAAEFB2CFA7604904
:1052A000AA8419E06FB06FA95C308D8B89C7A28585
:1052B0002685EFF0FFED0040EDB77C491307C503ED
:1052C0009306450581E71C4389E78280BE869C439F
:1052D000D5BFD0333E850D8A11E281C990433A850E
:1052E00010C3904290C39CC2BE862A87E9BFEFB22A
:1052F000EFA004490D464111FC482A842E899843A9
:10530000F8C8D85898C3DCD8D43313F776FFD8B38D
:1053100003C7140379171377F70F6368E60003C711
:105320000403C19A0D8B558FD8B33EC4DC230946C4
:105330002C0093E7070422853EC6EF50106A55C142
:105340005C411947BD8B639EE70883C93403034A58
:105350004407230A0406A38904025C441841544804
:10536000956598C358419385E5410146D8C32247C6
:10537000228598C73247D8C71387070158C4BA3265
:1053800013670710BAB214500147B386D740EFF045
:105390001FB05848AA853E3393F7F7EF3EB3230A70
:1053A0004407A389340315CD630D090289476313AC
:1053B000F502584491468327C7FFBD8B639FD700F2
:1053C000032687FF4106E1659385C55F2285EF20AF
:1053D000E07395452285EFF06F9161661306065FD5
:1053E000DDB741016FB0CF94EFB2EF920329050111
:1053F000AA8401448327490589CF8327090663646A
:10540000F400860701A885452685EFF05FEE0504C8
:10541000D5B781472320F90622856FB00F924C45FE
:105420000146C1156FF0FF8C58499307400674512F
:105430003357F702B7070080FD1733C6E70263D47E
:10544000C600B387E6020C455845BA959D8D6F405E
:1054500020665C4593F7070499C71C45DC338D8BA8
:1054600099C3A9475CC58280EFB26F88F83183AADF
:105470000501D147B397E700AA842E84BE9A01495B
:10548000014A1C446361F90203290401814B014B69
:10549000636D590383C71403C1E3FC405CCCE0C0D7
:1054A00052856FB04F885C4413173900BA97D843C0
:1054B0001377070409CB8C43DC318D8B89C7268594
:1054C000EFF01FCD054A05096DBF83294900639799
:1054D00009004A85EFF0FFF751095DBF9305890088
:1054E0002685EFF01FD693F9090419C9054BE3850A
:1054F00009FE83270900DC338D8BF9DF854BE9BF7B
:10550000E38C09FC83250900DC318D8BF1D72685DE
:10551000EFF01FC8054AC9B763860B00FC445CCC9A
:10552000E0C4BDBFE30E0BF6BC485CCCA0C88DBF89
:10553000EFA2DFFC2041A146AA84583093674700C0
:105540005CB05C20638DD72463EAF600154763885E
:10555000E70219476381E71C6FA09FFD254763871A
:10556000E72C13076002E399E7FE1C4413090401CA
:1055700081493CC17C2063C4F9208E07C5A25C4CE4
:105580003CC11C4C91CBF823218B1DCFD8330D8B04
:1055900001C7BE85EFF0DFBF7830032A0401D14791
:1055A000B397E7003E9A01491C44636AF910032946
:1055B00004016379490983294900639309124A85E3
:1055C000EFF03FE95109F5B7032685088D453E8583
:1055D000EF50703E0C4C2A8999C5DC318D8B81C708
:1055E0002685EFF0FFBAE30909FA8327490011473E
:1055F000BD8BE393E7FA032909009305B00641093F
:105600004A85EFD0A077AA89930560074A85EFD035
:10561000E07663950904032904017C308329840022
:1056200025DD514A331AFA005C304A9AB339300109
:10563000ED9B5CB0636D490383C71403BDE7FC4079
:105640005CCCE0C01C445448014791078E0789C6D2
:10565000743051473317D700BA9711A25C30ED9BD5
:105660005CB031E9A2852685EFF01FE0E1BF83271A
:10567000490091E74A85EFF0DFDD510965BF8327D7
:10568000C90093F7070489CB83258900DC318D8B12
:1056900081C72685EFF0DFAFE39109FECA85268535
:1056A000EFF03FBAB339A000C9BFE38D09F8BC449D
:1056B0005CCCA0C441BFBC485CCCA0C861B75C4412
:1056C00013173900BA97D8431377070401CB8C43DB
:1056D000DC318D8B81C72685EFF09FAB0509E9B5DD
:1056E0008327C90093F7070489CB83258900DC3120
:1056F0008D8B81C72685EFF0BFA993F90904E38359
:1057000009EC83250900DC318D8BE38D07EA2685C2
:10571000EFF01FA845BD1C444C443CC191C5DC3191
:105720008D8B99C3EFF0DFA6930904010149214A4B
:10573000854A0DA083A7090081CF984393868700EF
:105740006303D70283C61403638F460123A6570160
:10575000050991097C20E34FF9FC8A07C1079848A5
:10576000BA979CC8D5BB5C4393F70704F5D30C43A9
:10577000DC318D8BF1DF2685EFF09FA1D1BF832730
:10578000490093F7070489CB83250900DC318D8B11
:1057900081C72685EFF0DF9F85092109E1BB1C54F5
:1057A000032904026D9B3CC17C411CD460C158B0EC
:1057B0008547E30609FA5C44636EF90203C71403E4
:1057C000A147631CF70438501C500E07BA97636258
:1057D000F9045C546317F4005C5081C7FC4C5CD442
:1057E000E0CC3C507A2093064002BD073307D70235
:1057F0008E079DB58327490093F7070489CB83253E
:105800000900DC318D8B81C72685EFF07F98210957
:105810005DB72322090021095DBF03C72403854723
:10582000E301F7FC2285EFE01FF165BF7C443CC13A
:105830007C4091C7DC338D8B99C3232204042C4414
:1058400099C5DC318D8B81C72685EFF07F940149A6
:105850000DA05C5413173900BA97D8431377070487
:1058600001CB8C43DC318D8B81C72685EFF05F92B5
:1058700005091C48E34FF9FC01495C44634CF902FB
:1058800001495C4C6346F9040149B1491850634F22
:10589000E904544C5C48B697144CD107B6978D4632
:1058A0003307D7025444BA97184836970607BA9771
:1058B0008A0775B53C4013173900BA978C4399C5D0
:1058C000DC318D8B81C72685EFF09F8C050975B77C
:1058D0005C5813172900BA978C4399C5DC318D8B1E
:1058E00081C72685EFF0DF8A050961BF33073903D9
:1058F0005C5CBA978C4399C5DC318D8B81C726855A
:10590000EFF01F89050959B7EFA2FFC02A843C4078
:1059100099E36FA09FC22285EFF09FC1CDBFEFA298
:10592000FFBD2A892E84328A514B631444016FA033
:105930003FC07C30832A04018144B317FB00BE9A28
:105940001C4463E7F400044863E25403404CF1BF95
:105950008329C400939734004A85BE99CE85EFF021
:105960005F8E19C123A209008504D9BFDC4099CB01
:10597000A6854A85EFF0FF8C11C523A20400268579
:10598000EFF03FADD104C9B7EFA25FB7AA89AE84EB
:10599000514A99E06FA0DFB903C9740080483319F8
:1059A0002A01229963642401C44CE5B75C4089CB89
:1059B000930584004E85EFF0DF8811C52322040093
:1059C0002285EFF01FA95104F1BFEFA2DFB42A84B2
:1059D0006C4481442326040481E5FDF86FA0FFB5E3
:1059E000228503A9C501EFF03FA809C52285EFF084
:1059F000BFF18544CA85CDB708498547834615035D
:105A000063E5D700B2856FF0AFF8DC31834605035C
:105A1000E19B8D8AD58FDCB18280DC311849ED9B0A
:105A2000DCB17C43DCCD6CC38280084985470347E9
:105A3000150363E9E7009C418C43DC318D8B99C3EE
:105A40006FF00FF58280D8311C49719BD8B1984115
:105A5000D8DBB84F98C1ACCF8280EFA2DFAB04494E
:105A60002E84B28613F6F5008145EF10403703C748
:105A7000040340A10D8B58B1D85818C1C8D86FA0E5
:105A8000DFABD8417D17D8C111EB9C41138785004E
:105A90006396E700814641466F1060348280EFA232
:105AA0009FA41C49E16A411103CA0703AA842E89F5
:105AB000134B3A00B289137A3A00D14B130C6002AF
:105AC0008D4C414D938ACA610324090001C4639738
:105AD00009004A84228541016FA0BFA45C301440B4
:105AE00013C737003377EB0049EF2320D9005C2040
:105AF00063EDFB0063FDFC00F11793F7F70F63689C
:105B0000FD008A07D6979C43828763818705FD192C
:105B100065BFA2852685EFF08FDDD5BF9307040111
