:040000006F007054C9
:1000040000000000000000007206000074060000FA
:1000140000000000440D000000000000000000008B
:10002400440D0000440D000000000000000000002A
:10003400AEF6000000000000000200000000000016
:10004400440D0000440D0000440D0000440D000068
:10005400440D0000440D0000440D0000440D000058
:10006400440D0000440D0000440D0000440D000048
:10007400440D0000440D0000440D0000440D000038
:10008400440D0000440D0000440D0000F2EE000099
:10009400A6EF000056F0000006F10000440D000039
:1000A400440D000042F30000440D0000440D000024
:1000B400440D0000440D0000440D0000440D0000F8
:1000C400440D0000440D0000440D0000440D0000E8
:1000D400440D0000440D0000440D0000440D0000D8
:1000E400440D0000440D0000440D0000440D0000C8
:1000F400440D0000440D0000440D0000440D0000B8
:1001040000000000440D0000440D0000440D0000F8
:10011400440D0000440D0000440D0000440D000097
:10012400440D0000440D0000440D0000440D000087
:10013400440D0000440D0000440D0000440D000077
:10014400440D0000440D0000440D0000440D000067
:10015400440D0000440D0000440D0000440D000057
:10016400440D0000440D0000440D0000440D000047
:10017400440D0000440D0000440D0000440D000037
:10018400440D0000440D0000440D0000440D000027
:10019400440D0000440D0000440D0000440D000017
:1001A400000000000000000000000000000000004B
:0C01B4000000000000000000000000003F
:10020000130181F806C216C41AC61EC822CA26CC1B
:100210002ACE2ED032D236D43AD63ED842DA46DC76
:100220004ADECEC0D2C2D6C4DAC6DEC8E2CAE6CC46
:10023000EACEEED0F2D2F6D4FAD6FED8F3220030CF
:1002400096DA83A2819C23A02200F32510342EC0CD
:100250009305000273A0458003A1C192EF00E15015
:1002600003A3819C03210300824273901234D6526F
:10027000739002309240A2423243C2435244E2445D
:10028000724582551256A2563257C2575258E258FA
:1002900072598649164AA64A364BC64B564CE64C0E
:1002A000764D865D165EA65E365FC65F13018107DA
:1002B0007300203013000000130000001300000042
:1002C00013000000130000001300000013000000E2
:1002D00013000000130000001300000013000000D2
:1002E00013000000130000001300000013000000C2
:1002F00013000000130000001300000013000000B2
:1003000083A2C192938202E07390023403A1819C84
:10031000024182403243C2435244E2447245825514
:100320001256A2563257C2575258E258725986494D
:10033000164AA64A364BC64B564CE64C764D865D61
:10034000165EA65E365FC65FD652A102739002307B
:10035000A2421301810782801300000013000000F5
:100360001300000013000000130000001300000041
:100370001300000013000000130000001300000031
:100380001300000013000000130000001300000021
:100390001300000013000000130000001300000011
:1003A0001300000013000000130000001300000001
:1003B00013000000130000001300000013000000F1
:1003C00013000000130000001300000013000000E1
:1003D00013000000130000001300000013000000D1
:1003E00013000000130000001300000013000000C1
:1003F00013000000130000001300000013000000B1
:10040000F322003093F272FF130380781203B3E2F9
:100410006200711523205500130585FA10C12115BE
:100420002320050081426387020071152320050007
:10043000FD12D5BF71150CC18280000000000000C4
:1004400000000000000000000000000000000000AC
:10045000000000000000000000000000000000009C
:10046000000000000000000000000000000000008C
:10047000000000000000000000000000000000007C
:10048000000000000000000000000000000000006C
:10049000000000000000000000000000000000005C
:1004A000000000000000000000000000000000004C
:1004B000000000000000000000000000000000003C
:1004C000000000000000000000000000000000002C
:1004D000000000000000000000000000000000001C
:1004E000000000000000397101436EC619A0397187
:1004F00041536AC866CA62CC5ECE19A039710153F5
:100500005AD056D252D44ED64AD826DA22DC06DE4B
:1005100033016140828241114AC026C222C406C60C
:100520008282B24D4101024D924C224CB24B4101AC
:10053000024B924A224AB249410102499244224462
:10054000B240410182802A8309CA838305002300C7
:1005500073007D16050385056DFA828015C22A8316
:1005600085466367B500FD561307F6FF3A93BA95C3
:1005700083830500230073007D163693B6956DFACC
:1005800082802A8311C62300B3007D16050365FE11
:1005900082802320150040C104C52326250123287D
:1005A0003501232A4501232C5501232E65012320E3
:1005B000750323228503232495032326A5032328DB
:1005C000B503232A250200FD24E127242505272839
:1005D0003505272C4505272055072724650727289B
:1005E0007507272C8507272095092724A509272883
:1005F000B509014582808320050040410445032957
:10060000C50083290501032A4501832A8501032B9F
:10061000C501832B0502032C4502832C8502032D83
:10062000C502832D050303214503007D24610729AD
:10063000850487290505072A8505872A0506072BCE
:100640008506872B0507072C8507872C0508072DAE
:100650008508872D050913B515002E958280102178
:100660009421050585056313D60075FA3305D64038
:10067000828001A065655D711305852E82E686E4A2
:100680008AE28EE012FE16FC1AFA1EF82AF62EF402
:1006900032F236F03AEE3EEC42EA46E872E676E4B2
:1006A0007AE27EE0EF30D16B01A0EFF2DFE6EFE01F
:1006B000B03F37140140130504C0E14637461D0022
:1006C00093050020EFE0103B130504C0930680045F
:1006D00037461D0093050010EFE0D039E146014692
:1006E0001305048093050020EFE0D0381305048043
:1006F00093050040EFE090370966E1651306067147
:100700009385056A0145EFE0905D05BDEFF21FDFBF
:100710000111AA84EF00D05385476306F500014913
:100720004A85056131B50D4685452685EF20C02BEC
:10073000014685452685EF0030742AC42800EFE085
:10074000E00B71DD0349C100200081490504E3D9B4
:1007500029FD5C202685850953F517D0EF10200B65
:10076000F5B7EFF2BFD90111AA84EF00704E1374F0
:10077000F50F23088100854763F387047D14137404
:10078000F40F1309C10033048040CA89A2850146D1
:100790002685EF00706EA302A900050405097DF40B
:1007A000014685452685EF00306D63550500060539
:1007B000058105442AC64E8522CEEFE0802E0145F4
:1007C0000561BDB3EFF23FD52A84EF00704885473D
:1007D0006310F502014685452285EF00F069EFD0F0
:1007E000507F537505D02285EF1060020545B1B3E7
:1007F0000145C5BFEFF23FD22A84EF00704585471F
:100800006315F5020146FD55AA842285EF00D066E6
:10081000EFE0001E530500F06314950007A58187E3
:100820002285EF00D07E054509BB0145F5BFEFF2FB
:10083000FFCC01112A84EF00B04189476315F5040C
:100840001546FD552285EF20201A0146F9552285CF
:10085000EF0090622AC42800EFD0507A85475305F4
:1008600000F0631FF500FD552285EF20E02E2400E7
:1008700005499379F50F850463DA290107A5818776
:100880002285EF00D078054505615DB1DC20228529
:1008900053F517D0EF00B0774A86F9552285EF104F
:1008A00020300509C9BFEFF21FC72A84EF00503A74
:1008B00089476310F502014685452285EF00D05B2C
:1008C000014689452285EF00305B42054181EFD02A
:1008D000907B01459DB1EFF21FC42A84EF00503791
:1008E00085476319F5000146FD552285EF00D05874
:1008F000EFE0601D014591B1138501968280EFF212
:100900009FBE23AE01948149656A814A656B814B24
:10091000656C814C0545EFF0705F03ADC195630ACE
:100920000D068547E318FDFE03A54195E565938512
:10093000854DEF1020060145EFE0F02DAA852A89AC
:1009400003A54195EF00906D03A5419589659385B9
:100950000571EF00B06C03A5419509468145EF5044
:10096000A02E23ACA1946565CA851305054EEF3012
:10097000512A0145EFE0102983A781956365FD1297
:100980000545EFF0B05803A54195F955EF00302D1E
:1009900051B7EF20405023AAA194EF60205B03A53C
:1009A0004195014693052076EF00D07503A541954A
:1009B00093058A2FEF10A01A03A5419501469305D0
:1009C000407CEF00307403A5419593050B30EF1088
:1009D000001903A5419501469305C070EF00907280
:1009E00003A541959305CC30EF10601703A5419501
:1009F00001469305407FEF00F07003A54195E56542
:100A00009385C531EF10A01503A541958565014675
:100A10009385658DEF00106F03A54195E56593857E
:100A2000C532EF10C01303A5419585650146938536
:100A3000E582EF00306D03A54195E5659385C533EB
:100A4000EF10E01103A54195856501469385658A00
:100A5000EF00506B03A54195E5659385C534EF1014
:100A6000001003A54195E56593858535EF10B068C5
:100A7000854501ED03A541958145814701478146A3
:100A80007D56EF104038B335A00065651305C54CA1
:100A900023ACB194EF30F1170145EFE0F008854742
:100AA00023AEF19485BD03A541950146FD55EF00A8
:100AB0001042AA8565651305C54EEF30911589472B
:100AC00023AEF194C9B5EFF21FA509454529212AA6
:100AD000EF00A133D93E716513050520EF00813584
:100AE000B707002083A5071F65651305C54FEF30C5
:100AF0005112192C7D22EFF0300F01A0B7170240E0
:100B00009843B706FFF041111367170098C3D84305
:100B100037060200758FD8C39843B706F7FEFD1657
:100B2000758F98C39843B706FCFFFD16758F98C361
:100B3000D843B70601FFFD16758FD8C337079F004E
:100B400098C702C402C69843C166558F98C3B716AA
:100B5000024005679C42F18F3EC6A24785073EC40E
:100B6000B24781E7A247E397E7FEB71702409C43ED
:100B700037070200F98FB5C785473EC6324785471C
:100B8000631FF704B7170240D843B706C1FFFD162D
:100B9000D8C3D843D8C3D84313670740D8C3D84372
:100BA000758FD8C3D843B7063D00558FD8C3984337
:100BB000B7060001558F98C3B70600029843758F9A
:100BC00075DFD843B7160240719BD8C3D84313676B
:100BD0002700D8C32147DC42B18BE39EE7FE4101E9
:100BE000828002C661BF371702405C43A146B18BC9
:100BF0006398D7065C435843C166C983BD8B758F24
:100C00008907C5466393D700C94701EF37470240BC
:100C100003270780418B09CF37177A001307072076
:100C200021A8371702405843B7060200758F6DD7C9
:100C300037173D0013070790B387E70237170240C5
:100C4000544337070020130707009182BD8A369767
:100C50001823B3D7E700370700202328F71E828028
:100C6000B7177A0093870720D1BFB7270020938753
:100C700007221CC1B7270020938747D29CC1930746
:100C800000101CC28280B72700209387C71C1CC19C
:100C9000B7270020938747929CC1930700101CC27E
:100CA0008280EFF25F87EFD0B0312A8437280020AE
:100CB000B7170020E5653D65130848129387477212
:100CC00015478546130600089385C55013054599B9
:100CD000EFF0E06708C00D312A8437280020B707FD
:100CE0000020E5650565130888179387477819473D
:100CF00085461306803E938585511305E58FEFF0F9
:100D0000006508C06FF07F83EFF2FF80EFD0B02B5B
:100D10002A840147938641A0138641C1E14541459C
:100D2000EFE0704C08C0EFD0702A2A840147938608
:100D3000C1A4138641A9D1454145EFE0D04A08C07E
:100D40006FF0AFFF01A0970100209381A1CA177136
:100D500000201301212B17C501001305259597F5D8
:100D6000FF1F9385252A1386419563FAC5008322C8
:100D7000050023A0550011059105E3EAC5FE138582
:100D8000419597250020938525BF6377B5002320E3
:100D900005001105E36DB5FEFD42739002BCFD42F6
:100DA00073904280A162938202807390023097F226
:100DB000FFFF9382622593E2320073905230EFF08E
:100DC000FFD397020000938242D0739012347300D5
:100DD00020309C4513F7070113F8F70001C7D841ED
:100DE0003368E8008E2113F7F50F31C318418146AF
:100DF000054E930E80023D4F930F8004214333161E
:100E0000DE00B3F8C50063101603639AD70750C914
:100E100013962600B318CF0093C8F8FF33F7E80005
:100E20003316C800518F8506E39B66FC18C1130773
:100E3000F00F6375B70454410146054E930E8002CE
:100E4000130F80042143130786003317EE00B3F815
:100E5000E500631117036398D70358C99318260058
:100E60003D47331717011347F7FFF98EB3181801E1
:100E7000B3E6D8000506E31866FC54C18280E39906
:100E8000F7F910C971B7E39BE7FD18C9C1BFB708EF
:100E90003000935605011317050133731501BD8A00
:100EA000418363530502B7070140DC4F6315130507
:100EB000C1060D46B316D60093C6F6FFF58FC5E9F9
:100EC000370701405CCF8280370801400326480085
:100ED00063121307B70600F1FD16B377D600032699
:100EE0004800F18E2322D800BDCD5581120533155F
:100EF000A700C98F8DA837061000698E05C20D4660
:100F0000B316D60093C6F6FFF58FDDD9558113755C
:100F1000F53F12053315A700C98F5DB755811375CD
:100F2000F53F12053317A7009346F7FFF58FC9D990
:100F3000D98F79B7B7071000E98F99CB8D47B39751
:100F4000D70093C7F7FFF18FB706000FD58F69BFA2
:100F5000558112053315A7009347F5FFF18F370729
:100F6000000FD98FD9F5370701405CC382805581C6
:100F70001375F53F12053317A7005DBF23A2A19695
:100F80008280371702405C43A146B18B6383D7064A
:100F9000B7177A00938707201CC1371602405C42BE
:100FA00037070020130707019183BD8BBA9794235D
:100FB0001C41B3D7D7005CC15442A1829D8ABA9626
:100FC0009422B3D6D70014C55442AD829D8A369779
:100FD0001823B70600209386461FB3D7E7005CC5E9
:100FE000584239830D8B36971823B3D7E7021CC9B3
:100FF00082805C4354434167C983F98E37F7FF1FF2
:101000000326C7701167BD8B718F89070DE34546B5
:101010006393C700C947A9E6B746024083A6068086
:10102000C18AB1C6B7167A0093860620A9A00947DF
:10103000638DE7003D47638CE7004147638CE70021
:101040004547638CE7000147F9B7C947EDBF05473E
:10105000B547D1B70147BD477DBF0147C14765BF10
:10106000B7160240D44237060200F18EC5DEB7162D
:101070003D0093860690B387D70219DF858329BF89
:1010800099C5371702401C4FC98F1CCF8280B717F4
:101090000240984F1345F5FF798D88CF828099C51E
:1010A000371702405C4FC98F5CCF8280B717024070
:1010B000D84F1345F5FF798DC8CF82801E294A2568
:1010C000ED8F4205418189C76D8D3335A000828047
:1010D00001458280EFF22FC41629F577FD17FD8EAA
:1010E000FE21DA250111D58F1EA95625FD7793879C
:1010F000379FFD8EDE212A84AE84D58F9625D58F2D
:10110000B625D58F5EA55E29C207C18393F7F7CFB9
:10111000D98F5EA96800B535B7470140938707802E
:10112000631EF402E2476547B387E70298409306DF
:1011300040060A07B3D7E70233D7D702B3F7D7027F
:101140001207920793872703B3D7D702BD8BD98F96
:10115000C207C1831EA405616FF02FBED247E1B75D
:101160005E2589C50967D98F5EA5828079777D174D
:10117000F98FDDBF93F5F51F4EA182800A216D8D99
:101180003335A00082805049AA86635CB0001C42BF
:101190008E053385B700DC466364F5001385419204
:1011A0008280B7C7F0FF1387979D63C6E500484567
:1011B0008E052E9582809387879D6396F50008495A
:1011C00013054502828014425946C842E308C5FC13
:1011D00088428D8F7421E3C3F6FC0D8F0E073A957C
:1011E00082808C416F404042EFF2EFB2AE84B28514
:1011F0002A84EF90307AD440930750042A8901471B
:101200006396F602AA858840EFA080425C412A8757
:1012100091CF5C44144194C35841D8C3A1075CC426
:101220005C4403A5C7FF3D896FF02FB15444A685E8
:10123000228523A0260183474900368693E70704C9
:10124000DCC2938786005CC4EFB0701FD1BFEFF2A1
:101250008FACAE844111B2852A84EF90B073D44034
:10126000930750042A8901476398F604AA858840A9
:10127000EFA0003C5C412A87A1C3544483A7C6FF6A
:1012800093F7070499CF8C40DC31918B99CB83A7DE
:1012900086FFDC338D8B91C72AC62285EF50206BE9
:1012A00032475C4483A687FFE11714C3D44354C379
:1012B0005CC441016FF06FA85044A68522852320AD
:1012C000260183474900930686FF93E707045CC223
:1012D000930786005CC4EFB030215C44C117C9BFDE
:1012E000D0418C416F40301403284500AA8719452E
:1012F0001378F8036308A80213076002014563121C
:10130000E8069C43635FB004F823634CB70485058B
:101310008E05BE950CC289E665651305454D828034
:101320009CC2DDBF9C43014503A8C700635BB002BC
:101330008326C80063C7B602938635008A06B6972F
:101340009C43944314C211C31CC3832708048E0515
:10135000AE9703A587FF19C1410582806565130516
:101360000552828041116364B5004101828094413D
:1013700018415C4114C1D441E11554C198C5DCC584
:101380002105D5B7EFF22F995C45584D41112EC676
:101390001D8F0D8744492A8463DBE50032475C4496
:1013A0000E07BA97D840636CF702054531A8374756
:1013B0000F0013070724B305B7401851998F8D8785
:1013C000950763D6F500014541016FF00F978565DC
:1013D00070009385251EEF40A01569D1EDB7DCC0E4
:1013E000E9B7630AB5005C4513173600998F5CC5F1
:1013F00001476343C7008280544513183700DC451A
:10140000C29603A80600050723A00701D442D4C34F
:10141000A107DCC5F9BF1C49E857ECD7828001C59C
:101420001C49E85B82801385C191828037470F0099
:1014300013077762B386E500AA872E856369D70014
:10144000D84BDC471843998F8D873385F500828010
:101450005C4948459C43A1071D8D0D8582805C45F4
:10146000138715000E07BA9763C805005C499C43B3
:10147000BA9758456364F7005CC58280930687007D
:1014800054C523220700F5B7EFF2EF880329C50002
:101490003284D5396119AA84634104020E043304ED
:1014A0008940A28526857D3DCA85130584005D3D62
:1014B000CA852685453D6FF04F881344F4FF0E041E
:1014C0002A94C5B7EFF22F853289AA846D392A8410
:1014D000CA8526854D391C401CC15C405CC1B7C71C
:1014E000F0FF9387879D6353F9025C4093F70704ED
:1014F00091CFDC489C438C43DC31918B81CB1040F5
:101500005C328D8B81C72685EF5040426FF0EF82B1
:10151000EFF26F804045AA84BD311C411CC05C4184
:101520005CC02104C0C46FF04F81EFE2DFFEA1393F
:10153000938741926306F50048413D896FE0FFFFC4
:101540007D55EDBFED6785058A059387072AAE9720
:1015500088438280EFE23FFC3D3148413515133529
:1015600015006FE09FFDEFE21FFB41112939584143
:101570008D476308F7006C00EFB0605D41016FE0DC
:10158000DFFB0545E5BFEFE21FF9EFF0DFBF4841A4
:101590003D897515133525006FE03FFAEFE21FF620
:1015A0002A89B28993844192EFF0FFBD63009502CE
:1015B0002A84CE854A85EFF01FBD2A860145630542
:1015C0009600A285EFB0F0266FE09FF60145EDBFD3
:1015D000EFE2DFF22A84328A368993894192EFF072
:1015E0009FBA63033505AA84D2852285EFF0BFB97F
:1015F0002A860145630E36018547630DF900894748
:10160000630FF90063160900A6852285EFB07022EA
:101610006FE01FF2A6852285EFB0007FD5BFA685BB
:101620002285EFB0500EEDB70145DDB7EFE2BFEE1A
:101630002A842E854C44EF70203401C55C44A107F8
:101640005CC46FE09FEFEFE21FED41113284EFF0D9
:101650009FB354410D47639BE6001C6105453EE680
:1016600011C008C0326541016FE03FED6C00EFB082
:10167000004E7DF502C6EDB7EFE2FFE9411132847D
:10168000EFF07FB054414D47639BE6001C41054598
:101690003EC611C008C0324541016FE01FEA014655
:1016A0006C00EFB0A05075F502C6E5B7EFE2BFE6FB
:1016B000EFF07FADAA87484119C505476317E500DC
:1016C00088433335A0006FE05FE70545EDBFEFE2EB
:1016D0009FE42E89AA843284EFF0FFAA5C4111476F
:1016E000AA85BD8B638AE7020D476388E70019C0AE
:1016F0002320040001456FE05FE42685EF70A044DD
:101700009C48DC476355F0002685EF504076CA853B
:101710002685EFF05FA7AA8501C89C411147D42315
:101720006397E600FC331CC088414105E9B7DC47FC
:10173000DDBFEFE25FDEEFF01FA558419D469377D6
:10174000F7036381D7021377870311EB1147638E89
:10175000E7001547638EE70001456FE01FDE514744
:10176000E39CE7FE1C41C847CDBF1C41E833F5B7F9
:101770000841EFA0002DD5B7EFE2FFD9EFF0BFA0F1
:1017800058418946AA873D8B630AD7009D4601458B
:101790006314D700884361056FE03FDA0841EDBF6D
:1017A000EFE27FD7EFF03F9E584193078004631527
:1017B000F70008416FE07FD80145EDBFEFE2BFD5EC
:1017C000EFF07F9C5C41214793F7F7036389E702C1
:1017D000634EF7001D476381E70211476341F7023B
:1017E0000947638EE70001456FE03FD5594763889D
:1017F000E70013076002F5B708416105F5B7084136
:10180000E5B75C4523A20700A1075CC582805C4563
:101810000D4788E3D8C3A1075CC582805C454D476E
:101820008CC3D8C3A1075CC58280EFE2DFCEAA8457
:1018300015EAE5659385454DEF90D015DC442A8483
:1018400088C3582113670704D8C3A107DCC49C4888
:10185000DC476355F0002685EF50606113050401F5
:101860006FE0BFCDEF90300FD1BFEFE2DFCAAA84A7
:1018700095E15C452E8423A20700DC44A107DCC46B
:101880009C48DC476355F0002685EF50405E22857A
:101890006FE0BFCAEF901010D8441304050108C3CD
:1018A0005C2193E707045CC3C9BFEFE2DFC62A846B
:1018B000EF70E0341C48AA84DC476355F0002285B1
:1018C000EF50E05A26856FE05FC7397132D430108F
:1018D00022CC26CA2A843EDA06CE36D63AD842DC54
:1018E00046DE32C6EF70A0311C48AA84DC4763553F
:1018F000F0002285EF50A057F24062442685D24482
:1019000021618280EFE23FC1AA842E8909EA5C4509
:1019100059478CC3D8C3A1075CC56FE01FC2B2850D
:101920003284EF402058DC4413163400232625016E
:10193000918FB386C70083A586FF3307C500611664
:101940000CC783A6C6FF54C76DF61307600688C38D
:10195000D8C3A107DCC49C48DC47E350F0FC2685D3
:10196000EF50E0505DBF5C45B335B00005478CC318
:10197000D8C3A1075CC582805C451307800488C377
:10198000D8C3A1075CC51C49BC5B3385A740133590
:1019900015008280EFE23FB81C492A844111C853E8
:1019A0002EC68945EF9090403246AA852285EFF0F9
:1019B000BF8341016FE07FB8EFE2FFB541112A8498
:1019C00032C6EFF04FFC3246AA852285EFF0DF8168
:1019D00041016FE09FB6EFE21FB42A843289EFF035
:1019E0008FFA544193075004AA8401476396F60284
:1019F0000841CA85EF90903B5C412A8791CF5C44B7
:101A0000144194C35841D8C3A1075CC45C4403A5E6
:101A1000C7FF3D896FE07FB25444CD47A685DCC245
:101A200023A02601938786005CC436862285EFB00A
:101A30000021E9BFEFE23FAE2A84EFF0CFF4444447
:101A40000841938584FFEF9030411C4123ACF4FEA4
:101A50005C4123AEF4FE5C4403A5C7FF3D896FE003
:101A6000DFADEFE25FAB2A84B284EFF0CFF1084143
:101A7000A6850329C400EF9070331C412320F90090
:101A80005C412322F9005C44C8431387870058C493
:101A90003D896FE09FAAEFE21FA84111B2842A841A
:101AA000EFF06FEE26C4084189472C0044443EC63F
:101AB000EF90903A1C419CC05C41DCC05C44C84340
:101AC0001387870058C43D8941016FE01FA7EFE2EB
:101AD0009FA441112A84AE8432C6EF9070265C44E4
:101AE00013075004B24688C3D8C3A1075CC4AA85B3
:101AF000634490006356D00026862285EF90503FC5
:101B00001C48DC476355F0002285EF504036410108
:101B10006FE0BFA2EFE23FA02A84EFF0CFE65C4186
:101B20001547BD8B638CE7001D476387E7021848A4
:101B3000938747038A07BA97D84719A01C41984F43
:101B4000014509CB5C44054598C313075004D8C32D
:101B5000A1075CC46FE07F9E1C419847D5B7EFE2B8
:101B60009F9B1C492A844111C8532EC68945EF907A
:101B7000F0233246AA852285EFF06FED41016FE038
:101B8000DF9BEFE25F9941112A8432C6EFF0AFDFAD
:101B90003246AA852285EFF08FEB41016FE0FF9975
:101BA000EFE27F9741112A843289EFF0CFDD544173
:101BB00093075004AA8401476398F6040841CA8534
:101BC000EF90D01E5C412A87A1C3544483A7C6FF6F
:101BD00093F7070499CF8C40DC31918B99CB83A785
:101BE00086FFDC338D8B91C72AC62285EF403056A5
:101BF00032475C4483A687FFE11714C3D44354C320
:101C00005CC441016FE07F935044CD47A6855CC220
:101C100023202601930786005CC4930686FF228555
:101C2000EFB0800C5C44C117E1BFEFE2DF8E2A8485
:101C3000EFF06FD550440C41AA8441162285EF90F5
:101C4000905D5C4403A787FF18C183A7C7FF5CC1F1
:101C50009C402383070058448327C7FF93F707045A
:101C600089CF8C40DC31918B89CB832787FFDC3394
:101C70008D8B81C72285EF40904D5C44C1175CC4B9
:101C80006FE0BF8BEFE23F8941112A8432C6EFF04B
:101C90008FCF54440C413246AA84E1162285EF903E
:101CA000902158448327C7FF93F7070489CF8C40BE
:101CB000DC31918B89CB832787FFDC338D8B81C708
:101CC0002285EF40D0485C44E1175CC441016FE0DD
:101CD000DF86EFE25F84411132892A84EFF0AFCAD8
:101CE0004AC40C418947AA84300022853EC6EF9041
:101CF00090525C4403A787FF18C103A7C7FF58C1D0
:101D000003A7C7FF1377070409CF8C40D831118B85
:101D100009CB83A787FFDC338D8B81C72285EF40FA
:101D200010435C44E1175CC441016FE01F81EFE2A6
:101D30008FFE4111AA84EFF00FC5D8445C412A847C
:101D40008326C7FF95E6BD8B1547638FE7001D47C8
:101D50006397E7061C4123A40700DC440545E1170F
:101D6000DCC441016FE06FFD1C4123AC0700F5B7F7
:101D7000032687FFBD8B1547638CE7001D47638DE6
:101D8000E7029848938747038A07BA97D0C7F1B705
:101D90001C4190CF79D20C40DC31918B89CB5C32E5
:101DA0008D8B91C7268532C6EF40503832460C40A5
:101DB0002685EF40507C55B71C4190C7E1BF0146D6
:101DC000C9B7EFE24FF55C4593C5F5FF8E052A8450
:101DD000B284BE9505C78357C5068DE35C4998CB91
:101DE00094CFEF30D05EFD576398F4005C485844C0
:101DF000D44363F3E600D8C36FE02FF42686228530
:101E0000EF307062CDB7EFE26FEF83290502411129
:101E10002A84AE843289BA8A3E8A91C6B685EFF0AA
:101E20008FB6B30635414C4493C4F4FF8E04A69597
:101E30002EC463050A008357C40685CB3687B38654
:101E40003541856530009385052E22854AC6EF30E1
:101E50005077FD576318F9005C485844D44363F346
:101E6000E600D8C341016FE0AFEC44487C4CB38935
:101E7000354123A84401DCC823AC5401BE3023AE55
:101E8000340103474407F99B74CCD98F93E70701CA
:101E9000BEB022854A86EF309053BE300145BD9BCF
:101EA000BEB0DC487CCC75B7EFE2EFE601112A84C6
:101EB0003A89B68481E6E5649384C452B286228569
:101EC0002E866C00EFC0D0002686CA866C00228564
:101ED000EF30B074AA840DED5C4403A987FF8347FB
:101EE00069009DC71C488945C853EF90206C832525
:101EF00009011C4198411CC35C415CC393F7070472
:101F000081CB938785006315F7002285EF4030254C
:101F1000268505616FE06FE208258280EFE20FDE23
:101F2000A547004963E0B70CE567938707538A0527
:101F3000BE959C412A898287A309040201456FE06E
:101F40002FDF81452285EF8010448547A309F402E5
:101F5000F5B78145EF40307AD5B708445C443E95EB
:101F60002981F1BF08445C443E951375F53FC1BF1C
:101F7000854783493403A309F4020DE29305009CCD
:101F80002285EF8050404A85EF40706EA3093403EC
:101F90000345140365151335150055B75C442A062F
:101FA0002285B304F600A685EF80F03D8327090162
:101FB000DC476355F0004A85EF40706BA30934039A
:101FC000E34890FCA5BF685070D095BF930780028E
:101FD00028546354F6001306800230D48DB70345AD
:101FE0003403B1BF7D55A1BFEF302016EFE2AFD271
:101FF0002A84EFF04F9950440C4122856116EF90EE
:10200000A04558449307870019E1930787FF5CC4F4
:102010006FE0AFD2EFE22FD005472A84635DB700AF
:10202000EFB0C0151C48DC476355F0002285EF4037
:1020300010646FE08FD0FDF54445E565014693855A
:10204000454DEF90401188C05C2193E70704DCC048
:102050005C44A1075CC4F9B7EFE2EFCB2A84EFF050
:102060008F924C442A862285EFB000285C44A10759
:102070005CC46FE08FCC81C51C49DC439CC11C490A
:1020800088438280EFE22FC92A84EF9080165C4457
:1020900013077004AA8488C3D8C3A1075CC41C4872
:1020A000DC476355F0002285EF40705C13858401A6
:1020B0006FE0AFC8EFE22FC64111B2842A8402C29A
:1020C00002C402C6EFF02F8CA685780034005000C1
:1020D000EFF08FA1AA8415CD5C44A245138787FF3A
:1020E00083A687FF58C4124714C383A6C7FF54C3EF
:1020F0008DC503A7C7FF1377070401CFD831118B14
:1021000009CB03A687FF5C328D8B81C72285EF4008
:10211000F001268541016FE04FC2B245FDD99841DB
:102120005C4393F70704F5D793878500E313F7FE25
:102130002285EF40D002F1BFDC41014589C78841CB
:102140001CC223A20500828019E201458280EFE2D1
:10215000EFBA2E89FD552A84B284EFF00FBD954762
:10216000631CF5002285EFF0CFE99149FD14F95584
:102170002285EFF0BFE701E501456FE06FBBF95540
:102180002285EFF08FBA631C35057D56CA852285FE
:10219000EFF0CFC019C5F9552285EFF04FAC0545DA
:1021A000E9BF2686CA852285453715C97D56228511
:1021B000F955EFF06FAD2285F955EFF04FAAE565BF
:1021C000938585552285EFF04FEA22850546F9551E
:1021D000EFF08FAB8D452285EFF0DFE3C9B7F955FE
:1021E0002285EFF0CFA761B7EFE24FB141112A840A
:1021F0002EC6EFF0EFA53246E9652A89938545831F
:102200002285EF2030426566B7C5F0FF1306C6553C
:102210009385859D2285EFF02FFA930919000946D1
:10222000CE852285EFF05FF231C90146FD5522854A
:10223000EFF0EFC9E5650D4693854556AA84EF207A
:10224000912619ED938534002285EFF00FE2F955C0
:1022500022857D56EFF04FA3F9552285EFF02FA090
:102260004E86FD552285EFF0EFA5F5552285EFF05E
:102270000F9F8544268541016FE08FABAA84CA85F4
:102280002285EFF0CF9DFDB7EFE2EFA841112A8440
:10229000B2842E89EF0091520841EF20F11E2AC628
:1022A000A68501462285EFF08FC23247E565930689
:1022B00015004A86938585562285EFF00FE17D56FD
:1022C000A6852285EFF04F9C2285F955EFF02F99D6
:1022D0001D4541016FE06FA6EFE2EFA39C412E8404
:1022E000B2846359F0001CC223A0050013058400CA
:1022F0006FE0AFA4D4410145DE2693F70702EDFB62
:1023000013060040854513058400EF10613988C02D
:10231000F1BFEFE24FA083A741810146FD55C447BD
:10232000EFF0EFBAE5652A869385C5572685EF104D
:10233000412383A74181C847EF00917301456FE0B6
:10234000CF9FEFE24F9D2E8499E62E85EF10312E20
:1023500001456FE08F9EB68522853289B684EF20D5
:10236000C12065F975D4E36599FE2285DDB7EFE2FA
:10237000EF98E5642A842E89232005009384045B6A
:10238000FD594840EF10F105AA87630535039820F1
:1023900085046311E5021840838704009306170043
:1023A00014C0229708A7F1FF484023200400EF1033
:1023B0005103AA872320F9001307300201456391D6
:1023C000E702FD59A9444840EF10B101630435010B
:1023D000E31B95FE4840EF10D1002320A9000545DE
:1023E0006FE00F95EFE22F93597170002A84EF2070
:1023F000D0200DC5E56570009385455B2285EF20F3
:1024000070228256635CD000E56510189385855B69
:102410002285EFF08FCB65616FE02F92E5659385A4
:10242000454D2285EFF06FCAFDB7397126CA3EDAF5
:10243000AE843C10854506CE22CC36D62A843AD8C6
:1024400042DC46DE3EC632D4EFF0DFF93246A685E6
:102450002285EFF08FC522858945EFF0BFBB22852D
:10246000EFF09FB8F2406244D24421618280EFE2F3
:102470008F8A5971AE843289814570002A84EF2099
:10248000D01701EDE565CA8626869385055C228511
:10249000EFF0BFF965616FE04F8AE56570009385E5
:1024A00045352285EF2010185245E965938505F7DB
:1024B000EFE0EF9A424601E9FD1491E4E565CA8632
:1024C0009385855DE9B701EE6C002285EFF0DFD1E1
:1024D0000DC10146FD552285EFF06F9F2AC8C24607
:1024E000E5654A8726869385855F2285EFF0FFF3B1
:1024F00055B765651305C552D5B7EFE22F80411179
:102500002E8A6C003289AA89EFF0FFB6AA84D285A0
:102510004E85EFF06FA650410C412A843245CA86A1
:102520008294AA8409ED630C0900D28501464E8588
:10253000E937E565938585614E85EFF01FEF04C0AF
:1025400023222401268541016FD09FFEEFD2BFFCDC
:1025500001468545EFF07FFA01456FD01FFEEFD2AF
:102560009FFB37C9F0FFAE842E869305899D2A8490
:10257000EFF08FC431E1F9552285EFE05FEE0946B7
:1025800081452285EFF0AFD4A6852285EFF0EFAD2F
:10259000656613060664F9552285EFF08FDEFD555A
:1025A0002285EFE0FFF6228526869305899DEFF0D0
:1025B0004FDD05456FD07FF80145EDBFEFD2BFF588
:1025C00041112A8432C6EFE0FFDB09E9324611CA25
:1025D000E565938585642285EFF03FE541016FD085
:1025E000DFF5E5659385C5652285EFF01FE4FDB74E
:1025F000EFD27FF22A84AE84EFE03FF3FD576319F8
:10260000F50065661306C666A6852285EFF03FE6EF
:102610006FD0BFF2EFD23FF044411C452A8433878C
:10262000F4406371B70486043387F4400329C5007E
:102630006374B700BE95AE8463F8F400E5659385D6
:10264000C5674A85EFF07FDE1840930704016300F9
:10265000F7024A852686FD55EFF03FEA2A892320B6
:10266000240144C008401C443E956FD01FEDA14595
:102670004A85EFF03FA1E5652320050023220500F0
:10268000938505694A85EFF09FED19CD896501466F
:102690009385C5544A85EFF0EFA6656613068669F3
:1026A000F9554A85EFF0EFCDF9554A85EFF02FE85F
:1026B0002686FD554A85EFF05FE410440C402A89D8
:1026C000EFD07FE869BF15C2EFD2FFE42E89B28553
:1026D0003284AA84EFF01FF42286CA85EFD0BFE6C9
:1026E0009C44A2979CC46FD05FE58280EFD2BFE28A
:1026F00041112A842E852EC6EF20E159B2452A8643
:102700002285EFF05FFC41016FD03FE3EFD2BFE0E5
:10271000444510450C412A842685EFF00F9118405E
:10272000930704016300F7020146F9552685EFF08F
:10273000DFDCF95526857D56EFE01FD5F955268556
:10274000EFE0FFD16FD07FDFEFD25FDB4445411177
:102750002A847000FD552685EFE07FF71C40930921
:1027600004012A89638737010546F9552685EFE07C
:10277000BFD13246CA852285EFF0FFF41C40FD55DB
:102780006383F900F9557D562685EFE0FFCFF955B3
:102790002685EFE0DFCC41016FD09FD993870501FB
:1027A0009CC1856793870780C8C523A40500DCC149
:1027B0008280EFD2BFD4130101BFAA842E89328454
:1027C000EFE01FC993091500631F0904E5659385B0
:1027D000056A2685EFF06F8983A74181DC433EC6F9
:1027E0004C002800EFF0BFB819C9A24713871700A3
:1027F000938707413AC48A9729472380E7C0124745
:10280000ED476312F706630009063246E5659385D6
:10281000456B4A85EF10E1072AC631E1E5654E8632
:102820009385856B25A0E5654A869385856A26850F
:10283000EFF0AF89F165938585A04A85EF00B1512E
:102840002AC659FDE5654E869385C56A2685EFF053
:10285000BFA32A842285130101416FD07FCD4C0094
:102860002800EFF0DFB01247FD57630BF700A247D7
:1028700093861700938707418A9736C42380E7C061
:102880000146FD552685EFE09FE48965AA862287EB
:1028900030009385852D2685EFF00FE12A8432459F
:1028A000035AC500137A0A0463040900EF00A17FEC
:1028B000630B0A00CE852685EFE07FBAE5654E867C
:1028C0009385056C61B7CE8526857D56EFE0DFBB2D
:1028D000F9552685EFE0BFB8B5BFEFD2DFC3411190
:1028E0002EC4896532C6938585133000EFF0CFDBA7
:1028F00041016FD09FC4EFD21FC241112A842E859F
:102900002EC6EF204139B2462A860147B685228578
:10291000EFF0BFFC41016FD05FC2EFD2DFBF2A846E
:10292000B284EFF02F9F09E5814426856FD0FFC068
:10293000A6852285EFE07FF3F9552285EFF08F8F92
:10294000AA8411E5F5552285EFE07FB1F1BF22851C
:102950007D56F955EFE05FB3F9552285EFE03FB0C2
:10296000E9B7EFD25FBB32896566130606642A8435
:10297000AE84EFF09FFA91476316F5020146FD55CC
:102980002285EFE0DFD4AA86E5654A869385856DCA
:102990002285EFE09FF32A86A6852285EFF03FADE2
:1029A0006FD0BFB9A6852285EFE03FB88947630B9A
:1029B000F500A6852285EFE05FB7AA852285EFE0C6
:1029C0007FB8D1B7E5669386866C7DBFEFD2BFB482
:1029D000AE84B2852A84EFE0FFB62A86A6852285DA
:1029E000EFF03FF86FD07FB5EFD2FFB2411132C6A2
:1029F0002A84AE84EFE07FB332466306C500A68525
:102A00002285EFF0BFFC41016FD03FB3EFD2BFB0E2
:102A1000AA842E89EFE0BFCB2A8411E51146CA852E
:102A20002685EFF0BFFA22856FD03FB1EFD21FAD00
:102A30002A89AE893284B684EFE03FAF634CA000B0
:102A400099C4014501C42285EF20E12488C0228574
:102A50006FD01FAE2686CE854A85EFF03FFB2A84D5
:102A6000FDB7EFD2BFA94111AA842E89B6891DCA2C
:102A70008146EFF0BFFB2A86014493172400CE97CE
:102A8000884305E5E5659385C56E2685EFE0FFE3A0
:102A90002A86CA852685EFF09F9D2A8422854101DA
:102AA0006FD01FA9EFF09FF6F9B7B28532C6EFD00D
:102AB0001FBB6DD532460504C9B7EFD2DFA5411162
:102AC00070002A84AE84EFE03FBBB2472A8989EFC9
:102AD000A6852285EFE03FA901CD65661306067045
:102AE000A6852285EFF0BF984A8541016FD0FFA4EB
:102AF0000D46A6852285EFF07FEDFDB7EFD2BFA191
:102B0000AA842E893284EFE05FA26357A000CA85B1
:102B10002685EFF09FFA2A8422856FD01FA2EFD27C
:102B20009F9F41112A8432C6EFE05F903246AA850A
:102B30002AC62285EFF07FDE09CDB2452285EFE07F
:102B40003F9D22850147814605468545EFF06FA7E9
:102B5000054541016FD07F9EEFD2FF9B41112A8432
:102B6000EFF08FCF7000FD552285EFE0FFB0B24748
:102B7000AA8499E7E565938585722285EFF0FF8A3F
:102B80002285F955EFE0BF8D268541016FD0FF9A70
:102B9000EFD2DF96328A6566130686752A84AE8484
:102BA000EFF0FFF71DC1FD552285EFE0DF9D19E530
:102BB000E565938545762285EFF03F875286FD5582
:102BC0002285EFE0DFB06FD0BF96A6852285EFE0CB
:102BD000DF958D47630AF50663C0A7066306050CFB
:102BE00085476303F50A656613060664A685228594
:102BF000EFF0BFD29147AA89631CF50A0146FD5543
:102C00002285EFE0DFAC2A89A6852285EFE01FBB95
:102C1000E565AA864A86938545792285EFE0FFCA55
:102C2000E38E09F822857D56F955EFE0FF85F955C9
:102C30002285EFE0DF8259B79147E316F5FAA685C2
:102C40002285EFE0FF8C9DBFA6852285EFE09F9057
:102C50000146A68501CD2285EFE01FA2E5652A8603
:102C6000938585782285EFE05FC689BF2285EFE0F6
:102C70009F9DEFF09069AE86E5652A869385C578BD
:102C80002285EFE09FC41DBFA6852285EFE01FA22D
:102C900001C9E565938585742285EFE01FBD39BFC5
:102CA000E56593850575CDBFE56593850579EDB738
:102CB000A6852285EFE07F87AA852285EFE09F88A1
:102CC00099B7EFD2BF8332846566AE841306C679A6
:102CD000A285F9592A89B30A8040EFF03F8EB38963
:102CE00089409C409DEB9345F4FF4A85EFE02FF728
:102CF0006FD01F84D6854A85EFE09F81050AE34B9C
:102D00008AFECC4022864A85EFE0DFBF9040CE8528
:102D10004A85EFE01FE7A104E9B7014ACDB7EFD23A
:102D20008FFF2A84AE843289EFE01FC99547630C78
:102D3000F502F9552285EFE08FF2A6852285EFE0B6
:102D4000EFEE0146AA8481452285EFE05FD8FD556C
:102D50002285EFE0EFFB22854A86A685EFE07FE241
:102D600001456FD08FFD0545EDBFEFD22FF9AE8441
:102D7000B289B7C5F0FF65661306C6559385859D74
:102D80002A843689EFF0BFF9FD5526862285EFE0CB
:102D9000BFC2FD552285EFE07F9115EDF9552285E3
:102DA000EFE0EFEB0146CE852285EFE0BFB5A685CB
:102DB0002285EFE09FAB0546014781468545228588
:102DC000EFF02F80FD552285EFE08FF42686F55534
:102DD0002285EFE01FDBF95522857D56EFE0CFEA33
:102DE000F9552285EFE0AFE7630A0900FD5522851A
:102DF000EFE00FF2A6852285EFE07FD66FD04FF38C
:102E0000EFD2EFEEFD729382027E1691AA8932858F
:102E1000AE84328A368BEF1011681C103EC885676D
:102E2000938707807D743ECA85671304047F938768
:102E30000781A2971808AA8A4ECE02CCB38BE7006E
:102E4000D2852685EF10D16C2A890DE98567938795
:102E500007811808A2973385E700A6852AC6EFF0F8
:102E6000FF883245EFF09F8A0146FD554E85EFE021
:102E70001F861301017F45616FD0EFEA3306994049
:102E8000A6855E85EFF03F84DA855E85EFF01F86CC
:102E9000B304590175B7EFD20FE8096581451305F1
:102EA0002534EF70705B2A8411C5896593852531BF
:102EB000EFE06FD622856FD04FE8EFD2CFE541111A
:102EC00022E62A845304A5202E89EFE04FD59307EC
:102ED0004004AA846308F900E5659385057B228593
:102EE000EFF0AFD40145EFE08FD3638CA400E5652C
:102EF0009385457E2285EFF04FD3326441016FD038
:102F0000CFE38860D32785A0EDFBEFF01040530599
:102F100084202A89AE84EFF0503FAE86E9652A8688
:102F20004A87A687938505802285EFF00FD0F1B7F9
:102F3000EFD26FDEEFE0CFD17D156FD00FE0EFD293
:102F40008FDD85452A84EFE04FDEFD57AA846319A3
:102F5000F50065661306C66685452285EFF02FD11C
:102F6000A6852285EFE00FDEAA852285EFE0FF8FA0
:102F700005456FD08FDCEFD20FDA85452A84EFF05C
:102F80002FE7014685452285EFF09FC005456FD0AC
:102F9000CFDAEFD24FD8AA84EFE08FCB2A848545D1
:102FA0002685EFE08FD891476315F50201468545E8
:102FB0002685EFE0CFF10307050093073002631A7F
:102FC000F70026859305F4FFEFE05F8505456FD098
:102FD000CFD685452685EFF05FAE3309A400634662
:102FE00005002289635385002A89634920016966A7
:102FF0001306868385452685EFF06FC73305244188
:10300000F9B7EFD24FD189452A84EFE00FD2AA84D5
:10301000154685452285EFF03F9D99C89547638900
:10302000F40069661306C68489452285EFF02FC433
:1030300069661306468685452285EFF01F8E09C90D
:10304000E965938505872285EFF02FBE6FD0EFCE1F
:1030500089452285EFE0AFC085452285EFE03FCD71
:103060000545EDB7EFD22FCB154685452A84EFF005
:10307000BF9722858945EFF0AFD722858D45EFF0C8
:103080002FD722858D45EFE08FBD22858545EFE066
:10309000DFB905456FD06FCAEFD2EFC7154685453A
:1030A0002A84EFF07F9422858945EFF06FD4228542
:1030B0008945EFE0CFBA85452285EFE0BF9705450A
:1030C0006FD0AFC7EFD22FC585452A84EFE0EFC59B
:1030D0007115854763F9A70069661306468985451A
:1030E0002285EFF0CFB885452285EFE08FE4AA85F1
:1030F0002285EFE0AFF205456FD02FC4EFD2AFC10C
:1031000085452A84EFF0CFCE22858945EFF04FCE5A
:10311000094685452285EFE06FC8AA852285EFE044
:103120009F8405456FD06FC1EFD24FBD41112A84F6
:10313000EFE00FB2E965AA899385058B2285EFE060
:103140007F858544E96A63D3990283A741816565D8
:103150000546944785451305C55AEF00912783A777
:1031600041818847EF00C11001452DA8FD552285FA
:10317000EFE00FBAA6852285EFE08FB901478146BF
:10318000054685452285EFE0DFC37000FD552285A9
:10319000EFE0EFD32A8911E9E9659385C58B228594
:1031A000EFF0AFA841016FD0AFB88547638BF40053
:1031B00083A7418105468545944713858A8EEF0094
:1031C000512183A741813246854594474A8585042C
:1031D000EF003120F9552285EFE06FA8ADB7EFD2AF
:1031E0008FB385452A84EFF0AFC08D6501462285F7
:1031F0009385852BEFE00FF122858545EFE04FB1F8
:1032000022858145EFE08FE10D456FD00FB3EFD2FE
:103210008FB0154685452A84EFF00FFD894522853C
:10322000EFE0EFA385452285EFE05FDC19E522851D
:10323000EFE02FDD05456FD04FB00945EDBFEFD270
:103240008FADB28469661306C68E89452A84EFF075
:10325000EFB685452285EFE0AFAB8145228501477A
:1032600081460546EFE0FFB5FD552285EFE0EFAB67
:1032700011E92285F955EFE08F9E014523A0040056
:103280006FD0AFABFD552285EFE0EFAF19E5E965F3
:10329000938585902285EFF04F9915462285FD553F
:1032A000EFE04FA22285F955EFE06F9B268695450A
:1032B0002285EFE0CFC1E9B7EFD2EFA541118945F3
:1032C0002A84EFF08FFF13061500B285228532C6DF
:1032D000EFE0CFD4324685452285EFE0CFEF33359E
:1032E000A000050541016FD04FA5EFD2CFA2054642
:1032F00089452A84EFF09F808545AA842285EFE0E6
:103300000F9685452285EFE04FA291476310F502A5
:10331000635E9000A6852285EFF0CF8C85452285DF
:10332000EFE00F9F89452285EFE0DFCE2285EFE0B9
:10333000BFCB6FD08FA0EFD20F9EE96669669386F0
:10334000C6AB1306069385452A84EFF08FF1E96733
:103350000A0593874799AA9703A90700014689455B
:103360002285EFF0AFF92A86CA852285EFE01FBBE0
:103370009307B9FFED9BAA849DC78D47631AF90295
:10338000014691452285EFE07FB9537505D0D3F70B
:1033900004D007A7C18722854375E578EFE02FC7E2
:1033A00005456FD08F99AA852285EFE0CFDBCDBF91
:1033B000AA852285EFE08FC6E5B7EFD2CF95854786
:1033C00063FDB7008145AA84EFE0EFD92685F95562
:1033D000EFE00F9409456FD04F963284EFE04F87AE
:1033E000018DD5BFEFD22F932A84EFE06F86194667
:1033F000AA8489452285EFF02FDF22858545EFE0FD
:103400008FD622858545EFE0AF90228509468D4510
:10341000EFE08F878D679387A73B094789469385A0
:10342000E4FF7D562285EFE01F9EAA85094622858E
:10343000EFF0BFF86FD06F90EFD2EF8D85452A8403
:10344000EFF00F9B22858545EFE0EFD105468545DE
:103450002285EFE06F832285EFD09FFF8D679387F2
:10346000A73B014781469305E5FF7D562285EFE0A6
:103470009F99AA8501462285EFF03FF46FD0EF8B2C
:10348000EFD26F892A8495E111CEB285EFE04F88A3
:103490000546F9552285EFE0FFC109E5F95522857A
:1034A000EFD0FFFB05456FD04F89EFE08FB5228548
:1034B0000546F955EFD05FFD0945F5B7EFD20F840A
:1034C0000111700885452A84EFE06FA06966814686
:1034D000130686938D452A892285EFF02FD5AA8978
:1034E00091452285EFE06F8493041500B33490007A
:1034F0008A048146630609024A8689452285EFF0DF
:10350000EFD27246AA864E87CA852285EFF0EFBCBD
:10351000AA8526862285EFF0BFF605616FD04F8120
:1035200069661306C69389452285EFF02FD02AC617
:10353000194622858545EFF02FCB22859545EFD0A2
:103540001FF2B2468D654E8701469385E52322859D
:10355000EFE09F9575BFEFC21FFC41118146014608
:1035600085452A84EFF08FCC014681468945AA849F
:103570002285EFF0AFCB2AC68D452285EFD0FFFA2A
:10358000FD5732460D496313F5000149A685228592
:10359000EFF02FA2AA854A862285EFF07FEE410147
:1035A0006FC0BFF9EFC23FF785452A84EFF04F8423
:1035B00085452285EFE00FD619E52285EFE06FA45F
:1035C00005456FC09FF769661306468685452285C7
:1035D000EFF0AFB4F5B7EFC21FF401468146854561
:1035E0002A84EFF0AFC4AA8485452285EFD03FE757
:1035F0000146A6852285EFF0CF9B11C52285EFE01D
:10360000BF9E6FC09FF30D67130707F381467D567A
:1036100081452285EFE0EFFA2285EFD07FE37D152B
:10362000CDB7EFC25FEF85452A84EFE02F8811C543
:103630002285EFD0FFE16FC05FF022858545EFE086
:103640003FFB7D5622858545EFD01FE42285F95545
:10365000EFD0FFE0E965938545942285EFE0EFA088
:1036600022858545EFD0BFDF2285EFF01FC8E1B787
:10367000EFC27FEA85452A84EFE09FF7696613066B
:10368000869585452285EFF04FA915E18D650146A8
:103690009385E5202285EFE0EFA622858545EFD0D2
:1036A0003FE72285EFE0EF950D456FC01FE92285CA
:1036B0008545EFD0FFE5014781460D4685452285CA
:1036C000EFE02FF0D5B7EFC27FE341118945AA841F
:1036D000EFD0BFE56347A00485452685EFE05FF1A5
:1036E00085452685EFD07FE48D47631AF500854533
:1036F0002685EFD0DFD6054541016FC07FE38545C4
:1037000070002685EFD0BFFCAA8501C92685EFD0C1
:10371000FFF1B2478507E300F5FE2685EFE06F8EE7
:10372000D9BF89452685EFF04FB92A8A11468545CC
:103730002685EFF06FAB700085452685EFD03FF909
:103740001307EAFF93072002AA8963F9E700696675
:103750001306069689452685EFE07FD1696B9305B0
:103760004B974E85EF10E1583384A900830704007E
:103770001307D002639CE7060504854A1C20716785
:1037800093069787B6979C23130797879D8BD1D76E
:1037900001490945030604009377F60FB306F700C5
:1037A0008386060093F54600A9C9930706FD63DDED
:1037B0004705B3052A0305043389B7001C20BA97CF
:1037C0009C239D8BE1FB93054B972285EF10615263
:1037D0002A94CA8563840A00B3052041B247BE9982
:1037E000E31D34F32685EFE06F8331B71307B00292
:1037F000814AE395E7F8050451B78D8A6393A600E3
:103800008117938797FC65B781450144C1BFEFC21B
:103810009FD0B7C5F0FF09469385859D2A84EFE0C8
:103820004FA4E96501462285938505AEEFF06FC987
:103830002285FD55EFD0DFCD69661306C697228538
:10384000F955EFE00FB4E965938505982285EFE01F
:10385000CF816966228513068698F955EFE06FB22D
:1038600005456FC09FCDEFC27FC91C45B2842E862F
:1038700003AB0702CC5700412A895A85EF80A01973
:103880005841CD47AA8A630CF7068329C901032A48
:103890000401CD4723A03A0123A2FA0063C04903E3
:1038A0004C54E96737070004938787BA7D17A14610
:1038B000130604015A85EF40A04D48D410485854CF
:1038C000D28763C6C70693973900BA97984098C3C2
:1038D000D840D8C38327C9018507232EF900DC40CF
:1038E00093F70704B1C35C30918B9DCF90405C325D
:1038F0008D8B9DCBA2855A85EF30400335A083295F
:1039000005008327C9014C54E3D1F9F89397390096
:10391000BE95DC41D840B98F93F7F703BDF72686F3
:103920000145EF90007135D14E856FC07FC09396F1
:103930003700BA9623A20600850761B7144558459B
:10394000AA876396E60218419546630DD70099460B
:103950000145631FD70089C5DC439CC1CD47DCC14D
:1039600005458280F5DD5C618D479CE1CDBF014559
:103970008280EFC2BFB801112A892E8432852C00C3
:10398000B284B689EFF09FFB09E5014505616FC080
:103990003FBA0C084E85EFF07FFA65D9AD4763C09A
:1039A0008704994763C087048D476305F40693072E
:1039B000B4FF05476370F7068327890038081408A9
:1039C00088533000A285EF4050667247CD4763129E
:1039D000F70699479CC0E247DCC0054545BFB5479F
:1039E000E31CF4FC3247CD47631FF700A2473ECCEF
:1039F0005247CD47E302F7FC01462C080808EF9038
:103A0000E01A5DF959B701462C082800EF90001A1A
:103A10002DDDF9BF5247CD47631BF700C24753F76F
:103A200007D0D30700F0D327F7A0A5F371B74267FB
:103A3000CDBFE267D3A7F7A0A9DB530700F0D3A758
:103A4000E7A0A1F795479CC0DCE041BF93F70510C4
:103A500091EB8347A50263C7F5008347C502FD17B5
:103A60002306F5028280EFC21FAB9C419D4618429F
:103A70004111638CD700630CD702FD547D54A68599
:103A80002AC6EFF0BFFCA28529A8C041FD546313EC
:103A9000F7004442E3D584FEA2852AC6EFF01FFB5F
:103AA000A6853245EFF09FFA41016FC01FA97D54F2
:103AB000CDB71841939725008505185B0D8E935659
:103AC000F6413E97B3C7C600958FB706020063CA9A
:103AD000D700EFC25FA40845E965938545BBEF3089
:103AE000900B1C43FD163696CA07C9833A06D18F40
:103AF0001CC3828098419D476315F700CC416FF04D
:103B0000FFF482800859939725003E95635FB000CB
:103B10000327C5FFED67938747B81377F703BA9775
:103B20008387070063D3070071158280EFC2BF9EB1
:103B30003284EFF03FFD1841930730029376F7038C
:103B40006391F6049306F00F935777016303D40251
:103B50006301F4029167938707FC1A047D8CF17767
:103B60009387F7037D8FB367E4001CC105456FC0E1
:103B7000DF9CB7C67F009A07758FD98F93E727021E
:103B8000EDB70145EDB7EFC21F99EFF0BFF7184150
:103B9000F1769386F6039357670093F7F70F93B781
:103BA0001700758F9A07D98F1CC16FC01F991C59B8
:103BB00013972500BA9788438177850739813E9509
:103BC000FD576304F50085052E958280EFC21F9393
:103BD00041112A84B2843689BA897D5B6395650177
:103BE00041016FC0FF94832A04002EC65685EFF072
:103BF0001FFCB2454A862A8A5685EFF03FF3B2454C
:103C0000268611E14E862285EFF0BFEAD285F9B70C
:103C1000EFC27F9018492E890C4D04413A869306D5
:103C2000F00F2A84EFF09FFAFD571CCC1848DC48AF
:103C30006341F70208448C58E96708513707008050
:103C4000938707BD7D17914613864401EF404014CA
:103C500088D818489C580A07BA9723A02701184803
:103C60009C4C6341F70208448C5CE96708513707B4
:103C70000080938707BD7D17914613868401EF402E
:103C8000201188DC1C44184894479C5C0A07BA97AA
:103C900094C30848930715001CC86FC01F8AEFC261
:103CA000FF8541112A847D599309300263962501CD
:103CB000014541016FC0DF8704402EC62685EFF025
:103CC0007FE41C4193F7F70363983701B2452685DB
:103CD000EFF0FFEDAA85D9BF0545E1BFEFC2BF8375
:103CE00041112A847D596395250141016FC0FF84EC
:103CF00004401306F00F2EC62685EFF03FE3B245D1
:103D00002685EFF0DFEAAA85F9BFFD57630EF602BC
:103D1000EFC27F802A84884141116316F50090C16B
:103D200041016FC09F8103290400FD54AA852AC464
:103D30004A8532C6EFF0BFE7A2453246E31895FE4A
:103D40002285EFF01FD7E9BF8280EFC2CFFC104D74
:103D5000FD57B785FF7F01111CCDF9052A8432C6B6
:103D6000EFF01FEB32462ACE6C082285EFF0FFF908
:103D7000724505616FC06FFCAA870849C8CB828075
:103D800018492E869305850158C96FF01FF8EFC2B8
:103D90008FF81C496396C700EFF09FFE6FC0EFF9E4
:103DA00032879306F00FEFF07FE2CDBFEFC20FF541
:103DB0001304160091671A04938707FC7179AA848B
:103DC0007D8CFD591309F903639435016FC04FF6DB
:103DD00088409397250018593E971C43B3F7270155
:103DE000C18F1CC3EFF0BFDCAA85F9BF3A07DE061E
:103DF0004D8F558F1A06B365C7006FF07FE11C49E0
:103E00005849635AF70618418A07F117145BBE96A2
:103E100003A8060091471377F803631EF70493572E
:103E2000680093F7F70F935878013387C500BE9861
:103E300063C1F50413831800634FB30263D3B70063
:103E4000BE851166130606FC93976500F18F7176A7
:103E50001306F6033378C800B3E70701A6077D17FA
:103E6000A5836353170146870D8F5E07D98F9CC2C8
:103E70008280E355F7FC9306F6FF01472E869145B5
:103E80006FF0DFF69306160001472E869305600259
:103E90006FF0DFF5BA06D58D1A06D18D6FF05FD7BA
:103EA000EFC26FE7B70704003284635BF600B286A7
:103EB0002E868545EFF01FFEAA8426856FC0EFE7AA
:103EC0002E86814689452A89EFF0DFFC9315640030
:103ED000AA8493E5E5024A85EFF09FD3F9BF8347B3
:103EE000C502BE951C419827635FB7001307E00F1A
:103EF000635AB700EFC22FE20845E965938585BD97
:103F0000EF3060498CA78280EFC2EFE02A84AE8454
:103F1000EFF0FFFC8347C402B38597002306B40289
:103F20006FC0AFE1EFC22FDFDC21411130002EC4A2
:103F300093E70704B2853EC6EFF0FF9241016FC0E0
:103F4000CFDFEFC24FDD411189472EC03EC22EC4E4
:103F5000CD4730008A853EC6EFF0FF9041016FC02B
:103F6000CFDD9C41B5466394D7021C41D84105067C
:103F70009C5B0A073A06BA9737C77F00798E984349
:103F8000B74680FFFD16758F598E90C38280B94663
:103F90006399D7021441DC410506945A8A07034706
:103FA000C502BE969C425E061A07A607A583D18F5E
:103FB00071761306F603F18FD98F9CC285456FF099
:103FC000BFF482809C413547639FE7009D479CC1B9
:103FD0001C41D8419C5B0A07BA979C43998393F78D
:103FE000F70FDCC1828039476390E7021841DC415A
:103FF000B7060001185B8A073E971C43A607A583F6
:10400000D58F1CC3B1479CC18280EFC2CFD09C41E9
:1040100029472E84638FE702636AF7002147638E86
:10402000E7002547638EE7006FC02FD1CD17054706
:10403000E36CF7FEEFF01FF9C5BF9D471CC0EDB75D
:10404000CC41DE0593E55500EFF09FBC48C0B14779
:10405000F5B703994500AA84CA85EFF03F9F7830F1
:10406000A14799456317F7006C202685EFF01F9E46
:104070009D4574204A8701462685EFF03FD7F9B762
:10408000EFC26FC941112E89AA843284EFF0FFF785
:10409000832609002D479387F6FF6363F70269675C
:1040A0008A07130787C0BA979C4382870546A28573
:1040B0002685EFF0DFD49D47232289002320F900D5
:1040C00041016FC08FC7F916014793B616002286CB
:1040D0008D452685EFF09FD1F9BF03264900A285C3
:1040E0002685EFF0FFDBC1BF8727490030008D47F1
:1040F000B28526853EE43EC6EFF0EFF62A86C5B7C8
:10410000832549002685EFF0DFE3CDBF9840832764
:1041100049001166145B8A077177BE969C421307AB
:10412000F703130606FCF98F13176400718FD98FFC
:104130009CC251B783264900E38F86F60147228649
:10414000814541BFEFC28FBB4111AE842A843289C1
:10415000EFF01FF39840AD476318F700D040938508
:1041600084002285EFF07FBA8C4483A9C400638C5D
:1041700035072285EFF0BFB211E5CE852285EFF03D
:104180001FB225CD9840AD47FD5A6306F700228542
:10419000EFF0BFBBAA8A1C48054781465CC84A8627
:1041A0008D452285EFF09FC41C488D452A8A5CC846
:1041B000014785464A862285EFF05FC3AA89D685E6
:1041C0002285EFF0FFBB1048CC44528750C8CA8606
:1041D000228532C6EFF09F9F32468C444E87CA86B6
:1041E0002285EFF0BF9EFD579CC4DCC49D4723A2EF
:1041F00024019CC041016FC0AFB3FD597D5AE1B7A6
:10420000EFC26FB19C4131472A84AE843289639DED
:10421000E7021C41D8419C5B0A07BA979043ED47DF
:104220001377F6036315F7021C49134719008146FB
:10423000FD171CC95D8293052002EFF03FBB22856C
:10424000EFF0BFB06FC06FAF1D47638DE7008545CE
:104250002285EFF07FCB0346C402A68522857D161A
:10426000EFF01FE2A6852285EFF0DF88D4404A8771
:104270001306F00F930530022285C1B7EFC2AFA934
:104280002A84AE84EFF07FD8A6852285EFF09F8642
:1042900022858545EFF05FC70346C402A6852285C7
:1042A0007D16EFF03FEA6FC04FA9EFC2CFA62E8474
:1042B000AA84EFF09FD518409D476313F702184476
:1042C0005C445040630BF70083C7A402634AF600C6
:1042D000A2852685EFF01FE7504032856FC0EFA51D
:1042E000A2852685EFF09FF9C5BF9841A5476316C3
:1042F000F7009845DC456304F7006FF01FFB8280F0
:10430000EFC26FA19845DC456306F700EFF0FFF9B7
:104310006FC0AFA2EFF07FCFE5BFEFC2CF9F4111DB
:104320002E84AA84EFF0DFFD1C401547FD1763645F
:10433000F70669678A07130787C3BA979C43828782
:1043400085473EC430003EC6B28529A802C48547D1
:10435000D5BF9C4402C63000DC578A853EC0930717
:1043600050043EC22685EFF00FD029A04C40268590
:10437000EFF03FBD48C0484091471CC09307F00F85
:1043800063CBA7001365051041016FC00F9B5C60F4
:104390008D473EE445BFA2852685EFF01FF1EDB7BE
:1043A000EFC2CF9583A90500A547AA842E84328940
:1043B0006382F902A947638EF902A1476396F90265
:1043C000B285EFF02FF35040CA852685EFF09FD7D6
:1043D0006FC00F96B285EFF05FED54402A8601471B
:1043E000A5452685EFF09FA0CA852685EFF08FF0C2
:1043F000C5B7F831A1476303F700A149CA852685EF
:10440000EFF0BFF18316440070202A87CE85D1BF1C
:10441000EFC26F9041112A84AE843289EFF0FFE839
:10442000D440A685228536C6EFF0CFEC0346C40201
:104430009D479CC0D0C02285894532C4EFF0DFACD7
:10444000CA852285EFF07FEDB24622462A87B14524
:104450002285EFF0BF99CA852285EFF0AFE94101CF
:104460006FC0AF8DEFC22F8B2E84AA84EFF0FFB9FF
:104470001C4019476360F7020D477D566364F702DD
:1044800009476381E7020146A2852685EFF05FD7E1
:104490002A8609A82D47E398E7FE4C408840EFF0B4
:1044A0008FEE50409305C4002685EFF01F860C4424
:1044B0002685EFF0FF8CFD571CC46FC00F88EFC23C
:1044C0008F852E84AA84EFF05FB41C400D477D5683
:1044D0006388E7002D476382E70205476391E7029F
:1044E000930584002685EFF05F824C442685EFF02B
:1044F0003F89FD575CC46FC04F845040D5B7054617
:10450000A2852685EFF0DFCF2A86D9BFEFC2AF8024
:10451000DC412E84FCA1B285EFF03FE014404AA0BC
:104520002547A5476383E600A1477CB0A9471CC087
:104530006FC0AF80EFB23FFECD4732846387F50294
:10454000AA8463EDB700AD4763FAB702B14763834E
:10455000F502A2852685EFF05FDC19A8D147E39A22
:10456000F5FEB285EFF0BFF521A0B285EFF09FEF29
:104570006FB0BFFCB285EFF07FD0DDBF81453285E3
:10458000EFF0CFBB75F5F1B71C4118499C5F0A07E6
:10459000BA9723AEB7FE8280EFB25FF6894741112A
:1045A000AA843284638CF5042E89B68963F8B70037
:1045B0008D47638CF50041016FB09FF7E9669386E4
:1045C00046CDB105EFF0EFBA7DF5A2852685EFF077
:1045D000DFCD2AC6A2852685EFF0CFD1B24693055E
:1045E0009901014701462685EFF05F80B14748C039
:1045F0001CC0CE852685EFF03FF975BFB285EFF080
:10460000DFA014402D479387F6FF6362F7026967C6
:104610008A07130707C5BA979C43828789471CC03E
:1046200039A08D47EDBF4C408840EFF0CFD50C440A
:104630005C4426854CC41CC4EFF04FEA0C4426852C
:10464000EFF0CFE98DBF9D47638DF6008545268548
:10465000EFF09F8B03C6C402A28526857D16EFF07E
:104660003FA2A2852685EFF0EFC84C402685DE05E7
:1046700093E5B501EFF0CFD948C0B1474DB7EFB2E0
:10468000FFE74111AE89B685B2842A843A8936C6DD
:10469000EFF0BFC82AC4A6852285EFF01FC83246B6
:1046A0002AC2A6852285EFF00FBC2247924601461A
:1046B000CE852285EFF08FF3B147C8C09CC0CA8574
:1046C0002285EFF07FEC41016FB09FE6D14763EBAD
:1046D000B712EFB2BFE23A8A6967939725001307D2
:1046E00007C8BA979C4341112A84AE89B28436899F
:1046F0008287B685EFF07F91D0449305C90022856B
:10470000EFF0AFE04146CA852685EFB0DFE3410117
:104710006FB01FE2B685EFF05F8F9044930589007C
:10472000F9BFB685EFF0DFBD832A0900B147639377
:10473000FA04184083274900832907038A0775472D
:10474000BE9983A7090093F7F7036395E702A6854F
:104750002285EFF02FBA83A70900D840A607A583CA
:104760005E07D98F23A0F9008327490023A05401B5
:10477000DCC071BFCA852285EFF05FB05287CA8660
:104780002686F5452285EFF09FEF51B7EFF06F9E3B
:104790003DFD5287CA8626869385D900E5B7184223
:1047A000914754426314F70093E60610CA852285A8
:1047B00036C6EFF09FB62A8A4A86A6852285EFF094
:1047C0008FAAC147B2466386F9029387F9FE05476F
:1047D0006365F70236870546D2869385F900228500
:1047E000EFF0CFE02285EFF04FD6AD47C8C09CC0B8
:1047F00039BF52870146FD45DDB75287054693858F
:104800002901F1BF8280EFB21FD193072003130467
:10481000F6FF3344F402FD572A89AE8405046393FE
:10482000F60081469307F01F63CE87002287268615
:104830009305B0024A85EFF06FDB850423069902E9
:104840006FB0BFCF014726869305B0024A85EFF0CF
:10485000EFD91A049365E4024A85EFF06FBBF1BF0C
:10486000EFB27FCB2A84EF10204FAA852285EFD0AC
:104870008F8F05456FB07FCCEFB2FFC92A84EFC0A0
:104880003FBDAA85814601462285EF10804D6FB05D
:10489000DFCAEFB25FC82E84AA84B285228532892E
:1048A000EFC05FAE19E9E965938545CE2685EFC077
:1048B000DFFB7D594A856FB05FC82285EFD0CFE519
:1048C00009E92285EFC0DFB809E5E965938545D0A0
:1048D000F1BF4A86A2852685EFC0BFB04A86A6856D
:1048E0002285EF106036854763EBA7022285EFC073
:1048F0003FB62A89930515002685EFC0BFA811E9A8
:104900009345F9FF2285EFC09FB5E965938545D2B0
:1049100071BF4A86A6852285EFC0BFAC61BF054640
:10492000A6852285EFC0FFAB69B7EFB2DFBE2A8450
:10493000EFD08F84AA852285EFD0EF8209456FB032
:10494000DFBFEFB25FBD194685452A84EFE0CF890E
:104950002285EF600048AA8485452285EFC05FBBB1
:1049600022850546A685EFC0DFA705456FB0FFBCD1
:10497000EFB27FBA2A84EFF0DFFC95652285054609
:104980009385E598EFC01FF805456FB01FBBEFB2E8
:104990009FB8B7C5F0FF41119385759D2A84EFC07C
:1049A0003FE02AC62285EFC0BFAAB2452A862285EB
:1049B000EFF03FEE63590502FD552285EFC0FFB6CB
:1049C0009147631FF50085452285EFD0BFA1F955BA
:1049D00022850546EFC05FAB89452285EFD08FE386
:1049E0002285EFD06FE041016FB03FB5EFB2BFB2AB
:1049F0008545AA84EFC0DFDA2A8401E969661306D7
:104A000006D485452685EFD09FA622856FB0FFB2DC
:104A1000EFB27FB059712A84EFF05FFD631BA400F1
:104A2000E965938505D5EFC05FE4054565616FB025
:104A3000DFB0AA84EFD04FCE01C985476315F502D8
:104A4000E965938585D511A8700081452685752671
:104A50006357A000E965938545D62285E9B7268589
:104A6000EFC01F9F71FDE9659385C5D6FDB7EFB215
:104A70009FAA4111AA84EFF07FF72AC62685EFC0CE
:104A80003F9DB2451306F5FF2685EFF09FE0635F7B
:104A9000050081452685EFC01FED26850546F955A1
:104AA000EFC09F9E094541016FB03FA92A8485450B
:104AB0002685EFC05FEB268505469345F4FFEFC0E2
:104AC000BF9C13051400C5B7EFB2FFA407A501886A
:104AD000930540042A84EFE04FBE22851D468145A0
:104AE000EFC0FFFEE96522850146938505DAEFE018
:104AF0004F9D05456FB07FA41C4148499C43DC474E
:104B00009C5B1D8D09857D158280EFB2DFA01C4165
:104B10009C43DC47805F01C8EFF01FFE0A052A9422
:104B200008406FB09FA17D55EDBF18258547631ADA
:104B3000F7005C4910519843D44F118FB29694C33B
:104B4000D8CF8280EFB29F9B6D6A817A4111AA848F
:104B5000AE893289130B5002130A4AB8850A4E8671
:104B600093051900268536C6EF10A052B24688C2BA
:104B70006310051A814801467D5413039002130EF9
:104B80003002914E794FC68563C93803FD576309DA
:104B9000F40A9858931724003E970C43B14713F634
:104BA000F50363EFC708696893172600130888F1B7
:104BB000C2979C438287A2895DB79C5813972800AF
:104BC0008508BA979C4313D7670013F8F703137748
:104BD000F70F63610B0363600E056303D803630F74
:104BE000E80352988347080093F70704C9DFE31CE2
:104BF000E9F829A8E31768FE0507E35627F939A065
:104C0000E343E9F8DD83BA97E3CF27F72E84E3DCAB
:104C1000C5F67D548DBFE348E9F6CDBFB983D6977D
:104C2000C697E3D2F5F6E3C0F9F6E35EF6F43E8606
:104C300099BF13D97501998193F5F50FE34DB9F635
:104C400041016FB0FF8E93D9E5009D4793F9F91F9D
:104C5000DD81631BF60222868505268536C6EF10A8
:104C60004043B2462A894E86A28526857520630E6A
:104C70000902E965938505F14A85EFB05F9E15E568
:104C800069651305C5EE6DBFBC408E05AE9703A9DF
:104C90000700630809004E86A28526854109AD28D4
:104CA000C9BF4E86A285268585286965130585F0CE
:104CB00041BFBC40DD818E05AE979C4399C7C107BB
:104CC00069659CC2130545EFA5BFE5679387C75289
:104CD000C5BF8547B9816304F6004C439981DC5414
:104CE0008E051146AE97D8433D8BE31BC7F49C431A
:104CF00069651305C5EFC1079CC299B7B98113F661
:104D0000F51F2685A28509286965130505F70DBFDE
:104D10006965130545EE2DB7EFB2EFFF1378061066
:104D200036846305080258559377F6EF8E07BA97D5
:104D3000D84391463D8B6308D700E5679387C752F8
:104D40001CC06FB08FFF9C43C107DDBFEFF09FDF3A
:104D50006DD50307050093073006E310F7FED5B7BE
:104D6000EFB26FFB2A844849411102C63E31898B5C
:104D700099E765651305454D41016FB00FFC1C4176
:104D80009843814770239306070163C8C70204490B
:104D9000B3849540E3CF04FC5C41E3FCF5FC0329BC
:104DA000C700EFF07FD5AA8513D6344074004A853A
:104DB000EFF05FD92A8605E56DBF03A806009106CE
:104DC000032808006399050358478E073843BA97AC
:104DD0009C4391CFC10769663EC6130646EFB246B3
:104DE000E9659385C5F42285EF30B05F71B7E5675B
:104DF0009387C752CDB7850749BFAA872E8563C859
:104E00000500D84B9387470319C96314F700014580
:104E1000828018477D15CDBF38D205458280E31DBD
:104E2000F7FE8280EFB22FEC01112E892A84B28B1B
:104E3000EFF0BFCF830609001307E003639AE6088B
:104E40008328C4000509014B138D88FF2326A40184
:104E500003274D00994681447D8B6314D70083243A
:104E60000D0093874B024A8A8549930AC006130CAA
:104E7000E006930C30053EC2930D600603070A005E
:104E800029EF930560064A85EFF0502711C95C446D
:104E900003270D0098C303274D00D8C3A1075CC4A6
:104EA0002285EFF09FC89305C0044A85EFF01025D6
:104EB00001CD91C4D820930760026318F7205C44A9
:104EC00023A20700A1075CC44E8505616FB06FE5A2
:104ED00003AB0B06032D0B00A5BF630E570B63CD71
:104EE000EA00630597056307B7019306C0046303EF
:104EF000D7008149050A59B7930740076303F70EA6
:104F0000930750076306F70AE31587FF630F0B1635
:104F100003572B0293760710F9CE6567130787694D
:104F200023A2EB0069671307C7F611AA91C4D42026
:104F300013076002639AE6026967130747F623A81E
:104F4000EB007D5723ACEB006967FD56130707F6AE
:104F500083A50B01124523AEDB0023A6EB0013064D
:104F6000C003EF30F06379B7D444B84609CF4107A6
:104F700023A8EB00D852945623ACEB0009EB6567ED
:104F80001307874DF1B76967130787F5D5B76967C9
:104F90001307C7F575BF7D5563090B0003572B0237
:104FA000098B01C75A85EFF05FB623AAAB0099B70A
:104FB00089E823800B0205472381EB02A3800B02C3
:104FC00015BFF8202380EB02D42013076002E3848E
:104FD000E6FED84474332381DB027823A380EB02FE
:104FE00011BF014763060B0003572B02137707021B
:104FF000A381EB0201B71377070241EB03258B0076
:105000003A31937627003AC6C9C21441944203A3A9
:10501000C6001AC4EFF05FAE2243324713162500D4
:1050200083260303118BAA85B296904201CF656750
:105030001307C75223A2EB006967130787F723A45E
:10504000EB004DBD1377F6039306A7FF130530025F
:10505000636DD50269658A06130505F9AA9694421F
:1050600082860147144871070A0736975847410757
:1050700045BD198293864B001376F60F1A85EFF023
:105080007FAC23A4AB00E31705E665671307474D24
:1050900023A4EB0023A20B00B1BD6967130707F837
:1050A00023A2EB0069BF651775BF494765BF4D4730
:1050B00055BF114745BF594775B7154765B75147A4
:1050C00055B7554745B7054771BFDC4422850149AF
:1050D00083AA8703EF60C0465C44130750042A8A02
:1050E00088C3D8C3A1075CC485473ECC3ECEDC4410
:1050F0009C4FE35BF9DC93172900D6979043340863
:10510000D2852285EF60205B0509D5B7EFB2AFC02D
:105110005D712A842E8715C6B285C1051306C003AA
:10512000480836C63AC4EF30B0472247B246E96570
:105130005008938505022285EF30B02A61616FB077
:10514000CFBF9307F003FC82DDB7EFB2CFBC7C4D3D
:105150002A848DC74C45185105463E97938705F81C
:10516000B45F94C1F45FD4C11443B4DF5843F8DF93
:10517000938785005CC5E115EF00F02A89452285FB
:1051800045245D7132DC36DEBAC0BEC2C2C4C6C6BA
:105190001C4922D426D2DC4706D644492A846356C9
:1051A000F0002EC4EF10B04CA2453018228532CE4C
:1051B000EF30F024BE30898B85C39C402AC62685FB
:1051C0009C43DC47B04732C4EFF03F942246B245DF
:1051D000AA862285EFF09FF32285EFF01FF7EFB24A
:1051E0008FB341112A8432C6AE84EF7060132AC493
:1051F000A6852285EFF0DFB6A2463246E9652A870A
:105200009385C5022285EFF0DFF7EFB2CFB0DC4126
:105210008546BD8BF51763E3F600B2856966130614
:105220008604EFF0DFFBEFB26FADD8418D4741113F
:10523000AA842E84B2893689631AF7009C613EE6FF
:105240004E844A86A2852685EFF07FF96C00228580
:10525000EF70F00F75F5F5B7EFB2EFABD841CD4772
:105260004111AA842E8432896310F7029C413EC604
:105270004A84A2852685EFF0BFAEE9652A8693852C
:1052800045052685EFF0FFEF01466C002285EF70A3
:10529000F01179FDF9BFEFB20FA8411132892A84CC
:1052A000EF700008AA84CA852285EF706007AA857E
:1052B0002AC62685EFB0AFBAB246268619E5E9655B
:1052C0009385C5072285EFF0DFEBE9659385050A35
:1052D0002285EFF01FEBEFB20FA43C5544490329A0
:1052E0000507FD173CD52A8499EF9377890081CF74
:1052F0007C513CD5BE3013F7070435C393F7F7FB59
:10530000BEB06FB08FA313794900E30C09FEBE3025
:10531000014913F707047DF39C40D4489C43DC47C4
:105320008C5B9C5F3387B640A9EF9147630FF7060C
:105330001C4C63FCD706DC48142405471CCCE392C4
:10534000E6FC631B0902F117DCC8BE3085452285E7
:1053500093E70704BEB05C44E1179CC0D1207D56A2
:105360008D4513794900492E631B0900DC4814243C
:1053700005471CCCE397E6F8054738D4E9B705495B
:1053800061BF3386E70011450326C6FF630BA70004
:10539000184C6378D7000D8FBA9783A7C7FFE30C2B
:1053A000F6F889452285892E79B77D56DDBFEFB2A3
:1053B0008F969147AA843284638CF5009947638461
:1053C000F5025C4503A787FF18C283A7C7FF39A072
:1053D0001C49BC5F1CC2DC2393E707045CC02104AA
:1053E000C0C46FB08F95E9655D469385050CEF509D
:1053F000905608C05C21CDB7EFB2EF9144450E0640
:105400002A84918C44C5EF50F05888C05C2109452E
:1054100093E70704DCC05C44A1075CC46FB0EF9164
:10542000EFB26F8F185901CB232CB71213058700E9
:105430008545EFB04F9C04490CA52A84BC58985B65
:1054400011CFD84793068700D4C754453E8503A69D
:1054500086FF10C383A6C6FF54C3D937FC5489CF37
:105460005045EFF0DFF45C485844D44363F3E60062
:10547000D8C3FC5422858297EFD0D0308DCDEFB2C7
:105480008F89AE868305060041112A84368532C68F
:1054900036C4EFF0A046A246324619E9E965938585
:1054A000850D2285EF30E0738D452285EFF05FF7A3
:1054B00041016FB08F888280EFB2EF85AA84884166
:1054C00041112E841C411387F7FF18C185CF5C4121
:1054D0001387170058C19C236D474C586398E70207
:1054E0006966130646102685EFF05FF9105C0C40E4
:1054F0002685EF700048AA852685EF00701F4101C0
:105500006FB0AF83EF90A019AA87F9B769662685B7
:105510001306C6103EC6EFF07FF6B247185C0C408B
:1055200093060401130644002685EF504048E1B776
:10553000EFA27FFE8357E5064D7118083EC21C5945
:105540002AC018D928082EC432C6232401143EC804
:10555000EFB02F8409E5B2450245A2478297024782
:10556000C247032581141CDBBA8712472397E7063D
:1055700071616FA09FFCEFA27FF813871500B7073A
:1055800000200451032A05066364F700EF20207A07
:1055900013993500AE89CA8613163A00A6852A8467
:1055A000EF20C07908D063433A035C44130989FDB6
:1055B0002A99858FAA975CC45C5023203407232E38
:1055C000240181EF5C4885E36FA09FF693173A00B2
:1055D000AA9723A20700050AF9B79843058F2A97CF
:1055E00098C39C47F9BFD843058F2A97D8C39843DF
:1055F000058F2A9798C3BA33098B09C7984B058F33
:105600002A9798CB9C47C1B7EFA2FFF03851B74615
:105610000F009386062463D5E6009945EFF05FE01E
:105620005C4510512A84918F8D87BE959317170082
:10563000950563D3F600B68763D3F500BE85B747FB
:105640000F0013870724635DB70093858730228599
:10565000EFF07FF2E5659385C5652285EFF07FB2B7
:105660002285EFF05FF16FA05FEDEFA2DFEA40452A
:105670005C494111A1EB1C5138512AC61D8CB7471A
:105680000F000D8493870724050463D3E704EF50CC
:10569000A053B7470F001387B723324563418702F2
:1056A000A145B345B40293870724A295A90563D306
:1056B000B700BE853C5163D4F500EFF0DFEB41014C
:1056C0006FA0BFE7D8436373E4003A849C475DB79B
:1056D000EF50C06C7DBFEFA21FE458455C4D2A849B
:1056E000998F21476345F7008545EFF0FFF15C4452
:1056F000A1075CC46FA07FE4EFA25FE0032A8505E9
:10570000597163040A06834745072A84B9CF44497F
:1057100058451C5103A944002EC6B309F74033096C
:10572000F9405C4D32D0A6D6998F1307000A634525
:10573000F700D145EFF05FED5C446C002285938764
:10574000070ADCC0230A0406BE3093E74700BEB058
:10575000029A8547230AF4061C503E9923A224018D
:10576000CE975CC4BE30ED9BBEB065616FA05FDCC0
:10577000EFA2DFD83859039A0502AA84937767000D
:105780002E8936848DC3098B19CB83290502854563
:10579000B30936417D56EFF03FF690504E96832781
:1057A0008900DC4B9CCC8327890003280900DCC8D6
:1057B00063030A0285476307FA00FD576317FA047B
:1057C000014715A819E0138641921C422320F800D6
:1057D0005C422322F80093173A003304F800054591
:1057E00015A093173700B306F800B2978C4305074E
:1057F0008CC2DC43DCC2E34687FE931734003304DB
:10580000F8000145C0C46FA0BFD28146635A44036B
:1058100063CB8602635304000144E35E44FB131729
:1058200034004297232207000504C5BF13973600B2
:10583000B305E80032970843850688C15843D8C1AC
:10584000E3C646FF49BF13973600B305E800329719
:105850000843850688C15843D8C15DBFEFA2BFCBBE
:105860004049AA843E3013F7070109C7BD9B3EB0EB
:105870005C487CCD03170402FD576317F700DC4436
:1058800058406373F7005CC01C48104C2685829713
:10589000D04493173500AA861D8EA2852685EFF089
:1058A0003FED6FA09FC9EFA21FC72A8481C58C411D
:1058B000EFF0DFFA930444035C48639497006FA011
:1058C000DFC7BE33898B91E785452285EFF01FF94D
:1058D000E5B72285EF70D0322285EF703043E9BF03
:1058E000EFA2FFC02A84AE84B289594A930A6002AB
:1058F000194BD4400329C400584C93F6F6033307E0
:10590000274163804619638A560F639F661B9C403C
:10591000330999401359394083AAC7000D87930B67
:10592000F9FF03CB8A006343EB021C48032A0402FD
:10593000DC47338A44416355F0002285EF10205341
:10594000DA852285EFF05FCC0450D29483C77A00C9
:1059500083C66A0063850716E157B307F902032A75
:10596000C4000147D2976357D700A107634E771150
:105970006348D7125C4803A9C70063160900228553
:10598000EF5020222A89232A24010E0B23284901C3
:105990005A9A2310390323209900232249012326F0
:1059A0004401094783A70A032311E9023858232A2F
:1059B000F900058B29C3032789009107232AF900E1
:1059C0003E338145898B99CF5C4B1307500283A7E7
:1059D000C7FF93F7F7036397E700930720022311AC
:1059E000F90291457D562285EFF01FD183274901A9
:1059F000F117232AF900014559A09C4003AAC700CA
:105A00009307000A63C3E7021C4803290402DC472A
:105A1000338924416355F0002285EF104045D1457C
:105A20002285EFF07FBE0450CA945C4803A9C700EA
:105A3000631609002285EF50C0162A895C44232A88
:105A40002401231039039387070A2322F9003C58C5
:105A50002320990023110902858B91C77D5681452A
:105A60002285EFF07FC92285029A504493173500B2
:105A7000AA861D8ECA852285EFF09FCF05456FA0AF
:105A80009FAA03AA0400ADBF5044050793058600F2
:105A90004CC48C430CC2CC434CC223A20700E1B5DA
:105AA0005C4405071386870050C423A20700C9B5CC
:105AB0005C44850B1387870058C423A20700E3C901
:105AC000DBFE138A84007DB5A14763C3E7021C484F
:105AD00003290402DC47338924416355F000228501
:105AE000EF10E03885452285EFF01FB20450CA94CC
:105AF0005D46A6852285EF60A07E5C411947AA8B92
:105B0000BD8B6389E700696613064611A685228569
:105B1000EFF0EFEC0329C4000146930679003387C8
