:100000006FA0E000130000001300000013000000C8
:100010001300000013000000130000001300000094
:100020001300000013000000130000001300000084
:08003000130000007300100032
:100038000000000000000000683600006C36000078
:1000480000000000549F00000000000000000000B5
:10005800569F0000589F00000000000000000000AC
:10006800AAE80000000000000002000000000000F4
:100078005E9F0000609F0000629F00008CD8000017
:10008800669F0000689F00006A9F00006C9F000048
:100098006E9F0000709F0000729F0000E4D0000077
:1000A800B2D10000789F000080D200004ED300003B
:1000B8007E9F0000809F0000D0CC0000849F00003D
:1000C800869F0000889F00008A9F0000F23600008B
:1000D8008E9F0000909F0000929F0000949F000058
:1000E80052380000989F000030DE00009C9F0000FE
:1000F8009E9F0000A09F0000A29F0000A49F0000F8
:100108004ADC0000A89F00002CE50000AC9F00001E
:10011800AE9F0000B09F0000B29F0000B49F000097
:10012800FEDE0000B89F0000BA9F0000BC9F0000E0
:10013800BE9F0000C09F0000CCDF0000C49F0000ED
:10014800FAE50000C89F0000CA9F0000CC9F00008D
:10015800CE9F0000D09F0000D29F0000D49F0000D7
:10016800D69F0000C6370000DA9F0000DC9F000021
:10017800DE9F0000E09F0000E29F0000E49F000077
:10018800E69F0000E89F0000EA9F0000EC9F000047
:10019800EE9F0000F09F0000F29F0000F49F000017
:1001A800F69F0000F89F0000FA9F0000FC9F0000E7
:1001B800FE9F000000A0000002A0000004A00000B4
:1001C80006A0000008A000000AA000000CA0000083
:1001D8000000000000000000000000000000000017
:1001E8000000000000000000000000000000000007
:0801F8000000000000000000FF
:10020000130181F806C216C41AC61EC822CA26CC1B
:100210002ACE2ED032D236D43AD63ED842DA46DC76
:100220004ADECEC0D2C2D6C4DAC6DEC8E2CAE6CC46
:10023000EACEEED0F2D2F6D4FAD6FED8F3220030CF
:1002400096DA83A201B823A02200F32510342EC031
:100250009305000273A0458003A18194EFF09042C2
:1002600003A301B803210300824273901234D652D3
:10027000739002309240A2423243C2435244E2445D
:10028000724582551256A2563257C2575258E258FA
:1002900072598649164AA64A364BC64B564CE64C0E
:1002A000764D865D165EA65E365FC65F13018107DA
:1002B0007300203013000000130000001300000042
:1002C00013000000130000001300000013000000E2
:1002D00013000000130000001300000013000000D2
:1002E00013000000130000001300000013000000C2
:1002F00013000000130000001300000013000000B2
:1003000083A28194938202E07390023403A101B826
:10031000024182403243C2435244E2447245825514
:100320001256A2563257C2575258E258725986494D
:10033000164AA64A364BC64B564CE64C764D865D61
:10034000165EA65E365FC65FD652A102739002307B
:10035000A2421301810782801300000013000000F5
:100360001300000013000000130000001300000041
:100370001300000013000000130000001300000031
:100380001300000013000000130000001300000021
:100390001300000013000000130000001300000011
:1003A0001300000013000000130000001300000001
:1003B00013000000130000001300000013000000F1
:1003C00013000000130000001300000013000000E1
:1003D00013000000130000001300000013000000D1
:1003E00013000000130000001300000013000000C1
:1003F00013000000130000001300000013000000B1
:10040000F322003093F272FF130380781203B3E2F9
:100410006200711523205500130585FA10C12115BE
:10042000232005009302000063870200711523203A
:100430000500FD12D5BF71150CC1828000000000BF
:1004400000000000000000000000000000000000AC
:10045000000000000000000000000000000000009C
:10046000000000000000000000000000000000008C
:10047000000000000000000000000000000000007C
:10048000000000000000000000000000000000006C
:10049000000000000000000000000000000000005C
:1004A000000000000000000000000000000000004C
:1004B000000000000000000000000000000000003C
:1004C000000000000000000000000000000000002C
:1004D000000000000000000000000000000000001C
:1004E000000000000000397101436EC619A0397187
:1004F00041536AC866CA62CC5ECE19A039710153F5
:100500005AD056D252D44ED64AD826DA22DC06DE4B
:1005100033016140828241114AC026C222C406C60C
:100520008282B24D4101024D924C224CB24B4101AC
:10053000024B924A224AB249410102499244224462
:10054000B240410182803D432A876373C30293779F
:10055000F700BDEFADE5937606FF3D8ABA960CC372
:100560004CC30CC74CC74107E36BD7FE11E2828036
:10057000B306C3408A069702000096966780A600DD
:100580002307B700A306B7002306B700A305B700EB
:100590002305B700A304B7002304B700A303B700E3
:1005A0002303B700A302B7002302B700A301B700DB
:1005B0002301B700A300B7002300B700828093F5A2
:1005C000F50F93968500D58D93960501D58D61B76E
:1005D000939627009702000096968682E78086FA17
:1005E0009680C1171D8F3E96E374C3F8A5B7EFF24E
:1005F0001FF0AE96939906013A8B1307160093D914
:10060000090142074183CE86AA842E84B28A034A16
:100610002509EF00D00901C90549933B1A006395EC
:1006200089002389440901B783470B00B377F90098
:100630008DC723894409014785465686A2852685AC
:10064000EF0040750504060942041379F90F418053
:10065000E31709FC050B0549D9B783C71409FDF356
:1006600023897409C9BFEFF27FE932971319070193
:10067000B689AE9613590901C2064A87C1822A8BF0
:10068000AE8A32843E8AEF00900201C993847900D9
:10069000C204C1808D806313890059BD2286050480
:1006A0005287CE86D6855A8542049137269A418054
:1006B000DDB7EFF2BFE4329793140701B689AE9627
:1006C000C180C2062687C1822A8A2E893284EF0021
:1006D000007E01EDB1BD228605040147CE86CA85A4
:1006E00052854204EF00006B4180E39684FEDDB743
:1006F000EFF27FE21C418145902B834785034859E7
:100700003306F6020E0681350DBDA1471CA11385E7
:1007100081C78280EFF23FE03687AE84B286B7159C
:100720000000371600004111130686229385E52F3D
:100730002A84EF00105D1305F100C13F9087B716C2
:100740000000AA852687938686ED2285EF00101388
:100750004101E5B3AA959C218831A2073E95420547
:100760004181828001458280EFF2FFDA9C21AE84D4
:100770002A841CA19C311CB1BC213CA1BC313CB1E0
:10078000DC215CA1DC315CB1FC217CA1FC317CB1C1
:100790009C251CA59C351CB5BC253CA5BC353CB591
:1007A000DC255CA5DC355CB5FC257CA5FC357CB581
:1007B0009C29C5451CA92685713F2AA8CD452685BB
:1007C000513F4AA8D545268571376AA8BDB3104167
:1007D0000348C5001C223307B8001377F70FB3D6C0
:1007E00007419D4763ECE70093F7F60F58A57D5549
:1007F0003315B5001345F5FF7D8D828093071600F4
:100800001CC11C32214633060641B397C700D58F61
:10081000611793F7F70F1377F70FC9BFEFF2BFCF49
:100820002CD183458507930405062A8423060506F3
:100830002685713F834594072305A4062685413FFD
:1008400083472409A305A4062307F40693B71700DA
:10085000A307F406DDB1EFF21FCC2E848D3F7D148B
:100860008547B39787001D8D62056185F9B185477E
:10087000638CF60091C68947638AF6000D8D11A03E
:1008800032954205418182802E95E5BF118DD5BFFD
:100890008547638CF60091C68947638AF6003295D6
:1008A00011A02E95420541818280118DE5BF0D8DED
:1008B000D5BFEFF25FC38344850603499506411116
:1008C0002A84AE89328B834BA40693FAF90F338ABC
:1008D0009B40137AFA0F63743A01937AFA0F034735
:1008E0000407939C8401131C89010355440693DC7F
:1008F0008C41135C8C41BA866286E6853AC6493FD4
:100900003247835D64066286BA862A8DE6856E85E7
:10091000B93F2A86324763080B028347E40623095E
:10092000F408D686EA852285B521CE9493F4F40F97
:1009300063E14903B3847441050993F9F40F137912
:10094000F90F814449B78347D406E5F38347F4069A
:10095000F9B723049406A30484074101D9B6EFF242
:100960001FB92A84130A0506553D8345A4075285FD
:100970008309B406CD358345B4072A8C5285E13D01
:100980008345C4072A8B5285F9358304A406AA8AB5
:10099000635D90084E9B834B0407330B6041035506
:1009A0004406620B135B8B41DE865A86E285CD35A9
:1009B0002312A4062A89035564065A86DE86E28538
:1009C0007D352313A40685472A86638CFB06638046
:1009D0000B0689476387FB088D47638BFB0A2A87D1
:1009E000CA86CA852285E12129C1231404068345CC
:1009F00064075285E93B834574072A895285C13BC8
:100A0000AA840146CA8522856D35A68522850546BC
:100A10004D3585455285653B6DF583079406E3C8E2
:100A200037FD8347E4062309F4085685EDBCCA94D4
:100A300093960401B304350113970401C1824183E5
:100A40004DB7B3073941AA940509931609011397C5
:100A500004018507C18241831399070113590901D4
:100A600049B70547B3049740B307990033073741A7
:100A70009304190093960401B305E500930415004F
:100A80001397040113960501C18241834182E9B79E
:100A9000B304954013061500B306390185041317F6
:100AA0000601C20613960401C1824183418215BF2B
:100AB0003C4D1307F00FDD076368B702130700060C
:100AC000637DB70003578508BA97983335C39423DD
:100AD000E39CB6FE13852700828013070004E376AB
:100AE000B7FE03576508CDB7EFF2FFA20354A50880
:100AF000AE843E94228981454A85A9392A94894544
:100B00004A8589391109E36895FE1C301820A2072F
:100B1000D98F13978700A183D98FC207C18399CB3F
:100B20006395F4001305340009BC3C203E94F1BFEA
:100B3000014582800145CDBFEFF2FF9D2A848D3FA4
:100B40000DC5AA852285D9398345A40793040406D7
:100B5000268511338345B4072308A4082685E53983
:100B60008345C4072685C539C9BA0145F5BFEFF2EB
:100B70001F9823050506AA84AE8AF12BC1671309C5
:100B800000FC014A0144138BF7FF9389E7FF930BA5
:100B900000FC83C50A00DC4026858297AA85630392
:100BA0006503850AE30735FF26857937131A0501A2
:100BB000135A0A0163147901038904095294420407
:100BC0004180C1BF8387A40691CF03870409BA97E8
:100BD0003E943304444142044180635520014A94C9
:100BE0004204418022856FF01F94A306B5068280DF
:100BF000EFF2DF908347050705472A842E89B284E8
:100C0000B689638FE7029DC709476383E7040D47F1
:100C10006384E704CE8523122407231394062285D8
:100C2000413DAA85014589C52285153B4205418183
:100C30006FF01F907C4D8297AA94C204C180D9BFE7
:100C40007C4D82973309A940420913590901D9B74C
:100C50007C4D8297898CD5B77C4D82972A99EDB7C8
:100C6000EFF2FF884169AA8C2E84B284B689130AF8
:100C7000F9FFD521014C7919854A094B8D4B83A782
:100C80004C0083C5090066858297AA8663034505E3
:100C90008509E30625FF2686A2856685913F83C7E1
:100CA0000C076380570391CB6381670363817703EC
:100CB0002A9C420C135C0C01D9B72A94420441804F
:100CC000C5BFAA94C204C180E5B7098CC5BF898C91
:100CD000D5BF62856FF03F85EFF2FF83B717000045
:100CE0009387C70B5CC1AD3F6FF03F853C4DA9CBEF
:100CF00003061508830625088347D5082307C5087A
:100D0000A307D50895CF0547639FE70083073508FC
:100D10006354F6002307F5088307450863D2D7021A
:100D2000A307F50882808307E50703070508BA973C
:100D30006354F6002307F5086354D700A307E508BA
:100D40008280B7070000938747767CCD8280384D3C
:100D5000630DB700EFF22FFC2A842CCC1305450756
:100D60002134228561376FF04FFD8280EFF2AFFAB8
:100D7000B71700009387C70B5CC1D53B6FF0EFFB43
:100D8000EFF26FF97E3D1D8E5C55420641828297DF
:100D90006FF0AFFA8347C508C1CBD9C6854763F961
:100DA000D70089476317F7068505958DC205C18170
:100DB000058B25EF8357C5046368F6068357E50462
:100DC0006374F606AE96C206C18283578504035843
:100DD000A50463F9B60463F605059306F8FFC20699
:100DE000C18263F3D704BE8863F3B700AE889395DE
:100DF0000801C181C28763F30601B687B386B74095
:100E0000C206C182EFF22FF11C599C4782976FF006
:100E1000CFF28D47E31EF7F80506158E4206418294
:100E200041BFBE85E3EF05FB828083578504E3ED78
:100E3000F5FE8357A504E3F9F5FEB296C206C1821A
:100E40008357C5040358E50463F9C60263760603B5
:100E50009306F8FFC206C182E3F8D7FCBE8863F3AD
:100E6000C700B288139608014182C28763F3060166
:100E7000B687B386C74069B73E86E36F06FD6DB798
:100E8000894763E5B7002309B508828085472309B0
:100E9000F50882806379B60085476364D500B3B7EF
:100EA000C6003E858280E36CD5FE8147DDBFEFF250
:100EB0008FE62A84AE848355E5040355C50436893C
:100EC000BA86C93F01C98355A40403558404CA8660
:100ED0002686C9376FF06FE60343250993787600BD
:100EE0008547339817011378F80F014E63E56700C3
:100EF000428E6309F30403230500619A5C5903439E
:100F000003013306660242064182B295BE950DCFBB
:100F100005479C218508FD16B367FE00B347F8001E
:100F2000C2069CA193F87800C18263900804323D08
:100F300083472509B2956365F700054E638EE70286
:100F400005481DA8014845BFAE96C206C1829C2136
:100F50008505B367FE00B347F800A38FF5FE9397AE
:100F60000501C183E395D7FE828093171E00060812
:100F700013FEF70F1378F80FC9FE828083458503AF
:100F80001441834895031397050141839317370054
:100F90005EBD9C2A13980801135808018E073EBDB8
:100FA000931738007EBD903AC6956356B600330756
:100FB0000641420741830E072310F504BA97231117
:100FC000F504DE2A2312F504FE2A2313F504828099
:100FD000EFF26FD465376FF04FD6EFF2CFD34D33CA
:100FE0006FF0AFD5EFF22FD3035765058356250574
:100FF00003564505835505052A84553D09E5230615
:1010000004086FF08FD385472306F4080357840440
:10101000835704056374F7002314F40483572405ED
:101020000357A40463F4E7002315F404835744052D
:101030000357C4046374F7002316F404835764054C
:101040000357E404E3FFE7FA2317F4045DBFEFF26C
:101050008FCC03574504231405042315E5043841B8
:1010600078C549376FF06FCDEFF2EFCA1C59417761
:1010700038C9DC4378C982976FF02FCCEFF2AFC943
:1010800093071010230CC502A30C0502A306050646
:10109000A3060508A30805082319F5081C4354D521
:1010A0004CD918D9232C05042A84829722856D3FB8
:1010B00022854139230804066FF02FC8D1C9A947FA
:1010C0006388F508034765022DE79307B00F63FABD
:1010D000B70095472303F50285890EB1C165F9155F
:1010E000B9A09307700F63F7B70091472303F50288
:1010F0008D89E5B79307F00E63F7B7008D4723039B
:10110000F5029D89D9BF9307F00D63F7B7008947B2
:101110002303F502BD89D1B79307F00B63F7B7003E
:1011200085472303F502FD894DBFC205C1812E8588
:1011300082801E3193F5F5037D179A07DD8DC20578
:101140001377F70FC1812303E5020EB16DD379B791
:10115000C165FD15E9BF230305028280EFF2AFBB35
:101160001C492E8681469305000282976FF0EFBCE2
:10117000EFF26FBA1C49B2862E86DD4582976FF07A
:10118000CFBBEFF24FB94111CC871306F100854573
:10119000C53741016FF06FBAEFF2EFB75C452E86AD
:1011A0008146D54582976FF04FB9EFF2CFB65C45D7
:1011B000B2862E86DD4582976FF02FB8EFF20FB41E
:1011C0004111AA842E845D49E549130AE00FD54AEE
:1011D0000C20638C25036367B90063F0550341015C
:1011E0006FF00FB563FBB902E39B45FF1030930529
:1011F00090022685D087F92439A01030DC4481463E
:10120000D087268582970904E1B71C301306F100C8
:1012100085452685DC87513FFDB7DC448146014684
:101220002685050482976DB79387C5FE93F7F70F60
:1012300015476363F704EFF20FAE37F701008A0733
:10124000130787ABBA979C4341113289AE842A8435
:10125000828781452137CA85228525370545410189
:101260006FF0AFAD854536C6D53DB2461C484A86BF
:10127000A68522858297E5B701458280EFF20FA807
:101280002E84CC212A89B2898E0593F5F50393E546
:101290000504193783C569004A8593E5850BED3D43
:1012A0007C20A1CF542058309387860093F7870F76
:1012B000958F93F7F70F9375F70F63F4E70093F5A6
:1012C000F70FAE960D8F10408E0593F4F50FA6859F
:1012D00054A058B04A85D13D0C405C30AE9404C057
:1012E00091EB83A709001CC083C749005CB07C2038
:1012F000FD177CA05C209D8BC5F76FF06FA3EFF20C
:101300008FA1A94741112A84638DF50863EAB700CC
:10131000A5476381F5088144268541016FF0EFA15F
:10132000AD476382F50CBD47E397F5FE9C423689D5
:10133000D4323EC483574900508713978700A18356
:10134000D98F7C869D4763E1D7025C45814605467F
:10135000E14582974A862C0022850D375C44814600
:101360000146E545228582971886BD478544E3E519
:10137000E7FA5C4481460946E145228582974A8620
:101380002C002285E53D5C4481460146E5452285E9
:10139000829759B7B7F50100938505AD652085445F
:1013A000A5BF75205C4481460546E14522858297AC
:1013B0009385C186228519355C4481460146E54501
:1013C000228582975C44E1458146094622858297C1
:1013D0009385C1862285DD335C4481460146E5451F
:1013E000228582976DBF5C4581461DE60546E14535
:1013F0008297938501872285D1335C4481460146DB
:10140000E545228582975C44E1458146094622856F
:101410008297938501877DBF0546E1458297938535
:1014200041872285613B5C4481460146E545228532
:1014300082975C44E14581460946228582979385DF
:10144000418749BF0CC1BC292301F5028280EFF21C
:101450008F8C5C4981460146930580022A848297DD
:101460005C4481460146D145228582972285054606
:101470009305B00481281C40228593059002D02357
:101480009120228501469305B0042D281C40228519
:1014900093059002D0233D20228505469305B00494
:1014A00015201C40930590022285D03321286FF02F
:1014B000CF88EFF24F861C4581460146A5458297AD
:1014C0006FF0AF87EFF22F855C49814682976FF00E
:1014D000CF8601458280B71700009387274D1CC532
:1014E0005CC51CC95CC9FD5723200500A30105028A
:1014F00023030502232C05002302F5022304F50231
:101500008280EFF24F8141112A842EC632C436C246
:101510003AC0D137B2452246924602470CC450C465
:1015200014C858C82285713741016FF00F811385A7
:101530000197828005458280EFE2FFFD85474111DA
:101540002A8663F5A7008D4763E4A70283A5019768
:1015500037F5000074001305C5CD02C6EFF0701119
:1015600001C9B24791C7B7E700E0116723A0E720A0
:10157000054541016FE07FFCEFE2FFF92A8403A5F6
:1015800001977D57814605468D45EFD0604B8547D5
:10159000630FF50011C98947630BF5008D47630898
:1015A000F50005456FE07FF923200400DDBF08C08A
:1015B000CDBFEFE25FF683A50198411137F500003A
:1015C000740005461305C5CD02C6EFF0900A01C9A7
:1015D000B24791C7B7E700E0116723A0E7204101B8
:1015E0006FE0BFF5EFE23FF303C7D1979385D19743
:1015F000238EE19603A54197EFC0D06683A7819C17
:1016000082976FE09FF313850198828013858197FD
:101610008280EFE25FF085476380F604894763814B
:10162000F6040147814613844197014608C0EFC084
:101630005055084037160000B7150000014789468D
:101640001306265B9385455EEFC0305C0840EFC013
:10165000505A05456FE07FEE056793060060E1B7DD
:10166000056793060040C1B7EFE2FFEA2E8483A727
:10167000419715C59385D1973E85EFC0B05E37156C
:10168000014093050020130505C0EFB0B06C03A521
:10169000019885450DC0EFD0E0576FE01FEA3E8509
:1016A000EFC0105E3715014093050020130505C0FB
:1016B000EFB05069E9BFEFD0404EC5B7EFE2BFE5EC
:1016C0002A843715014093050020130505C0EFB0AB
:1016D000706703A541979375F40FEFC01057054548
:1016E0006FE0BFE583C7C1971CA105458280EFE28B
:1016F0009FE203A501987D57814605468545EFD0B9
:1017000020348547E317F5FE83A7C19C8297D5B7A0
:10171000EFE27FE008218545EF00F16E7D572386DB
:10172000E1806FE09FE1EFE21FDF41118545054554
:1017300002C202C423160100EF90003683A7818203
:1017400037470F0013070724B3D7E7024C003705CC
:101750000040231501007C8489679387F7703EC29F
:10176000EF9080540546854537050040EF903006E0
:10177000854537050040EF9010048545370500404A
:10178000EF90900DB7E700E0056723A2E710410155
:101790006FE0BFDAEFE2BFD5411113858198371AA8
:1017A0000020EF90D0260144BD3F938C4180130C64
:1017B0008AA1938B8180114B93140401C1801385FE
:1017C000340142054181EF202056B3878C0088A365
:1017D0001385740142054181EF200055B3078C0049
:1017E00088A31385B40142054181EF20E053B387FC
:1017F0008B0088A30504E31164FD9386819813860A
:10180000818093058AA113854180EFA0E0709567E0
:10181000938707E23EC29167938787A93EC4480039
:10182000A5473EC6EF0001301933184123ACE198BB
:1018300041016FE05FCFEFE27FCC0111C88793F7E2
:1018400045002E84B9C39379F50F1307C00333877E
:10185000E902B7170120938747C2BA97D447984740
:101860003697D44B9C4F3386F6006374C700B3079A
:10187000D740938441998E203ECE13076010AE97D7
:101880006371F7061305F1006135937784009DCBF2
:101890009384C18098209307F00F6315F70288871F
:1018A0008545EF00513B88870566130686B6B3056C
:1018B000C502B717002093870729BE95EF00A162E4
:1018C0009C879CA09377040181C77D572386E18084
:1018D0001374040401C47D572386E18005616FE021
:1018E0003FC537390020130909967008CA954E85FF
:1018F000EF0081649E2072473E97420741839AA081
:101900009947E3F4E7F88356490093978600A1824C
:10191000D58FC207C18393865700E3D8E6F69907AF
:10192000E312F7F60545EFF03FC103A581997D5716
:10193000854605468545EFD0A010B73500201386B3
:101940004198938585A64E85EF0051149384819923
:1019500001C51305F1006D3B88408945EFD0802B10
:101960002DB7EFE25FBBEF00912A937715002A8431
:1019700099C737F50100130585AEEF90016B93779A
:10198000240099C737F501001305C5AFEF90E16951
:101990009377440099CBEF00712B118919C537F566
:1019A0000100130545B1EF904168418819CC01450C
:1019B000EF003127AA8519C10145B53D0545EF0066
:1019C0005126AA8519C10545BD356FE01FB7EFE265
:1019D0009FB439711304601F11C12A841306C00318
:1019E00081454800EFE03FB68D4722D64C00138476
:1019F000D1801385D1803ED0EF00212D814719E998
:101A00000820EF00912A854711C508208945EF007D
:101A1000913F81473E8521616FE03FB2EFE2BFAF6A
:101A20001385D180EFF0DFCE6FE03FB1B7370020F4
:101A3000938707961CC1938741999A230545239064
:101A400007009AA18280EFE21FADB73700202E86F3
:101A50002E84AA85138587A6938487A6EF80816F3D
:101A600023A28198138481990840854523A89198E1
:101A7000EFD0401A08407D57854605468945EFC09E
:101A8000307C05456FE07FABEFE2FFA883A7019DA7
:101A900082976FE09FAAEFE21FA8B7260000956526
:101AA0002A8695470547938686A8938505E20D45C6
:101AB000EFC0006C05456FE05FA8EFE2DFA50D45C4
:101AC000EFC060336FE07FA7EFE2FFA40D45EFC0EA
:101AD000205F6FE09FA6EFE21FA4D53D01E50D4515
:101AE0006FE0BFA50145EDBF8280EFE2DFA23D3789
:101AF0006FE0BFA4EFE23FA201112A84AE84680820
:101B00009305A10132C61D3715C9724715453C33EF
:101B10003423A207D58F93968700A183D58FC20760
:101B2000C18391EBBC8532461D0798C0E5171EA204
:101B3000FD571CA0014505616FE03FA01545E5BFBD
:101B4000EFE27F9D9307160013D787401D06238F72
:101B5000F5FE2E85A38EE5FE93150601C181651560
:101B6000DD35954711C181473E856FE01F9DAA95E0
:101B7000C20537F6010037F801001307F00F93068E
:101B8000F00FC181130686B2130888C293170501AE
:101B9000C1836396F50013958600598D82800505F3
:101BA0008347F5FFB98F3307F6001823C297358FA7
:101BB0009423E9BFEFE23F9632842E852146A28529
:101BC000EFF03FA585476310F5029567938707B04F
:101BD0001305300263E48700130580026D3D05475D
:101BE00081476303E5008D473E856FE01F95EFE277
:101BF0009F928145054523AE0198EFF0FFA6753D04
:101C00006FE0BF93EFE23F9181450145EFF0DFA523
:101C1000653D6FE09F92EFE27F8E1384819A1E20D4
:101C20001307F00F41116372F702B7F6010037F6A0
:101C3000010037F50100938686D7130686D29305F7
:101C4000B009130505DAEF8001481E200D476366D1
:101C5000F700154541016FE0BF8D2E890E20AA893E
:101C600037350020930405B7130505B732C6013791
:101C70006DF19C20324685042380F9001E20F51763
:101C80001EA223209900F9B7EFE2FF8883A4C1992F
:101C900085476399F4061384A19A06A0AA87A38FA7
:101CA000F5FE1E201385F5FF3E964206418212A0E6
:101CB0000E2023A2A19A653D1A209376F50F21816B
:101CC0004207418393071700C207C1831EA0B7379D
:101CD0000020938707B73E9714A31A201375F50FBA
:101CE00085454207418393061700C206C18216A0AC
:101CF000BA9788A3014523A0919AEFF0FF9601457A
:101D00006FE0BF831545EDBFEFE2FF8083A7019A27
:101D100041118DC3B7F6010037F6010037F5010018
:101D2000938686DB130686D39305400E130505DAEA
:101D3000EF8061391305F100EFF0DF9A9387C199C5
:101D400098438546630FD70019C789466302D704B5
:101D50008D476314F700EFF05FD6014541016FE056
:101D6000CFFD9386819A239006009A2213160701CD
:101D7000418213071600420741839AA2948737379E
:101D80000020130707B7329714A3094798C3E1B798
:101D90001387819A16231306F00F6363D6021E235E
:101DA00093960701C18293871600C207C1831EA3C1
:101DB0009887B7370020938707B7B69798A361BF76
:101DC0000D47E9B7EFE22FF583A7C1990547638275
:101DD000E702B7F6010037F6010037F501009386F8
:101DE00086E31306C6D493050012130505DAEF80C7
:101DF000812D9384019A984019C7630BF700014421
:101E000022856FE08FF381450545EFF0FF85C5BF63
:101E10001384A19A1E20C207C18395C39384419A5B
:101E20009C40882362056185EFF05F899C408507AF
:101E30009CC01E20FD17C207C1831EA0C9B70D4557
:101E4000EFF08FEF2A848145054523A00400EFF0D1
:101E5000BF817DB7EFE22FEC1387C1991443094688
:101E600041111384C1996380C6048D476389F604C8
:101E700001459DCA1443A1C614436382C604184396
:101E800001456305F702B7F6010037F6010037F5A3
:101E90000100938646DD130606D6930580151305CB
:101EA00005DAEF8041220545EFF00FE985472AC6A4
:101EB0001CC0EFF07FC1324541016FE00FE80145E2
:101EC000F5B7962115476398E608582130319306F7
:101ED000E07C2207518F131687002183598E42061A
:101EE00041821307F6FF42074183AA870D4563E647
:101EF000E606EFE24FE2B823943323900500220771
:101F0000558F854694A396219354360093F4F40F8D
:101F1000850696A19376760081C6850493F4F40F26
:101F200084B396212E8413852700850696A19315E8
:101F3000870021834D8F93051700C2058146C1811B
:101F4000EF30302201C5112B6FE02FDF1E2001453D
:101F5000BE9406A0D5BF0D45828082809A21954708
:101F60006311F70658218D4731EF38311306D00F32
:101F70009306F7FF93F6F60F6376D604EFE2AFD938
:101F80003C210C314111A207CD8F93958700A1838D
:101F9000CD8F93851700130717F0C205133717006D
:101FA00085460546C1816800A30601005886EF30CA
:101FB000501B814719C15521AA873E8541016FE019
:101FC000CFD78D473E85828096211547637FD70600
:101FD00058213031AA872207518F13168700218399
:101FE000598E420641821357360093767600137756
:101FF000F70F81C605071377F70F9306F6FFC206A2
:10200000C1821308F07A0D456363D804D43363901A
:10201000E604EFE24FD0B8232E848C3322071385D9
:1020200067004D8F931687002183558F0507931501
:1020300007018546C181EF30D01201C539296FE013
:10204000CFCF95471EA00145DDBF0D458280828020
:10205000962115476397E608582130319306E07CB6
:102060002207518F131687002183598E4206418221
:102070001307F6FF42074183AA870D4563E5E6068D
:10208000EFE26FC9B8239433239005002207558FE0
:10209000894694A396219354360093F4F40F850651
:1020A00096A19376760081C6850493F4F40F84B3E9
:1020B00096212E8413852700850696A19315870007
:1020C00021834D8F93051700C205C181EF30701237
:1020D00001C561266FE06FC61E200145BE9406A0B3
:1020E000D5BF0D45828082809A219547631CF702F7
:1020F000EFE26FC23C210C318546A207CD8F93954C
:102100008700A183CD8F93851700C2050546C18145
:102110000D05EF300076814719C18126AA873E85DB
:102120006FE0AFC18D473E858280EFE2CFBE9A213E
:10213000954463F7E406582130319306700722076F
:10214000518F131687002183518F13160701418287
:102150001307F6FF42074183AA870D4563EDE602A8
:10216000D433131716001377F70F6396E602B823DC
:102170002E848C332207138567004D8F93168700BA
:102180002183558F0507931507018546C181EF30DF
:10219000406E01C5D9246FE04FBA06A00145E5BFE6
:1021A0000D45D5BF96211547639AE606EFE2AFB617
:1021B00054211306C007AA8793940601C180138790
:1021C000F4FF420741830D456362E6042E84B82381
:1021D0008C332310040088A31220860622070506EC
:1021E00012A04D8F94B393158700162021834D8F35
:1021F000930517008506C20516A026868146C18173
:1022000013852700EF30E06601C5812C6FE0EFB247
:102210001E2086040145BE9406A0CDBF0D458280D8
:102220009A21A54763F2E70EEFE24FAD5C2138310A
:102230002A84A207D98F93998700A183B3E7F90075
:102240009399070193D909019387F9FFC207C183C5
:102250001307C0070D456367F70A1C247030130786
:102260008007A207D18F13968700A183D18F139681
:10227000070141829307F6FFC207C1836364F70831
:10228000183493171600639FE70624202E890C301C
:10229000A2047C20CD8C4C30A2078546CD8F93952F
:1022A0008700A183CD8F93851700C205C1811305D7
:1022B000A400EF30005C39E923100900DD471CA0C1
:1022C00083570900139A19009395840085072310FA
:1022D000F900A300440183570900A180CD8C9385A8
:1022E00014008507C2052310F90081464E86C1817E
:1022F00013052400EF30E05711E9835709003E9A97
:10230000231049016FE0CFA201458280B922DDBFD1
:10231000962115476390E608582130319306B0079F
:102320002207518F131687002183518F131607013F
:1023300041821307F6FF42074183AA870D4563EDEB
:10234000E604EFE24F9D2E843E858C331147BC237B
:102350002310040018A11A20A207931416000507E1
:102360001AA004B1CD8F939587001A20A183CD8F39
:10237000938517000507C2051AA0C1810905EF3032
:10238000203C01C5D9286FE04F9B1E200145BE941B
:1023900006A0D5BF0D4582808280EFE2CF9703D49F
:1023A000C19AAE84B73500202286938505C70505FE
:1023B000EF70515A050482A001456FE00F98A147C4
:1023C00063F4C702EFE22F95B7F6010037F601007C
:1023D00037F50100938646E6130646E5930580032C
:1023E000130545E7EF70314E13D7350093071700FB
:1023F0003308E5003E958547B397C700FD17C20730
:102400000E073387E540C183B397E70018210346E1
:10241000080093C7F7FF2207518F9D89F98FB39664
:10242000B600DD8EC206C1862300D800C206C18276
:10243000A18214A1828093D735003E951C310821DA
:102440009D89A207C98F05453315C500B3D7B7408D
:102450007D157D8D1375F50F82809D4763E7A7007D
:1024600093878187AA978823828011458280EFE233
:102470008F8A9388F5FF93F8F80F9307600F63F640
:102480001701094422856FE04F8B238AB1802E8883
:102490006DF9B687B7260000B2859386E6BE23A005
:1024A000D19CB7260000938646C023A2D19CB726B4
:1024B0000000938686C823ACD19AB7260000938685
:1024C00066C123AAD19A23AE019AB726000093864B
:1024D00086D023A4D19CB7260000938646DC23A691
:1024E000D19CB7260000938646E523A8D19C42855F
:1024F000BA863E86EFF00FEC2A8449F5EFF08F8321
:1025000009C5054723A8E180B5BF0D44A5BFEFE28B
:102510008F802A8437F50100130545E9EF80F130FB
:102520002285EFF04FDB2A8419C937F50100130526
:1025300085EAEF80912F054723A8E18019A8EFE0F5
:102540007FFF19E937F50100130585EBEF80F12DC9
:102550000D4422856FD07FFEB7270000938787AE9A
:1025600023A0F19CB72700009387A7AE23A2F19C7C
:10257000B7270000938747AF23AAF19AB727000037
:10258000938707B423ACF19A23AE019A7D57238A2F
:10259000E18055B7EFD23FF8138401811840854799
:1025A00019456318F70083A7019C829701452320F2
:1025B00004006FD09FF8EFD21FF683A7018141116D
:1025C00019446395070C6800EFE01FFB0547AA87D5
:1025D0006304E50001445DA832476303A708894608
:1025E000E31AD7FE03A5819D0C213707002023A8FD
:1025F000F19A13060700238AB19C81471384819DB9
:102600001389419D9384019B1307070041481422BD
:1026100091CA6391D5088E07BA97DC439385E19DF3
:10262000829788C083C7C19DD5D794409387E19D89
:1026300085C203470900104085458EA3136707F83C
:1026400018A292231840930516008EA3329714A364
:10265000922303A7819B0C4003C5418102979DBF34
:1026600083A7419B9384C19D1386E19D9385819DA2
:102670001385C19D82972A8431FD9C2003C7418127
:102680006303F700A1FB0945EFE01FEB2285410141
:102690006FD0BFEA85072106E39B07F761B7930771
:1026A00040063345F502A9474205418163E9A70683
:1026B000B7F70100938787EC0A053E951C41828796
:1026C00023800500930760041CA2828089479CA197
:1026D00093078002D5BF91479CA1E547F5B7954781
:1026E0009CA1D147D5B79D479CA1BD47F1BFA1474C
:1026F0009CA1A947D1BFAD479CA1A147F1B7B14764
:102700009CA19D47D1B7B9479CA1994775BFBD47CB
:102710009CA1954755BFC1479CA1914775B7D1472B
:10272000E5BFEFD25FDF7971BD47AA842E8436857D
:1027300093056100130671005C83DC83EFF03FF6C4
:102740009C83034E61009308C05D93960701C1828C
:10275000B388F84013982700139716008608B30E25
:10276000C04113932600814701458145054FD14F54
:10277000634A170105476369F70A81471EA045614F
:102780006FD0BFDB93161700A6960396060063DB97
:10279000CE046359C605B30607418606A6968396FE
:1027A000060063C5C604B306E8008606A6968396AF
:1027B0000600634DD60211C19DCD81459386170059
:1027C00010188607B297135617001A974207050587
:1027D00093F6F60F239CC7FC41831375F50F63ED49
:1027E000DF00B68709074207418359B719C16384DF
:1027F000E5018545E1B795463000054781472E2222
:102800000A2205071377F70F898DAE97C207C18398
:102810000906E366D7FEFD16B3C7D702C207C18318
:102820008607C207C18399BFBE86F9B7EFD2BFCE74
:10283000B386C502AA88014701450148634FD70006
:102840002E868146C285EF508152EF708146EFE0BF
:10285000007BEF7041696FD05FCE93171700C6976A
:102860008397070032974207B387F702418313DE4D
:10287000F741AA9733B3A70072983E851A987DBF97
:10288000856793870777AA971A2136211105158F37
:10289000231EE5FEE39AA7FE828005668147014775
:1028A0008146130686BB139817002A980318080060
:1028B0009398070193D8080163D406014687C2861E
:1028C0008907E392C7FE05839AA136858280EFD2FD
:1028D0009FC40945EFB0C07E0145EFA0806D03A500
:1028E000C19F138401A10147938701A18546114629
:1028F000814523200400EFD010711C4091C7B7E739
:1029000000E0116723A0E7206FD03FC3EFD2BFC024
:102910000545EFA0C03A1384B19F9315050104202B
:10292000C1850545EFA0404AB7470020860493873C
:102930000740A6978AA31C209946850793F7F70FAF
:102940001CA01387818163F4F6040C233735014002
:10295000854605461305058023000400EF70407D81
:1029600003A5C19F138441A10147938741A18546D7
:102970000946814523200400EFD0F0681C4091C730
:10298000B7E700E0116723A0E7206FD01FBBBA971D
:102990008C23373401401305048085460546EF70CB
:1029A0002079854513050480EF700077F9BF9D47B6
:1029B00063E8A702EFD23FB6AA852A847D45EF10CF
:1029C0006014370500201305050806042A941A2010
:1029D000B747002093874747DAA39AAB6FD0FFB57C
:1029E00082801385C19F8280138501A08280EFD2EF
:1029F000FFB01D71EF905046AD450D45EF90B050C2
:102A0000AD451145EF90305037F4010023A201A0ED
:102A1000130484FA8144A9493E20139904011359EF
:102A20000901D3F717D01E204A863EFAD3F717D0F4
:102A30007E200C183EF8D3F717D05E200D453EFEE1
:102A4000D3F717D0850411043EFCEF90B05E4A86A0
:102A50000C181145EF90105EE39034FDEF90F042BA
:102A6000A9450145EF90F04E37F401002946930542
:102A700044FD0145EF905062A9450545EF90704D2A
:102A80002946930544FD0545EF901061A945094588
:102A9000EF90304C930544FD29460945EF90D05FF7
:102AA00093070010B70608007010894501452316EA
:102AB000F102EFA0803493070002BEC8B72701409F
:102AC0009387C744BECAB7370020938707C9BECCD7
:102AD0008547BEC68567938787BB231EF1048C009C
:102AE0008567130600020A85BEC482C082C2EF70E9
:102AF0006166B73600009386E68C014685450A85F7
:102B0000EFA0C04C0145EFA0405B37370000130732
:102B1000C79081460546B7050E000545EFA0203851
:102B200083C58181373501409D46054613050580E3
:102B3000EF7000600545EF70206B3745002093096A
:102B4000455313060032814513054553EFD0BF9F0F
:102B50003744002013044447130900193755002057
:102B600023203401231224019309458523240400E2
:102B700013060032814513054585EFD0DF9C8D4754
:102B80005EAC9387819E1CCCB7470020938707419A
:102B90005CD0B7470020938747421CD8B747002036
:102BA000938787435CDCB74700209387C7443CC4C6
:102BB000B7470020938707467CC8B7470020938714
:102BC000874F3CD0B74700209387C7507CD4B74786
:102BD0000020938707522318240123263401232A37
:102BE00004002310040206B42316040246B8231C72
:102BF00004022310940423120404231694042318BB
:102C00000404231C9404231E040423129406231496
:102C1000040623189406231A0406231E9406231080
:102C200004083CDC25616FD0BF90EFD2DF8E7D457C
:102C3000EF10800FB7040020938404080605269542
:102C40001E2137440020130444477D455EA0EF1049
:102C5000A00D0605AA949E20130520021EA8EF10C1
:102C600020092AA413054002EF1080086AA86FD03B
:102C7000DF8C1A251C410607BA978EA31E255A2100
:102C80008507C207C1831EA563E4E700231405007E
:102C9000828052211A2581469305F6FFC205C18123
:102CA0008147631CD6000315A5003305C502898F33
:102CB00033C5C70242054185828011E32E877D1707
:102CC000420703280500418393181700469803180C
:102CD00008008506C206C297C182E1B7EFD21F8203
:102CE00041112A8A1305800DEF100004374400209B
:102CF00085472A89130444476307FA0A894763070B
:102D0000FA0C13054402EFF0DFF842051306400603
:102D1000938541A04181EF9050112A844145EF10E5
:102D2000A000AA892285EF607172B7F7010003A69F
:102D3000070483A64704EF60812193870188D29717
:102D4000802385476382F90A89476383F90EB7F7C1
:102D5000010003A6870483A6C7041344F4FF337459
:102D60002401EF60C11EEF7001182AC6EF70E10C5C
:102D7000B7F7010003A6070583A647051374F40FF0
:102D8000EF608111B26763540500D30700F0A2859C
:102D90001305800D3EE6EF003071B26741015385A7
:102DA00007E06FD0EFF84545EF001078AA891305CA
:102DB0000403EFF01FEE938541A01306400689053A
:102DC00042054181EF9070062A84A9BF4945EF0072
:102DD000B075AA891305C403EFF0BFEB938541A03A
:102DE000130640069105E9BFB7F7010003A6870463
:102DF00083A6C704EF60A115EF70E10E2AC6EF703D
:102E0000C103B7F7010003A6070583A64705EF60D6
:102E1000A108634B0504B7F7010007A78703B26752
:102E2000D397E7A0A9C7336489001374F40F85B75B
:102E3000B7F7010003A6870583A6C705EF60211138
:102E4000EF70610A2AC6EF60517FB7F7010003A651
:102E5000070683A64706EF60210463470500B7F71E
:102E6000010007A7C70365BFD30700F06DBF134478
:102E7000F4FF3374240155BFB94763E7A714EFD2B9
:102E80008FE937F7010093162500130747EF3697B0
:102E90001C432A848287374500201305454DEFF0F7
:102EA0005FDF42054181EF607153B7F7010003A670
:102EB000070483A64704EF608109EF70C102D307BE
:102EC00005F029A09387019FB6979C63538507E07F
:102ED0006FD0AFE6374500201305C548EFF07FDB24
:102EE000D37705D0538507E0EF603175B7F7010060
:102EF00003A6070483A64704EF606105B7F7010046
:102F000003A6070383A647037DB70145EFF01FDD46
:102F10007DB70545E5BF0945D5BF99471945630309
:102F2000F4001D45B1473305F502B74700209387EC
:102F300047473E95EFF0FFD51317050199474183A9
:102F40000D456303F4001145896593850571B3054B
:102F5000B7028567FD17998FD3F707D053F705D0D0
:102F6000D377F718D38507E0EF904073B7F70100E8
:102F7000D30705F007A74702D397E7A0A1DBD30744
:102F8000E720A9B7374500201305054EEFF07FD0A5
:102F9000B7F70100D37705D007A78702D3F7E7106B
:102FA00035B70395A1A0D37705D00DB737450020DD
:102FB0001305C54EE1BF0395C1A0F5B787A7019ED4
:102FC00031B787A7419E19B7D30700F0538507E0B3
:102FD000828052211A2581469305F6FFC205C181E0
:102FE0008147631CD6000315A5003305C502898FF0
:102FF00033C5C70242054185828003280500931826
:103000001700469803180800C29711E32E877D1712
:1030100085064207C2064183C182E1B7EFD2AFCC39
:1030200041119307B05D7C8323120100EFC0F025AE
:10303000B7F7010083AB07FA03AC47FAB74A0020A1
:10304000938A4A472AC61544014B01498144B7393E
:1030500000205E8DE28D938CCA06094A8545680082
:10306000EFC0904F63060900630F49010549FDB7A2
:1030700037350140854513050580EF70E0090945A6
:10308000EFA070571DAA0547340019468145014538
:10309000EFD0A04EA247898BA1C737490020130962
:1030A0000940138A8A01831509005285310AEFF01D
:1030B0005FBC0909E3994CFFA947B3F7F402054B3C
:1030C0006312F4027D141374F40F11E025443735B4
:1030D0000140854513050580EF700004014B19A0E0
:1030E000E31C0BFCA247918B6382070C056A1389D2
:1030F00009C9130A0A774A9A831509000145090983
:10310000EF90904C231FA9FEE31849FF138509C9CE
:10311000EFF00FF793052100138509C9EFF0EFF7E2
:10312000AA86930561000946138509C9EFF06FDF90
:103130002C839307A05D63EFB7040946138509C983
:10314000EFF0CFEED30705F0539517C01319050123
:1031500013590901D37719D0538507E0EF60F14D7A
:103160005E86E286EF50B15EEF60F15723A2A19E2A
:103170004C004A85EF906048D37715D0538507E01F
:10318000EF60B14B6A86EE86EF50715CEF60B1552F
:1031900023A0A19E8565938585BB0145EF90707343
:1031A0000145EF9090710945EFA0F044850493F438
:1031B000F40FA54763F397008144094979BD9C4208
:1031C0002147636AF708EFD26FB337F701008A0728
:1031D000130707F3BA979C43B6843289AE892A84D1
:1031E0008287EFA0604B098919C101459DA0228506
:1031F000EFA0E04D85479CC0CDBFEFA000490589F9
:103200006DD59305A00D2285EFA0804E8947E5B7C7
:10321000EFA0A047098971D92285EFA0E047CE85AC
:103220002285EFA0004C8D47F9B7EFA0004613753B
:10323000050845DDCA852285EFA0A04AA14765BFE4
:10324000EFA0A044137545084DD12285EFA0E046BC
:1032500005456FD0EFAD014582809C4229476365EB
:10326000F70CEFD2AFA937F701008A07130747F52C
:10327000BA979C43B6843289AE892A848287EFA0AC
:10328000A041098919C1014571A82285EFA02044F8
:1032900085479CC0CDBFEFA0403F05896DD5930504
:1032A000A00D2285EFA0C0448947E5B7EFA0E03D1F
:1032B000098971D92285EFA0203ECE852285EFA015
:1032C00040429147F9B7EFA0403C1375450845DDF2
:1032D0002285EFA0C03FA9476DBFEFA0003B058945
:1032E0005DD19305A00D2285EFA0A041994755B768
:1032F000EFA0A039098941D92285EFA0E0399D4787
:1033000049BFEFA080381375050435DD2285EFA095
:10331000A0402285EFA040362300A9002285EFA01F
:10332000C03905456FD0CFA0014582809C411D4723
:103330006368F718EFD28F9C37F701008A071307ED
:1033400007F8BA979C432A84411113451500368A21
:10335000B2842E898287B286930500032946EFF056
:103360001FE68547631BF5042320A90023A0040062
:10337000A9A0B286930500031306F100EFF0FFED5C
:103380008547631CF5029C87A18BEDF389472320B9
:10339000F900E9BFB75700209387C7B91316340067
:1033A0003E96A6869945EFF05FEB85476317F500DB
:1033B00023A004008D472320F90041016FD04F97CF
:1033C000B2860E043756002005041306C6B92296AD
:1033D0009D45EFF09FE88547E311F5FE23A004002B
:1033E0009147D1BF37570020931A34009309C7B9CA
:1033F00013862A00A6864E96A145EFF01FE6854764
:10340000E31DF5FA338759011C2314332C23C2071B
:10341000A206D58FCD8F3707800093D5B70063798B
:10342000F700B70500FFAE97AD8393950701C18103
:1034300031453304A402374500202310BA00130598
:103440004547C205C1852295EFF0BF82954781B7F8
:10345000B2860E04375600200D041306C6B9229614
:10346000A545EFF09FDF8547E319F5F4994705B7C8
:10347000B7590020131A34009389C9B913064A00BA
:10348000A6864E96A945EFF05FDD8547E317F5F276
:1034900033348000314525043304A402D29983C516
:1034A000390083C7490037450020A205BE95C205F3
:1034B00013054547C1852295EFF0AFFB9D47C1BD80
:1034C00082800547A38CE19E238D019E828003C5E7
:1034D000A19F828003C7919F49CF1386919F138537
:1034E000819F18219386819F2548B7570020938597
:1034F00047B76362E80283D6A1A093171700AE977F
:1035000096A39307A7008607BE9583D7C1A005079A
:1035100018A19EA18280EFD20F80938747B71385B1
:1035200047010147814503D807008907C29503D8A1
:1035300027014297E319F5FEA947B3C5F5023744C1
:1035400000201304444713052002230006002380B3
:1035500006003347F7022EA4C205C1817AA8512B79
:103560006E281305400271230547238DE19E6FC02D
:10357000DFFC8280EFC29FF8371401404111A16542
:1035800013050480EF90107D1305803EEFC0700995
:10359000A16513050480EF90F07AB744002013056D
:1035A000803E93844447EFC0D0071D44EF10600B6A
:1035B00002C402C6EFF06FE7938AC400EFC0E04C8C
:1035C0002A8B02C002C2130920038247638487004A
:1035D000639A270192476384870063952701054515
:1035E000EFC03004EFC0604A3305654142054181B8
:1035F000E54763F3A7048247638687000545EFA08C
:10360000C00B02C49247638687000145EFA0E00A21
:1036100002C62685EFF0FF9BD37705D01389019F63
:1036200056852720F900EFF0DF9AD37705D02722BF
:10363000F900EFF03FEA59B7954763F8A7008247D2
:1036400091E34AC0924791E34AC29386A1A0300019
:103650008A850145EFF09FCD9386C1A070004C0094
:103660000545EFF0BFCC95B77300203037F501006A
:1036700019711305850682FE86FC8AFA8EF892F689
:1036800096F49AF29EF0A2EEA6ECAAEAAEE8B2E6B2
:10369000B6E4BAE2BEE042FE46FC4AFA4EF852F602
:1036A00056F45AF25EF062EE66EC6AEA6EE872E692
:1036B00076E47AE27EE0EF705117EFD03013AA85FE
:1036C00037F501001305C507EF703104EFD0701214
:1036D000AA8537F501001305C508EF701103EFD077
:1036E000B011AA8537F501001305C509EF70F10186
:1036F00001A0317106DF16DD1ADB1ED92AD72ED5BF
:1037000032D336D13ACF3ECD42CB46C972C776C509
:103710007AC37EC182FE86FC8AFA8EF892F696F40F
:103720009AF29EF0A2EEA6ECAAEAAEE8B2E6B6E401
:10373000BAE2BEE042FE46FC4AFA4EF852F656F4B1
:103740005AF25EF062EE66EC6AEA6EE872E676E4E1
:103750007AE27EE0EF80A00B13050008EF6050795D
:10376000FA50EA525A53CA533A55AA551A568A562B
:103770007A47EA475A48CA483A4EAA4E1A4F8A4FE1
:103780007670E6705671C6713672A67216738673BD
:103790007664E6645665C6653666A666166786670D
:1037A0007278E2785279C279327AA27A127B827B7D
:1037B000726CE26C526DC26D326EA26E126F826FCD
:1037C000296173002030197182FE86FC8AFA8EF816
:1037D00092F696F49AF29EF0A2EEA6ECAAEAAEE871
:1037E000B2E6B6E4BAE2BEE042FE46FC4AFA4EF861
:1037F00052F656F45AF25EF062EE66EC6AEA6EE851
:1038000072E676E47AE27EE0EF8000607670E67041
:103810005671C6713672A672167386737664E66444
:103820005665C6653666A666166786677278E2785C
:103830005279C279327AA27A127B827B726CE26C04
:10384000526DC26D326EA26E126F826F096173008B
:1038500020301971294582FE86FC8AFA8EF892F68C
:1038600096F49AF29EF0A2EEA6ECAAEAAEE8B2E6D0
:10387000B6E4BAE2BEE042FE46FC4AFA4EF852F620
:1038800056F45AF25EF062EE66EC6AEA6EE872E6B0
:1038900076E47AE27EE0EF709019854537050040C6
:1038A000EF70807B7670E6705671C6713672A672C4
:1038B000167386737664E6645665C6653666A666D4
:1038C000166786677278E2785279C279327AA27A7C
:1038D000127B827B726CE26C526DC26D326EA26E94
:1038E000126F826F096173002030EFC2DFC203A53F
:1038F000C1A1411170008145EFD0000FB24791C7BF
:10390000B7E700E0116723A0E72041016FC0FFC2C5
:10391000EFC27FC003A581A14111238001A281468E
:103920007000938501A2EFB0B008B24791C7B7E726
:1039300000E0116723A0E72041016FC01FC013857D
:1039400081A182801385C1A18280AA870A211307E1
:10395000500D6364A704EFC21FBC98470546AC2313
:10396000B433630BC70019C70946630EC70001458E
:103970006FC0BFBC152EE5BF854799E1B337D000B6
:10398000BE85852AEDB713978501C206558F4D8FE9
:10399000CC23A205D98DD125D9BF05458280EFC2A0
:1039A0009FB79305500519E1930540040545EFA025
:1039B000D0297D5685450145EFC0F0306FC0FFB777
:1039C000EFC2DFB37971854513050004EF7000097C
:1039D000F165056789460146938505200545EFA0F9
:1039E000501A37460000B7450000014789461306C4
:1039F000A68E938505910545EFA03021054537F941
:103A00000100EFA0101F01441309C90A3C0803A5D7
:103A100081A1B38A87002946D685EFB0F00B938445
:103A2000018205E185479CC001441C183E94034770
:103A300084FE93075005631FF70089479CC0054427
:103A4000F1B79C401147FD17E362F7FC8A07CA975C
:103A50009C4382870545EFF09FF4014445BF03C7AF
:103A60000A00894763F8E7000545EFF05FF38547F3
:103A70009CC0E5B78D479CC0094449BF0504137439
:103A8000F40F9147E3F487F89CC049B70504137419
:103A9000F40FA147E3FC87F69547FDB705041374BF
:103AA000F40FB147E3F487F6EF60100B894528085F
:103AB000EF60300BEF60F00C8347A101E316F5FADD
:103AC00083479101220531463ED68347B1014C1010
:103AD0005D8DBC862312A1020A852313F102BC87E7
:103AE0002314F102EF6001670A85EFF01FE62DFD58
:103AF000ADBFB75700209387C7BA3E950CA1A181EF
:103B00000CB18280EFC23FA19307300641112A8495
:103B10006306F500930750066316F5002EC6EF50B6
:103B2000E003B2452285EFF0DFFCB7550020938516
:103B3000C5BA0947A9460946A2952285EF80D02239
:103B400041016FC09F9FEFC21F9D81451305000D6E
:103B5000EFF05FFB6FC07F9EEFC2FF9B9307800675
:103B60002A8493F4F50F630EF50C63E3A706C947A7
:103B700063E1A704C1476370F512A1476306F5101E
:103B8000B5476303F50E9947631CF5028D47014560
:103B900063EDB70A63880510B75500209385C5BA51
:103BA00084A50947A9460546A1052145EF80D01BFC
:103BB00001A8FD47630DF50893077006630DF50432
:103BC000B75700209387C7BA3E9404A00545B5A80F
:103BD0009307600B630BF50463E2A7029307A0064B
:103BE0006301F5066368F5069307B006E31AF5FC72
:103BF000E14763E7B70AE9F58544D9B79307900D24
:103C0000630BF50663EDA7009307A5F2C207C18316
:103C10000547E367F7FA8547E3E0B7FE55B7930733
:103C2000B00DE31FF5F8914725A08D470D4563EED4
:103C3000B700B757002003C557C1A685EF30507FA6
:103C400041B789470945E3FDB7F66FC01F8F994714
:103C50000145D5BF894763F3B7008944B7570020B2
:103C600083C527C62685D9BF93074006E3FAB7F474
:103C700093044006B1B791470145E3E8B7FCB75755
:103C80000020A38F97C62DBFB757002083C727BB3F
:103C900001459DD75DBF89470145E3F397F275B7AD
:103CA000E14439BF814429BFB75700209387C7BA81
:103CB0003E950CA18280EFC21F862A84EFF0DFE9D7
:103CC00001CDB75500209385C5BA0947A9460546D9
:103CD000A2952285EF8050096FC03F86B75700201C
:103CE0009387C7BAAA97983388232207598D828071
:103CF000B75700209387C7BA3E951C310821A20709
:103D00005D8D420541858280B75700209387C7BAF1
:103D1000AA979833A82322074205498F8823498F01
:103D2000A8336205598D8280B75700209387C7BAA0
:103D30003E9508218280B75700209387C7BA3E95E9
:103D400093D785000CA11CB193D70501E1813CA15B
:103D50002CB18280B75700209387C7BA3E9593D77E
:103D600085000CA11CB193D70501E1813CA12CB1C8
:103D70008280EFC2AFF8B75400201306500D814582
:103D80001385C4BAEFC02FFC930640061306500DEE
:103D90009385C4BA0145EF80C0538947631C052A47
:103DA0001384C4BA18201309F00581476304272B34
:103DB0001306500D81451385C4BAEFC0CFF89307A1
:103DC00020503EA0FD475CA0930700FC3CB8B7071D
:103DD0000AC09387871A5CC8B70701FF9387871AC1
:103DE0001CCCFD575EAC930710107EA0B7C7C5FA78
:103DF000938717B01CC4B73714059387072F5CC48B
:103E00008547A304F406A305F4069307F0302316B0
:103E1000F406B7F7010083A5070C154713057005D5
:103E200078BC23002401EFF0FFF2B7F7010087A769
:103E3000470C1305B005B7F90100D38507E0EFF093
:103E40007FF1B7F7010087A7470C1305F005D3856D
:103E500007E0EFF03FF0B7F7010087A7870C1305E5
:103E60007002D38507E0EFF0FFEEB7F7010087A7F8
:103E7000C70C1305B002D38507E0538907E0EFF0C4
:103E80007FED87A7890C1305F002D38507E0EFF0DB
:103E90007FECCA8513053003EFF0DFEB87A7890CB1
:103EA00013057003B7F90100D38507E0EFF09FEA2F
:103EB000CA851305B003EFF0FFE9B7F7010087A744
:103EC000070D1305F003D38507E0EFF0BFE8CA85BF
:103ED00013053004EFF01FE887A7090D1305F00460
:103EE000D38507E0EFF01FE7CA8513053005EFF033
:103EF0007FE687A7090D13057004D38507E0EFF06F
:103F00007FE5CA851305B004EFF0DFE4930740F8BE
:103F1000A301F4069967938737802312F406894733
:103F20002303F4069307601F1EB0B7072C01938785
:103F300067092324F40CB7F7010083A5470D130587
:103F4000E00AEFF03FE1B7F7010083A5870D130505
:103F5000200BEFF03FE0B7F7010083A5C70D130575
:103F6000A00AEFF03FDF9305000013050007EFF014
:103F70007FDEB7F7010083A5070E13054007EFF0BA
:103F80007FDDB7F7010083A5470E1305C007EFF0EB
:103F90007FDC9305000013050008EFF0BFDBB7F7E7
:103FA000010083A5870E13054008EFF0BFDA8D47A7
:103FB0002317F406B7F7010083A5C70E1305C00841
:103FC000EFF05FD99305000013050009EFF09FD8CB
:103FD000B7F7010083A5070F13054009EFF09FD73E
:103FE000B7F7010083A5470F1305C009EFF09FD66F
:103FF000B7F7010087A7870F1305000AD38507E0ED
:10400000EFF05FD5B7F7010087A7870F1305400AC8
:10401000D38507E0EFF01FD4930700109306803E8E
:104020001306500D9385C4BA0145231BF40AEF8093
:10403000804119E537F501001305C50FEF60F17EEA
:10404000930640061306500D9385C4BA0145EF80D0
:10405000402885473E856FC0AFCDEFC2CFCB2A84C5
:10406000EFF05FCFB75500209385C5BA0947A94641
:104070001146A2952285EF80204F6FC00FCC3E21C4
:104080001A21C20733E5E70082808AA14181AAA1F3
:104090008280B75700209387C7BAAA979833A8237E
:1040A00022074205498F8823498FA8336205598D1D
:1040B0008280EFC24FC641112AC41305B00599C1D1
:1040C0001305F005EFF0FFFC530700F0A267D306DD
:1040D00005F0530507E0D3A7E7A0B9EFD3A7E6A003
:1040E000A1EFD317F7A05387F72099E35397F72051
:1040F000530507E03EE636E4EF503154A2662A84C9
:10410000AE84538506E0EF5051532A86AE86228551
:10411000A685EF4041722A86AE86EF405163530771
:1041200000F0B2672E87D307F7A081E7370700803A
:104130002D8FBA85EF50315B41016FC00FC0011167
:1041400022CC4ACA06CE4EC82A892E841305000AFC
:1041500099C11305400AEFF0DFF3D30700F0D3064F
:1041600009F0530705F0538507E0D3A7F6A09DEFAC
:104170004A853AE6EF50714C32672A89AE89530579
:1041800007E0EF50914B2A86AE864A85CE85EF40F8
:10419000115CB7F7010003A6071183A64711EF4092
:1041A000115BEF505154A285EFF0BFF0F240624432
:1041B0005249C24905618280EFC2EFB52A841305D6
:1041C000B00599C11305F005EFF0BFEC530700F0FF
:1041D000D30704F0AA84D3A7E7A0D307E720A9E375
:1041E0002285EF509145D30704F0530700F0D31711
:1041F000F7A081E7B7070080BD8DEFC05060EF509A
:10420000914E538704F0D30705F0D30604F0D3F79B
:10421000E710530700F0D397E6A099C3D397F72090
:10422000538507E06FC06FB1EFC2EFAE4111AE84AE
:10423000EFF09FF82A841305000A99C01305400A7D
:10424000EFF03FE5D30705F0530700F02AC6D3A7E8
:10425000E7A0530507E09DEB2285EF50113EB267C2
:104260002A84AE84538507E0EF50313D2A86AE861E
:104270002285A685EF40215CB7F7010003A6071150
:1042800083A64711EF40215BEF50F14541016FC01C
:10429000CFAAEFC24FA8B757002083C747C191C725
:1042A00005476387E7006FC04FA9EFF09FE0E5BFC8
:1042B000EFF0FFE8CDBFEFC20FA6B757002083C7CE
:1042C00047C191C705476387E7006FC00FA7EFF0AD
:1042D000BFEEE5BFEFF05FF5CDBFEFC22FA22A849E
:1042E00039711305000D2E89B289B684EFF01F9F36
:1042F000636085082A8A1305200DEFF03F9EB307FF
:10430000454163DA0700636345077D143304444184
:104310002A94420441801D453305A4020947D14631
:104320001D466C001305550D42054181EF70706705
:104330001886814795461376170019E68507C20748
:10434000C1830583E399D7FE2300F9009C86B880DA
:104350009CA41C87DCC09C879CB4834721012390CC
:10436000E9002381F90021616FC08F9C2A8465B721
:1043700023000900CDBFEFC20F9A0111AA841305D3
:10438000200DEFF0BF952A8468004482EF90405FD3
:104390004808EF9060621D453305A4028347C101C0
:1043A0003886A946DC82E24778841D465C838347D1
:1043B000D1011305550D4205DC831C8709474C00CC
:1043C00041815C85EF80401A13051400420541814C
:1043D0009307100363F3A7000145375400209307A8
:1043E000C4BA2389A70C1305000DA389070CEFF0AD
:1043F000FF8E930710039305C4BA63E7A700050572
:104400002388A50CA388050C0947A9461146938566
:10441000050D1305000DEF80201505616FC0EF91AC
:10442000EFC26F8F375400201304C4BA9305C40C35
:104430000947A94611461305C00CEF80E012930509
:1044400064020947A946054613056002EF80C011C2
:10445000930524020947A946094613052002EF8067
:10446000A010930544020947A946094613054002D6
:10447000EF80800F0947A94605469305340D1305C3
:10448000300DEF80600E6FC04F8B914763E1A70442
:10449000EFC26F88B7F70100938787110A053E9531
:1044A0001C4182878565938505803725014013056A
:1044B0000580EF9080081375F50F6FC00F88856534
:1044C000EDB78965DDB79165CDB7A165F9BF014548
:1044D0008280954763E6A704EFC2EF83B7F7010038
:1044E0009387C7120A053E951C41828793050004F5
:1044F0003725014013050580EF9020046FC0EF833E
:1045000093050002F5B7C145E5B7A145D5B791457B
:10451000C5B73715014093050010130505C0E9BF65
:1045200001458280EFB23FFF8547630CF50209C960
:1045300089476305F5048D476307F5046FB0FFFFF6
:1045400089E937150140C14513050540EF80907F8B
:10455000F5B737150140C14513050540EF80907F41
:10456000F1BF99E5A14537150140130505C0F9BF15
:10457000A14537150140130505C0CDB799E1C145E7
:10458000DDB7C145FDB781E593050002E9BF93059D
:104590000002C5B7EFB23FF87971A9473ED23ED0CD
:1045A000B74700009387A7484C0801453ED602CC88
:1045B000EF80803D4C080545EF80003D4C080945E3
:1045C000EF80803C4C080D45EF80003C4C081145C5
:1045D000EF80803BB7470000938747522C0001458E
:1045E0003EC802C6EF80C0322C000545EF80403245
:1045F0002C000945EF80C0312C000D45EF80403183
:1046000045616FB09FF3EFB21FF1011199475C84D0
:10461000938741A23EC89387C1A23EC6B7071464E0
:10462000D1073ECA8947230CF1008567938787BB72
:10463000FC85B74700009387274D28003ECEEF80CA
:10464000004E05616FB07FEFEFB2FFECEFF0BFFB04
:10465000EF80404CEFB0E07CEF806051EF8000369F
:10466000C5BFEFB25FEB37140140856541111305FB
:1046700004C0F1460146938505C002C002C202C4CF
:1046800002C6EF805068F1460146130504C0930549
:10469000000CEF805067B79704009387073E3EC039
:1046A000B70700403EC2B70700043EC48A85916741
:1046B00001457C86EF80506C8A850545EF80D06B84
:1046C0000145EF80507E0545EF80F07D41016FB0E0
:1046D000DFE6EFB2BFE2011137140140EF80D0678F
:1046E000F146014613050480C145EF80D0611305F2
:1046F00004C08D45EF80305F9305000337150140FE
:10470000EF80705E130504809305400EEF80B05D6E
:10471000B72401401385048093050078EF80B05BD7
:1047200013050440B165EF80105B856537150140C6
:10473000EF80705A130504408D45EF80D059130562
:1047400004409305000EEF80105913050440914575
:10475000EF807058130504408565EF80D057E1461F
:104760000146130504C0A965EF80F05991677C8666
:104770006C0093078004130504C03ECA2317010090
:104780002318010023190100EF503077130504C0EE
:104790008565EF805054914537150140EF80B05347
:1047A0001305044093050004EF80F0523706138090
:1047B0008D65E146410613050440938505A0EF8011
:1047C0009054130504C093058003EF80D050130567
:1047D0000440C145EF8030500569930509C0371585
:1047E0000140EF80504F138504809305C007EF8090
:1047F0009050130504C093050010EF80D04FC165A1
:104800001385048093850580EF80F04E8145014536
:10481000EF50703A1305044093050004EF80905266
:10482000130504C093050020EF80F04AB7093080DB
:10483000138629001385048091468945EF80B04C8A
:104840001386290013850480E1468545EF80B04B2F
:10485000E14601461305048093050040EF80B04A0D
:1048600013050480A165EF80104713050480A1653E
:10487000EF80504E85451165EF6000221145912E65
:10488000EFE0EF96B7B51D00654693859515094590
:10489000EF90500A930500020945EF908057BD65DF
:1048A0009D46130689BB938505A62145EF901015FB
:1048B0001306401F9D452145EF9050222145EF9062
:1048C000902A2145EF902053680002C602C802CA10
:1048D00002CC02CEEF80206585450145EF50F02ADD
:1048E0009305803E0145EF50102DEFF0BFCA9D4566
:1048F0000545EF70A077EF90305D05616FB05FC345
:10490000EFB27FC1B75700202386A7C81145EF90AB
:10491000804E13064006FD550945EFB0D03A6FB002
:10492000DFC1138541A38280EFB2FFBEB7570020DD
:1049300083A5070D37550020130600401305C5C990
:10494000EF50E17E1375F50F6FB03FBFEFB23FBA86
:1049500037140140130504409145EF80B03F130523
:10496000044093050008EF80F03E8565371501404F
:10497000EF80503E2945EFB0C04A856537150140AC
:10498000EF80503C2945EFB0C04913050440930522
:104990000008EF80303B856537150140EF80903B84
:1049A0002945EFB00048856537150140EF80903903
:1049B0002945EFB000479305000813050440EF8038
:1049C00070391305F003EFF0BFF30545EFB0604514
:1049D0009305000813050440EF80D0361305F0035B
:1049E000EFF01FF20545B7590020B7540020EFB093
:1049F0004043B75A00209389C909130404409384A3
:104A0000C4C8A14B7D5685450145EFB0D02B83A589
:104A10004903130600401385CAC9EF50A173138AD6
:104A2000CAC90149930500082285EF80B0321305F9
:104A30000004EFF0FFEC136B890B5A85EFF05FEC8D
:104A4000930500082285EF80F02F13050004EFF096
:104A50003FEB5A85EFF0DFEA93070008114523A2E8
:104A600044019CC423800400239604000509EF90B0
:104A7000803813064006FD5509451379F90FEFB04C
:104A80009024130A0A08E31F79F9ADBFEFB2BFA85B
:104A9000B71401402A8413850440EF80302B9355CE
:104AA00024409317E4008D89DD8D9167F1177D8D8A
:104AB000C98DC205C18113850440EF80F028B72459
:104AC000014013850480EF8070280E041375F5876C
:104AD00013740478498C93150401C18113850480F3
:104AE000EF8090266FB07FA5EFB2FFA283C781A3AE
:104AF00041113754002002C6938481A31304C4C813
:104B0000A5EB371901409305000213050940EF801A
:104B100070241C2085651305094085C7EF8090230C
:104B20000820EFF0BFF6231404003715014091452B
:104B300013050540EF80102185479CA041016FB00F
:104B4000DF9FEF8030205A249307F003930500087D
:104B50001305094063EBE700EF80D01E3A245C4068
:104B6000BA978823EFF09FF2C9B7EF80B01EFDB768
:104B700037150140914513050540EF80B01D5E24B7
:104B80001307F0078507C207C1836361F7045EA4BA
:104B90003E241A248507C207C1833EA463E5E702C9
:104BA0001145EF90E05103A541A37C0001478D46DC
:104BB00005468945EFB03045B24791C7B7E700E0F9
:104BC000116723A0E720238004008DBF2316040073
:104BD000C1B7EFB25F94B7560000B7B50A0081477E
:104BE0000547938686AE0546938505E6EF904058C7
:104BF000371501409305000213050540EF8090151D
:104C000037540020B7F50100814601461305C40959
:104C10009385C5AAEFB01FB0F9659385C5821305CA
:104C2000C409EFC0CF921305C409EFB07FAC6FB0D9
:104C3000DF90EFB25F8E0945EF509045EF3090085E
:104C4000EFC08025EFF0FFA8716513050520EFC0C8
:104C5000C02DEF30C074EFF0CF91EF303068EF30FF
:104C6000F064EF305045EFC0FFB283A5818237F585
:104C7000010013054514EF604129EFA0505701A032
:104C8000EFB27F891545EFF02F8A11C10945A38C3A
:104C9000A1A26FB09F8A03C591A38280EFB21F8645
:104CA00001112A890545EFF02F88B754002093079A
:104CB00030062A8A9384841463EE271F37F7010095
:104CC000931719001307C7463E97A69782239307A9
:104CD000B0038359070063E6270337F701009317F2
:104CE000290013078715BA979C43828719C8EF30AC
:104CF000106A8947631AF50085476317FA00EF4089
:104D0000603005616FB0DF82EF30706811E56315C8
:104D10000A00EFE00FFBF5B7239E0402DDB78D47D5
:104D2000138991A363FA870683470900A1CB9D6786
:104D3000138717406302E402938727406310F4044B
:104D400085450545EFE03FF7B707EFBE37E700E0E1
:104D5000938707083CC739A881450545EFE0BFF5B3
:104D6000B707EFBE9387070837E700E03CC78347E4
:104D7000090089E7834709009EA061B793075005A2
:104D80006315F400EFE03FDCF5B79307A00AE313E7
:104D9000F4FEEF30A05EF9BF23008900631FF4002A
:104DA000EFF00FE813054006EFB0A007B707EFBE1E
:104DB00037E700E0938707083CC78347090081EB8A
:104DC0001545EFE07FF685478145630DF500034704
:104DD00009008947E317F7F21545EFE0FFF4E31206
:104DE00005F285451545EFE01FED21BF03C791A3EF
:104DF0008947E318F7F01305F9FF06052695EFF04C
:104E00000FA8AA8513F5F90FEF50E00EDDBD22853E
:104E1000EFD0FFB9FDB5DE28E375F4EEA2854E852F
:104E2000D9B7BE28E3FF87EC9E2CFDB7DE28E3FA56
:104E300087ECFE28D5B79E2CE3F587ECC5B783C772
:104E400091A3E38007ECD9BFDD47E3EC87EAFE20BE
:104E50004808230AF1009E24A30AF100BE24230B74
:104E6000F100EF80903F71BD9307B003F9BF7D144F
:104E700042044180F947E3E687E8DE244808230E30
:104E8000F100FE243ECC9E28A30EF100EF80B0413D
:104E90008DBD7D1442044180AD47F1BF93072006CC
:104EA000D9BF83C791A3E38E07E4A2854E85EFE0C7
:104EB0007FC581BD1307C9F906079307B9F939E919
:104EC00093161900A6968E22B7F601009386C64B5C
:104ED0003697C2070223C1833147E364F7E237F70D
:104EE00001008A0713078724BA979C43828793F5AA
:104EF000F50F2285EFE05FC629B513F5F50FEF300A
:104F0000D04601B51305F9FF06052695EFF02F975A
:104F1000AA854DA82697860783590700B7F6010092
:104F2000130789F3131617009386463EBE94931712
:104F30000701B296C183130720048222E363F7DCE2
:104F400037F701008A071307C727BA979C43828760
:104F5000EF40F038E30705DAEF40103A0605938793
:104F6000418AAA978223268555B7EF405037E30A36
:104F700005D8EF40703806059387C189DDB72685CF
:104F8000EFF0EF8FAA84EF40516BB7F7010003A653
:104F9000075683A647562A89AE89EF30F16F6345DD
:104FA0000502B7F7010003A6875683A6C7564A85B0
:104FB000CE85EF3091636356A000B7F7010083A45C
:104FC000C754A68522856DA8B7F7010083A487542E
:104FD000CDBF2685EFF0AF8AD30705F0530700F069
:104FE0002AC4D397E7A0D30700F095E3EF40F1641C
:104FF000B7F7010003A6875683A6C756EF30F15EC8
:10500000A2676356A000B7F7010087A7C754D385EE
:1050100007E04DBF13058006EFE01FD18947630805
:10502000F5022685EFF0AF85B7F70100D30705F04D
:1050300007A7070FD317F7A081EBB7F7010007A762
:105040000755D397E7A0E1D7D307E720C9B726854F
:10505000EFF0EF82B7F70100D30705F007A7475538
:10506000D317F7A081EBB7F7010007A78755D397B0
:10507000E7A099C3D307E720D38507E01305C00B4A
:10508000EFE0BFFDBDB99305F9F193B51500268595
:105090002EC6EFE0DFFE2AC413058006EFE0DFC86E
:1050A000A267B24519C985476300F502B7F7010049
:1050B00007A74755D317F7A079B7538507E0EFE067
:1050C0005FFFD30705F0DDB7538507E0EFF02F87CB
:1050D000CDBF93F5F90F31BDCE852285EFE0BFBD81
:1050E0001305600BEFE05FC4AA8513B51900EF202C
:1050F000B03001B99967138797E86394E900854553
:105100001DA09387A7E8E39EF9BE894529A8996762
:10511000138787E9E385E9FE63693701938777E9B8
:105120008145E390F9BE22857DB9138797E9E38E27
:10513000E9FC9387A7E98D45E387F9FED9B6CE85CB
:10514000DDB7CE852285A5B3EFB2EFBC41111305C3
:10515000F100EF30D0259C8791E3014537540020C2
:10516000130484282314A40CEF30D0222315A40C9C
:1051700013056002EFE05FBB231FA40C1305000DB5
:10518000EFE0DFB5B75700202317A40C03D5C722E3
:1051900001ED2328040C232A040C232C040C231EC9
:1051A000040C41016FB06FB91375F50F7D15B7563B
:1051B00000204205138906139384C1A39386061326
:1051C0001386C1A39305F1004181EFF00F9183474E
:1051D00089002318F40C832749002319F40C834712
:1051E0009900231AF40C9C20231BF40C9C30231CE4
:1051F000F40CBC20231DF40C9C87231EF40C55B723
:10520000EFB2CFAF411101453EE6EFD0FFC6814579
:1052100037590020EFF02F8A130489289305840C56
:10522000EFE0BFE60545EFD03FC58545EFF0AF881D
:105230009305C40CEFE07FE5EF408076B7F70100FF
:1052400087A6870CD30705F09305040D53F7D710F5
:10525000531507C042054185537705D0D377D7183A
:10526000538507E0EFE07FE2EF404072D30705F09F
:10527000539517C0231AA40CEF40E06D231BA40C18
:10528000EF40A00A231CA40CEF40200A9147AA84F7
:10529000B26763EBA70437F70100931725001307E4
:1052A0008738BA979C4382871305E00AEFE07FDED8
:1052B0008145EFF04F80D30705F03DA01305A00A0C
:1052C000F5B71305600B3EE6EFE01FA685476301C7
:1052D000F50A93178501E187D9C389476304F50867
:1052E0008D476304F508B267538507E09305A40D65
:1052F000ED98EFE09FD913050000B9C8EF303003F7
:105300008145EFE05FFBAA8413058006EFE0DFA193
:1053100089476307F5062685EF4031322A89130550
:10532000800BAE89EFE0FFD6EF403131B7F70100D7
:1053300003A6075483A64754EF30E14F4A86CE8632
:10534000EF30F1404A86CE86EF20F15BEF40B13975
:105350009305E40DEFE07FD341016FB06F9D13051E
:10536000200BA9B7EF40502AA1B7EF30306EA1B79C
:105370001305C007EFE0FFD13DBFD30700F0ADB785
:105380001305C00BEFE0FFD0D30705F0538704F0FF
:10539000D3F7E700538507E065BFEFB22F9637F9E3
:1053A0000100375400208149938A41881309C94B71
:1053B00013048414138AC188214BB3873A018623CE
:1053C0009387C4F98607CA978A238604A294EFE0DC
:1053D000FF90B3073A018AA0862389099387C4F90D
:1053E0008607CA978A238604A294EFE0FF938AA0D7
:1053F000E39569FD93844189138A640083D904008D
:1054000089049387C9F98607CA978A23EFE07FC882
:1054100093951900A295EFE05FC7E3119AFE8354BC
:10542000440E1305000DEFE07F8B637895001305A4
:10543000000DEFE0BF8A2312A40E6FB06F8FEFB2A2
:10544000EF8BB7F4010093844452B7F9010037544D
:1054500000204111138AC4009389493E1304841427
:1054600003D904008904930789F38607CE978A231A
:10547000EFE03FC29305C9F98605A295EFE0FFC0B2
:10548000E39044FF1305000AEFE0BFC09305C40F8B
:10549000EFE0BFBF1305400AEFE0BFBF93058414E0
:1054A000EFE0BFBEEF40A06363040510EF40C064AF
:1054B000931415009387418AA6978A23EFE07FBD56
:1054C0002AC61385C18926950A21EFE09FBCD30720
:1054D00005F03267530507E09305E40D3EE6EFE083
:1054E000DFBAB267B7F401009305240E538507E0D5
:1054F00093848450138AA401EFE03FB9930A400ECD
:10550000094B03D90400631A590B13058006EFE019
:10551000BF816314650B1305C00BEFE09FB79305C4
:10552000C9F98605A2958904EFE03FB6E39B44FDE7
:10553000B7F4010093840453138AA40003D9040030
:105540008904930789F38607CE978A23EFE07FB417
:105550009375B9FF938505F293B51500EFE0BFD5BC
:105560009305C9F98605A295EFE03FB2E3189AFCCE
:1055700037F901001309093D130A49018354090051
:105580000909938784F38607CE978A239384C4F905
:105590008604EFE06FF9A2948AA0E3112AFF1305B5
:1055A000E006EFE0AFF32314A41041016FA05FF811
:1055B000D30700F05387F72031BF930789F386079D
:1055C000CE978A2399BFEFA21FF50545EFE0CFF5EF
:1055D0008547631BF5001305300DEFE0EFF4AA8556
:1055E0001305900DEFE04FEC6FA03FF5EFA21FF118
:1055F0009307300663E9A71083C791A337590020AA
:105600001304891401451EA0EF4090139305E40391
:10561000EFE0BFA70545EF40B01293052404EFE08B
:10562000DFA60945EF40D01193056404EFE0FFA524
:10563000938941A4138541A4EF808034375500201D
:105640009304C5131305C513EF8000370545EF70AC
:10565000603283C709002311A40E130500027EA047
:1056600083C719001EA483C72900930989143EA487
:105670009C245EA4DC407EA49C34930489147D4960
:105680001EA8EFE0AFE50ABC4D4422850504EFE01B
:10569000AFE942048AB041808904E31824FF37F45B
:1056A00001001304C44E37F90100130AA4011309C1
:1056B000C946062009048604B30799008A23CE94BC
:1056C000EFE08FE68AA0E3168AFE0545EFE0CFE51E
:1056D00011E9EFD0DFDF7D153335A000B75700208B
:1056E0002392A7180545EFE02FE48547631BF500DB
:1056F000EF30E049691513351500B75700202392A4
:10570000A7186FA0FFE20545EFE00FE201E5EFF01B
:10571000DFC865BF93874182982305C323800700B4
:10572000EFF07FEA1305300DEFE00FE0AA8537F5C3
:1057300001001305C54DEF50417DEFF05FD071B70B
:10574000EFA2FFDAAA8A05452E843289EFE0CFDD89
:1057500006059387418BAA97054503DA0700EFE01A
:10576000AFDC330789009307000263DFE70093177C
:1057700015001385C18A3E951E2105456369440BBA
:10578000D297850763C5E70A7D1413170401418387
:105790009307300663EFE708B7F7010087A7C70E46
:1057A00037FB0100B7540020538C07E08149130BED
:1057B000CB3993848428930B4003B3073B01884380
:1057C000EFD08FEB53070CF0D30705F0B38534010E
:1057D0009109D3F7E710539507C0D37705D0D3F7D6
:1057E000E718538507E0EFE05F8AE39879FDEF2043
:1057F000303ACAB8EF20F038EAB8EF30A036239636
:10580000A40C1305800DEFE02FD28ABCEF3050328C
:105810009385A403EFE07F871307CAF94207B756C1
:105820000020418393868628631F090001456FA0ED
:105830009FCF0545EFE04FCF01E5EFF0FF90E9BFC7
:10584000EFF01F9CD1BF814763434401BA87B30780
:10585000F4408607B69792237D19890A2182238F07
:10586000CAFE9E2342090504A38FFAFE13590901BB
:1058700065BFEFA2BFC841112A8905452E84B284B5
:1058800036C6EFE06FCA06059387418BAA97054598
:1058900083D90700EFE04FC9338784009307A00244
:1058A000B24663DFE700931715001385018B3E9521
:1058B0001E210545636F3407CE97850763CBE70646
:1058C0007D14A9CA85476395F606138AC9F9420A69
:1058D000B75A0020135A0A01938A8A14B1C8814723
:1058E00063433401D28703470900B307F4408607B6
:1058F000D69722079AA309098346F9FF13150401D5
:10590000FD14558F4181C2049AA30504EFF00FB92D
:10591000C180E9B7131504014181EFF03FCD138732
:10592000C9F94207B756002041839386861489E45B
:10593000014541016FA0DFBF814763433401BA874E
:10594000B307F4408607B6979223FD140909218214
:10595000230FC9FE9E23C2040504A30FF9FEC180D4
:10596000F9B7EFA2BFB99384F5FFC204C1803387B2
:10597000C400914763CDE70632892E84AA899DC66B
:10598000854701456395F6043384C5004204418090
:10599000138914004209135909016309890283C557
:1059A00009002685CA84EF607078DDB7375A002079
:1059B0004A9413058A144204EF60B0784180138939
:1059C00014004209135909016315890001456FA0AC
:1059D0003FB6A685054613058A14EFC0DFA5AA8643
:1059E000A68505464E85EFC09F9DCA84C9BF054563
:1059F000F9BFFD15C205C1813387C500954763CA4C
:105A0000E706EFA2DFAE375B00202A84935A360008
:105A100093DB350013058B14B28493F97500138959
:105A20001A00EF70A007228A130B8B14B38B8B40E4
:105A300033057A01420541812146CE855A957D196B
:105A4000050AEFC05F9F4209A30FAAFE135909017F
:105A5000E31009FEA1479D88B38497403315950054
:105A60001375F50F56943355954008A001456FA066
:105A70009FAB05458280EFA21FAA156485441304DD
:105A800004B02145EFE04FAA631395021D45EFE0F6
:105A9000AFA9AA850547A2860D460145EFC03F9DE7
:105AA0006DF1EFC03FAF71FDEFC0FFB0EDBF01453D
:105AB000EFC0FFA5F5B703C641A5375700208146C3
:105AC00013074738894593F7F60F63FDC7003688FB
:105AD0008506B308D70083C8F8FFE396B8FE42975F
