:100000006F90006713000000130000001300000051
:100010001300000013000000130000001300000094
:100020001300000013000000130000001300000084
:08003000130000007300100032
:1000380000000000000000004A3600004E360000B4
:1000480000000000B695000000000000000000005D
:10005800B8950000BA9500000000000000000000FC
:1000680086DD000000000000000200000000000023
:10007800C0950000C2950000C495000068CD00003E
:10008800C8950000CA950000CC950000CE950000E8
:10009800D0950000D2950000D495000092C60000CB
:1000A80060C70000DA9500002EC80000FCC80000F8
:1000B800E0950000E29500007EC20000E695000091
:1000C800E8950000EA950000EC950000D4360000A1
:1000D800F0950000F2950000F4950000F6950000F8
:1000E80034380000FA9500000CD30000FE9500009B
:1000F8000096000002960000049600000696000094
:1001080026D100000A96000008DA00000E960000CA
:100118001096000012960000149600001696000033
:10012800DAD300001A9600001C9600001E96000004
:100138002096000022960000A8D400002696000011
:10014800D6DA00002A9600002C9600002E960000B1
:100158003096000032960000349600003696000073
:1001680038960000A83700003C9600003E96000034
:100178004096000042960000449600004696000013
:10018800489600004A9600004C9600004E960000E3
:1001980050960000529600005496000056960000B3
:1001A800589600005A9600005C9600005E96000083
:1001B8006096000062960000649600006696000053
:1001C800689600006A9600006C9600006E96000023
:1001D8000000000000000000000000000000000017
:1001E8000000000000000000000000000000000007
:0801F8000000000000000000FF
:10020000130181F806C216C41AC61EC822CA26CC1B
:100210002ACE2ED032D236D43AD63ED842DA46DC76
:100220004ADECEC0D2C2D6C4DAC6DEC8E2CAE6CC46
:10023000EACEEED0F2D2F6D4FAD6FED8F3220030CF
:1002400096DA83A201BC23A02200F32510342EC02D
:100250009305000273A0458003A18194EFF0401044
:1002600003A301BC03210300824273901234D652CF
:10027000739002309240A2423243C2435244E2445D
:10028000724582551256A2563257C2575258E258FA
:1002900072598649164AA64A364BC64B564CE64C0E
:1002A000764D865D165EA65E365FC65F13018107DA
:1002B0007300203013000000130000001300000042
:1002C00013000000130000001300000013000000E2
:1002D00013000000130000001300000013000000D2
:1002E00013000000130000001300000013000000C2
:1002F00013000000130000001300000013000000B2
:1003000083A28194938202E07390023403A101BC22
:10031000024182403243C2435244E2447245825514
:100320001256A2563257C2575258E258725986494D
:10033000164AA64A364BC64B564CE64C764D865D61
:10034000165EA65E365FC65FD652A102739002307B
:10035000A2421301810782801300000013000000F5
:100360001300000013000000130000001300000041
:100370001300000013000000130000001300000031
:100380001300000013000000130000001300000021
:100390001300000013000000130000001300000011
:1003A0001300000013000000130000001300000001
:1003B00013000000130000001300000013000000F1
:1003C00013000000130000001300000013000000E1
:1003D00013000000130000001300000013000000D1
:1003E00013000000130000001300000013000000C1
:1003F00013000000130000001300000013000000B1
:10040000F322003093F272FF130380781203B3E2F9
:100410006200711523205500130585FA10C12115BE
:10042000232005009302000063870200711523203A
:100430000500FD12D5BF71150CC1828000000000BF
:1004400000000000000000000000000000000000AC
:10045000000000000000000000000000000000009C
:10046000000000000000000000000000000000008C
:10047000000000000000000000000000000000007C
:10048000000000000000000000000000000000006C
:10049000000000000000000000000000000000005C
:1004A000000000000000000000000000000000004C
:1004B000000000000000000000000000000000003C
:1004C000000000000000000000000000000000002C
:1004D000000000000000000000000000000000001C
:1004E000000000000000397101436EC619A0397187
:1004F00041536AC866CA62CC5ECE19A039710153F5
:100500005AD056D252D44ED64AD826DA22DC06DE4B
:1005100033016140828241114AC026C222C406C60C
:100520008282B24D4101024D924C224CB24B4101AC
:10053000024B924A224AB249410102499244224462
:10054000B240410182803D432A876373C30293779F
:10055000F700BDEFADE5937606FF3D8ABA960CC372
:100560004CC30CC74CC74107E36BD7FE11E2828036
:10057000B306C3408A069702000096966780A600DD
:100580002307B700A306B7002306B700A305B700EB
:100590002305B700A304B7002304B700A303B700E3
:1005A0002303B700A302B7002302B700A301B700DB
:1005B0002301B700A300B7002300B700828093F5A2
:1005C000F50F93968500D58D93960501D58D61B76E
:1005D000939627009702000096968682E78086FA17
:1005E0009680C1171D8F3E96E374C3F8A5B7EFF24E
:1005F0001FF0AE96939906013A8B1307160093D914
:10060000090142074183CE86AA842E84B28A034A16
:100610002509EF00D00901C90549933B1A006395EC
:1006200089002389440901B783470B00B377F90098
:100630008DC723894409014785465686A2852685AC
:10064000EF0040750504060942041379F90F418053
:10065000E31709FC050B0549D9B783C71409FDF356
:1006600023897409C9BFEFF27FE932971319070193
:10067000B689AE9613590901C2064A87C1822A8BF0
:10068000AE8A32843E8AEF00900201C993847900D9
:10069000C204C1808D806313890059BD2286050480
:1006A0005287CE86D6855A8542049137269A418054
:1006B000DDB7EFF2BFE4329793140701B689AE9627
:1006C000C180C2062687C1822A8A2E893284EF0021
:1006D000007E01EDB1BD228605040147CE86CA85A4
:1006E00052854204EF00006B4180E39684FEDDB743
:1006F000EFF27FE21C418145902B834785034859E7
:100700003306F6020E0681350DBDA1471CA11385E7
:1007100081CB8280EFF23FE03687AE84B286B71598
:100720000000371600004111130686229385C52F5D
:100730002A84EF00D05C1305F100C13F9087B71603
:100740000000AA852687938686ED2285EF00101388
:100750004101E5B3AA959C218831A2073E95420547
:100760004181828001458280EFF2FFDA9C21AE84D4
:100770002A841CA19C311CB1BC213CA1BC313CB1E0
:10078000DC215CA1DC315CB1FC217CA1FC317CB1C1
:100790009C251CA59C351CB5BC253CA5BC353CB591
:1007A000DC255CA5DC355CB5FC257CA5FC357CB581
:1007B0009C29C5451CA92685713F2AA8CD452685BB
:1007C000513F4AA8D545268571376AA8BDB3104167
:1007D0000348C5001C223307B8001377F70FB3D6C0
:1007E00007419D4763ECE70093F7F60F58A57D5549
:1007F0003315B5001345F5FF7D8D828093071600F4
:100800001CC11C32214633060641B397C700D58F61
:10081000611793F7F70F1377F70FC9BFEFF2BFCF49
:100820002CD183458507930405062A8423060506F3
:100830002685713F834594072305A4062685413FFD
:1008400083472409A305A4062307F40693B71700DA
:10085000A307F406DDB1EFF21FCC2E848D3F7D148B
:100860008547B39787001D8D62056185F9B185477E
:10087000638CF60091C68947638AF6000D8D11A03E
:1008800032954205418182802E95E5BF118DD5BFFD
:100890008547638CF60091C68947638AF6003295D6
:1008A00011A02E95420541818280118DE5BF0D8DED
:1008B000D5BFEFF25FC38344850603499506411116
:1008C0002A84AE89328B834BA40693FAF90F338ABC
:1008D0009B40137AFA0F63743A01937AFA0F034735
:1008E0000407939C8401131C89010355440693DC7F
:1008F0008C41135C8C41BA866286E6853AC6493FD4
:100900003247835D64066286BA862A8DE6856E85E7
:10091000B93F2A86324763080B028347E40623095E
:10092000F408D686EA852285B521CE9493F4F40F97
:1009300063E14903B3847441050993F9F40F137912
:10094000F90F814449B78347D406E5F38347F4069A
:10095000F9B723049406A30484074101D9B6EFF242
:100960001FB92A84130A0506553D8345A4075285FD
:100970008309B406CD358345B4072A8C5285E13D01
:100980008345C4072A8B5285F9358304A406AA8AB5
:10099000635D90084E9B834B0407330B6041035506
:1009A0004406620B135B8B41DE865A86E285CD35A9
:1009B0002312A4062A89035564065A86DE86E28538
:1009C0007D352313A40685472A86638CFB06638046
:1009D0000B0689476387FB088D47638BFB0A2A87D1
:1009E000CA86CA852285E12129C1231404068345CC
:1009F00064075285E93B834574072A895285C13BC8
:100A0000AA840146CA8522856D35A68522850546BC
:100A10004D3585455285653B6DF583079406E3C8E2
:100A200037FD8347E4062309F4085685EDBCCA94D4
:100A300093960401B304350113970401C1824183E5
:100A40004DB7B3073941AA940509931609011397C5
:100A500004018507C18241831399070113590901D4
:100A600049B70547B3049740B307990033073741A7
:100A70009304190093960401B305E500930415004F
:100A80001397040113960501C18241834182E9B79E
:100A9000B304954013061500B306390185041317F6
:100AA0000601C20613960401C1824183418215BF2B
:100AB0003C4D1307F00FDD076368B702130700060C
:100AC000637DB70003578508BA97983335C39423DD
:100AD000E39CB6FE13852700828013070004E376AB
:100AE000B7FE03576508CDB7EFF2FFA20354A50880
:100AF000AE843E94228981454A85A9392A94894544
:100B00004A8589391109E36895FE1C301820A2072F
:100B1000D98F13978700A183D98FC207C18399CB3F
:100B20006395F4001305340009BC3C203E94F1BFEA
:100B3000014582800145CDBFEFF2FF9D2A848D3FA4
:100B40000DC5AA852285D9398345A40793040406D7
:100B5000268511338345B4072308A4082685E53983
:100B60008345C4072685C539C9BA0145F5BFEFF2EB
:100B70001F9823050506AA84AE8AF12BC1671309C5
:100B800000FC014A0144138BF7FF9389E7FF930BA5
:100B900000FC83C50A00DC4026858297AA85630392
:100BA0006503850AE30735FF26857937131A0501A2
:100BB000135A0A0163147901038904095294420407
:100BC0004180C1BF8387A40691CF03870409BA97E8
:100BD0003E943304444142044180635520014A94C9
:100BE0004204418022856FF01F94A306B5068280DF
:100BF000EFF2DF908347050705472A842E89B284E8
:100C0000B689638FE7029DC709476383E7040D47F1
:100C10006384E704CE8523122407231394062285D8
:100C2000413DAA85014589C52285153B4205418183
:100C30006FF01F907C4D8297AA94C204C180D9BFE7
:100C40007C4D82973309A940420913590901D9B74C
:100C50007C4D8297898CD5B77C4D82972A99EDB7C8
:100C6000EFF2FF884169AA8C2E84B284B689130AF8
:100C7000F9FFD521014C7919854A094B8D4B83A782
:100C80004C0083C5090066858297AA8663034505E3
:100C90008509E30625FF2686A2856685913F83C7E1
:100CA0000C076380570391CB6381670363817703EC
:100CB0002A9C420C135C0C01D9B72A94420441804F
:100CC000C5BFAA94C204C180E5B7098CC5BF898C91
:100CD000D5BF62856FF03F85EFF2FF83B717000045
:100CE0009387C70B5CC1AD3F6FF03F853C4DA9CBEF
:100CF00003061508830625088347D5082307C5087A
:100D0000A307D50895CF0547639FE70083073508FC
:100D10006354F6002307F5088307450863D2D7021A
:100D2000A307F50882808307E50703070508BA973C
:100D30006354F6002307F5086354D700A307E508BA
:100D40008280B7070000938747767CCD8280384D3C
:100D5000630DB700EFF22FFC2A842CCC1305450756
:100D60002134228561376FF04FFD8280EFF2AFFAB8
:100D7000B71700009387C70B5CC1D53B6FF0EFFB43
:100D8000EFF26FF97E3D1D8E5C55420641828297DF
:100D90006FF0AFFA8347C508C1CBD9C6854763F961
:100DA000D70089476317F7068505958DC205C18170
:100DB000058B25EF8357C5046368F6068357E50462
:100DC0006374F606AE96C206C18283578504035843
:100DD000A50463F9B60463F605059306F8FFC20699
:100DE000C18263F3D704BE8863F3B700AE889395DE
:100DF0000801C181C28763F30601B687B386B74095
:100E0000C206C182EFF22FF11C599C4782976FF006
:100E1000CFF28D47E31EF7F80506158E4206418294
:100E200041BFBE85E3EF05FB828083578504E3ED78
:100E3000F5FE8357A504E3F9F5FEB296C206C1821A
:100E40008357C5040358E50463F9C60263760603B5
:100E50009306F8FFC206C182E3F8D7FCBE8863F3AD
:100E6000C700B288139608014182C28763F3060166
:100E7000B687B386C74069B73E86E36F06FD6DB798
:100E8000894763E5B7002309B508828085472309B0
:100E9000F50882806379B60085476364D500B3B7EF
:100EA000C6003E858280E36CD5FE8147DDBFEFF250
:100EB0008FE62A84AE848355E5040355C50436893C
:100EC000BA86C93F01C98355A40403558404CA8660
:100ED0002686C9376FF06FE60343250993787600BD
:100EE0008547339817011378F80F014E63E56700C3
:100EF000428E6309F30403230500619A5C5903439E
:100F000003013306660242064182B295BE950DCFBB
:100F100005479C218508FD16B367FE00B347F8001E
:100F2000C2069CA193F87800C18263900804323D08
:100F300083472509B2956365F700054E638EE70286
:100F400005481DA8014845BFAE96C206C1829C2136
:100F50008505B367FE00B347F800A38FF5FE9397AE
:100F60000501C183E395D7FE828093171E00060812
:100F700013FEF70F1378F80FC9FE828083458503AF
:100F80001441834895031397050141839317370054
:100F90005EBD9C2A13980801135808018E073EBDB8
:100FA000931738007EBD903AC6956356B600330756
:100FB0000641420741830E072310F504BA97231117
:100FC000F504DE2A2312F504FE2A2313F504828099
:100FD000EFF26FD465376FF04FD6EFF2CFD34D33CA
:100FE0006FF0AFD5EFF22FD3035765058356250574
:100FF00003564505835505052A84553D09E5230615
:1010000004086FF08FD385472306F4080357840440
:10101000835704056374F7002314F40483572405ED
:101020000357A40463F4E7002315F404835744052D
:101030000357C4046374F7002316F404835764054C
:101040000357E404E3FFE7FA2317F4045DBFEFF26C
:101050008FCC03574504231405042315E5043841B8
:1010600078C549376FF06FCDEFF2EFCA1C59417761
:1010700038C9DC4378C982976FF02FCCEFF2AFC943
:1010800093071010230CC502A30C0502A306050646
:10109000A3060508A30805082319F5081C4354D521
:1010A0004CD918D9232C05042A84829722856D3FB8
:1010B00022854139230804066FF02FC8D1C9A947FA
:1010C0006388F508034765022DE79307B00F63FABD
:1010D000B70095472303F50285890EB1C165F9155F
:1010E000B9A09307700F63F7B70091472303F50288
:1010F0008D89E5B79307F00E63F7B7008D4723039B
:10110000F5029D89D9BF9307F00D63F7B7008947B2
:101110002303F502BD89D1B79307F00B63F7B7003E
:1011200085472303F502FD894DBFC205C1812E8588
:1011300082801E3193F5F5037D179A07DD8DC20578
:101140001377F70FC1812303E5020EB16DD379B791
:10115000C165FD15E9BF230305028280EFF2AFBB35
:101160001C492E8681469305000282976FF0EFBCE2
:10117000EFF26FBA1C49B2862E86DD4582976FF07A
:10118000CFBBEFF24FB94111CC871306F100854573
:10119000C53741016FF06FBAEFF2EFB75C452E86AD
:1011A0008146D54582976FF04FB9EFF2CFB65C45D7
:1011B000B2862E86DD4582976FF02FB8EFF20FB41E
:1011C0004111AA842E845D49E549130AE00FD54AEE
:1011D0000C20638C25036367B90063F0550341015C
:1011E0006FF00FB563FBB902E39B45FF1030930529
:1011F00090022685D087E92439A01030DC4481464E
:10120000D087268582970904E1B71C301306F100C8
:1012100085452685DC87513FFDB7DC448146014684
:101220002685050482976DB79387C5FE93F7F70F60
:1012300015476362F704EFF20FAE79678A07130769
:1012400047F9BA979C4341113289AE842A84828738
:1012500081452937CA8522852D37054541016FF023
:10126000CFAD854536C6DD3DB2461C484A86A685CB
:1012700022858297E5B701458280EFF22FA82E8460
:10128000CC212A89B2898E0593F5F50393E50504EF
:10129000213783C569004A8593E5850BF53D7C20A0
:1012A000A1CF542058309387860093F7870F958FEE
:1012B00093F7F70F9375F70F63F4E70093F5F70FC4
:1012C000AE960D8F10408E0593F4F50FA68554A0B1
:1012D00058B04A85D93D0C405C30AE9404C091EBC7
:1012E00083A709001CC083C749005CB07C20FD17A0
:1012F0007CA05C209D8BC5F76FF08FA3EFF2AFA1B0
:10130000A94741112A84638CF50863EAB700A54711
:101310006381F5088144268541016FF00FA2AD4736
:101320006381F50CBD47E397F5FE9C423689D432C4
:101330003EC483574900508713978700A183D98FF4
:101340007C869D4763E1D7025C4581460546E145C1
:1013500082974A862C0022850D375C4481460146DF
:10136000E545228582971886BD478544E3E5E7FA7F
:101370005C4481460946E145228582974A862C00D5
:101380002285E53D5C4481460146E54522858297FC
:1013900059B7F9659385C5FA65208544ADBF7520B9
:1013A0005C4481460546E145228582979385C18646
:1013B000228529355C4481460146E5452285829790
:1013C0005C44E14581460946228582979385C18622
:1013D0002285ED335C4481460146E54522858297AE
:1013E0006DBF5C4581461DE60546E14582979385C4
:1013F00001872285E1335C4481460146E54522852B
:1014000082975C44E145814609462285829793850F
:1014100001877DBF0546E1458297938541872285F7
:10142000713B5C4481460146E545228582975C44D8
:10143000E14581460946228582979385418749BFC8
:101440000CC1BC292301F5028280EFF2CF8C5C49EC
:1014500081460146930580022A8482975C44814636
:101460000146D14522858297228505469305B00421
:1014700081281C40228593059002D023912022854B
:1014800001469305B0042D281C4022859305900247
:10149000D0233D20228505469305B00415201C402D
:1014A000930590022285D03321286FF00F89EFF247
:1014B0008F861C4581460146A54582976FF0EF87D0
:1014C000EFF26F855C49814682976FF00F87014587
:1014D0008280B71700009387E74C1CC55CC51CC908
:1014E0005CC9FD5723200500A30105022303050263
:1014F000232C05002302F5022304F5028280EFF27B
:101500008F8141112A842EC632C436C23AC0D137E7
:10151000B2452246924602470CC450C414C858C86B
:101520002285713741016FF04F811385019B8280C5
:1015300005458280EFE23FFE854741112A8663F52B
:10154000A7008D4763E4A70283A5019B37E5000050
:1015500074001305851B02C6EFE0705F01C9B24736
:1015600091C7B7E700E0116723A0E72005454101D7
:101570006FE0BFFCEFE23FFA2A8403A5019B7D5791
:10158000814605468D45EFC070198547630FF5000C
:1015900011C98947630BF5008D476308F5000545C0
:1015A0006FE0BFF923200400DDBF08C0CDBFEFE22C
:1015B0009FF683A5019C411137E5000074000546A4
:1015C0001305851B02C6EFE0905801C9B24791C7C9
:1015D000B7E700E0116723A0E72041016FE0FFF5C6
:1015E000EFE27FF303C7D19B9385D19B238EE19AD2
:1015F00003A5419BEFC0C03483A781A082976FE011
:10160000DFF31385019C82801385819B8280EFE24A
:101610009FF085476380F60489476381F60401479C
:1016200081461384419B014608C0EFC04023084017
:1016300037160000B7150000014789461306E65A21
:101640009385055EEFC0202A0840EFC0402805457D
:101650006FE0BFEE056793060060E1B7056793068C
:101660000040C1B7EFE23FEB2E8483A7419B15C535
:101670009385D19B3E85EFC0A02C37150140930583
:101680000020130505C0EFB0C04703A5019C8545A8
:101690000DC0EFC0F0256FE05FEA3E85EFC0002C83
:1016A0003715014093050020130505C0EFB06044D5
:1016B000E9BFEFC0501CC5B7EFE2FFE52A8437153C
:1016C000014093050020130505C0EFB0804203A53B
:1016D000419B9375F40FEFC0002505456FE0FFE5D2
:1016E00083C7C19B1CA105458280EFE2DFE203A511
:1016F000019C7D57814605468545EFC030028547F0
:10170000E317F5FE83A7C1A08297D5B7EFE2BFE04C
:1017100008218545EF00E13C7D572386E1806FE09D
:10172000DFE1EFE25FDF41118545054502C202C4FA
:1017300023160100EF80701C83A7818237470F00BA
:1017400013070724B3D7E7024C00370500402315E1
:1017500001007C8489679387F7703EC2EF80F03A7E
:101760000546854537050040EF80906C8545370577
:101770000040EF80706A854537050040EF80F073C8
:10178000B7E700E0056723A2E71041016FE0FFDA49
:10179000EFE2FFD541111385819C371A0020EF90AD
:1017A000200D0144BD3F938C4180130C8AA1938B83
:1017B0008180114B93140401C180138534014205CB
:1017C0004181EF206054B3878C0088A31385740196
:1017D00042054181EF204053B3078C0088A3138555
:1017E000B40142054181EF202052B3878B0088A3CA
:1017F0000504E31164FD9386819C13868180930523
:101800008AA113854180EF9050579567938707E22F
:101810003EC29167938787A93EC44800A5473EC64C
:10182000EFF0007E1933184123ACE19C41016FE0D9
:101830009FCFEFE2BFCC0111C88793F745002E84FC
:10184000B9C39379F50F1307C0033387E902B717BC
:101850000120938747C6BA97D44798473697D44B09
:101860009C4F3386F6006374C700B307D740938458
:10187000419D8E203ECE13076010AE976371F70630
:101880001305F1006135937784009DCB9384C1806B
:1018900098209307F00F6315F70288878545EF00BE
:1018A000410988870566130686B6B305C502B717D2
:1018B00000209387072DBE95EFF0B0309C879CA049
:1018C0009377040181C77D572386E1801374040454
:1018D00001C47D572386E18005616FE07FC53739FC
:1018E00000201309099A7008CA954E85EFF09032CE
:1018F0009E2072473E97420741839AA09947E3F49E
:10190000E7F88356490093978600A182D58FC207D6
:10191000C18393865700E3D8E6F69907E312F7F6FA
:101920000545EFF03FC103A5819D7D5785460546DE
:101930008545EFC0A05EB73500201386419C938596
:1019400085AA4E85EFF050629384819D01C51305F1
:10195000F1006D3B88408945EFC080792DB7EFE2FB
:101960009FBBEFF09078937715002A8499C737E5ED
:101970000100130545FCEF8011399377240099C7C6
:1019800037E50100130585FDEF80F13793774400BB
:1019900099CBEFF07079118919C537E5010013056E
:1019A00005FFEF805136418819CC0145EFF03075C5
:1019B000AA8519C10145B53D0545EFF05074AA85CA
:1019C00019C10545BD356FE05FB7EFE2DFB439718E
:1019D0001304601F11C12A841306C0038145480007
:1019E000EFE07FB68D4722D64C001384D18013855B
:1019F000D1803ED0EFF0207B814719E90820EFF03D
:101A00009078854711C508208945EF00810D8147F1
:101A10003E8521616FE07FB2EFE2FFAF1385D18099
:101A2000EFF0DFCE6FE07FB1B73700209387079AE2
:101A30001CC19387419D9A230545239007009AA1D5
:101A40008280EFE25FADB73700202E862E84AA8514
:101A5000138587AA938487AAEF70913D23A2819C66
:101A60001384819D0840854523A8919CEFC0406860
:101A700008407D57854605468945EFC0204A054503
:101A80006FE0BFABEFE23FA983A701A182976FE0B0
:101A9000DFAAEFE25FA8B726000095652A86954782
:101AA0000547938646A8938505E20D45EFB0103AA9
:101AB00005456FE09FA8EFE21FA60D45EFB070014E
:101AC0006FE0BFA7EFE23FA50D45EFB0302D6FE00F
:101AD000DFA6EFE25FA4D53D01E50D456FE0FFA570
:101AE0000145EDBF8280EFE21FA33D376FE0FFA409
:101AF000EFE27FA201112A84AE8468089305A10158
:101B000032C61D3715C9724715453C333423A20729
:101B1000D58F93968700A183D58FC207C18391EBA0
:101B2000BC8532461D0798C0E5171EA2FD571CA0B4
:101B3000014505616FE07FA01545E5BFEFE2BF9D60
:101B40009307160013D787401D06238FF5FE2E85B9
:101B5000A38EE5FE93150601C1816515DD35954718
:101B600011C181473E856FE05F9DAA95C2057966E8
:101B700079681307F00F9306F00FC1811306460032
:101B80001308481093170501C1836396F500139558
:101B90008600598D828005058347F5FFB98F33078D
:101BA000F6001823C297358F9423E9BFEFE2BF9662
:101BB00032842E852146A285EFF07FA585476310EC
:101BC000F5029567938707B01305300263E4870039
:101BD000130580027D3D054781476303E5008D477E
:101BE0003E856FE09F95EFE21F938145054523AE4B
:101BF000019CEFF03FA7C1356FE03F94EFE2BF914A
:101C000081450145EFF01FA6753D6FE01F93EFE2A0
:101C1000FF8E1384819E1E201307F00F4111637104
:101C2000F702B7E60100796637E50100938646259D
:101C3000130646209305B0091305C527EF707116EA
:101C40001E200D476366F700154541016FE05F8E6A
:101C50002E890E20AA8937350020930405BB130571
:101C600005BB32C619376DF19C20324685042380AE
:101C7000F9001E20F5171EA223209900F9B7EFE204
:101C80009F8983A4C19D85476399F4061384A19E0F
:101C900006A0AA87A38FF5FE1E201385F5FF3E96AA
:101CA0004206418212A00E2023A2A19E7D3D1A2051
:101CB0009376F50F21814207418393071700C207EE
:101CC000C1831EA0B7370020938707BB3E9714A39C
:101CD0001A201375F50F85454207418393061700B7
:101CE000C206C18216A0BA9788A3014523A0919E7F
:101CF000EFF05F9701456FE05F841545EDBFEFE2C0
:101D00009F8183A7019E411185C3B7E601007966D3
:101D100037E5010093864629130646219305400EB8
:101D20001305C527EF70F1071305F100EFF05F9B76
:101D30009387C19D98438546630FD70019C789468D
:101D40006302D7048D476314F700EFF0DFD6014537
:101D500041016FE08FFE9386819E239006009A22B8
:101D600013160701418213071600420741839AA206
:101D7000948737370020130707BB329714A309470E
:101D800098C3E1B71387819E16231306F00F636390
:101D9000D6021E2393960701C18293871600C207BD
:101DA000C1831EA39887B7370020938707BBB697D8
:101DB00098A361BF0D47E9B7EFE2EFF583A7C19D97
:101DC00005476381E702B7E60100796637E5010060
:101DD0009386463113068622930500121305C52704
:101DE000EF70217C9384019E984019C7630BF70024
:101DF000014422856FE06FF481450545EFF09F8631
:101E0000C5BF1384A19E1E20C207C18395C39384BE
:101E1000419E9C40882362056185EFF0FF899C40CC
:101E200085079CC01E20FD17C207C1831EA0C9B72D
:101E30000D45EFF02FF02A848145054523A00400CD
:101E4000EFF05F827DB7EFE20FED1387C19D144382
:101E5000094641111384C19D638FC6028D47638873
:101E6000F604014595CA1443B9C214436381C604FC
:101E7000184301456304F702B7E60100796637E5C8
:101E800001009386062B1306C623930580151305C0
:101E9000C527EF7001710545EFF0CFE985472AC6E8
:101EA0001CC0EFF03FC2324541016FE00FE9014530
:101EB000F5B7962115476398E60858213031930607
:101EC000E07C2207518F131687002183598E42062A
:101ED00041821307F6FF42074183AA870D4563E657
:101EE000E606EFE24FE3B823943323900500220780
:101EF000558F854694A396219354360093F4F40F9E
:101F0000850696A19376760081C6850493F4F40F36
:101F100084B396212E8413852700850696A19315F8
:101F2000870021834D8F93051700C2058146C1812B
:101F3000EF30803601C5092B6FE02FE01E200145F0
:101F4000BE9406A0D5BF0D45828082809A21954718
:101F50006311F70658218D4731EF38311306D00F42
:101F60009306F7FF93F6F60F6376D604EFE2AFDA47
:101F70003C210C314111A207CD8F93958700A1839D
:101F8000CD8F93851700130717F0C205133717007D
:101F900085460546C1816800A30601005886EF30DA
:101FA000A02F814719C14D21AA873E8541016FE0CD
:101FB000CFD88D473E85828096211547637FD7060F
:101FC00058213031AA872207518F131687002183A9
:101FD000598E420641821357360093767600137766
:101FE000F70F81C605071377F70F9306F6FFC206B2
:101FF000C1821308F07A0D456363D804D43363902B
:10200000E604EFE24FD1B8232E848C3322071385E8
:1020100067004D8F931687002183558F0507931511
:1020200007018546C181EF30202701C531296FE0C6
:10203000CFD095471EA00145DDBF0D45828082802F
:10204000962115476397E608582130319306E07CC6
:102050002207518F131687002183598E4206418231
:102060001307F6FF42074183AA870D4563E5E6069D
:10207000EFE26FCAB8239433239005002207558FEF
:10208000894694A396219354360093F4F40F850661
:1020900096A19376760081C6850493F4F40F84B3F9
:1020A00096212E8413852700850696A19315870017
:1020B00021834D8F93051700C205C181EF30C026E3
:1020C00001C559266FE06FC71E200145BE9406A0CA
:1020D000D5BF0D45828082809A219547631CF70207
:1020E000EFE26FC33C210C318546A207CD8F93955B
:1020F0008700A183CD8F93851700C2050546C18156
:102100000D05EF30600A814719C13D2EAA873E8533
:102110006FE0AFC28D473E858280EFE2CFBF9A214C
:10212000954463F7E406582130319306700722077F
:10213000518F131687002183518F13160701418297
:102140001307F6FF42074183AA870D4563EDE602B8
:10215000D433131716001377F70F6396E602B823EC
:102160002E848C332207138567004D8F93168700CA
:102170002183558F0507931507018546C181EF30EF
:10218000A00201C5D1246FE04FBB06A00145E5BF09
:102190000D45D5BF96211547639AE606EFE2AFB726
:1021A00054211306C007AA8793940601C1801387A0
:1021B000F4FF420741830D456362E6042E84B82391
:1021C0008C332310040088A31220860622070506FC
:1021D00012A04D8F94B393158700162021834D8F45
:1021E000930517008506C20516A026868146C18183
:1021F00013852700EF20507B01C5B9246FE0EFB3B2
:102200001E2086040145BE9406A0CDBF0D458280E8
:102210009A21A54763F2E70EEFE24FAE5C21383119
:102220002A84A207D98F93998700A183B3E7F90085
:102230009399070193D909019387F9FFC207C183D5
:102240001307C0070D456367F70A1C247030130796
:102250008007A207D18F13968700A183D18F139691
:10226000070141829307F6FFC207C1836364F70841
:10227000183493171600639FE70624202E890C302C
:10228000A2047C20CD8C4C30A2078546CD8F93953F
:102290008700A183CD8F93851700C205C1811305E7
:1022A000A400EF20707039E923100900DD471CA05D
:1022B00083570900139A190093958400850723100A
:1022C000F900A300440183570900A180CD8C9385B8
:1022D00014008507C2052310F90081464E86C1818E
:1022E00013052400EF20506C11E9835709003E9A32
:1022F000231049016FE0CFA301458280B122DDBFE9
:10230000962115476390E608582130319306B007AF
:102310002207518F131687002183518F131607014F
:1023200041821307F6FF42074183AA870D4563EDFB
:10233000E604EFE24F9E2E843E858C331147BC238A
:102340002310040018A11A20A207931416000507F1
:102350001AA004B1CD8F939587001A20A183CD8F49
:10236000938517000507C2051AA0C1810905EF2052
:10237000B05001C5D1286FE04F9C1E200145BE948E
:1023800006A0D5BF0D4582808280EFE2CF9803D4AE
:10239000C19EAE84B73500202286938505CB050506
:1023A000EF700129050482A001456FE00F99A14754
:1023B00063F3C702EFE22F96B7E60100796637E5CF
:1023C0000100938606341306063393058003130534
:1023D0000535EF70011D13D735009307170033083B
:1023E000E5003E958547B397C700FD17C2070E0766
:1023F0003387E540C183B397E700182103460800FF
:1024000093C7F7FF2207518F9D89F98FB396B600C6
:10241000DD8EC206C1862300D800C206C182A18219
:1024200014A1828093D735003E951C3108219D89E7
:10243000A207C98F05453315C500B3D7B7407D1531
:102440007D8D1375F50F82809D4763E7A700938705
:102450008187AA978823828011458280EFE2AF8B23
:102460009388F5FF93F8F80F9307600F63F6170151
:10247000094422856FE06F8C238AB1802E886DF924
:10248000B687B7260000B285938666BE23A0D1A08A
:10249000B72600009386C6BF23A2D1A0B7260000AE
:1024A0009386E6C723ACD19EB72600009386E6C08C
:1024B00023AAD19E23AE019EB72600009386E6CFC5
:1024C00023A4D1A0B7260000938686DB23A6D1A043
:1024D000B7260000938666E423A8D1A04285BA8679
:1024E0003E86EFF0AFEC2A8449F5EFF06F8409C522
:1024F000054723A8E180B5BF0D44A5BFEFE2AF813A
:102500002A8437E5010013050537EF70D17F228556
:10251000EFF02FDC2A8419C937E50100130545388F
:10252000EF70717E054723A8E18019A8EFF04F8076
:1025300019E937E5010013054539EF70D17C0D44E9
:1025400022856FD09FFFB7270000938747AE23A057
:10255000F1A0B7270000938767AE23A2F1A0B727A9
:102560000000938707AF23AAF19EB7270000938747
:10257000C7B323ACF19E23AE019E7D57238AE18031
:1025800055B7EFD25FF9138401811840854719458B
:102590006318F70083A701A0829701452320040058
:1025A0006FD0BFF9EFD23FF783A7018141111944E2
:1025B0006395070C6800EFE0FFFB0547AA876304FB
:1025C000E50001445DA832476303A7088946E31A82
:1025D000D7FE03A581A10C213707002023A8F19E77
:1025E00013060700238AB1A08147138481A11389B0
:1025F00041A19384019F130707004148142291CA07
:102600006391D5088E07BA97DC439385E1A1829741
:1026100088C083C7C1A1D5D794409387E1A185C263
:1026200003470900104085458EA3136707F818A2D9
:1026300092231840930516008EA3329714A3922379
:1026400003A7819F0C4003C5418102979DBF83A7CB
:10265000419F9384C1A11386E1A1938581A1138534
:10266000C1A182972A8431FD9C2003C74181630365
:10267000F700A1FB0945EFE0FFEB228541016FD098
:10268000DFEB85072106E39B07F761B79307400659
:102690003345F502A9474205418163E8A706F9677A
:1026A0009387473A0A053E951C418287238005009F
:1026B000930760041CA2828089479CA19307800233
:1026C000D5BF91479CA1E547F5B795479CA1D14758
:1026D000D5B79D479CA1BD47F1BFA1479CA1A94784
:1026E000D1BFAD479CA1A147F1B7B1479CA19D4780
:1026F000D1B7B9479CA1994775BFBD479CA19547E4
:1027000055BFC1479CA1914775B7D147E5BFEFD2EF
:102710009FE07971BD47AA842E84368593056100B8
:10272000130671005C83DC83EFF05FF69C83034E3D
:1027300061009308C05D93960701C182B388F84099
:1027400013982700139716008608B30EC041139301
:102750002600814701458145054FD14F634A170146
:1027600005476369F70A81471EA045616FD0FFDC0A
:1027700093161700A6960396060063DBCE046359F2
:10278000C605B30607418606A6968396060063C56E
:10279000C604B306E8008606A69683960600634D37
:1027A000D60211C19DCD814593861700101886076A
:1027B000B297135617001A974207050593F6F60FBE
:1027C000239CC7FC41831375F50F63EDDF00B687CB
:1027D00009074207418359B719C16384E50185455B
:1027E000E1B795463000054781472E220A220507AA
:1027F0001377F70F898DAE97C207C1830906E36689
:10280000D7FEFD16B3C7D702C207C1838607C2072A
:10281000C18399BFBE86F9B7EFD2FFCFB386C50299
:10282000AA88014701450148634FD7002E8681469B
:10283000C285EF409121EF609115EFD0104AEF6013
:1028400051386FD09FCF93171700C6978397070013
:1028500032974207B387F702418313DEF741AA9705
:1028600033B3A70072983E851A987DBF856793871A
:102870000777AA971A2136211105158F231EE5FE29
:10288000E39AA7FE828005668147014781461306C9
:1028900086BB139817002A9803180800939807011D
:1028A00093D8080163D406014687C2868907E3925C
:1028B000C7FE05839AA136858280EFD2DFC5094520
:1028C000EFA0D04D0145EF90B04903A5C1A31384FB
:1028D00001A50147938701A585461146814523201F
:1028E0000400EFD000401C4091C7B7E700E011673B
:1028F00023A0E7206FD07FC4EFD2FFC10545EF9042
:10290000F0161384B1A3931505010420C185054574
:10291000EF907026B7470020860493870744A69758
:102920008AA31C209946850793F7F70F1CA01387ED
:10293000818163F4F6040C23373501408546054652
:102940001305058023000400EF60B06403A5C1A354
:10295000138441A50147938741A5854609468145D2
:1029600023200400EFD0E0371C4091C7B7E700E018
:10297000116723A0E7206FD05FBCBA978C23373450
:1029800001401305048085460546EF60906085454B
:1029900013050480EF60705EF9BF9D4763E8A702EE
:1029A000EFD27FB7AA852A847D45EF10A0133705A3
:1029B00000201305050806042A941A20B7470020B2
:1029C0009387474BDAA39AAB6FD03FB782801385CA
:1029D000C1A38280138501A48280EFD23FB21D7112
:1029E000EF90A025AD450D45EF900030AD45114568
:1029F000EF90802F23A201A4B707040013840700DF
:102A0000814493890700294A3E20139904011359F0
:102A10000901D3F717D01E204A863EFAD3F717D004
:102A20007E200C183EF8D3F717D05E200D453EFEF1
:102A3000D3F717D0850411043EFCEF90C03D4A86C1
:102A40000C181145EF90203DE39044FDEF900022DB
:102A5000A9450145EF90002E9389C9022946CE85EC
:102A60000145EF908041A9450545EF90A02C2946EE
:102A7000CE850545EF906040A9450945EF90802B34
:102A8000CE8529460945EF90403F93070010B706D1
:102A900008007010894501452316F102EF90D0100F
:102AA00093070002BEC8B72701409387C744BECA38
:102AB000B7370020938707CDBECC8547BEC6856754
:102AC000938787BB231EF1048C00856713060002E1
:102AD0000A85BEC482C082C2EF609135B73600005D
:102AE0009386A68B014685450A85EF9010290145FE
:102AF000EF909037373700001307878F81460546E0
:102B0000B7050E000545EF90701483C581813735F8
:102B100001409D46054613050580EF609047054539
:102B2000EF60B05237450020930945571306003235
:102B3000814513054557EFD01FA1374400201304EA
:102B4000444B130900193755002023203401231268
:102B5000240193094589232404001306003281458A
:102B600013054589EFD03F9E8D475EAC938781A2C8
:102B70001CCCB7470020938707455CD0B74700209F
:102B8000938747461CD8B7470020938787475CDC6C
:102B9000B74700209387C7483CC4B74700209387B6
:102BA000074A7CC8B7470020938787533CD0B74774
:102BB00000209387C7547CD4B747002093870756DB
:102BC0002318240123263401232A0400231004029D
:102BD00006B42316040246B8231C040223109404EE
:102BE000231204042316940423180404231C9404BD
:102BF000231E0404231294062314040623189406A7
:102C0000231A0406231E9406231004083CDC2561C5
:102C10006FD01F92EFD23F907D45EF10E00EB704CA
:102C2000002093840408060526951E2137440020C1
:102C30001304444B7D455EA0EF10000D0605AA94D9
:102C40009E20130520021EA8EF1080082AA4130559
:102C50004002EF10E0076AA86FD03F8E1A251C4192
:102C60000607BA978EA31E255A218507C207C1837E
:102C70001EA563E4E70023140500828052211A2573
:102C800081469305F6FFC205C1818147631CD600CA
:102C90000315A5003305C502898F33C5C702420558
:102CA0004185828011E32E877D17420703280500A6
:102CB0004183931817004698031808008506C2063A
:102CC000C297C182E1B7EFD27F8341112A8A1305EF
:102CD000800DEF1060033744002085472A891304D4
:102CE000444B6307FA0A89476307FA0C1305440249
:102CF000EFF0DFF8420513064006938541A44181B9
:102D0000EF80D0702A844145EF100000AA89228507
:102D1000EF608141B7E7010003A6074A83A6474A4F
:102D2000EF50A17093870188D297802385476382F3
:102D3000F90A89476383F90EB7E7010003A6874ABA
:102D400083A6C74A1344F4FF33742401EF50E16DA6
:102D5000EF6021672AC6EF60015CB7E7010003A6B8
:102D6000074B83A6474B1374F40FEF50A160B26773
:102D700063540500D30700F0A2851305800D3EE6DD
:102D8000EF009070B2674101538507E06FD04FFAB2
:102D90004545EF007077AA8913050403EFF01FEE95
:102DA000938541A413064006890542054181EF80C1
:102DB000F0652A84A9BF4945EF001075AA8913055B
:102DC000C403EFF0BFEB938541A4130640069105C1
:102DD000E9BFB7E7010003A6874A83A6C74AEF50B9
:102DE000C164EF60015E2AC6EF60E152B7E70100FF
:102DF00003A6074B83A6474BEF50C157634B05040F
:102E0000B7E7010007A78749B267D397E7A0A9C72B
:102E1000336489001374F40F85B7B7E7010003A684
:102E2000874B83A6C74BEF504160EF6081592AC69C
:102E3000EF60614EB7E7010003A6074C83A6474C3D
:102E4000EF50415363470500B7E7010007A7C749A3
:102E500065BFD30700F06DBF1344F4FF3374240142
:102E600055BFB94763E6A714EFD2EFEA7967931627
:102E700025001307073D36971C432A848287374570
:102E8000002013054551EFF07FDF42054181EF60DF
:102E9000A122B7E7010003A6074A83A6474AEF50DD
:102EA000C158EF600152D30705F029A0938701A311
:102EB000B6979C63538507E06FD02FE83745002015
:102EC0001305C54CEFF09FDBD37705D0538507E0A2
:102ED000EF606144B7E7010003A6074A83A6474AAB
:102EE000EF50A154B7E7010003A6074983A647495D
:102EF0007DB70145EFF03FDD7DB70545E5BF0945ED
:102F0000D5BF994719456303F4001D45B147330503
:102F1000F502B74700209387474B3E95EFF01FD649
:102F200013170501994741830D456303F4001145CB
:102F3000896593850571B305B7028567FD17998F7C
:102F4000D3F707D053F705D0D377F718D38507E029
:102F5000EF80F052B7E70100D30705F007A78748D5
:102F6000D397E7A0A1DBD307E720A9B73745002017
:102F700013050552EFF09FD0B7E70100D37705D0D6
:102F800007A7C748D3F7E71035B70395A1A4D377B0
:102F900005D00DB7374500201305C552E1BF039595
:102FA000C1A4F5B787A701A231B787A741A219B776
:102FB000D30700F0538507E0828052211A2581460D
:102FC0009305F6FFC205C1818147631CD600031536
:102FD000A5003305C502898F33C5C7024205418567
:102FE00082800328050093181700469803180800EC
:102FF000C29711E32E877D1785064207C2064183DB
:10300000C182E1B7EFD22FCE41119307B05D7C832F
:1030100023120100EFB03075B7E7010083AB07481A
:1030200003AC4748B74A0020938A4A4B2AC6154446
:10303000014B01498144B73900205E8DE28D938CAC
:10304000CA06094A85456800EFC0C01E630609002C
:10305000630F49010549FDB7373501408545130523
:103060000580EF6080710945EFA0A0261DAA0547E5
:103070003400194681450145EFC0F01DA247898BF8
:10308000A1C73749002013090944138A8A0183150F
:1030900009005285310AEFF07FBC0909E3994CFF22
:1030A000A947B3F7F402054B6312F4027D141374BD
:1030B000F40F11E02544373501408545130505809F
:1030C000EF60A06B014B19A0E31C0BFCA247918B96
:1030D0006382070C056A138909CD130A0A774A9A95
:1030E0008315090001450909EF90E028231FA9FE77
:1030F000E31849FF138509CDEFF04FF79305210041
:10310000138509CDEFF02FF8AA86930561000946D3
:10311000138509CDEFF0AFDF2C839307A05D63EF3C
:10312000B7040946138509CDEFF00FEFD30705F07B
:10313000539517C01319050113590901D37719D0F5
:10314000538507E0EF60211D5E86E286EF50E12D9A
:10315000EF60212723A2A1A24C004A85EF8010280E
:10316000D37715D0538507E0EF60E11A6A86EE86C3
:10317000EF50A12BEF60E12423A0A1A285659385E8
:1031800085BB0145EF90C04F0145EF90E04D0945EB
:10319000EFA02014850493F4F40FA54763F3970080
:1031A0008144094979BD9C4221476369F708EFD200
:1031B000EFB479678A071307C740BA979C43B68470
:1031C0003289AE892A848287EF90F027098919C154
:1031D00001459DA02285EF90702A85479CC0CDBFF8
:1031E000EF90902505896DD59305A00D2285EF9070
:1031F000102B8947E5B7EF903024098971D92285D2
:10320000EF907024CE852285EF9090288D47F9B7F6
:10321000EF9090221375050845DDCA852285EF9051
:103220003027A14765BFEF903021137545084DD178
:103230002285EF90702305456FD08FAF01458280C6
:103240009C4229476364F70CEFD24FAB79678A073A
:1032500013070743BA979C43B6843289AE892A8400
:103260008287EF90501E098919C1014571A82285F6
:10327000EF90D02085479CC0CDBFEF90F01B058913
:103280006DD59305A00D2285EF9070218947E5B794
:10329000EF90901A098971D92285EF90D01ACE85C6
:1032A0002285EF90F01E9147F9B7EF90F018137553
:1032B000450845DD2285EF90701CA9476DBFEF9052
:1032C000B01705895DD19305A00D2285EF90501EA2
:1032D000994755B7EF905016098941D92285EF904B
:1032E00090169D4749BFEF9030151375050435DDE5
:1032F0002285EF90501D2285EF90F0122300A90047
:103300002285EF90701605456FD08FA2014582800F
:103310009C411D476367F718EFD24F9E79678A0774
:103320001307C745BA979C432A84411113451500DA
:10333000368AB2842E898287B28693050003294695
:10334000EFF07FE68547631BF5042320A90023A047
:103350000400A9A0B286930500031306F100EFF064
:103360003FEE8547631CF5029C87A18BEDF38947EF
:103370002320F900E9BFB75700209387C7BD131674
:1033800034003E96A6869945EFF09FEB854763177C
:10339000F50023A004008D472320F90041016FD0E0
:1033A0002F99B2860E043756002005041306C6BDB9
:1033B00022969D45EFF0DFE88547E311F5FE23A057
:1033C00004009147D1BF37570020931A3400930966
:1033D000C7BD13862A00A6864E96A145EFF05FE68C
:1033E0008547E31DF5FA338759011C2314332C2339
:1033F000C207A206D58FCD8F3707800093D5B700BF
:103400006379F700B70500FFAE97AD839395070189
:10341000C18131453304A402374500202310BA008E
:103420001305454BC205C1852295EFF03F839547B3
:1034300081B7B2860E04375600200D041306C6BDB0
:103440002296A545EFF0DFDF8547E319F5F49947AC
:1034500005B7B7590020131A34009389C9BD130664
:103460004A00A6864E96A945EFF09FDD8547E317F3
:10347000F5F233348000314525043304A402D29997
:1034800083C5390083C7490037450020A205BE9592
:10349000C2051305454BC1852295EFF02FFC9D47D2
:1034A000C1BD82800547A38CE1A2238D01A2828049
:1034B00003C5A1A3828003C791A349CF138691A31B
:1034C000138581A31821938681A32548B75700202F
:1034D000938547BB6362E80283D6A1A493171700C4
:1034E000AE9796A39307A7008607BE9583D7C1A47E
:1034F000050718A19EA18280EFD2EF81938747BB79
:10350000138547010147814503D807008907C29504
:1035100003D827014297E319F5FEA947B3C5F50281
:10352000374400201304444B1305200223000600F7
:10353000238006003347F7022EA4C205C1817AA872
:10354000492B6E281305400269230547238DE1A20C
:103550006FC0BFFE8280EFC27FFA37140140411175
:10356000A16513050480EF90C0591305803EEFB0AC
:103570001059A16513050480EF90A057B7440020AF
:103580001305803E9384444BEFB070571D44EFC049
:10359000B36802C402C6EFF0EFE7938AC400EFB04D
:1035A000901C2A8B02C002C2130920038247638445
:1035B0008700639A270192476384870063952701F8
:1035C0000545EFB0D053EFB0101A33056541420501
:1035D0004181E54763F3A704824763868700054579
:1035E000EF90806802C49247638687000145EF90A0
:1035F000A06702C62685EFF05F9CD37705D01389BC
:1036000001A356852720F900EFF03F9BD37705D023
:103610002722F900EFF03FEA59B7954763F8A70072
:10362000824791E34AC0924791E34AC29386A1A49C
:1036300030008A850145EFF0BFCD9386C1A47000AC
:103640004C000545EFF0DFCC95B77300203037E52F
:10365000010019711305854C82FE86FC8AFA8EF8EA
:1036600092F696F49AF29EF0A2EEA6ECAAEAAEE8E2
:10367000B2E6B6E4BAE2BEE042FE46FC4AFA4EF8D2
:1036800052F656F45AF25EF062EE66EC6AEA6EE8C2
:1036900072E676E47AE27EE0EF60F166EFC0D06237
:1036A000AA8537E501001305C54DEF60D153EFC082
:1036B0001062AA8537E501001305C54EEF60B152CF
:1036C000EFC05061AA8537E501001305C54FEF60D3
:1036D000915101A0317106DF16DD1ADB1ED92AD700
:1036E0002ED532D336D13ACF3ECD42CB46C972C762
:1036F00076C57AC37EC182FE86FC8AFA8EF892F67F
:1037000096F49AF29EF0A2EEA6ECAAEAAEE8B2E631
:10371000B6E4BAE2BEE042FE46FC4AFA4EF852F681
:1037200056F45AF25EF062EE66EC6AEA6EE872E611
:1037300076E47AE27EE0EF70A07313050008EF6094
:103740004061FA50EA525A53CA533A55AA551A568A
:103750008A567A47EA475A48CA483A4EAA4E1A4FFA
:103760008A4F7670E6705671C6713672A6721673FD
:1037700086737664E6645665C6653666A666166721
:1037800086677278E2785279C279327AA27A127BAD
:10379000827B726CE26C526DC26D326EA26E126FE1
:1037A000826F296173002030197182FE86FC8AFACB
:1037B0008EF892F696F49AF29EF0A2EEA6ECAAEAA1
:1037C000AEE8B2E6B6E4BAE2BEE042FE46FC4AFA31
:1037D0004EF852F656F45AF25EF062EE66EC6AEA81
:1037E0006EE872E676E47AE27EE0EF70104876707A
:1037F000E6705671C6713672A67216738673766459
:10380000E6645665C6653666A6661667866772788C
:10381000E2785279C279327AA27A127B827B726C18
:10382000E26C526DC26D326EA26E126F826F0961D0
:10383000730020301971294582FE86FC8AFA8EF8C1
:1038400092F696F49AF29EF0A2EEA6ECAAEAAEE800
:10385000B2E6B6E4BAE2BEE042FE46FC4AFA4EF8F0
:1038600052F656F45AF25EF062EE66EC6AEA6EE8E0
:1038700072E676E47AE27EE0EF70800185453705F6
:103880000040EF6090637670E6705671C6713672D4
:10389000A672167386737664E6645665C6653666E8
:1038A000A666166786677278E2785279C279327AAC
:1038B000A27A127B827B726CE26C526DC26D326EA8
:1038C000A26E126F826F096173002030EFC2BFC415
:1038D00003A5C1A5411170008145EFC0A05EB247AC
:1038E00091C7B7E700E0116723A0E72041016FC04F
:1038F000DFC4EFC25FC203A581A54111238001A6E9
:1039000081467000938501A6EFA05058B24791C739
:10391000B7E700E0116723A0E72041016FC0FFC1B6
:10392000138581A582801385C1A58280AA870A217B
:103930001307500D6364A704EFC2FFBD9847054607
:10394000AC23B433630BC70019C70946630EC70025
:1039500001456FC09FBE0D2EE5BF854799E1B33786
:10396000D000BE85BD22EDB713978501C206558FE5
:103970004D8FCC23A205D98DE92ED9BF0545828074
:10398000EFC27FB99305500519E193054004054541
:10399000EF9070797D5685450145EFC080006FC07E
:1039A000DFB9EFC2BFB57971854513050004EF603B
:1039B0000071F16505678946014693850520054537
:1039C000EF90F06937460000B7450000014789468F
:1039D0001306C68C9385258F0545EF90D07005455D
:1039E0007969EF90D06E01441309C9503C0803A5D2
:1039F00081A5B38A87002946D685EFA0B05B938462
:103A0000018205E185479CC001441C183E94034790
:103A100084FE93075005631FF70089479CC0054447
:103A2000F1B79C401147FD17E362F7FC8A07CA977C
:103A30009C4382870545EFF0BFF4014445BF03C7AF
:103A40000A00894763F8E7000545EFF07FF38547F3
:103A50009CC0E5B78D479CC0094449BF0504137459
:103A6000F40F9147E3F487F89CC049B70504137439
:103A7000F40FA147E3FC87F69547FDB705041374DF
:103A8000F40FB147E3F487F6EF5030738945280807
:103A9000EF505073EF5010758347A101E316F5FA0C
:103AA00083479101220531463ED68347B1014C1030
:103AB0005D8DBC862312A1020A852313F102BC8707
:103AC0002314F102EF50D1360A85EFF03FE62DFDC9
:103AD000ADBFB75700209387C7BE3E950CA1A1810B
:103AE0000CB18280EFC23FA39307300641112A84B4
:103AF0006306F500930750066316F5002EC6EF40E7
:103B0000006CB2452285EFF0DFFCB75500209385AD
:103B1000C5BE0947A9460946A2952285EF80E00265
:103B200041016FC09FA1EFC21F9F81451305000D8A
:103B3000EFF05FFB6FC07FA0EFC2FF9D9307800691
:103B40002A8493F4F50F630EF50C63E3A706C947C7
:103B500063E1A704C1476370F512A1476306F5103E
:103B6000B5476303F50E9947631CF5028D47014580
:103B700063EDB70A63880510B75500209385C5BE6D
:103B800084A50947A9460546A1052145EF70F07BAC
:103B900001A8FD47630DF50893077006630DF50452
:103BA000B75700209387C7BE3E9404A00545B5A82B
:103BB0009307600B630BF50463E2A7029307A0066B
:103BC0006301F5066368F5069307B006E31AF5FC92
:103BD000E14763E7B70AE9F58544D9B79307900D44
:103BE000630BF50663EDA7009307A5F2C207C18337
:103BF0000547E367F7FA8547E3E0B7FE55B7930754
:103C0000B00DE31FF5F8914725A08D470D4563EEF4
:103C1000B700B757002003C557C5A685EF30B014CD
:103C200041B789470945E3FDB7F66FC01F91994732
:103C30000145D5BF894763F3B7008944B7570020D2
:103C400083C527CA2685D9BF93074006E3FAB7F490
:103C500093044006B1B791470145E3E8B7FCB75775
:103C60000020A38F97CA2DBFB757002083C727BF57
:103C700001459DD75DBF89470145E3F397F275B7CD
:103C8000E14439BF814429BFB75700209387C7BE9D
:103C90003E950CA18280EFC21F882A84EFF0DFE9F5
:103CA00001CDB75500209385C5BE0947A9460546F5
:103CB000A2952285EF7070696FC03F88B7570020CA
:103CC0009387C7BEAA97983388232207598D82808D
:103CD000B75700209387C7BE3E951C310821A20725
:103CE0005D8D420541858280B75700209387C7BE0E
:103CF000AA979833A82322074205498F8823498F22
:103D0000A8336205598D8280B75700209387C7BEBC
:103D10003E9508218280B75700209387C7BE3E9505
:103D200093D785000CA11CB193D70501E1813CA17B
:103D30002CB18280B75700209387C7BE3E9593D79A
:103D400085000CA11CB193D70501E1813CA12CB1E8
:103D50008280EFC24FFC2A84EFF0DFFDB7550020D0
:103D60009385C5BE0947A9461146A2952285EF70E5
:103D7000D05D6FC08FFC3E211A21C20733E5E700FA
:103D800082808AA14181AAA18280B75700209387AF
:103D9000C7BEAA979833A82322074205498F8823D4
:103DA000498FA8336205598D8280EFC2CFF6411149
:103DB0002AC41305B00599C11305F005EFF0FFFC07
:103DC000530700F0A267D30605F0530507E0D3A719
:103DD000E7A0B9EFD3A7E6A0A1EFD317F7A05387C9
:103DE000F72099E35397F720530507E03EE636E4C2
:103DF000EF506152A2662A84AE84538506E0EF50EC
:103E000081512A86AE862285A685EF3091702A865A
:103E1000AE86EF408161530700F0B2672E87D3076B
:103E2000F7A081E7370700802D8FBA85EF506159E1
:103E300041016FC08FF0011122CC4ACA06CE4EC894
:103E40002A892E841305000A99C11305400AEFF050
:103E5000DFF3D30700F0D30609F0530705F05385CD
:103E600007E0D3A7F6A09DEF4A853AE6EF50A14AB6
:103E700032672A89AE89530507E0EF50C1492A8687
:103E8000AE864A85CE85EF40415AB7E7010003A6CA
:103E9000075283A64752EF404159EF508152A28505
:103EA000EFF0BFF0F24062445249C249056182809E
:103EB000EFC26FE62A841305B00599C11305F0051A
:103EC000EFF0BFEC530700F0D30704F0AA84D3A7A8
:103ED000E7A0D307E720A9E32285EF50C143D3072A
:103EE00004F0530700F0D317F7A081E7B70700806D
:103EF000BD8DEFC0805EEF50C14C538704F0D307F7
:103F000005F0D30604F0D3F7E710530700F0D3977A
:103F1000E6A099C3D397F720538507E06FC0EFE180
:103F2000EFC26FDF4111AE84EFF09FF82A841305D2
:103F3000000A99C01305400AEFF03FE5D30705F0EA
:103F4000530700F02AC6D3A7E7A0530507E09DEB6F
:103F50002285EF50413CB2672A84AE84538507E046
:103F6000EF50613B2A86AE862285A685EF30715AD6
:103F7000B7E7010003A6075283A64752EF307159F5
:103F8000EF50214441016FC04FDBEFC2CFD8B7578C
:103F9000002083C747C591C705476387E7006FC007
:103FA000CFD9EFF09FE0E5BFEFF0FFE8CDBFEFC264
:103FB0008FD6B757002083C747C591C7054763878A
:103FC000E7006FC08FD7EFF0BFEEE5BFEFF05FF512
:103FD000CDBFEFC2AFD22A8439711305000D2E89EF
:103FE000B289B684EFF09FCD636085082A8A1305F5
:103FF000200DEFF0BFCCB307454163DA07006363E0
:1040000045077D14330444412A94420441801D45F0
:104010003305A4020947D1461D466C001305550D12
:1040200042054181EF7000761886814795461376E8
:10403000170019E68507C207C1830583E399D7FEF8
:104040002300F9009C86B8809CA41C87DCC09C8758
:104050009CB4834721012390E9002381F900216169
:104060006FC00FCD2A8465B723000900CDBFEFC212
:104070008FCA0111AA841305200DEFF03FC42A84D2
:1040800068004482EF80905D4808EF80B0601D4575
:104090003305A4028347C1013886A946DC82E24782
:1040A00078841D465C838347D1011305550D420575
:1040B000DC831C8709474C0041815C85EF70F02848
:1040C00013051400420541819307100363F3A70011
:1040D0000145375400209307C4BE2389A70C13055C
:1040E000000DA389070CEFF07FBD93071003930524
:1040F000C4BE63E7A70005052388A50CA388050CAB
:104100000947A94611469385050D1305000DEF706B
:10411000D02305616FC06FC2EFC2EFBF37540020DC
:104120001304C4BE9305C40C0947A94611461305E0
:10413000C00CEF709021930564020947A94605461B
:1041400013056002EF707020930524020947A94609
:10415000094613052002EF70501F930544020947DA
:10416000A946094613054002EF70301E0947A946CB
:1041700005469305340D1305300DEF70101D6FC00B
:10418000CFBB914763E0A704EFC2EFB8F96793870D
:1041900087530A053E951C41828785659385058076
:1041A0003725014013050580EF8010141375F50FB6
:1041B0006FC0AFB88565EDB78965DDB79165CDB7DF
:1041C000A165F9BF01458280954763E5A704EFC269
:1041D0008FB4F9679387C7540A053E951C418287BF
:1041E000930500043725014013050580EF80D00FAB
:1041F0006FC0AFB493050002F5B7C145E5B7A1455F
:10420000D5B79145C5B73715014093050010130583
:1042100005C0E9BF01458280EFC2EFAF8547630C5F
:10422000F50209C989476305F5048D476307F5045D
:104230006FC0AFB089E937150140C145130505408E
:10424000EF80300BF5B737150140C1451305054028
:10425000EF80300BF1BF99E5A145371501401305FB
:1042600005C0F9BFA14537150140130505C0CDB7FD
:1042700099E1C145DDB7C145FDB781E59305000270
:10428000E9BF93050002C5B7EFC2EFA8EFC0A314C2
:10429000EF703063EFB0A006EF705068EF70F04C35
:1042A000C5BFEFC24FA7B75700202386A7CC114543
:1042B000EF90200213064006FD550945EFB0606EF1
:1042C0006FC0AFA7138541A78280EFC2CFA4B757B5
:1042D000002083A507113755002013060040130561
:1042E000C5CDEF5081321375F50F6FC00FA5EFC22A
:1042F0000FA037140140130504409145EF80700072
:104300001305044093050008EF80A07F85653715ED
:104310000140EF80007F2945EFA0707E856537154D
:104320000140EF80007D2945EFA0707D130504401A
:1043300093050008EF80E07B856537150140EF802D
:10434000407C2945EFA0B07B856537150140EF80A3
:10435000407A2945EFA0B07A930500081305044080
:10436000EF80207A1305F003EFF0BFF30545EFA0CF
:1043700010799305000813050440EF80807713053A
:10438000F003EFF01FF20545B7590020B7540020A5
:10439000EFA0F076B75A00209389C90D13040440AA
:1043A0009384C4CCA14B7D5685450145EFB0605F39
:1043B00083A54903130600401385CACDEF5041275A
:1043C000138ACACD0149930500082285EF806073E6
:1043D00013050004EFF0FFEC136B890B5A85EFF027
:1043E0005FEC930500082285EF80A07013050004A0
:1043F000EFF03FEB5A85EFF0DFEA93070008114535
:1044000023A244019CC423800400239604000509D0
:10441000EF80306C13064006FD5509451379F90FFE
:10442000EFB02058130A0A08E31F79F9ADBFEFC2B5
:104430008F8EB71401402A8413850440EF80E06B0F
:10444000935524409317E4008D89DD8D9167F11712
:104450007D8DC98DC205C18113850440EF80A0699F
:10446000B724014013850480EF8020690E04137582
:10447000F58713740478498C93150401C181138561
:104480000480EF8040676FC04F8BEFC2CF8883C737
:1044900081A741113754002002C6938481A71304D9
:1044A000C4CCA5EB37190140930500021305094060
:1044B000EF8020651C2085651305094085C7EF80C6
:1044C00040640820EFF0BFF62314040037150140C4
:1044D000914513050540EF80C06185479CA04101CF
:1044E0006FC0AF85EF80E0605A249307F003930517
:1044F00000081305094063EBE700EF80805F3A2472
:104500005C40BA978823EFF09FF2C9B7EF80605FF5
:10451000FDB737150140914513050540EF80605EFA
:104520005E241307F0078507C207C1836361F704A0
:104530005EA43E241A248507C207C1833EA463E516
:10454000E7021145EF90800503A541A77C000147D4
:104550008D4605468945EFB0C078B24791C7B7E7A9
:1045600000E0116723A0E720238004008DBF2316FD
:104570000400C1B7EFB23FFA0945EF509017EF3092
:104580001005EFB0305FEFB0337071651305052093
:10459000EFB07067EFC00352EFB0532EEFC0037A55
:1045A000EFC0C376EFC02357EFD08F9E83A58182E3
:1045B00037E5010013054556EF50F162EFA0F0100A
:1045C00001A0EFB25FF51545EFF00FF411C10945F9
:1045D000A38CA1A66FB07FF603C591A78280EFB22E
:1045E000FFF101112A890545EFF00FF2B7540020C1
:1045F000930730062A8A9384841863ED271F37F7C0
:104600000100931719001307C7883E97A6978223C6
:104610009307B0038359070063E52703796793176E
:10462000290013078757BA979C43828719C8EF3030
:10463000303C8947631AF50085476317FA00EF405D
:10464000800205616FB0DFEEEF30903A11E563153F
:104650000A00EFE03FE5F5B7239E0402DDB78D4782
:10466000138991A763FA870683470900A1CB9D6749
:10467000138717406302E402938727406310F40412
:1046800085450545EFF02FE1B707EFBE37E700E0BE
:10469000938707083CC739A881450545EFF0AFDF90
:1046A000B707EFBE9387070837E700E03CC78347AB
:1046B000090089E7834709009EA061B79307500569
:1046C0006315F400EFF02FC6F5B79307A00AE313C4
:1046D000F4FEEF30005EF9BF23008900631FF40091
:1046E000EFF09FA313054006EFA07041B707EFBEA0
:1046F00037E700E0938707083CC78347090081EB51
:104700001545EFF06FE085478145630DF5000347E0
:1047100009008947E317F7F21545EFF0EFDEE312E2
:1047200005F285451545EFF00FD721BF03C791A7C7
:104730008947E318F7F01305F9FF06052695EFF012
:104740008FE3AA8513F5F90FEF401061DDBD2285D7
:10475000EFE0AFA4FDB5DE28E375F4EEA2854E854B
:10476000D9B7BE28E3FF87EC9E2CFDB7DE28E3FA1D
:1047700087ECFE28D5B79E2CE3F587ECC5B783C739
:1047800091A7E38007ECD9BFDD47E3EC87EAFE2081
:104790004808230AF1009E24A30AF100BE24230B3B
:1047A000F100EF80407971BD9307B003F9BF7D142C
:1047B00042044180F947E3E687E8DE244808230EF7
:1047C000F100FE243ECC9E28A30EF100EF80607B1A
:1047D0008DBD7D1442044180AD47F1BF9307200693
:1047E000D9BF83C791A7E38E07E4A2854E85EFF07A
:1047F0006FAF81BD1307C9F906079307B9F931E90E
:1048000093161900A6968E22B7F601009386C68DE0
:104810003697C2070223C1833147E364F7E2796721
:104820008A0713078766BA979C43828793F5F50F2B
:104830002285EFF06FB031B513F5F50FEF30101999
:1048400009B51305F9FF06052695EFF0CFD2AA8525
:1048500045A82697860783590700B7F60100130776
:1048600089F31316170093864680BE9493170701A9
:10487000B296C183130720048222E364F7DC7967D0
:104880008A071307C769BA979C438287EF40500B8A
:10489000E30905DAEF40700C06059387418AAA9771
:1048A000822326855DB7EF40B009E30C05D8EF40C1
:1048B000D00A06059387C189DDB72685EFF0AFCB17
:1048C000AA84EF405125B7F7010003A6879883A675
:1048D000C7982A89AE89EF30F12963450502B7F7F9
:1048E000010003A6079983A647994A85CE85EF3034
:1048F000911D6356A000B7F7010083A40797A68512
:1049000022856DA8B7F7010083A4C796CDBF268581
:10491000EFF06FC6D30705F0530700F02AC4D39712
:10492000E7A0D30700F095E3EF40F11EB7F70100D1
:1049300003A6079983A64799EF30F118A26763563B
:10494000A000B7F7010087A70797D38507E04DBF01
:1049500013058006EFF04FBB89476308F5022685F3
:10496000EFF06FC1B7F70100D30705F007A747972E
:10497000D317F7A081EBB7F7010007A78797D39765
:10498000E7A0E1D7D307E720C9B72685EFF0AFBE90
:10499000B7F70100D30705F007A7C797D317F7A00C
:1049A00081EBB7F7010007A70798D397E7A099C352
:1049B000D307E720D38507E01305C00BEFF06FB9ED
:1049C00049B19305F9F193B5150026852EC6EFF090
:1049D0008FBA2AC413058006EFF00FB3A267B24561
:1049E00019C985476300F502B7F7010007A7C79704
:1049F000D317F7A079B7538507E0EFF00FBBD307C4
:104A000005F0DDB7538507E0EFF0EFC2CDBF93F5BA
:104A1000F90F39BDCE852285EFF0EFA71305600BA6
:104A2000EFF08FAEAA8513B51900EF20503011B901
:104A30009967138797E86394E90085451DA09387DC
:104A4000A7E8E390F9C0894529A89967138787E902
:104A5000E385E9FE63693701938777E98145E3924E
:104A6000F9BE2285C9B1138797E9E38EE9FC9387E4
:104A7000A7E98D45E387F9FEE9B6CE85DDB7CE859A
:104A80002285B5B3EFB23FA941111305F100EF3014
:104A900020789C8791E30145375400201304842C2F
:104AA0002314A40CEF3020752315A40C1305600209
:104AB000EFF08FA5231FA40C1305000DEFF00FA03E
:104AC000B75700202317A40C03D5C72601ED2328D0
:104AD000040C232A040C232C040C231E040C410177
:104AE0006FB0BFA51375F50F7D15B75600204205B1
:104AF000138906179384C1A7938606171386C1A747
:104B00009305F1004181EFF0CFCC83478900231852
:104B1000F40C832749002319F40C83479900231AC6
:104B2000F40C9C20231BF40C9C30231CF40CBC20A4
:104B3000231DF40C9C87231EF40C55B7EFB21F9C69
:104B4000411101453EE6EFE0CFB1814537590020E4
:104B5000EFF0EFC51304892C9305840CEFF06FA2DE
:104B60000545EFE00FB08545EFF06FC49305C40C29
:104B7000EFF02FA1EF40E048B7F7010087A6C795F7
:104B8000D30705F09305040D53F7D710531507C04D
:104B900042054185537705D0D377D718538507E071
:104BA000EFF02F9EEF40A044D30705F0539517C0B8
:104BB000231AA40CEF404040231BA40CEF30105DDF
:104BC000231CA40CEF30905C9147AA84B26763EA7F
:104BD000A7047967931725001307877ABA979C4330
:104BE00082871305E00AEFF04F9A8145EFF02FBC62
:104BF000D30705F03DA01305A00AF5B71305600B18
:104C00003EE6EFF06F9085476301F50A9317850143
:104C1000E187D9C389476304F5088D476304F50824
:104C2000B267538507E09305A40DED98EFF06F95FB
:104C300013050000B9C8EF30A0558145EFF02FB73C
:104C4000AA8413058006EFF02F8C89476307F506C9
:104C50002685EF40416C2A891305800BAE89EFF061
:104C6000CF92EF40416BB7F7010003A6079683A6EA
:104C70004796EF30010A4A86CE86EF30017B4A869E
:104C8000CE86EF201116EF40C1739305E40DEFF0CF
:104C90004F8F41016FB0DF891305200BA9B7EF409B
:104CA000C07CA1B7EF30B040A1B71305C007EFF04B
:104CB000CF8D3DBFD30700F0ADB71305C00BEFF0AC
:104CC000CF8CD30705F0538704F0D3F7E700538563
:104CD00007E065BFEFB29F8237F90100375400202B
:104CE0008149938A41881309C98D13048418138A52
:104CF000C188214BB3873A0186239387C4F986077D
:104D0000CA978A238604A294EFE05FFBB3073A01B7
:104D10008AA0862389099387C4F98607CA978A23BC
:104D20008604A294EFE05FFE8AA0E39569FD938478
:104D30004189138A640083D9040089049387C9F9DF
:104D40008607CA978A23EFF04F8493951900A2959E
:104D5000EFF02F83E3119AFE8354440E1305000DE8
:104D6000EFE0DFF5637895001305000DEFE01FF528
:104D70002312A40E6FB0CFFBEFB24FF8B7F40100CF
:104D800093844494B7F90100375400204111138AE9
:104D9000C400938949801304841803D9040089044A
:104DA000930789F38607CE978A23EFE01FFE9305CA
:104DB000C9F98605A295EFE0DFFCE39044FF1305F7
:104DC000000AEFE09FFC9305C40FEFE09FFB130583
:104DD000400AEFE09FFB93058414EFE09FFAEF4059
:104DE000203663030510EF40403793141500938776
:104DF000418AA6978A23EFE05FF92AC61385C18905
:104E000026950A21EFE07FF8D30705F032675305B6
:104E100007E09305E40D3EE6EFE0BFF6B267B7F4B6
:104E200001009305240E538507E093848492138A2E
:104E3000A401EFE01FF5930A400E094B03D90400CB
:104E40006319590B13058006EFE01FEC6313650B24
:104E50001305C00BEFE07FF39305C9F98605A29512
:104E60008904EFE01FF2E39B44FDB7F40100938453
:104E70000495138AA40003D904008904930789F3D5
:104E80008607CE978A23EFE05FF09375B9FF93858D
:104E900005F293B51500EFF08F919305C9F98605DA
:104EA000A295EFE01FEEE3189AFC79691309097FD8
:104EB000130A4901835409000909938784F386077B
:104EC000CE978A239384C4F98604EFE0FFE3A2948B
:104ED0008AA0E3112AFF1305E006EFE03FDE23146A
:104EE000A41041016FB0CFE4D30700F05387F7203F
:104EF00039BF930789F38607CE978A23A1BFEFB204
:104F00008FE10545EFE05FE08547631BF500130582
:104F1000300DEFE07FDFAA851305900DEFE0DFD6BF
:104F20006FB0AFE1EFB28FDD9307300663E9A710F2
:104F300083C791A7375900201304891801451EA083
:104F4000EF4020669305E403EFE0BFE30545EF4043
:104F5000406593052404EFE0DFE20945EF4060641B
:104F600093056404EFE0FFE1938941A8138541A80C
:104F7000EF70D06E375500209304C5171305C51781
:104F8000EF7050710545EF60107D83C70900231154
:104F9000A40E130500027EA083C719001EA483C7B8
:104FA0002900930989183EA49C245EA4DC407EA4B9
:104FB0009C34930489187D491EA8EFE03FD00ABCB9
:104FC0004D4422850504EFE03FD442048AB041807D
:104FD0008904E31824FF37F401001304C49037F95F
:104FE0000100130AA4011309C988062009048604D4
:104FF000B30799008A23CE94EFE01FD18AA0E3166D
:105000008AFE0545EFE05FD011E9EFE06FCA7D153C
:105010003335A000B75700202392A71C0545EFE0C9
:10502000BFCE8547631BF500EF30801C6915133533
:105030001500B75700202392A71C6FB06FCF05450E
:10504000EFE09FCC01E5EFF0FFC865BF9387418299
:10505000982305C323800700EFF07FEA1305300D86
:10506000EFE09FCAAA8537F501001305C58FEF5001
:105070008137EFF07FD071B7EFB26FC7AA8A0545CD
:105080002E843289EFE05FC806059387418BAA978B
:10509000054503DA0700EFE03FC7330789009307B0
:1050A000000263DFE700931715001385C18A3E9560
:1050B0001E2105456368440BD297850763C4E70A40
:1050C0007D141317040141839307300663EEE7084C
:1050D000B7F7010087A78796796BB7540020538CE8
:1050E00007E08149130BCB7B9384842C930B400303
:1050F000B3073B018843EFD0DFD653070CF0D3074B
:1051000005F0B38534019109D3F7E710539507C033
:10511000D37705D0D3F7E718538507E0EFE07FC6D4
:10512000E39879FDEF20303ACAB8EF20F038EAB8BA
:10513000EF3060092396A40C1305800DEFE0DFBC6F
:105140008ABCEF3010059385A403EFE09FC31307DB
:10515000CAF94207B756002041839386862C631F05
:10516000090001456FB02FBC0545EFE0FFB901E52F
:10517000EFF05F91E9BFEFF07F9CD1BF81476343C0
:105180004401BA87B307F4408607B69792237D1986
:10519000890A2182238FCAFE9E2342090504A38F18
:1051A000FAFE1359090165BFEFB24FB541112A89C3
:1051B00005452E84B28436C6EFE01FB506059387F9
:1051C000418BAA97054583D90700EFE0FFB33387EA
:1051D00084009307A002B24663DFE700931715002F
:1051E0001385018B3E951E210545636F3407CE97CD
:1051F000850763CBE7067D14A9CA85476395F60644
:10520000138AC9F9420AB75A0020135A0A01938A2D
:105210008A18B1C8814763433401D2870347090024
:10522000B307F4408607D69722079AA30909834655
:10523000F9FF13150401FD14558F4181C2049AA38F
:105240000504EFF0CFB9C180E9B71315040141811E
:10525000EFF05FCD1387C9F94207B75600204183AD
:105260009386861889E4014541016FB06FAC814790
:1052700063433401BA87B307F4408607B697922395
:10528000FD1409092182230FC9FE9E23C2040504CF
:10529000A30FF9FEC180F9B7EFB24FA69384F5FFD3
:1052A000C204C1803387C400914763CDE7063289C9
:1052B0002E84AA899DC6854701456395F6043384EB
:1052C000C5004204418013891400420913590901A1
:1052D0006309890283C509002685CA84EF603043CB
:1052E000DDB7375A00204A9413058A184204EF604C
:1052F0007043418013891400420913590901631551
:10530000890001456FB0CFA2A685054613058A180E
:10531000EFD04F91AA86A68505464E85EFD02F89FE
:10532000CA84C9BF0545F9BFFD15C205C1813387D0
:10533000C500954763CAE706EFB26F9B375B002055
:105340002A84935A360093DB350013058B18B284F8
:1053500093F9750013891A00EF60304F228A130BFE
:105360008B18B38B8B4033057A014205418121466E
:10537000CE855A957D19050AEFD0CF8A4209A30F31
:10538000AAFE13590901E31009FEA1479D88B384C1
:105390009740331595001375F50F56943355954086
:1053A00008A001456FB02F9805458280EFB2AF96F7
:1053B00015648544130404B02145EFE0FF946313A2
:1053C00095021D45EFE05F94AA850547A2860D462C
:1053D0000145EFD0AF886DF1EFD0AF9A71FDEFD0FE
:1053E0006F9CEDBF0145EFD06F91F5B703C641A9A2
:1053F0003757002081461307473C894593F7F60F3E
:1054000063FDC70036888506B308D70083C8F8FF58
:10541000E396B8FE4297854614A39306F6FFB75568
:105420000020014793F6F60F9385453C85486313AA
:10543000E60082800DE181EFB6873388F5000343F3
:1054400008006311130389472300F8008280FD17C9
:1054500093F7F70FDDB7850793F7F70FE3EFC7FC77
:105460008147E1BF05071377F70FD1B70A05938787
:10547000C18BAA9788438280EFB2EF89B7070400F7
:1054800037550020938747711307A0039306000840
:10549000014681451305C50DEFB0EF9C6FB0EF8954
:1054A000EFB26F87EF609041184123A6E1AA6FB079
:1054B000CF8883A501AB5148814713064006338747
:1054C000070393F6F70F2E9718236306A7008507A7
:1054D000E397C7FE854636858280375700209307BD
:1054E000473C23A2070023A007002394070083C69C
:1054F00091AA5146B386C60283A701AB0146014576
:105500001307473C8945854805432948B697D44346
:10551000814703AE4600631ABE0005051375F50FFB
:1055200019EE3306F7000CA2054683CE0600850768
:1055300013FEF70F639A6E00238AC1A98280330E8F
:10554000F70023001E01D5B7C106E39407FD828052
:10555000EFA2DFFA83C791AA51477D153387E7028F
:1055600083A701AB1375F50F138991AABA97114759
:105570006360A70637F70100130787990A053A9574
:1055800018410287A22B1DC8937704F0C207216738
:10559000C183930607106387D70663EDF602996609
:1055A000938606306382D7086385E7049377F40F08
:1055B00091C73E85EFF0FFEF2300A9006FA05FF7D2
:1055C000822BD1B7C227C1B7E22775BFA22765BF1B
:1055D000822755BF930607306389D7021307074018
:1055E000E396E7FC938761AA982369D37D1798A374
:1055F00075BFEFF09FEE09472384E1AA0547238694
:10560000E1A86DB7238301AA55B7938461AA83C922
:1056100004001305000D8509EFE04FEAE3D8A9F86F
:105620009C2085079CA059B7B707EFBE37E700E07D
:10563000938707083CC79DBFEFA2FFEDEF20F03432
:105640000547938701AB630CE5003707002013077C
:10565000876998C30545EF1010706FA01FEE3707DC
:1056600000201307074E1305900698C3EFE0CFE91B
:105670002A841305600BEFE02FE9AA852285EF103D
:10568000906E0145C9BFAA8879162E85994563E5B4
:10569000C50EEFA25FE8B7F501000A069385C59A2B
:1056A0002E9610420286639C0800EFE0EFE542056B
:1056B0004181239CA1A8A38901A86FA01FE8EFE066
:1056C000EFDFC5BF83D581A96397080093F5F50F78
:1056D000EFE06FDCDDB7EFE0EFC0C5B7138731A9AE
:1056E0001C23850793F7F70F63E4F6001CA3F1B7BB
:1056F00023000700D9B7938731A9982319E394A30E
:105700006DBF7D1798A355BF83C631A9938881A922
:1057100013952600B7F601009386C6DFAA9683D5B7
:1057200008009442138681A9AE966365D700239042
:10573000D80061B763130800BA871EA2BDBF83C635
:1057400031A9938881A913952600B7F601009386A5
:10575000C6DFAA9683D508009442138681A93385B3
:10576000F5406366D500958D2390B800B9B76313F3
:1057700008003E871AA291B78280EFA23FD85387D4
:1057800007F08D474111D30607F0014963E7D700C1
:105790001388818B369803490800F915994763E20D
:1057A000B702B7F701009387879C8A05BE959C4195
:1057B00036848287EFE06FDD23AEA1A80504A389BC
:1057C00081A841016FA0DFD683A5C1A9EFE06FD802
:1057D000CDBF03C731A93696938731A90507137743
:1057E000F70F6349E60098A39823E31C87FC0504A0
:1057F00080A3C1BF23800700C5BF83C731A93696E8
:10580000138731A999C31386F7FF1376F60F630444
:10581000C40010A37DB77D1400A365B783C431A96C
:1058200063F59600FD1493F4F40F37F401001304AC
:10583000C4E093972400A2979389C1A99C6307A70A
:105840000900D377F700D387D7A095C7530507E0A2
:10585000CA948A04EF30312CA2942AC488402EC600
:10586000EF30712B2246B246EF10B157EF30713551
:1058700023A0A900B9B727A0D900A1B783C431A933
:1058800063F59600FD1493F4F40F37F4010013044C
:10589000C4E0939724009389C1A9A29787A6090021
:1058A0009C63D3F7F6085307F7A005C7538506E0B6
:1058B000CA948A04EF303126A2942A8A8840AE8A9C
:1058C000EF3071252A86AE865285D685EF3061018C
:1058D00071BF27A0E900F5B5F915994763E6B71E32
:1058E000EFA2DFC1B7F701009387479E8A05BE95F7
:1058F0009C41AA8482870144138901AA9149338576
:10590000840042054181EFE02FC0B307890088A3DE
:105910000504E31634FFA38901A86FA07FC10144E9
:10592000138901AA9149B3078900338584008C2328
:10593000420541810504EFE00FB6E31634FFF1BFE5
:1059400003C731A9B946938731A905071377F70F24
:1059500063EFE60098A398238D461376B70F63058F
:10596000D600AD46E31BD7FA050798A37DB7238081
:105970000700D5B783C731A9138731A991CF938683
:10598000F7FF93F6F60F93F5B60F0D466388C50043
:105990002D466385C600B6871CA341B7F917EDBF36
:1059A00083C731A937F601000947938501AA130679
:1059B000C6DF636FF7008A07B297B8319C43BA9786
:1059C0001307F00F6364F700BCB181BFFD57EDBF53
:1059D00019476361F702F11793962700B296B82131
:1059E0009C42BA971307F00F6364F700BCA135B768
:1059F000FD57EDBF29476362F702E1178A07B297A7
:105A000098319C43BA971307F00F6364F7009CB179
:105A100029B77D57A380E1AA09B7138747FF8D47B0
:105A20003367F70294210A0732971C431307F00FDC
:105A3000B6976364F7009CA1CDB57D572380E1AA9A
:105A4000E9BD83C731A937F601000947938501AA4B
:105A50001306C6DF636EF7008A07B297B8319C431E
:105A60006365F7001D8FB8B14DBDA381050075B505
:105A700019476360F702F11793962700B296B82191
:105A80009C426365F7001D8FB8A141BD23810500CD
:105A900069B52947636CF700E1178A07B297983117
:105AA0009C43E368F7F61D8F98B185BD138747FFC8
:105AB0008D473367F70294210A0732971C43E3EEC0
:105AC000F6F69D8E94A191BD8280EFA2DFA42E8474
:105AD0001DE1138581ABEF706038938781ABB823EC
