:100000006F00F06D130000001300000013000000EB
:100010001300000013000000130000001300000094
:100020001300000013000000130000001300000084
:08003000130000007300100032
:1000380000000000000000008007000084070000A6
:1000480000000000240E0000000000000000000076
:10005800260E0000280E000000000000000000002E
:10006800B07C010000000000000200000000000059
:100078002E0E0000300E0000320E00002074010029
:10008800360E0000380E00003A0E00003C0E00004C
:100098003E0E0000400E0000420E00006670010097
:1000A80034710100480E000002720100D072010094
:1000B8004E0E0000500E00002C6F0100540E000080
:1000C800560E0000580E00005A0E00000A080000E4
:1000D8005E0E0000600E0000620E0000640E00005C
:1000E80012080000680E0000587601006C0E00002F
:1000F8006E0E0000700E0000720E0000740E0000FC
:1001080018750100780E0000527901007C0E00007D
:100118007E0E0000800E0000820E0000840E00009B
:1001280026770100880E00008A0E00008C0E000061
:100138008E0E0000900E0000F4770100940E00006F
:10014800207A0100980E00009A0E00009C0E000014
:100158009E0E0000A00E0000A20E0000A40E0000DB
:10016800A60E00000E080000AA0E0000AC0E00004B
:10017800AE0E0000B00E0000B20E0000B40E00007B
:10018800B60E0000B80E0000BA0E0000BC0E00004B
:10019800BE0E0000C00E0000C20E0000C40E00001B
:1001A800C60E0000C80E0000CA0E0000CC0E0000EB
:1001B800CE0E0000D00E0000D20E0000D40E0000BB
:1001C800D60E0000D80E0000DA0E0000DC0E00008B
:1001D8000000000000000000000000000000000017
:1001E8000000000000000000000000000000000007
:0801F8000000000000000000FF
:10020000130181F806C216C41AC61EC822CA26CC1B
:100210002ACE2ED032D236D43AD63ED842DA46DC76
:100220004ADECEC0D2C2D6C4DAC6DEC8E2CAE6CC46
:10023000EACEEED0F2D2F6D4FAD6FED8F3220030CF
:1002400096DA9702002083A2A20923A02200F325B8
:1002500010342EC09305000273A0458003A1C18411
:10026000EF80F163170300200323830703210300BA
:10027000824273901234D652739002309240A2425E
:100280003243C2435244E244724582551256A2564A
:100290003257C2575258E25872598649164AA64AEE
:1002A000364BC64B564CE64C764D865D165EA65ECA
:1002B000365FC65F13018107730020301300000012
:1002C00013000000130000001300000013000000E2
:1002D00013000000130000001300000013000000D2
:1002E00013000000130000001300000013000000C2
:1002F00013000000130000001300000013000000B2
:1003000083A2C184938202E073900234170100201B
:10031000032101FD024182403243C2435244E24480
:10032000724582551256A2563257C2575258E25859
:1003300072598649164AA64A364BC64B564CE64C6D
:10034000764D865D165EA65E365FC65FD652A1020A
:1003500073900230A24213018107828013000000D3
:100360001300000013000000130000001300000041
:100370001300000013000000130000001300000031
:100380001300000013000000130000001300000021
:100390001300000013000000130000001300000011
:1003A0001300000013000000130000001300000001
:1003B00013000000130000001300000013000000F1
:1003C00013000000130000001300000013000000E1
:1003D00013000000130000001300000013000000D1
:1003E00013000000130000001300000013000000C1
:1003F00013000000130000001300000013000000B1
:10040000F322003093F272FF130380781203B3E2F9
:100410006200711523205500130585FA10C12115BE
:10042000232005009302000063870200711523203A
:100430000500FD12D5BF71150CC1828000000000BF
:1004400000000000000000000000000000000000AC
:10045000000000000000000000000000000000009C
:10046000000000000000000000000000000000008C
:10047000000000000000000000000000000000007C
:10048000000000000000000000000000000000006C
:10049000000000000000000000000000000000005C
:1004A000000000000000000000000000000000004C
:1004B000000000000000000000000000000000003C
:1004C000000000000000000000000000000000002C
:1004D000000000000000000000000000000000001C
:1004E000000000000000397101436EC619A0397187
:1004F00041536AC866CA62CC5ECE19A039710153F5
:100500005AD056D252D44ED64AD826DA22DC06DE4B
:1005100033016140828241114AC026C222C406C60C
:100520008282B24D4101024D924C224CB24B4101AC
:10053000024B924A224AB249410102499244224462
:10054000B240410182803D432A876373C30293779F
:10055000F700BDEFADE5937606FF3D8ABA960CC372
:100560004CC30CC74CC74107E36BD7FE11E2828036
:10057000B306C3408A069702000096966780A600DD
:100580002307B700A306B7002306B700A305B700EB
:100590002305B700A304B7002304B700A303B700E3
:1005A0002303B700A302B7002302B700A301B700DB
:1005B0002301B700A300B7002300B700828093F5A2
:1005C000F50F93968500D58D93960501D58D61B76E
:1005D000939627009702000096968682E78086FA17
:1005E0009680C1171D8F3E96E374C3F8A5B72320EC
:1005F000150040C104C52326250123283501232ADF
:100600004501232C5501232E650123207503232248
:100610008503232495032326A5032328B503232A32
:1006200025020145828083200500404104450329BD
:10063000C50083290501032A4501832A8501032B6F
:10064000C501832B0502032C4502832C8502032D53
:10065000C502832D05030321450313B515002E950F
:1006600082803367B500FD530D8B79E7B7877F7FB5
:100670009387F7F710419441B372F6003363F600A5
:10068000BE92B3E262006397720C6318D6065041C3
:10069000D441B372F6003363F600BE92B3E2620057
:1006A0006398720A631BD60410459445B372F60032
:1006B0003363F600BE92B3E262006391720A631E76
:1006C000D6025045D445B372F6003363F600BE92AD
:1006D000B3E26200639A72086311D602104994492A
:1006E000B372F6003363F600BE92B3E26200639326
:1006F00072085105D105E30FD6F61317060193973B
:100700000601631CF7001357060193D70601330552
:10071000F7409375F50F91E982804183C1833305DA
:10072000F7409375F50F91E182801377F70F93F7F8
:10073000F70F3305F74082800346050083C60500A6
:10074000050585056313D60065FA3305D64082801A
:1007500011059105E312D6FE014582802105A10510
:10076000E31CD6FC014582803105B105E316D6FCB9
:10077000014582804105C105E310D6FC0145828018
:10078000730020303765020019711305457382FE2E
:1007900086FC8AFA8EF892F696F49AF29EF0A2EE11
:1007A000A6ECAAEAAEE8B2E6B6E4BAE2BEE042FEE1
:1007B00046FC4AFA4EF852F656F45AF25EF062EEF1
:1007C00066EC6AEA6EE872E676E47AE27EE0EF10C2
:1007D0001251EF900137AA85376502001305857421
:1007E000EF103235EF904136AA85376502001305C8
:1007F0008575EF101234EF908135AA8537650200B8
:1008000013058576EF10F23201A0730020307300DB
:10081000203073002030EFF21FD00945EF00B00DFB
:100820002D22EF904123716513050520EF9041259E
:10083000B124A1243124B707002083A50720376500
:10084000020013058577EF10D22EEF80014501A03D
:10085000B71702409843B706FFF841111367170016
:1008600098C3D84337060200758FD8C39843B7069C
:10087000F7FEFD16758F98C39843B706FCFFFD166B
:10088000758F98C3D843B70681FFFD16758FD8C3FF
:100890009843B70600ECFD16758F98C33707FF0025
:1008A00098C723A6070202C402C69843C166558FA3
:1008B00098C3B716024009679C42F18F3EC6A24713
:1008C00085073EC4B24781E7A247E397E7FEB71723
:1008D00002409C431397E7006357070685473EC6CF
:1008E00032478547631FF704B7170240D843B7065E
:1008F000C1FFFD16D8C3D843D8C3D84313670740F8
:10090000D8C3D843758FD8C3D843B7061D00558FB9
:10091000D8C39843B7060001558F98C398439316E0
:100920006700E3DD06FED843B7160240719BD8C3CB
:10093000D84313672700D8C32147DC42B18BE39E1D
:10094000E7FE4101828002C661BF371602405C4269
:10095000370700209146B18B130707206385D70026
:10096000A1466388D702B7177A00938707201CC374
:10097000B7170240DC43918393F6F700B7070020D6
:1009800093870700B69794231C43B3D7D7001CC3A3
:10099000828054425042C167C982BD8A7D8E93874E
:1009A000260085CABD466389D702C1466389D7023E
:1009B000C54581466393B700C1470DE637460240FF
:1009C00003260680418A15C637167A0013060620CC
:1009D0002DA08146C947D5B78546B547F9BF8146A1
:1009E000BD47E1BF3716024050429315E600E3DDF4
:1009F00005FC37163D0013060690B387C7021CC3DB
:100A0000A5DA1C438583A5B7B7470020938787A73E
:100A10001CC1B7370020938787279CC1930700101C
:100A20001CC28280B7470020938787AD1CC1B737AF
:100A30000020938787679CC1930700101CC28280A7
:100A4000EFF27FADB9202A8437380020B7070020A5
:100A50000566B765020037150000130888219387E3
:100A6000873321478546130686BB93854579130551
:100A7000A5D1EF80211808C0C9B482808280EFF22E
:100A80009FA9376502001305C579EF10522501456E
:100A90006DB437050020130545288280EFF2BFA70B
:100AA000B715000001469385E5A72A84EF10402A78
:100AB000B7750200938505862285EF10E055B5BC19
:100AC000EFF27FA537470020B7460020130787C005
:100AD000938686B30146854513054006EF70311FA6
:100AE000B707002037470020B746002023A4A728D7
:100AF000130787C2938606BA01468545130540064B
:100B0000EF70F11CB707002023A6A7283DB4EFF231
:100B10009FA0370400201304C428AA840840411170
:100B20002EC6EF70915585473246631DF5007D1640
:100B300081461376F60F938514000840EF70912DCF
:100B40004101E5BA8146A685CDBFEFF2DF9C411198
:100B5000C88785451305F1005D3F4101F9BAEFF201
:100B60009F9B1C210947850793F7F70F1CA1637909
:100B7000F7006145D93F6145C93F1305F00F75BACC
:100B80005545E1370145E5BFEFF2FF98B707002073
:100B90002E842E86AA8503A587289306803EEF70B3
:100BA000D13D6314A400014549BA1305F00FEDBF10
:100BB000EFF2DF948547130101BF630DF50289470A
:100BC000630EF50281441304F00F894528006D3F40
:100BD0002A89A68508084D3F3369A9008945680020
:100BE00065373365A90011CD1364440022851301D4
:100BF00001413DBA930400080144C1BF9304004081
:100C0000E5BF6DF4370700201307072914231C865E
:100C1000908699E2854614A303C741801484138902
:100C200041806303D70009449884A207D18F369787
:100C30009306F00F631CD70281C7136414007DB7BD
:100C400055F4B70900209389492983A50900268610
:100C50000808EF6041788347090085072300F90001
:100C600083A70900BE9423A0990049B70944F1F76E
:100C7000B5BFEFF2BF884111A1358546B707002007
:100C80002382D18037070020B7060308230701001D
:100C900023880728232AD728938907299144614A62
:100CA000A14A0D4B85451305F100A3070100E93D5D
:100CB00083C709002A8985E7130530047935014483
:100CC0008887630F950263E6A4029307F5FF93F705
:100CD000F70F05476374F7026316090215A801446C
:100CE00065D10547E39EE7FC1305E1008D3D2A84AD
:100CF000C1BFE31345FF41016FF09F83553D09E5F7
:100D00001945A13545D0C5BF6314550123076101BD
:100D10001305E100A9352A84F5B7EFF24FFDB704BA
:100D2000002023A004284111014401499384042890
:100D30008549377A0200B77A0200377B0200B76B29
:100D40000200376C0200B76C02000D4D1D37130511
:100D50004006EF80612E9C406388370789CBE3779C
:100D6000FDFE4A85EFE0E00F23A00400F9BFEF206D
:100D700090382A8901ED13854C7AEF1042761305DD
:100D8000CB83EF10C2758D479CC0C1B713858B7B99
:100D9000EF10E2744A85EFD0B0782A84EF90E02417
:100DA0002285ED3993058C7C2285EF20401E61F968
:100DB0008147014781467D5681452285EF10404B92
:100DC0005DFD23A0340151B793050A852285EF10FC
:100DD000000385452285EF00F0680546CA8574004A
:100DE0002285EF70203F0146FD5563E0A902228570
:100DF000EF00B04FF9552285EF005052B2452285E1
:100E000093C5F5FFEF00D01C89B72285EF00F052A3
:100E1000AA8513858A85EF10C2518D479CC0F9BF02
:100E200001A001A001A001A001A001A001A001A0BA
:100E300001A001A001A001A001A001A001A001A0AA
:100E400001A001A001A001A001A001A001A001A09A
:100E500001A001A001A001A001A001A001A001A08A
:100E600001A001A001A001A001A001A001A001A07A
:100E700001A001A001A001A001A001A001A001A06A
:100E800001A001A001A001A001A001A001A001A05A
:100E900001A001A001A001A001A001A001A001A04A
:100EA00001A001A001A001A001A001A001A001A03A
:100EB00001A001A001A001A001A001A001A001A02A
:100EC00001A001A001A001A001A001A001A001A01A
:100ED00001A001A001A001A001A001A001A0970113
:100EE0000020938121B217F101201301A11117A550
:100EF00002001305E50C97F5FF1F9385A5101386D7
:100F0000018863FAC5008322050023A0550011055E
:100F10009105E3EAC5FE17F5FF1F1305A536977582
:100F20000120938525946377B500232005001105E2
:100F3000E36DB5FEFD42739002BCFD4273904280AA
:100F4000B78200009382028073A0023097F2FFFF05
:100F50009382C20E93E2320073905230EFF05F8FB3
:100F6000970200009382628B7390123473002030DA
:100F70005841144193D78500F58F99C713F5F50FA4
:100F8000798D3335A000828001458280931735002A
:100F900063DA0700B707024083A707407D8D33352A
:100FA000A00082809317250063D70700B70702408F
:100FB00083A7074DE5B7B70702409C43C5B7931712
:100FC000350063D70700B707024023A2A7408280FD
:100FD0009317250063D70700B707024023AAA74C41
:100FE0008280B7070240C8C38280EFF2CFD2793F38
:100FF0006FF0AFD4EFF22FD2D9376FF00FD437277D
:1010000002405C470545858B91E748474189133588
:1010100015000D058280EFF20FD02A848544C53774
:101020006318950019E0154529A0D13F7D14CDBF67
:101030007DD86FF08FD09C4513F7070113F8F700A8
:1010400001C7D8413368E8008E2113F7F50F39C383
:1010500018418146854E3D4F930F800293028004D4
:10106000214E3396DE00B3F8C50063111603939842
:10107000260033131F011343F3FF3377E300B31844
:10108000180133E7E800639FF70550C98506E39A26
:10109000C6FD18C11307F00F6375B704544121460C
:1010A000854E3D4F930F800293028004414EB398CA
:1010B000CE0033F715016392E802131726000117DB
:1010C0003313EF001343F3FFB376D3003317E80075
:1010D000D98E639DF701232A15010506E319C6FD84
:1010E00054C18280E39457FA10C94DB7E39757FE75
:1010F00023281501DDB7B707002023ACA72882807D
:10110000371702405C439146B18B6385D700A146F7
:101110006382D706B7177A00938707201CC137165A
:1011200002405C4237070020130707019183BD8B03
:10113000BA9794231C41B3D7D7005CC15442A18213
:101140009D8ABA969422B3D6D70014C55442AD8274
:101150009D8A36971823B3D7E7005CC55842398378
:10116000937637001387818036971823B3D7E70229
:101170001CC982805C435843C166C983758FB7F62A
:10118000FF1F83A6C670BD8B89071396160163489F
:101190000600C54601466392D702C94739A8894669
:1011A000638FD702BD46638ED702C146638ED702D6
:1011B000C54601466393D700C1471DEF374702403C
:1011C00003270780418B05C737177A0013070720CD
:1011D000B307F7021CC121D61C41858381B70146A4
:1011E0006DBF0546B547D1BF0146BD47F9B73717B3
:1011F0003D0013070790E9BFB7150240D855931675
:10120000F700D85563DF060411833D8B9306170062
:1012100037177A00130707203357D70218C1D45560
:10122000A182BD8A8DE295463307D702058318C196
:1012300037170240585714413D8B050733D7E60254
:1012400018C1184171B785456394B600E546E9BFFA
:10125000BD456396B600D1463387E602C9BF89060D
:10126000E5BF3D8B9306170037177A001307072059
:101270003357D702F1B799C5371702401C4F5D8D20
:1012800008CF8280B7170240984F1345F5FF798D3C
:1012900088CF8280373700408357478093F7070213
:1012A000E5DF82805E21162513F7F500054533172B
:1012B000E500C207758FC18301CB91813315B5005D
:1012C0007D8D3335A0008280014582801E294A250C
:1012D000ED8F4205418189C76D8D3335A000828035
:1012E00001458280EFF22FA31629F577FD17F58FC0
:1012F000F621DA257971D58F1EA95625FD779387BA
:10130000379FF58FD6212A842EC6D58F9625D58F67
:10131000B625D58F5EA55E29C207C18393F7F7CFA7
:10132000D98F5EA96808E93BB747014093870780DA
:10133000B245631AF404A25756246547B387E702FF
:10134000C206C186984163D20604060752244206AB
:10135000B3D7E702130740064186B3D6E702B3F7D7
:10136000E7029206635506028E0793872703B3D7D9
:10137000E70213F77700B367D700C207C1831EA443
:1013800045616FF08F9B925745BF0A07C1B792071F
:1013900093872703B3D7E702BD8BD58FF9BF91C5DC
:1013A0005E250967D98F5EA582805A25F977FD17DA
:1013B000F98FD5BF93F5F51F4EA182800A216D8D5F
:1013C0003335A000828013F7F50F85461583B39758
:1013D000B6006311D7025A25F98F1A210145420739
:1013E000418381CB0545A181B315B5006D8F3335A0
:1013F000E000828089466314D7001A29F1BF5A2978
:10140000E1BF5049635EB000939735000C425845E8
:10141000BE9563E5E5000C499385C5022E85828063
:1014200071779307171863C7F500939735004C45FC
:10143000BE95EDB7930607186396D5000C499385C2
:101440004502E9BF1C421306600603C84700E314C7
:10145000C8FC9C438D8EF023E34FD6FAB305B7400A
:10146000938515188E05E9B7939735006356B0003C
:10147000584908433E9582804845EDBFD8215C45D8
:101480009376F70089EA238207001387870058C5FF
:10149000C8233D8982809441D8A394C3FDB7EFF25D
:1014A0008F87411132C636C4A93FA2460841324651
:1014B00091C288C2635CC0005C45DC4763C8C7005A
:1014C0000D060A06329541016FF02F871385418280
:1014D000DDBFEFF24F84AE84B2852A84EFD0505343
:1014E000D420930750042A8901476399F602AA85FC
:1014F0008840EF00E12854212A8793F7F60099CF1E
:101500005C441841A10723ACE7FE238ED7FE5CC4E0
:101510005C4403C5C7FF3D896FF02F825444A68504
:10152000228523A0260183474900368693E70704D6
:10153000DCA2938786005CC4EF206152D1BFEFE24A
:101540009FFDAE84B2852A84EFD0904CD4209307BF
:1015500050042A8901476398F604AA858840EF0061
:1015600021225C212A87BD8B9DCF5C4483A687FF07
:1015700014C183C6C7FF54A103C7C7FF137707046D
:1015800011CF8C40D8311377070209CB83A787FF8F
:10159000DC33E18B81C72285EF80205C5C44E1175E
:1015A0005CC46FE09FF95044A68522852320260164
:1015B00083474900930686FF93E707045CA29307DD
:1015C00086005CC4EF20E1545C44C117D1BFEFE258
:1015D0009FF441112A8432C636892535044154448A
:1015E0003246A685E1162285EF00C16AFC2093F7FA
:1015F00007FCFCA058448347C7FF93F7070491CF2B
:10160000DC3093F7070291CB832787FFDC33E18B34
:1016100089C7A6852285EF80405454440E09B386BD
:10162000264154C441016FE05FF1EFE2DFEED041AB
:101630008C41EF6030396FE05FF041116364B500B9
:1016400041018280944118415C2114C1D4212105BB
:10165000E115230ED5FE98C5DCA5CDB758218947E5
:101660003D8B6300F7029D468147631AD7001C41FA
:101670004145FA2301C70D0713153700AA973E8588
:1016800082801C41EDBF582199471377F703630A05
:10169000F70213086002814763130703184113859B
:1016A000F5FF03486700637C050185058E05BA9543
:1016B0000CC2377602009307C68591C298C23E8558
:1016C000828018411385F5FF81470328C7008328CE
:1016D000C800E37615FF938735008A073E971C43C1
:1016E000984718C291C29CC28327C8038E05BE9535
:1016F00083A785FF99C3C107D9B7B777020093873E
:10170000C78975BFEFE23FE15C45184DAA842E847E
:101710001D8F0D870329450163CDE502544D1167E7
:10172000130787A9958F8D870D8F95076355F70050
:1017300001456FE09FE00146EF60803275D9DC44DF
:101740000E043E9483274900E3F587FE2322890097
:10175000CDB70545EDB7630BB50058459317360077
:10176000B307F7405CC501476343C7008280544517
:1017700013183700DC45C29603A80600A107050729
:1017800023AC07FFD422238ED7FEDCC5F1BF1C4952
:1017900003A5C70823A6B7088280B777020003A570
:1017A000C78A828091679387F7E73387F50063E8FC
:1017B000E70058495C451843998F8D87BE952E8563
:1017C00082805C4948459C43A1071D8D0D85828020
:1017D000EFE27FD4138715002A84BA8763C205021B
:1017E0005C490E079C43BA975845998F8D873E8771
:1017F00054446348E0023E8763D307000147998F52
:10180000444413973700BA9491CB5C5063E8970037
:1018100081467D56A6852285EF70C01244C46FE0D4
:10182000DFD11386860050C4238206007D17C9B716
:10183000EFE27FCE2A84AE84053981467D56AA85A3
:101840002285EF702010A6852285393923020500F4
:101850006FE0BFCEEFE23FCC444532843131E1143A
:101860002A89634104020E0433848440A2854A8598
:10187000E933A68513058400C933A6854A85753BDF
:101880006FE0BFCB050461563304C4022A94F9BF4C
:10189000EFE27FC83289AA84AD362A84CA852685BC
:1018A0008D361C401CC15C205CA1F1779387071822
:1018B0006354F9025C2093F7070499CFDC489C43FA
:1018C0008C43DC3193F7070281CB10405C32E18B13
:1018D00081C72685EF80E0236FE03FC6EFE2BFC3FC
:1018E0004045AA84393E1C412104232CF4FE5C218E
:1018F000230EF4FEC0C46FE05FC4EFE2DFC12A84B0
:101900000936AA8748213D8911E908481305C5020F
:101910003385A740133515003305A0406FE0FFC1A4
:101920008505B7970200938747368A05BE9588419B
:101930008280EFE25FBEF1344821D9476308F500A9
:101940001305A5F9133515006FE03FBF0545EDBF41
:10195000EFE27FBCEFF0FFAA4821751513351500A3
:101960006FE0BFBDEFE23FBB4111EFF09FA95821EF
:10197000CD476308F7006C00EF10D16941016FE0BB
:10198000DFBB0545E5BFEFE21FB9EFF09FA7482198
:101990003D897515133525006FE03FBAEFE2BFB7FB
:1019A0004111AA8432C6EFF0DFA532462A8426858B
:1019B000B285EFF01FA55C202A86BD8B99E79C4875
:1019C00001459387C702630FF4005C22BD8B99E742
:1019D0009C4801459387C7026306F600A28501452E
:1019E000EF20412A41016FE05FB5EFE2DFB21387DC
:1019F00045FF85472A8463EDE7005C4503A787FF21
:101A0000A10723ACE7FE03C747FF238EE7FE5CC5B3
:101A100054442285138706FF3A86E116EFA0F03082
:101A20005C44E1175CC46FE05FB1EFE2DFAE4111EF
:101A300036C42A8432C6EFF0DF9C3246AA8422855F
:101A4000B285EFF01F9CDC202A86A246BD8B99E769
:101A50001C4801459387C7026387F4025C22BD8B53
:101A600099E71C4801459387C702630EF600854736
:101A7000638EF60089476380F602014589E6A685F4
:101A80002285EF20212041016FE03FABA685228512
:101A9000EF20C119CDBFA6852285EF20E11BE5B758
:101AA000EFE27FA72A842E854C44EFA0902C01C53D
:101AB0005C44A1075CC46FE05FA8EFE2DFA54111C1
:101AC000328402C6EFF0FF9354214D47639BE6003A
:101AD0001C6105453EE611C008C0324541016FE07A
:101AE000DFA56C00EF101153FDB7EFE2DFA241114B
:101AF000328402C6EFF0FF9054210D47639BE6004D
:101B00001C4105453EC611C008C0324541016FE089
:101B1000DFA201466C00EF109171F5B7EFE2BF9FB5
:101B2000EFF03F8E482185476307F5003D89333547
:101B3000A0006FE09FA00145EDBFEFE2DF9DAA840A
:101B40002E893284EFF0FF8B5C211147BD8B638AB5
:101B5000E7020D476388E700014519C02320040010
:101B60006FE0BF9DAA852685EFA0903D9C48DC478D
:101B70006355F0002685EF80A021CA852685EFF009
:101B80005F8801C81C411147D4236397E600FC33EA
:101B90001CC008414105E9B7DC47DDBFEFE2BF9754
:101BA000EFF03F865C21154793F7F7036389E7025F
:101BB0006368F7001147638EE70001456FE0FF9708
:101BC0001D47638BE7005147E399E7FE1C41C84777
:101BD000F5B71C41E833DDB71C418847C5B708415C
:101BE000EF00E10DE1BFEFE21F93EFF09F81EFF017
:101BF000FFA66FE09F94EFE21F92EFF09F805821C5
:101C0000930780046315F70008416FE01F930145B7
:101C1000EDBFEFE25F90EFF0CFFE5C219D4613F742
:101C2000F7036308D700D946630FD70089466318C6
:101C3000D700EFF0BFA2AA873E856FE01F9013F791
:101C40000704814775DB1C41C5BF5C452382070043
:101C5000A1075CC582805C454D478CC3D8A3A10712
:101C60005CC582805C450D478CC3D8A3A1075CC5C9
:101C70008280EFE25F8AAA8405EEB7750200938541
:101C8000C585EFD0E058DC442A8488C35821A107D9
:101C900013670704238EE7FEDCC49C48DC476355CA
:101CA000F0002685EF80C00E130504016FE0FF8869
:101CB000EFD00052C9BFEFE21F86AA8495E15C45D0
:101CC0002E8423820700DC44A107DCC49C48DC4747
:101CD0006355F0002685EF80A00B22856FE0FF851D
:101CE000EFD00053D8441304050108C35C2193E7E7
:101CF00007045CA3C9BFEFE21F822A84EFA010276C
:101D00001C48AA84DC476355F0002285EF80400818
:101D100026856FE09F82397132D4301022CC26CADA
:101D20002A843EDA06CE36D63AD842DC46DE32C6C1
:101D3000EFA0D0231C48AA84DC476355F00022851D
:101D4000EF800005F24062442685D2442161828002
:101D5000EFE26FFC41112A84AE8411EA5C455947D9
:101D60008CC3D8A3A1075CC541016FE00FFDB2850C
:101D700032C6EF60D01F3246584444C59317360030
:101D8000B306F74054C4AA97FD557D166117E117B5
:101D90006310B60293076006DCA21C4888C2A10645
:101DA000DC4754C4E352F0FC2285EF70707E6DBFB7
:101DB0000328070023A8070103484700238A0701D7
:101DC000E9B75C45454791E10547D8A3A1075CC544
:101DD00082805C4509478CC3D8A3A1075CC582807B
:101DE0005C451307800488C3D8A3A1075CC51C49C0
:101DF00083A707093385A740133515008280EFE2DA
:101E00008FF11C492E86DC53DC4793858700EFF069
:101E10004FEC6FE08FF2EFE20FF02A84EFF06FDE0D
:101E2000542193075004AA8401476398F6024C4456
:101E30000841E115EFF0701754212A8793F7F60057
:101E400089CF5C441841238ED7FE23ACE7FE5C4467
:101E500003C5C7FF3D896FE04FEE5444A685228538
:101E6000E1163686EF10B13FDDB7EFE2CFEA411160
:101E70002A8432C6EFF0EFD83246AA852285EFF0E9
:101E80004FE541016FE06FEBEFE2EFE841112A848B
:101E9000B284EFF00FD75821930750042A896314B6
:101EA000F70408419387F4FF184563F9E702139795
:101EB0003400930787FF58453E97542393F7F60065
:101EC00085C75C441843D4A398C35C44C8231387D4
:101ED000870058C43D8941016FE02FE6A685EFF0E9
:101EE00010002A87D9BF014754448D473000CA8566
:101EF000228526C45C86EF109136C1BFEFE2AFE1C8
:101F00002A84EFF00FD04C440841E115EFF0F009BE
:101F10005C44AA852285E1175CC4EFF02FD66FE000
:101F2000CFE1EFE24FDF41112A8432C6EFF06FCDEF
:101F300032460841B285EFF0807AAA852285EFF01B
:101F4000EFD341016FE06FDFEFE2EFDC41112A8454
:101F50002EC632C4EFF0A0725C4413075004B245A1
:101F600088C3D8A3A1075CC4A2466344B0006357EA
:101F7000D0002E86AA852285EFF0700D1C48DC4724
:101F80006355F0002285EF70B06041016FE0EFDA39
:101F9000EFE26FD82A84EFF0CFC65C211547BD8BE6
:101FA000638BE7001D476386E70218489387C703E2
:101FB0008A07BA9705A01C41984F014509CB5C449C
:101FC000054598C313075004D8A3A1075CC46FE06C
:101FD000CFD61C41D847D5B7EFE2EFD341112A84C1
:101FE00032C6EFF00FC232465C446356C00018415F
:101FF000762363DAC600238207007D55A1075CC4FF
:1020000041016FE08FD305060E063A96184698C335
:102010004826C8A33D89DDB7EFE2EFCF1C492E86E5
:10202000DC53DC4793858700EFF06FD16FE0EFD092
:10203000EFE26FCE41112A8432C6EFF08FBC3246F8
:10204000AA852285EFF0AFCF41016FE00FCFEFE21D
:102050008FCC41112A843289EFF0AFBA582193070F
:102060005004AA846315F70608419307F9FF184541
:1020700063FAE70413173900930787FF58453E9723
:102080005C23BD8BB1C75C4483A687FF14C383C6A2
:10209000C7FF54A303C7C7FF1377070411CF8C40B2
:1020A000D8311377070209CB83A787FFDC33E18B95
:1020B00081C72285EF70702A5C44E1175CC441013E
:1020C0006FE0AFC7CA85EFF080612A8755BF01472F
:1020D00054448D473000E116A68522854AC45C86AB
:1020E000EF103123D1BFEFE20FC3504589464116AF
:1020F000EFF0EFCD6FE06FC4EFE2EFC141112A8442
:1021000032C6EFF00FB0044154443246A685E116C2
:102110002285EFF0806F58448347C7FF93F7070489
:1021200091CFDC3093F7070291CB832787FFDC3315
:10213000E18B89C7A6852285EF7030225C44E117C8
:102140005CC441016FE06FBFEFE2EFBCAA84EFF027
:102150004FABD8442A8901448347C7FFBD8B99C33D
:10216000032487FF834749001547BD8B638CE70035
:102170001D476386E70498489387C7038A07BA9781
:10218000C0C705A88327090080CF05C4832509009F
:10219000DC3193F7070281CB5C30E18B89C7228663
:1021A0002685EF7010178325090022862685EF709B
:1021B0009024DC440545E117DCC46FE00FB88327A9
:1021C0000900C0C7D9B7EFE20FB5411132C62A8462
:1021D000EFF02FA31C4132468144FA239306F6FF09
:1021E00063FCE60254440E06B29703A786FF8544BB
:1021F00098CB03C7C6FFD8AB1377070411CF0C41A8
:10220000DC3193F7070289CB83A786FFDC33E18BB0
:1022100081C72285EF7070145C442685E1175CC489
:1022200041016FE08FB1EFE20FAF8505E157B38752
:10223000F5024C452A84B284BE9515C703280506CD
:10224000C177B3F7070185E35C4998CB94CFEF5092
:10225000907663D804005C485844D44363F3E600A6
:10226000D8C36FE08FAD26862285EF50B075D5B705
:10227000EFE2CFA801112A84AE8932893688444D15
:1022800091CAB6853EC63AC4EFF00F9EB2472247C8
:102290003308954093851900E159B38535035044BF
:1022A000B2952ECCB386954089C728504176698E69
:1022B00015C6B7150000428730089385A5622285B0
:1022C0004ACEEF60E009635809005C485844D443A3
:1022D00063F3E600D8C305616FE08FA5444822850B
:1022E0004A869CC87C4C98CCD4CCDCC8BE307830B4
:1022F000232E0405F99BD98F93E70701BEB0EF5059
:10230000906BBE300145BD9BBEB0DC487CCC65BF48
:10231000EFE26FA079712A84B68489E6B77402006F
:102320009384848AB28622852E866C083AC6EF4052
:102330009139324726866C08BA862285EF602007DD
:10234000AA8415ED5C4403A787FF7C238DCB1C4832
:102350000C4BDC539845DC47944714C3D42754A353
:10236000D8271377070401CFD8311377070201CBA1
:1023700090475C32E18B81C72285EF70807926859A
:1023800045616FE08F9B5C451307600403C8C7FF7E
:10239000631EE800EFE22F9883A787FF3687B28697
:1023A0002E86CC47EF60E0326FE02F9905458280A2
:1023B000682182805D7132DC36DEBAC0BEC2C2C422
:1023C000C6C626D2044906D622D44AD04ECE83C7EA
:1023D000E403898B639C07163C183EC6AD472E84E8
:1023E00063E4B71637770200939725001307C78673
:1023F000BA979C432A8982878547238FF4022285D6
:10240000B250225492540259F2496161828081454E
:102410002685EFC06062238F04020144CDB7814559
:10242000EF70F036DDBF8044C8442A942980C1BFD4
:102430008044C8442A941374F43FD1B7B24703C40C
:10244000E40383A90700138747003AC6238F0402D9
:102450006391090281452685EFC0005E4A85EF70D1
:102460003013238F840203C49403611413341400C3
:1024700079B7DC44AA092685BE99CE85EFC0C05B3A
:1024800083270901DC476355F0004A85EF7050103F
:10249000238F84020144E34830FD95B7B2471147CA
:1024A00003C404049C430A04B3C7E7022380F40472
:1024B000B9B7B247114703C414049C430A04B3C715
:1024C000E702A380F40425BF03C4E40345B7B24781
:1024D00003C6A4039386870036C685469843DC432B
:1024E0006305D600D44891E22D4419C3238EE4023B
:1024F00091C71147B3C7E702A38EF40285454A8509
:10250000EF70D000EDBDB24683C5A4031386C600AC
:1025100032C605469842DC4294466385C502D048DF
:1025200015E211C711463347C7022380E40491C75F
:102530001147B3C7E702A380F40499C22381D404EE
:10254000814575BF2944F1BF7D5455BD7D554DBDB5
:10255000EFD27FFC584593064004AA870346C7FF85
:10256000631CD6001049832687FF0327460963951D
:10257000E6009145EF50202D3E85EF40F070EFD200
:102580009FF92A84EFE0FFE750440C412285611651
:10259000EFF0200358449307870019E1930787FF62
:1025A0005CC46FD09FF9EFD21FF72A84EFE0DFEB16
:1025B0005C48AA85228583940702EF60C02AFD57F4
:1025C00063C6F4005848F557858F1EB36FD0FFF6E9
:1025D000EFD27FF42A84635DB000EF10817C1C4849
:1025E000DC476355F0002285EF70807A6FD0FFF4EE
:1025F0004445B775020001469385C585EFC0503D3F
:1026000088C05C2193E70704DCA05C44A1075CC49C
:10261000F9B7EFD25FF02A84EFE0BFDE4C442A86A0
:102620002285EF10B10E5C44A1075CC46FD0FFF0AF
:1026300081C51C49DC439CC11C49884382801C49DC
:1026400023A6C72C23A4B72C8280EFD2DFECEFC0E7
:1026500070026FD09FEEEFD21FEC2A84EFC0D04003
:102660005C4413077004AA8488C3D8A3A1075CC480
:102670001C48DC476355F0002285EF706071FE2036
:10268000414581C78D071395370026956FD0FFEA26
:10269000EFD27FE84111B2842A8402C6EFE07FD6F0
:1026A00081467000A685EFE01FFE19C932475C44E1
:1026B0001443A10723ACD7FE5823238EE7FE5CC446
:1026C00041016FD09FE7EFD21FE54111B2842A8408
:1026D00002C402C6EFE0FFD2A68574003000EFE02E
:1026E0009FFAAA8415C95C44138787FF58C403A6C0
:1026F00087FF224710C383C7C7FF5CA393F7070474
:1027000081CFB245DC3193F7070299C75C32E18B88
:1027100081C72285EF70E03F268541016FD0FFE140
:10272000EFD27FDF411132C62A84AE84EFE07FCD45
:102730005C219946324693F7F703638AD7009306E4
:102740006002638DD700014541016FD01FDF8146D4
:10275000A6852285EFE0BFD40841FDB72A87014551
:10276000E354C0FE1C43F823E340C7FE05061315DF
:1027700036003E95D1BFEFD21FDA011136897408B9
:102780002A843AC6EFE0BFD13247AA84CA853A8686
:1027900081462285EFE0BFD01041F24590C0DC3188
:1027A00093F7070299C75C32E18B81C72285EF70EE
:1027B000403605616FD07FD8DC41014589C788412B
:1027C0001CC223A20500828019E201458280EFD25B
:1027D000FFD22E89FD552A84B284EFF00F929547DF
:1027E000631CF5002285EFF04FC69149FD14F955A1
:1027F0002285EFF0DFD801E501456FD07FD3F95591
:102800002285EFF08F8F631835057D56CA852285A6
:10281000EFF0CF9819C5F9552285EFE07FFB05450C
:10282000E9BF2686CA852285453715C5B7750200DA
:102830009385058E2285EFF00FC875562285FD55CC
:10284000EFF00F852285F955EFE09FF88D45228541
:10285000EFF01FD8E9B7F9552285EFE07FF741BFC8
:10286000EFD2DFC941112A842EC6EFE09FF5324630
:10287000B7750200AA89938545A12285EF403011E2
:1028800037760200F175130646C193850518228537
:10289000EFF0AFDD138919000946CA8522852D376F
:1028A00039C90146FD552285EFF02FA9B775020001
:1028B0000D469385C5C1AA84EF00623C19ED93854E
:1028C00034002285EFF02FBFF95522857D56EFE0C9
:1028D0007FF8F9552285EFE0BFEF4A86FD55228546
:1028E000EFE01FFBCA852285EFE09FEE8544268539
:1028F00041016FD0FFC3AA84CE852285EFE05FED52
:10290000FDB7EFD25FC141112A84B2842E89EFD086
:10291000712F0841EF0082342AC6A6850146228520
:10292000EFF0AFA13247B7750200930615004A8653
:102930009385C58C2285EFF00FBE7D56A685228536
:10294000EFE05FF12285F955EFE09FE8194541017D
:102950006FD0BFBEEFD29FBA41112E846C00328976
:10296000AA89EFF0FFCCAA84A2854E85EFF0AFA72D
:1029700050410C412A843245CA868294AA8409EDCA
:10298000630C0900B7750200938505C24E85EFF010
:102990008FB24E85EFF0DFBB04C0232224012685D1
:1029A00041016FD0FFB8EFD21FB7014685455D37B3
:1029B00001456FD09FB8EFD21FB69C412E84B284E0
:1029C0006359F0001CC223A00500130584006FD0DA
:1029D000DFB6D4410145DE2693F70702EDFB13066F
:1029E0000040854513058400EFE0012488C0F1BF55
:1029F000EFD27FB2014405EE038705009307000480
:102A000032846316F70213841500B7750200AA8496
:102A10009385858C2285EFD0DFC409EDB7350000A2
:102A20002686938585A52685EFF07FC105442285FE
:102A30006FD0BFB0B7850200228593858521EFD086
:102A40005FC205446DF5B73500002686938565BBEA
:102A50002685EFF0DFBEE1BFEFD2FFAB513F6FD075
:102A6000DFADEFD25FAB0146FD55EFF00F8D2A864B
:102A700009E537760200130646BA83A7C181B77508
:102A80000200938545BCC847EFD0B17783A7C181C9
:102A9000C847EFD0F13D01456FD03FAAEFD2BFA7A5
:102AA0004111AE8489EA2E85EF00A10701442285F9
:102AB00041016FD09FA8368532C636C4EFF0B0759D
:102AC0002A8475D5EDD4A24632466373D600B28609
:102AD0003686A6852285EFE0F10E2685EF0061049B
:102AE000F9B7EFD2BFA1B77402002A842E89232040
:102AF0000500938444C3FD594840EFE0815D6305C0
:102B00003503850483C7F4FF6310F5021C40138767
:102B1000170018C0A29788A783870400F1FF4840D8
:102B200023200400EFE0E15A2320A900130730021C
:102B300081476311E502FD59A9444840EFE061591E
:102B400063043501E31B95FE4840EFE081582320E4
:102B5000A90085473E856FD0BF9DEFD2DF9B83A73D
:102B6000C181AA842E85CC47411132C6EFD0517D58
:102B700083A7C181C847EFD0B12F324601CEB73508
:102B8000000026869385A5B53285EFF05FAB410145
:102B90006FD0BF9A83A7C1812945CC47EFD0316E52
:102BA00083A7C181C847EFD0B12CB7350000268676
:102BB000938565BBD1BFEFD27F94AA842E89B28959
:102BC000EFF01FE305E583A7C18137750200130508
:102BD00085C4CC47EFD0D17683A7C181C847EFD059
:102BE00031294E86CA852685EFF03FF76FD05F9476
:102BF000EFD27F92597150002A84EF40C0431DC527
:102C0000B77502005000938585B92285EF402058A2
:102C1000F246635DD000B775020010189385C5B900
:102C20002285EFF04F8F65616FD03F91B77502003D
:102C30009385C5852285EFF00F8EF5B7397126CAC9
:102C40003EDAAE843C10854506CE22CC36D62A84A8
:102C50003AD842DC46DE3EC632D4EFF07FF9324647
:102C6000A6852285EFF02F8922858945EFF05F96B2
:102C70002285EFF0FF8DF2406244D24421618280D0
:102C8000EFD27F895971AE843289814550002A8400
:102C9000EF40603A09EDB7750200CA862686938533
:102CA000458E2285EFF09FF965616FD01F89B7953A
:102CB000020050009385451D2285EF40404D32456E
:102CC000B78502009385C58CEFD0BF99224609E9EC
:102CD000FD1499E4B7750200CA869385C58FD1B7F4
:102CE00001EE4C002285EFF0BFB715C10146FD553E
:102CF0002285EFE09FE42AC4A246B77502004A8706
:102D000026869385C5912285EFF05FF371BF3775F5
:102D100002001305858AC5B7EFD2EFFF7179AE8443
:102D20002E86930509182A84EFF02F9439E1F9557E
:102D30002285EFE0FFA9094681452285EFF0CFA06B
:102D4000A6852285EFE03FF737760200130606A638
:102D5000F9552285EFF0CFADFD552285EFE01FB884
:102D60002285268693050918EFF08FAC05456FD0B4
:102D7000CFFC0145EDBFEFD20FFA411132C62A84D4
:102D8000EFE05F98324609E919CAB77502009385EA
:102D900085982285EFF09FEA41016FD00FFAB77551
:102DA00002009385C5992285EFF05FE9F5B7EFD270
:102DB0008FF62A84AE84EFE05FB4FD57631AF50006
:102DC000377602001306C693A6852285EFF05FEBE7
:102DD0006FD0AFF6EFD22FF4444510450C412A8452
:102DE0002685EFE01FE91840930704016306F7000A
:102DF000F9552685EFE0DFA37D562685F955EFE0EE
:102E00007FA5F9552685EFE0BF9C6FD00FF3EFD279
:102E10008FF01C45BE950CC5EFF0DFFB6FD0EFF1D6
:102E2000EFD26FEF1387050198C113070010C8C5D3
:102E300023A40500D8C1EFE0DFF96FD00FF0EFD287
:102E4000EFEB130101BF2A84AE84B289EFE07F97D4
:102E500013091500A5E0B7750200938585A32285A7
:102E6000EFE07FE583A7C181DC433EC64C0028002C
:102E7000EFF03FC719C9A247138717003AC41307D9
:102E80000141BA9729472380E7C01247ED476316EF
:102E9000F706A5C43246B77502009385C5A42685FA
:102EA000EFD031722AC631E5B77502004A869385A4
:102EB00005A53DA0B77502002686938505A4228549
:102EC000EFE07FE5B77502009385C5572685EFD003
:102ED00071322AC641FDB77502004A86938545A422
:102EE0002285EFF01FA2AA894E85130101416FD000
:102EF0002FE44C002800EFF0DFBE1247FD57630BB4
:102F0000F700A2479386170036C493060141B6978F
:102F10002380E7C00146FD552285EFE01FC2B7358B
:102F200000004E87AA8630009385659B2285EFF0CE
:102F30002FBEAA893245035AC500137A0A0499C0E4
:102F4000EFD00158630C0A00CA852285EFE05F8844
:102F5000B77502004A86938585A559B7CA8522852B
:102F60007D56EFE03F8FF9552285EFE07F86ADBFBC
:102F7000EFD26FDA41112EC4B725000032C6938517
:102F8000857B3000EFF0CFB841016FD00FDBEFD27F
:102F90008FD841112A842E852EC6EFF0314DB246CE
:102FA0002A860147B6852285EFF09FFC41016FD04C
:102FB000CFD8EFD24FD6411132C62A84EFE05FFD61
:102FC000AA8432460DC5B2852285EFE0DFCEF955E1
:102FD0002285EFE0BFF2AA84F55519C5F9557D5653
:102FE0002285EFE03F87F9552285EFE06FFE2685C9
:102FF00041016FD08FD4EFD20FD2328937760200E1
:10300000130606A62A84AE84EFF0BFFA9147631731
:10301000F5020146FD552285EFE03FB2B77502008B
:10302000AA864A86938545B82285EFE0DFCE2A86B8
:10303000A6852285EFF0DFC46FD02FD0A68522852C
:10304000EFE0BF8B8947630BF500A6852285EFE093
:10305000DF8AAA852285EFE0BF8CC9B737750200E9
:10306000130545B765BFEFD20FCBAE84B2852A8476
:10307000EFE01F8B2A86A6852285EFF0DFF76FD061
:10308000CFCBEFD24FC9411132C62A84AE84EFE0D4
:10309000DF8632466306C500A6852285EFF0BFFCB9
:1030A00041016FD08FC9EFD20FC7AA842E89EFE0FC
:1030B000DFA82A8411E51146CA852685EFF0BFFAFC
:1030C00022856FD08FC7EFD26FC32A89AE89328431
:1030D000B684EFE09F82634CA00099C4014501C40F
:1030E0002285EFF0B13888C022856FD06FC4268664
:1030F000CE854A85EFF03FFB2A84FDB7EFD20FC0A3
:103100004111AA842E89B68905CE8146EFF0BFFB16
:103110002A86014493172400CE9788430DE5B7759E
:103120000200938545972685EFE0FFBE2A86CA8573
:103130002685EFF0FFB42A84228541016FD04FBF6E
:10314000EFF07FF6F1B7B28532C6EFD08FD16DD5F3
:1031500005043246C1B7EFD20FBC011170082A84B2
:10316000AE84EFE09F95F247D30705F081EB2AC6C6
:103170000D46A6852285EFF01FEFB267538507E065
:1031800005616FD08FBBEFD20FB941112A84AE8495
:1031900032C6EFE08FF6B2676358A000A68522859D
:1031A000EFF07FFBD30705F0538507E041016FD0B7
:1031B000CFB8EFD24FB6411170002A84AE84EFE051
:1031C000DF92B2472A8991EFA6852285EFE08FF939
:1031D00009CD377602001306C694A6852285EFF046
:1031E0003FAA4A8541016FD04FB50D46A68522857D
:1031F000EFF07FE7FDB7EFD20FB2411132C62A845C
:10320000AE84EFE08FEF32466357A000A68522859B
:10321000EFF03FFA2A86328541016FD00FB2EFD22C
:103220008FAF41112A8432C6EFE0CFD73246AA844D
:10323000AA852285EFF0FFD709CDA6852285EFE08C
:10324000EFE922850147814605468545EFE0BFFD50
:10325000054541016FD06FAEEFD2EFAB41112A842B
:10326000EFF02FBB7000FD552285EFE01F88B247BD
:10327000AA8481EBB7750200938585A12285EFF0C2
:10328000FF9B2285F955EFE0AFD4268541016FD031
:10329000CFAAEFD2AFA641112A84B289EFE08FD036
:1032A00037760200AA84AA851306C6A82285EFF005
:1032B0001FF70DC5FD552285EFE0EFEC01E9B7756D
:1032C0000200938585A92285EFF05F974E86FD5514
:1032D0002285EFE09F8641016FD08FA5A6852285CC
:1032E000EFE0AFE18547630EF50A63CFA704630CF7
:1032F000050C37760200130606A6A6852285EFF098
:103300005FCB91472A896315F50C0146FD5522854F
:10331000EFE0BF822AC6A6852285EFE09F8F324666
:10332000B7750200AA86938585AC2285EFE0BF9E23
:10333000E30E09F822857D56F955EFE0AFD1F95536
:103340002285EFE0EFC859B78D47630AF500914732
:10335000E311F5FAA6852285EFE04FD885BFA68553
:103360002285EFE0EFDE0146A68509CD2285EFE05C
:10337000CFF7B77502002A869385C5AB2285EFE0AB
:103380009F99A9B72285EFE04FF3EFC0515BAE865E
:10339000B77502002A86938505AC2285EFE0BF97BA
:1033A00035B7A6852285EFE06FF709E9B77502000A
:1033B000938545A82285EFE01F9009BFB7750200ED
:1033C0009385C5A7C5BFB7750200938545ACDDB72A
:1033D000A6852285EFE06FD2AA852285EFE04FD443
:1033E00015BFEFD2AF91328437760200AE84130658
:1033F00086A6A285F9592A89B30A8040EFF0BF97C3
:10340000B38989409C4081EB9345F4FF4A85EFE006
:103410002FBC6FD0EF91DC40014A8DE381454A8596
:10342000EFE03F9A9040CE854A85EFE07FC0A1044F
:10343000D1BFD6854A85EFE06FCA050AE34B8AFE05
:10344000CC4022864A85EFE0BF90E9BF58411C4539
:10345000B306F74063E5B60008413E958280EFD29F
:10346000EF8993C6F5FFB2892A840329C5000607B0
:1034700063FBF602B7750200938585BF4A85EFF0BE
:10348000EFFBAA841840930704016304F702268621
:10349000CE854A85EFF00FCCAA8708C0084444C007
:1034A0003E956FD0EF88B384B700E3FDE4FCBA84A7
:1034B000D1BF7D56CE854A85EFE0CFB9F9554A8513
:1034C000EFE00FB1A14501464A85EFF0CF98B775FF
:1034D000020023200500232205009385C5C04A85EC
:1034E000EFF09F8309C9B775020001469385058BEC
:1034F0004A85EFF01FEFF9554A85EFE0FFC4054616
:10350000CE854A85EFE00FB5CE854A85EFF0AF89CD
:103510002686CE854A85EFF0EFC310440C40EFD0ED
:10352000716A9DBFEFC23FFF7D56EFF03FF26FD053
:10353000CF801DC2EFC23FFE32842E897D56A28508
:10354000AA84EFF0BFF02286CA85EFD0B16790441D
:10355000329480C46FC07FFE8280EFC2DFFB4111D6
:103560002A842E852EC6EFF06170B2452A86228508
:10357000EFF03FFC41016FC05FFCEFC2DFF9444553
:1035800041112A847000FD552685EFE00FDBB2451E
:103590002A8979562285EFF07FEB3246CA85EFD033
:1035A00071621C443247F9552685BA971CC4EFE076
:1035B0002FA241016FC07FF8EFC2FFF209712A8488
:1035C0002E89328BB6898544854A9018A6854A850E
:1035D000EF30702651E563C89A08FD1433873441F3
:1035E000D547A94A63C3E700FD5A8C182285EFF03E
:1035F0003F8363060B02DA858818EFF01FF66657E3
:10360000D6576366F70085458818EFF0BFF1665717
:1036100093071700BEDCC657BA97294798A3B7751A
:103620000200938505AD8818EFF03FF3377B020069
:10363000B77B0200377C0200B77C0200377D0200B6
:10364000B77D02005000CE854A85138A1900EF30FD
:10365000901E0DE98818EFF0EFF719616FC07FEC4D
:10366000A68A86049DB7338A9A00135A1A40901886
:10367000D2854A85EF30301C01C5930A1A00268A8C
:10368000D28491BF9389FAFF63950A02B3894441BA
:10369000D919B77502004E86938545AE2285EFE0B5
:1036A0008FE788184E9AEFF05FEDFD59CE8AD289E8
:1036B00051BFB77702005000938507B04A85EF30BD
:1036C000102DF24610186343D006B775020093859B
:1036D00085B02285EFE02FE48818EFF01FEA4C0058
:1036E0002285EFF0EF9729C90146FD552285EFE0CD
:1036F000CFC42A8693054DB22285EFE0CFE1F9557C
:1037000022857D56EFE00F95F9552285EFE04F8C2D
:103710008818EFF09FE68307B102C9DBB777020094
:103720009385C7B58818EFF05FE349B793854DB12E
:103730002285EFE04FDE4DB732468307060081CB8E
:10374000A24693854CB32285EFE0EFDCD1B7C247A8
:103750001307D0069305CCB383870700638DE7007A
:10376000130730046387E7008256101893858BB4E3
:10377000D9BF93058B8A2285EFE0EFD351BFEFC20B
:103780009FD92E84B284EFF0AFE97D56A6852285BD
:10379000EFF0DFCB6FC07FDAEFC2FFD72A84AE84B1
:1037A0003289EFE08FEC9547630CF502F9552285DD
:1037B000EFE00F82A6852285EFD0DFFE0146AA84C6
:1037C00081452285EFE04FF8FD552285EFE00F910E
:1037D00022854A86A685EFE0BF8501456FC0FFD5EB
:1037E0000545EDBFEFC29FD1AE84B289F175377642
:1037F0000200130646C1938505182A843689EFF026
:10380000BFF9FD5526862285EFE02FE6FD5522857E
:10381000EFE0CFB015EDF9552285EFD07FFB0146E3
:10382000CE852285EFE0CFD2A6852285EFE0AFC816
:1038300005460147814685452285EFE0DF9EFD551F
:103840002285EFE0AF892686F5552285EFE04FFE11
:10385000F95522857D56EFD0FFFFF9552285EFD02F
:103860003FF7630A0900FD552285EFE02F87A68503
:103870002285EFE06FFA6FC0BFCBEFC23FC8AA84CA
:1038800032852E84B289B68AEFF0413E2A8ACE85EF
:103890002285EFF0A1462A8919E5A2852685EFF059
:1038A000DFCB6FC0FFC833068940A2852685EFF0C5
:1038B0005FC8D6852685EFF05FCA33044901C1BFD2
:1038C000EFC27FC52D71AE840C082A8432C636C47F
:1038D000EFF00FD5A2463246A6850808EFF0FFF9B3
:1038E0000808EFF02FCF0146FD552285EFE0EFA449
:1038F00015616FC09FC4EFC21FC2373500008145FC
:103900001305C5A9EFB000222A8419CDB7350000F0
:10391000938525A6EFD0BFE7B735000022869385B3
:1039200085A52285EFE0BFD122856FC01FC1EFC200
:103930009FBE411132C42A84AE84EFD01FE62246D6
:1039400093074004630CF600B77502009385C59A8F
:103950002285EFF0AFAE41016FC03FBED30705F047
:10396000538704F0D3A7E7A0FDF7EFC0417D2AC439
:1039700026852EC6EFC0A17C2247B247AE86B7751A
:1039800002002A869385059E2285EFF02FABE1B7D2
:103990000D458280EFC23FB8EFD0BFE27D156FC00A
:1039A000DFB9EFC25FB785452A84EFD01FF5FD5719
:1039B000AA84631AF500377602001306C69385457C
:1039C0002285EFF0EFABA6852285EFD07FF5AA85A3
:1039D0002285EFE04FAE05456FC03FB6EFC2BFB3E3
:1039E00085452A84EFF0AFBC014685452285EFF07E
:1039F0005F8A05456FC07FB4EFC2FFB1AA84EFD0E4
:103A00005FDC2A8485452685EFD03FEF914763151B
:103A1000F502014685452685EFE02F920307050054
:103A200093073002631AF70026859305F4FFEFE051
:103A30006FA305456FC07FB085452685EFF06FF712
:103A40003309A400634605002289635385002A894F
:103A5000634A200137760200130646DF8545268536
:103A6000EFF00FA233052441F1B7EFC25FA8411177
:103A70008945AA84EFD07FE86347A0048545268561
:103A8000EFD0BFE78D47631AF50085452685EFD057
:103A90003FD4054541016FC01FA9854570002685AB
:103AA000EFE0AF89AA8501C92685EFD07FFFB24735
:103AB0008507E300F5FE85452685EFF04FAF2685A7
:103AC000EFE0AF98F9B789452685EFF08FEE2A8CA5
:103AD000114685452685EFF0CFDA700085452685AD
:103AE000EFE0AF851307ECFF930720022A8A63FA01
:103AF000E70037760200130686E489452685EFF055
:103B00002F98B77A02009385CAE55285EFF0E11C41
:103B10003304AA00830704001307D0026397E70267
:103B20000504854BEFD0416D1C208149894C3E95A1
:103B30001C319D8B95E381450145B2473E9AE310C8
:103B400045F92685EFE00F92A9B71307B002814B24
:103B5000E39AE7FC0504F9B7EFD0016A8307040094
:103B600013F9F70F130B19005A951821938707FDC6
:103B7000118B09EFEFD041685A951821CA870D8B38
:103B800063149701930709FE938797FCE3D587FB9E
:103B9000B3053C030504B389B700EFD0E1651C20F1
:103BA0003E951C319D8BCDFB9385CAE52285EFF0B8
:103BB000C1122295CE85E3820BF8B3053041B5BF23
:103BC000EFC27F95154685452A84EFF08FCB22857D
:103BD0008945EFF0CF9D22858D45EFF04F9D2285E1
:103BE0008D45EFD0FFBE22858545EFE0CFCF05455F
:103BF0006FC0BF94EFC23F92154685452A84EFF00F
:103C00004FC822858945EFF08F9A22858945EFD0EC
:103C10003FBC85452285EFE06FAE05456FC0FF9143
:103C2000EFC27F8F85452A84EFD03FCD7115854740
:103C300063FAA70037760200130646DE8545228523
:103C4000EFF06FBB85452285EFD05FF5AA85228511
:103C5000EFE04F8105456FC05F8EEFC2DF8B85457A
:103C60002A84EFF0CF9422858945EFF04F940946DE
:103C700085452285EFD09FD2AA852285EFE06F94FB
:103C800005456FC09F8BEFC21F892A84EFD07FB399
:103C90002A89014685452285EFF0EFC089446352A9
:103CA00099028544014663C52403CA852285EFD065
:103CB000DFE8AA8501462285EFE03F9901456FC004
:103CC000DF87A68501462285EFF0EFBD8504C1BFE1
:103CD000A6852285EFD07FE6AA8505462285EFE0FE
:103CE000DF968504C1B7EFC27F8141112A89EFD0E9
:103CF0005FADAA890544054AB77A020063D68902F6
:103D000083A7C181376502000546944785451305A1
:103D10004575EFD0E13A83A7C1818847EFC05115BF
:103D2000014541016FC0DF807000A2854A85EFF038
:103D30004FD62A8B635B8A0083A7C18105468545E0
:103D4000944713850ADEEFD0A13783A7C18132469D
:103D5000854594475A850504EFD08136F9554A8543
:103D6000EFD01FA761BFEFC20FFB85452A84EFF09C
:103D70000F84B745000001462285938565E4EFD0A6
:103D80003FFD22858545EFD07FB522858145EFD067
:103D90007FED0D456FC06FFAEFC2EFF71546854511
:103DA0002A84EFF00FAE89452285EFD07FA28545AA
:103DB0002285EFE0CFFC19E52285EFD01FE905450C
:103DC0006FC0AFF70945EDBFEFC2EFF4B2843776AD
:103DD00002001306C6D489452A84EFE0DFF9854541
:103DE0002285EFD0BFAF8145228501478146054638
:103DF000EFE06FC3FD552285EFD03FB011E922857A
:103E0000F955EFD0FF9C014523A004006FC0EFF2ED
:103E1000FD552285EFD03FB701E9B77502009385C4
:103E200085D62285EFE09FE115462285FD55EFD02E
:103E30003FA62285F955EFD0BF9926869545228564
:103E4000EFD0BFCFE1B7EFC20FED411189452A8412
:103E5000EFF02FB613061500B285228532C6EFD0DB
:103E60007FE0324685452285EFE00F823335A000A2
:103E7000050541016FC06FECEFC2EFE905468945CA
:103E80002A84EFF04FB78545AA842285EFD05F944E
:103E900085452285EFD07FA691476310F502635ECA
:103EA0009000A6852285EFE0BFD485452285EFD01E
:103EB000FFA289452285EFE0AFF12285EFE04FE9CF
:103EC0006FC0AFE7EFC22FE50146814685452A84E2
:103ED000EFF06F9FAA8485452285EFD07F8F014642
:103EE000A6852285EFE0BFF511C52285EFE04FE6FC
:103EF0006FC0AFE4374700001307479981467D56EE
:103F000081452285EFE02FB22285EFD09F8B7D1572
:103F1000C5B7EFC24FE08547411163FEB700814549
:103F20002A84EFD01FEA2285F955EFD03F9B09453F
:103F300041016FC08FE032C6EFD0BF883246118D8D
:103F4000C5BFEFC24FDD2A84EFD0BF871946AA84D0
:103F500089452285EFF0EF9222858545EFD07FE6F7
:103F600022858545EFD09F97228509468D45EFD064
:103F70007F8EB7470000938727F1094789469385CD
:103F8000E4FF7D562285EFE0AFAEAA850946228583
:103F9000EFF03FF86FC06FDAEFC2EFD785452A84A4
:103FA000EFE0FFE022858545EFD0BFE1054685457E
:103FB0002285EFD03F8A2285EFD0BF80B74700002F
:103FC000938727F1014781469305E5FF7D562285BA
:103FD000EFE00FAAAA8501462285EFF09FF36FC09C
:103FE000CFD5EFC24FD389452A84EFD01F91AA8441
:103FF000154685452285EFF0CF8881CC9547638AA9
:10400000F40037760200130686E089452285EFE04A
:104010009FFE37760200130686E185452285EFE094
:104020005FF911C9B7750200938545E22285EFE07B
:10403000FFC06FC08FD089452285EFD06FF98545CD
:104040002285EFE06F900545EDB7EFC2CFCC8545F7
:104050002A84EFE0DFD537760200130686DD85453A
:104060002285EFE01FF51DE1B7450000014693856D
:1040700085D92285EFD0DFCD22858545EFD01F86FB
:104080002285EFD09FBC0D456FC02FCB2285854583
:10409000EFD0DF84374700001307079981460D46AC
:1040A00085452285EFE02F98F9BFEFC2CFC62A845D
:1040B0009DE101E605456FC04FC8B285EFD01F8274
:1040C0000546F9552285EFE00FE06DF5F95522859B
:1040D000EFD00FF0C5B7EFD05FB722850546F95591
:1040E000EFD04FF70945C1BFEFC24FC101117008B2
:1040F00085452A84EFD07FA43776020081461306D7
:10410000C6DC8D45AA842285EFE0FFFBAA89914594
:104110002285EFD08FFEFD5701496303F500114959
:1041200081468DC4268689452285EFE0DFF97246F7
:10413000AA864E87A6852285EFE09FE3AA854A8658
:104140002285EFF09FF605616FC08FBE37760200C3
:10415000130606DD89452285EFE0FFF62AC61946DB
:1041600022858545EFE0FFF122859545EFD04FE6AA
:10417000B246B74500004E870146938585DC22850F
:10418000EFE00F9965BFEFC20FB9411181460146BB
:1041900085452A84EFE03FF30146814689452A8917
:1041A0002285EFE05FF22AC68D452285EFD0EFF43D
:1041B000FD57324681446303F5008D44CA8522854C
:1041C000EFE0FFC7AA8526862285EFF01FEE4101AA
:1041D0006FC0AFB6EFC22FB485452A84EFE03FBD74
:1041E00085452285EFD0DFDA19E52285EFD0FFA5DE
:1041F00005456FC08FB437760200130686E185450A
:104200002285EFE01FDBEDB7EFC2EFB085452A84D2
:10421000EFD0DF9011C52285EFD0AFDA6FC0EFB1DC
:1042200022858545EFE0BFB87D5622858545EFD0D4
:104230006FE22285F955EFD0AFD9B77502009385AB
:1042400005D92285EFD03FA722858545EFD04FD8ED
:104250002285EFF07FC2D9B7EFC2EFABB77602008D
:104260003776020041119386C6E7130646DC854582
:104270002A84EFE0BFE8B77702000A05938787EA50
:10428000AA97844321479387D4FF6363F712377754
:1042900002008A07130787C5BA979C4382878D451A
:1042A0002285EFE02F91AA8491452285EFE08F903F
:1042B000FD576382F40AB7770200537705D0D3F72E
:1042C00004D087A647DA2285C377D778D38507E05D
:1042D000EFD07F98054541016FC02FA60146894563
:1042E0002285EFE05FF12A8695452285EFE08F8CED
:1042F000FD57AA856301F5062285EFD09FACD9BF93
:10430000014689452285EFE01FEF2A86A685228592
:10431000EFE04F8AFD57AA85630FF5022285EFD0A3
:104320007F944DBFA5452285EFE0CF88D1B70146E8
:1043300089452285EFE03FECAA8401468D45228520
:10434000EFE07FEBAA862686A9452285EFE08F86DF
:10435000FD57631FF5022285EFD03F8FA5BF0146B1
:1043600089452285EFE03FE9AA8401468D452285F3
:10437000EFE07FE82AC6014691452285EFE0BFE7DE
:10438000B2462A872686AD452285EFE0AF82C9B7BF
:10439000AD47630AF500B7750200938545DB2285BA
:1043A000EFD07F9105BFB7750200938585DAC5BF51
:1043B000A6852285EFE00F80B1BFEFC2CF95F175E2
:1043C0000946938505182A84EFD0BFB5B77502005A
:1043D000014622859385C5C7EFF0AF802285FD5544
:1043E000EFD0CFCF37760200130646E62285F95587
:1043F000EFD01FC4B7750200938585E62285EFD004
:104400009F8B377602002285130606E7F955EFD019
:104410003FC205456FC06F92EFC2EF8F41112E84EE
:10442000AA84AA8541460A85EFC0D179A285414672
:104430002685EFC031798A8541462285EFC0917883
:1044400041016FC08F8FEFC26F8B044D832905012F
:104450002A84B304964013D7F441B3479700998F49
:104460001307F0072E89328AFD19635EF7060844A8
:10447000505083254904085137780200B7070020BF
:10448000FD1721471308C82693064902EF70402BF9
:104490005C502322A904930400F8139737003A953F
:1044A0002320350185075CD0232245018547A30AD7
:1044B000F402084483250904377802000851B7073D
:1044C00000801308482793C7F7FF05479306890123
:1044D0004E86EF70E0262320A9044E9504A1232CDC
:1044E00044016FC0EF848347550313871700E20729
:1044F000A30AE502E187E3DE07FA95BFEFC20F806A
:104500001C4500412A89C857011183AA07022E8B36
:10451000B289EFD0802958218D47AA866306F70813
:104520008D47230EF100832789008324C9013808B1
:10453000CC575A865685032A040126CCEFD0407307
:104540000C5837780200B7070002214713080820EB
:10455000FD179306040126865685EF70601E1848E5
:1045600008D8634EEA06939734003E9583A7090066
:104570001CC183C749005CA18327C9018507232E7D
:10458000F90083C7490093F70704B1C75C3093F77C
:104590000702B1C303A609005C32E18B8DCFA2856F
:1045A0005685EF50005705A804418327C901E3D978
:1045B000F4F61C589395340003C74900BE95DC21DE
:1045C000B98F93F7F703A9FF2AC64E860145EFF08E
:1045D000606BB24631D5268505616FB07FF5050A5F
:1045E00093173A00AA97238E07FEA5BFEFB2BFF23A
:1045F00041112EC62A84EF807024B24563C7A500FE
:1046000083474403FD17230AF40241016FB0FFF210
:104610009841A1476319F700EFB2FFEFCC41EFF0EB
:10462000FFFC6FB09FF18280EFB2FFEED38705F001
:104630002A847971538507E02ED0CD4701466C0856
:104640003EE62302F102EFF06021B26709E91010A3
:10465000B2852285EFF09FEA45616FB01FEE724789
:10466000B777020001CF07A78726C3F7E778CD47C2
:104670003EF42306F10210102C10E1BF87A7872615
:10468000FDB7EFB25FE91C41194741112A84AE849E
:104690006392E7025C413EC618445C44631FF70026
:1046A000B2471307F00F9387F7076368F7009CC0C2
:1046B000054529A015476386E700014541016FB014
:1046C000DFE7484132896C000146EFF0201975D5CB
:1046D00085472320F900C9B718455C456319F702DF
:1046E00018419547630FF700994681476319D70032
:1046F000854791C55C419CC18D47DCA185473E85BE
:1047000082808547EDDD5C61CD479CE1FDB7814747
:10471000FDB75C5913972500BA978843B70700FF88
:1047200085071D813E95FD576304F50085052E958F
:1047300082804859939725003E95635FB000832798
:10474000C5FF378702001307C76193F7F707BA97CA
:104750009C23C18B91C371158280EFB2DFDB0841CE
:10476000411132C6EFF0FFFC1841930730049376F5
:10477000F7076397F60432469306F00F9357070145
:104780006305D60293F6F70F6381C602A16793878C
:1047900007F81E067D8EE1779387F7077D8F598E88
:1047A00010C1054541016FB05FD921669E07930690
:1047B00006F8F58F718FD98F93E727041CC1D5B701
:1047C0000145CDB7EFB23FD5AA842E847D5963143D
:1047D00024016FB09FD6A2851306F00F2685EFF057
:1047E000DFF78840A285EFF0DFF22A84CDB7EFB281
:1047F000FFD0AA892E847D59130A30046315240141
:1048000001456FB0FFD283A40900A2852685EFF091
:104810005FF21C4193F7F70763984701A28526854D
:10482000EFF03FEF2A84D9BF0545E1BF1C4118498D
:10483000BC43BA970387F7FF930700F8630BF700B1
:104840001C4D998F1CCD83475503FD17A30AF50214
:1048500082805C51FD175CD1930710F8C5BFEFB2A1
:104860009FCB0841EFF0FFEC1841E177FD17B376DD
:10487000F7009357F700858B93B71700BE07D58FC6
:104880001CC16FB09FCB984191476317F7029445C5
:10489000D84581476390E602D8419306F00F63CB79
:1048A000E6001C410E079C5B3E975C239387C7FB89
:1048B00093B717003E8582808147EDBF18419397DB
:1048C00025008505585BB305B640370600017D1607
:1048D0003E972E96B7070002636BF600EFB2BFC398
:1048E0000845B77502009385C521EF50903A1C43E7
:1048F0001E0693F7F7075D8E10C38280EFB21FC0CC
:10490000AA842E84B289368ABA8A7D596314240116
:104910006FB01FC28840A285EFF0BFDF52862A8B9E
:10492000A2852685EFF07FE34E8611E15686A285AB
:104930002685EFF0BFF85A84D1BFEFB2DFBD411139
:104940002A84635DB60032C6EFF05FCA3246B28594
:104950002285EFF0BFC941016FB03FBEAE84B28582
:10496000EFF0DFC8A685EDB7EFB2FFBA944121475B
:10497000FD576393E600DC410C42A1467D576393EB
:10498000D50058423A86BE85EFF03FFB6FB0FFBAC4
:104990009C411947FD17636EF706EFB2DFB7377713
:1049A00002008A071307C7FEBA979C4341112E8461
:1049B0008287C54730005C86B285EFF03FB41307AD
:1049C000F00F81476346A70091471CC048C0854748
:1049D0003E8541016FB07FB68547E9BF1C45230680
:1049E00001003000DC578A853EC0930750045C828A
:1049F000E9B7DC413EC48D4775BFCC41EFF0DFC263
:104A00007DBFDC413EC4DC2393E7070465B7C841A2
:104A10007DB781473E858280EFB2FFAF79712A89E9
:104A2000AE8432852C0836C63284EFF0FFCAB24617
:104A300009E5014545616FB05FB00C103685EFF0B8
:104A4000BFC965D91387D4FFA94763E7E702854744
:104A5000B397E70013F7D70021E793F7075F89CFF4
:104A600001462C102808EFE0F07961D501462C10A2
:104A70000810EFE0307955DD832709003810141055
:104A800088533008A685EF70B01B0347C1028D47DD
:104A9000631DF70299471CC0A2575CC0054559BF6A
:104AA000834641020D478257639CE600D3F707D047
:104AB000530700F0D327F7A093B71700BDDB6DBFF6
:104AC000D30700F0538707F0F5B7A277D3A7F7A075
:104AD000ADD3530700F0D3A7E7A0A1FF95471CC0B3
:104AE0005CE06DBFEFB23FA323260500EF50701AC4
:104AF0009845DC456311F7069C412947FD1763641F
:104B0000F704377702008A0713078700BA979C4398
:104B1000828785475CA205458280C547E5BF2302A1
:104B20000600D5BFDC411CC2DC2393E70704DDB7D8
:104B30001C45945BDC41139747009C42BA9798430D
:104B400018C2DC23C1BFEFB21F9D2E85B285EFF0E6
:104B5000BFB86FB09F9E01458280FD57630FF6027C
:104B6000EFB2DF99844141116396F40090C1410195
:104B70006FB01F9C832905002A847D59A6854E8528
:104B800032C6EFF01FB9324663172501A68522858C
:104B9000EFF0DFD2E9BFAA84D5B782801C495CC997
:104BA0003E858280EFB23F9732879306F00FEFF099
:104BB000FFD46FB09F98EFB21F96104950C9EFF025
:104BC0007FFE6FB09F97EFB21F952A84044108457E
:104BD0002E891048CC58085137780200B70700409A
:104BE0001308482793864401FD171147EF6050359D
:104BF0001C48C8D8A685138717008A073E951C4411
:104C000018C82320250190472285EFF0DF8308484C
:104C10007D156FB09F92EFB21F90B705008093C5CE
:104C200085F3EFF05FFA6FB05F91EFB2DF8E62074E
:104C3000D98D1397F7004D8F93950601D98D1E06D8
:104C4000D18DEFF05FF86FB05F8F832805015C496D
:104C500063D117091C418A08F118DC5BBE9803AECA
:104C60000800A1471377FE07631CF70613587E0060
:104C700013530E011378F80F1373F30FB387C500A6
:104C8000429363C80501130713006357B704639980
:104C9000050563C70705A166938606F81397750097
:104CA000758FE1769386F607337EDE00B70601FF47
:104CB0003367C701FD16FD17758F63D367009A87A9
:104CC0008D8FC207B705FF00ED8FD98F23A0F800A5
:104CD00082809388818261B7E35FB8FAC28565BF3D
:104CE000EFB27F839306F6FF81472E860147A145E9
:104CF000EFF0BFF36FB07F84EFB2FF812E88930592
:104D0000700401CA8547930580046304F600930587
:104D1000600493061600814701474286EFF0FFF0DA
:104D20006FB0BF81EFB22FFFBE06D58D1E06D18DAD
:104D3000EFF07FE96FB07F80EFB2EFFDB7070200C1
:104D40003284635BF600B2862E868D45EFF09FFDC0
:104D5000AA8426856FB06FFE2E86814691452A89EA
:104D6000EFF05FFC93157400AA8493E525054A854E
:104D7000EFF07FE5F9BFEFB20FFAC167FD171E062E
:104D8000BE96D18DBE06D58DEFF0FFE36FB0EFFA82
:104D900083474503BE951C4198276350B70213070C
:104DA000E00F635BB700EFB20FF70845B77502007D
:104DB00093858523EF50E06D8CA78280EFB2AFF52D
:104DC000AA842E84EFF0DFFC83C744033E94238A39
:104DD00084026FB08FF6EFB20FF4C167FD17B29780
:104DE0003707020041112E84B28663F9E7002E8650
:104DF0008545EFF05FF841016FB02FF432C4300009
:104E00008D47B285AA845C86EFF04FEF2A86A28593
:104E10002685EFF07FF2C5B7D841032805000506C7
:104E200093172700032748038C4162063E971C43D3
:104E3000A207A183D18F49466394C5001CC3828019
:104E4000EFB26FED1CC38346450361761306F60788
:104E50009E06F18FD58F1CC38545EFF03FF66FB0EE
:104E6000CFED9C414947639FE700A1479CC11C418E
:104E7000D841DC5B0A07BA979C439D8393F7F70FF1
:104E8000DCC182804D476391E7021441D8419317FA
:104E90002700D85AB70600023E971C43A207A183F9
:104EA000D58F1CC3C5479CC182809C412947DD1713
:104EB0006361F70EEFB22FE6377702008A07130718
:104EC0004703BA979C432E84AA8482871C45D84105
:104ED000945B931747009842D1463E975C2393F723
:104EE000F70363E3F602B77602008A0793860606A5
:104EF000B6979C43828799471CC01C435CC029A07D
:104F00001C6395479CC1DCE16FB02FE38D471CC04B
:104F1000E5BF8947EDBF8547DDBF9D47F1BFDC2178
:104F2000DCC1A147EDB7CC41C20593E59500EFF098
:104F30009FC948C0C547E1BF03974500F421814799
:104F40000146AD452685EFF05FCEE5B7EC21EFF0E9
:104F5000EFE981470317440074200146B545DDB7EA
:104F6000EC21EFF0AFE881470317440074200146BD
:104F7000B945C9BF03964500EC21EFF01F9C81475E
:104F80000317440074200146B1456DBFEFF07FED7B
:104F9000A5BF8280EFB22FD801112E842A89B28456
:104FA000EFF0BFF01C404147FD176362F70237770F
:104FB00002008A071307470BBA979C43828705466E
:104FC000A6854A85EFF07FC8A14744C01CC0056193
:104FD0006FB0AFD6814701478146268695454A8501
:104FE000EFF0BFC4D5B781470147814626869D456E
:104FF000FDB75C403008B2853ECCDC234A8593E7A0
:105000000704230EF100EFF06FCF914748C01CC09A
:105010005040A6854A85EFF03FD27DB75C600146DF
:105020002C08538507E03EE6EFE05003B26719CD48
:10503000E246C167FD17B6973707020063F8E7003D
:10504000268689454A85EFF01FD3BDBFD38507E08B
:105050004A85EFF06FDD2A866DBF5040A6854A85F0
:10506000EFF07FD795B70327090054402166130658
:1050700006F893972600545B61771307F707BE96EF
:105080009C427D8F93977400F18FD98F9CC22DBF66
:105090005440E38B96F2814701472686814581B7CC
:1050A000EFB2CFC5AE842A843289EFF0BFEE9840CC
:1050B000C1476318F700D040938584002285EFF044
:1050C000DFA98C4483A9C400638035092285EFF0F1
:1050D0000FF211E5CE852285EFF06FF13DCD9840BE
:1050E000C147FD596306F7002285EFF0DFB2AA89B8
:1050F0001C48014781465CC84A86814799452285FC
:10510000EFF0BFB21C489D45AA8A5CC801478147A1
:1051100081464A862285EFF05FB12A8ACE852285B4
:10512000EFF07FA983290401CC445687CA864E86B6
:105130002285232A3401EFF06FFC8C445287CA8603
:105140004E862285EFF08FFBFD579CC4DCC4A1473F
:1051500023A224019CC06FB0AFBD7D5AFD5AD9B7C0
:10516000EFB2CFB99C4145472A84AE84B289639699
:10517000E7041C41D841DC5B0A07BA9703A9070082
:10518000930730031377F907631CF702EFF00FEA78
:105190001C48135609010147FD171CC8814693C7D7
:1051A00019001376F60F930520042285EFF0FFA770
:1051B0002285EFF05FA66FB0AFB72147638DE700A0
:1051C00085452285EFF09FBF03464403A6852285CF
:1051D0007D16EFF03FDCA6852285EFF06FC3CE870A
:1051E0000147D4401306F00F930530047DBFEFB2A2
:1051F0008FB22A84AE84EFF05FCBA6852285EFF0D4
:105200002FC122858545EFF07FBB03464403A68569
:1052100022857D16EFF0DFE86FB02FB2EFB2AFAFAF
:105220002E842A89EFF07FC81840A1476315F70242
:1052300018445C444440630DF7004A85EF701060E9
:1052400063CBA4005040A2854A85EFF07FE544403F
:1052500026856FB08FAEA2854A85EFF05FF9C5BF96
:10526000EFB2CFA901112A842E89B2842C087008CC
:105270003685B68902CEEFF0CFC01DCDA68522853A
:10528000EFF0DFF9E2462A8A11094E86A6852285CB
:1052900036C6EFF06FED7247B24685475286CA8533
:1052A0002285EFF09F982285EFF0FF96C147C8C096
:1052B0009CC005616FB0CFA770082C082685EFF061
:1052C0004FBC11CDCE852285EFF05FF59307A0038B
:1052D0002A8AE2466300F902130910047DB7A68505
:1052E0002285EFF0BFF32A8ACE852285EFF01FF3E7
:1052F000AA8661BF1309000449BF9841A9476316F4
:10530000F7009845DC456308F700EFB2CFA0EFF057
:10531000FFF06FB08FA28280EFB2EF9F9845DC451F
:105320006306F700EFF09FEF6FB02FA1EFF0FFB72C
:10533000E5BFEFB24F9E9845DC45AA842E846309F1
:10534000F700A2852685EFF07FED01456FB0EF9E57
:10535000EFF00FE47DD50545D5BFEFB2CF9B4111EE
:10536000AE84BA852A8432C636C43AC2EFF07FFCD6
:105370001247A24632465843AA87A6852285EFF0F7
:10538000DF8A41016FB06F9BEFB2EF989C411947E4
:10539000AA84DD1732896360F704377702008A0731
:1053A0001307870FBA979C432E848287B285EFF04C
:1053B0002FA65020CA852685EFF09FCE6FB0EF97BD
:1053C000B285EFF0BFE554402A8681470147A945E1
:1053D0002685EFF09F85CA852685EFF06FA3F9BF7C
:1053E000328783964500F021BD452685EFF0FFF614
:1053F000DDB7328783964500F021C545FDB732877A
:1054000083964500F021C945CDB732878396450084
:10541000F021C145D9BFEFB20F9041112A84AE846B
:105420003289EFF0BFDFD440A685228536C6EFF083
:105430002F9E8347440322858945DCC0A1479CC039
:10544000EFF0DF97B246D0404A872285D145EFF092
:10545000DFF0CA852285EFF0AF9B41016FB0EF8D81
:10546000EFB26F8B2E84AA84EFF03FA41C401D473F
:105470006360F70211477D5663F4E70209476381D1
:10548000E7020146A2852685EFF09FCD2A8609A86E
:105490004147E398E7FE4C402685EFF04FBC504073
:1054A0009305C4002685EFF04FEB0C442685EFF002
:1054B0008FF0FD571CC46FB04F88EFB2CF852E849C
:1054C000AA84EFF09F9E1C400D477D566388E7003D
:1054D00041476382E70205476391E7029305840031
:1054E0002685EFF08FE74C442685EFF0CFECFD5793
:1054F0005CC46FB08F845040D5B70546A285268521
:10550000EFF01FC62A86D9BF184199476319F700E3
:105510001C4548453385A740133515008280014559
:105520008280EFA25FFF2A84EFF01FFE11C5484082
:105530001305F507133505106FB02F80EFA2BFFDDF
:1055400018429D4741112A892E84B284631FF700B7
:105550005C423000B2853EC4DC2393E707045C86DE
:10556000EFE0DFF99147C8C09CC01840A947631B12
:10557000F700A6854A85EFF00FB109E5A2854A85B7
:10558000EFF0DFC91C402947639BE7005C407CA02B
:10559000DC405EA0B5471CC041016FA01FFA5C2033
:1055A000A6854A857CA0EFF00FAE09C5DC405EA061
:1055B000BD47D5B72685EFF03FF509C9DC40130795
:1055C000F00F6365F7005EA0B947F1B7A6854A857D
:1055D000EFF0DFC44AA0B1477DBFEFA2DFF3411176
:1055E0002E89B285AA843284EFF03F8CD14763EFD5
:1055F0002701B7770200938747110A093E9983274D
:1056000009008287A2852685EFF09FE541016FA002
:10561000DFF2A2852685EFF05FEACDBFA285268561
:10562000EFF0FFBCE5B781452285EFF0EF8A79FD09
:10563000A2852685EFF09FBED1BF81452285EFF080
:10564000AF8969F5A2852685EFF0BFCEC1B770009E
:105650002C002285EFF0EF82D9BFEFA2DFEB4111E2
:105660002A842EC6EFF08F9C32460C402285EFE054
:105670009FDD41016FA07FECEFA25FE841112E8911
:10568000B285AA843284B689EFF03F8289476300ED
:10569000F9066368F9008D476301F90241016FA0C3
:1056A0003FE9B77602009386C62022869305C9009B
:1056B00013858400EFF04FB675F1A2852685EFF0D3
:1056C000FFB52AC6A2852685EFE09FF4B246930572
:1056D00019038147014701462685EFF00FD5C547DD
:1056E00048C01CC0CE852685EFF03FF745BF14406B
:1056F00041479387F6FF6363F702377702008A0713
:1057000013078716BA979C43828789471CC039A024
:105710008D47EDBF4C402685EFF06F940C445C4400
:1057200026854CC41CC4EFF0EF890C442685EFF0AD
:105730006F89ADB7A147638DF60085452685EFF0EB
:10574000EFE703C64403A28526857D16EFF09F840C
:10575000A2852685EFE0DFEB4C402685C20593E568
:105760003503EFF04FC648C0C5474DB7EFA23FD84D
:10577000411142892A84AE8446C6B28B368B3A8A5E
:10578000BE8AEFF0BFA95287AA86AA898147DA8527
:1057900001462285EFF06FC95E862A8BA685228599
:1057A000EFF08F9CC5479CC0CA85228523A2640167
:1057B000EFF0BFEAB2480647D687C685D2864E8646
:1057C0002285EFF08FC6CA852285EFF01FE94101DF
:1057D0006FA07FD5EFA23FD47971AA8432852ED6EF
:1057E00036D43AD23ED032CEEFF01FD221CD72461F
:1057F0009308F00F0145032346001304F30763E306
:1058000088041305F0073307654082570145125895
:10581000A256B25563E8E8023EC026858147930848
:10582000F002EFF0BFF498409C48B70601FF585BC8
:105830008A07F1173E971C43FD164204F58FC18F6E
:105840001CC3054545616FA05FCFEFA2DFCC0111FE
:105850002E84B6853289AA843ACE36CCEFF01F9CCE
:1058600072476246930744FE3EC03A889308E002BE
:105870002A878147A286CA852685EFF03FEF05611A
:105880006FA0BFCBEFA29FC741112A89AE84368596
:105890008145B2893684BA8A3E8AEFE0FFE305CDBE
:1058A00018445C446319F702A2854A85EFF04F8ED5
:1058B0001DC15840938764003EC09308000352887E
:1058C000D687938664012286CE854A85EFF01FEA4B
:1058D00041016FA0FFC59384240263860A00A2855C
:1058E0004E85EFE07FB35287A2864E86A6854A8515
:1058F000EFF0BFF5F1BFEFA27FC07971AE89B68539
:105900002A89B28436843A8AEFF02FDAAD4763FEF3
:105910003701D14763E337033777020093972900B4
:105920001307C71ABA979C438287A2862686CE851C
:1059300013058900EFF04F8E69DD45616FA05FBFF1
:10594000D0449305C4004A85EFF02FA14146A285BB
:105950002685EFB03127D5B7904493058400E5B78D
:10596000A2854A85EFF0BF8883274901832A090170
:1059700063D25707832709008A0AF11ADC5BBE9AB3
:1059800083A90A009307500313F7F9076317F70475
:10599000A2854A85EFE0DFC7DC402167130707F8DF
:1059A0009E07F98F03A70A00E1769386F607758FA5
:1059B000D98F370701FF7D177D8F93D7090193F7A3
:1059C000F70F8507C207B706FF00F58FD98F23A011
:1059D000FA00A5B7938A818265B7D0408147014715
:1059E0008946930550034A85EFF02FA4A2854A8586
:1059F000EFE01FC2D2854A85EFF03FC63DBF81452B
:105A00002685EFE07FCDAA8A11C5A2852685EFE025
:105A1000BFA0854A639609022285EFF09FB00DC1B1
:105A2000584099473EC09308F0025288D687130722
:105A3000F707D5462286A6854A85EFF03FD3F5BD08
:105A4000D2875687A2862686CE854A85EFF09FE3C9
:105A5000EDB59D475287D5462286A6854A85EFF04B
:105A60007FD7E31C05ECD2870147E9BF98409947EF
:105A70006316F702A6854A85EFF0BF8B05C1A285A4
:105A80002685EFE07F998547138769003AC0930820
:105A90000003528858409386690169BF18409947AE
:105AA000630BF7005287A2862686938529024A85D2
:105AB000EFF0BFD959B5A2854A85EFF09F877DD118
:105AC0008147D9B72685EFF0DFA50DC1A2852685D0
:105AD000EFE09F945840C1473EC09308F0025288BF
